:100000000C94C9000C94F1000C94F1000C94F100D4
:100010000C94F1000C94F1000C94F1000C94361C3B
:100020000C94F1000C94F1000C94F1000C94DF1B83
:100030000C94F1000C94F1000C94881B0C94F100CA
:100040000C944C1E0C94F1000C94CF200C942121A4
:100050000C94F1000C94F1000C94F1000C94F1005C
:100060000C9461150C94F10008000000BE92244924
:10007000123EABAAAA2ABECDCCCC4C3E00000080DA
:10008000BEABAAAAAA3E00000000BF000000803F4D
:100090000000000000084178D3BB4387D1133D190D
:1000A0000E3CC3BD4282AD2B3E68EC8276BED98F3A
:1000B000E1A93E4C80EFFFBE01C4FF7F3F0000007E
:1000C000000057616B652075702C204E656F210014
:1000D000496E636F727265637420536F6E6720465A
:1000E0006F726D6174210053746F70205465737466
:1000F000005520696E7075743D00537461727420F0
:1001000054657374004669726D7761726520766517
:100110007273696F6E3A200076616C75653D006D93
:10012000656E75506F736974696F6E3D00020100F2
:1001300000000000240027002A0000000000250025
:1001400028002B00000000002300260029000404E2
:10015000040404040404020202020202030303036F
:10016000030301020408102040800102040810204B
:100170000102040810200000000700020100000333
:10018000040600000000000000006A02FD13902237
:10019000630211241FBECFEFD8E0DEBFCDBF13E056
:1001A000A0E0B1E0E6E7F9E502C005900D92A63CBB
:1001B000B107D9F716E0A6ECB3E001C01D92A03557
:1001C000B107E1F711E0C0E9D1E004C02297FE01D8
:1001D0000E94AA2CCA38D107C9F70E94EA220C94BF
:1001E000AE2C0C9400001F93FC0199278827BC01BA
:1001F000E89411911032E9F3193010F01E30C8F371
:100200001B3251F01D3249F4689406C00E944B0124
:10021000610F711D811D911D119110531A30B0F3A2
:100220003EF490958095709561957F4F8F4F9F4FCD
:100230001F910895FB01DC0102C001900D92415015
:100240005040D8F70895FB01DC0101900D92002089
:10025000E1F70895FB019F01E8944230C4F0453274
:10026000B4F44A3029F497FB1EF4909581959F4F82
:10027000642F77270E94942C805D8A330CF0895D6F
:100280008193CB010097A1F716F45DE251931082A0
:10029000C9010C946001592F482F372F262F660F64
:1002A000771F881F991F660F771F881F991F620F7E
:1002B000731F841F951F660F771F881F991F08954E
:1002C000DC01FC01672F71917723E1F7329704C0BD
:1002D0007C916D9370836291AE17BF07C8F3089548
:1002E000482F6AE00E94382C282F30E084E0220F4B
:1002F000331F8A95E1F7842F0E94382C892F820FB3
:100300000895CF93DF9301C0CF01FC0181918A331F
:10031000D9F7EF018081843689F532961092500426
:1003200010924F041BC080914F04909150049C0187
:1003300053E0220F331F5A95E1F7880F991F280FBA
:10034000391F842F992787FD9095280F391F205337
:1003500030403093500420934F0431964081842FD5
:1003600080538A3000F380914F0490915004181606
:10037000190614F480937103EF01219688818F365A
:10038000B9F4FE013196AF014F5F5F4F818199272C
:1003900087FD90959C01205330403093500420936A
:1003A0004F04C397059710F420937203EA01229635
:1003B0008881823689F5CE010296109250041092FF
:1003C0004F041BC080914F04909150049C01A3E006
:1003D000220F331FAA95E1F7880F991F280F391FA5
:1003E000842F992787FD9095280F391F205330407F
:1003F0003093500420934F04CF01FC014191842F8E
:1004000080538A30F8F280914F0490915004909379
:10041000740380937303EF0120917303309174038D
:10042000442737FD4095542F60E67AEE80E090E057
:100430000E94792C62E0220F331F441F551F6A95DA
:10044000D1F72093510430935204409353045093B6
:100450005404CE01DF91CF9108958130910529F5A3
:100460006F5F7F4F79F580E694E060E071E00E9475
:10047000712686EC93E067E071E00E9471268FEEB2
:1004800093E06EE040E021E00E94911788E094E064
:1004900060E140E021E00E94911781E294E06FE08A
:1004A00040E021E00E9491170895892B59F46F5F75
:1004B0007F4F41F486EC93E00E945E2780E694E053
:1004C0000E945E27089580E090E06FEF7FEF0E942A
:1004D0002D02089581E090E06FEF7FEF0E942D02E2
:1004E000089586E794E00E945E2708958091E803CE
:1004F000882309F44CC08091E903882309F447C09C
:10050000809184048823A1F484E894E00E94FB2273
:10051000892B71F00E94941E60938E0470938F0457
:10052000809390049093910484E894E00E940523C2
:100530000E94941E20918E0430918F04409190046B
:1005400050919104621B730B840B950B6D5271409B
:1005500080409040C8F00E94941E60938E04709377
:100560008F04809390049093910480918D0491E086
:10057000892780938D04882311F08FEF03C0809129
:10058000CE03809580938C0480918C0408958FEF26
:100590000895809192048823A1F482E994E00E9456
:1005A000FB22892B71F00E94941E60939B04709330
:1005B0009C0480939D0490939E0482E994E00E94A1
:1005C00005230E94941E20919B0430919C0440912D
:1005D0009D0450919E04621B730B840B950B695E06
:1005E000734080409040C0F00E94941E60939B0432
:1005F00070939C0480939D0490939E0480919A0430
:1006000091E0892780939A04882321F080EC8093DD
:10061000CF0308951092CF03089580919002909196
:100620009102892B09F453C080915B048823A9F0BF
:100630000E94941E20915C0430915D0440915E0400
:1006400050915F04621B730B840B950B695E7340C2
:100650008040904010F010925B0480915B048823EE
:10066000B1F50E94F31A20918A0230918B02821711
:10067000930769F50E94E61A20918C0230918D0251
:100680008217930721F50E94DE1A20918E02309185
:100690008F0282179307D9F40E94941E60935C0422
:1006A00070935D0480935E0490935F0481E0809377
:1006B0005B048AE296E062EC70E00E9488238091FD
:1006C000E7029091E80290933D0480933C040895E2
:1006D000EF92FF920F931F93CF93DF93EC018881EA
:1006E000882309F426C10E94941E20918004309131
:1006F00081044091820450918304621B730B840B2C
:10070000950B209155043091560440915704509117
:100710005804261737074807590708F00AC10E94EE
:10072000941E60938004709381048093820490935C
:1007300083041092500410924F041BC080914F0408
:10074000909150049C0113E0220F331F1A95E1F79A
:10075000880F991F280F391F842F992787FD90959F
:10076000280F391F205330403093500420934F04FA
:1007700021964881842F80538A3000F3E0914F0402
:10078000F09150046091510470915204809153048F
:1007900090915404309731F09F01442737FD4095E4
:1007A000542F05C02091710330E040E050E00E94DA
:1007B000792C20935504309356044093570450935A
:1007C0005804109259048881843691F085363CF49F
:1007D0008236D1F0833654F48136C1F413C08636A4
:1007E00069F086364CF0873689F40AC081E001C092
:1007F00083E0809359040CC085E0FBCF86E0F9CFFD
:1008000088E0F7CF8AE0F5CF8CE0F3CF109259045F
:1008100021968881833231F4809159048F5F8093CF
:100820005904219688818E32E9F4E0905504F090C5
:1008300056040091570410915804C801B70122E0F2
:1008400030E040E050E00E94792CE20EF31E041FDD
:10085000151FE0925504F09256040093570410932C
:1008600058042196888180538A3020F480935A045A
:10087000219604C08091720380935A0490915A0487
:1008800088818C3209F4219620915904222309F49D
:1008900050C0892F90E0FC01EE0FFF1FE80FF91FF9
:1008A000EE0FFF1FEE0FFF1FE20FF11DEE0FFF1FF8
:1008B000E757FD4F608171812091550430915604B6
:1008C00040915704509158048AE394E00E94A11C7F
:1008D0000E94941E209180043091810440918204F2
:1008E00050918304621B730B840B950B209155046C
:1008F00030915604409157045091580426173707F9
:1009000048075907B0F40E94941E609380047093C6
:10091000810480938204909383048AE394E00E948C
:10092000831C8AE296E060ED70E00E948823C0E0BC
:10093000D0E0CE01DF91CF911F910F91FF90EF900A
:100940000895EF92FF920F931F93DF93CF93CDB74C
:10095000DEB768970FB6F894DEBF0FBECDBF082F85
:100960007E010894E11CF11CC7016EE071E00E9459
:100970007126033059F48E01095F1F4FC80166ECE0
:1009800073E040E050E022E030E01BC00C3059F44E
:100990008E01035F1F4FC80166EC73E042E050E038
:1009A00024E030E00EC00033A9F48E010D5E1F4F2D
:1009B0002091CA033091CB03C80166EC73E044E098
:1009C00050E00E94EC26C701B8010E943327C801FD
:1009D0000E945E278E010F5F1F4FC8010E9498255D
:1009E000F62EE72EC8010E945E278F2D9E2D689659
:1009F0000FB6F894DEBF0FBECDBFCF91DF911F9130
:100A00000F91FF90EF9008959F92AF92BF92CF9277
:100A1000DF92EF92FF920F931F93D82EF62E142F92
:100A2000922E8DEEA82E84E0B82EC50168E670E007
:100A30000E94C313C5016091D0030E944514812F09
:100A40000E947001682FC5010E9445148F2D0E94DD
:100A50007001682FC5010E9445148D2D0E94700100
:100A6000682FC5010E9445148C2D0E947001682FCB
:100A7000C5010E944514892D0E947001682FC5018F
:100A80000E944514802F0E947001682FC5010E94AA
:100A900045148E2D0E947001682FC5010E944514D7
:100AA000C5016091D0030E944514C5010E948814BD
:100AB0001F910F91FF90EF90DF90CF90BF90AF907C
:100AC0009F900895FF920F931F930DEE14E0C801BD
:100AD00068E670E00E94C313C8016091D0030E94D1
:100AE0004514C8010E948814C80168E670E047E018
:100AF00050E00E949914C8010E94D613282F229515
:100B00002F709AE0F92E2F9D900111248F70820F83
:100B10008093D5031092D603C8010E94D613282FC4
:100B200022952F702F9D900111248F70820F80933A
:100B3000D3031092D403C8010E94D613282F2F7319
:100B400022952F702F9D900111248F70820F80931A
:100B5000D1031092D203C8010E94D613282F2295E8
:100B60002F702F9D900111248F70820F8093DD03D1
:100B70001092DE03C8010E94D613282F22952F70F1
:100B80002F9D900111248F70820F8093D7031092B4
:100B9000D803C8010E94D613282F22952F702F9DAD
:100BA000900111248F70820F8093D9031092DA0381
:100BB000C8010E94D613282F22952F702F9D9001D7
:100BC00011248F70820F8093DB031092DC031F913E
:100BD0000F91FF9008958091DF02882381F486E0D1
:100BE00060E070E00E94881F83E060E070E00E9497
:100BF000881F89E060E070E00E94881F089580915E
:100C0000430490914404DC01AA0FBB1FA80FB91F35
:100C1000FD01EE0FFF1FE55BFC4F6081718180914C
:100C20006F0390917003680F791F70937003609346
:100C30006F03AA0FBB1FFD01E35BFC4F80914704CC
:100C40009091480420813181820F931F9093480432
:100C500080934704A15BBC4F8091490490914A0462
:100C60002D913C91820F931F90934A0480934904E5
:100C700086E00E94881F609147047091480483E0D9
:100C80000E94881F6091490470914A0489E00E9483
:100C9000881F8091450490914604019690934604E4
:100CA000809345048F3F910569F4809143049091AE
:100CB00044040196909344048093430410924604A4
:100CC000109245048091430490914404069724F0C7
:100CD000109244041092430408952F923F924F9231
:100CE0005F926F927F928F929F92AF92BF92CF92BC
:100CF000DF92EF92FF920F931F93DF93CF93CDB7C5
:100D0000DEB7C258D0400FB6F894DEBF0FBECDBFDD
:100D10008AE296E065E071E00E9433235E01089468
:100D2000A11CB11CC50160E674E041E050E022E086
:100D300030E00E94EC2617E0E12EF12CEC0EFD1EB7
:100D4000C701B5010E945427C70160E171E00E940C
:100D50001E266C018E01035F1F4FC80160E674E020
:100D600042E050E024E030E00E94EC26C601B801E9
:100D70000E943A26BC018AE296E00E949C23C801A8
:100D80000E945E27C7010E946427C5010E945E275A
:100D90008AE296E06AEF70E00E94882381E10E9477
:100DA000661FAA2797FDA095BA2FBC01CD010E940E
:100DB000842A20E030E040EA50E40E947D2B23E3C7
:100DC00033E343E950E40E947D2B20E030E040E82B
:100DD0005AE30E947D2B23E333E343E35FE30E9466
:100DE00081295B016C018AE296E061EF70E00E946C
:100DF00033238AE296E0B601A50122E030E00E94AA
:100E000082258091E7029091E80290933D048093BF
:100E10003C040E94810186E06FEF70E00E94881F11
:100E200068EE73E080E090E00E94C81E86E060E01B
:100E300070E00E94881F83E06FEF70E00E94881FBF
:100E400068EE73E080E090E00E94C81E83E060E0FE
:100E500070E00E94881F89E06FEF70E00E94881F99
:100E600068EE73E080E090E00E94C81E8E01095C8D
:100E70001F4FC80167E071E00E947126CE01CD9638
:100E800062E171E00E947126C8010C9669E171E08F
:100E90000E947126C801429660E271E00E947126AC
:100EA000C801489667E271E00E947126C8014E961B
:100EB0006EE271E00E947126C801849665E371E0DC
:100EC0000E947126C8018A966CE371E00E94712627
:100ED000C801C09663E471E00E947126C801C696FD
:100EE0006AE471E00E947126BCE38B2E912C800E87
:100EF000911EC40161E571E00E947126CE01875800
:100F00009F4F61E571E00E947126C601B50120E0A6
:100F100030E040E251E40E94E529882374F4A9E11D
:100F2000EA2EF12CEC0EFD1EC70162E571E00E9475
:100F30008A268E010D5E1F4F0DC0F5E2EF2EF12CBB
:100F4000EC0EFD1EC70166E571E00E948A268E0147
:100F5000015E1F4FC601B50120E030E048EC52E4CD
:100F60000E947D2B0E94512A9B01AC01C801B9014E
:100F70004AE00E94BC26C701B8010E943A26BC0183
:100F8000C4010E943327C8010E945E27C7010E9446
:100F90006427CE0187589F4F60E674E00E94332794
:100FA0000E94941E3B014C01EE24E39484EF91E0F7
:100FB000CF57DF4F99838883C158D040BB24C15895
:100FC000DF4F1882CF57D040EBE22E2E312C2C0E63
:100FD0003D1E71E3472E512C4C0E5D1E8FE00E948A
:100FE0007B20892B31F491E0C158DF4F9883CF5794
:100FF000D04080E10E947B20892B29F4C158DF4F2B
:101000001882CF57D0400E94941E6619770988092C
:101010009909CF57DF4FE881F981C158D0409F012E
:10102000442737FD4095542F26173707480759079F
:1010300008F50E94941E3B014C01C158DF4FF88116
:10104000CF57D040FF2309F4B3948AE0B81649F48F
:10105000E8EBFBE0CF57DF4FF983E883C158D0407E
:1010600009C0FCE0BF1631F4C058DF4F1882C058E9
:10107000D04006C081E0C058DF4F8883C058D040C0
:1010800088E060E00E94272087E061E00E9427203E
:101090006E2D70E080E090E00E94822A0E943D2B3D
:1010A00028E132E741E35FE30E94E9290E94512AE7
:1010B0009B019AE0B91621F0EBE0BE1689F408C056
:1010C0008E2D8C7B80648EBD0DB407FEFDCF0EC0CF
:1010D0008E2D8E7880648EBD0DB407FEFDCF06C0C8
:1010E0008E2D806C8EBD0DB407FEFDCF8EB5F6E063
:1010F000BF9E8001112487E390E08C0F9D1F080F95
:10110000191FA22EF32E69010894C11CD11CC10124
:10111000B801A90196010E94EC26C1010E94982500
:10112000DC01CB018E5E9D4FFC0180818EBD0DB434
:1011300007FEFDCF8EB5C1010E945E27C201B80136
:101140004A2D5F2D96010E94EC26C2010E9498252F
:10115000DC01CB01885F9D4FFC0180818EBD0DB409
:1011600007FEFDCF8EB5C2010E945E2787E060E0DA
:101170000E94272088E061E00E942720EE0CF0E228
:10118000FE1510F4EE24E39480ED97E00E94211FF9
:10119000C058DF4F8881C058D040882309F01ECF47
:1011A0008AE296E067EE70E00E9488238E0107587D
:1011B0001F4F61E3C62ED12CCC0EDD1EC8010E944C
:1011C0005E27065010400C151D05C1F7CE57DF4FA6
:1011D0000FB6F894DEBF0FBECDBFCF91DF911F9148
:1011E0000F91FF90EF90DF90CF90BF90AF909F90C6
:1011F0008F907F906F905F904F903F902F900895C9
:10120000AF92BF92CF92DF92EF92FF920F931F9314
:10121000DF93CF93CDB7DEB72C970FB6F894DEBF30
:101220000FBECDBFB82EA92E6B016A30710514F523
:1012300007E0E02EF12CEC0EFD1EC70169E571E020
:101240000E948A268E010F5F1F4FC801B6014AE037
:101250000E94BC26C701B8010E943A26BC018B2D12
:101260009A2D0E944A27C8010E945E27C7010E944A
:10127000642704C08B2D4AE00E94BC268B2D9A2D3A
:101280002C960FB6F894DEBF0FBECDBFCF91DF9185
:101290001F910F91FF90EF90DF90CF90BF90AF9094
:1012A00008956F927F928F929F92AF92BF92CF924A
:1012B000DF92EF92FF920F931F93DF93CF93CDB7FF
:1012C000DEB7E0970FB6F894DEBF0FBECDBF782E25
:1012D000692E809166048823A1F486E694E00E943A
:1012E000FB22892B71F00E94941E60937C04709302
:1012F0007D0480937E0490937F0486E694E00E94B0
:10130000052380916E04882309F054C08EE694E092
:101310000E94FB22892B09F44DC00E94D61ABC0101
:101320004E010894811C911CC4010E9400094DE0EB
:10133000A42EB12CAC0EBD1EC501B4010E945427D1
:101340000E94CE1ABC0137E0E32EF12CEC0EFD1EFC
:10135000C7010E940009C501B7010E943A266C012D
:101360000E94C91A8E010D5E1F4F68EE73E00E9445
:10137000442CBC01C8010E940009C601B8010E94AA
:101380003A26BC0186E794E00E944A278EE694E064
:101390000E94052381E792E00E94E622C8010E9494
:1013A0005E27C7010E945E27C5010E946427C40111
:1013B0000E945E270E94941E20917C0430917D043F
:1013C00040917E0450917F04621B730B840B950B3C
:1013D000695E73408040904008F451C00E94941EA2
:1013E00060937C0470937D0480937E0490937F04CB
:1013F0000E94D61ABC0129E1822E912C8C0E9D1ED2
:10140000C4010E94000995E2C92ED12CCC0EDD1E2C
:10141000C601B4010E9454270E94CE1ABC018FE17C
:10142000E82EF12CEC0EFD1EC7010E940009C6013A
:10143000B7010E943A265C010E94C91A8E01055D1F
:101440001F4F68EE73E00E94442CBC01C8010E944B
:101450000009C501B8010E943A26BC01872D962DCE
:101460000E944A27C8010E945E27C7010E945E278A
:10147000C6010E946427C4010E945E2706C0872D12
:10148000962D66E774E00E944A27872D962DE096F8
:101490000FB6F894DEBF0FBECDBFCF91DF911F9185
:1014A0000F91FF90EF90DF90CF90BF90AF909F9003
:1014B0008F907F906F9008958F929F92AF92BF927E
:1014C000CF92DF92EF92FF920F931F93DF93CF9310
:1014D000CDB7DEB7EC970FB6F894DEBF0FBECDBF29
:1014E0005B018330F9F46E010894C11CD11CC60164
:1014F0000E940009ADE0EA2EF12CEC0EFD1EC701A2
:10150000B6010E9454278E01095F1F4F2091CA0324
:101510003091CB03C80166EC73E042E050E00E94DA
:10152000EC266AC08C3009F047C0F3E18F2E912C75
:101530008C0E9D1EC40166EC73E040E050E022E09A
:1015400030E00E94EC26EFE1CE2ED12CCC0EDD1E39
:10155000C601B4010E94542779E1E72EF12CEC0E6C
:10156000FD1EC701B5010E940009C601B7010E9416
:101570003A265C018E010B5D1F4F2091CA0330910A
:10158000CB03C80166EC73E044E050E00E94EC2617
:10159000C501B8010E943A26BC0186EC93E00E9486
:1015A0003327C8010E945E27C7010E945E27C6013B
:1015B0000E946427C40130C0803381F56BE2C62EDF
:1015C000D12CCC0EDD1EC60166EC73E040E050E08D
:1015D00024E030E00E94EC2657E3E52EF12CEC0EDF
:1015E000FD1EC701B6010E9454278E010F5C1F4FDC
:1015F000C801B5010E940009C701B8010E943A263E
:10160000BC0186EC93E00E943327C8010E945E274C
:10161000C7010E946427C6010E945E27EC960FB6A0
:10162000F894DEBF0FBECDBFCF91DF911F910F9118
:10163000FF90EF90DF90CF90BF90AF909F908F90F2
:101640000895CF93DF930E94941E6093EA037093F2
:10165000EB038093EC039093ED038091DF038823E9
:1016600009F44DC0C091CC03D091CD03CE30D1054B
:1016700059F0FE01EE0FFF1FEA58FD4F8081918166
:1016800001979183808309C0809192029091930287
:101690000C979093930280939202DE01AA0FBB1FD6
:1016A000AD014A585D4FCD018E549D4FFA01208106
:1016B0003181FC0180819181281739073CF4AC56B7
:1016C000BD4F8D919C91FA0191838083CD30D105DE
:1016D00061F48091900290919102019721F480E849
:1016E0008093CF0302C01092CF03CC0FDD1FCA58E6
:1016F000DD4F688179818091CE030E945C0ADF9181
:10170000CF910895CF93DF930E94941E6093EA03D4
:101710007093EB038093EC039093ED038091DF03D0
:10172000882309F44DC0C091CC03D091CD03CE30B5
:10173000D10559F0FE01EE0FFF1FEA58FD4F8081E1
:10174000918101969183808309C08091920290914A
:1017500093020C969093930280939202DE01AA0F5B
:10176000BB1FAD014A585D4FCD018C569D4FFA010C
:1017700020813181FC0180819181821793073CF4A3
:10178000AE54BD4F8D919C91FA0191838083CD30F1
:10179000D10561F48091900290919102019721F41A
:1017A00080E88093CF0302C01092CF03CC0FDD1FDF
:1017B000CA58DD4F688179818091CE030E945C0A0E
:1017C000DF91CF9108956F927F928F929F92AF9207
:1017D000BF92CF92DF92EF92FF920F931F93DF930E
:1017E000CF93CDB7DEB7E0970FB6F894DEBF0FBE4C
:1017F000CDBF782E692E0E94941E20919F043091B7
:10180000A0044091A1045091A204621B730B840BAD
:10181000950B695E73408040904008F47DC00E9443
:10182000941E60939F047093A0048093A1049093EE
:10183000A2048091920290919302489751F50E94E0
:10184000F31ABC014E010894811C911CC4010E9432
:101850000009ADE0AA2EB12CAC0EBD1EC501B4012D
:101860000E9454270E94E61ABC01F7E0EF2EF12CEB
:10187000EC0EFD1EC7010E940009C501B7010E94C0
:101880003A266C010E94DE1ABC018E010D5E1F4FCC
:101890002AC00E94EE1ABC01E9E18E2E912C8C0E1A
:1018A0009D1EC4010E94000965E2A62EB12CAC0E5B
:1018B000BD1EC501B4010E9454270E94E61ABC0156
:1018C0005FE1E52EF12CEC0EFD1EC7010E94000920
:1018D000C501B7010E943A266C010E94DE1ABC01C4
:1018E0008E01055D1F4FC8010E940009C601B801A5
:1018F0000E943A26BC01872D962D0E944A27C801D6
:101900000E945E27C7010E945E27C5010E946427CE
:10191000C4010E945E2706C0872D962D66EC73E0F9
:101920000E944A27872D962DE0960FB6F894DEBFC9
:101930000FBECDBFCF91DF911F910F91FF90EF9020
:10194000DF90CF90BF90AF909F908F907F906F90DF
:101950000895AF92BF92CF92DF92EF92FF920F93D2
:101960001F93DF93CF93CDB7DEB72C970FB6F894C4
:10197000DEBF0FBECDBF0E94A21E2091A3043091F6
:10198000A4044091A5045091A604621B730B840B20
:10199000950B695B7B408040904008F481C00E94B9
:1019A000A21E6093A3047093A4048093A504909353
:1019B000A60488E060E00E94272087E061E00E94A2
:1019C000272010917503612F70E080E090E00E9465
:1019D000822A0E943D2B28E132E741E35FE30E9427
:1019E000E9290E94512A7B018091CF03182B0E9484
:1019F000760218231EBD0DB407FEFDCF8EB5BE2C9A
:101A0000AF2C67010894C11CD11C8E010F5F1F4FC2
:101A1000C80166EC73E0A70196010E94EC26C8019C
:101A20000E949825DC01CB018E5E9D4FFC018081D8
:101A30008EBD0DB407FEFDCF8EB5CE0101960E947E
:101A40005E278E01095F1F4FC80166EC73E04B2DC6
:101A50005A2D96010E94EC26C8010E949825DC01AF
:101A6000CB01885F9D4FFC0180818EBD0DB407FEC8
:101A7000FDCF8EB5CE0107960E945E2787E060E01D
:101A80000E94272088E061E00E9427208091750352
:101A9000880F80937503813218F081E0809375037D
:101AA0002C960FB6F894DEBF0FBECDBFCF91DF915D
:101AB0001F910F91FF90EF90DF90CF90BF90AF906C
:101AC00008956F927F928F929F92AF92BF92CF9222
:101AD000DF92EF92FF920F931F93DF93CF93CDB7D7
:101AE000DEB7C056D0400FB6F894DEBF0FBECDBFF4
:101AF00080913C0490913D040E94680390933D04C2
:101B000080933C040E94941E20914B0430914C041D
:101B100040914D0450914E04621B730B840B950B46
:101B2000663071058105910580F08091420488231B
:101B300011F40E94EB050E94941E60934B04709375
:101B40004C0480934D0490934E040E94A90C8FEE98
:101B500093E00E94101788E094E00E94101781E241
:101B600094E00E9410178091DF03882319F41092EB
:101B7000CE0329C00E94941E2091EA033091EB030A
:101B80004091EC035091ED03621B730B840B950B9A
:101B900061567A4E80409040B0F01092DF03E091A1
:101BA000CC03F091CD03EE0FFF1FE65CFD4F0190DB
:101BB000F081E02DF093CD03E093CC03E053FD4F93
:101BC00080818093CE038091EF039091F0031816EB
:101BD00019060CF05CC110923D0410923C048AE39B
:101BE00094E068EE73E024E630E040E050E00E94CC
:101BF000A11C0E94941E6093EA037093EB038093F0
:101C0000EC039093ED038091CC039091CD0301966A
:101C10009093CD038093CC03049721F41092CD03CD
:101C20001092CC038AE296E06FE171E00E943323C8
:101C30006091CC037091CD038AE296E04AE050E0D7
:101C40000E947F248AE296E068E171E00E943323DB
:101C5000E091CC03F091CD03EE0FFF1FEA58FD4F4A
:101C6000608171818AE296E04AE050E00E947F2420
:101C70002091CC033091CD03F901E053FD4F8081D9
:101C80008093CE03D9011197FD01EE0FFF1FE45E93
:101C9000FD4F208131812115310509F4E9C0F90199
:101CA000EE0FFF1FEA5AFD4F808191818A179B0733
:101CB00009F0DEC02230310509F058C39E01275BD0
:101CC0003F4F41E853E088E1FA010190AF01F9018B
:101CD00001929F018150C1F7809188029091890201
:101CE00083709070892B39F48DE190E0FE01E75B01
:101CF000FF4F93838283FE01E75BFF4F8091860253
:101D0000909187020197880F991FE80FF91F209182
:101D100084023091850280819181821793070CF0B3
:101D200025C387E090E09093CD038093CC032FC32D
:101D3000A0907E02B0907F028090800290908102FD
:101D400060908202709083020E94D61A6C010E94F9
:101D5000CE1A8C010E94C91A7C01C501B401A301ED
:101D600096010E94191A8091CC039091CD0301979E
:101D7000E1F40E94F31A6C010E94E61A7C010E94B1
:101D8000DE1AAC0120918402309185020091860216
:101D900010918702E0918802F0918902E053F84F98
:101DA000C601B7017F010E94191A8091CC0390915E
:101DB000CD03029741F56091E10288E995E070E07A
:101DC00040918A020E94401E6091E10270E06F5FC4
:101DD0007F4F88E995E040918C020E94401E6091FF
:101DE000E10270E06E5F7F4F88E995E040918E02DE
:101DF0000E94401E6091E20288E995E070E0409107
:101E000090020E94401E8091CC039091CD030397D5
:101E100049F46091E00288E995E070E04091920217
:101E20000E94401E85E060E00E9427200E94F31A75
:101E3000C82E0E94E61AD82E0E94DE1AF82E0E94A2
:101E4000D61A182F0E94CE1A082F0E94C91A68EEBF
:101E500073E00E94442CE82E8C2D6D2D4F2D212FE8
:101E6000CC24C3940E94040585E061E00E942720F1
:101E70000091CC031091CD038091CE030E94A10468
:101E8000000F111F0A581D4FF80191838083809124
:101E9000EF039091F00397FF90C08AE394E068EE1F
:101EA00073E024E630E040E050E00E94A11C809105
:101EB000DF03882309F052C00E94941E6093EA0356
:101EC0007093EB038093EC039093ED038091CC032C
:101ED0009091CD03892B09F041C00E94F31ABC01F7
:101EE0004E010894811C911CC4010E9400096DE000
:101EF000A62EB12CAC0EBD1EC501B4010E94542704
:101F00000E94E61ABC0157E0E52EF12CEC0EFD1EF6
:101F1000C7010E940009C501B7010E943A266C0161
:101F20000E94DE1ABC018E010D5E1F4FC8010E9487
:101F30000009C601B8010E943A26BC0186EC93E074
:101F40000E943327C8010E945E27C7010E945E27B6
:101F5000C5010E946427C4010E945E27E091CC0362
:101F6000F091CD03EE0FFF1FE65CFD4F0081118164
:101F70001093CD030093CC030A30110549F481E09E
:101F800090E0909391028093900280E88093CF0339
:101F90008091DF0391E089278093DF03F801E0530C
:101FA000FD4F80818093CE030E94A104000F111F7A
:101FB0000A581D4FF8019183808380910804909105
:101FC0000904009721F0909341048093400480918C
:101FD00008049091090418161906F4F410923D04AF
:101FE00010923C048AE394E068EE73E024E630E06B
:101FF00040E050E00E94A11C0E94820B8091DF0310
:10200000882351F4109242046091E30288E995E03C
:1020100070E040E00E94401E809140049091410495
:102020008F5F9F4F51F580910A04813031F51092F6
:10203000E8038091DF03882319F10E94941E209108
:10204000E4033091E5034091E6035091E703621BFE
:10205000730B840B950B673971058105910580F031
:102060000E94941E6093E4037093E5038093E6035B
:102070009093E7030E94820B03C081E08093E80302
:102080008091210490912204009721F090933F04C5
:1020900080933E0480912104909122041816190621
:1020A000D4F510923D0410923C048AE394E068EE6B
:1020B00073E024E630E040E050E00E94A11C0E9462
:1020C000210B8091DF03882331F581E08093420466
:1020D0006091E30288E995E070E041E00E94401ED3
:1020E0006091E40288E995E070E040916F030E94FE
:1020F000401E6091E50288E995E070E04091470458
:102100000E94401E6091E60288E995E070E04091EF
:1021100049040E94401E80913E0490913F048F5FCD
:102120009F4F51F580912304813031F51092E903DE
:102130008091DF03882319F10E94941E2091E0030F
:102140003091E1034091E2035091E303621B730B72
:10215000840B950B673971058105910580F00E940C
:10216000941E6093E0037093E1038093E2039093E5
:10217000E3030E94210B03C081E08093E903809177
:10218000DF03882309F041C080910804909109047D
:1021900097FF1BC08AE394E068EE73E024E630E02A
:1021A00040E050E00E94A11C81E08093DF0260913A
:1021B000EE0388E995E070E041E00E94401E8AE26B
:1021C00096E06BE571E00E94852580912104909155
:1021D000220497FF1AC08AE394E068EE73E024E6D5
:1021E00030E040E050E00E94A11C1092DF026091BC
:1021F000EE0388E995E070E040E00E94401E8AE22C
:1022000096E062E671E00E9485258091CC03909172
:10221000CD0381309105F1F0823091051CF4892BBA
:1022200041F0B5C08230910529F1039709F0AFC0A4
:1022300070C08E01075E1F4FC8010E94E30B86EC41
:1022400093E0B8010E943327C8010E945E270E94D4
:10225000C90289C08E01015E1F4FC8010E94510949
:1022600086EC93E0B8010E943327C8010E945E27E4
:1022700080E44CC025E2822E912C8C0E9D1E609134
:102280008A0270918B02C4010E94000991E3A92E79
:10229000B12CAC0EBD1EC501B4010E9454278BE2C7
:1022A000E82EF12CEC0EFD1E60918C0270918D02D7
:1022B000C7010E940009C501B7010E943A266C01BE
:1022C0008E01095C1F4F60918E0270918F02C801D0
:1022D0000E940009C601B8010E943A26BC0186ECA2
:1022E00093E00E943327C8010E945E27C7010E9425
:1022F0005E27C5010E946427C4010E945E27809169
:10230000900290919102019761F580E88093CF034C
:102310002AC003E4E02EF12CEC0EFD1EC70166E599
:1023200071E00E948A268E01035C1F4F6091920229
:1023300070919302C8014AE00E94BC26C701B8010F
:102340000E943A2666E571E00E941E26BC0186ECDA
:1023500093E00E943327C8010E945E27C7010E94B4
:1023600064271092CF030E940D0311C01092DF0367
:10237000AA0FBB1FA45EBD4F8D919C9101979093B6
:10238000CD038093CC03892B09F0EDCCD1CCC05A7E
:10239000DF4F0FB6F894DEBF0FBECDBFCF91DF91F8
:1023A0001F910F91FF90EF90DF90CF90BF90AF9073
:1023B0009F908F907F906F900895CF92EF92FF92B1
:1023C0000F931F9385E060E00E94272088E060E083
:1023D0000E9427208DEE94E00E949D148AE296E0F0
:1023E00040E855E260E070E00E945C216091E0020C
:1023F00088E995E070E00E94391E8C3019F088E180
:1024000090E002C08CE090E090939302809392025F
:102410006091EE0388E995E070E00E94391E882300
:1024200021F081E08093DF0202C01092DF02609110
:10243000E10288E995E070E00E94391E8F3F29F49F
:1024400010928B0210928A020BC06091E10288E91F
:1024500095E070E00E94391E80938A0210928B02F0
:102460006091E10270E06F5F7F4F88E995E00E9424
:10247000391E8F3F29F410928D0210928C020DC0EC
:102480006091E10270E06F5F7F4F88E995E00E9404
:10249000391E80938C0210928D026091E10270E0EF
:1024A0006E5F7F4F88E995E00E94391E8F3F29F4C7
:1024B00010928F0210928E020DC06091E10270E0C6
:1024C0006E5F7F4F88E995E00E94391E80938E02EF
:1024D00010928F026091E20288E995E070E00E941C
:1024E000391E8F3F29F410929102109290020BC076
:1024F0006091E20288E995E070E00E94391E8093C5
:102500009002109291026091E30288E995E070E0F8
:102510000E94391E8F3F19F4109242040EC0609140
:10252000E30288E995E070E00E94391E10924204AF
:10253000882319F081E08093420486E061E00E94E4
:10254000E81F83E061E00E94E81F89E061E00E94EB
:10255000E81F8AE394E062E00E94FB1A8091E702A0
:102560009091E8020E9481019093E8028093E70233
:1025700087E061E00E94E81F88E061E00E94E81FB8
:1025800085E061E00E94E81F0E94AC138CE00E948D
:10259000961383E00E949B138EE062E00E94E81F86
:1025A00080E162E00E94E81F8FE062E00E94E81F85
:1025B00082E061E00E94E81F34E1E32EF12C012D5E
:1025C000112DE092F203F092F3030093F4031093C1
:1025D000F5032EE130E040E050E02093F603309325
:1025E000F7034093F8035093F90380ED97E0A0E0E0
:1025F000B0E08093FA039093FB03A093FC03B093A5
:10260000FD03E0920B04F0920C0400930D04109370
:102610000E0420930F043093100440931104509340
:1026200012048093130490931404A0931504B093A0
:102630001604E0922404F0922504009326041093DB
:102640002704209328043093290440932A045093AC
:102650002B0480932C0490932D04A0932E04B0930C
:102660002F0485E061E00E9427200E946D06809182
:102670004204882309F16091E40288E995E070E062
:102680000E94391E682F86E00E9427206091E50293
:1026900088E995E070E00E94391E682F83E00E946F
:1026A00027206091E60288E995E070E00E94391EDB
:1026B000682F89E00E9427200E9462056091D30361
:1026C0007091D4034091D5035091D6032091D70344
:1026D0003091D8030091D9031091DA03E090DB0325
:1026E000F090DC038091D1039091D2030E94191ADB
:1026F00085E060E00E9427208091D1036091D303A0
:102700004091D5032091D7030091D903E090DB03DA
:10271000CC24C3940E94040585E061E00E94272038
:102720001F910F91FF90EF90CF9008959CB5937FEC
:10273000982B9CBD08952CB5382F33702C7F322BED
:102740003CBD2DB590E095958795959587958170C1
:102750002E7F822B8DBD08958AE061E00E942720A4
:102760008AE061E00E94E81F8CB580618CBD8CB569
:1027700080648CBD8DE061E00E94E81F8BE061E029
:102780000E94E81F089581E08093EC046093C904DF
:102790001092EA041092EB0408952091C80430E0EE
:1027A0008091C704281B3109C90108954091C704CD
:1027B0008091C804481718F02FEF3FEF0AC0E42FAC
:1027C000F0E0E955FB4F8081282F30E04F5F4093C8
:1027D000C704C9010895E091C7048091C804E817AF
:1027E00018F0EFEFFFEF06C0F0E0E955FB4F8081F6
:1027F000E82FF0E0CF01089508951092F0041092B0
:10280000EF0488EE93E0A0E0B0E08093F1049093B1
:10281000F204A093F304B093F4048DE993E0909351
:10282000EE048093ED040895CF92DF92EF92FF9231
:102830000F931F93CF93DF937C016B018A018091EB
:10284000EC048823A1F0C0E0D0E00DC0D701ED91E9
:10285000FC91D601AC0FBD1F0190F081E02DC701A6
:102860006C9109952196C017D10780F304C0CB0164
:10287000642F0E944615C801DF91CF911F910F91DF
:10288000FF90EF90DF90CF900895DF93CF930F925A
:10289000CDB7DEB7FC0169838091EC048823C9F0D1
:1028A0008091EB04803238F081E090E09383828362
:1028B00020E030E015C08091EA04E82FF0E0E65314
:1028C000FB4F998190838F5F8093EA048093EB04A0
:1028D00005C0CE01019661E00E94461521E030E07E
:1028E000C9010F90CF91DF9108950F93062F80912A
:1028F000C9046AEC74E04091EB0421E00E94F114F9
:102900001092EA041092EB041092EC040F910895D7
:1029100061E00E9475140895413208F040E2862F6C
:1029200067EA74E00E94A8141092C7048093C80458
:10293000089521E00E948C1408951092C70410920B
:10294000C8041092EA041092EB040E94F216089553
:10295000382F413210F040E042C08091F9048823C2
:10296000E1F791E09093F9042093FB048FEF8093BB
:102970006605109221054150409322054F5F9093C8
:10298000FA048091FA04330F832B8093FA04809128
:10299000FC04813041F41092FC048091FA0480938D
:1029A000BB0085EC01C085EE8093BC008091F904EA
:1029B0008130E1F380912105841710F440912105C5
:1029C00020E030E00AC0FB01E20FF31FD901AF5F46
:1029D000BA4F8C9180832F5F3F4F2417A0F3842F31
:1029E00008950F931F93582F122F413210F081E05A
:1029F0004AC08091F9048823E1F782E08093F904CA
:102A00000093FB048FEF809366051092210540939D
:102A10002205A1E0B5E0FB0102C081918D938E2FCC
:102A2000861B8417D0F31092FA048091FA04550F94
:102A3000852B8093FA048091FC04813041F410923C
:102A4000FC048091FA048093BB0085EC01C085EE04
:102A50008093BC00112321F08091F9048230E1F3CE
:102A6000809166058F3F11F480E00DC0809166056E
:102A7000803211F482E007C080916605803311F046
:102A800084E001C083E01F910F910895482F6132C7
:102A900010F081E008958091F904843011F082E013
:102AA000089560934405A3E2B5E0842F9C01F901E9
:102AB00002C081918D938E2F841B8617D0F380E006
:102AC00008951F920F920FB60F9211242F933F93E8
:102AD0004F935F936F937F938F939F93AF93BF9326
:102AE000EF93FF938091B90090E0887F90708036DB
:102AF000910509F4F2C081369105CCF58832910533
:102B000009F47BC089329105B4F48031910509F450
:102B10006FC0813191053CF4009709F447C10897D3
:102B200009F04FC165C08831910509F466C08097EE
:102B300009F047C182C08034910509F4A4C08134F2
:102B4000910544F48033910509F482C0C89709F0D7
:102B500038C189C08035910509F489C0883591054F
:102B600009F496C08834910509F02BC1AEC08839AC
:102B7000910509F413C189399105ECF48837910561
:102B800009F4ABC0893791054CF48836910509F4F6
:102B9000A4C08037910509F014C19FC08838910501
:102BA00009F4FCC08039910509F49DC08038910575
:102BB00009F007C198C0803B910509F4C6C0813B6C
:102BC00091054CF4803A910509F49FC0883A91052B
:102BD00009F0F7C0BAC0803C910509F4E3C0883C15
:102BE000910509F4DFC0883B910509F0EAC0C2C035
:102BF0008091FA048093BB00CFC090912105809111
:102C00002205981768F490912105E92FF0E0EF5F15
:102C1000FA4F80818093BB009F5F90932105BCC0D9
:102C20008091FB04882309F44BC085ED8093BC00A0
:102C30008091BC0084FDFCCFC2C080E28093660519
:102C400085ED8093BC008091BC0084FDFCCFB7C0B3
:102C500080E38093660585ED8093BC008091BC0085
:102C600084FDFCCFACC088E3809366059BC0809157
:102C700021059091BB00E82FF0E0EF5FFA4F9083C1
:102C80008F5F80932105909121058091220582C05C
:102C9000809121059091BB00E82FF0E0EF5FFA4FA3
:102CA00090838F5F809321058091FB04882341F0FE
:102CB00085ED8093BC008091BC0084FDFCCF7FC07B
:102CC00081E08093FC0484EA6EC085ED8093BC00B3
:102CD0008091BC0084FDFCCF72C083E08093F90436
:102CE0001092650559C080916505803208F056C084
:102CF000809165059091BB00E82FF0E0EB5BFA4F07
:102D000090838F5F8093650547C080916505803211
:102D100030F4E0916505F0E0EB5BFA4F108285ED51
:102D20008093BC008091BC0084FDFCCF1092F9041C
:102D300060916505E091FF04F091000585E495E060
:102D400070E00995109265052DC084E08093F90428
:102D50001092430510924405E091FD04F091FE04A9
:102D6000099580914405882329F481E080934405E6
:102D70001092230590914305E92FF0E0ED5DFA4FA5
:102D800080818093BB009F5F9093430590914305A2
:102D900080914405981710F485EC01C085E8809374
:102DA000BC000FC085EC8093BC0009C01092660582
:102DB00085ED8093BC008091BC0084FDFCCF109217
:102DC000F904FF91EF91BF91AF919F918F917F9106
:102DD0006F915F914F913F912F910F900FBE0F9088
:102DE0001F9018951092F90481E08093FB041092D3
:102DF000FC0482E161E00E94272083E161E00E94FF
:102E00002720E9EBF0E080818E7F808380818D7FB9
:102E1000808388E48093B80085E48093BC000895A3
:102E2000EF92FF920F931F93CF93DF93EC010E94D9
:102E3000941E7B018C018F850E947B20982F898BAB
:102E40008889882329F4198A992311F481E0898BD0
:102E500099898A89981721F0ED8AFE8A0F8B188F3D
:102E60008D899E89AF89B88DA8019701281B390BE0
:102E70004A0B5B0B8B819C81AD81BE8182179307CE
:102E8000A407B50764F499898A81981741F09A8359
:102E9000992329F08B899C8901969C8B8B8B8A8145
:102EA0008823C9F48D899E89AF89B88DA8019701BF
:102EB000281B390B4A0B5B0B8F819885A985BA8536
:102EC00082179307A407B50734F48B899C899983EB
:102ED00088831C8A1B8A8A818823D1F08D899E89E8
:102EE000AF89B88DE81AF90A0A0B1B0B8B859C85F4
:102EF000AD85BE858E159F05A007B1074CF48B8963
:102F00009C89909581959F4F998388831C8A1B8A01
:102F100089898A8BDF91CF911F910F91FF90EF905C
:102F200008951F93CF93DF93EC01122F6F87488B87
:102F300080E0442309F481E0898B8A8B1C8A1B8AF8
:102F4000198218821A821D8A1E8A1F8A188E84E1AD
:102F500090E0A0E0B0E08B839C83AD83BE838AEFDA
:102F600090E0A0E0B0E08F839887A987BA8788EEC9
:102F700093E0A0E0B0E08B879C87AD87BE878F850C
:102F800060E00E94E81F8889882331F4113021F421
:102F90008F8561E00E942720DF91CF911F910895D6
:102FA0008F929F92AF92BF92CF92DF92EF92FF9259
:102FB0000F931F93CF93DF937B018C01EA012CE3E6
:102FC00030E040E050E00E94572C6883C801B70110
:102FD0002CE330E040E050E00E94572C122F032FEA
:102FE000F42EE52E622F732F842F952F2CE330E0E3
:102FF00040E050E00E94572C6983612F702F8F2D85
:103000009E2D2CE330E040E050E00E94572C122F20
:10301000032FF42EE52E622F732F842F952F28E196
:1030200030E040E050E00E94572C6A83612F702FFF
:103030008F2D9E2D28E130E040E050E00E94572C7B
:1030400079018A01C801B7016C5F7F4F8F4F9F4F95
:1030500027E030E040E050E00E94572C6F5F6B8328
:1030600020E0AA24BB24650101C02F5F822E992491
:10307000F401EE54F84FCF0183709070892B99F4CE
:10308000CF0164E670E00E94442C892B39F4CF0113
:1030900060E971E00E94442C892B29F48EE691E0CE
:1030A000A0E0B0E004C08DE691E0A0E0B0E0A80EA2
:1030B000B91ECA1EDB1EC501A0E0B0E0E816F90685
:1030C0000A071B0790F62E83F401EE54F84F83E0B5
:1030D000882E912C8E229F228114910499F4CF0185
:1030E00064E670E00E94442C892B39F4CF0160E93A
:1030F00071E00E94442C892B29F48EE691E0A0E037
:10310000B0E004C08DE691E0A0E0B0E0A81AB90AF2
:10311000CA0ADB0A980187010A191B092C093D0913
:10312000CF0164E670E00E94442C7C01CF0160E98D
:1031300071E00E94442CAC01E9EAF3E060E0613008
:1031400051F48114910449F4E114F10441F441155E
:10315000510529F002C0808103C08CE101C08DE1DE
:1031600090E0A0E0B0E0081719072A073B0740F0FD
:10317000081B190B2A0B3B0B6F5F31966C30F9F66D
:103180006F5F6D83802F8F5F8C83DF91CF911F9155
:103190000F91FF90EF90DF90CF90BF90AF909F90F6
:1031A0008F900895EF92FF920F931F937B018C01F4
:1031B00080917E0590917F05A0918005B091810559
:1031C000E816F9060A071B0771F0C801B70143E7C3
:1031D00055E00E94D017E0927E05F0927F050093A3
:1031E0008005109381051F910F91FF90EF90089536
:1031F0000E94D2182091790530E02E54384FC90131
:1032000008950E94D21820917505222319F42CE00C
:1032100030E009C0822F90E02D3020F09C012C502E
:10322000304001C09C01C90108954F925F926F9296
:103230007F928F929F92AF92BF92CF92DF92EF9246
:10324000FF920F931F93CF93DF934C01DC011696EF
:103250001C91612F70E080E090E020E833E341EEC4
:1032600051E00E94192C5B016C0122EB37E0E12F49
:10327000F0E0EE54F84F1DC0C90183709070892BA7
:10328000B1F4C90164E670E00E94442C892B39F442
:10329000C90160E971E00E94442C892B41F480E867
:1032A00091E5A1E0B0E0A80EB91ECA1EDB1E2F5F9B
:1032B0003F4F2E173F0701F7D40115968C91482EEA
:1032C0005524C90164E670E00E94442C7C01C901C8
:1032D00060E971E00E94442C8C01C1E0D0E093E0F1
:1032E000692E712C6222732227C0C230D10591F45D
:1032F0006114710479F4E114F10419F40115110554
:1033000049F480E89BE3A6E2B0E0A80EB91ECA1E0D
:10331000DB1E11C0FE01E855FC4F608170E080E0CB
:1033200090E020E831E541E050E00E94192CA60E23
:10333000B71EC81ED91E2196C415D505B4F2D401F6
:1033400012966C9170E080E090E020E13EE040E079
:1033500050E00E94192C7B018C01F401618170E026
:1033600080E090E02CE330E040E050E00E94192C37
:10337000E60EF71E081F191FD4018C91E80EF11CF0
:10338000011D111D14966C9170E0615070408827EA
:1033900077FD8095982F20E831E541E050E00E94CC
:1033A000192CE60EF71E081F191FEA0CFB1C0C1D3A
:1033B0001D1DB701C801DF91CF911F910F91FF90A3
:1033C000EF90DF90CF90BF90AF909F908F907F90C5
:1033D0006F905F904F9008956093690570936A05B0
:1033E00080936B0590936C05209176033091770361
:1033F0004091780350917903260F371F481F591FBA
:1034000020936D0530936E0540936F0550937005C2
:1034100082E090E090937205809371050E94941E63
:1034200060937A0570937B0580937C0590937D056E
:103430000895EF92FF920F93F701E436F1051CF027
:10344000E25BF74001C07E96E09379050093780532
:1034500020937705809375056093740540937305F9
:1034600083E795E00E9415190E94EC190F91FF90D7
:10347000EF900895EF92FF920F931F931CC02F5F60
:103480003F4F4F4F5F4F2093690530936A0540933C
:103490006B0550936C0588EE93E0A0E0B0E0E80E79
:1034A000F91E0A1F1B1FE0927A05F0927B0500931C
:1034B0007C0510937D050E94941EE0907A05F090A3
:1034C0007B0500917C0510917D056E197F09800BAD
:1034D000910B2091690530916A0540916B055091DF
:1034E0006C05685E73408040904048F680916D05A1
:1034F00090916E05A0916F05B0917005281739075E
:103500004A075B07C8F1E0916705F09168053097BD
:1035100099F10995611571058105910519F00E94D0
:10352000EC192AC08091760390917703A0917803DB
:10353000B09179032091690530916A0540916B053E
:1035400050916C05820F931FA41FB51F80936D05CA
:1035500090936E05A0936F05B093700520E030E066
:103560008091710590917205892B11F021E030E076
:1035700030937205209371056091690570916A0519
:1035800080916B0590916C051F910F91FF90EF90CA
:1035900008950E943A1A0E94F81808950E943A1A53
:1035A0000E94D2188091780590E008950E943A1AFE
:1035B0000E94D2188091770590E008950E943A1AEF
:1035C0000E94D2188091730590E008950E943A1AE3
:1035D0000E94D2188091740590E008950E943A1AD2
:1035E0000E94011908950E943A1A0E94D2188091EF
:1035F000750590E00895DC0190919705933008F0EF
:1036000083C06C93E92FF0E0E35DFE4F8491119647
:103610008C9311979F5F90939705813039F1823099
:1036200009F44BC0882309F072C014BC15BC84B5E2
:10363000826084BD85B5816085BD8C91282F30E086
:10364000F901E25BFE4FE491F0E0EE0FFF1FE65C54
:10365000FE4F8591949190938705809386052E590E
:103660003E4FF9018491809388050895109280005F
:103670001092810080918100886080938100809108
:1036800081008160809381008C91282F30E0F901C6
:10369000E25BFE4FE491F0E0EE0FFF1FE65CFE4FB1
:1036A0008591949190938E0580938D052E593E4F70
:1036B000F901849180938F0508951092B0001092C3
:1036C000B1008091B00082608093B0008091B10021
:1036D00081608093B1008C91282F30E0F901E25B8A
:1036E000FE4FE491F0E0EE0FFF1FE65CFE4F859188
:1036F000949190939505809394052E593E4FF9012E
:1037000084918093960508958FEF11968C93089578
:103710001F920F920FB60F9211248F939F93AF9326
:10372000BF93EF93FF938091820590918305A091C1
:103730008405B0918505E0918605F0918705009795
:10374000A105B10531F18081909188058927808399
:103750008091820590918305A0918405B0918505A3
:10376000181619061A061B06FCF480918205909122
:103770008305A0918405B09185050197A109B10940
:103780008093820590938305A0938405B09385056B
:103790000BC080916E008D7F80936E009081809130
:1037A0008805809589238083FF91EF91BF91AF9128
:1037B0009F918F910F900FBE0F901F9018951F92A1
:1037C0000F920FB60F9211248F939F93AF93BF93D5
:1037D000EF93FF938091890590918A05A0918B05C5
:1037E000B0918C05E0918D05F0918E050097A105B3
:1037F000B10531F1808190918F0589278083809177
:10380000890590918A05A0918B05B0918C051816B9
:1038100019061A061B06FCF48091890590918A0509
:10382000A0918B05B0918C050197A109B1098093F6
:10383000890590938A05A0938B05B0938C050BC0E6
:1038400080916F008D7F80936F00908180918F05B4
:10385000809589238083FF91EF91BF91AF919F91D4
:103860008F910F900FBE0F901F9018951F920F927F
:103870000FB60F9211242F933F934F935F938F9323
:103880009F93EF93FF932091900530919105409184
:10389000920550919305E0919405F09195052115BD
:1038A00031054105510579F0808190919605892770
:1038B0008083121613061406150684F42150304036
:1038C000404050400BC0809170008D7F809370000D
:1038D000908180919605809589238083209390051F
:1038E000309391054093920550939305FF91EF918A
:1038F0009F918F915F914F913F912F910F900FBEAC
:103900000F901F901895FC018181813051F0823019
:1039100071F0882389F480916E008D7F80936E0012
:103920000BC080916F008D7F80936F0005C08091E8
:1039300070008D7F80937000808160E00E9427205E
:1039400008952F923F925F926F927F928F929F92F3
:10395000AF92BF92CF92DF92EF92FF920F931F939D
:10396000DF93CF9300D000D0CDB7DEB78C011B0121
:1039700029833A834B835C83DC0111968C911197E8
:1039800087FD61C18C9161E00E94E81FF8015180C0
:10399000552021F0F2E05F1609F0C7C031018824FC
:1039A000992460E072E18AE790E0A40193010E940B
:1039B000792C59016A01860175010894E108F10822
:1039C000010911092FEFE216F1040105110509F0B3
:1039D00008F49BC060E472E48FE090E0A4019301DE
:1039E0000E94792C79018A010894E108F108010903
:1039F000110982E0581611F092E019C09FEFE91604
:103A0000F1040105110509F010F492E087C060E9A6
:103A100070ED83E090E0A40193010E94792C79017C
:103A20008A010894E108F1080109110993E0AFEF58
:103A3000EA16F1040105110509F008F467C068E40D
:103A400078EE81E090E0A40193010E94792C790145
:103A50008A010894E108F10801091109552011F4BF
:103A600093E01EC0B2E05B1611F094E019C0EFEFD6
:103A7000EE16F1040105110509F010F494E04EC0B2
:103A800064E274EF80E090E0A40193010E94792C3D
:103A900079018A010894E108F1080109110995E00A
:103AA000FFEFEF16F1040105110581F178F162E1F4
:103AB0007AE780E090E0A40193010E94792C7901DB
:103AC0008A010894E108F10801091109552011F053
:103AD00096E001C094E02FEFE216F1040105110514
:103AE000A9F0A0F0C601B50120E034E040E050E0CC
:103AF0000E94792C79018A010894E108F1080109F2
:103B00001109552051F495E003C091E0552031F49E
:103B100085B5887F982B95BD3EC097E08091B10018
:103B2000887F982B9093B10036C05101CC24DD24BE
:103B300060E072E18AE790E0A60195010E94792C8D
:103B400079018A010894E108F1080109110980E06E
:103B5000E81680E0F80681E0080780E0180710F416
:103B600091E010C068E478EE81E090E0A601950154
:103B70000E94792C79018A010894E108F108010971
:103B8000110993E0A1E05A1631F480918100887FF9
:103B9000982B9093810089819A81AB81BC81009799
:103BA000A105B10529F48FEF9FEFAFEFBFEF13C071
:103BB000220C331CB10180E090E029813A814B81D5
:103BC0005C810E94192C28EE33E040E050E00E9416
:103BD000572CC901DA01E1E05E16A1F0F2E05F16B0
:103BE00019F1552081F5E7BC8093820590938305F8
:103BF000A0938405B093850580916E0082608093C8
:103C00006E0021C0F0928900E092880080938905BF
:103C100090938A05A0938B05B0938C0580916F00DB
:103C2000826080936F000FC0E092B3008093900594
:103C300090939105A0939205B093930580917000A5
:103C40008260809370000F900F900F900F90CF9133
:103C5000DF911F910F91FF90EF90DF90CF90BF9079
:103C6000AF909F908F907F906F905F903F902F903C
:103C70000895F999FECF72BD61BDF89A80B5089597
:103C8000F999FECF1FBA72BD61BD40BD0FB6F89461
:103C9000FA9AF99A0FBE08951F920F920FB60F92DB
:103CA00011242F933F938F939F93AF93BF93809152
:103CB0009D0590919E05A0919F05B091A005309122
:103CC000A1050196A11DB11D232F2D5F2D3720F0D9
:103CD0002D570196A11DB11D2093A10580939D052F
:103CE00090939E05A0939F05B093A00580919905A0
:103CF00090919A05A0919B05B0919C050196A11DFC
:103D0000B11D8093990590939A05A0939B05B0935C
:103D10009C05BF91AF919F918F913F912F910F90F3
:103D20000FBE0F901F9018958FB7F89420919D05A6
:103D300030919E0540919F055091A0058FBFB9011C
:103D4000CA0108959FB7F8942091990530919A057A
:103D500040919B0550919C0586B5A89B06C08F3F5E
:103D600021F02F5F3F4F4F4F5F4F9FBF542F432F87
:103D7000322F2227280F311D411D511D82E0220FB5
:103D8000331F441F551F8A95D1F7B901CA01089501
:103D90009B01AC017FB7F8948091990590919A05A9
:103DA000A0919B05B0919C0566B5A89B05C06F3F8F
:103DB00019F00196A11DB11D7FBFBA2FA92F982F11
:103DC0008827860F911DA11DB11D62E0880F991FE4
:103DD000AA1FBB1F6A95D1F7BC012DC0FFB7F8948D
:103DE0008091990590919A05A0919B05B0919C05B1
:103DF000E6B5A89B05C0EF3F19F00196A11DB11DC6
:103E0000FFBFBA2FA92F982F88278E0F911DA11DB4
:103E1000B11DE2E0880F991FAA1FBB1FEA95D1F7D9
:103E2000861B970B885E9340C8F22150304040407B
:103E3000504068517C4F211531054105510571F6FF
:103E40000895019739F0880F991F880F991F0297DD
:103E50000197F1F70895789484B5826084BD84B5A4
:103E6000816084BD85B5826085BD85B5816085BD75
:103E7000EEE6F0E0808181608083E1E8F0E010828E
:103E8000808182608083808181608083E0E8F0E0CF
:103E9000808181608083E1EBF0E0808184608083B9
:103EA000E0EBF0E0808181608083EAE7F0E08081F0
:103EB0008460808380818260808380818160808350
:103EC0008081806880831092C1000895982F8E3081
:103ED00008F09E50977080917A038295880F880F22
:103EE000807C892B80937C0080917A008064809311
:103EF0007A0080917A0086FDFCCF20917800409175
:103F00007900942F80E030E0282B392BC9010895E7
:103F10001F93CF93DF93182FEB0161E00E94E81FFE
:103F2000209709F44AC0CF3FD10509F449C0E12FD9
:103F3000F0E0EA58FE4F84918330C1F0843028F4D9
:103F4000813051F08230B1F50CC0863019F18730E4
:103F500049F1843079F514C084B5806884BDC7BD4B
:103F600033C084B5806284BDC8BD2EC080918000FE
:103F7000806880938000D0938900C093880024C01B
:103F800080918000806280938000D0938B00C093EA
:103F90008A001AC08091B00080688093B000C093FE
:103FA000B30012C08091B00080628093B000C093D3
:103FB000B4000AC0C038D1051CF4812F60E002C0F3
:103FC000812F61E00E942720DF91CF911F910895FA
:103FD000CF93DF93482F50E0CA018E599E4FFC01CA
:103FE0003491425B5E4FFA018491882369F190E03D
:103FF000880F991FFC01E05DFE4FA591B491FC0173
:10400000E65CFE4FC591D491662351F42FB7F89426
:104010008C91932F909589238C93888189230BC051
:10402000623061F42FB7F8948C91932F9095892387
:104030008C938881832B88832FBF06C09FB7F89409
:104040008C91832B8C939FBFDF91CF910895482F44
:1040500050E0CA018A589E4FFC012491CA018E5932
:104060009E4FFC019491425B5E4FFA0134913323E1
:1040700009F440C0222351F1233071F0243028F498
:104080002130A1F0223011F514C02630B1F02730D4
:10409000C1F02430D9F404C0809180008F7703C030
:1040A000809180008F7D8093800010C084B58F77D1
:1040B00002C084B58F7D84BD09C08091B0008F7728
:1040C00003C08091B0008F7D8093B000E32FF0E0BB
:1040D000EE0FFF1FE65CFE4FA591B4912FB7F89449
:1040E000662321F48C919095892302C08C91892BB1
:1040F0008C932FBF0895682F70E0CB018A589E4F94
:10410000FC012491CB018E599E4FFC014491625BCE
:104110007E4FFB019491992319F420E030E03CC0DC
:10412000222351F1233071F0243028F42130A1F002
:10413000223011F514C02630B1F02730C1F0243000
:10414000D9F404C0809180008F7703C080918000F3
:104150008F7D8093800010C084B58F7702C084B5B6
:104160008F7D84BD09C08091B0008F7703C080919E
:10417000B0008F7D8093B000892F90E0880F991F49
:104180008C5B9E4FFC01A591B4918C9120E030E0B6
:10419000842311F021E030E0C901089508951F92B1
:1041A0000F920FB60F9211242F933F934F938F933B
:1041B0009F93EF93FF938091C00082FD1DC04091BB
:1041C000C6002091E2053091E3052F5F3F4F2F732A
:1041D00030708091E4059091E5052817390771F05A
:1041E000E091E205F091E305EE55FA4F40833093FC
:1041F000E3052093E20502C08091C600FF91EF9194
:104200009F918F914F913F912F910F900FBE0F90E3
:104210001F901895E0913606F0913706E05CFF4F4D
:104220008191919120813181805C9F4F821B930B02
:1042300060E470E00E94442C892B11F00E94CE2093
:1042400008951F920F920FB60F9211242F933F9350
:104250008F939F93EF93FF9320912606309127062B
:1042600080912806909129062817390731F480910A
:10427000C1008F7D8093C10014C0E0912806F091A9
:104280002906EA51FA4F208180912806909129064B
:1042900001968F739070909329068093280620933F
:1042A000C600FF91EF919F918F913F912F910F90B9
:1042B0000FBE0F901F901895AF92BF92DF92EF92B2
:1042C000FF920F931F93CF93DF93EC017A018B0141
:1042D000DD24403081EE580780E0680780E07807F1
:1042E00011F0DD24D39491E0A92EB12CEC89FD8945
:1042F000DD2069F0C50108A002C0880F991F0A944B
:10430000E2F7808360E079E08DE390E005C0108201
:1043100060E874E88EE190E0A80197010E94572CB4
:10432000215030404040504056954795379527954D
:1043300080E12030380720F0DD2011F0DD24D6CFD9
:10434000E889F9893083EA89FB89208319A2EE89FB
:10435000FF89408121E030E0C9010C8C02C0880F48
:10436000991F0A94E2F7482B4083EE89FF89408128
:10437000C9010D8C02C0880F991F0A94E2F7482BDF
:104380004083EE89FF894081C9010E8C02C0880FED
:10439000991F0A94E2F7482B4083EE89FF898081B8
:1043A0000F8C02C0220F331F0A94E2F720952823B6
:1043B0002083DF91CF911F910F91FF90EF90DF90BD
:1043C000BF90AF900895DC011C96ED91FC911D9774
:1043D000E05CFF4F8191919120813181805C9F4F02
:1043E000821B930B60E470E00E94442C0895DC0172
:1043F0001C96ED91FC911D97E05CFF4F208131816F
:10440000E054F040DF01AE5BBF4F8D919C9111975E
:104410002817390719F42FEF3FEF07C08D919C91B2
:10442000E80FF91F8081282F30E0C9010895DC01D1
:104430001C96ED91FC911D97E05CFF4F208131812E
:10444000E054F040DF01AE5BBF4F8D919C9111971E
:104450002817390719F42FEF3FEF10C08D919C9169
:104460001197E80FF91F20818D919C91119701966A
:104470008F73907011969C938E9330E0C9010895CC
:10448000DC0191968C919197882339F05496ED91A7
:10449000FC915597808186FFF9CF91961C920895E3
:1044A000CF93DF93EC01EE85FF85E05CFF4F208129
:1044B0003181E054F0402F5F3F4F2F733070DF01A8
:1044C000AE5BBF4F8D919C91119728173907D1F39F
:1044D000E05CFF4F80819181E054F040E80FF91FCC
:1044E0006083EE85FF85E05CFF4F31832083EE899A
:1044F000FF89208181E090E00F8C02C0880F991F16
:104500000A94E2F7282B208381E089A3EC89FD89B6
:1045100080818064808381E090E0DF91CF91089575
:1045200010922D0610922C0688EE93E0A0E0B0E0E9
:1045300080932E0690932F06A0933006B0933106F9
:1045400089EB93E090932B0680932A0682EA95E00C
:10455000909337068093360686EE95E09093390661
:104560008093380685EC90E090933B0680933A0662
:1045700084EC90E090933D0680933C0680EC90E0C4
:1045800090933F0680933E0681EC90E09093410625
:104590008093400682EC90E090934306809342061D
:1045A00086EC90E0909345068093440684E08093E7
:1045B000460683E08093470687E08093480685E0BF
:1045C0008093490681E080934A06089580E090E058
:1045D00008950895CF93DF930E942B1F0E94E92234
:1045E0000E94DD11CAE0D1E20E94610D2097E1F343
:1045F0000E940A21F9CFFC0120E030E0808188236D
:1046000011F421E030E0C9010895FC0181E08083CC
:104610000895CF92DF92EF92FF920F931F93CF9363
:10462000DF937C016B018A01C0E0D0E00FC0D601AE
:104630006D916D01D701ED91FC910190F081E02D1C
:10464000C7010995C80FD91F015010400115110568
:1046500071F7CE01DF91CF911F910F91FF90EF90F5
:10466000DF90CF900895EF92FF920F931F93CF9317
:10467000DF937C018B01C0E0D0E0F8010F5F1F4F9A
:104680006491662359F0D701ED91FC910190F0817E
:10469000E02DC7010995C80FD91FEFCFCE01DF91DB
:1046A000CF911F910F91FF90EF900895CF93DF93DB
:1046B000FB01EC01A881B981608171814481558140
:1046C0001296ED91FC9113970995DF91CF91089582
:1046D000EF92FF920F931F938C01DC01ED91FC91FF
:1046E0000190F081E02D6DE009957C01D801ED91FC
:1046F000FC910190F081E02DC8016AE009959C01D0
:104700002E0D3F1DC9011F910F91FF90EF9008954D
:10471000EF92FF920F931F937C010E9433238C0131
:10472000C7010E9468239C01200F311FC9011F91FE
:104730000F91FF90EF900895EF92FF920F931F93C8
:104740007C010E9456238C01C7010E9468239C01B2
:10475000200F311FC9011F910F91FF90EF90089515
:10476000CF93DF93EC016115710519F420E030E07F
:104770000FC0DB010D900020E9F71197A61BB70BC6
:10478000E881F9810280F381E02DAD0109959C015A
:10479000C901DF91CF9108954F925F927F928F92DE
:1047A0009F92AF92BF92CF92DF92EF92FF920F93C0
:1047B0001F93DF93CF93CDB7DEB7A1970FB6F894D1
:1047C000DEBF0FBECDBF2C01742ECB01223008F40A
:1047D0002AE019A231E2C32ED12CCC0EDD1E822E8E
:1047E0009924AA24BB24672D752FA50194010E944A
:1047F000572C79018A01C801B701A50194010E94D3
:10480000192C472D461B0894C108D1084A3014F4CE
:10481000405D01C0495CF6014083E114F1040105EB
:10482000110521F07E2C5F2DC801DDCFC201B6013C
:104830000E94B023A1960FB6F894DEBF0FBECDBF85
:10484000CF91DF911F910F91FF90EF90DF90CF906C
:10485000BF90AF909F908F907F905F904F90089502
:10486000DC012115310541F4ED91FC910190F081BD
:10487000E02D642F099508950E94CC230895CF92CE
:10488000DF92EF92FF920F931F93CF93DF93EC0190
:104890006A017B012115310541F4E881F98101901C
:1048A000F081E02D642F09951FC02A303105D1F425
:1048B00077FF17C0E881F9810190F081E02D6DE26A
:1048C00009958C0144275527BA014C195D096E09D9
:1048D0007F09CE012AE00E94CC239801280F391FBE
:1048E00004C02AE00E94CC239C01C901DF91CF9132
:1048F0001F910F91FF90EF90DF90CF900895CF928E
:10490000DF92EF92FF920F931F936C017B019A014C
:104910000027F7FC0095102FB801A7010E943F2443
:104920008C01C6010E946823080F191FC8011F913E
:104930000F91FF90EF90DF90CF9008957F928F922C
:104940009F92AF92BF92CF92DF92EF92FF920F931E
:104950001F93CF93DF934C017A018B01722ECB0111
:10496000BA01A80197010E94E02B882321F0C4011D
:1049700069EF71E021C0C0E0D0E057016801E89420
:10498000D7F8C601B5012FEF3FEF4FE75FE70E9471
:10499000E02B882351F4C601B5012FEF3FEF4FE71D
:1049A0005FE70E94E529181614F0C1E0D0E02197D6
:1049B00039F0C4016DEF71E00E94B023EC0193C0A7
:1049C000C801B7012FEF3FEF4FE75FE40E94342BA0
:1049D000181654F0C801B7012FEF3FEF4FE75FEC17
:1049E0000E94E529882324F4C40161E072E0E4CF49
:1049F000C801B70120E030E040E050E00E94E52926
:104A000087FD03C0C0E0D0E00EC0D401ED91FC9161
:104A10000190F081E02DC4016DE20995EC0117FBD6
:104A2000109517F9109520E030E040E05FE3DD24B9
:104A30000BC0CA01B90120E030E040E251E40E941D
:104A4000E9299B01AC01D394D71498F3C801B701AD
:104A50000E9481295B016C010E94562A7B018C0116
:104A6000C401B801A7012AE030E00E943024C80F39
:104A7000D91F772039F0C40165E072E00E94B023AD
:104A8000C80FD91FC801B7010E94822A9B01AC013F
:104A9000C601B5010E94802924C020E030E040E238
:104AA00051E40E947D2B7B018C010E94512A5B0105
:104AB0006C01CC24B7FCC094DC2CC401B601A50168
:104AC0002AE030E00E943F24C80FD91FC601B5017B
:104AD0000E94842A9B01AC01C801B7010E94802971
:104AE0007A947720D1F6CE01DF91CF911F910F916B
:104AF000FF90EF90DF90CF90BF90AF909F908F90FE
:104B00007F9008950E949E240895EF92FF920F9344
:104B10001F937C010E94B0238C01C7010E9468236F
:104B2000080F191FC8011F910F91FF90EF90089572
:104B3000FC0180819181009729F420E030E040E081
:104B400050E004C00E94F3009B01AC01B901CA010E
:104B500008950F931F93CF93DF93EC018B016F5F49
:104B60007F4F888199810E949F28009711F480E0EF
:104B700005C0998388831B830A8381E0DF91CF91ED
:104B80001F910F910895CF93DF93EC018881998154
:104B9000892B29F08A819B818617970760F4CE01C3
:104BA0000E94A925882341F08C819D81892B19F4CD
:104BB000E881F981108281E0DF91CF910895EF9231
:104BC000FF920F931F93CF93DF93EC017B016C81D6
:104BD0007D81E114F104C1F04115510599F08A017C
:104BE000060F171FB8010E94C325882369F088812A
:104BF00099812C813D81820F931FB7010E9423016F
:104C00001D830C8381E001C080E0DF91CF911F9173
:104C10000F91FF90EF900895CF93DF93EC0188817F
:104C20009981009711F00E940728198218821D822D
:104C30001C821B821A82DF91CF9108950F931F93DC
:104C4000182F092F6115710561F0DB010D9000200F
:104C5000E9F71197A61BB70BAD010E94DF2588234A
:104C600021F4812F902F0E940C26812F902F1F91CD
:104C70000F9108950F931F93182F092FFB01608147
:104C80007181448155810E94DF25882321F4812F81
:104C9000902F0E940C26812F902F1F910F91089525
:104CA000EF92FF920F931F93CF93DF93EC017B0161
:104CB0008A01BA010E94C325882321F4CE010E94F3
:104CC0000C2607C01D830C8388819981B7010E943F
:104CD0002301CE01DF91CF911F910F91FF90EF90B3
:104CE0000895CF93DF93EC01198218821B821A82F8
:104CF0001D821C826115710551F0DB010D900020B1
:104D0000E9F71197A61BB70BAD010E945026DF9162
:104D1000CF910895CF93DF93EC01198218821B8203
:104D20001A821D821C826115710551F0DB010D9004
:104D30000020E9F71197A61BB70BAD010E94502682
:104D4000DF91CF9108950F931F93182F092F6115AD
:104D5000710559F0DB010D900020E9F71197A61BB2
:104D6000B70BAD010E94502602C00E940C26812F75
:104D7000902F1F910F910895EF92FF920F931F9321
:104D8000DF93CF93CDB7DEB762970FB6F894DEBF4F
:104D90000FBECDBF8C01CB01F801118210821382AE
:104DA0001282158214827E010894E11CF11CB70165
:104DB00050E00E942A01C801B7010E94A326629612
:104DC0000FB6F894DEBF0FBECDBFCF91DF911F911C
:104DD0000F91FF90EF900895BF92CF92DF92EF92E4
:104DE000FF920F931F93CF93DF93082FB92E6B0180
:104DF0007A01E9012417350710F4EA017901802FBF
:104E00009B2D67E072E00E947126D60114968D9169
:104E10009C9115978E159F05D0F08C179D0708F46F
:104E2000EC01D601ED91FC911197EC0FFD1F108163
:104E300010826D917C916E0D7F1D802F9B2D0E94A5
:104E4000A326D601ED91FC91EC0FFD1F1083802F5E
:104E50009B2DDF91CF911F910F91FF90EF90DF90ED
:104E6000CF90BF900895CF93DF93EC01FB0186179D
:104E7000970761F0608171816115710529F04481A6
:104E800055810E94502602C00E940C26CE01DF915F
:104E9000CF910895FC011182108213821282158233
:104EA00014820E9433270895FC011182108213821C
:104EB0001282158214820E9433270895FC0180819A
:104EC00091810E9407280895FC01808191810E94B0
:104ED000072808950F931F93CF93DF93BC0182306F
:104EE000910510F462E070E0E0914E06F0914F06FB
:104EF00040E050E0A0E0B0E024C0808191818617BE
:104F00009707D0F08617970771F4828193811097E5
:104F100029F013969C938E9312972CC090934F0672
:104F200080934E0627C04115510519F08417950747
:104F300018F48D01AC01EF01DF01828193819C01A6
:104F4000F9013097D1F641155105F9F0CA01861BD8
:104F5000970B8430910580F48A819B81011511059E
:104F600021F0F8019383828304C090934F068093CD
:104F70004E06FE01329645C0FE01E80FF91F61930F
:104F800071930297998388833CC080914C069091DD
:104F90004D06892B41F480917D0390917E0390937F
:104FA0004D0680934C0640917F035091800341153C
:104FB000510541F44DB75EB780917B0390917C031E
:104FC000481B590B20914C0630914D06241735078C
:104FD000B0F4CA01821B930B8617970780F0AB01D0
:104FE0004E5F5F4F8417950750F0420F531F509349
:104FF0004D0640934C06F9016193719302C0E0E0C5
:10500000F0E0CF01DF91CF911F910F910895CF93E1
:10501000DF939C01009709F48FC0EC0122971B825B
:105020001A8260914E0670914F066115710581F4E8
:1050300088819981820F931F20914C0630914D06F3
:105040002817390739F5D0934D06C0934C0674C024
:10505000DB0140E050E0AC17BD0708F1BB83AA8339
:10506000FE0121913191E20FF31FAE17BF0779F4D2
:105070008D919C911197280F391F2E5F3F4F3983D7
:10508000288312968D919C9113979B838A83411557
:10509000510571F4D0934F06C0934E064DC0129641
:1050A0008D919C911397AD01009711F0DC01D3CF46
:1050B000DA011396DC93CE931297FA012191319184
:1050C000E20FF31FCE17DF0769F488819981280F5B
:1050D000391F2E5F3F4FFA01318320838A819B81E4
:1050E00093838283E0E0F0E0DB0112968D919C9146
:1050F0001397009719F0BC01FD01F6CFAB014E5F8D
:105100005F4FDB018D919C91840F951F20914C0680
:1051100030914D062817390779F4309729F4109209
:105120004F0610924E0602C0138212824250504027
:1051300050934D0640934C06DF91CF9108956F92A6
:105140007F928F929F92AF92BF92CF92DF92EF9217
:10515000FF920F931F93CF93DF938C01009729F455
:10516000CB010E946A278C01BBC08EEFE82E8FEF27
:10517000F82EE00EF11E4801860E971E8E149F0435
:1051800008F4ACC0D7014D915C91119746175707B1
:10519000B8F04530510508F4A3C0CA01049786173A
:1051A000970708F49DC042505040461B570BF4012E
:1051B000419351936D937C93CF010E94072890C037
:1051C0005B01A41AB50A3801640E751EA0914E0643
:1051D000B0914F06E0E0F0E0CC24DD2447C0A615F6
:1051E000B705A9F5CD91DC911197CE0102968A15EC
:1051F0009B0568F1CE018A199B09029612962C91A3
:10520000129713963C91059758F0F401228333834B
:10521000CA19DB09D183C083D7016D937C9309C080
:105220004E5F5F4F4C0F5D1FF70151834083C901F3
:10523000FC01C114D10431F0D6011396FC93EE9316
:1052400012974EC0F0934F06E0934E0649C08D91E1
:105250009C911197E817F90708F4FC016D0112966B
:105260008C91129713969C919C01D901109709F08B
:10527000B6CF80914C0690914D0686159705E9F4BE
:10528000E617F707D0F420917F03309180032115B2
:10529000310541F42DB73EB780917B0390917C039B
:1052A000281B390B82169306C8F490924D06809203
:1052B0004C06F7017183608313C0CB010E946A27FB
:1052C000EC01009759F0D7014D915C91B8010E9413
:1052D0001A01C8010E9407288E0102C000E010E0F8
:1052E000C801DF91CF911F910F91FF90EF90DF9058
:1052F000CF90BF90AF909F908F907F906F900895C8
:105300005058BB27AA270ED075C166D130F06BD19B
:1053100020F031F49F3F11F41EF45BC10EF4E095D0
:10532000E7FB51C1E92F77D180F3BA176207730702
:105330008407950718F071F49EF58FC10EF4E0957F
:105340000B2EBA2FA02D0B01B90190010C01CA013F
:10535000A0011124FF27591B99F0593F50F4503EEA
:1053600068F11A16F040A22F232F342F4427585FDC
:10537000F3CF469537952795A795F0405395C9F7F4
:105380007EF41F16BA0B620B730B840BBAF09150AC
:10539000A1F0FF0FBB1F661F771F881FC2F70EC04B
:1053A000BA0F621F731F841F48F48795779567951E
:1053B000B795F7959E3F08F0B3CF9395880F08F007
:1053C0009927EE0F979587950895D9D008F481E035
:1053D00008950CD00FC107D140F0FED030F021F479
:1053E0005F3F19F0F0C0511139C1F3C014D198F3E7
:1053F0009923C9F35523B1F3951B550BBB27AA2756
:1054000062177307840738F09F5F5F4F220F331FC7
:10541000441FAA1FA9F333D00E2E3AF0E0E830D093
:1054200091505040E695001CCAF729D0FE2F27D096
:10543000660F771F881FBB1F261737074807AB0764
:10544000B0E809F0BB0B802DBF01FF2793585F4FD9
:105450002AF09E3F510568F0B6C000C15F3FECF3F3
:10546000983EDCF3869577956795B795F7959F5F9E
:10547000C9F7880F911D9695879597F90895E1E0F2
:10548000660F771F881FBB1F621773078407BA0751
:1054900020F0621B730B840BBA0BEE1F88F7E095AC
:1054A000089504D06894B111D9C00895BCD088F093
:1054B0009F5790F0B92F9927B751A0F0D1F0660F00
:1054C000771F881F991F1AF0BA95C9F712C0B1301B
:1054D00081F0C3D0B1E00895C0C0672F782F88272E
:1054E000B85F39F0B93FCCF3869577956795B3955A
:1054F000D9F73EF490958095709561957F4F8F4FC9
:105500009F4F0895E89409C097FB3EF490958095CD
:10551000709561957F4F8F4F9F4F9923A9F0F92F79
:1055200096E9BB279395F695879577956795B795F7
:10553000F111F8CFFAF4BB0F11F460FF1BC06F5FDD
:105540007F4F8F4F9F4F16C0882311F096E911C0EF
:10555000772321F09EE8872F762F05C0662371F010
:1055600096E8862F70E060E02AF09A95660F771F24
:10557000881FDAF7880F9695879597F90895990F00
:105580000008550FAA0BE0E8FEEF16161706E8070D
:10559000F907C0F012161306E407F50798F0621B2E
:1055A000730B840B950B39F40A2661F0232B242B03
:1055B000252B21F408950A2609F4A140A6958FEF22
:1055C000811D811D089597F99F6780E870E060E074
:1055D00008959FEF80EC089500240A94161617068C
:1055E00018060906089500240A94121613061406D4
:1055F00005060895092E0394000C11F4882352F037
:10560000BB0F40F4BF2B11F460FF04C06F5F7F4FEE
:105610008F4F9F4F089557FD9058440F551F59F0D5
:105620005F3F71F04795880F97FB991F61F09F3F8F
:1056300079F087950895121613061406551FF2CFB8
:105640004695F1DF08C0161617061806991FF1CF08
:1056500086957105610508940895E894BB2766272F
:105660007727CB0197F908958ADF08F48FEF089523
:105670000EF0AAC0AECF6894A6CFD5DFC8F39923A9
:10568000D1F3C6F3DF93CF931F930F93FF92C92FEC
:10569000DD2788232AF02197660F771F881FDAF706
:1056A00020E030E040E85FEB9FE3883920F0803E67
:1056B00030F021968F7725DEE8E6F0E003C021DEAA
:1056C000E5E9F0E091D08B01BE01EC01FB2E6F57B4
:1056D00071097595771F880B990B16DF28E132E762
:1056E00041E35FE316D0AF2D9801AE01FF900F911B
:1056F0001F91CF91DF9116DE7DCF0BD07BCF6CDF7A
:1057000028F071DF18F0952309F05DCF62CF1124E6
:10571000A5CF81DFA0F3959FD1F3950F50E0551FE2
:10572000629FF001729FBB27F00DB11D639FAA27F6
:10573000F00DB11DAA1F649F6627B00DA11D661F45
:10574000829F2227B00DA11D621F739FB00DA11D66
:10575000621F839FA00D611D221F749F3327A00D20
:10576000611D231F849F600D211D822F762F6A2FBC
:1057700011249F5750408AF0E1F088234AF0EE0F41
:10578000FF1FBB1F661F771F881F91505040A9F74E
:105790009E3F510570F017CF61CF5F3FECF3983E0D
:1057A000DCF3869577956795B795F795E7959F5FB5
:1057B000C1F7FE2B880F911D9695879597F908954F
:1057C000DEDE880B990B08959F3F49F0915028F435
:1057D000869577956795B7959F5F80389F4F880F1F
:1057E0009695879597F90895DF93CF931F930F931D
:1057F000FF92EF92DF927B018C01689405C0DA2E54
:10580000EF0187DFFE01E894A5912591359145913F
:105810005591AEF3EF0186DDFE019701A801DA9400
:1058200079F7DF90EF90FF900F911F91CF91DF916B
:105830000895629FD001739FF001829FE00DF11DDA
:10584000649FE00DF11D929FF00D839FF00D749FFA
:10585000F00D659FF00D9927729FB00DE11DF91FA6
:10586000639FB00DE11DF91FBD01CF011124089503
:10587000991B79E004C0991F961708F0961B881FA2
:105880007A95C9F78095089597FB092E07260AD0C7
:1058900077FD04D049D006D000201AF470956195A8
:1058A0007F4F0895F6F7909581959F4F0895A1E257
:1058B0001A2EAA1BBB1BFD010DC0AA1FBB1FEE1F8A
:1058C000FF1FA217B307E407F50720F0A21BB30BD5
:1058D000E40BF50B661F771F881F991F1A9469F751
:1058E00060957095809590959B01AC01BD01CF01AD
:1058F000089597FB092E05260ED057FD04D0D7DF5B
:105900000AD0001C38F450954095309521953F4FB2
:105910004F4F5F4F0895F6F790958095709561957C
:105920007F4F8F4F9F4F0895AA1BBB1B51E107C0AC
:10593000AA1FBB1FA617B70710F0A61BB70B881F1F
:10594000991F5A95A9F780959095BC01CD010895AE
:10595000EE0FFF1F0590F491E02D099411E0C0E9CE
:10596000D1E004C0FE010E94AA2C2296C239D107C0
:06597000C9F7F894FFCF17
:1059760030313530303000303030303030003100AA
:105986002E00313131313131003232323232320091
:10599600333333333333003434343434340035352D
:1059A60035353535003636363636360037373737FD
:1059B60037370038383838383800393939393939CD
:1059C60000003030300030300030005247423D6F2A
:1059D6006E005247423D6F666600506F70636F728D
:1059E6006E3A643D342C6F3D352C623D3136303A8B
:1059F6003863362C3861232C3863362C38672C38BC
:105A060064232C38672C632C3863362C3861232C9E
:105A16003863362C38672C3864232C38672C632C73
:105A26003863362C3864362C386423362C3136638A
:105A3600362C386423362C313663362C38642336BC
:105A46002C3864362C313661232C3864362C3136AA
:105A560061232C3864362C3863362C3861232C3875
:105A6600672C3861232C6336006E616E00696E66A2
:105A7600006F7666002E0000FEFDFBF7EFDFBF7FAE
:105A8600FFFFFFFFFFFFFFFFFFFFFEFD000000001F
:105A960000000000010001000100020002000200F7
:105AA60003000300030003000400040007000A00CB
:105AB6000E000000000000000000000000000000D2
:105AC6000000000000000000060009000D000E00A6
:105AD60000000000000000000000000000000000C0
