:100000000C9423020C9454020C9454020C94540249
:100010000C9454020C9454020C9454020C94540208
:100020000C9454020C9454020C9454020C945402F8
:100030000C9454020C94581D0C9454020C945402C9
:100040000C9454020C94AB1D0C9454020C94540266
:100050000C9454020C940A1E0C9454020C94AE1C82
:100060000C9454020C94221D0C94F81C0C94540211
:100070000C9454020C9454020C9454020C945402A8
:100080000C9454020C9454020C9454020C94540298
:100090000C9454020C9454020C9454020C94691E57
:1000A0000C9454020C9454020C9454020C94540278
:1000B0000C9454020C9454020C9454020C94540268
:1000C0000C9454020C9454020C9454020C94540258
:1000D0000C9454020C9454020C9454020C94540248
:1000E0000C9454020C9471280C94C82D0C94920F0B
:1000F0000C94C61F0C9455060C9440070C94B00643
:100100000C9479030C947F030C94BA060C94790632
:100110000C94D00C0C9483030C94522E0C94C32C8E
:100120000C945D0F0C947A280C94580F0C94172E95
:100130000C945F060C949F030C9474280C94A606F0
:100140000C94C00C0C946A030C94170D0C944C0F77
:100150000C9493070C944B060C949C2F0C9443071F
:100160000C9483060C9441070C9446060C94970655
:100170000C949A0F0C94D82E0C9491030C948D032C
:100180000C94922E0C9478280C94D8060C949B0313
:100190000C9472030C943E060C94EA0C0C947007B9
:1001A0000C94C10C0C94F42C0C94A1070C94E30C4B
:1001B0000C946E030C948D060C946C0F0C947C289C
:1001C0000C94CE060C9480280C9441080C94710673
:1001D0000C94A5030C94950F0C947F070C94890341
:1001E0000C94D9070C947E280C94002F0C94A40333
:1001F0000C94C4060C94BB0D0C94A9030C946906D2
:100200000C9464030C94612F0C9497030C94822833
:100210000C947603300057616B652075702C204E6E
:10022000656F210030300030303000303000303029
:1002300000303000300030300030003030303000DE
:1002400030003030300030003030003000300002FC
:1002500001004661756C7479205254432100546545
:100260006D70203D20003939393939390038383836
:10027000383838003737373737370036363636367E
:1002800036003535353535350034343434343400C2
:10029000333333333333003232323232320031319E
:1002A0003131313100303030303030004669726DDC
:1002B000776172652076657273696F6E3A200057B8
:1002C00061726E696E67212052544320444F4E275D
:1002D0005420524553504F4E44210054656D702EAA
:1002E0002073656E736F72206E6F7420666F756E0B
:1002F000642E00496E636F727265637420536F6E73
:100300006720466F726D61742100303100313233E5
:100310003139390033313132393900303000303041
:100320000000002100240027002A002D00300033A7
:100330000001010000040107010A0100002200255C
:100340000028002B002E00310034000201000005BF
:100350000108010B0100000A0B02090C0D0E080731
:100360000304010000000000000000000000000085
:10037000000000000000000000000000000000007D
:10038000001211100000000000000000000000003A
:10039000000000000000000000000000002000231A
:1003A00000260029002C002F00320000010000036D
:1003B00001060109010505050507050808080802E9
:1003C0000202020A0A0808040404040101010101EE
:1003D0000101010303030303030303040707070CDD
:1003E0000C0C0C0C0C0C0C02020202060606060693
:1003F0000606060B0B0B0B0B0B0B0B010210202040
:100400000808102040102040800201020108040268
:1004100001010204081020408080402010080402DE
:100420000180040201804020100804020108040237
:10043000010102040810204080010204081020403D
:100440008000C61F9C2F11241FBECFEFD1E2DEBF5C
:10045000CDBF00E00CBF14E0A0E0B2E0E8E8FAE6AF
:1004600000E00BBF02C007900D92AC3BB107D9F77B
:1004700027E0ACEBB4E001C01D92A03CB207E1F76D
:1004800012E0C2E2D2E000E006C021970109802F0D
:10049000FE010E941D34C132D10780E00807A9F790
:1004A0000E9457200C9432350C9400008091A807CC
:1004B000E091A907F091AA07F8949181982B918374
:1004C0002281382F309523232283A7E0B0E01197B3
:1004D000F1F7918193239183A3E2B0E01197F1F7B3
:1004E00090817894EFECF0E03197F1F7982381E078
:1004F00009F480E008950F931F93CF93DF9308E0F2
:1005000010E0C0E0D1E00E9456028111CD2BDD0F3A
:1005100001501109C1F78C2FDF91CF911F910F91DD
:1005200008959091A807E091A907F091AA07292FB3
:10053000209580FF14C0F894828182238283818178
:10054000892B8183A3E2B0E01197F1F78281982B88
:100550009283789487ED90E00197F1F70895F894ED
:100560008281822382838181892B8183AFEFB0E0F6
:100570001197F1F78281982B928378948FE090E025
:10058000EBCFFF920F931F93CF93DF93F82E062F9D
:10059000C8E0D0E011E081E09F2D912309F480E0D4
:1005A0000E949102110F2197B1F7011113C0F89425
:1005B000E091A907F091AA0791818091A807809501
:1005C00098239183E091A907F091AA07928189234A
:1005D00082837894DF91CF911F910F91FF900895BE
:1005E0008091A807E091A907F091AA07F89491815A
:1005F000282F20959223918378943DE743E050E0A3
:10060000315029F1DA011197F1F790819823C1F364
:10061000F8949281922392839181982B918378947C
:10062000ABE7B7E01197F1F7F894918192239183AA
:10063000A3E1B1E01197F1F79081982381E009F0EF
:1006400080E07894E3E6F6E03197F1F7089580E0F2
:10065000089591E09093760680939806109277061D
:10066000109299060895CF93DF9360E085E50E948C
:10067000C102C0E2D6E060E089910E94C10286E03A
:10068000C832D807C1F7DF91CF91089581508231E8
:1006900008F05AC0E82FF0E08827EE5AFC4F8F4F41
:1006A0000C941D347203760364036A036E03A4037F
:1006B00079037F03830389038D03910397039B03CE
:1006C000A4039F03A503A903809180008F778093E3
:1006D00080000895809180008F7DF9CF8091800007
:1006E000877FF5CF84B58F7784BD089584B58F7DDE
:1006F000FBCF8091B0008F778093B00008958091F8
:10070000B0008F7DF9CF809190008F77809390001B
:100710000895809190008F7DF9CF80919000877F20
:10072000F5CF8091A0008F778093A00008958091ED
:10073000A0008F7DF9CF8091A000877FF5CF8091B9
:1007400020018F77809320010895809120018F7D73
:10075000F9CF80912001877FF5CFCF93DF93282FAA
:1007600030E0F901EB5AFC4F8491F901E550FC4F60
:10077000D491F901EB54FC4FC491CC23A1F0811129
:100780000E944603EC2FF0E0EE0FFF1FE556FC4FF2
:10079000A591B491EC91ED2381E090E009F480E023
:1007A000DF91CF91089580E090E0FACF1F93CF932F
:1007B000DF93282F30E0F901EB5AFC4F8491F901C7
:1007C000E550FC4FD491F901EB54FC4FC491CC237C
:1007D000A9F0162F81110E944603EC2FF0E0EE0FD6
:1007E000FF1FE55CFC4FA591B4918FB7F894EC9195
:1007F000111108C0D095DE23DC938FBFDF91CF911C
:100800001F910895DE2BF8CFCF93DF9390E0FC018A
:10081000E550FC4F24918B549C4FFC01849188231C
:10082000C9F090E0880F991FFC01EF5DFC4FA59186
:10083000B491FC01E55CFC4FC591D49161110DC0F0
:100840009FB7F8948C91209582238C9388812823DC
:1008500028839FBFDF91CF910895623051F49FB7F5
:10086000F8943C91822F809583238C93E8812E2BE2
:10087000EFCF8FB7F894EC912E2B2C938FBFEACF4C
:100880004F925F926F927F928F929F92AF92BF92A0
:10089000CF92DF92EF92FF920F931F93CF93DF934C
:1008A00000D01F921F92CDB7DEB72091A70627FD7B
:1008B0002CC149835A836B837C838C0161E08091D6
:1008C000A6060E9404048091A7068D834801B12CDE
:1008D000A12C8D7F09F031C160E072E18AE790E0E0
:1008E000A50198010E94FE3329013A017A016901AC
:1008F00091E0C91AD108E108F108AFEFCA16D10496
:10090000E104F10409F00CF4C7C060E472E48FE084
:1009100090E0A50198010E94FE3369017A01B1E0DF
:10092000CB1AD108E108F1088D81823009F06AC044
:1009300082E09FEFC916D104E104F10409F00CF440
:100940005EC160E970ED83E090E0A50198010E942E
:10095000FE3369017A01A1E0CA1AD108E108F10861
:1009600083E0BFEFCB16D104E104F10409F00CF4ED
:1009700046C168E478EE81E090E0A50198010E940C
:10098000FE3369017A0181E0C81AD108E108F10853
:1009900084E09FEFC916D104E104F10409F00CF4DE
:1009A0002EC164E274EF80E090E0A50194010E9402
:1009B000FE3369017A01B1E0CB1AD108E108F108F0
:1009C00085E09FEFC916D104E104F10409F008F4B1
:1009D00016C162E17AE780E090E0A50194010E94EF
:1009E000FE3369017A01B1E0CB1AD108E108F108C0
:1009F0008FEFC816D104E104F10411F008F0F0C043
:100A000086E0FDC08FEFC816D104E104F10409F0BF
:100A10000CF491C068E478EE81E090E0A5019801C3
:100A20000E94FE3369017A0191E0C91AD108E108F8
:100A3000F108AD8184E0A111C4CF83E0AFEFCA1605
:100A4000D104E104F10461F15CF162E17AE780E054
:100A500090E0A50194010E94FE3369017A0181E0D2
:100A6000C81AD108E108F10884E09FEFC916D10443
:100A7000E104F104A9F0A0F0730162019AE0F59499
:100A8000E794D794C7949A95D1F7A1E0CA1AD108F0
:100A9000E108F10885E004C081E0AD81A111AFC09B
:100AA00095B5987F892B85BD89819A81AB81BC8161
:100AB0002FEF3FEFA901892B8A2B8B2B79F0D801DF
:100AC000AA0FBB1F29813A814B815C810E94883229
:100AD00028EE33E040E050E00E94DC339D8191300D
:100AE00009F45CC0923009F46BC091110EC0C7BC10
:100AF0002093A2063093A3064093A4065093A50624
:100B000080916E00826080936E000F900F900F9026
:100B10000F900F90DF91CF911F910F91FF90EF9069
:100B2000DF90CF90BF90AF909F908F907F906F900D
:100B30005F904F90089582E0B0CF60E072E18AE765
:100B400090E0A50198010E94FE3369017A01B1E0AD
:100B5000CB1AD108E108F10891E0C114D10481E079
:100B6000E806F10484F068E478EE81E090E0A50105
:100B700098010E94FE3369017A0191E0C91AD108F7
:100B8000E108F10893E0AD81A13009F08DCF8091AB
:100B90008100887F892B8093810086CFD092890045
:100BA000C092880020939E0630939F064093A00633
:100BB0005093A10680916F00826080936F00A5CF53
:100BC000C092B30020939A0630939B0640939C06F4
:100BD00050939D068091700082608093700095CF45
:100BE000730162018AE0F594E794D794C7948A95DB
:100BF000D1F7B1E0CB1AD108E108F10887E0909174
:100C0000B100987F892B8093B1004ECF1F93CF9373
:100C1000DF93182FEB0161E00E940404209739F460
:100C200060E0812FDF91CF911F910C94D603CF3FCD
:100C3000D10511F461E0F5CFE12FF0E0EB5AFC4F64
:100C4000E491E150E23108F0B3C0F0E08827E45DC0
:100C5000F94F8F4F0C941D343E0646064B06550641
:100C60005F06D80669067106790683068D06970623
:100C7000A606B006D806BA06C406CE0684B58068B5
:100C800084BDC7BDDF91CF911F91089584B5806267
:100C900084BDC8BDF7CF80918000806880938000BC
:100CA000D0938900C0938800EDCF8091800080624E
:100CB00080938000D0938B00C0938A00E3CF809113
:100CC0008000886080938000D0938D00C0938C005A
:100CD000D9CF8091B00080688093B000C093B300FA
:100CE000D1CF8091B00080628093B000C093B400F7
:100CF000C9CF80919000806880939000D093990034
:100D0000C0939800BFCF8091900080628093900044
:100D1000D0939B00C0939A00B5CF809190008860DB
:100D200080939000D0939D00C0939C00ABCF8091A6
:100D3000A00080688093A0008091A0008F7B8093AA
:100D4000A000D093A900C093A8009CCF8091A000E0
:100D500080628093A000D093AB00C093AA0092CF92
:100D60008091A00088608093A000D093AD00C093D4
:100D7000AC0088CF80912001806880932001D093BF
:100D80002901C09328017ECF809120018062809349
:100D90002001D0932B01C0932A0174CF80912001B0
:100DA000886080932001D0932D01C0932C016ACFDD
:100DB000C038D1050CF03ECF33CF3FB7F8948091C7
:100DC0001C0690911D06A0911E06B0911F0626B527
:100DD000A89B05C02F3F19F00196A11DB11D3FBF73
:100DE000BA2FA92F982F8827BC01CD01620F711D42
:100DF000811D911D42E0660F771F881F991F4A953C
:100E0000D1F708958F929F92AF92BF92CF92DF92C7
:100E1000EF92FF924B015C010E94DD066B017C01A9
:100E20000E94DD066C197D098E099F09683E73409A
:100E300081059105A8F321E0821A9108A108B10863
:100E400088EEC80E83E0D81EE11CF11C81149104C9
:100E5000A104B10429F7FF90EF90DF90CF90BF90ED
:100E6000AF909F908F9008952FB7F89460911806D7
:100E70007091190680911A0690911B062FBF089554
:100E8000089508950895AF92BF92CF92DF92EF92A6
:100E9000FF920F931F93CF93DF936C017B018B0124
:100EA000040F151FEB015E01AE18BF08C017D10774
:100EB00059F06991D601ED91FC910190F081E02DFE
:100EC000C6011995892B79F7C501DF91CF911F9143
:100ED0000F91FF90EF90DF90CF90BF90AF9008956B
:100EE000FC01538D448D252F30E0842F90E0821B30
:100EF000930B541710F0CF96089501970895FC01B5
:100F0000918D828D981761F0A28DAE0FBF2FB11D0C
:100F10005D968C91928D9F5F9F73928F90E0089564
:100F20008FEF9FEF0895FC01918D828D981731F01E
:100F3000828DE80FF11D858D90E008958FEF9FEF72
:100F40000895FC01918D228D892F90E0805C9F4F48
:100F5000821B91098F739927089588EA96E00E9471
:100F6000A10721E0892B09F420E0822F0895FC01DC
:100F7000A48DA80FB92FB11DA35ABF4F2C91848DFA
:100F800090E001968F739927848FA689B7892C9357
:100F9000A089B1898C91837080648C93938D848DAA
:100FA000981306C00288F389E02D80818F7D8083AD
:100FB0000895EF92FF920F931F93CF93DF93EC016D
:100FC00081E0888F9B8D8C8D98131AC0E889F989F0
:100FD000808185FF15C09FB7F894EE89FF896083F3
:100FE000E889F98980818370806480839FBF81E074
:100FF00090E0DF91CF911F910F91FF90EF900895B6
:10100000F62E0B8D10E00F5F1F4F0F731127E02E90
:101010008C8D8E110CC00FB607FCFACFE889F989C8
:10102000808185FFF5CFCE010E94B707F1CFEB8D10
:10103000EC0FFD2FF11DE35AFF4FF0829FB7F8949C
:101040000B8FEA89FB8980818062CFCF0F931F933A
:10105000CF93DF938C01D0E0C0E0F801EC0FFD1FCF
:101060006491662341F088EA96E00E94D907892BB3
:1010700011F02196F2CFCE01DF91CF911F910F9108
:101080000895CF93DF93EC01888D8823B9F0AA8966
:10109000BB89E889F9898C9185FD03C0808186FD33
:1010A0000DC00FB607FCF7CF8C9185FFF2CF808182
:1010B00085FFEDCFCE010E94B707E9CFDF91CF9139
:1010C000089580E090E0892B29F00E94AD078111FE
:1010D0000E94000080E090E0892B49F080E090E0E1
:1010E000892B29F00E94000081110E94000080E0FD
:1010F00090E0892B49F080E090E0892B29F00E9454
:10110000000081110E94000080E090E0892B49F0EE
:1011100080E090E0892B29F00E94000081110C945E
:101120000000089560937C0570937D0580937E0593
:1011300090937F05645D7E4F8F4F9F4F609378053E
:101140007093790580937A0590937B0582E090E017
:1011500090937705809376050E943407609372051B
:1011600070937305809374059093750508952F927D
:101170003F924F925F926F927F928F929F92AF9227
:10118000BF92CF92DF92EF92FF920F931F93CF9374
:10119000DF93382E962E842E222E84E6E816F10454
:1011A0000CF459C092EBE91A97E0F90AE09286052F
:1011B00000938505209284053092820590928105E6
:1011C00080928005AE2DB0E020E833E341EE51E09F
:1011D0000E9488322B013C0122EB37E0FF24E4E639
:1011E000F0E0C0E9D1E0C901825B97408E159F0510
:1011F000B4F19EE4E91A98EFF90AC70164E670E0D9
:101200000E94C8336C01C70160E971E00E94C833D5
:101210005C01C1EED2E0E1E0F0E0112783E0E822DA
:10122000FF24E017F1070CF042C0E230F10591F520
:10123000E114F10479F5C114D10419F4A114B10435
:1012400049F580E8480E8BE3581E86E2681E711C43
:1012500031962196E6CF8EE1E80EF11CA7CFC901A9
:1012600083709927892B99F4C901BF010E94C83363
:10127000892B31F4C901BE010E94C833892B39F48E
:1012800090E8490E91E5591E91E0691E711C2F5F8F
:101290003F4FA9CFA881B0E020E831E541E050E020
:1012A0000E948832460E571E681E791ED1CF292D06
:1012B00030E0ACE3B0E00E9493326B017C01C80CDB
:1012C000D11CE11CF11C232D30E0A0E1BEE00E9406
:1012D0009332C60ED71EE81EF91E822D8150990B3F
:1012E000DC0120E831E541E050E00E9425346C0D3E
:1012F0007D1D8E1D9F1D640D751D861D971DDF9123
:10130000CF911F910F91FF90EF90DF90CF90BF9002
:10131000AF909F908F907F906F905F904F903F9095
:101320002F900C949208CF92DF92EF92FF920F933E
:101330001F930E9434078B019C01C0907205D090CE
:101340007305E0907405F090750560917C057091CF
:101350007D0580917E0590917F050C191D092E0950
:101360003F09083E134021053105E0F0DC01CB01C7
:101370000196A11DB11D80937C0590937D05A093DE
:101380007E05B0937F05B701A60148515C4F6F4FB2
:101390007F4F40937205509373056093740570936B
:1013A0007505C7CF1F910F91FF90EF90DF90CF9001
:1013B00008954F925F926F927F928F929F92AF9219
:1013C000BF92CF92DF92EF92FF920F931F93CF9332
:1013D000DF934B015C0180916E0590916F05A091A8
:1013E0007005B091710588159905AA05BB0509F42A
:1013F000C6C08CE3C82ED12CE12CF12CC501A7016D
:1014000096010E94DC3360938005CA01B901A701EF
:1014100096010E94DC3360938105C501B40120E18F
:101420003EE040E050E00E94DC33CA01B90128E10F
:1014300030E040E050E00E94DC3360938205C5015B
:10144000B40120E831E541E050E00E94DC3369015D
:101450007A01CA01B9016C5F7F4F8F4F9F4F27E020
:1014600030E040E050E00E94DC336F5F6093830522
:10147000412C512C320140E004E610E0C0E9D1E0FB
:10148000242F30E02E54384FF901E370FF273097B6
:10149000F9F4C901B8010E94C833892B31F4C9019C
:1014A000BE010E94C833892B99F48EE691E0A0E03A
:1014B000B0E0480E591E6A1E7B1ED301C201AA2746
:1014C000BB27C816D906EA06FB0638F04F5FD8CF0F
:1014D0008DE691E0A0E0B0E0ECCF40938605C90135
:1014E00064E670E00E94C833EC01C90160E971E074
:1014F0000E94C833309721F42097D9F40097C9F09F
:101500004DE651E060E070E0441A550A660A770A39
:10151000C418D508E608F708A1EEB2E020E02130B3
:1015200069F43097E9F5209711F40097C9F54DE17A
:1015300006C04EE651E060E070E0E6CF4C9150E02E
:1015400070E060E031E0320FC416D506E606F7061B
:1015500040F0C41AD50AE60AF70A1196232F3C3048
:10156000F1F62F5F20938505C394C0928405809285
:101570006E0590926F05A0927005B0927105DF9193
:10158000CF911F910F91FF90EF90DF90CF90BF9080
:10159000AF909F908F907F906F905F904F90089545
:1015A0004CE1CDCF0E9493090E94D9098091860514
:1015B00090E08E54984F08950E9493090E94D90993
:1015C0008091850590E008950E9493090E94D909B1
:1015D0008091840590E008950E9493090E94D909A2
:1015E0008091800590E008950E9493090E94D90996
:1015F0008091810590E008950E9493090E94D90985
:101600008091820590E00895CF92DF92EF92FF9251
:10161000CF93DF93EC010E9434076B017C018F852F
:101620000E94AD039C0181E02115310509F480E0A1
:10163000898B8889811105C091E0232B09F090E006
:10164000998B29898A89281721F0CD8ADE8AEF8A29
:10165000F88E8D899E89AF89B88DB701A601481B88
:10166000590B6A0B7B0BDB01CA01CB80DC80ED8060
:10167000FE80C816D906EA06FB0664F43A812317F1
:1016800049F02A83222349F04B895C894F5F5F4FE1
:101690005C8B4B8B3A81311117C0CF80D884E984A1
:1016A000FA84C816D906EA06FB0634F48B899C89AD
:1016B000998388831C8A1B8A2A8BDF91CF91FF90A4
:1016C000EF90DF90CF900895CB84DC84ED84FE848E
:1016D000C816D906EA06FB067CF78B899C8991958A
:1016E00081959109E5CF20914B05260F3327331FB4
:1016F00021323105ECF420917006FC0190E080E08D
:10170000243069F082E00895A0914B052191AC014D
:10171000455D5A4FA40FB52FB11D2C930196861726
:1017200098F380914B05680F60934B0580E0089516
:1017300081E008951092700681E080936F06109208
:101740004A0661E084E10E94D60361E085E10E94DF
:10175000D603E9EBF0E080818E7F808380818D7FEE
:10176000808388E48093B80085E48093BC0008956A
:10177000CF93DF9391E090932A058823B9F0C0912D
:10178000B800D091BA008091BC008A7B8093BC00E5
:1017900060E084E10E94D60360E085E10E94D60308
:1017A0000E949A0BD093BA00C093B800DF91CF91FA
:1017B0000895CF92DF92EF92FF920F931F93CF93F2
:1017C000DF93D091990681E0D13208F09CC0C0919E
:1017D00098060E94DD066B017C01809170068111E4
:1017E0006CC082E08093700681E080936F068FEF7B
:1017F00080936E0610926D06D0936C06A8E7B6E053
:10180000ECE4F6E080E0D8138DC010924B06809196
:101810004B06CC0FC82BC0934B0680914A068130F3
:1018200009F084C010924A060E94DD066B017C011B
:1018300080914B068093BB00809172069091730655
:10184000A0917406B0917506892B8A2B8B2BA1F081
:101850000E94DD06009172061091730620917406B5
:10186000309175066C197D098E099F0906171707B7
:101870002807390708F442C08091BC0083FDD8CF07
:1018800085EC8093BC000E94DD066B017C01809199
:101890007006823009F44CC080916E068F3F09F4C7
:1018A00069C080916E06803209F466C080916E0630
:1018B000803309F463C084E026C080917206909161
:1018C0007306A0917406B0917506892B8A2B8B2B19
:1018D00009F483CF0E94DD06009172061091730611
:1018E00020917406309175066C197D098E099F0947
:1018F000061717072807390708F06FCF8091710680
:101900000E94B80B85E0109277061092990610920B
:101910007606DF91CF911F910F91FF90EF90DF90AE
:10192000CF9008959D9191938F5F6DCF85EEA9CF54
:101930008091720690917306A0917406B09175061D
:10194000892B8A2B8B2B09F4A2CF0E94DD060091F4
:1019500072061091730620917406309175066C1909
:101960007D098E099F09061717072807390708F010
:101970008ECFC4CF80E0C7CF82E0C5CF83E0C3CF96
:101980000895E091290680912806E81730F4F0E0E8
:10199000E65DF94F808190E008958FEF9FEF089505
:1019A00090912906809128062FEF3FEF981748F471
:1019B000E92FF0E0E65DF94F208130E09F5F9093E2
:1019C0002906C90108958091280690912906891B4E
:1019D000990B0895CF92DF92EF92FF920F931F938E
:1019E000CF93DF937C01CB018A01209176062223DD
:1019F00089F0EB016B01C40ED51ECC15DD0569F035
:101A00006991D701ED91FC910190F081E02DC70122
:101A10001995F3CF642F0E94730BC801DF91CF910A
:101A20001F910F91FF90EF90DF90CF900895CF938B
:101A3000DF931F92CDB7DEB769832091760622230C
:101A4000F9F020919906203258F021E030E0FC01B5
:101A50003383228390E080E00F90DF91CF9108954F
:101A600080917706E82FF0E0E858F94F998190834C
:101A70008F5F809377068093990681E090E0ECCFAA
:101A800061E0CE0101960E94730BF7CF682F85E4C9
:101A900097E00C94170DDF92EF92FF920F931F9334
:101AA000CF93DF93182FF62ED42ED22F80916A0277
:101AB0000E94290360E085E497E00E94170DCAE0C8
:101AC0008D2D6C2F0E94BC338295807F682F690F0B
:101AD00085E497E00E94170D8F2D6C2F0E94BC3378
:101AE0008295807F682F690F85E497E00E94170D2B
:101AF000812F6C2F0E94BC338295807F682F690FE5
:101B000085E497E00E94170D61E085E497E00E946C
:101B1000170D8D2F6C2F0E94BC338295807F682F0C
:101B2000690F85E497E00E94170D802F6C2F0E94AB
:101B3000BC338295807F682F690F85E497E00E940F
:101B4000170D8E2D6C2F0E94BC338295807F682FDD
:101B5000690F85E497E00E94170D60E085E497E047
:101B60000E94170DDF91CF911F910F91FF90EF9081
:101B7000DF900C94D90B90E080E008958F929F92B3
:101B8000AF92BF92FF920F931F93CF93DF93F82EE4
:101B90000091FE051091FF058091220581110DC075
:101BA0000E94340760931E0570931F0580932005E3
:101BB0009093210581E0809322050E943407809054
:101BC0001E0590901F05A0902005B0902105681972
:101BD00079098A099B096D32714081059105B0F040
:101BE000C0911D050E94340760931E0570931F0568
:101BF000809320059093210581E08C2780931D051B
:101C0000882391F110921C0510921B05C0911B05B1
:101C1000D0911C05C095D0958091F805C82361E04E
:101C2000C6FF60E088E00E94D60361E0C7FF60E085
:101C30008CE00E94D60380911D05882349F002C0E4
:101C400015950795FA94E2F78FE090E000FD02C049
:101C500090E080E0DF91CF911F910F91FF90BF90B6
:101C6000AF909F908F90089510931C0500931B05D3
:101C7000CDCF0F931F93CF93DF930E94DD0600918A
:101C8000FD041091FE042091FF0430910005601BBB
:101C9000710B820B930B693873418105910508F430
:101CA000A8C00E94DD066093FD047093FE0480933B
:101CB000FF04909300058091F905882381F060E08E
:101CC00084E00E94D60360E085E00E94D60360E0D5
:101CD00087E0DF91CF911F910F910C94D603209153
:101CE00002022150330B220F331F4091A007509165
:101CF000A1072417350708F081C080919C079091B7
:101D00009D07009709F47AC0820F931FFC01808120
:101D1000805389010F5F1F4F0417150708F070C02B
:101D200040919C0750919D074115510509F468C0E9
:101D3000400F511FFA019081C92FC295C07F8F704B
:101D4000C82BC093FC04D0911102DD2309F45AC0C2
:101D500080910E02882309F455C0C9010E94BE0D6E
:101D6000C82BC093FC04DD2309F44EC080910E0201
:101D7000882309F449C0C8010E94BE0D24E0880FE1
:101D8000991F2A95E1F7C82BC093FC0460E084E01A
:101D90000E94D60360E085E00E94D60360E087E001
:101DA0000E94D60360E08AE00E94D603CEBD000008
:101DB0000DB407FEFDCF8EB561E08AE00E94D60328
:101DC000C0910202C23019F1C33039F1C13061F45F
:101DD00061E084E00E94D60360E085E00E94D603C3
:101DE00060E087E00E94D603CF5FC43001F1C0936A
:101DF0000202DF91CF911F910F91089580E088CF6B
:101E000090E09ACF80E0ACCF90E080E0B7CF60E088
:101E100084E00E94D60361E0E0CF60E084E00E94AD
:101E2000D60360E085E00E94D60361E0DACF81E06E
:101E300080930202DECFCF92DF92EF92FF921F9348
:101E4000CF93DF93182F8091F40481110DC00E946D
:101E500034076093F0047093F1048093F20490933C
:101E6000F30481E08093F404C091EE04D091EF0478
:101E7000C930D10508F063C0FE018827ED5BF04F43
:101E80008F4F0C941D344C0F580F5D0F6C0F4C0F7F
:101E9000580F920F950F9A0F0E94F0022196CA30A8
:101EA000D10509F099C01092EF041092EE042AC0F7
:101EB00060E08CEC0E94C102F1CF60E084E40E94FB
:101EC000C1020E9434076093F0047093F104809380
:101ED000F2049093F304E2CF0E943407C090F00420
:101EE000D090F104E090F204F090F3046C197D09B5
:101EF0008E099F09C4E0D0E06E3E724081059105D5
:101F000008F06AC06091EA047091EB048091EC04DF
:101F10009091ED04DF91CF911F91FF90EF90DF90B2
:101F2000CF90089560E08EEBC5CF0E947B02809336
:101F3000E804B4CF0E947B028093E904AFCFC9309C
:101F4000D10509F0ABCF6091E8047091E9046F3FCF
:101F5000760711F470E060E0072E000C880B990BF7
:101F60000E94553120E030E040E85DE30E94B4314A
:101F70006B017C016091380270913902072E000CD0
:101F8000880B990B0E94553120E030E040E251E48B
:101F90000E940F33A70196010E94A33211110FC0B6
:101FA00020E030E040E251E40E94B4316093EA0462
:101FB0007093EB048093EC049093ED046FCF26E6CE
:101FC00036E646EE5FE30E94B43120E030E040E0C8
:101FD00052E40E94A332E4CFD093EF04C093EE0406
:101FE00091CFCF93DF93EC012196FC0120812A331E
:101FF000C9F42181243609F5229630E020E06AE018
:10200000899190ED980F9A3078F4629FA001639FB8
:10201000500D1124082E000C990BC0979A01280F1F
:10202000391FEECFCE01DFCF3093B6052093B50533
:102030002115310511F020930A0288818F3689F429
:102040008A81082E000C990B9C0120533109309392
:10205000B6052093B505C397059710F420930902A0
:10206000249688818236F1F4229630E020E06AE0FE
:10207000899190ED980F9A3068F4629FA001639F58
:10208000500D1124082E000C990BC0979A01280FAF
:10209000391FEECF3093B6052093B505309301027A
:1020A000209300022091000230910102032E000CC7
:1020B000440B550B60E67AEE80E090E00E94FE3320
:1020C00082E0220F331F441F551F8A95D1F72093BA
:1020D000B1053093B2054093B3055093B405CE01DA
:1020E000DF91CF9108958F929F92AF92BF92CF923E
:1020F000DF92EF92FF920F931F93CF93DF937C01B8
:10210000D62F0E94DD064B015C0180917006811183
:1021100067C0CD2F81E08093700680936F069FEF9C
:1021200090936E0610926D069D0F90936C068093AF
:102130004B0680914B06EE0CFF1C8E2980934B06BC
:1021400080914A06813009F083C010924A060E94AD
:10215000DD066B017C0180914B068093BB00809172
:10216000720690917306A0917406B0917506892B42
:102170008A2B8B2BA1F00E94DD0680907206909036
:102180007306A0907406B09075066C197D098E09CF
:102190009F0986169706A806B90608F442C08091E2
:1021A000BC0083FDD8CF85EC8093BC000E94DD0687
:1021B0006B017C0180917006813009F44BC08091E5
:1021C0006D068D1710F4C0916D06ECE4F6E0AAE2FE
:1021D000B6E080E08C1751F191919D938F5FFACF1B
:1021E0008091720690917306A0917406B091750665
:1021F000892B8A2B8B2B09F488CF0E94DD06009156
:102200007206109173062091740630917506681954
:1022100079098A099B09061717072807390708F063
:1022200074CF809171060E94B80BC0E0109229060D
:10223000C09328068C2FDF91CF911F910F91FF90B3
:10224000EF90DF90CF90BF90AF909F908F900895C8
:1022500085EEAACF8091720690917306A0917406C4
:10226000B0917506892B8A2B8B2B09F4A3CF0E9482
:10227000DD068090720690907306A0907406B09070
:1022800075066C197D098E099F0986169706A806A2
:10229000B90608F08FCFC5CFCF93C0916A028C2FBB
:1022A0000E94290360E085E497E00E94170D0E94D8
:1022B000D90B67E070E08C2F90E00E94731085E4EA
:1022C00097E00E94D00C982F92959F70CAE08F7073
:1022D0009C9F800D112490E090930F0680930E0632
:1022E00085E497E00E94D00C982F92959F708F7094
:1022F0009C9F800D112490E090930D0680930C0616
:1023000085E497E00E94D00C982F929593708F707F
:102310009C9F800D112490E090930B0680930A06F9
:1023200085E497E00E94D00C85E497E00E94D00CF1
:10233000982F92959F708F709C9F800D112490E034
:10234000909311068093100685E497E00E94D00CCC
:10235000982F92959F708F709C9F800D112490E014
:10236000909313068093120685E497E00E94D00CA8
:10237000982F92959F708F709C9F800D112490E0F4
:102380009093150680931406CF910895FC01019057
:102390000020E9F73197AF01481B590BBC0188EACF
:1023A00096E00C944307CF93DF930E942608EC013C
:1023B0008BE194E00E94C6118C0F9D1FDF91CF919D
:1023C0000895CF93DF93FC01448155816081718131
:1023D00088EA96E00E944307EC018BE194E00E94BA
:1023E000C6118C0F9D1FDF91CF9108950C947A3206
:1023F0000C94723280910D028823D9F088E090E02D
:102400000E94F811682F70E089E00E94060689E0BA
:1024100090E00E94F811682F70E086E00E940606A6
:102420008AE090E00E94F811682F70E083E00C943D
:10243000060660E089E00E94D60360E086E00E9424
:10244000D60360E083E00C94D6038091F9058823DD
:1024500041F01092F9058091A50580930D020C942E
:10246000FA1108950F931F938091320290913302D5
:10247000892B09F44FC08091C0048823A9F00E94E1
:1024800034070091BC041091BD042091BE0430912A
:10249000BF04601B710B820B930B693E7340810577
:1024A0009105C0F11092C0040E94FC0A20912C02F8
:1024B00030912D028217930769F50E94F40A20914A
:1024C0002E0230912F028217930721F50E94EC0A09
:1024D000209130023091310282179307D9F40E9483
:1024E00025120E9434076093BC047093BD0480934E
:1024F000BE049093BF0481E08093C00486E192E023
:102500000E94D311809107029091080290930906CE
:10251000809308061F910F9108950F931F93CF93F7
:10252000DF938C01EB01FC01808191810097E1F048
:102530006881798161157105A9F0428153812C81EF
:102540003D814217530770F00E942B358C819D818D
:10255000F801958384831D821C82DF91CF911F91A6
:102560000F9108950E94443088819981F8019183E8
:1025700080838A819B81938382838C819D819583D3
:102580008483198218821B821A82E5CFCF93DF934E
:10259000EC0188819981009711F00E9444301982E2
:1025A00018821D821C821B821A82DF91CF910895AE
:1025B000FC0180819181009711F00C9444300895C2
:1025C0000F931F93CF93DF93EC018881998100973C
:1025D00059F02A813B812617370730F081E0DF91DF
:1025E000CF911F910F9108958B016F5F7F4F0E94D4
:1025F0004134009759F0998388831B830A832C8187
:102600003D81232B59F7FC011082E8CF80E0E7CF12
:10261000EF92FF920F931F93CF93DF93EC017B0117
:10262000CB010E94FB300097A9F00C811D81080F9F
:10263000191FB801CE010E94E012882399F0288169
:1026400039818C819D81B701820F931F0E94F430E4
:102650001D830C83CE01DF91CF911F910F91FF90CD
:10266000EF900895CE010E94C612F4CFEF92FF9230
:102670000F931F93CF93DF936115710541F480E0B1
:10268000DF91CF911F910F91FF90EF900895411529
:102690005105B1F07B01EC010C811D81040F151F68
:1026A000B8010E94E012882351F3288139818C817E
:1026B0009D81B701820F931F0E942B351D830C83D0
:1026C00081E0DECFCF93DF93EC01FB0144815581A4
:1026D000608171810E943613811103C0CE010E9476
:1026E000C612CE01DF91CF910895EF92FF920F9322
:1026F0001F93CF93DF93EC018B01CB010E94FB3042
:102700007C01BC01CE010E94E01281110BC0CE0100
:102710000E94C612CE01DF91CF911F910F91FF90C1
:10272000EF900895FD82EC82B801888199810E9422
:10273000F430F0CFFC0111821082138212821582D4
:1027400014820C947513EF92FF920F931F93CF9303
:10275000DF93EC017B018A01BA010E94E012811132
:102760000BC0CE010E94C612CE01DF91CF911F9106
:102770000F91FF90EF9008951D830C83B70188811E
:1027800099810E942B35F0CFEF92FF920F931F9308
:10279000CF93DF93CDB7DEB762970FB6F894DEBF65
:1027A0000FBECDBF8C01CB01F801118210821382C4
:1027B0001282158214824AE09E012F5F3F4F7901F9
:1027C000B9010E940431F70101900020E9F7319727
:1027D000AF014E195F09B701C8010E94A3136296A9
:1027E0000FB6F894DEBF0FBECDBFDF91CF911F9122
:1027F0000F91FF90EF900895CF93DF93EC01FB01D1
:102800008617970749F0608171816115710541F064
:10281000448155810E94A313CE01DF91CF91089589
:102820000E94C612F9CFFC0111821082138212821B
:10283000158214820C94FC130F931F93CF93DF9394
:10284000CDB7DEB762970FB6F894DEBF0FBECDBF2F
:102850008C016A307105A4F5CE010D960E94C41357
:1028600064E172E0CE0101960E949A13BE016F5F8F
:102870007F4FCE0107960E941314BE01635F7F4F06
:10288000CE0107960E946213BC01C8010E94131476
:10289000CE0107960E94D812CE0101960E94D8124E
:1028A000CE010D960E94D812C80162960FB6F89418
:1028B000DEBF0FBECDBFDF91CF911F910F91089565
:1028C0000E94C413F1CF0F931F93CF93DF93CDB723
:1028D000DEB768970FB6F894DEBF0FBECDBF8C0190
:1028E0008091340290913502489709F048C00E94C7
:1028F000EC0ABC01CE0143960E941C140E94F40A0B
:10290000BC01CE010D960E941C140E94FC0ABC0161
:10291000CE0101960E941C14BE016F5F7F4FCE0155
:1029200007960E941314BE01635F7F4FCE01079686
:102930000E946213BE016D5E7F4F0E946213BC0154
:10294000C8010E941314CE0107960E94D812CE012E
:1029500001960E94D812CE010D960E94D812CE0187
:1029600043960E94D812C80168960FB6F894DEBF4D
:102970000FBECDBFDF91CF911F910F9108950E949F
:10298000EC0ABC01CE0143960E941C140E94F40A7A
:10299000BC01CE010D960E941C140E9493090E9456
:1029A000D909809182056CE070E0882309F4B0CFEA
:1029B000682F70E08D3008F4ABCF6C507109A8CF50
:1029C000FC01118210821382128215821482FB0193
:1029D00001900020E9F73197AF01461B570B0C948B
:1029E000A313AF92BF92CF92DF92EF92FF920F9319
:1029F0001F93CF93DF937C016B015A018901241748
:102A0000350720F48B2D5901042F182F6DE174E048
:102A1000C7010E94E014D6011496CD91DC91AC164A
:102A2000BD0620F50C171D0708F4E801D601ED914D
:102A3000FC911197EC0FFD1F108110826D917C911C
:102A40006A0D7B1D61157105E9F0FB010190002005
:102A5000E9F73197AF01461B570BC7010E94A3133B
:102A6000F60180819181C80FD91F1883C701DF91BA
:102A7000CF911F910F91FF90EF90DF90CF90BF907B
:102A8000AF900895C7010E94C612EACF0F931F931B
:102A9000CF93DF93CDB7DEB768970FB6F894DEBF5C
:102AA0000FBECDBF8B01833079F52091A007309107
:102AB000A10742E050E06CE977E0CE010D960E945C
:102AC000F114B801CE0101960E941C14BE016F5F83
:102AD0007F4FCE0107960E941314BE01635F7F4FA4
:102AE000CE0107960E946213BC018CE997E00E9418
:102AF000FC13CE0107960E94D812CE0101960E94C7
:102B0000D812CE010D9644C08C3009F04EC02091F1
:102B1000A0073091A10744E050E06CE977E0CE01D6
:102B200043960E94F114B801CE010D960E941C1428
:102B300022E030E050E040E06CE977E0CE01019621
:102B40000E94F114BE016F5F7F4FCE0107960E9475
:102B50001314BE01635F7F4FCE0107960E9462137C
:102B6000BE016D5E7F4F0E946213BC018CE997E04D
:102B70000E94FC13CE0107960E94D812CE01019646
:102B80000E94D812CE010D960E94D812CE01439613
:102B90000E94D81268960FB6F894DEBF0FBECDBF64
:102BA000DF91CF911F910F910895803381F4B80187
:102BB000CE010D960E941C1424E030E050E040E06D
:102BC0006CE977E0CE0101960E94F1147FCF803F3F
:102BD00071F3803CF9F6CE010D960E941C1426E09C
:102BE00030E0ECCF0E9434076093FA057093FB0548
:102BF0008093FC059093FD0580910006882309F4DD
:102C00004FC02091020630910306C901880F991F19
:102C100021313105A1F1FC01EE5EFD4F4081518172
:102C20004150510951834083DC01AE5EBD4F6D912F
:102C30007C911197FC01EB54FD4F40815181641749
:102C400075073CF4FC01E757FD4F408151814D93DE
:102C50005C932031310509F5209132023091330225
:102C600021303105B9F420E82093F8058E5E9D4FA0
:102C7000FC01608171818091FE050C9446154091A4
:102C80003402509135024C50510950933502409313
:102C90003402CACF1092F805E9CF2930310531F757
:102CA00008950E9434076093FA057093FB058093A2
:102CB000FC059093FD0580910006882309F44FC020
:102CC0002091020630910306C901880F991F213116
:102CD0003105A1F1FC01EE5EFD4F408151814F5F56
:102CE0005F4F51834083DC01AE5EBD4F6D917C919F
:102CF0001197FC01E757FD4F408151814617570757
:102D00003CF4FC01EB54FD4F408151814D935C93A9
:102D10002031310509F52091320230913302213002
:102D20003105B9F420E82093F8058E5E9D4FFC0133
:102D3000608171818091FE050C94461540913402AA
:102D400050913502445F5F4F5093350240933402F7
:102D5000CACF1092F805E9CF2930310531F708952F
:102D60008F929F92AF92BF92CF92DF92EF92FF929B
:102D70000F931F93CF93DF93CDB7DEB762970FB654
:102D8000F894DEBF0FBECDBF8C016A017B0180913C
:102D9000E004811111C00E943407645B7B4F8F4FA8
:102DA0009F4F6093DC047093DD048093DE04909366
:102DB000DF0481E08093E0048091D404811109C094
:102DC0006DE174E08EEC94E00E94E01481E0809369
:102DD000D40468E070E08EEC94E00E94E0120E945F
:102DE00034078090DC049090DD04A090DE04B09065
:102DF000DF04681979098A099B09693E73408105D6
:102E0000910508F4F4C00E9434076093DC047093C9
:102E1000DD048093DE049093DF0420E030E0A9011C
:102E2000C701B6010E94B73320E030E040E05FE325
:102E300087FD14C0C701B6010E94A3320E948133EE
:102E400016161706180619060CF120E030E040E0CF
:102E50005FE3C701B6010E94A33213C0C701B601E8
:102E60000E94A2320E948133161617061806190610
:102E70006CF020E030E040E05FE3C701B6010E9463
:102E8000A2320E9481337195619571098091360259
:102E900090913702892B09F083C0693E83E078075F
:102EA00064F1CE010D960E94C4136DE472E0CE0170
:102EB00001960E949A13BE016F5F7F4FCE01079665
:102EC0000E941314BE01635F7F4FCE0107960E94DC
:102ED00062136BE472E00E940813BC018EEC94E074
:102EE0000E94FC13CE0107960E94D812CE010196D3
:102EF0000E94D812CE010D9678C0CE010D9665368F
:102F00007105CCF00E94C41368E472E0CE01019612
:102F10000E949A13BE016F5F7F4FCE0107960E94F9
:102F20001314BE01635F7F4FCE0107960E946213A8
:102F300066E472E0D0CF6B307105CCF00E94C41310
:102F400062E472E0CE0101960E949A13BE016F5FA7
:102F50007F4FCE0107960E941314BE01635F7F4F1F
:102F6000CE0107960E94621360E472E0B4CF0E9423
:102F7000C4136BE372E0CE0101960E949A13BE0166
:102F80006F5F7F4FCE0107960E941314BE01635FEF
:102F90007F4FCE0107960E94621369E372E09BCFD8
:102FA000CB016AE070E00E94C833CE01693E23E0A5
:102FB0007207B4F101960E94C413BE016F5F7F4F88
:102FC000CE0107960E94131466E372E0CE010796C5
:102FD0000E940813BC018EEC94E00E94FC13CE0109
:102FE00007960E94D812CE0101960E94D8126EEC6C
:102FF00074E0C8010E941314C80162960FB6F894D9
:10300000DEBF0FBECDBFDF91CF911F910F91FF901B
:10301000EF90DF90CF90BF90AF909F908F900895EA
:103020000D9665367105CCF00E94C41364E372E01E
:10303000CE0101960E949A13BE016F5F7F4FCE01B1
:1030400007960E941314BE01635F7F4FCE0107965F
:103050000E94621361E372E03ECF6B307105CCF0E9
:103060000E94C4136EE272E0CE0101960E949A1390
:10307000BE016F5F7F4FCE0107960E941314BE0101
:10308000635F7F4FCE0107960E9462136BE272E08E
:1030900022CF0E94C41367E272E0CE0101960E9423
:1030A0009A13BE016F5F7F4FCE0107960E941314E3
:1030B000BE01635F7F4FCE0107960E94621364E2F8
:1030C00072E009CF85ED8093BC00809172069091EB
:1030D0007306A0917406B09175060796A11DB11DE7
:1030E00023E0B695A795979587952A95D1F72091D6
:1030F000BC0024FD03C01092700608954091720632
:10310000509173066091740670917506452B462B9D
:10311000472B69F30097A105B10541F02AE22A95F2
:10312000F1F700C00197A109B109E1CF80917106C3
:103130000C94B80BCF92DF92EF92FF920F931F93F4
:10314000CF93DF93CDB7DEB72C970FB6F894DEBFE1
:103150000FBECDBF8C016EE174E0CE0107960E94D8
:10316000E01422E030E050E040E003301105A9F027
:1031700024E030E042E050E00C30110571F026E030
:1031800030E00033110539F0003F1105A9F5209119
:10319000A0073091A10744E050E06CE977E0CE0150
:1031A00001960E94F114BE016F5F7F4FCE0107961A
:1031B0000E948D12CE0101960E94D8128F819885AF
:1031C000C12CD12C7601009719F00E94CD306B01F3
:1031D000CE0107960E94D812C6012C960FB6F8941D
:1031E000DEBF0FBECDBFDF91CF911F910F91FF903A
:1031F000EF90DF90CF900895003C1105F9F62091F3
:10320000A0073091A10746E050E0C7CF4F925F92F0
:103210006F927F928F929F92AF92BF92CF92DF92E6
:10322000EF92FF920F931F93CF93DF9300D000D0C4
:10323000CDB7DEB77C015B014A018091E6058111C3
:1032400040C081E08093E60592EC492E94E0592E2F
:1032500028EC622E24E0722E10E000E00F5F1F4F7A
:10326000680181E0C81AD1089801A601B501CE0114
:1032700001960E94F11489819A8160E0009711F013
:103280000E94CD30D3016D933D01CE0101960E9485
:10329000D8129801A601B401CE0101960E94F11442
:1032A00089819A8160E0009711F00E94CD30F2018F
:1032B00061932F01CE0101960E94D81206301105AC
:1032C00069F69091C10488ECC82E84E0D82EE2EC17
:1032D000F4E08601A801D8018C919A3008F04DC025
:1032E0008F5F8C930F5F1F4FDA018C918A3019F436
:1032F000D80111971C923196B4E00E3C1B0751F790
:103300009F5F943109F43FC09093C1046DE174E074
:10331000C7010E94E014FE0131965F01D6018D9134
:103320006D014AE0B50190E00E940431F501019081
:103330000020E9F73197AF014A195B09B501C701D0
:103340000E9436130C151D0549F7C70126960FB6C6
:10335000F894DEBF0FBECDBFDF91CF911F910F91CB
:10336000FF90EF90DF90CF90BF90AF909F908F90A5
:103370007F906F905F904F9008952081281709F4F7
:10338000B1CF8F5FAECF1092C1041092E605BECFD1
:103390000F931F93CF93DF93CDB7DEB7AA970FB6E6
:1033A000F894DEBF0FBECDBF8091130581110DC013
:1033B0000E94340760930F057093100580931105E8
:1033C0009093120581E08093130580910705811188
:1033D0000DC00E9434076093030570930405809329
:1033E00005059093060581E0809307050E94340748
:1033F00000910F05109110052091110530911205D3
:10340000601B710B820B930B00910302109104025D
:103410002091050230910602061717072807390781
:1034200008F04DC00E94340760930F05709310059B
:1034300080931105909312058091010590910205EA
:10344000009709F093C181E090E090930306809388
:10345000020688E893E1A0E0B0E080930302909335
:103460000402A0930502B093060280910105909199
:1034700002058230910581F4109203061092020633
:1034800040E65AEE60E070E040930302509304027D
:1034900060930502709306020196833091050CF04B
:1034A00085C19093020580930105809101068823D0
:1034B00021F01092030610920206109201060E945B
:1034C000340700910F0510911005209111053091DE
:1034D0001205601B710B820B930B603D77408105D9
:1034E000910508F035C20E94340700910305109140
:1034F00004052091050530910605601B710B820BB8
:10350000930B653671058105910508F424C10E946D
:103510003407609303057093040580930505909329
:10352000060580910206909103062091A4052223AE
:1035300009F441C1892B89F5CE0107960E946314D5
:1035400081E02091360230913702232B09F480E08C
:103550000E941B0FAB01BC01CE010D960E94B0165C
:10356000AE01495F5F4FBE01635F7F4FCE010196A1
:103570000E940619BE016F5F7F4F8CE997E00E94A1
:103580008D12CE0101960E94D812CE010D960E9496
:10359000D812CE0107960E94D8128091020690910F
:1035A0000306019709F062C00E94D20A68EE73E038
:1035B0000E94C833BC01CE010D960E941C140E94CB
:1035C000DC0ABC01CE0143960E941C140E94E40A4E
:1035D000BC01CE014F960E941C14BE01615E7F4F5C
:1035E000CE0149960E941314BE016D5E7F4FCE013D
:1035F00049960E946213BE01635F7F4F0E9462136F
:10360000BC01CE0107960E941314CE0185960E943C
:103610006314AE01495F5F4FBE016B5D7F4FCE010A
:1036200001960E940619BE016F5F7F4F8CE997E0FB
:103630000E948D12CE0101960E94D812CE0185966D
:103640000E94D812CE0107960E94D812CE01499648
:103650000E94D812CE014F960E94D812CE014396F6
:103660000E94D812CE010D960E94D81280910206B7
:1036700090910306049709F06EC081E02091360214
:1036800030913702232B09F480E00E941B0FAB011D
:10369000BC01CE0107960E94B0160E94D20A68EEC5
:1036A00073E00E94C833BC01CE0143960E941C14F3
:1036B0000E94DC0ABC01CE0149960E941C140E94A3
:1036C000E40ABC01CE0185960E941C14BE016B5D0C
:1036D0007F4FCE014F960E941314BE01675E7F4F4D
:1036E000CE014F960E946213BE016D5E7F4F0E9415
:1036F0006213BC01CE010D960E941314AE01495F06
:103700005F4FBE01635F7F4FCE0101960E94061995
:10371000BE016F5F7F4F8CE997E00E948D12CE0152
:1037200001960E94D812CE010D960E94D812CE01A9
:103730004F960E94D812CE0185960E94D812CE01D3
:1037400049960E94D812CE0143960E94D812CE010B
:1037500007960E94D812AA960FB6F894DEBF0FBE45
:10376000CDBFDF91CF911F910F910895019709F07F
:103770007CCE84E090E0909303068093020688E874
:1037800093E1A0E0B0E08093030290930402A09341
:103790000502B09306028091A4058111DCC082E08D
:1037A00090E090930205809301055FCE1092020590
:1037B000109201057ACE892B09F062C0CE010796DE
:1037C0000E9463140E94D20A68EE73E00E94C8331C
:1037D000BC01CE0143960E941C140E94DC0ABC016D
:1037E000CE0149960E941C140E94E40ABC01CE013D
:1037F00085960E941C14BE016B5D7F4FCE014F96D3
:103800000E941314BE01675E7F4FCE014F960E9447
:103810006213BE016D5E7F4F0E946213BC01CE0138
:103820000D960E941314AE01495F5F4FBE01635FA6
:103830007F4FCE0101960E940619BE016F5F7F4F38
:103840008CE997E00E948D12CE0101960E94D81259
:10385000CE010D960E94D812CE014F960E94D8122A
:10386000CE0185960E94D812CE0149960E94D812A8
:10387000CE0143960E94D812CE0107960E94D8121C
:103880008091020690910306019709F064CF0E948F
:10389000D20A68EE73E00E94C833BC01CE010D96D7
:1038A0000E941C140E94DC0ABC01CE0143960E94B7
:1038B0001C140E94E40ABC01CE014F960E941C1405
:1038C000BE01615E7F4FCE0149960E941314BE0176
:1038D0006D5E7F4FCE0149960E946213BE01635F09
:1038E0007F4F0E946213BC01CE0107960E94131401
:1038F000CE0185960E946314AE01495F5F4FBE0101
:103900006B5D7F4FCE0101960E940619BE016F5F6D
:103910007F4F8CE997E00E948D12CE0101960E94A4
:10392000D812CE0185960E94D812CE0107960E9429
:10393000D812CE0149960E94D812CE014F960E940D
:10394000D812CE0143960E94D812CE010D9601CF17
:103950001092E60500CF81E090E09ECD1F920F927D
:103960000FB60F9211242F933F938F939F93AF9392
:10397000BF938091180690911906A0911A06B091F4
:103980001B063091170623E0230F2D3758F50196BB
:10399000A11DB11D20931706809318069093190658
:1039A000A0931A06B0931B0680911C0690911D06E9
:1039B000A0911E06B0911F060196A11DB11D809316
:1039C0001C0690931D06A0931E06B0931F06BF9180
:1039D000AF919F918F913F912F910F900FBE0F90BC
:1039E0001F90189526E8230F0296A11DB11DD2CF76
:1039F0001F920F920FB60F9211240BB60F922F93B6
:103A00003F934F935F936F937F938F939F93AF9366
:103A1000BF93EF93FF9388EA96E00E94B707FF9168
:103A2000EF91BF91AF919F918F917F916F915F9136
:103A30004F913F912F910F900BBE0F900FBE0F90A3
:103A40001F9018951F920F920FB60F9211240BB66C
:103A50000F922F938F939F93EF93FF93E091B8066C
:103A6000F091B9068081E091BE06F091BF0682FD1B
:103A70001DC090818091C1068F5F8F732091C20617
:103A8000821741F0E091C106F0E0E855F94F958FBB
:103A90008093C106FF91EF919F918F912F910F908D
:103AA0000BBE0F900FBE0F901F9018958081F2CF24
:103AB0001F920F920FB60F9211240BB60F922F93F5
:103AC0003F938F939F93AF93BF93EF93FF93809117
:103AD0009A0690919B06A0919C06B0919D06009736
:103AE000A105B10541F130918B05E0918C05F09174
:103AF0008D05208123272083181619061A061B0618
:103B00001CF40197A109B10980939A0690939B0632
:103B1000A0939C06B0939D06FF91EF91BF91AF914A
:103B20009F918F913F912F910F900BBE0F900FBEE1
:103B30000F901F901895209170002D7F209370009A
:103B400020918B05E0918C05F0918D0530812095B9
:103B500023232083D9CF1F920F920FB60F921124E7
:103B60000BB60F928F939F93AF93BF93EF93FF93F7
:103B700080919E0690919F06A091A006B091A1060B
:103B8000892B8A2B8B2BB1F190918E05E0918F05BB
:103B9000F091900580818927808380919E06909185
:103BA0009F06A091A006B091A106181619061A0644
:103BB0001B069CF480919E0690919F06A091A00602
:103BC000B091A1060197A109B10980939E06909337
:103BD0009F06A093A006B093A106FF91EF91BF911D
:103BE000AF919F918F910F900BBE0F900FBE0F90D2
:103BF0001F90189580916F008D7F80936F0080914A
:103C00008E05E0918F05F091900590818095892334
:103C10008083E3CF1F920F920FB60F9211240BB641
:103C20000F928F939F93AF93BF93EF93FF938091E6
:103C3000A2069091A306A091A406B091A506892B97
:103C40008A2B8B2BB1F190919105E0919205F09127
:103C500093058081892780838091A2069091A30695
:103C6000A091A406B091A506181619061A061B06FF
:103C70009CF48091A2069091A306A091A406B09115
:103C8000A5060197A109B1098093A2069093A30606
:103C9000A093A406B093A506FF91EF91BF91AF91B9
:103CA0009F918F910F900BBE0F900FBE0F901F90A2
:103CB000189580916E008D7F80936E0080919105A4
:103CC000E0919205F09193059081809589238083FE
:103CD000E3CF1F920F920FB60F9211240BB60F92E3
:103CE0002F933F934F935F936F937F938F939F9304
:103CF000AF93BF93EF93FF938091B900887F803695
:103D000009F44DC008F040C0883209F4A9C028F574
:103D1000803109F49DC0C8F4882309F4FBC08830C1
:103D200009F496C0FF91EF91BF91AF919F918F9150
:103D30007F916F915F914F913F912F910F900BBEAB
:103D40000F900FBE0F901F901895883109F488C00E
:103D5000803241F780936E0614C0803409F49DC010
:103D600040F48033B9F38833E9F680936E0685EC2E
:103D7000B0C0803509F485C0883509F496C0883410
:103D800089F60E946218CECF883909F48CC038F5C4
:103D9000883729F050F4883611F0803719F683E01F
:103DA0008093700610926D0557C0883809F47BC067
:103DB000803919F0803809F0B5CF80916D058032D7
:103DC00008F071C0E0916D0581E08E0F80936D0564
:103DD0008091BB00F0E0E35BFA4F80833DC0803B05
:103DE00039F0E0F4803A09F479C0883A09F09ACFC2
:103DF00084E08093700610924C0510924B05E09180
:103E00008905F0918A05199580914B0581110FC0A4
:103E100081E080934B0510922B0509C0803C09F48A
:103E2000A6CF883C09F4A3CF883B09F07BCFE09173
:103E30004C0581E08E0F80934C05F0E0E55DFA4F74
:103E400080818093BB0090914C0580914B0529C0E7
:103E500080914B068093BB0085EC8093BC0062CFC1
:103E600090916D0680916C06981758F5E0916D065B
:103E700081E08E0F80936D06F0E0E45BF94F808166
:103E8000E9CFE0916D0681E08E0F80936D06809101
:103E9000BB00F0E0E45BF94F808390916D06809168
:103EA0006C069817C8F285E8D8CFE0916D0681E0DE
:103EB0008E0F80936D068091BB00F0E0E45BF94FBC
:103EC000808380916F0681115CCF81E080934A06E8
:103ED00084EA8093BC001092700624CF85EC809316
:103EE000BC001092700680916D05803230F4E09134
:103EF0006D05F0E0E35BFA4F108260916D0570E0B4
:103F0000E0918705F09188058DE495E01995109270
:103F10006D0508CF10926E0634CFCF93DF93EC017E
:103F2000862F6F87188A91E0998B9A8B1C8A1B8A3F
:103F3000198218821A821D8A1E8A1F8A188E44E1ED
:103F400050E060E070E04B835C836D837E834AEFDA
:103F500050E060E070E04F83588769877A8748EEC9
:103F600053E060E070E04B875C876D877E8760E0A0
:103F70000E9404048889811106C061E08F85DF9169
:103F8000CF910C94D603DF91CF910895E8EAF6E043
:103F90001382128288EE93E0A0E0B0E084839583E0
:103FA000A683B7832BEF33E03183208325EC30E009
:103FB0003587248724EC30E03787268720EC30E0F3
:103FC000318B208B21EC30E0338B228B22EC30E0E4
:103FD000358B248B26EC30E0378B268B118E128E9E
:103FE000138E148EE5E4F7E01382128284839583A6
:103FF000A683B7838DE094E09183808360E274E0D0
:1040000086EB97E00E94E01460E089E30E940404DC
:10401000E4E3F4E0E491A8EAB7E0EC93EEEEF3E039
:10402000E491F0E0EE0FFF1FE556FC4F859194916F
:1040300012969C938E9311971B961C921B971D961C
:104040001C921D971C961C921C971A961C921A97EC
:1040500019961C92199718961C92189717961C92ED
:10406000179716961C92169715961C9215971496EC
:104070001C92149713961C926DE174E082EA97E00B
:104080000E94E01467E274E08CE997E00E94E0147B
:1040900066E383E897E00E948D1F68E38AE697E075
:1040A0000E948D1F67E381E597E00C948D1FCF93ED
:1040B000DF93CDB7DEB7CF56D1090FB6F894DEBF88
:1040C0000FBECDBF789484B5826084BD84B5816015
:1040D00084BD85B5826085BD85B5816085BD8091D3
:1040E0006E00816080936E0010928100809181004B
:1040F0008260809381008091810081608093810043
:10410000809180008160809380008091B100846004
:104110008093B1008091B00081608093B000809165
:1041200091008260809391008091910081608093E2
:104130009100809190008160809390008091A10017
:1041400082608093A1008091A10081608093A10092
:104150008091A00081608093A00080912101826005
:1041600080932101809121018160809321018091C0
:10417000200181608093200180917A008460809387
:104180007A0080917A00826080937A0080917A0030
:10419000816080937A0080917A00806880937A00B1
:1041A0001092C10068E070E08CE997E00E94E01294
:1041B00010922906109228061092770610929906FE
:1041C0000E949A0B80E497E090938A05809389057A
:1041D00081E497E09093880580938705E091B80685
:1041E000F091B90682E08083E091B406F091B506C3
:1041F0001082E091B606F091B70680E180831092BC
:10420000C006E091BC06F091BD0686E08083E09197
:10421000BA06F091BB06808180618083E091BA0686
:10422000F091BB06808188608083E091BA06F091AE
:10423000BB06808180688083E091BA06F091BB065E
:1042400080818F7D808381E090E00E94F8118C3026
:1042500009F479C488E190E09093350280933402A8
:1042600090E080E00E94F811882309F46FC481E097
:1042700080930D0282E090E00E94F8118F3F09F0D8
:1042800068C410922D0210922C0283E090E00E94EC
:10429000F8118F3F09F063C410922F0210922E0282
:1042A00084E090E00E94F8118F3F09F05EC4109204
:1042B00031021092300286E090E00E94F8118F3FA8
:1042C00009F059C4109233021092320287E090E054
:1042D0000E94F8118F3F09F054C41092F5058BE04D
:1042E00090E00E94F8118F3F09F052C410923702FB
:1042F000109236028CE090E00E947232AB968FAF43
:10430000AB978DE090E00E947232AC968FAFAC9785
:104310008CE090E00E94F8118F3F09F03FC41092AA
:104320003902109238028EE090E00E94F8118F3F1F
:1043300029F090E090932502809324028FE090E092
:104340000E94F8118F3F29F090E090933B028093F8
:104350003A0280E190E00E94F8118F3F29F090E04E
:1043600090933D0280933C0261E089E00E94040446
:1043700061E086E00E94040461E083E00E9404049E
:1043800080919405833008F081C492E09093A60652
:10439000E82FF0E0E15BFD4FE491E093A7068F5F2B
:1043A00080939405E13009F423C408F400C4E2309A
:1043B00009F445C480910702909108020E94F10F10
:1043C000909308028093070261E08AE00E9404044F
:1043D00061E088E00E94040460E088E00E94D60367
:1043E0001FB7F89480919505811127C0EAEEF3E09C
:1043F0008491E0E3F4E09491E82FF0E0EE0FFF1FEA
:10440000EF5DFC4FA591B491EC91E92321F461E0BB
:1044100085E30E94D60361E085E30E9404048CB525
:1044200080618CBD8CB580648CBD61E084E30E94AA
:10443000040461E083E30E940404809195058F5F8A
:10444000809395051FBF82E58CBD1DBC61E084E0B3
:104450000E94040461E085E00E94040461E087E0BA
:104460000E94040462E086E30E94040462E088E3A0
:104470000E94040462E087E30E94040461E082E099
:104480000E94040404E110E020E030E0009386077D
:104490001093870720938807309389074EE150E0F7
:1044A00060E070E040938A0750938B0760938C071D
:1044B00070938D0780ED97E0A0E0B0E080938E07C9
:1044C00090938F07A0939007B093910700936D0787
:1044D00010936E0720936F07309370074093710716
:1044E00050937207609373077093740780937507F6
:1044F00090937607A0937707B093780700935407BB
:104500001093550720935607309357074093580749
:104510005093590760935A0770935B0780935C0729
:1045200090935D07A0935E07B0935F07E090B50797
:10453000E11004C00E94F0028111ACC31092B307D5
:104540001092B5071092B4078BED92E00E94D31140
:104550001092B3071092B5071092B4071092B207E9
:104560001092B1071092B0071092AF071092AE07E9
:104570001092AD071092AC071092AB078091A40582
:10458000882309F4EAC30E94F0020E94330361E029
:1045900084E40E94C1020E94F0020E94330360E0A2
:1045A0008EEB0E94C10208E915E0B1EAEB2EB5E0FE
:1045B000FB2E0E947B02F80181938F01EE16FF060D
:1045C000C1F76091980570919905072E000C880B32
:1045D000990B0E94553120E030E040E85DE30E94F5
:1045E000B4310E94813370939705609396058CEAED
:1045F00092E00E94260825E030E042E050E066EBC1
:1046000077E0CE0101963C010E94F11422E030E0F7
:1046100041E050E066EB77E0CE018C599F4F0E945D
:10462000F114BE016C597F4FCE018D5B9F4F0E94EC
:10463000131441E050E063E474E0CE018D5B9F4FC2
:104640000E943613811105C0CE018D5B9F4F0E94E1
:10465000C612B301CE018D5B9F4F0E9462130E9470
:10466000E111CE018D5B9F4F0E94D812CE018C5973
:104670009F4F0E94D812C3010E94D8128EE294E08C
:104680000E94C6118BE194E00E94C611809107023E
:104690009091080290930906809308060E94F10FFA
:1046A0006FEF70E089E00E94060668EE73E080E03C
:1046B00090E00E94020770E060E089E00E94060638
:1046C0006FEF70E086E00E94060668EE73E080E01F
:1046D00090E00E94020770E060E086E00E9406061B
:1046E0006FEF70E083E00E94060668EE73E080E002
:1046F00090E00E94020765EA72E0C3010E949A13EB
:104700006EE972E0CE0107960E949A1367E972E0A3
:10471000CE010D960E949A1360E972E0CE01439695
:104720000E949A1369E872E0CE0149960E949A139A
:1047300062E872E0CE014F960E949A136BE772E036
:10474000CE0185960E949A1364E772E0CE018B96A3
:104750000E949A136DE672E0CE01C1960E949A13F0
:1047600066E672E0CE01C7960E949A136DE174E08E
:10477000CE01CD960E94E01466EB77E0CE01CD9697
:104780000E94FC138EE592E00E942608C0909605D8
:10479000D09097050D2C000CEE08FF0803E410E004
:1047A0000C0F1D1F005E1F4FF7FEDCC26DE288EA92
:1047B00096E00E94D90722273327A9012C193D0929
:1047C0004E095F09A4961FAEA497AAE0CA2ED12C69
:1047D000E12CF12CCA01B901A70196010E94DC333A
:1047E000605DF80162938F01211531054105510586
:1047F00089F70115110519F0C8010E94C6118BE156
:1048000094E00E94C6110E9434076B017C01F8EE0F
:10481000CF0EF3E0DF1EE11CF11C00E01FEF74EF90
:10482000A72EBB24B394E6E09E2E87E30E94AD033F
:10483000892B09F401E088E30E94AD03892B09F478
:1048400000E00E9434076C197D098E099F099501CB
:104850000B2C000C440B550B26173707480759073C
:1048600008F0ABC20E9434076B017C01011101C04A
:104870001F5F1A3009F490C21B3009F091C21091E9
:104880006A02812F0E94290381E190E00E94460D77
:104890000E94D90B62E070E0812F90E00E947310BB
:1048A00085E497E00E94D00C855000E0883320F02A
:1048B00082E580936A0201E010916A02812F0E94D2
:1048C000290388E290E00E94460D0E94D90B61E026
:1048D00070E0812F90E00E94731085E497E00E94C1
:1048E000D00C181619060CF46BC2013009F068C21E
:1048F00082E592E00E94D31105E010E048EE53E01B
:1049000060E070E088EE93E00E94400460ED77E0A4
:1049100080E090E00E9402070150110979F78E01B2
:104920000D5B1F4F06501109C8010E94D812601676
:104930007106C1F78091F50581110E94FA110E945C
:104940004C1100910E0610910F060E9434076B0166
:104950007C0181E080931606112780910E069091CC
:104960000F060817190799F40E944C110E9434078A
:104970006C197D098E099F09693B7B408105910572
:1049800060F38FEB92E00E94D31110921606809094
:104990001406F09015069090120610911306A09040
:1049A000100630911106B0900E0650910F06C0907F
:1049B0000C0670910D06D0900A06E82C092D2A2DC0
:1049C0004B2D6C2D8D2D90910B060E94B7082A2D32
:1049D0004B2D6C2D8D2D0E944B0D43E0242E312C40
:1049E00058EE452E53E0552E8091A705811107C042
:1049F0000E94FC0A8093A60581E08093A705809120
:104A00000006811129C00091A60510E00E94FC0A51
:104A10000817190709F10E94FC0A8093A6050E9455
:104A2000FC0A20913A0230913B028217930749F425
:104A300081E08093F90580910D028093A505109285
:104A40000D020E94FC0A20913C0230913D02821727
:104A5000930711F40E9425120E94340720E63AEED3
:104A600040E050E00E94DC33672B682B692B01F596
:104A7000809116068823E1F00E944C11E090140604
:104A8000F090150600911206109113062091100661
:104A90003091110640910E0650910F0660910C0660
:104AA00070910D0680910A0690910B060E94B7083E
:104AB0000091080610910906F8018081882309F405
:104AC00098C20E943407C090BB05D090BC05E0900E
:104AD000BD05F090BE056C197D098E099F09C09037
:104AE000B705D090B805E090B905F090BA05C616A4
:104AF000D706E806F90608F07CC20E9434074B018D
:104B00005C018092BB059092BC05A092BD05B0925D
:104B1000BE05680130E020E04AE0F801F1908F0125
:104B200080ED8F0D8A3008F09AC1429FC001439FEB
:104B3000900D11242F2DFF0C330B20533109280F1A
:104B4000391F6F01EACF8CE090E086CB10920D0206
:104B500091CB90E090932D0280932C0296CB90E025
:104B600090932F0280932E029BCB90E09093310282
:104B700080933002A0CB90E0909333028093320276
:104B8000A5CB91E0811101C090E09093F505A7CBF2
:104B900090E09093370280933602ACCBAC968EAD0A
:104BA0009FADAC979093390280933802BCCB14BC74
:104BB00015BC84B5826084BD85B5816085BD80915A
:104BC000A60690E0FC01EB54FC4FE491F0E0EE0F00
:104BD000FF1FE55CFC4F25913491309393052093A2
:104BE0009205FC01E550FC4FE491E0939105E2CB86
:104BF00010928000109281008091810088608093E3
:104C00008100809181008160809381008091A6065F
:104C100090E0FC01EB54FC4FE491F0E0EE0FFF1F3D
:104C2000E55CFC4F259134913093900520938F05DE
:104C3000FC01E550FC4FE491E0938E05BBCB109254
:104C4000B0001092B1008091B00082608093B000FB
:104C50008091B10081608093B1008091A60690E0C0
:104C6000FC01EB54FC4FE491F0E0EE0FFF1FE55C1C
:104C7000FC4F2591349130938D0520938C05FC01D8
:104C8000E550FC4FE491E0938B0594CB8FEF80933C
:104C9000A70690CB60E080EF0E94C102D12CFF24D8
:104CA000F39401E00E945602182F0E945602113020
:104CB000F9F48130E1F5013408F440CCE092B30717
:104CC000E11003C081E08093B5078091AB07882392
:104CD00009F434CCABEAB7E0E0E2F6E08D918193E1
:104CE00086E0E832F807D1F781E08093A40546CC4E
:104CF000ED2DF0E0181311C08091B3070817A8F448
:104D0000DF01A855B84F13968C918F2181F410E0E4
:104D1000093010F40093B407E02EE855F84F838172
:104D20009F2D9095892383830AC08013F0CFED2DAA
:104D3000F0E0E855F84F83818F29838311E0812FBC
:104D40000E9491020F5FFF0C19F4D394FF24F39497
:104D500027E02D1508F0A6CFAECF10929705109240
:104D6000960545CCA7019601A4961FAEA497FAE03C
:104D7000CF2ED12CE12CF12CCA01B901A70196014B
:104D80000E94DC33605DF80162938F0121153105CB
:104D90004105510589F72DCD68EBA62E6BE0B62EA7
:104DA000B301199D600D711D11248CE997E00E94DB
:104DB000FC138CE997E00E94E1110E94390E35CD79
:104DC000812F0E9429038FE090E00E94460D88E029
:104DD00090E00E94460D0E94D90B812F0E9429036A
:104DE00087E390E00E94460D8CE190E00E94460D22
:104DF0000E94D90B812F0E94290387E290E00E9434
:104E0000460D90E080E00E94460D0E94D90B812F54
:104E10000E94290387E290E00E94460D81E190E024
:104E20000E94460D0E94D90B812F0E9429038FE01A
:104E300090E00E94460D90E080E00E94460D0E94A6
:104E4000D90B812F0E9429038EE090E00E94460D2D
:104E500090E080E00E94460D0E94D90B60CD309317
:104E6000B6052093B5056091B1057091B2058091AA
:104E7000B3059091B4052115310511F1032E000CF5
:104E8000440B550B0E94FE332093B7053093B805B1
:104E90004093B9055093BA05EFE9EF0DE730B0F450
:104EA0000E2E000CFF0B8827E75AF84D8F4F0C94FD
:104EB0001D3480288228742878287A287C287E2827
:104EC00020910A0230E050E040E0DCCF1092B005C3
:104ED000F6018181833241F48091B0058F5F809328
:104EE000B00586010E5F1F4FF80180818E32F1F40C
:104EF000C090B705D090B805E090B905F090BA051C
:104F0000C701B60122E030E040E050E00E94FE33ED
:104F1000C20ED31EE41EF51EC092B705D092B8058E
:104F2000E092B905F092BA050F5F1F4FF80180813A
:104F300080538A3008F0E8C08093AF050F5F1F4FA1
:104F4000F80180818C3211F40F5F1F4FE091B005A2
:104F5000EE2309F44EC0C090B705D090B805E0909C
:104F6000B905F090BA058091AF058450990B4CE0DB
:104F7000489F9001499F300D1124E20FF32FF11D3E
:104F8000EE0FFF1FE351FD4FB701A6018081918114
:104F90000E9440040E943407681979098A099B0914
:104FA000C616D706E806F90620F50E943407609376
:104FB000BB057093BC058093BD059093BE058091A1
:104FC000A706813009F4A5C0823009F4A8C0811178
:104FD00005C080916E008D7F80936E0060E08091AF
:104FE000A6060E94D60383EF92E00E94D31110E040
:104FF00000E010930906009308060E943407009110
:105000000406109105062091060630910706601BE4
:10501000710B820B930B6630710581059105E8F0E9
:1050200080910D02811181C070E060E089E00E94F2
:10503000060670E060E086E00E94060670E060E030
:1050400083E00E9406060E94340760930406709372
:1050500005068093060690930706809102069091BC
:105060000306892B21F080910106811106C08091F1
:105070000006811102C00E94C8190E94390E83E8FF
:1050800097E00E94040B8AE697E00E94040B81E5FA
:1050900097E00E94040B809100068111B3C010922A
:1050A000FF051092FE0580918307909184071816E2
:1050B00019060CF02DC281E08093010610920906BA
:1050C0001092080644E650E060E070E088EE93E05D
:1050D0000E9440048091F905882309F4C3C00E940E
:1050E00025120E94610880CC81E08093B005F0CE4B
:1050F00083E0FBCF85E0F9CF86E0F7CF88E0F5CFFE
:105100008AE0F3CF8CE0F1CF809109028093AF0564
:1051100017CF80916F008D7F80936F005FCF80915C
:1051200070008D7F8093700059CF8091F5058111BB
:105130008ACF0091C1051091C205C801880F991F3F
:10514000800F911FFC01EE0FFF1FE15BFC4F2081E0
:10515000318160910F0270911002620F731F709382
:10516000100260930F02FC01EE0FFF1FEF5AFC4F7D
:10517000C080D1802091ED053091EE05C20ED31E86
:10518000D092EE05C092ED05880F991FFC01ED5AF3
:10519000FC4FE080F1808091EB059091EC05E80EEA
:1051A000F91EF092EC05E092EB0589E00E940606FC
:1051B000B60186E00E940606B70183E00E9406065B
:1051C0008091BF059091C00501969093C005809392
:1051D000BF058F3F910551F40F5F1F4F1093C2051C
:1051E0000093C1051092C0051092BF058091C105C2
:1051F0009091C20506970CF426CF1092C20510922A
:10520000C10521CF0E9434070091FA051091FB05DA
:105210002091FC053091FD05601B710B820B930BF7
:1052200061367A4E8105910508F43DCF1092000653
:10523000E0910206F0910306EE0FFF1FE553FC4FCD
:10524000808191819093030680930206880F991FB5
:10525000FC01E25CFD4F808191819093FF0580937A
:10526000FE0521CF0E9434076093FA057093FB0579
:105270008093FC059093FD058091020690910306B2
:1052800001968630910509F464C0909303068093DB
:10529000020620910206309103068901000F111FBA
:1052A000F801E25CFD4F808191819093FF0580932E
:1052B000FE05D9011197FD01EE0FFF1FE156FC4FCE
:1052C000608171816115710509F410C1AB01415014
:1052D0005109FA01EE0FFF1FED58FC4F0190F081CC
:1052E000E02DAE17BF0709F001C162307105B1F5BD
:1052F00088E1E1E7F2E0D30101900D928A95E1F7B0
:1053000080912A0290912B0283709927892B21F496
:105310008DE190E09C838B83E0912802F09129023B
:105320003197EE0FFF1F81E090E08C0F9D1FE80F7B
:10533000F91F2091260230912702808191818217E6
:10534000930764F48AE090E090930306809302064A
:10535000C8CE10920306109202069BCF1092000650
:105360005093030640930206452BB9F40E94D20ADB
:105370007C010E94DC0A8C010E94E40A4091220216
:105380005091230260912002709121029C01809132
:105390001E0290911F020E94B70880910206909110
:1053A0000306019719F5E0902A02F0902B0290E392
:1053B000E91A98EFF90A00912802109129028090C9
:1053C0002602909027020E94EC0A5C010E94F40AD7
:1053D0006C010E94FC0A9401A501B6010E94B70865
:1053E000609124028EE090E00E94F6118091020606
:1053F000909103060297C1F460912C0282E090E044
:105400000E94F61160912E0283E090E00E94F61156
:105410006091300284E090E00E94F61160913202C7
:1054200086E090E00E94F6118091020690910306BA
:10543000039731F46091340281E090E00E94F6110C
:105440008091020690910306049701F5609136025F
:105450008BE090E00E94F611109138028CE090E011
:105460000E947232181729F0612F8CE090E00E94A0
:105470007A32109139028DE090E00E947232181752
:1054800029F0612F8DE090E00E947A32809102062F
:1054900090910306059761F460913A028FE090E0E5
:1054A0000E94F61160913C0280E190E00E94F611AA
:1054B0000E94D20A7C010E94DC0A082F0E94E40AA2
:1054C000C82E0E94EC0AD82E0E94F40A182F0E94BF
:1054D000FC0A382FC701B2010E94C833E82E2C2DD8
:1054E0004D2D612F832F0E944B0DFBCDA901425101
:1054F00051094230510560F02950310922303105FF
:1055000038F00E949A18F801EE5EFD4F9183808377
:10551000809183079091840797FFF9C044E650E09B
:1055200060E070E088EE93E00E9440048091000605
:10553000811151C000910206109103060E943407A8
:105540006093FA057093FB058093FC059093FD052D
:10555000012B09F040C00E94EC0ABC01C3010E946B
:105560001C140E94F40ABC01CE018D5B9F4F0E9467
:105570001C140E94FC0ABC01CE0186599F4F0E9458
:105580001C14BE0166597F4FCE018C599F4F0E945B
:105590001314BE016D5B7F4FCE018C599F4F0E944B
:1055A0006213B3010E946213BC018CE997E00E9470
:1055B000FC13CE018C599F4F0E94D812CE01865900
:1055C0009F4F0E94D812CE018D5B9F4F0E94D81230
:1055D000C3010E94D81280910206909103060197A0
:1055E00009F05CC00E94E40A90932702809326028F
:1055F0000E94DC0A90932902809328020E94D20A1A
:10560000B2010E94C833BC0190932B0280932A02FE
:105610008091240290912502892B09F09BC1C3013E
:105620000E941C146091280270912902CE018D5BAA
:105630009F4F0E941C146091260270912702CE0198
:1056400086599F4F0E941C14BE0166597F4FCE01A0
:105650008C599F4F0E941314BE016D5B7F4FCE018A
:105660008C599F4F0E946213B3010E946213BC01C8
:105670008CE997E00E94FC13CE018C599F4F0E9449
:10568000D812CE0186599F4F0E94D812CE018D5B51
:105690009F4F0E94D812C3010E94D812E0910206C7
:1056A000F0910306EE0FFF1FE553FC4F208131817F
:1056B00030930306209302062D30310549F4E1E0D2
:1056C000F0E0F0933302E093320280E88093F80533
:1056D0008091000691E08927809300068901000FE0
:1056E000111FF801E25CFD4F808191819093FF05CD
:1056F0008093FE052231310551F02930310539F012
:105700000E949A18F801EE5EFD4F9183808380918C
:105710006A0790916B07009739F19093F705809392
:10572000F6051816190604F581E08093010610921B
:1057300009061092080644E650E060E070E088EE4A
:1057400093E00E9440048091F9058111C8CC0E9429
:10575000511680910006811107C01092F50560E096
:1057600087E090E00E94F6118091F6059091F70590
:10577000019609F000C180916C07882309F4FBC0F1
:1057800010921102809100068823F9F00E943407DC
:105790000091F1051091F2052091F3053091F40587
:1057A000601B710B820B930B6739710581059105A5
:1057B00060F00E9434076093F1057093F2058093C6
:1057C000F3059093F4050E94511680915107909132
:1057D00052070097C9F19093F0058093EF051816D2
:1057E000190694F511E01093010610920906109223
:1057F000080644E650E060E070E088EE93E00E9426
:1058000040048091F90581116ACC0E94F2158091C3
:105810000006811119C01093F50561E087E090E062
:105820000E94F61160910F0288E090E00E94F6114C
:105830006091ED0589E090E00E94F6116091EB0522
:105840008AE090E00E94F6118091EF059091F005BA
:10585000019609F094C080915307882309F48FC002
:105860008091000610920E02882319F10E943407DD
:105870000091E7051091E8052091E9053091EA05CE
:10588000601B710B820B930B6739710581059105C4
:10589000E8F10E9434076093E7057093E805809370
:1058A000E9059093EA050E94F215809100068111A6
:1058B0002DC080916A0790916B0797FF12C044E654
:1058C00050E060E070E088EE93E00E94400481E0E8
:1058D00080930D0261E090E080E00E94F6110E944A
:1058E000FA11809151079091520797FF0FC044E63B
:1058F00050E060E070E088EE93E00E944004109277
:105900000D0260E090E080E00E94F611E091020656
:10591000F0910306E631F10508F0E3CB8827EC5659
:10592000F34D8F4F0C941D34C32CF42CC82D172E1F
:10593000522E612F712871287128D82E002F002F28
:10594000002F71287128712871287128522E922EEB
:10595000612F612FC3010E941C1460912602709177
:105960002702CE018D5B9F4F0E941C14609128027C
:105970007091290264CE81E08093110226CF81E0EC
:1059800080930E0292CF8091E60581111EC00E9485
:10599000EC0A20910B0230910C0282179307E9F078
:1059A0000E94EC0A90930C0280930B02CE010196A8
:1059B0000E946314BE016F5F7F4F8CE997E00E94E5
:1059C0008D12CE0101960E94D8120E94EC0A80FD31
:1059D00064C180EC8093F80562C16CE977E0CE0188
:1059E00001960E941314E6CF8091E6058111B9C09B
:1059F0008091DE05811111C00E94340767517C4FF0
:105A00008F4F9F4F6093DA057093DB058093DC0521
:105A10009093DD0581E08093DE058091D2058111B0
:105A200009C06DE174E08CEC95E00E94E01481E027
:105A30008093D20568E070E08CEC95E00E94E01263
:105A40008091C405811107C0809124028093C30511
:105A500081E08093C4050E9434070091DA0510911B
:105A6000DB052091DC053091DD05601B710B820B9D
:105A7000930B693E73408105910550F42091C30555
:105A800080912402909125022817190609F458C024
:105A90000E9434076093DA057093DB058093DC0580
:105AA0009093DD058091240290912502892B09F0C5
:105AB0005AC00E94D20AB2010E94C833BC01CE0172
:105AC00001960E941C140E94DC0ABC01CE018D5B71
:105AD0009F4F0E941C140E94E40ABC01CE0186590B
