:100000000C94F2000C941A010C941A010C941A012D
:100010000C941A010C941A010C941A010C94BD1939
:100020000C941A010C941A010C941A010C940C1AD9
:100030000C941A010C941A010C94671A0C941A016E
:100040000C941B190C941A010C948B190C946519BF
:100050000C941A010C941A010C941A010C941A01B4
:100060000C94C21A0C941A01300057616B6520750C
:10007000702C204E656F2100303000303030003061
:100080003000303000303000300030300030003090
:100090003030300030003030300030003030003050
:1000A0000030000201004661756C7479205254439F
:1000B000210054656D70203D2000393939393939B6
:1000C0000038383838383800373737373737003660
:1000D0003636363636003535353535350034343438
:1000E0003434340033333333333300323232323248
:1000F0003200313131313131003030303030300088
:1001000053746172742054657374004669726D771C
:100110006172652076657273696F6E3A200057616F
:10012000726E696E67212052544320444F4E27540B
:1001300020524553504F4E44210054656D702E207F
:1001400073656E736F72206E6F7420666F756E6468
:100150002E00496E636F727265637420536F6E6711
:1001600020466F726D6174210030310031323331BD
:100170003939003331313239390030300030300014
:1001800073796E630000000000240027002A00003D
:10019000000000250028002B0000000008000201DC
:1001A0000000030407000000000000000000000041
:1001B00000230026002900040404040404040402AB
:1001C00002020202020303030303030102040810F4
:1001D00020408001020408102001020408102000C1
:1001E0001A1CE32E11241FBECFEFD8E0DEBFCDBF17
:1001F00013E0A0E0B1E0EEE2F9E602C005900D9256
:10020000A23DB107D9F726E0A2EDB3E001C01D92EF
:10021000AC3DB207E1F710E0C1EFD0E004C0219798
:10022000FE010E949B33C03FD107C9F70E94AB1C5F
:100230000C948A340C9400008CBD9DBD089580916F
:10024000C406E091C506F091C606F8949181982BFA
:1002500091832281382F309523232283A7E0B0E0B9
:100260001197F1F7918193239183A3E2B0E0119765
:10027000F1F790817894EFECF0E03197F1F7982363
:1002800081E009F480E008950F931F93CF93DF93EB
:1002900008E010E0C0E0D1E00E941F018111CD2BE9
:1002A000DD0F01501109C1F78C2FDF91CF911F9104
:1002B0000F9108959091C406E091C506F091C6068D
:1002C000292F209580FF14C0F89482818223828395
:1002D0008181892B8183A3E2B0E01197F1F78281BC
:1002E000982B9283789487ED90E00197F1F7089529
:1002F000F8948281822382838181892B8183AFEF6D
:10030000B0E01197F1F78281982B928378948FE077
:1003100090E0EBCF0F931F93CF93DF93082FC8E0AC
:10032000D0E011E081E0902F912309F480E00E9459
:100330005A01110F2197B1F7F894E091C506F09199
:10034000C60691818091C406809598239183E0919F
:10035000C506F091C6069281892382837894DF9145
:10036000CF911F910F9108958091C406E091C50629
:10037000F091C606F8949181282F209592239183BD
:1003800078943DE743E050E0315029F1DA011197CC
:10039000F1F790819823C1F3F8949281922392838C
:1003A0009181982B91837894ABE7B7E01197F1F79F
:1003B000F894918192239183A3E1B1E01197F1F731
:1003C0009081982381E009F080E07894E3E6F6E0FC
:1003D0003197F1F7089580E0089591E090939205A8
:1003E0008093B405109293051092B505089583305B
:1003F00081F028F4813099F08230A9F00895873097
:10040000A9F08830C9F08430B1F4809180008F7DEC
:1004100003C0809180008F7780938000089584B519
:100420008F7784BD089584B58F7DFBCF8091B00018
:100430008F778093B00008958091B0008F7DF9CFC1
:10044000CF93DF93282F30E0F901E756FE4F8491D8
:10045000F901E553FE4FD491F901E954FE4FC491DF
:10046000CC23A1F081110E94F701EC2FF0E0EE0FF8
:10047000FF1FE355FE4FA591B491EC91ED2381E070
:1004800090E009F480E0DF91CF91089580E090E062
:10049000FACF1F93CF93DF93282F30E0F901E7566F
:1004A000FE4F8491F901E553FE4FD491F901E954CF
:1004B000FE4FC491CC23A9F0162F81110E94F701A1
:1004C000EC2FF0E0EE0FFF1FE157FE4FA591B49126
:1004D0008FB7F894EC91111108C0D095DE23DC930E
:1004E0008FBFDF91CF911F910895DE2BF8CFCF936F
:1004F000DF9390E0FC01E553FE4F249189549E4F19
:10050000FC0184918823C9F090E0880F991FFC01B9
:10051000EB57FE4FA591B491FC01E157FE4FC591F9
:10052000D49161110DC09FB7F8948C9120958223CE
:100530008C938881282328839FBFDF91CF910895D2
:10054000623051F49FB7F8943C91822F80958323B9
:100550008C93E8812E2BEFCF8FB7F894EC912E2B54
:100560002C938FBFEACF4F925F926F927F928F92C0
:100570009F92AF92BF92CF92DF92EF92FF920F9332
:100580001F93CF93DF9300D000D01F92CDB7DEB77B
:100590002091C30527FD2CC149835A836B837C833B
:1005A0008C0161E08091C2050E9477028091C305B1
:1005B0008D834801B12CA12C8D7F09F031C160E001
:1005C00072E18AE790E0A50198010E947C3329013D
:1005D0003A017A01690191E0C91AD108E108F108EC
:1005E000AFEFCA16D104E104F10409F00CF4C7C05E
:1005F00060E472E48FE090E0A50198010E947C33F2
:1006000069017A01B1E0CB1AD108E108F1088D81C6
:10061000823009F06AC082E09FEFC916D104E1047C
:10062000F10409F00CF45EC160E970ED83E090E044
:10063000A50198010E947C3369017A01A1E0CA1AE0
:10064000D108E108F10883E0BFEFCB16D104E10443
:10065000F10409F00CF446C168E478EE81E090E022
:10066000A50198010E947C3369017A0181E0C81AD2
:10067000D108E108F10884E09FEFC916D104E10434
:10068000F10409F00CF42EC164E274EF80E090E014
:10069000A50194010E947C3369017A01B1E0CB1A73
:1006A000D108E108F10885E09FEFC916D104E10403
:1006B000F10409F008F416C162E17AE780E090E005
:1006C000A50194010E947C3369017A01B1E0CB1A43
:1006D000D108E108F1088FEFC816D104E104F10454
:1006E00011F008F0F0C086E0FDC08FEFC816D1040D
:1006F000E104F10409F00CF491C068E478EE81E0C3
:1007000090E0A50198010E947C3369017A0191E093
:10071000C91AD108E108F108AD8184E0A111C4CF64
:1007200083E0AFEFCA16D104E104F10461F15CF19A
:1007300062E17AE780E090E0A50194010E947C33B9
:1007400069017A0181E0C81AD108E108F10884E062
:100750009FEFC916D104E104F104A9F0A0F07301E0
:1007600062019AE0F594E794D794C7949A95D1F7EB
:10077000A1E0CA1AD108E108F10885E004C081E0CF
:10078000AD81A111AFC095B5987F892B85BD8981B9
:100790009A81AB81BC812FEF3FEFA901892B8A2B76
:1007A0008B2B79F0D801AA0FBB1F29813A814B818D
:1007B0005C810E94CF3128EE33E040E050E00E949F
:1007C0005A339D81913009F45CC0923009F46BC0BA
:1007D00091110EC0C7BC2093BE053093BF05409356
:1007E000C0055093C10580916E00826080936E00B9
:1007F0000F900F900F900F900F90DF91CF911F915E
:100800000F91FF90EF90DF90CF90BF90AF909F90AF
:100810008F907F906F905F904F90089582E0B0CF5F
:1008200060E072E18AE790E0A50198010E947C33C4
:1008300069017A01B1E0CB1AD108E108F10891E031
:10084000C114D10481E0E806F10484F068E478EE94
:1008500081E090E0A50198010E947C3369017A0152
:1008600091E0C91AD108E108F10893E0AD81A13007
:1008700009F08DCF80918100887F892B8093810042
:1008800086CFD0928900C09288002093BA05309319
:10089000BB054093BC055093BD0580916F008260FD
:1008A00080936F00A5CFC092B3002093B60530931C
:1008B000B7054093B8055093B905809170008260E8
:1008C0008093700095CF730162018AE0F594E794FC
:1008D000D794C7948A95D1F7B1E0CB1AD108E10833
:1008E000F10887E09091B100987F892B8093B10047
:1008F0004ECF1F93CF93DF93182FEB0161E00E943F
:100900007702209739F460E0812FDF91CF911F911A
:100910000C944902CF3FD10511F461E0F5CFE12FEE
:10092000F0E0E756FE4FE491E33031F140F4E1307E
:10093000B1F0E230E1F0C038D1057CF7E4CFE73028
:1009400029F1E83059F1E430B1F7809180008062FC
:1009500080938000D0938B00C0938A0004C084B53C
:10096000806884BDC7BDDF91CF911F91089584B584
:10097000806284BDC8BDF7CF80918000806880937D
:100980008000D0938900C0938800EDCF8091B000A3
:1009900080688093B000C093B300E5CF8091B00031
:1009A00080628093B000C093B400DDCF3FB7F8946D
:1009B0008091400590914105A0914205B091430579
:1009C00026B5A89B05C02F3F19F00196A11DB11DAA
:1009D0003FBFBA2FA92F982F8827BC01CD01620FE6
:1009E000711D811D911D42E0660F771F881F991FA1
:1009F0004A95D1F708958F929F92AF92BF92CF926E
:100A0000DF92EF92FF924B015C010E94D6046B01D2
:100A10007C010E94D6046C197D098E099F09683EED
:100A2000734081059105A8F321E0821A9108A1087D
:100A3000B10888EEC80E83E0D81EE11CF11C8114B9
:100A40009104A104B10429F7FF90EF90DF90CF90BB
:100A5000BF90AF909F908F9008952FB7F8946091BA
:100A60003C0570913D0580913E0590913F052FBF5B
:100A70000895089508950895AF92BF92CF92DF929E
:100A8000EF92FF920F931F93CF93DF936C017B0143
:100A90008B01040F151FEB015E01AE18BF08C017D4
:100AA000D10759F06991D601ED91FC910190F08147
:100AB000E02DC6010995892B79F7C501DF91CF910A
:100AC0001F910F91FF90EF90DF90CF90BF90AF906C
:100AD0000895FC01538D448D252F30E0842F90E044
:100AE000821B930B541710F0CF9608950197089529
:100AF000FC01918D828D981761F0A28DAE0FBF2FF2
:100B0000B11D5D968C91928D9F5F9F73928F90E047
:100B100008958FEF9FEF0895FC01918D828D9817B6
:100B200031F0828DE80FF11D858D90E008958FEFF3
:100B30009FEF0895FC01918D228D892F90E0805CBC
:100B40009F4F821B91098F739927089584EC95E03C
:100B50000E949A0521E0892B09F420E0822F089554
:100B600080E090E0892B29F00E94A60581110C9469
:100B700000000895FC01A48DA80FB92FB11DA35A40
:100B8000BF4F2C91848D90E001968F739927848FAD
:100B9000A689B7892C93A089B1898C9183708064D0
:100BA0008C93938D848D981306C00288F389E02D71
:100BB00080818F7D80830895EF92FF920F931F9322
:100BC000CF93DF93EC0181E0888F9B8D8C8D981300
:100BD0001AC0E889F989808185FF15C09FB7F8940C
:100BE000EE89FF896083E889F98980818370806458
:100BF00080839FBF81E090E0DF91CF911F910F91A3
:100C0000FF90EF900895F62E0B8D10E00F5F1F4FB1
:100C10000F731127E02E8C8D8E110CC00FB607FCC0
:100C2000FACFE889F989808185FFF5CFCE010E944E
:100C3000BA05F1CFEB8DEC0FFD2FF11DE35AFF4FFD
:100C4000F0829FB7F8940B8FEA89FB8980818062DC
:100C5000CFCF0F931F93CF93DF938C01D0E0C0E0F1
:100C6000F801EC0FFD1F6491662341F084EC95E0E0
:100C70000E94DC05892B11F02196F2CFCE01DF9185
:100C8000CF911F910F910895CF93DF93EC01888D41
:100C90008823B9F0AA89BB89E889F9898C9185FDF7
:100CA00003C0808186FD0DC00FB607FCF7CF8C9185
:100CB00085FFF2CF808185FFEDCFCE010E94BA057E
:100CC000E9CFDF91CF91089560937D0470937E0406
:100CD00080937F0490938004645D7E4F8F4F9F4F7D
:100CE0006093790470937A0480937B0490937C04DE
:100CF00082E090E090937804809377040E942D0521
:100D000060937304709374048093750490937604D5
:100D100008952F923F924F925F926F927F928F929F
:100D20009F92AF92BF92CF92DF92EF92FF920F937A
:100D30001F93CF93DF93382E962E842E222E84E697
:100D4000E816F1040CF459C092EBE91A97E0F90A9D
:100D5000E0928704009386042092850430928304F5
:100D60009092820480928104AE2DB0E020E833E3BB
:100D700041EE51E00E94CF312B013C0122EB37E0E4
:100D8000FF24E4E6F0E0C0E9D1E0C901825B9740CE
:100D90008E159F05B4F19EE4E91A98EFF90AC70190
:100DA00064E670E00E9446336C01C70160E971E0BF
:100DB0000E9446335C01C4EFD1E0E1E0F0E011278E
:100DC00083E0E822FF24E017F1070CF042C0E23094
:100DD000F10591F5E114F10479F5C114D10419F488
:100DE000A114B10449F580E8480E8BE3581E86E251
:100DF000681E711C31962196E6CF8EE1E80EF11C3B
:100E0000A7CFC90183709927892B99F4C901BF0124
:100E10000E944633892B31F4C901BE010E9446333A
:100E2000892B39F490E8490E91E5591E91E0691E2D
:100E3000711C2F5F3F4FA9CFA881B0E020E831E5BA
:100E400041E050E00E94CF31460E571E681E791EC9
:100E5000D1CF292D30E0ACE3B0E00E9411326B011C
:100E60007C01C80CD11CE11CF11C232D30E0A0E159
:100E7000BEE00E941132C60ED71EE81EF91E822D5A
:100E80008150990BDC0120E831E541E050E00E94FF
:100E9000A1336C0D7D1D8E1D9F1D640D751D861D5E
:100EA000971DDF91CF911F910F91FF90EF90DF90F1
:100EB000CF90BF90AF909F908F907F906F905F90FA
:100EC0004F903F902F900C946406CF92DF92EF9258
:100ED000FF920F931F930E942D058B019C01C090E0
:100EE0007304D0907404E0907504F09076046091DF
:100EF0007D0470917E0480917F04909180040C1990
:100F00001D092E093F09083E134021053105E0F077
:100F1000DC01CB010196A11DB11D80937D0490934E
:100F20007E04A0937F04B0938004B701A6014851CA
:100F30005C4F6F4F7F4F40937304509374046093E2
:100F4000750470937604C7CF1F910F91FF90EF90B7
:100F5000DF90CF9008954F925F926F927F928F9221
:100F60009F92AF92BF92CF92DF92EF92FF920F9338
:100F70001F93CF93DF934B015C0180916F0490919D
:100F80007004A0917104B091720488159905AA05A6
:100F9000BB0509F4C6C08CE3C82ED12CE12CF12C82
:100FA000C501A70196010E945A3360938104CA01CA
:100FB000B901A70196010E945A3360938204C501CA
:100FC000B40120E13EE040E050E00E945A33CA0103
:100FD000B90128E130E040E050E00E945A336093CC
:100FE0008304C501B40120E831E541E050E00E94EE
:100FF0005A3369017A01CA01B9016C5F7F4F8F4F83
:101000009F4F27E030E040E050E00E945A336F5F8E
:1010100060938404412C512C320140E004E610E03E
:10102000C0E9D1E0242F30E02E54384FF901E370AD
:10103000FF273097F9F4C901B8010E944633892B84
:1010400031F4C901BE010E944633892B99F48EE622
:1010500091E0A0E0B0E0480E591E6A1E7B1ED3014D
:10106000C201AA27BB27C816D906EA06FB0638F034
:101070004F5FD8CF8DE691E0A0E0B0E0ECCF409399
:101080008704C90164E670E00E944633EC01C9019F
:1010900060E971E00E944633309721F42097D9F43B
:1010A0000097C9F04DE651E060E070E0441A550A3F
:1010B000660A770AC418D508E608F708A4EFB1E075
:1010C00020E0213069F43097E9F5209711F400977A
:1010D000C9F54DE106C04EE651E060E070E0E6CFB4
:1010E0004C9150E070E060E031E0320FC416D5065C
:1010F000E606F70640F0C41AD50AE60AF70A119682
:10110000232F3C30F1F62F5F20938604C394C092C6
:10111000850480926F0490927004A0927104B09242
:101120007204DF91CF911F910F91FF90EF90DF90AC
:10113000CF90BF90AF909F908F907F906F905F9077
:101140004F9008954CE1CDCF0E9465070E94AB07F8
:101150008091870490E08E54984F08950E9465070F
:101160000E94AB078091860490E008950E94650775
:101170000E94AB078091850490E008950E94650766
:101180000E94AB078091810490E008950E9465075A
:101190000E94AB078091820490E008950E94650749
:1011A0000E94AB078091830490E00895CF92DF9274
:1011B000EF92FF92CF93DF93EC010E942D056B011C
:1011C0007C018F850E9420029C0181E02115310560
:1011D00009F480E0898B8889811105C091E0232B77
:1011E00009F090E0998B29898A89281721F0CD8A06
:1011F000DE8AEF8AF88E8D899E89AF89B88DB70116
:10120000A601481B590B6A0B7B0BDB01CA01CB8083
:10121000DC80ED80FE80C816D906EA06FB0664F481
:101220003A81231749F02A83222349F04B895C89AC
:101230004F5F5F4F5C8B4B8B3A81311117C0CF8072
:10124000D884E984FA84C816D906EA06FB0634F481
:101250008B899C89998388831C8A1B8A2A8BDF91BE
:10126000CF91FF90EF90DF90CF900895CB84DC84F6
:10127000ED84FE84C816D906EA06FB067CF78B8946
:101280009C89919581959109E5CF20914C04260F79
:101290003327331F21323105ECF420918C05FC01FA
:1012A00090E080E0243069F082E00895A0914C0441
:1012B0002191AC01445D5B4FA40FB52FB11D2C9360
:1012C0000196861798F380914C04680F60934C0444
:1012D00080E0089581E0089510928C0581E080936C
:1012E0008B051092660561E082E10E94490261E08F
:1012F00083E10E944902E9EBF0E080818E7F8083E8
:1013000080818D7F808388E48093B80085E480931A
:10131000BC000895CF93DF9391E090932B04882332
:10132000B9F0C091B800D091BA008091BC008A7B1E
:101330008093BC0060E082E10E94490260E083E1AA
:101340000E9449020E946C09D093BA00C093B80071
:10135000DF91CF910895CF92DF92EF92FF920F939A
:101360001F93CF93DF93D091B50581E0D13208F080
:101370009CC0C091B4050E94D6046B017C01809191
:101380008C0581116CC082E080938C0581E0809394
:101390008B058FEF80938A0510928905D09388057D
:1013A000A4E9B5E0E8E6F5E080E0D8138DC010923E
:1013B000670580916705CC0FC82BC09367058091A6
:1013C0006605813009F084C0109266050E94D6043B
:1013D0006B017C01809167058093BB0080918E0535
:1013E00090918F05A0919005B0919105892B8A2B42
:1013F0008B2BA1F00E94D60400918E0510918F05D1
:1014000020919005309191056C197D098E099F09F5
:10141000061717072807390708F442C08091BC0057
:1014200083FDD8CF85EC8093BC000E94D6046B016D
:101430007C0180918C05823009F44CC080918A0532
:101440008F3F09F469C080918A05803209F466C033
:1014500080918A05803309F463C084E026C08091BE
:101460008E0590918F05A0919005B0919105892BE3
:101470008A2B8B2B09F483CF0E94D60400918E0512
:1014800010918F0520919005309191056C197D097F
:101490008E099F09061717072807390708F06FCF2D
:1014A00080918D050E948A0985E010929305109223
:1014B000B50510929205DF91CF911F910F91FF908A
:1014C000EF90DF90CF9008959D9191938F5F6DCFB6
:1014D00085EEA9CF80918E0590918F05A091900502
:1014E000B0919105892B8A2B8B2B09F4A2CF0E94F6
:1014F000D60400918E0510918F05209190053091B2
:1015000091056C197D098E099F0906171707280791
:10151000390708F08ECFC4CF80E0C7CF82E0C5CFB7
:1015200083E0C3CF0895E091450580914405E81715
:1015300030F4F0E0EA5BFA4F808190E008958FEF9D
:101540009FEF089590914505809144052FEF3FEF5F
:10155000981748F4E92FF0E0EA5BFA4F208130E079
:101560009F5F90934505C90108958091440590912E
:101570004505891B990B0895CF92DF92EF92FF9258
:101580000F931F93CF93DF937C01CB018A012091AE
:101590009205222389F0EB016B01C40ED51ECC15F8
:1015A000DD0569F06991D701ED91FC910190F08121
:1015B000E02DC7010995F3CF642F0E944509C801AA
:1015C000DF91CF911F910F91FF90EF90DF90CF901F
:1015D0000895CF93DF931F92CDB7DEB76983209133
:1015E00092052223F9F02091B505203258F021E030
:1015F00030E0FC013383228390E080E00F90DF91A4
:10160000CF91089580919305E82FF0E0EC56FA4FC2
:10161000998190838F5F809393058093B50581E0D6
:1016200090E0ECCF61E0CE0101960E944509F7CF32
:10163000682F81E696E00C94E90ADF92EF92FF9220
:101640000F931F93CF93DF93182FF62ED42ED22F04
:10165000809169010E94ED0160E081E696E00E94C0
:10166000E90ACAE08D2D6C2F0E943A338295807F63
:10167000682F690F81E696E00E94E90A8F2D6C2F92
:101680000E943A338295807F682F690F81E696E049
:101690000E94E90A812F6C2F0E943A338295807F45
:1016A000682F690F81E696E00E94E90A61E081E611
:1016B00096E00E94E90A8D2F6C2F0E943A338295A2
:1016C000807F682F690F81E696E00E94E90A802FEB
:1016D0006C2F0E943A338295807F682F690F81E6D4
:1016E00096E00E94E90A8E2D6C2F0E943A33829573
:1016F000807F682F690F81E696E00E94E90A60E02A
:1017000081E696E00E94E90ADF91CF911F910F9147
:10171000FF90EF90DF900C94AB0990E080E008958B
:101720004091290450912A042091270430912804E3
:1017300080E09CE34217530711F48FEF9FEF4F5F58
:101740005F4F4630510529F050932A0440932904F5
:10175000089510922A04109229042F5F3F4F2630DB
:10176000310529F03093280420932704089510921E
:101770002804109227040895CF92DF92EF92FF92EF
:101780000F931F93CF93DF939091100191110BC092
:101790008FEF9FEFDF91CF911F910F91FF90EF900F
:1017A000DF90CF90089590910D01992389F3082F30
:1017B000C0912205D091230580911F0481110DC095
:1017C0000E942D0560931B0470931C0480931D04DC
:1017D00090931E0481E080931F040E942D05C09009
:1017E0001B04D0901C04E0901D04F0901E046C19A2
:1017F0007D098E099F096D32714081059105B0F018
:1018000010911A040E942D0560931B0470931C0410
:1018100080931D0490931E0491E0912790931A04E5
:10182000992331F110921904109218042091180490
:10183000309119042095309580911C05282326FFAE
:101840001CC081E08093170427FF1AC081E08093B9
:10185000160480911A04882309F49ACF02C0D59502
:10186000C7950A95E2F7C0FF93CF80E09CE392CF43
:10187000D0931904C0931804D9CF10921704E4CF61
:1018800010921604E6CFCF92DF92EF92FF921F9351
:10189000CF93DF93182F80910A0481110DC00E940D
:1018A0002D056093060470930704809308049093B9
:1018B000090481E080930A04C0910404D0910504D6
:1018C000C930D10508F05EC0FE01E759F34F0C9412
:1018D0009B33720C7E0C820C900C720C7E0CB60C3E
:1018E000B80CBD0C0E94B4012196CA30D10509F094
:1018F00096C0109205041092040428C08CEC0E943B
:101900008A01F2CF84E40E948A010E942D0560932F
:101910000604709307048093080490930904E4CFAD
:101920000E942D05C0900604D0900704E0900804A2
:10193000F09009046C197D098E099F09C4E0D0E07C
:101940006E3E72408105910508F069C06091000407
:10195000709101048091020490910304DF91CF9172
:101960001F91FF90EF90DF90CF9008958EEBC7CF3F
:101970000E9444018093FE03B7CF0E9444018093EC
:10198000FF03B2CFC930D10509F0AECF6091FE039D
:101990007091FF036F3F760711F470E060E0072E4F
:1019A000000C880B990B0E949C3020E030E040E84E
:1019B0005DE30E94FB306B017C0160913701709107
:1019C0003801072E000C880B990B0E949C3020E0F8
:1019D00030E040E251E40E948D32A70196010E945E
:1019E000213211110FC020E030E040E251E40E94AA
:1019F000FB30609300047093010480930204909381
:101A0000030472CF26E636E646EE5FE30E94FB3023
:101A100020E030E040E052E40E942132E4CFD09355
:101A20000504C093040492CFCF93DF93EC01219679
:101A3000FC0120812A33C9F42181243609F522963C
:101A400030E020E06AE0899190ED980F9A3078F4C8
:101A5000629FA001639F500D1124082E000C990B6A
:101A6000C0979A01280F391FEECFCE01DFCF3093F8
:101A7000BF042093BE042115310511F02093050108
:101A800088818F3689F48A81082E000C990B9C017D
:101A9000205331093093BF042093BE04C3970597A8
:101AA00010F420930401249688818236F1F4229662
:101AB00030E020E06AE0899190ED980F9A3068F468
:101AC000629FA001639F500D1124082E000C990BFA
:101AD000C0979A01280F391FEECF3093BF0420938F
:101AE000BE04309301012093000120910001309148
:101AF0000101032E000C440B550B60E67AEE80E0EA
:101B000090E00E947C3382E0220F331F441F551F58
:101B10008A95D1F72093BA043093BB044093BC0458
:101B20005093BD04CE01DF91CF9108958EBD00008A
:101B30000DB407FEFDCF8EB508958F929F92AF92A0
:101B4000BF92CF92DF92EF92FF920F931F93CF93AA
:101B5000DF937C01D62F0E94D6044B015C0180915B
:101B60008C05811167C0CD2F81E080938C05809317
:101B70008B059FEF90938A05109289059D0F909396
:101B800088058093670580916705EE0CFF1C8E2900
:101B90008093670580916605813009F083C01092BB
:101BA00066050E94D6046B017C01809167058093D5
:101BB000BB0080918E0590918F05A0919005B0910A
:101BC0009105892B8A2B8B2BA1F00E94D604809043
:101BD0008E0590908F05A0909005B09091056C199E
:101BE0007D098E099F0986169706A806B90608F48E
:101BF00042C08091BC0083FDD8CF85EC8093BC00AF
:101C00000E94D6046B017C0180918C05813009F41F
:101C10004BC0809189058D1710F4C0918905E8E6C5
:101C2000F5E0A6E4B5E080E08C1751F191919D9329
:101C30008F5FFACF80918E0590918F05A0919005CE
:101C4000B0919105892B8A2B8B2B09F488CF0E94A8
:101C5000D60400918E0510918F052091900530914A
:101C60009105681979098A099B090617170728073A
:101C7000390708F074CF80918D050E948A09C0E071
:101C800010924505C09344058C2FDF91CF911F9191
:101C90000F91FF90EF90DF90CF90BF90AF909F900B
:101CA0008F90089585EEAACF80918E0590918F0533
:101CB000A0919005B0919105892B8A2B8B2B09F46B
:101CC000A3CF0E94D60480908E0590908F05A0909F
:101CD0009005B09091056C197D098E099F098616B3
:101CE0009706A806B90608F08FCFC5CFCF93C0914D
:101CF00069018C2F0E94ED0160E081E696E00E9470
:101D0000E90A0E94AB0967E070E08C2F90E00E9426
:101D10009D0D81E696E00E94A20A982F92959F70F1
:101D2000CAE08F709C9F800D112490E09093330542
:101D30008093320581E696E00E94A20A982F929540
:101D40009F708F709C9F800D112490E090933105BF
:101D50008093300581E696E00E94A20A982F929522
:101D600093708F709C9F800D112490E090932F05AD
:101D700080932E0581E696E00E94A20A81E696E015
:101D80000E94A20A982F92959F708F709C9F800D41
:101D9000112490E0909335058093340581E696E018
:101DA0000E94A20A982F92959F708F709C9F800D21
:101DB000112490E0909337058093360581E696E0F4
:101DC0000E94A20A982F92959F708F709C9F800D01
:101DD000112490E09093390580933805CF910895B0
:101DE000FC0101900020E9F73197AF01481B590B26
:101DF000BC0184EC95E00C943C05CF93DF930E94EA
:101E00002906EC018EE293E00E94F00E8C0F9D1FDC
:101E1000DF91CF910895CF93DF93FC0144815581E9
:101E20006081718184EC95E00E943C05EC018EE2BA
:101E300093E00E94F00E8C0F9D1FDF91CF910895CB
:101E40000C94C1310C94B93180910C018823D9F0E4
:101E500088E090E00E94220F682F70E089E00E94E5
:101E6000790489E090E00E94220F682F70E086E0FC
:101E70000E9479048AE090E00E94220F682F70E0AF
:101E800083E00C94790460E089E00E94490260E0FC
:101E900086E00E94490260E083E00C944902809150
:101EA0001D05882341F010921D058091AE0480939A
:101EB0000C010C94240F08950F931F93809131010E
:101EC00090913201892B09F44FC08091D603882369
:101ED000A9F00E942D050091D2031091D303209107
:101EE000D4033091D503601B710B820B930B693EB9
:101EF000734081059105C0F11092D6030E94CE086F
:101F000020912B0130912C018217930769F50E94D3
:101F1000C60820912D0130912E018217930721F5DB
:101F20000E94BE0820912F01309130018217930743
:101F3000D9F40E944F0F0E942D056093D203709335
:101F4000D3038093D4039093D50381E08093D60389
:101F50008AE690E00E94FD0E8091020190910301BB
:101F600090932D0580932C051F910F910895FC01EE
:101F700080819181009711F00C94143060E070E042
:101F8000CB0108952F923F924F925F926F927F9272
:101F90008F929F92AF92BF92CF92DF92EF92FF9279
:101FA0000F931F93CF93DF93CDB7DEB72C970FB668
:101FB000F894DEBF0FBECDBF0E94D604009112047C
:101FC000109113042091140430911504601B710BBF
:101FD000820B930B683B7B408105910508F4E1C1BE
:101FE0000E94D60460931204709313048093140427
:101FF0009093150480911D058823C1F180E00E9413
:10200000960D80E00E94960D80E00E94960D80E083
:102010000E94960D80E00E94960D80E00E94960D31
:1020200080E00E94960D80E00E94960D61E08AE0BB
:102030000E94490260E08AE02C960FB6F894DEBF59
:102040000FBECDBFDF91CF911F910F91FF90EF9009
:10205000DF90CF90BF90AF909F908F907F906F90C8
:102060005F904F903F902F900C94490288EB96E040
:102070000E94B70F69837A838B839C8360E08AE038
:102080000E9449021AE0812E912CA12CB12C698169
:102090007A818B819C81A50194010E947C33690126
:1020A0007A01660F771F60527E4FDB012D903C90C6
:1020B00085E090E00E94BC0B9E838D830E94900B74
:1020C0003C01C701B601A50194010E947C33660F53
:1020D000771F60527E4FFB01C080D18084E090E08A
:1020E0000E94BC0B2C010E94900B8C0169817A81AB
:1020F0008B819C8124E630E040E050E00E947C33FC
:10210000CA01B901A50194010E947C33660F771FB3
:1021100060527E4FDB01AD90BC9083E090E00E9466
:10212000BC0B7C010E94900B4D815E8146215721A2
:102130004221532170E060E024E1440F551F661FE7
:10214000771F2A95D1F78E219F218A219B21B0E00C
:10215000A0E0842B952BA62BB72B40225122C42024
:10216000D520F12CE12C3AE0CC0CDD1CEE1CFF1C40
:102170003A95D1F7C82AD92AEA2AFB2A69817A81B5
:102180008B819C8128EE33E040E050E00E947C335C
:1021900029013A0180911704882309F4E0C068946A
:1021A000F6F880911604882309F4DCC06894F7F8E7
:1021B000109197048F2D9927AA27BB278D839E8383
:1021C000AF83B8874701AA24BB24BB27AF2D9E2D20
:1021D0008D2D89879A87AB87BC87112309F4C5C0E9
:1021E0008C2D0E94960D89850E94960D882D0E9447
:1021F000960D8D810E94960D3AE0832E912CA12C94
:10220000B12CC301B201A50194010E947C33660F79
:10221000771F60527E4FDB014D905C9082E090E032
:102220000E94BC0B7C010E94900B6C0169817A8139
:102230008B819C8120E137E240E050E00E947C33BA
:10224000CA01B901A50194010E947C33660F771F72
:1022500060527E4FFB010190F081E02DFE83ED8303
:1022600081E090E00E94BC0B3C010E94900BCE20CC
:10227000DF20C420D520F12CE12C64E1CC0CDD1C46
:10228000EE1CFF1C6A95D1F7862197212D813E8196
:1022900082239323B0E0A0E07AE0880F991FAA1F61
:1022A000BB1F7A95D1F7C82AD92AEA2AFB2A698165
:1022B0007A818B819C8120EA36E841E050E00E94DF
:1022C0007C33CA01B901A50194010E947C33660FD9
:1022D000771F60527E4FDB01AD90BC9090E080E0B4
:1022E0000E94BC0B9A8389830E94900BE981FA813A
:1022F0008E239F238A219B21B0E0A0E08C299D2979
:10230000AE29BF29209117046C017D012223C1F160
:102310006894F6F8809116048823A9F16894F7F878
:102320004F2C5524662477244701AA24BB24BB27BD
:10233000AF2D9E2D8D2D89839A83AB83BC83112372
:1023400029F18C2D0E94960D89810E94960D882D71
:102350000E94960D842D0E94960D61E06CCEE8944B
:10236000F6F81FCFE894F7F823CF8D810E94960DE1
:10237000882D0E94960D89850E94960D8C2D3ACF4E
:10238000E894F6F8C7CFE894F7F8CACF842D0E94F6
:10239000960D882D0E94960D89810E94960D8C2D98
:1023A000DACF2C960FB6F894DEBF0FBECDBFDF910B
:1023B000CF911F910F91FF90EF90DF90CF90BF9042
:1023C000AF909F908F907F906F905F904F903F90D5
:1023D0002F9008950F931F93CF93DF938C01EB0100
:1023E000FC01808191810097E1F06881798161151C
:1023F0007105A9F0428153812C813D814217530719
:1024000070F00E9483348C819D81F80195838483D0
:102410001D821C82DF91CF911F910F9108950E9420
:102420008B2F88819981F801918380838A819B8198
:10243000938382838C819D81958384831982188202
:102440001B821A82E5CFCF93DF93EC0188819981BB
:10245000009711F00E948B2F198218821D821C8216
:102460001B821A82DF91CF910895FC0180819181B6
:10247000009711F00C948B2F08950F931F93CF9317
:10248000DF93EC0188819981009759F02A813B8183
:102490002617370730F081E0DF91CF911F910F9120
:1024A00008958B016F5F7F4F0E94BD33009759F0F5
:1024B000998388831B830A832C813D81232B59F7C1
:1024C000FC011082E8CF80E0E7CFEF92FF920F93FC
:1024D0001F93CF93DF93EC017B01CB010E9442302D
:1024E0000097A9F00C811D81080F191FB801CE01BA
:1024F0000E943D12882399F0288139818C819D8129
:10250000B701820F931F0E943B301D830C83CE01C5
:10251000DF91CF911F910F91FF90EF900895CE0121
:102520000E942312F4CFEF92FF920F931F93CF9349
:10253000DF936115710541F480E0DF91CF911F9128
:102540000F91FF90EF90089541155105B1F07B0177
:10255000EC010C811D81040F151FB8010E943D1272
:10256000882351F3288139818C819D81B701820FA5
:10257000931F0E9483341D830C8381E0DECFCF93B1
:10258000DF93EC01FB0144815581608171810E94E0
:102590009312811103C0CE010E942312CE01DF915C
:1025A000CF910895EF92FF920F931F93CF93DF93F4
:1025B000EC018B01CB010E9442307C01BC01CE01B9
:1025C0000E943D1281110BC0CE010E942312CE0148
:1025D000DF91CF911F910F91FF90EF900895FD82B1
:1025E000EC82B801888199810E943B30F0CFFC01D8
:1025F0001182108213821282158214820C94D212DC
:10260000EF92FF920F931F93CF93DF93EC017B0127
:102610008A01BA010E943D1281110BC0CE010E94B5
:102620002312CE01DF91CF911F910F91FF90EF9078
:1026300008951D830C83B701888199810E9483349A
:10264000F0CFEF92FF920F931F93CF93DF93CDB70D
:10265000DEB762970FB6F894DEBF0FBECDBF8C0118
:10266000CB01F8011182108213821282158214822A
:102670004AE09E012F5F3F4F7901B9010E944B3024
:10268000F70101900020E9F73197AF014E195F097A
:10269000B701C8010E94001362960FB6F894DEBF1E
:1026A0000FBECDBFDF91CF911F910F91FF90EF90A3
:1026B0000895CF93DF93EC01FB018617970749F04C
:1026C000608171816115710541F0448155810E94DD
:1026D0000013CE01DF91CF9108950E942312F9CF0C
:1026E000FC011182108213821282158214820C94D2
:1026F00059130F931F93CF93DF93CDB7DEB7629734
:102700000FB6F894DEBF0FBECDBF8C016A307105E5
:10271000A4F5CE010D960E94211368E670E0CE016B
:1027200001960E94F712BE016F5F7F4FCE010796A0
:102730000E947013BE01635F7F4FCE0107960E9417
:10274000BF12BC01C8010E947013CE0107960E94FF
:102750003512CE0101960E943512CE010D960E94CF
:102760003512C80162960FB6F894DEBF0FBECDBF1A
:10277000DF91CF911F910F9108950E942113F1CF06
:102780000F931F93CF93DF93CDB7DEB768970FB644
:10279000F894DEBF0FBECDBF8C01809133019091C4
:1027A0003401489709F048C00E94BE08BC01CE0120
:1027B00043960E9479130E94C608BC01CE010D9673
:1027C0000E9479130E94CE08BC01CE0101960E949E
:1027D0007913BE016F5F7F4FCE0107960E94701381
:1027E000BE01635F7F4FCE0107960E94BF12BE01FC
:1027F0006D5E7F4F0E94BF12BC01C8010E94701322
:10280000CE0107960E943512CE0101960E94351224
:10281000CE010D960E943512CE0143960E943512CC
:10282000C80168960FB6F894DEBF0FBECDBFDF912A
:10283000CF911F910F9108950E94BE08BC01CE0157
:1028400043960E9479130E94C608BC01CE010D96E2
:102850000E9479130E9465070E94AB078091830450
:102860006CE070E0882309F4B0CF682F70E08D3001
:1028700008F4ABCF6C507109A8CFFC011182108213
:102880001382128215821482FB0101900020E9F765
:102890003197AF01461B570B0C940013AF92BF92B8
:1028A000CF92DF92EF92FF920F931F93CF93DF931C
:1028B0007C016B015A0189012417350720F48B2D07
:1028C0005901042F182F60E373E0C7010E943D14E3
:1028D000D6011496CD91DC91AC16BD0620F50C17EF
:1028E0001D0708F4E801D601ED91FC911197EC0F5A
:1028F000FD1F108110826D917C916A0D7B1D611509
:102900007105E9F0FB0101900020E9F73197AF0173
:10291000461B570BC7010E940013F601808191816D
:10292000C80FD91F1883C701DF91CF911F910F9155
:10293000FF90EF90DF90CF90BF90AF900895C701C8
:102940000E942312EACF0F931F93CF93DF93CDB74B
:10295000DEB768970FB6F894DEBF0FBECDBF8B0110
:10296000833079F52091BC063091BD0642E050E0FD
:1029700068EB76E0CE010D960E944E14B801CE01B0
:1029800001960E947913BE016F5F7F4FCE010796BB
:102990000E947013BE01635F7F4FCE0107960E94B5
:1029A000BF12BC0188EB96E00E945913CE01079636
:1029B0000E943512CE0101960E943512CE010D966D
:1029C00044C08C3009F04EC02091BC063091BD0649
:1029D00044E050E068EB76E0CE0143960E944E144E
:1029E000B801CE010D960E94791322E030E050E04C
:1029F00040E068EB76E0CE0101960E944E14BE01E5
:102A00006F5F7F4FCE0107960E947013BE01635F18
:102A10007F4FCE0107960E94BF12BE016D5E7F4FB1
:102A20000E94BF12BC0188EB96E00E945913CE01B0
:102A300007960E943512CE0101960E943512CE01F2
:102A40000D960E943512CE0143960E94351268966B
:102A50000FB6F894DEBF0FBECDBFDF91CF911F91AF
:102A60000F910895803381F4B801CE010D960E9434
:102A7000791324E030E050E040E068EB76E0CE01EE
:102A800001960E944E147FCF803F71F3803CF9F68F
:102A9000CE010D960E94791326E030E0ECCF0E9423
:102AA0002D0560931E0570931F058093200590935C
:102AB000210580912405882309F44FC02091260523
:102AC00030912705C901880F991F21313105A1F1E6
:102AD000FC01EF5EFE4F408151814150510951830D
:102AE0004083DC01AF5EBE4F6D917C911197FC017C
:102AF000EC54FE4F40815181641775073CF4FC0192
:102B0000E857FE4F408151814D935C932031310550
:102B100009F5209131013091320121303105B9F4AC
:102B200020E820931C058F5E9E4FFC01608171811F
:102B3000809122050C94A3144091330150913401EB
:102B40004C5051095093340140933301CACF109235
:102B50001C05E9CF2930310531F708950E942D0574
:102B600060931E0570931F058093200590932105A7
:102B700080912405882309F44FC0209126053091C7
:102B80002705C901880F991F21313105A1F1FC01E9
:102B9000EF5EFE4F408151814F5F5F4F5183408315
:102BA000DC01AF5EBE4F6D917C911197FC01E8573F
:102BB000FE4F40815181461757073CF4FC01EC540D
:102BC000FE4F408151814D935C932031310509F5D1
:102BD000209131013091320121303105B9F420E8E2
:102BE00020931C058F5E9E4FFC0160817181809156
:102BF00022050C94A3144091330150913401445F99
:102C00005F4F5093340140933301CACF10921C059B
:102C1000E9CF2930310531F708954F925F926F92D5
:102C20007F928F929F92AF92BF92CF92DF92EF925C
:102C3000FF920F931F93CF93DF9300D000D000D06B
:102C4000CDB7DEB77C014B015A0180910A05811195
:102C50003AC081E080930A059EED692E93E0792EBB
:102C600028ED422E23E0522E10E000E00F5F1F4FB0
:102C7000680181E0C81AD1089801A601B401CE010B
:102C800001960E944E14CE0101960E94B70FD30107
:102C90006D933D01CE0101960E9435129801A60167
:102CA000B501CE0101960E944E14CE0101960E94FC
:102CB000B70FF20161932F01CE0101960E943512E8
:102CC0000630110599F69091D7038EEDC82E83E05A
:102CD000D82EE8EDF3E08601A801D8018C919A3056
:102CE00008F04DC08F5F8C930F5F1F4FDA018C91FE
:102CF0008A3019F4D80111971C923196B3E0043E42
:102D00001B0751F79F5F943109F43FC09093D7039D
:102D100060E373E0C7010E943D14FE0131965F013C
:102D2000D6018D916D014AE0B50190E00E944B30D3
:102D3000F50101900020E9F73197AF014A195B09CD
:102D4000B501C7010E9493120C151D0549F7C70173
:102D500026960FB6F894DEBF0FBECDBFDF91CF91A0
:102D60001F910F91FF90EF90DF90CF90BF90AF90A9
:102D70009F908F907F906F905F904F9008952081EB
:102D8000281709F4B1CF8F5FAECF1092D7031092FE
:102D90000A05BECFCF92DF92EF92FF920F931F935F
:102DA000CF93DF93CDB7DEB72C970FB6F894DEBF85
:102DB0000FBECDBF8C0161E373E0CE0107960E9488
:102DC0003D1422E030E050E040E003301105A9F06E
:102DD00024E030E042E050E00C30110571F026E0D4
:102DE00030E00033110539F0003F110581F52091E5
:102DF000BC063091BD0644E050E068EB76E0CE01C1
:102E000001960E944E14BE016F5F7F4FCE01079660
:102E10000E94EA11CE0101960E943512CE0107965A
:102E20000E94B70F6B01CE0107960E943512C601B2
:102E30002C960FB6F894DEBF0FBECDBFDF91CF91B9
:102E40001F910F91FF90EF90DF90CF900895003C7D
:102E5000110521F72091BC063091BD0646E050E0F7
:102E6000CCCF8F929F92AF92BF92CF92DF92EF9290
:102E7000FF920F931F93CF93DF93CDB7DEB7629787
:102E80000FB6F894DEBF0FBECDBF8C016A017B0187
:102E90008091F603811111C00E942D05645B7B4F68
:102EA0008F4F9F4F6093F2037093F3038093F4036B
:102EB0009093F50381E08093F6038091EA038111FA
:102EC00009C060E373E084EE93E00E943D1481E06A
:102ED0008093EA0368E070E084EE93E00E943D1284
:102EE0000E942D058090F2039090F303A090F403CC
:102EF000B090F503681979098A099B09693E734006
:102F00008105910508F4F4C00E942D056093F20339
:102F10007093F3038093F4039093F50320E030E083
:102F2000A901C701B6010E94353320E030E040E03E
:102F30005FE387FD14C0C701B6010E9421320E94E1
:102F4000FF3216161706180619060CF120E030E0BD
:102F500040E05FE3C701B6010E94213213C0C70100
:102F6000B6010E9420320E94FF321616170618067C
:102F700019066CF020E030E040E05FE3C701B601E5
:102F80000E9420320E94FF327195619571098091F3
:102F9000350190913601892B09F083C0693E83E0A9
:102FA000780764F1CE010D960E94211361EA70E06A
:102FB000CE0101960E94F712BE016F5F7F4FCE01D6
:102FC00007960E947013BE01635F7F4FCE01079684
:102FD0000E94BF126FE970E00E946512BC0184EE8E
:102FE00093E00E945913CE0107960E943512CE013C
:102FF00001960E943512CE010D9678C0CE010D9635
:1030000065367105CCF00E9421136CE970E0CE01A9
:1030100001960E94F712BE016F5F7F4FCE010796A7
:103020000E947013BE01635F7F4FCE0107960E941E
:10303000BF126AE970E0D0CF6B307105CCF00E940E
:10304000211366E970E0CE0101960E94F712BE01DD
:103050006F5F7F4FCE0107960E947013BE01635FC2
:103060007F4FCE0107960E94BF1264E970E0B4CF93
:103070000E9421136FE870E0CE0101960E94F712C2
:10308000BE016F5F7F4FCE0107960E947013BE0195
:10309000635F7F4FCE0107960E94BF126DE870E01C
:1030A0009BCFCB016AE070E00E944633CE01693EBF
:1030B00023E07207B4F101960E942113BE016F5FF5
:1030C0007F4FCE0107960E9470136AE870E0CE0130
:1030D00007960E946512BC0184EE93E00E9459138A
:1030E000CE0107960E943512CE0101960E9435123C
:1030F00064EE73E0C8010E947013C80162960FB6B7
:10310000F894DEBF0FBECDBFDF91CF911F910F911D
:10311000FF90EF90DF90CF90BF90AF909F908F90F7
:1031200008950D9665367105CCF00E94211368E86C
:1031300070E0CE0101960E94F712BE016F5F7F4FD3
:10314000CE0107960E947013BE01635F7F4FCE01D0
:1031500007960E94BF1265E870E03ECF6B307105A4
:10316000CCF00E94211362E870E0CE0101960E942B
:10317000F712BE016F5F7F4FCE0107960E9470135A
:10318000BE01635F7F4FCE0107960E94BF126FE7BB
:1031900070E022CF0E9421136BE770E0CE01019610
:1031A0000E94F712BE016F5F7F4FCE0107960E940B
:1031B0007013BE01635F7F4FCE0107960E94BF125E
:1031C00068E770E009CF85ED8093BC0080918E05A3
:1031D00090918F05A0919005B09191050796A11D42
:1031E000B11D23E0B695A795979587952A95D1F7B8
:1031F0002091BC0024FD03C010928C0508954091DD
:103200008E0550918F056091900570919105452B29
:10321000462B472B69F30097A105B10541F02AE23F
:103220002A95F1F700C00197A109B109E1CF80917A
:103230008D050C948A091F920F920FB60F921124DC
:103240002F933F938F939F93AF93BF9380913C05B0
:1032500090913D05A0913E05B0913F0530913B0511
:1032600023E0230F2D3758F50196A11DB11D2093A2
:103270003B0580933C0590933D05A0933E05B0939C
:103280003F058091400590914105A0914205B09184
:1032900043050196A11DB11D809340059093410502
:1032A000A0934205B0934305BF91AF919F918F9139
:1032B0003F912F910F900FBE0F901F90189526E809
:1032C000230F0296A11DB11DD2CF1F920F920FB6F0
:1032D0000F9211242F933F934F935F936F937F939C
:1032E0008F939F93AF93BF93EF93FF9384EC95E0FD
:1032F0000E94BA05FF91EF91BF91AF919F918F917D
:103300007F916F915F914F913F912F910F900FBEE1
:103310000F901F9018951F920F920FB60F921124C5
:103320002F938F939F93EF93FF93E091D405F091A8
:10333000D5058081E091DA05F091DB0582FD1BC0A7
:1033400090818091DD058F5F8F732091DE0582175C
:1033500041F0E091DD05F0E0EC53FA4F958F80935A
:10336000DD05FF91EF919F918F912F910F900FBEEF
:103370000F901F9018958081F4CF1F920F920FB677
:103380000F9211242F933F938F939F93AF93BF93EB
:10339000EF93FF938091B6059091B705A091B80582
:1033A000B091B9050097A105B10531F130918C04B8
:1033B000E0918D04F0918E0420812327208318163C
:1033C00019061A061B061CF40197A109B10980937E
:1033D000B6059093B705A093B805B093B905FF91D2
:1033E000EF91BF91AF919F918F913F912F910F904E
:1033F0000FBE0F901F901895209170002D7F209385
:10340000700020918C04E0918D04F0918E04308145
:10341000209523232083DBCF1F920F920FB60F92AC
:1034200011248F939F93AF93BF93EF93FF9380915A
:10343000BA059091BB05A091BC05B091BD05892B43
:103440008A2B8B2BA1F190918F04E0919004F09145
:1034500091048081892780838091BA059091BB0572
:10346000A091BC05B091BD05181619061A061B06D9
:103470009CF48091BA059091BB05A091BC05B091D8
:10348000BD050197A109B1098093BA059093BB05C9
:10349000A093BC05B093BD05FF91EF91BF91AF9193
:1034A0009F918F910F900FBE0F901F901895809154
:1034B0006F008D7F80936F0080918F04E091900466
:1034C000F09191049081809589238083E5CF1F92AC
:1034D0000F920FB60F9211248F939F93AF93BF93C8
:1034E000EF93FF938091BE059091BF05A091C00519
:1034F000B091C105892B8A2B8B2BA1F1909192045D
:10350000E0919304F09194048081892780838091D5
:10351000BE059091BF05A091C005B091C1051816D8
:1035200019061A061B069CF48091BE059091BF05F2
:10353000A091C005B091C1050197A109B10980937F
:10354000BE059093BF05A093C005B093C105FF9140
:10355000EF91BF91AF919F918F910F900FBE0F9000
:103560001F90189580916E008D7F80936E008091E2
:103570009204E0919304F0919404908180958923C2
:103580008083E5CF1F920F920FB60F9211242F93D5
:103590003F934F935F936F937F938F939F93AF93DB
:1035A000BF93EF93FF938091B900887F803609F431
:1035B0004AC0F0F5883209F4A7C018F5803109F443
:1035C0009BC0B8F4882309F4F9C0883009F494C08A
:1035D000FF91EF91BF91AF919F918F917F916F91EB
:1035E0005F914F913F912F910F900FBE0F901F90C1
:1035F0001895883109F488C0803251F780938A0584
:1036000014C0803409F49DC040F48033B9F388338A
:10361000F9F680938A0585ECB0C0803509F485C041
:10362000883509F496C0883499F60E94E318D0CF03
:10363000883909F48CC038F5883729F050F4883679
:1036400011F0803729F683E080938C0510926E0488
:1036500057C0883809F47BC0803919F0803809F0E8
:10366000B7CF80916E04803208F071C0E0916E0493
:1036700081E08E0F80936E048091BB00F0E0E25BEE
:10368000FB4F80833DC0803B39F0E0F4803A09F481
:1036900079C0883A09F09CCF84E080938C05109221
:1036A0004D0410924C04E0918A04F0918B0409952A
:1036B00080914C0481110FC081E080934C041092E2
:1036C0002C0409C0803C09F4A6CF883C09F4A3CFA0
:1036D000883B09F07DCFE0914D0481E08E0F80930F
:1036E0004D04F0E0E45DFB4F80818093BB0090913E
:1036F0004D0480914C0429C0809167058093BB00E4
:1037000085EC8093BC0064CF9091890580918805F9
:10371000981758F5E091890581E08E0F809389050F
:10372000F0E0E859FA4F8081E9CFE091890581E026
:103730008E0F809389058091BB00F0E0E859FA4F25
:10374000808390918905809188059817C8F285E853
:10375000D8CFE091890581E08E0F80938905809113
:10376000BB00F0E0E859FA4F808380918B0581110E
:103770005CCF81E08093660584EA8093BC00109260
:103780008C0526CF85EC8093BC0010928C0580912F
:103790006E04803230F4E0916E04F0E0E25BFB4FA7
:1037A000108260916E0470E0E0918804F0918904C9
:1037B0008EE494E0099510926E040ACF10928A0567
:1037C00034CFCF93DF93EC01862F6F87188A91E077
:1037D000998B9A8B1C8A1B8A198218821A821D8ADD
:1037E0001E8A1F8A188E44E150E060E070E04B832F
:1037F0005C836D837E834AEF50E060E070E04F832E
:10380000588769877A8748EE53E060E070E04B871D
:103810005C876D877E8760E00E94770288898111CE
:1038200006C061E08F85DF91CF910C944902DF9152
:10383000CF910895E4ECF5E01382128288EE93E0D4
:10384000A0E0B0E084839583A683B7832EE033E0C5
:103850003183208325EC30E03587248724EC30E069
:103860003787268720EC30E0318B208B21EC30E04D
:10387000338B228B22EC30E0358B248B26EC30E02E
:10388000378B268B118E128E138E148EE1E6F6E0A6
:103890001382128284839583A683B78380E293E0A8
:1038A0009183808363E373E082ED96E00E943D1490
:1038B00060E081E10E947702ECEDF1E0E491A4EC9C
:1038C000B6E0EC93E8ECF1E0E491F0E0EE0FFF1FDE
:1038D000E355FE4F8591949112969C938E93119788
:1038E0001B961C921B971D961C921D971C961C9252
:1038F0001C971A961C921A9719961C92199718964B
:103900001C92189717961C92179716961C9216974A
:1039100015961C92159714961C92149713961C9248
:1039200060E373E08EEB96E00E943D146AE373E07F
:1039300088EB96E00E943D146EE08FE996E00E94CD
:10394000E11B60E186E896E00E94E11B6FE08DE6F6
:1039500096E00C94E11BCF93DF93CDB7DEB7C1584F
:10396000D1090FB6F894DEBF0FBECDBF789484B5F1
:10397000826084BD84B5816084BD85B5826085BD6B
:1039800085B5816085BD80916E00816080936E00F9
:1039900010928100809181008260809381008091EB
:1039A000810081608093810080918000816080939C
:1039B00080008091B10084608093B1008091B0005C
:1039C00081608093B00080917A00846080937A0057
:1039D00080917A00826080937A0080917A00816081
:1039E00080937A0080917A00806880937A001092A8
:1039F000C10068E070E088EB96E00E943D121092F2
:103A0000450510924405109293051092B5050E9449
:103A10006C0989E395E090938B0480938A048AE390
:103A200095E09093890480938804E091D405F09107
:103A3000D50582E08083E091D005F091D105108218
:103A4000E091D205F091D30580E180831092DC05EE
:103A5000E091D805F091D90586E08083E091D60504
:103A6000F091D705808180618083E091D605F09147
:103A7000D705808188608083E091D605F091D705D5
:103A8000808180688083E091D605F091D7058081A0
:103A90008F7D808381E090E00E94220F8C3009F4BA
:103AA0008BC488E190E0909334018093330190E0DF
:103AB00080E00E94220F882309F481C481E0809372
:103AC0000C0182E090E00E94220F8F3F09F07AC43F
:103AD00010922C0110922B0183E090E00E94220FA3
:103AE0008F3F09F075C410922E0110922D0184E0D1
:103AF00090E00E94220F8F3F09F070C410923001B5
:103B000010922F0186E090E00E94220F8F3F09F073
:103B10006BC4109232011092310187E090E00E9454
:103B2000220F8F3F09F066C4109219058BE090E0D8
:103B30000E94220F8F3F09F064C410923601109248
:103B400035018CE090E00E94B931AB968FAFAB9716
:103B50008DE090E00E94B931AC968FAFAC978CE0CD
:103B600090E00E94220F8F3F09F051C4109238015B
:103B7000109237018EE090E00E94220F8F3F29F0D3
:103B800090E090932401809323018FE090E00E94C5
:103B9000220F8F3F29F090E090933A0180933901F2
:103BA00080E190E00E94220F8F3F29F090E09093F7
:103BB0003C0180933B0161E089E00E94770261E073
:103BC00086E00E94770261E083E00E9477028091A4
:103BD0009504833008F093C492E09093C205E82FD7
:103BE000F0E0ED55FF4FE491E093C3058F5F8093C4
:103BF0009504E13009F435C408F412C4E23009F444
:103C000057C480910201909103010E94140D90937A
:103C100003018093020161E08AE00E94770261E083
:103C200088E00E94770260E088E00E94490262E03A
:103C300088E00E94770288E00E94200221E0892B20
:103C400009F020E0209397041FB7F8948091960420
:103C5000811127C0E1ECF1E08491E5EDF1E0949170
:103C6000E82FF0E0EE0FFF1FEB57FE4FA591B49148
:103C7000EC91E92321F461E08AE00E94490261E0CD
:103C80008AE00E9477028CB580618CBD8CB580641F
:103C90008CBD61E08DE00E94770261E08BE00E94C4
:103CA0007702809196048F5F809396041FBF809166
:103CB0009704882309F427C489E791E00E941C0136
:103CC00062E08EE00E94770262E080E10E9477026B
:103CD00062E08FE00E94770261E082E00E9477025A
:103CE00004E110E020E030E00093A2061093A30668
:103CF0002093A4063093A5064EE150E060E070E00A
:103D00004093A6065093A7066093A8067093A90651
:103D100080ED97E0A0E0B0E08093AA069093AB0618
:103D2000A093AC06B093AD060093890610938A0663
:103D300020938B0630938C0640938D0650938E060D
:103D400060938F06709390068093910690939206ED
:103D5000A0939306B0939406009370061093710697
:103D60002093720630937306409374065093750641
:103D70006093760670937706809378069093790621
:103D8000A0937A06B0937B06E090D106E11004C0C0
:103D90000E94B4018111B9C31092CF061092D106CE
:103DA0001092D0068AE391E00E94FD0E1092CF0699
:103DB0001092D1061092D0061092CE061092CD0627
:103DC0001092CC061092CB061092CA061092C90629
:103DD0001092C8061092C7068091CC04882309F47B
:103DE000F6C30E94B40185E50E948A0106EA14E048
:103DF000D8018D918D010E948A01B4E00E3A1B0713
:103E0000B9F78EEB0E948A010AE914E0B3EAEB2EBF
:103E1000B4E0FB2E0E944401F80181938F01EE165D
:103E2000FF06C1F760919A0470919B04072E000C65
:103E3000880B990B0E949C3020E030E040E85DE365
:103E40000E94FB300E94FF327093990460939804A3
:103E50008BE091E00E94290625E030E042E050E04E
:103E600062ED76E0CE0101963C010E944E1422E004
:103E700030E041E050E062ED76E0CE018C599F4F9A
:103E80000E944E14BE016C597F4FCE018D5B9F4F37
:103E90000E94701341E050E069E573E0CE018D5B54
:103EA0009F4F0E949312811105C0CE018D5B9F4FE1
:103EB0000E942312B301CE018D5B9F4F0E94BF125F
:103EC0000E940B0FCE018D5B9F4F0E943512CE01D9
:103ED0008C599F4F0E943512C3010E94351281E414
:103EE00093E00E94F00E8EE293E00E94F00E80E0DC
:103EF00091E00E94FD0E8091020190910301909348
:103F00002D0580932C050E94140D6FEF70E089E061
:103F10000E94790468EE73E080E090E00E94FB0468
:103F200070E060E089E00E9479046FEF70E086E065
:103F30000E94790468EE73E080E090E00E94FB0448
:103F400070E060E086E00E9479046FEF70E083E04B
:103F50000E94790468EE73E080E090E00E94FB0428
:103F600069EF70E0C3010E94F71262EF70E0CE01CA
:103F700007960E94F7126BEE70E0CE010D960E943C
:103F8000F71264EE70E0CE0143960E94F7126DEDD9
:103F900070E0CE0149960E94F71266ED70E0CE0106
:103FA0004F960E94F7126FEC70E0CE0185960E944A
:103FB000F71268EC70E0CE018B960E94F71261EC6C
:103FC00070E0CE01C1960E94F7126AEB70E0CE015C
:103FD000C7960E94F71260E373E0CE01CD960E946F
:103FE0003D1462ED76E0CE01CD960E94591382EB2E
:103FF00090E00E942906C0909804D09099040D2C5E
:10400000000CEE08FF0803E410E00C0F1D1F005E1B
:104010001F4FF7FEE1C26DE284EC95E00E94DC05E3
:1040200022273327A9012C193D094E095F09A496BF
:104030001FAEA497AAE0CA2ED12CE12CF12CCA0104
:10404000B901A70196010E945A33605DD8016E93B1
:104050008D01211531054105510589F7011511051E
:1040600019F0C8010E94F00E8EE293E00E94F00E5B
:104070000E942D056B017C01F8EECF0EF3E0DF1EF0
:10408000E11CF11C00E01FEF74EFA72EBB24B394DA
:10409000E6E09E2E8FE00E942002892B09F401E0C9
:1040A00080E10E942002892B09F400E00E942D0586
:1040B0006C197D098E099F0995010B2C000C440B8E
:1040C000550B261737074807590708F0B0C20E945A
:1040D0002D056B017C01011101C01F5F1A3009F42D
:1040E00095C21B3009F096C210916901812F0E9480
:1040F000ED0181E190E00E94180B0E94AB0962E0A3
:1041000070E0812F90E00E949D0D81E696E00E9474
:10411000A20A855000E0883320F082E5809369018F
:1041200001E010916901812F0E94ED0188E290E089
:104130000E94180B0E94AB0961E070E0812F90E0B3
:104140000E949D0D81E696E00E94A20A18161906AB
:104150000CF470C2013009F06DC286EA90E00E9452
:10416000FD0E05E010E048EE53E060E070E088EE00
:1041700093E00E94B30260ED77E080E090E00E945F
:10418000FB040150110979F78E010D5B1F4F06509A
:104190001109C8010E94351260167106C1F780919D
:1041A000190581110E94240F0E94760E009132059C
:1041B000109133050E942D056B017C0181E08093F5
:1041C0003A05112780913205909133050817190798
:1041D00099F40E94760E0E942D056C197D098E09B6
:1041E0009F09693B7B408105910560F38EE191E079
:1041F0000E94FD0E10923A0580903805F090390526
:104200009090360510913705A09034053091350512
:10421000B090320550913305C09030057091310552
:10422000D0902E05E82C092D2A2D4B2D6C2D8D2D8F
:1042300090912F050E9489062A2D4B2D6C2D8D2DD6
:104240000E941D0B48EE442E43E0542E54E0252ED0
:10425000312C8091B004811107C00E94CE08809358
:10426000AF0481E08093B00480912405811129C0BE
:104270000091AF0410E00E94CE080817190709F159
:104280000E94CE088093AF040E94CE08209139018D
:1042900030913A018217930749F481E080931D051C
:1042A00080910C018093AE0410920C010E94CE0804
:1042B00020913B0130913C018217930711F40E9439
:1042C0004F0F0E942D0520E63AEE40E050E00E949C
:1042D0005A33672B682B692B21F580913A05882387
:1042E00001F10E94760EE0903805F09039050091BA
:1042F00036051091370520913405309135054091F0
:1043000032055091330560913005709131058091EF
:104310002E0590912F050E94890680E891E00E9469
:10432000FD0E00912C0510912D05D8018C9188234C
:1043300009F498C20E942D05C090C404D090C50411
:10434000E090C604F090C7046C197D098E099F099E
:10435000C090C004D090C104E090C204F090C304A7
:10436000C616D706E806F90608F07CC20E942D059D
:104370004B015C018092C4049092C504A092C604D3
:10438000B092C704680130E020E04AE0F801F19003
:104390008F0180ED8F0D8A3008F09BC1429FC001D4
:1043A000439F900D11242F2DFF0C330B2053310907
:1043B000280F391F6F01EACF8CE090E074CB109288
:1043C0000C017FCB90E090932C0180932B0184CB48
:1043D00090E090932E0180932D0189CB90E09093F3
:1043E000300180932F018ECB90E090933201809327
:1043F000310193CB91E0811101C090E090931905B8
:1044000095CB90E090933601809335019ACBAC9692
:104410008EAD9FADAC979093380180933701AACBB6
:1044200014BC15BC84B5826084BD85B5816085BD32
:104430008091C20590E0FC01E954FE4FE491F0E068
:10444000EE0FFF1FE157FE4F2591349130939404F6
:1044500020939304FC01E553FE4FE491E093920412
:10446000D0CB1092800010928100809181008860F2
:104470008093810080918100816080938100809190
:10448000C20590E0FC01E954FE4FE491F0E0EE0F2C
:10449000FF1FE157FE4F25913491309391042093F3
:1044A0009004FC01E553FE4FE491E0938F04A9CB07
:1044B0001092B0001092B1008091B00082608093A1
:1044C000B0008091B10081608093B1008091C205FD
:1044D00090E0FC01E954FE4FE491F0E0EE0FFF1F85
:1044E000E157FE4F2591349130938E0420938D0433
:1044F000FC01E553FE4FE491E0938C0482CB8FEFF7
:104500008093C3057ECB89E5D8CB80EF0E948A01DA
:10451000D12CFF24F39401E00E941F01182F0E9468
:104520001F011130F9F48130E1F5013408F434CC85
:10453000E092CF06E11003C081E08093D106809124
:10454000C706882309F428CCA7ECB6E0E6EAF4E035
:104550008D91819334E0EE3AF307D1F781E08093B7
:10456000CC043ACCED2DF0E0181311C08091CF06A9
:104570000817A8F4DF01AC53B94F13968C918F2123
:1045800081F410E0093010F40093D006E02EEC53D3
:10459000F94F83819F2D9095892383830AC08013CF
:1045A000F0CFED2DF0E0EC53F94F83818F29838319
:1045B00011E0812F0E945A010F5FFF0C19F4D39470
:1045C000FF24F39427E02D1508F0A6CFAECF10926C
:1045D0009904109298043CCCA7019601A4961FAEB2
:1045E000A497FAE0CF2ED12CE12CF12CCA01B9010D
:1045F000A70196010E945A33605DF80162938F0112
:10460000211531054105510589F728CD68EBA62E06
:104610006BE0B62EB301199D600D711D112488EB5E
:1046200096E00E94591388EB96E00E940B0F0E94BF
:10463000C20F30CD812F0E94ED018FE090E00E94EB
:10464000180B88E090E00E94180B0E94AB09812FA4
:104650000E94ED0187E390E00E94180B8CE190E04E
:104660000E94180B0E94AB09812F0E94ED0187E286
:1046700090E00E94180B90E080E00E94180B0E94CE
:10468000AB09812F0E94ED0187E290E00E94180B98
:1046900081E190E00E94180B0E94AB09812F0E94DB
:1046A000ED018FE090E00E94180B90E080E00E9406
:1046B000180B0E94AB09812F0E94ED018EE090E063
:1046C0000E94180B90E080E00E94180B0E94AB093A
:1046D0005BCD3093BF042093BE046091BA04709107
:1046E000BB048091BC049091BD042115310501F1FA
:1046F000032E000C440B550B0E947C332093C00406
:104700003093C1044093C2045093C304EFE9EF0D0A
:10471000E730A0F40E2E000CFF0BEF56FC4D0C946E
:104720009B33B426B626A826AC26AE26B026B226E3
:104730002091050130E050E040E0DECF1092B90456
:10474000D60111968C91833241F48091B9048F5F28
:104750008093B90486010E5F1F4FF80180818E326D
:10476000F1F4C090C004D090C104E090C204F09075
:10477000C304C701B60122E030E040E050E00E94EF
:104780007C33C20ED31EE41EF51EC092C004D0922C
:10479000C104E092C204F092C3040F5F1F4FD8011E
:1047A0008C9180538A3008F0E3C28093B8040F5F85
:1047B0001F4FF80180818C3211F40F5F1F4FE09181
:1047C000B904EE2309F44EC0C090C004D090C104D7
:1047D000E090C204F090C3048091B8048450990B17
:1047E0004CE0489F9001499F300D1124E20FF32FB8
:1047F000F11DEE0FFF1FE050FE4FB701A6018081B3
:1048000091810E94B3020E942D05681979098A09D5
:104810009B09C616D706E806F90620F50E942D0565
:104820006093C4047093C5048093C6049093C70436
:104830008091C305813009F4A0C2823009F4A3C27B
:10484000811105C080916E008D7F80936E0060E0C5
:104850008091C2050E94490282E591E00E94FD0E0E
:1048600010E000E010932D0500932C050E942D050B
:10487000009128051091290520912A0530912B05DA
:10488000601B710B820B930B6630710581059105DE
:10489000E8F080910C0181117CC270E060E089E059
:1048A0000E94790470E060E086E00E94790470E084
:1048B00060E083E00E9479040E942D056093280542
:1048C0007093290580932A0590932B0580912605E6
:1048D00090912705892B21F0809125058111F7C141
:1048E000809124058111F3C18091DF0481110DC0F5
:1048F0000E942D056093DB047093DC048093DD043B
:104900009093DE0481E08093DF048091D3048111D1
:104910000DC00E942D056093CF047093D004809346
:10492000D1049093D20481E08093D3040E942D059A
:104930000091DB041091DC042091DD043091DE0451
:10494000601B710B820B930B009106011091070104
:104950002091080130910901061717072807390728
:1049600008F04DC00E942D056093DB047093DC04B9
:104970008093DD049093DE048091CD049091CE0469
:10498000009709F073C281E090E09093270580932F
:10499000260528E833E140E050E0209306013093FB
:1049A000070140930801509309018091CD04909133
:1049B000CE048230910581F41092270510922605CD
:1049C00020E63AEE40E050E02093060130930701E4
:1049D00040930801509309010196833091050CF032
:1049E00063C29093CE048093CD04809125058823E3
:1049F00021F01092270510922605109225050E949D
:104A00002D050091DB041091DC042091DD04309130
:104A1000DE04601B710B820B930B603D77408105B8
:104A2000910508F02BC30E942D050091CF04109131
:104A3000D0042091D1043091D204601B710B820B01
:104A4000930B653671058105910508F440C10E94FC
:104A50002D056093CF047093D0048093D10490937C
:104A6000D20480912605909127052091CC04222321
:104A700009F41FC2892BA9F5CE018D5B9F4F0E94BF
:104A8000C01381E02091350130913601232B09F4C8
:104A900080E00E94430CAB01BC01CE0101960E9454
:104AA0003117AE014D5B5F4FBE016F5F7F4FCE018F
:104AB0008C599F4F0E940D16BE016C597F4F88EB99
:104AC00096E00E94EA11CE018C599F4F0E94351248
:104AD000CE0101960E943512CE018D5B9F4F0E9440
:104AE00035128091260590912705019709F06EC037
:104AF0000E94A408B2010E944633BC01CE01805935
:104B00009F4F0E9479130E94AE08BC01CE018659C6
:104B10009F4F0E9479130E94B608BC01CE018D5BA5
:104B20009F4F0E947913BE016D5B7F4FCE018C5960
:104B30009F4F0E947013BE0166597F4FCE018C5962
:104B40009F4F0E94BF12BE0160597F4F0E94BF124B
:104B5000BC01CE018A589F4F0E947013CE0101966E
:104B60000E94C013AE014A585F4FBE016F5F7F4F76
:104B7000CE0184589F4F0E940D16BE0164587F4F8E
:104B800088EB96E00E94EA11CE0184589F4F0E9464
:104B90003512CE0101960E943512CE018A589F4FE0
:104BA0000E943512CE018C599F4F0E943512CE01C2
:104BB0008D5B9F4F0E943512CE0186599F4F0E94F8
:104BC0003512CE0180599F4F0E94351280912605E3
:104BD00090912705049709F07AC081E02091350172
:104BE00030913601232B09F480E00E94430CAB0185
:104BF000BC01CE018A589F4F0E9431170E94A40821
:104C0000B2010E944633BC01CE0186599F4F0E94DB
:104C100079130E94AE08BC01CE018C599F4F0E94AF
:104C200079130E94B608BC01CE0101960E94791347
:104C3000BE016F5F7F4FCE018D5B9F4F0E9470134F
:104C4000BE016C597F4FCE018D5B9F4F0E94BF12FA
:104C5000BE0166597F4F0E94BF12BC01CE01805930
:104C60009F4F0E947013AE014A585F4FBE016059BA
:104C70007F4FCE0184589F4F0E940D16BE0164588D
:104C80007F4F88EB96E00E94EA11CE0184589F4F37
:104C90000E943512CE0180599F4F0E943512CE01DD
:104CA0008D5B9F4F0E943512CE0101960E943512F6
:104CB000CE018C599F4F0E943512CE0186599F4FCD
:104CC0000E943512CE018A589F4F0E9435120E94D1
:104CD000C20F8FE996E00E94D60886E896E00E940F
:104CE000D6088DE696E00E94D608809124058111B1
:104CF000C8C1109223051092220580919F069091C1
:104D0000A006181619060CF043C381E08093250510
:104D100010922D0510922C0544E650E060E070E002
:104D200088EE93E00E94B30280911D05882309F468
:104D3000D8C10E944F0F80E090E0892B09F489CA06
:104D40000E94A605882309F47DCA0E9400007ACA41
:104D500081E08093B904F4CC83E0FBCF85E0F9CF08
:104D600086E0F7CF88E0F5CF8AE0F3CF8CE0F1CF93
:104D7000809104018093B8041CCD80916F008D7FD9
:104D800080936F0064CD809170008D7F8093700060
:104D90005ECD8091190581118FCD0091CA041091CB
:104DA000CB04C801880F991F800F911FFC01EE0FE3
:104DB000FF1FEE59FD4F2081318160910E017091EE
:104DC0000F01620F731F70930F0160930E01FC01BE
:104DD000EE0FFF1FEC59FD4FC080D18020911105CF
:104DE00030911205C20ED31ED0921205C092110549
:104DF000880F991FFC01EA59FD4FE080F1808091F6
:104E00000F0590911005E80EF91EF0921005E09242
:104E10000F0589E00E947904B60186E00E947904BA
:104E2000B70183E00E9479048091C8049091C9047D
:104E300001969093C9048093C8048F3F910551F463
:104E40000F5F1F4F1093CB040093CA041092C90444
:104E50001092C8048091CA049091CB0406970CF478
:104E60002BCD1092CB041092CA0426CD019709F0E5
:104E70009CCD309227052092260588E893E1A0E09A
:104E8000B0E08093060190930701A0930801B093CE
:104E900009018091CC04811192C782E090E0909347
:104EA000CE048093CD0481CD1092CE041092CD0417
:104EB0009CCD892B09F06EC0CE018A589F4F0E946D
:104EC000C0130E94A408B2010E944633BC01CE0167
:104ED00086599F4F0E9479130E94AE08BC01CE01F3
:104EE0008C599F4F0E9479130E94B608BC01CE01D5
:104EF00001960E947913BE016F5F7F4FCE018D5BDB
:104F00009F4F0E947013BE016C597F4FCE018D5B85
:104F10009F4F0E94BF12BE0166597F4F0E94BF1271
:104F2000BC01CE0180599F4F0E947013AE014A58B8
:104F30005F4FBE0160597F4FCE0184589F4F0E9442
:104F40000D16BE0164587F4F88EB96E00E94EA116F
:104F5000CE0184589F4F0E943512CE0180599F4F39
:104F60000E943512CE018D5B9F4F0E943512CE01FB
:104F700001960E943512CE018C599F4F0E94351226
:104F8000CE0186599F4F0E943512CE018A589F4FFD
:104F90000E9435128091260590912705019709F00E
:104FA00096CE0E94A408B2010E944633BC01CE01F5
:104FB00080599F4F0E9479130E94AE08BC01CE0118
:104FC00086599F4F0E9479130E94B608BC01CE01FA
:104FD0008D5B9F4F0E947913BE016D5B7F4FCE01A9
:104FE0008C599F4F0E947013BE0166597F4FCE01AE
:104FF0008C599F4F0E94BF12BE0160597F4F0E9483
:10500000BF12BC01CE018A589F4F0E947013CE017F
:1050100001960E94C013AE014A585F4FBE016F5FF8
:105020007F4FCE0184589F4F0E940D16BE016458D9
:105030007F4F88EB96E00E94EA11CE0184589F4F83
:105040000E943512CE0101960E943512CE018A5877
:105050009F4F0E943512CE018C599F4F0E943512EE
:10506000CE018D5B9F4F0E943512CE0186599F4F16
:105070000E943512CE0180599F4F27CE10920A050B
:1050800026CE0E942D0500911E0510911F0520912E
:10509000200530912105601B710B820B930B61364B
:1050A0007A4E8105910508F428CE10922405E091EE
:1050B0002605F0912705EE0FFF1FE252FD4F80817C
:1050C00091819093270580932605880F991FFC01F5
:1050D000E35CFE4F808191819093230580932205AC
:1050E0000CCE0E942D0560931E0570931F058093C2
:1050F0002005909321058091260590912705019622
:105100008630910509F465C09093270580932605A4
:1051100020912605309127058901000F111FF80104
:10512000E35CFE4F8081918190932305809322055B
:10513000D9011197FD01EE0FFF1FEE54FD4F608165
:1051400071816115710509F411C1AB01415051091B
:10515000FA01EE0FFF1FEA57FD4F0190F081E02D9D
:10516000AE17BF0709F002C162307105B9F588E1D9
:10517000E0E7F1E0DE01119601900D928A95E1F7EA
:105180008091290190912A0183709927892B21F41C
:105190008DE190E09C838B83E0912701F0912801C1
:1051A0003197EE0FFF1F81E090E08C0F9D1FE80FFD
:1051B000F91F20912501309126018081918182176C
:1051C000930764F48AE090E0909327058093260586
:1051D000B2CD10922705109226059ACF1092240581
:1051E0005093270540932605452BB9F40E94A40847
:1051F0007C010E94AE088C010E94B60840912101FA
:105200005091220160911F01709120019C018091B9
:105210001D0190911E010E948906809126059091A2
:105220002705019719F5E0902901F0902A0190E3F4
:10523000E91A98EFF90A009127011091280180904E
:105240002501909026010E94BE085C010E94C608BC
:105250006C010E94CE089401A501B6010E94890646
:10526000609123018EE090E00E94200F809126053E
:10527000909127050297C1F460912B0182E090E0A4
:105280000E94200F60912D0183E090E00E94200F8A
:1052900060912F0184E090E00E94200F6091310125
:1052A00086E090E00E94200F8091260590912705CE
:1052B000039731F46091330181E090E00E94200F68
:1052C0008091260590912705049701F5609135019D
:1052D0008BE090E00E94200F109137018CE090E06D
:1052E0000E94B931811729F0612F8CE090E00E9473
:1052F000C131109138018DE090E00E94B93118174A
:1053000029F0612F8DE090E00E94C1318091260547
:1053100090912705059761F4609139018FE090E045
:105320000E94200F60913B0180E190E00E94200FDD
:105330000E94A4087C010E94AE08082F0E94B608B3
:10534000C82E0E94BE08D82E0E94C608182F0E94A0
:10535000CE08382FC701B2010E944633E82E2C2D0B
:105360004D2D612F832F0E941D0BE5CCA9014251C9
:1053700051094230510560F0295031092230310580
:1053800038F00E94CA16F801EF5EFE4F91838083C9
:1053900080919F069091A00697FFFDC044E650E0E3
:1053A00060E070E088EE93E00E94B30280912405F3
:1053B000811151C000912605109127050E942D05ED
:1053C00060931E0570931F0580932005909321051F
:1053D000012B09F040C00E94BE08BC01C3010E941D
:1053E00079130E94C608BC01CE018D5B9F4F0E94BD
:1053F00079130E94CE08BC01CE0186599F4F0E94AE
:105400007913BE0166597F4FCE018C599F4F0E9480
:105410007013BE016D5B7F4FCE018C599F4F0E9470
:10542000BF12B3010E94BF12BC0188EB96E00E943C
:105430005913CE018C599F4F0E943512CE018659C7
:105440009F4F0E943512CE018D5B9F4F0E943512F7
:10545000C3010E943512809126059091270501977E
:1054600009F060C00E94B608909326018093250140
:105470000E94AE0890932801809327010E94A408FF
:10548000B2010E944633BC0190932A018093290106
:105490008091230190912401892B09F09DC1CE01B7
:1054A00001960E9479136091270170912801CE0125
:1054B0008D5B9F4F0E9479136091250170912601A9
:1054C000CE0186599F4F0E947913BE0166597F4FC6
:1054D000CE018C599F4F0E947013BE016D5B7F4FB0
:1054E000CE018C599F4F0E94BF12BE016F5F7F4F4C
:1054F0000E94BF12BC0188EB96E00E945913CE01B6
:105500008C599F4F0E943512CE0186599F4F0E94A1
:105510003512CE018D5B9F4F0E943512CE01019650
:105520000E943512E0912605F0912705EE0FFF1F2E
:10553000E252FD4F208131813093270520932605CB
:105540002D30310549F481E090E090933201809351
:10555000310180E880931C058091240591E0892722
:10556000809324058901000F111FF801E35CFE4FB1
:10557000808191819093230580932205223131050A
:1055800051F02930310539F00E94CA16F801EF5E5A
:10559000FE4F9183808380918606909187060097C5
:1055A00039F190931B0580931A051816190604F516
:1055B00081E08093250510922D0510922C0544E67C
:1055C00050E060E070E088EE93E00E94B3028091CA
:1055D0001D058111AECB0E94AE158091240581116D
:1055E00007C01092190560E087E090E00E94200F4C
:1055F00080911A0590911B05019609F0FFC08091DA
:105600008806882309F4FAC01092100180912405BD
:105610008823F9F00E942D050091150510911605BB
:105620002091170530911805601B710B820B930BAD
:10563000673971058105910560F00E942D05609321
:1056400015057093160580931705909318050E9411
:10565000AE1580916D0690916E060097C9F19093FA
:105660001405809313051816190694F511E010938C
:10567000250510922D0510922C0544E650E060E0BF
:1056800070E088EE93E00E94B30280911D058111C5
:1056900050CB0E944F1580912405811119C01093A1
:1056A000190561E087E090E00E94200F60910E01F3
:1056B00088E090E00E94200F6091110589E090E061
:1056C0000E94200F60910F058AE090E00E94200F59
:1056D0008091130590911405019609F093C0809173
:1056E0006F06882309F48EC08091240510920D0165
:1056F000882319F10E942D0500910B0510910C05CE
:1057000020910D0530910E05601B710B820B930BE0
:105710006739710581059105E8F10E942D056093B7
:105720000B0570930C0580930D0590930E050E9458
:105730004F158091240581112DC08091860690918E
:10574000870697FF12C044E650E060E070E088EE04
:1057500093E00E94B30281E080930C0161E090E04D
:1057600080E00E94200F0E94240F80916D0690918E
:105770006E0697FF0FC044E650E060E070E088EEF0
:1057800093E00E94B30210920C0160E090E080E090
:105790000E94200FE0912605F0912705E631F105E2
:1057A00008F0C9CAEA52F44D0C949B33062C372CEE
:1057B0000B2D5A2D952DA32E9B269B269B26192E0D
:1057C000412E412E412E9B269B269B269B269B26C7
:1057D000952DD52DA32EA32ECE0101960E947913CF
:1057E0006091250170912601CE018D5B9F4F0E9433
:1057F0007913609127017091280162CE81E0809336
:10580000100127CF81E080930D0193CF80910A058D
:1058100081111EC00E94BE0820910A0130910B0127
:1058200082179307E9F00E94BE0890930B018093C2
:105830000A01CE0101960E94C013BE016F5F7F4F27
:1058400088EB96E00E94EA11CE0101960E94351283
:105850000E94BE0880FD64C180EC80931C0562C17B
:1058600068EB76E0CE0101960E947013E6CF80913E
:105870000A058111B9C080910205811111C00E94F1
:105880002D0567517C4F8F4F9F4F6093FE0470939F
:10589000FF04809300059093010581E08093020549
:1058A0008091F604811109C060E373E080EF94E019
:1058B0000E943D1481E08093F60468E070E080EF80
:1058C00094E00E943D128091E804811107C080910C
:1058D00023018093E70481E08093E8040E942D0572
:1058E0000091FE041091FF04209100053091010504
:1058F000601B710B820B930B693E73408105910510
:1059000050F42091E70480912301909124012817FD
:10591000190609F458C00E942D056093FE04709387
:10592000FF048093000590930105809123019091DD
:105930002401892B09F05AC00E94A408B2010E94D8
:105940004633BC01CE0101960E9479130E94AE0835
:10595000BC01CE018D5B9F4F0E9479130E94B60857
:10596000BC01CE0186599F4F0E947913BE01665932
:105970007F4FCE018C599F4F0E947013BE016D5B0B
:105980007F4FCE018C599F4F0E94BF12BE016F5FA7
:105990007F4F0E94BF12BC0180EF94E00E94591318
:1059A000CE018C599F4F0E943512CE0186599F4FD0
:1059B0000E943512CE018D5B9F4F0E943512CE01A1
:1059C00001960E94351260EF74E0CE0101960E94AC
:1059D0007013BE016F5F7F4F88EB96E00E94EA1163
:1059E000CE0101960E94351280E437CF0E94A408B0
:1059F000B2010E944633BC01CE0101960E94791388
:105A00000E94B608BC01CE018D5B9F4F0E947913A6
:105A10000E94AE08A5CF60912F0170913001CE0198
:105A200001960E94791360912D0170912E01CE0193
:105A30008D5B9F4F0E94791360912B0170912C0117
:105A4000CE0186599F4F0E947913BE0166597F4F40
:105A5000CE018C599F4F0E947013BE016D5B7F4F2A
:105A6000CE018C599F4F0E94BF12BE016F5F7F4FC6
:105A70000E94BF12BC0188EB96E00E945913CE0130
:105A80008C599F4F0E943512CE0186599F4F0E941C
:105A90003512CE018D5B9F4F0E943512CE010196CB
:105AA0000E94351280913101909132010197C1F528
:105AB00080E8D3CE6091330170913401CE0101961C
:105AC0000E9421136DE771E0CE018C599F4F0E9417
:105AD000F712BE016C597F4FCE018D5B9F4F0E9424
