:100000000C94EB000C9413010C9413010C94130149
:100010000C9413010C9413010C9413010C9465239C
:100020000C9413010C9413010C9413010C94C02331
:100030000C9413010C9413010C9425240C941301BB
:100040000C941B230C9413010C949D210C94772188
:100050000C9413010C9413010C9413010C941301D0
:100060000C941A180C941301CB01CD01C101C301EA
:10007000C501C701C9012909C609BD0A9C09060BAA
:10008000140D140D140DA30BCB0BCB0BCB0B140DBC
:10009000140D140D140D140D060B510B1D1B201BFC
:1000A0001B1B1D1B201B221B261B2B1B496E636F5A
:1000B000727265637420536F6E6720466F726D6154
:1000C0007421005247423D6F6666005247423D6FC1
:1000D0006E0076616C75653D006D656E75506F7371
:1000E0006974696F6E3D0073796E630000000000F3
:1000F000250028002B00020100000000002400273A
:10010000002A0053746F7020546573740054656D39
:1001100070203D2000537461727420546573740024
:100120004669726D776172652076657273696F6E6C
:100130003A20005761726E696E6721205254432045
:10014000444F4E275420524553504F4E44210054A3
:10015000656D702E2073656E736F72206E6F7420E4
:10016000666F756E642E0054656D7041646A3D0063
:10017000446567722E20666F726D61743D00576131
:100180006B652075702C204E656F2100000000000B
:1001900023002600290004040404040404040202C9
:1001A00002020202030303030303010204081020F6
:1001B0004080010204081020010204081020000001
:1001C0000008000201000003040700000000000016
:1001D0000000CE2CC22C11241FBECFEFD8E0DEBF12
:1001E000CDBF14E0A0E0B1E0E4E5F6E602C0059082
:1001F0000D92AE32B107D9F727E0AEE2B4E001C00C
:100200001D92A333B207E1F710E0CAEED0E004C0BC
:100210002197FE010E941C32C93ED107C9F70E94F6
:10022000A0270C941D330C9400008F929F92AF92E4
:10023000BF92CF92DF92EF92FF920F931F93CF93D3
:10024000DF93CDB7DEB7EE970FB6F894DEBF0FBEE3
:10025000CDBF0E94E82220E63AEE40E050E00E9446
:10026000DB31672B682B692B29F48091B80481114D
:100270000C94230C0091AC041091AD04F801808122
:10028000882309F432C10E94E822C0903404D0903F
:100290003504E0903604F0903704DC01CB018C1972
:1002A0009D09AE09BF09C0903004D0903104E090A0
:1002B0003204F0903304C816D906EA06FB0608F0AB
:1002C00014C10E94E8226B017C0160933404709396
:1002D000350480933604909337041092DC04109216
:1002E000DB04A8016AE08A01FA01B0804F5F5F4F2A
:1002F00080ED8B0D2091DB043091DC048A3080F49A
:10030000629FF001639FF00D11248B2DBB0C990BA4
:10031000C0978E0F9F1F9093DC048093DB04E3CF84
:100320006091D7047091D8048091D9049091DA0437
:100330002115310529F0032E000C440B550B05C087
:100340002091580130E040E050E00E94FD312093C0
:1003500030043093310440933204509333048B2D96
:10036000BB0C990BAA0BBB0BFC01E156F109E73062
:10037000F10520F4EC5CFF4F0C941C3210922F041A
:100380000FC081E00BC083E009C085E007C086E0B4
:1003900005C088E003C08AE001C08CE080932F0490
:1003A000F8018181833219F00F5F1F4F07C08091E0
:1003B0002F048F5F80932F040E5F1F4FF801808101
:1003C0008E3201F58090300490903104A090320478
:1003D000B0903304C501B40122E030E040E050E0C9
:1003E0000E94FD31D501C401820F931FA41FB51FC8
:1003F0008093300490933104A0933204B09333047B
:100400000F5F1F4FF801808180538A3028F480935A
:100410002E040F5F1F4F04C08091570180932E045C
:1004200080912E04F80190819C3211F40F5F1F4FD0
:1004300020912F04222309F458C08090300490901A
:100440003104A0903204B090330490E004973CE073
:10045000389FF001399FF00D1124E20FF11DEE0FCE
:10046000FF1FE758FE4FB501A401808191810E94D2
:10047000991B0E94E822DC01CB018C199D09AE0971
:10048000BF0988169906AA06BB0678F50E94E822DD
:10049000609334047093350480933604909337044A
:1004A0008091F805813051F0823071F0811111C0D6
:1004B00080916E008D7F80936E000BC080916F00E5
:1004C0008D7F80936F0005C0809170008D7F809339
:1004D000700060E08091F7050E94F8218CEA90E0BE
:1004E0000E94A51D90E080E002C0902F812F909384
:1004F000AC048093AD040E94E82200919D04109109
:100500009E0420919F043091A004DC01CB01801B4C
:10051000910BA20BB30B0697A105B10508F489C096
:1005200080912E01811110C060E070E089E00E948E
:10053000642260E070E086E00E94642260E070E087
:1005400083E00E9464226BC08091BC04811167C06B
:1005500000913A0410913B04C801880F991F800F45
:10056000911FFC01EE0FFF1FE552FE4F6091040149
:100570007091050120813181620F731F7093050115
:1005800060930401FC01EE0FFF1FE352FE4FC09089
:100590009204D090930420813181C20ED31ED09258
:1005A0009304C0929204880F991FFC01E152FE4F00
:1005B000E0909004F090910480819181E80EF91E02
:1005C000F0929104E092900489E00E946422B601C6
:1005D00086E00E946422B70183E00E946422809139
:1005E000380490913904019690933904809338042B
:1005F0008F3F910551F4C801019690933B0480937D
:100600003A04109239041092380480913A0490917F
:100610003B04069724F010923B0410923A040E9487
:10062000E82260939D0470939E0480939F049093AE
:10063000A0048091DD049091DE04892B21F080914B
:100640009C048111D3C28091DF048111CFC28091BB
:100650004E0481110DC00E94E82260934A047093F9
:100660004B0480934C0490934D0481E080934E049E
:100670008091420481110DC00E94E82260933E04E3
:1006800070933F04809340049093410481E08093F1
:1006900042040E94E82200914A0410914B042091E8
:1006A0004C0430914D04DC01CB01801B910BA20B5B
:1006B000B30B0091000110910101209102013091D2
:1006C0000301081719072A073B0708F06FC00E94AB
:1006D000E82260934A0470934B0480934C049093F7
:1006E0004D0480913C0490913D04009799F481E081
:1006F00090E09093DE048093DD0488E893E1A0E02D
:10070000B0E08093000190930101A0930201B093A7
:1007100003011EC00197E1F484E090E09093DE04B1
:100720008093DD0488E893E1A0E0B0E080930001CD
:1007300090930101A0930201B09303018091BB0447
:10074000811106C082E090E090933D0480933C04C8
:1007500080913C0490913D048230910581F4109287
:10076000DE041092DD0440E65AEE60E070E0409353
:1007700000015093010160930201709303010196FF
:10078000833091052CF490933D0480933C0404C085
:1007900010923D0410923C0480919C04882321F027
:1007A0001092DE041092DD0410929C040E94E82254
:1007B00000914A0410914B0420914C0430914D0457
:1007C000DC01CB01801B910BA20BB30B803D97404A
:1007D000A105B10508F008C20E94E82200913E047C
:1007E00010913F042091400430914104DC01CB0181
:1007F000801B910BA20BB30B85369105A105B105AA
:1008000008F4F4C10E94E82260933E0470933F0410
:1008100080934004909341042091BB048091DD04B7
:100820009091DE04222309F410C1892B89F5CE01B1
:1008300049960E94252781E0209151013091520173
:10084000232B09F480E00E94061BAB01BC01CE0102
:1008500001960E94790FAE01475E5F4FBE016F5F48
:100860007F4FCE014F960E94AE11BE01615E7F4F59
:100870008DEE96E00E94CE0DCE014F960E949C0E0A
:10088000CE0101960E949C0ECE0149960E949C0EBC
:100890008091DD049091DE04019709F062C00E940E
:1008A000F02568EE73E00E94C731BC01CE018B9643
:1008B0000E94DD260E94FA25BC01CE0185960E9489
:1008C000DD260E940226BC01CE0149960E94DD264B
:1008D000BE01675E7F4FCE014F960E945921BE0137
:1008E0006B5D7F4FCE014F960E94BB0DBE01655DD3
:1008F0007F4F0E94BB0DBC01CE01C1960E945921C1
:10090000CE0101960E942527AE014F5C5F4FBE01CC
:100910006F5F7F4FCE01C7960E94AE11BE01695C2A
:100920007F4F8DEE96E00E94CE0DCE01C7960E94BD
:100930009C0ECE0101960E949C0ECE01C1960E9493
:100940009C0ECE014F960E949C0ECE0149960E94AD
:100950009C0ECE0185960E949C0ECE018B960E9425
:100960009C0E8091DD049091DE04049709F03EC155
:1009700081E02091510130915201232B09F480E054
:100980000E94061BAB01BC01CE01C1960E94790FEB
:100990000E94F02568EE73E00E94C731BC01CE01D1
:1009A00085960E94DD260E94FA25BC01CE014F9655
:1009B0000E94DD260E940226BC01CE0101960E9403
:1009C000DD26BE016F5F7F4FCE0149960E945921FF
:1009D000BE01615E7F4FCE0149960E94BB0DBE01F4
:1009E0006B5D7F4F0E94BB0DBC01CE018B960E94B8
:1009F0005921AE014F5C5F4FBE01655D7F4FCE0157
:100A0000C7960E94AE11BE01695C7F4F8DEE96E0E5
:100A10000E94CE0DCE01C7960E949C0ECE018B96F1
:100A20000E949C0ECE0149960E949C0ECE0101961A
:100A30000E949C0ECE014F960E949C0ECE01859680
:100A40000E949C0ECE01C196CCC0892B09F062C0D9
:100A5000CE01C1960E9425270E94F02568EE73E022
:100A60000E94C731BC01CE0185960E94DD260E94FE
:100A7000FA25BC01CE014F960E94DD260E94022677
:100A8000BC01CE0101960E94DD26BE016F5F7F4F43
:100A9000CE0149960E945921BE01615E7F4FCE0171
:100AA00049960E94BB0DBE016B5D7F4F0E94BB0D3E
:100AB000BC01CE018B960E945921AE014F5C5F4F65
:100AC000BE01655D7F4FCE01C7960E94AE11BE018B
:100AD000695C7F4F8DEE96E00E94CE0DCE01C796E9
:100AE0000E949C0ECE018B960E949C0ECE014996D0
:100AF0000E949C0ECE0101960E949C0ECE014F9644
:100B00000E949C0ECE0185960E949C0ECE01C1963D
:100B10000E949C0E8091DD049091DE04019709F003
:100B200065C00E94F02568EE73E00E94C731BC01E9
:100B3000CE018B960E94DD260E94FA25BC01CE01D3
:100B400085960E94DD260E940226BC01CE014996B0
:100B50000E94DD26BE01675E7F4FCE014F960E9448
:100B60005921BE016B5D7F4FCE014F960E94BB0D98
:100B7000BE01655D7F4F0E94BB0DBC01CE01C196D9
:100B80000E945921CE0101960E942527AE014F5C9B
:100B90005F4FBE016F5F7F4FCE01C7960E94AE11BF
:100BA000BE01695C7F4F8DEE96E00E94CE0DCE01B6
:100BB000C7960E949C0ECE0101960E949C0ECE010B
:100BC000C1960E949C0ECE014F960E949C0ECE01B3
:100BD00049960E949C0ECE0185960E949C0ECE01E5
:100BE0008B960E949C0E02C01092E4040E944C1945
:100BF00084ED96E00E9464178BEB96E00E946417E8
:100C000082EA96E00E9464178091DF04811105C09A
:100C1000109213051092120530C00E94E822009134
:100C2000E0041091E1042091E2043091E304DC013E
:100C3000CB01801B910BA20BB30B81369A4EA10501
:100C4000B105D8F01092DF04E091DD04F091DE04EC
:100C5000EE0FFF1FE55BFD4F808191819093DE04D5
:100C60008093DD04880F991FFC01EA5FFE4F8081AD
:100C7000918190931305809312058091D4069091F1
:100C8000D506181619060CF0B8C081E080939C04B4
:100C90001092AD041092AC0444E650E060E070E0C5
:100CA00088EE93E00E94991B0E94E8226093E00482
:100CB0007093E1048093E2049093E3048091DD0457
:100CC0009091DE0401968530910529F09093DE0421
:100CD0008093DD0404C01092DE041092DD0489EDDF
:100CE00090E00E94841D8091DD049091DE040E94BA
:100CF000F41D82ED90E00E94841DE091DD04F091EE
:100D0000DE04EE0FFF1FE15DFE4F808191810E94A6
:100D1000F41D2091DD043091DE048901000F111FC4
:100D2000F801EA5FFE4F80819181909313058093D3
:100D30001205D9011197FD01EE0FFF1FEB5DFD4F6D
:100D4000608171816115710509F445C0AB014150A5
:100D50005109FA01EE0FFF1FE150FE4F0190F081A3
:100D6000E02DEA17FB07B9F56230710509F08DC572
:100D700088E1E1E6F1E0DE01119601900D928A959D
:100D8000E1F7809145019091460183709927892B65
:100D900021F48DE190E09C838B832091410130917F
:100DA0004201E0914301F09144013197EE0FFF1FA2
:100DB00081E090E08C0F9D1FE80FF91F80819181E9
:100DC000821793070CF061C589E090E09093DE04F0
:100DD0008093DD0429C6A9014151510942305105D2
:100DE00060F0285031092230310538F00E94771424
:100DF000F801E15DFE4F918380838091D40690914C
:100E0000D50697FF13C144E650E060E070E088EE3D
:100E100093E00E94991B8091DF0481114DC00E94D4
:100E2000E8226093E0047093E1048093E2049093DD
:100E3000E3048091DD049091DE04892BE9F50E94A2
:100E40004C17BC01CE0185960E94DD260E945417E6
:100E5000BC01CE014F960E94DD260E945C17BC01AA
:100E6000CE0101960E94DD26BE016F5F7F4FCE014D
:100E700049960E945921BE01615E7F4FCE0149967D
:100E80000E94BB0DBE016B5D7F4F0E94BB0DBC017C
:100E90008DEE96E00E94850ECE0149960E949C0E32
:100EA000CE0101960E949C0ECE014F960E949C0E90
:100EB000CE0185960E949C0E8091DD049091DE0407
:100EC000019709F07AC085E093E00E94721D8EE0E0
:100ED00093E00E94721D0E9402269093420180932B
:100EE00041010E94FA2590934401809343010E949E
:100EF000F02568EE73E00E94C731BC019093460173
:100F00008093450180913F0190914001892B89F4A4
:100F1000CE0185960E94DD266091430170914401C7
:100F2000CE014F960E94DD266091410170914201F1
:100F300010C0CE0185960E94DD266091410170911E
:100F40004201CE014F960E94DD26609143017091CF
:100F50004401CE0101960E94DD26BE016F5F7F4FE6
:100F6000CE0149960E945921BE01615E7F4FCE019C
:100F700049960E94BB0DBE016B5D7F4F0E94BB0D69
:100F8000BC018DEE96E00E94850ECE0149960E942E
:100F90009C0ECE0101960E949C0ECE014F960E949F
:100FA0009C0ECE0185960E949C0E81E193E00E94EA
:100FB000721D8DEE96E00E94FB1EE091DD04F09123
:100FC000DE04EE0FFF1FE55BFD4F20813181309382
:100FD000DE042093DD042C30310549F481E090E0FB
:100FE00090934E0180934D0180E88093110590917C
:100FF000DF0481E089278093DF048901000F111F3E
:10100000F801EA5FFE4F80819181909313058093F0
:1010100012052131310551F02830310539F00E9497
:101020007714F801E15DFE4F918380838091BB06C8
:101030009091BC06009719F190939B0480939A04B9
:1010400018161906E4F481E080939C041092AD0414
:101050001092AC0444E650E060E070E088EE93E06B
:101060000E94991B0E9462138091DF04811107C0C6
:101070001092BC0460E087E090E00E9448198091E3
:101080009A0490919B04019661F58091BD06882396
:1010900041F110925A018091DF04882329F10E94C6
:1010A000E8220091960410919704209198043091C1
:1010B0009904DC01CB01801B910BA20BB30B873988
:1010C0009105A105B10580F00E94E8226093960485
:1010D0007093970480939804909399040E946213EC
:1010E00003C081E080935A018091A2069091A306EB
:1010F0000097A9F19093950480939404181619060B
:1011000074F511E010939C041092AD041092AC049D
:1011100044E650E060E070E088EE93E00E94991BA6
:101120000E94DE128091DF04811119C01093BC046B
:1011300061E087E090E00E9448196091040188E036
:1011400090E00E9448196091920489E090E00E942A
:101150004819609190048AE090E00E9448198091BB
:10116000940490919504019661F58091A4068823DA
:1011700041F1109259018091DF04882329F10E94E6
:10118000E82200918C0410918D0420918E043091FE
:101190008F04DC01CB01801B910BA20BB30B8739B1
:1011A0009105A105B10580F00E94E82260938C04AE
:1011B00070938D0480938E0490938F040E94DE12AE
:1011C00003C081E0809359018091DF04811135C013
:1011D0008091BB069091BC0697FF16C044E650E094
:1011E00060E070E088EE93E00E94991B81E08093BC
:1011F0002E0161E080E090E00E9448198BEC90E0C5
:101200000E94A51D0E9462128091A2069091A306E1
:1012100097FF13C044E650E060E070E088EE93E092
:101220000E94991B10922E0160E080E090E00E94E5
:10123000481983EC90E00E94A51DE091DD04F09137
:10124000DE04E331F10508F0EFC3E55CFF4F0C94D9
:101250001C328091E404811134C00E94E822009184
:101260005604109157042091580430915904DC0120
:10127000CB01801B910BA20BB30B0B97A105B10502
:1012800078F00E94E822609356047093570480938C
:10129000580490935904CE0101960E94252706C058
:1012A0006DEE76E0CE0101960E945921BE016F5F7E
:1012B0007F4F8DEE96E00E94CE0DCE0101960E94EA
:1012C0009C0E80915F0481110DC00E94E822609302
:1012D0005B0470935C0480935D0490935E0481E0F2
:1012E00080935F040E94E82200915B0410915C04EB
:1012F00020915D0430915E04DC01CB01801B910BD9
:10130000A20BB30B893E9340A105B10508F432C18D
:101310000E94E82260935B0470935C0480935D04F8
:1013200090935E0490915A0481E0892780935A0437
:10133000882349F180EC1CC160914F0170915001EC
:101340004AE0CE0149960E94A10E6EE473E0CE0100
:1013500001960E946221BE01675E7F4FCE01019619
:101360000E94BB0D6EE473E00E94A20DBC018DEEE5
:1013700096E00E94850ECE0101960E949C0ECE0141
:1013800049960E949C0E10921105F4C08091E404CD
:101390008111EDC080918204811113C00E94E82266
:1013A000DC01CB0187519C4FAF4FBF4F80937E0430
:1013B00090937F04A0938004B093810481E0809394
:1013C000820480917604811144C00E94F02568EE69
:1013D00073E00E94C731BC01CE0101960E94DD2658
:1013E0000E94FA25BC01CE0149960E94DD260E948A
:1013F0000226BC01CE0185960E94DD26BE016B5DF2
:101400007F4FCE014F960E945921BE01675E7F4FEC
:10141000CE014F960E94BB0DBE016F5F7F4F0E94B1
:10142000BB0DBC0180E794E00E94592181E08093CC
:101430007604CE014F960E949C0ECE0185960E94A6
:101440009C0ECE0149960E949C0ECE0101960E94F0
:101450009C0E80916804811107C080913F018093A8
:10146000670481E0809368040E94E82200917E0472
:1014700010917F042091800430918104DC01CB0124
:10148000801B910BA20BB30B893E9340A105B105C4
:1014900058F48091670490E020913F013091400121
:1014A0008217930709F452C00E94E82260937E04D9
:1014B00070937F04809380049093810480913F0116
:1014C00090914001892B09F09AC20E94F02568EEA4
:1014D00073E00E94C731BC01CE0101960E94DD2657
:1014E0000E94FA25BC01CE0149960E94DD260E9489
:1014F0000226BC01CE0185960E94DD26BE016B5DF1
:101500007F4FCE014F960E945921BE01675E7F4FEB
:10151000CE014F960E94BB0DBE016F5F7F4F0E94B0
:10152000BB0DBC0180E794E00E94850ECE014F9672
:101530000E949C0ECE0185960E949C0ECE0149967B
:101540000E949C0ECE0101960E949C0E60E774E002
:10155000CE0101960E945921BE016F5F7F4F8DEE33
:1015600096E00E94CE0DCE0101960E949C0E80E472
:10157000809311050E947D1257C260914B017091BA
:101580004C01CE0185960E94DD2660914901709143
:101590004A01CE014F960E94DD266091470170916D
:1015A0004801CE0101960E94DD26BE016F5F7F4F8C
:1015B000CE0149960E945921BE01615E7F4FCE0146
:1015C00049960E94BB0DBE016B5D7F4F0E94BB0D13
:1015D000BC018DEE96E00E94850ECE0149960E94D8
:1015E0009C0ECE0101960E949C0ECE014F960E9449
:1015F0009C0ECE0185960E949C0E80914D0190918B
:101600004E01019709F0BFCE80E8B2CF8091E4048B
:10161000811133C081E02091510130915201232B7F
:1016200009F480E00E94061BAB01BC01CE010196CB
:101630000E94790FBE016F5F7F4F8DEE96E00E9492
:10164000CE0DCE0101960E949C0E80915101909189
:101650005201892B51F487EC90E090938B04809396
:101660008A0480E48093110508C08FE890E090938D
:101670008B0480938A041092110581E0209151011E
:1016800030915201232B09F480E00E94061B20E0D8
:1016900030E0A9010E94162F9091110587FF4DC0DF
:1016A0004EC081E02091510130915201232B09F469
:1016B00080E00E94061BAB01BC01CE0101960E9496
:1016C000790FBE016F5F7F4F8DEE96E00E94CE0DC9
:1016D000CE0101960E949C0E209151013091520141
:1016E0002115310561F487E090E090938B0480939D
:1016F0008A0480E88093110583E090E00BC083E8C2
:1017000090E090938B0480938A0480EC8093110581
:1017100080E390E0909313058093120581E0232BE2
:1017200009F480E00E94061B20E030E0A9010E943D
:10173000162F9091110587FF02C09F7701C0906816
:101740009093110571C180913F0190914001892BC7
:1017500079F466E173E08DEE96E00E94280E83E056
:1017600090E090931901809318018CE090E00EC0F6
:101770006DE173E08DEE96E00E94280E8CE090E023
:10178000909319018093180183E090E090931B01DE
:1017900080931A0149C180913F019091400160916D
:1017A000450170914601892B89F4CE0185960E94EE
:1017B000DD266091430170914401CE014F960E9455
:1017C000DD26609141017091420110C0CE018596E5
:1017D0000E94DD266091410170914201CE014F9639
:1017E0000E94DD266091430170914401CE01019673
:1017F0000E94DD26BE016F5F7F4FCE0149960E9499
:101800005921BE01615E7F4FCE0149960E94BB0DFA
:10181000BE016B5D7F4F0E94BB0DBC018DEE96E05B
:101820000E94850ECE0149960E949C0ECE01019623
:101830000E949C0ECE014F960E949C0ECE01859672
:101840000E949C0EF1C00E940A26E090B604F0901F
:10185000B7040091B4041091B5042091B204309102
:10186000B3044091B9045091BA046091B0047091EE
:10187000B1048091AE049091AF040E948A2487EE57
:1018800090E00E94A51D0C943A011092DF04509341
:10189000DE044093DD04452BB9F40E94F0257C0161
:1018A0000E94FA258C010E9402269C0140913D0174
:1018B00050913E0160913B0170913C018091390152
:1018C00090913A010E948A248091DD049091DE0477
:1018D000019719F5E0904501F090460190E3E91A6F
:1018E00098EFF90A00914301109144018090410161
:1018F000909042010E944C175C010E9454176C01A9
:101900000E945C179401A501B6010E948A2460918F
:101910003F018EE090E00E9448198091DD04909193
:10192000DE040297C1F46091470182E090E00E94DA
:1019300048196091490183E090E00E944819609144
:101940004B0184E090E00E94481960914D0186E0CF
:1019500090E00E9448198091DD049091DE04039785
:1019600031F460914F0181E090E00E94481980912C
:10197000DD049091DE040497F9F00E94F0257C01CB
:101980000E94FA25082F0E9402268EAF0E944C1753
:101990008DAF0E945417182F0E945C17382FC70173
:1019A00068EE73E00E94C731E82E2EAD4DAD612F79
:1019B000832F0E94A51F38C0609151018BE090E0F9
:1019C0000E944819609153018CE090E06DAF0E9435
:1019D0003A306DAD681721F08CE090E00E94423003
:1019E000609154018DE090E06DAF0E943A306DAD92
:1019F000681719F28DE090E00E944230BECF0E943D
:101A0000F02568EE73E00E94C731BC01CE0101965B
:101A10000E94DD260E940226BC01CE0149960E944A
:101A2000DD260E94FA2565CDEE960FB6F894DEBF4E
:101A30000FBECDBFDF91CF911F910F91FF90EF901F
:101A4000DF90CF90BF90AF909F908F9008958EBD04
:101A500000000DB407FEFDCF8EB508950E94083337
:101A6000CF93DF93EC0188819981009711F00E9458
:101A7000022E198218821D821C821B821A82DF911B
:101A8000CF9108950F931F93CF93DF93EC0188813B
:101A90009981009729F02A813B812617370788F41E
:101AA0008B016F5F7F4F0E943E32009761F09983F8
:101AB00088831B830A832C813D81232B11F4FC0135
:101AC000108281E001C080E0DF91CF911F910F91E2
:101AD0000895FC0180819181009711F00C949A2E59
:101AE00060E070E0CB010895EF92FF920F931F9397
:101AF000CF93DF93FC01248135816115710511F4C9
:101B000080E019C041155105A9F07B01EC018A0163
:101B1000020F131FB8010E94420D882389F3288108
:101B200039818C819D81B701820F931F0E941633EA
:101B30001D830C8381E0DF91CF911F910F91FF9066
:101B4000EF900895CF93DF93EC016115710561F07B
:101B5000FB0101900020E9F73197AF01461B570BBD
:101B60000E94740D811103C0CE010E94300DCE0180
:101B7000DF91CF910895CF93DF93EC01FB01448176
:101B80005581608171810E94740D811103C0CE0165
:101B90000E94300DCE01DF91CF9108950F931F93D6
:101BA000CF93DF938C01EB01FC0180819181009741
:101BB000B1F0688179816115710579F042815381B5
:101BC0002C813D814217530740F00E9416338C81CF
:101BD0009D81F8019583848313C00E94022E888121
:101BE0009981F801918380838A819B819383828389
:101BF0008C819D8195838483198218821B821A822D
:101C00001D821C82DF91CF911F910F910895EF9259
:101C1000FF920F931F93CF93DF93EC017B018A0117
:101C2000BA010E94420D811104C0CE010E94300D04
:101C300007C01D830C83B701888199810E941633E8
:101C4000CE01DF91CF911F910F91FF90EF900895FA
:101C5000CF93DF93EC016115710559F0FB01019001
:101C60000020E9F73197AF01461B570B0E94070E82
:101C700002C00E94300DCE01DF91CF910895BF9236
:101C8000CF92DF92EF92FF920F931F93CF93DF9348
:101C90007C016B018A01E9012417350720F4812FAB
:101CA0008901C42FD82F60E173E0C7010E9462212F
:101CB000D60114968D919C91159708171907D0F4A9
:101CC0008C179D0708F4EC01D601ED91FC9111975A
:101CD000EC0FFD1FB08010824D915C91BA01600F36
:101CE000711FC7010E94280ED601ED91FC91EC0FE7
:101CF000FD1FB082C701DF91CF911F910F91FF901F
:101D0000EF90DF90CF90BF900895CF93DF93EC01D9
:101D1000FB018617970761F060817181611571057C
:101D200029F0448155810E94070E02C00E94300DA7
:101D3000CE01DF91CF910895FC01808191810C94B7
:101D4000022E0F931F93CF93DF93CDB7DEB7629729
:101D50000FB6F894DEBF0FBECDBF8C01CB01F801EA
:101D600011821082138212821582148250E0BE0109
:101D70006F5F7F4F0E94C12EBE016F5F7F4FC80112
:101D80000E94280E62960FB6F894DEBF0FBECDBF3C
:101D9000DF91CF911F910F9108950F931F93CF93D0
:101DA000DF93CDB7DEB768970FB6F894DEBF0FBEEE
:101DB000CDBF8B01833091F42091F1063091F20672
:101DC00042E050E06DEE76E0CE010D960E943F0EAF
:101DD000B801CE0101960E94DD2661C08C3009F069
:101DE00042C02091F1063091F20644E050E06DEEE1
:101DF00076E0CE0143960E943F0EB801CE010D96CB
:101E00000E94DD2622E030E040E050E06DEE76E01A
:101E1000CE0101960E943F0EBE016F5F7F4FCE0143
:101E200007960E945921BE01635F7F4FCE0107963E
:101E30000E94BB0DBE016D5E7F4F0E94BB0DBC01B9
:101E40008DEE96E00E94850ECE0107960E949C0EB4
:101E5000CE0101960E949C0ECE010D960E949C0E12
:101E6000CE01439639C0803311F0803F41F4B80170
:101E7000CE010D960E94DD2624E030E008C0803CB3
:101E800069F5CE010D960E94DD2626E030E040E0A7
:101E900050E06DEE76E0CE0101960E943F0EBE014D
:101EA0006F5F7F4FCE0107960E945921BE01635F8D
:101EB0007F4FCE0107960E94BB0DBC018DEE96E0D0
:101EC0000E94850ECE0107960E949C0ECE010196BF
:101ED0000E949C0ECE010D960E949C0E68960FB635
:101EE000F894DEBF0FBECDBFDF91CF911F910F9150
:101EF00008958F929F92AF92BF92CF92DF92EF920E
:101F0000FF920F931F93CF93DF93CDB7DEB7629706
:101F10000FB6F894DEBF0FBECDBF8C016A017B0106
:101F200080910905811113C00E94E822DC01CB01D8
:101F3000845B9B4FAF4FBF4F809305059093060581
:101F4000A0930705B093080581E08093090580916F
:101F5000FD04811109C06AE473E087EF94E00E94F8
:101F6000622181E08093FD040E94E82280900505B3
:101F700090900605A0900705B0900805DC01CB0104
:101F800088199909AA09BB09893E9340A105B105A1
:101F900008F4CBC10E94E822609305057093060502
:101FA000809307059093080520E030E0A901C70160
:101FB000B6010E94B63120E030E040E05FE387FDEB
:101FC00005C0C701B6010E94A23004C0C701B60116
:101FD0000E94A1300E948031809151019091520164
:101FE0009B0129513C4F49012458334059012A553E
:101FF000310969017B01892B09F0C2C077FF03C059
:10200000F194E194F1084AE0B701CE0107960E94ED
:10201000A10E6FE473E0CE0101960E946221BE0121
:10202000695F7F4FCE0101960E94BB0D6FE473E0A4
:102030000E94A20DBC0187EF94E00E94850ECE01A4
:1020400001960E949C0ECE0107960E949C0E3FECCA
:10205000831637E0930688F54AE0B701CE010D9666
:102060000E94A10E6091530170915401CE0101961E
:102070000E94DD26BE016F5F7F4FCE0107960E9452
:102080005921BE01635F7F4FCE0107960E94BB0DB1
:102090006FE473E00E94A20DBC0187EF94E00E9400
:1020A000850ECE0107960E949C0ECE0101960E94DD
:1020B0009C0ECE010D960E949C0E87ECA816B104D2
:1020C000A8F54AE0B701CE010D960E94A10E6091DD
:1020D000530170915401CE0107960E94DD266FE4F2
:1020E00073E0CE0101960E946221BE01695F7F4FBD
:1020F000CE0101960E94BB0DBE01635F7F4F0E941F
:10210000BB0D6FE473E00E94A20DBC0187EF94E069
:102110000E94850ECE0101960E949C0ECE0107966C
:102120000E949C0ECE010D960E949C0E23E1C216C9
:10213000D10408F0FAC04AE0B701CE010D960E9422
:10214000A10E6091530170915401CE0107960E9437
:10215000DD266EE473E0CE0101960E946221BE018D
:10216000695F7F4FCE0101960E94BB0DBE01635F88
:102170007F4F0E94BB0D6FE473E00E94A20DC4C0AC
:1021800077FF03C0F194E194F1084AE0B701CE0172
:1021900007960E94A10E6FE473E0CE0101960E94A3
:1021A0006221BE01695F7F4FCE0101960E94BB0D87
:1021B0006FE473E00E94A20DBC0187EF94E00E94DF
:1021C000850ECE0101960E949C0ECE0107960E94BC
:1021D0009C0E3FEC831637E09306A8F560915301FF
:1021E00070915401CE010D960E94DD26C7016AE070
:1021F00070E00E94C7314AE0CE0107960E94A10E0E
:102200006EE473E0CE0101960E946221BE01695F17
:102210007F4FCE0101960E94BB0DBE01635F7F4FD1
:102220000E94BB0DBC0187EF94E00E94850ECE0199
:1022300001960E949C0ECE0107960E949C0ECE0134
:102240000D960E949C0E87ECA816B104A8F560912B
:10225000530170915401CE010D960E94DD26C701F5
:102260006AE070E00E94C7314AE0CE0107960E9402
:10227000A10E6DE473E0CE0101960E946221BE01C1
:10228000695F7F4FCE0101960E94BB0DBE01635F67
:102290007F4F0E94BB0DBC0187EF94E00E94850E2A
:1022A000CE0101960E949C0ECE0107960E949C0EC4
:1022B000CE010D960E949C0E23E1C216D104A8F512
:1022C0006091530170915401CE010D960E94DD265C
:1022D000C7016AE070E00E94C7314AE0CE0107966C
:1022E0000E94A10E6CE473E0CE0101960E9462216F
:1022F000BE01695F7F4FCE0101960E94BB0DBE01FA
:10230000635F7F4F0E94BB0DBC0187EF94E00E948A
:10231000850ECE0101960E949C0ECE0107960E946A
:102320009C0ECE010D960E949C0E67EF74E0C801D2
:102330000E945921C80162960FB6F894DEBF0FBE05
:10234000CDBFDF91CF911F910F91FF90EF90DF9064
:10235000CF90BF90AF909F908F9008954F925F92D3
:102360006F927F928F929F92AF92BF92CF92DF92A5
:10237000EF92FF920F931F93CF93DF9300D000D083
:1023800000D0CDB7DEB77C014B015A018091E40447
:10239000882341F08091EA0401EF14E0ABEEB4E051
:1023A000F80148C081E08093E40481EF682E84E066
:1023B000782E9BEE492E94E0592E00E010E00F5F3E
:1023C0001F4F680181E0C81AD1089801A601B40125
:1023D000CE0101960E943F0ECE0101960E94690D2A
:1023E000F30161933F01CE0101960E949C0E98017A
:1023F000A601B501CE0101960E943F0ECE010196C5
:102400000E94690DF20161932F01CE0101960E9495
:102410009C0E0630110599F6BDCF2C9192130DC07C
:1024200090819A3009F410823196119694E0E73F3A
:10243000F90731F090818A3080F79F5F9083F0CF69
:102440008F5F843119F08093EA0404C01092EA048B
:102450001092E40460E173E0C7010E946221FE0172
:1024600031966F01F80181918F014AE0B60190E049
:102470000E94CC2EF60101900020E9F73197AF01C0
:102480004C195D09B601C7010E94740DF4E0073FC5
:102490001F0741F7C70126960FB6F894DEBF0FBE9F
:1024A000CDBFDF91CF911F910F91FF90EF90DF9003
:1024B000CF90BF90AF909F908F907F906F905F90E4
:1024C0004F90089588E090E00E944A19682F70E0CC
:1024D00089E00E94642289E090E00E944A19682FF6
:1024E00070E086E00E9464228AE090E00E944A192F
:1024F000682F70E083E00C9464220F931F93809107
:102500004D0190914E01892B09F455C08091E90449
:102510008823A9F00E94E8220091E5041091E604C6
:102520002091E7043091E804DC01CB01801B910B82
:10253000A20BB30B893E9340A105B105C8F580916C
:10254000E904811138C00E945C1720914701309145
:1025500048018217930779F50E9454172091490189
:1025600030914A018217930731F50E944C17209150
:102570004B0130914C0182179307E9F40E94E82245
:102580006093E5047093E6048093E7049093E80475
:1025900081E08093E9048EE791E00E94A51D80917F
:1025A0002C0190912D019093AD048093AC0403C055
:1025B0001092E904C4CF1F910F9108950E94E82260
:1025C0006093E0047093E1048093E2049093E30449
:1025D0008091DF04882309F474C02091DD043091D8
:1025E000DE04C901880F991F2031310551F0FC012B
:1025F000E15DFE4F4081518141505109518340833B
:102600000AC040914F01509150014C5051095093D4
:10261000500140934F01DC01A15DBE4F6D917C9153
:102620001197FC01E956FD4F4081518164177507F0
:102630003CF4FC01EF58FD4F808191818D939C9378
:102640002F30310561F580914D0190914E01019738
:1026500021F480E88093110502C01092110587E0F3
:1026600094E00E94721DE091DD04F091DE04EE0F13
:10267000FF1FE15DFE4F808191810E94F41D82E188
:1026800094E00E94721D6091110570E080E090E07E
:1026900042E00E94B31D8EE093E00E94721D809183
:1026A000DD049091DE048830910559F0880F991F60
:1026B000FC01E15DFE4F60817181809112050C94F7
:1026C000CD0E08950E94E8226093E0047093E10427
:1026D0008093E2049093E3048091DF04882309F45B
:1026E00074C02091DD043091DE04C901880F991F68
:1026F0002031310551F0FC01E15DFE4F40815181F7
:102700004F5F5F4F518340830AC040914F0150910A
:102710005001445F5F4F5093500140934F01DC01E3
:10272000A15DBE4F6D917C911197FC01EF58FD4F5B
:1027300040815181461757073CF4FC01E956FD4F93
:10274000808191818D939C932F30310561F580912B
:102750004D0190914E01019721F480E8809311057D
:1027600002C0109211058EE194E00E94721DE0916A
:10277000DD04F091DE04EE0FFF1FE15DFE4F80816E
:1027800091810E94F41D82E194E00E94721D60918B
:10279000110570E080E090E042E00E94B31D8EE001
:1027A00093E00E94721D8091DD049091DE048830D8
:1027B000910559F0880F991FFC01E15DFE4F608182
:1027C0007181809112050C94CD0E0895CF93DF9303
:1027D000EC01019628812A33D9F78981843639F5AD
:1027E0001092DC041092DB0423964AE0FE018881FB
:1027F000219690ED980F2091DB043091DC049A3003
:1028000080F4429FB001439F700D1124082E000CEC
:10281000990BC097860F971F9093DC048093DB047D
:10282000E5CF1216130614F420935801EF012196F8
:1028300088818F3689F48A81082E000C990B9C01BF
:10284000205331093093DC042093DB04C3970597B0
:1028500010F42093570124968881823629F510922E
:10286000DC041092DB04FE0132964AE0819190ED87
:10287000980F2091DB043091DC049A3080F4429F61
:10288000B001439F700D1124082E000C990BC097C6
:10289000860F971F9093DC048093DB04E7CF30937F
:1028A000560120935501EF012091550130915601B9
:1028B000032E000C440B550B60E67AEE80E090E0AE
:1028C0000E94FD31DA01C90122E0880F991FAA1F79
:1028D000BB1F2A95D1F78093D7049093D804A09377
:1028E000D904B093DA04CE01DF91CF910895CF924D
:1028F000DF92EF92FF920F931F93CF93DF93CDB7A9
:10290000DEB72C970FB6F894DEBF0FBECDBF8C019B
:1029100066E573E0CE0101960E9462210330110545
:1029200029F422E030E040E050E021C00C301105F5
:1029300029F424E030E042E050E019C000331105F2
:1029400019F426E030E007C0003F110539F420916A
:10295000F1063091F20644E050E009C0003C110558
:10296000B9F42091F1063091F20646E050E06DEEA8
:1029700076E0CE0107960E943F0EBE01695F7F4F51
:10298000CE0101960E94CE0DCE0107960E949C0EAC
:10299000CE0101960E94690D6B017C01CE0101966A
:1029A0000E949C0EC6012C960FB6F894DEBF0FBE97
:1029B000CDBFDF91CF911F910F91FF90EF90DF90EE
:1029C000CF90089585ED8093BC008091BC0084FD7C
:1029D000FCCF1092C605089540917705262F30E070
:1029E000240F311D21323105DCF42091C60524303D
:1029F000C9F4FC0180E090E0861758F43091770527
:102A00002191DC01AB5ABA4FA30FB11D2C93019653
:102A1000F3CF80917705680F6093770580E0089584
:102A200081E0089582E008950895E091A2048091E4
:102A3000A104E81730F4F0E0EC5EFA4F808190E0FA
:102A400008958FEF9FEF08959091A2048091A104C3
:102A5000981750F4E92FF0E0EC5EFA4F208130E057
:102A60009F5F9093A20402C02FEF3FEFC90108952A
:102A70008091A10490E02091A204821B9109089505
:102A8000CF92DF92EF92FF920F931F93CF93DF933A
:102A90007C01262F972F8A018091C705882391F00A
:102AA000C62FD72F6E01C40ED51ECC15DD0571F0D3
:102AB0006991D701ED91FC910190F081E02DC70162
:102AC0000995F3CF642F822F0E94EC14C801DF9187
:102AD000CF911F910F91FF90EF90DF90CF900895CD
:102AE000CF93DF931F92CDB7DEB769832091C705DF
:102AF0002223D1F02091EA05203240F021E030E09D
:102B0000FC013383228380E090E015C08091C805EA
:102B1000E82FF0E0E753FA4F998190838F5F80931D
:102B2000C8058093EA0505C061E0CE0101960E94C8
:102B3000EC1481E090E00F90DF91CF91089508951B
:102B400080E090E008954091530550915405209104
:102B50005105309152054217530719F080E09CE36C
:102B600002C08FEF9FEF4F5F5F4F4630510529F056
:102B700050935405409353050895109254051092B4
:102B800053052F5F3F4F2630310529F03093520512
:102B90002093510508951092520510925105089501
:102BA000CF92DF92EF92FF921F93CF93DF9390919A
:102BB0005A01911103C08FEF9FEF73C0909159019B
:102BC0009923C9F3182FC0911205D0911305809154
:102BD000490581110DC00E94E8226093450570935C
:102BE0004605809347059093480581E08093490509
:102BF0000E94E822C0904505D0904605E090470528
:102C0000F0904805DC01CB018C199D09AE09BF0984
:102C10008D329140A105B105D8F00E94E822609361
:102C2000450570934605809347059093480580912C
:102C3000440591E0982790934405992329F0109238
:102C400043051092420504C0D0934305C09342054A
:102C50002091420530914305209530954091110512
:102C600050E02423352326FF04C081E080934105F2
:102C700002C01092410527FF04C081E08093400507
:102C800002C01092400580914405882309F493CF37
:102C900002C0D595C7951A95E2F7C0FF8CCF80E0AA
:102CA0009CE3DF91CF911F91FF90EF90DF90CF9049
:102CB00008954F925F926F927F928F929F92AF9200
:102CC000BF92CF92DF92EF92FF920F931F93CF9319
:102CD000DF934B015C0180919C0590919D05A09133
:102CE0009E05B0919F0588169906AA06BB0609F4B1
:102CF000C2C08CE3C82ED12CE12CF12CC501B4014B
:102D0000A70196010E94DB3160930D07CA01B9014A
:102D1000A70196010E94DB3160930E07CA01B90139
:102D200028E130E040E050E00E94DB3169017A01A7
:102D300060930F07CA01B9016C5F7F4F8F4F9F4FA0
:102D400027E030E040E050E00E94DB316F5F6093AD
:102D50001007412C512C320140E004E610E0C0E99C
:102D6000D1E0242F30E02E54384FF901E370FF27D3
:102D7000309789F4C901B8010E94C731892B31F419
:102D8000C901BE010E94C731892B29F48EE691E06A
:102D9000A0E0B0E004C08DE691E0A0E0B0E0480E15
:102DA000591E6A1E7B1ED301C201AA27BB27C81663
:102DB000D906EA06FB0610F04F5FD3CF4093130706
:102DC000309799F4C90164E670E00E94C731892BFD
:102DD00039F4C90160E971E00E94C731892B29F4F7
:102DE0008EE691E0A0E0B0E004C08DE691E0A0E0C6
:102DF000B0E0481A590A6A0A7B0AC418D508E608DE
:102E0000F708C90164E670E00E94C731EC01C9010E
:102E100060E971E00E94C731A9EFB2E020E0213003
:102E200039F4309749F4209729F4009729F402C027
:102E30004C9103C04DE101C04CE150E060E070E016
:102E4000C416D506E606F70640F0C41AD50AE60A07
:102E5000F70A2F5F11962C3011F72F5F209312077E
:102E6000C394C092110780929C0590929D05A092F8
:102E70009E05B0929F05DF91CF911F910F91FF901A
:102E8000EF90DF90CF90BF90AF909F908F907F900A
:102E90006F905F904F9008950E9466250E9459168A
:102EA00080910D0790E008950E9466250E945916B2
:102EB00080910E0790E008950E9466250E945916A1
:102EC00080910F0790E00895CF92DF92EF92FF92EA
:102ED000CF93DF93EC010E94E8226B017C018F8588
:102EE0000E94CF2121E0892B09F420E0298B8889D9
:102EF000811103C081E08227898B29898A8928175B
:102F000021F0CD8ADE8AEF8AF88E8D899E89AF897D
:102F1000B88DB701A601481B590B6A0B7B0BDB016F
:102F2000CA01CB80DC80ED80FE80C416D506E606A3
:102F3000F70664F43A81231749F02A83222331F0FB
:102F40004B895C894F5F5F4F5C8B4B8B3A813111B2
:102F50000CC0CF80D884E984FA84C816D906EA0662
:102F6000FB06ACF48B899C890EC0CB84DC84ED8499
:102F7000FE84C816D906EA06FB064CF48B899C89A8
:102F8000919581959109998388831C8A1B8A2A8B44
:102F9000DF91CF91FF90EF90DF90CF9008950F9346
:102FA0001F93CF93DF931F92CDB7DEB78C01862F8F
:102FB000F8016787408B91E04927418B428B148A47
:102FC000138A118210821282158A168A178A108E2D
:102FD00044E150E060E070E043835483658376838E
:102FE0004AEF50E060E070E0478350876187728766
:102FF00048EE53E060E070E043875487658776874A
:1030000060E029830E942822F801808929818111AA
:103010000BC0222349F061E087850F90DF91CF91AB
:103020001F910F910C94F8210F90DF91CF911F9178
:103030000F9108951F920F920FB60F9211242F93A4
:103040003F934F935F936F937F938F939F93AF9330
:10305000BF93EF93FF938091B900887F803609F486
:103060009CC068F5883209F45BC090F4803109F4A3
:1030700054C038F4882309F4F6C0883009F44DC0F0
:10308000F6C0883109F44CC0803209F45DC0EFC04D
:10309000803409F468C048F4803309F455C088339B
:1030A00009F0E5C08093C405D8C0803509F44FC04D
:1030B000883509F45DC0883409F0D9C0D6C0883994
:1030C00009F4C7C0A8F4883709F467C038F4883613
:1030D00009F463C0803709F460C0C9C0883809F4B6
:1030E000B8C0803909F45FC0803809F0C0C05BC047
:1030F000803B09F486C038F4803A09F466C0883A07
:1031000009F47FC0B4C0803C09F4A7C0883C09F42E
:10311000A4C0883B09F48AC0AAC08091A10510C050
:103120009091C3058091C205981770F5E091C30591
:1031300081E08E0F8093C305F0E0EE55FA4F808159
:103140008093BB0085EC86C08093C4058EC0E0915F
:10315000C30581E08E0F8093C3058091BB00F0E032
:10316000EE55FA4F80839091C3058091C2056EC0E1
:10317000E091C30581E08E0F8093C3058091BB0071
:10318000F0E0EE55FA4F80838091C50581116DC046
:1031900081E08093A00584EA61C083E08093C60546
:1031A00010929B05CFCF80919B05803208F051C0D3
:1031B000E0919B0581E08E0F80939B058091BB0081
:1031C000F0E0E558FA4F8083BDCF85EC8093BC00DA
:1031D0001092C60580919B05803230F4E0919B05EA
:1031E000F0E0E558FA4F108260919B0570E0E091A5
:1031F0007905F0917A058BE795E0099510929B058A
:1032000036C084E08093C605109278051092770549
:10321000E0917505F091760509958091770581110A
:1032200005C081E08093770510925505E0917805FF
:1032300081E08E0F80937805F0E0EB5AFA4F8081A1
:103240008093BB009091780580917705981708F4DA
:1032500079CF85E88093BC000AC085EC8093BC00E0
:103260001092C60504C01092C4050E94E214FF919A
:10327000EF91BF91AF919F918F917F916F915F91EE
:103280004F913F912F910F900FBE0F901F90189567
:103290000C9442300C943A302F923F924F925F92AE
:1032A0006F927F928F929F92AF92BF92CF92DF9256
:1032B000EF92FF920F931F93CF93DF93CDB7DEB7BB
:1032C00028970FB6F894DEBF0FBECDBF0E94C32271
:1032D00000913C0510913D0520913E0530913F0540
:1032E000DC01CB01801B910BA20BB30B883B9B40F5
:1032F000A105B10508F471C10E94C32260933C0589
:1033000070933D0580933E0590933F058DEE96E0CA
:103310000E94690D6B017C0160E08AE00E94F82147
:103320008AE0882E912CA12CB12CC701B601A501F1
:1033300094010E94FD31660F771FFB01E054FD4FA1
:10334000808191819A83898385E090E02B833C83FF
:103350004D835E830E94D01598878F830E94A315AA
:103360007C012B813C814D815E81CA01B901A5019F
:1033700094010E94FD31660F771FFB01E054FD4F61
:103380006080718084E090E02B833C834D835E837A
:103390000E94D0158C010E94A3156C012B813C81E9
:1033A0004D815E81CA01B901A50194010E94FD31E0
:1033B00019012A01660F771FFB01E054FD4F808041
:1033C000918083E090E00E94D0155C010E94A315DB
:1033D0000C211D210621172120E030E0AAE0000F7A
:1033E000111F221F331FAA95D1F78A219B21AC01FF
:1033F0004821592160E070E048015901842A952A4A
:10340000A62AB72A8F819885E822F92289819A8194
:10341000E822F922A70160E070E0B4E1440F551FF3
:10342000661F771FBA95D1F7842A952AA62AB72A4C
:1034300080914105882319F06894B6F802C0E89499
:10344000B6F880914005882319F06894B7F802C057
:10345000E894B7F88B2D0E94270D8A2D0E94270D26
:10346000892D0E94270D882D0E94270D8AE0C82EE5
:10347000D12CE12CF12CC201B101A70196010E94CF
:10348000FD31660F771FFB01E054FD4F40805180F6
:1034900082E090E02B833C834D835E830E94D015B5
:1034A0005C010E94A3158C012B813C814D815E81C2
:1034B000CA01B901A70196010E94FD31660F771F6D
:1034C000FB01E054FD4F6080718081E090E02B8330
:1034D0003C834D835E830E94D0154C010E94A3154E
:1034E00015012022312224203520412C512CF4E1D9
:1034F000220C331C441C551CFA95D1F788219921C4
:1035000086219721A0E0B0E01AE0880F991FAA1F3A
:10351000BB1F1A95D1F752014101882A992AAA2A7C
:10352000BB2A2B813C814D815E81CA01B901A70173
:1035300096010E94FD31660F771FFB01E054FD4F9D
:10354000E080F18080E090E00E94D0158C010E9424
:10355000A315802391238E219F21A0E0B0E0882A2B
:10356000992AAA2ABB2A80914105882319F06894D8
:10357000B6F802C0E894B6F880914005882319F0A7
:103580006894B7F802C0E894B7F88B2D0E94270D15
:103590008A2D0E94270D892D0E94270D882D0E94BB
:1035A000270D61E08AE028960FB6F894DEBF0FBEC3
:1035B000CDBFDF91CF911F910F91FF90EF90DF90E2
:1035C000CF90BF90AF909F908F907F906F905F90C3
:1035D0004F903F902F900C94F82128960FB6F894B6
:1035E000DEBF0FBECDBFDF91CF911F910F91FF9036
:1035F000EF90DF90CF90BF90AF909F908F907F9093
:103600006F905F904F903F902F900895CF92DF92F0
:10361000EF92FF921F93CF93DF93C0913A05D09121
:103620003B05C830D10508F067C0182FFE01E25BEA
:10363000FF4F0C941C3284E406C00E94C41E5CC080
:103640008CEC01C08EEB0E949A1E56C00E94521E46
:103650008093380551C00E94521E80933905682F0F
:1036600070E0762F662780913805682B6F3F8FEFCB
:10367000780711F460E070E0072E000C880B990BBE
:103680000E941D2F20E030E040E85DE30E947C2F87
:103690006B017C018091530190915401BC01990F01
:1036A000880B990B0E941D2F20E030E040E251E48E
:1036B0000E940E319B01AC01C701B6010E94A230ED
:1036C000112361F026E636E646EE5FE30E947C2F8A
:1036D00020E030E040E052E40E94A23020E030E000
:1036E00040E251E40E947C2F6093340570933505CD
:1036F00080933605909337052196C830D10529F07F
:10370000D0933B05C0933A0504C010923B0510923C
:103710003A05609134057091350580913605909198
:103720003705DF91CF911F91FF90EF90DF90CF9001
:1037300008953F924F925F926F927F928F929F92E5
:10374000AF92BF92CF92DF92EF92FF920F931F93AF
:10375000CF93DF9300D000D0CDB7DEB72091F8052E
:1037600027FDAAC149835A836B837C838C0161E066
:103770008091F7050E9428223090F805832D8D7FD7
:103780004801A12CB12C09F0B7C060E072E18AE7D2
:1037900090E0A50194010E94FD3129013A016901DF
:1037A0007A0121E0C21AD108E108F1088FEFC816AA
:1037B000D104E104F10409F008F44CC060E472E4BF
:1037C0008FE090E0A50194010E94FD3169017A012A
:1037D00091E0C91AD108E108F108A2E03A1220C02C
:1037E000BFEFCB16D104E104F10409F008F462C183
:1037F00060E970ED83E090E0A50194010E94FD3145
:1038000069017A01E1E0CE1AD108E108F108FFEF81
:10381000CF16D104E104F10409F0C0F583E065C0DE
:103820002FEFC216D104E104F104B1F0A8F068E46E
:1038300078EE81E090E0A50194010E94FD316901DC
:103840007A0181E0C81AD108E108F108332009F4AF
:10385000D9C027C181E001C082E0332091F045C08A
:10386000D301C2012AE0B595A795979587952A952A
:10387000D1F76C017D01E1E0CE1AD108E108F10831
:1038800085E095B5987F892B85BD66C068E478EEA4
:1038900081E090E0A50194010E94FD3169017A0167
:1038A000B1E0CB1AD108E108F108EFEFCE16D10450
:1038B000E104F10409F008F4A3C064E274EF80E0CD
:1038C00090E0A50194010E94FD3169017A0191E027
:1038D000C91AD108E108F108AFEFCA16D104E10412
:1038E000F10411F008F0B0C085E09091B100987F2C
:1038F000892B8093B10030C060E072E18AE790E0EC
:10390000A50194010E94FD3169017A01F1E0CF1A0D
:10391000D108E108F108C114D10421E0E206F10464
:1039200088F068E478EE81E090E0A50194010E94BF
:10393000FD3169017A0181E0C81AD108E108F10876
:1039400093E001C091E0A1E03A1206C080918100AD
:10395000887F892B8093810089819A81AB81BC818A
:10396000892B8A2B8B2B81F0D801AA0FBB1F2981B1
:103970003A814B815C810E94503028EE33E040E078
:1039800050E00E94DB3103C02FEF3FEFA90191E02F
:103990003916A1F0A2E03A1619F131108DC0C7BC5A
:1039A0002093F3053093F4054093F5055093F60505
:1039B00080916E00826080936E007EC0D0928900FC
:1039C000C09288002093EF053093F0054093F105F5
:1039D0005093F20580916F00826080936F006CC0FD
:1039E000C092B3002093EB053093EC054093ED05B6
:1039F0005093EE05809170008260809370005CC0EF
:103A000084E073CF8FEFC816D104E104F104D1F044
:103A1000C8F062E17AE780E090E0A50194010E949D
:103A2000FD3169017A01F1E0CF1AD108E108F1080E
:103A30002FEFC216D104E104F10411F008F010CF09
:103A400084E01FCF83E01DCF62E17AE780E090E061
:103A5000A50194010E94FD3169017A0191E0C91A22
:103A6000D108E108F108AFEFCA16D104E104F1046E
:103A7000B1F0A8F0D301C2014AE0B595A79597959A
:103A800087954A95D1F76C017D01E1E0CE1AD10806
:103A9000E108F108332009F4F3CE87E026CF86E071
:103AA000DCCEBFEFCB16D104E104F10409F060F6DF
:103AB00084E0D3CE82E019CF0F900F900F900F903B
:103AC000DF91CF911F910F91FF90EF90DF90CF90FA
:103AD000BF90AF909F908F907F906F905F904F902E
:103AE0003F900895009769F0FC0101900020E9F7EC
:103AF0003197AF01481B590BBC0189EF95E00C943D
:103B00002A2080E090E008950F931F93CF93DF93D6
:103B10008C01C0E0D0E0F801EC0FFD1F649166233A
:103B200071F0E091F905F091FA050190F081E02D36
:103B300089EF95E00995892B11F02196ECCFCE0104
:103B4000DF91CF911F910F910895CF93DF930E9442
:103B5000841DEC018EE093E00E94721D8C0F9D1F6E
:103B6000DF91CF9108958F929F92AF92BF920F9362
:103B70001F93CF93DF93CDB7DEB7A1970FB6F8941D
:103B8000DEBF0FBECDBF19A2423008F44AE08E015D
:103B90000F5D1F4F842E912CA12CB12CA5019401F7
:103BA0000E94DB31E62FB901CA0101501109EA3048
:103BB00014F4E05D01C0E95CD801EC93232B242BC5
:103BC000252B61F7C8010E94721DA1960FB6F894CB
:103BD000DEBF0FBECDBFDF91CF911F910F91BF9080
:103BE000AF909F908F900895CF92DF92EF92FF92C7
:103BF000CF93DF936C01990FEE08FF08F7FE1AC010
:103C0000E091F905F091FA050190F081E02D6DE267
:103C100089EF95E00995EC0166277727CB016C19B0
:103C20007D098E099F094AE00E94B31D7C01EC0EBC
:103C3000FD1E06C04AE0C701B6010E94B31D7C010B
:103C40008EE093E00E94721D8E0D9F1DDF91CF913B
:103C5000FF90EF90DF90CF9008958091F906E0916A
:103C6000FA06F091FB06F8949181982B91832281BA
:103C7000982F909529232283A7E0B0E01197F1F7C0
:103C8000218192239183A3E2B0E01197F1F7908113
:103C90007894EFECF0E03197F1F7982381E009F4A4
:103CA00080E008950F931F93CF93DF9308E010E017
:103CB000D1E0C0E00E942D1E8111CD2BDD0F0150FF
:103CC0001109C1F78C2FDF91CF911F910F910895AA
:103CD0009091F906E091FA06F091FB06392F3095A4
:103CE00080FF13C0F8942281832F822382838181F5
:103CF000892B8183A3E2B0E01197F1F78281982BA1
:103D00009283789487ED90E012C0F8942281832FFB
:103D1000822382838181892B8183AFEFB0E0119769
:103D2000F1F78281982B928378948FE090E001974D
:103D3000F1F708950F931F93CF93DF93082FC8E0F7
:103D4000D0E011E081E0912F902309F480E00E94FF
:103D5000681E110F2197B1F7F894E091FA06F091DF
:103D6000FB0691818091F906809598239183E091DB
:103D7000FA06F091FB069281892382837894DF9181
:103D8000CF911F910F9108959091F906E091FA0655
:103D9000F091FB06F8948181292F2095822381835D
:103DA00078948DE743E050E0815021F1DA011197DA
:103DB000F1F730813923C1F3F89482818223828321
:103DC0008181892B81837894ABE7B7E01197F1F774
:103DD000F894818128232183A3E1B1E01197F1F7C1
:103DE0008081982381E009F080E07894E3E6F6E0B2
:103DF0003197F1F70895CF93DF93FC01448155810A
:103E00006081718189EF95E00E942A20EC018EE0AB
:103E100093E00E94721D8C0F9D1FDF91CF9108953A
:103E20008F929F92AF92BF92CF92DF92EF92FF92CA
:103E30000E94C3224B015C0188EEC82E83E0D82E7D
:103E4000E12CF12C0E94C322DC01CB0188199909D5
:103E5000AA09BB09883E9340A105B10558F021E0AD
:103E6000C21AD108E108F10888EE880E83E0981E96
:103E7000A11CB11CC114D104E104F10419F7FF9095
:103E8000EF90DF90CF90BF90AF909F908F9008956C
:103E90002091EA059091E905213208F04AC080910D
:103EA000C6058111FCCF32E03093C60531E0309376
:103EB000C5053FEF3093C4051092C3052093C2059A
:103EC000A9ECB5E042EA55E0FA013E2F341B321767
:103ED00018F43D913193F9CF1092A1052091A105DD
:103EE000990F922B9093A1059091A005913061F4C8
:103EF0001092A0059091A1059093BB009091BC00F9
:103F000093FDF8CF95EC01C095EE9093BC00909195
:103F1000C6059230E1F39091C4059F3F79F08091FE
:103F2000C405803241F08091C405803331F084E0D3
:103F300005C081E003C082E001C083E01092C805A3
:103F40001092EA051092C7050895DF92EF92FF9252
:103F50000F931F93CF93DF9300D0CDB7DEB7F82E2A
:103F6000162F81E08093C70588E68093E9051092BB
:103F7000C8051092EA0560E086E996E02A83498345
:103F80000E9470158AE0D82E4981842F6D2D0E94E1
:103F9000BB31692F30E1839F600D112486E996E0E3
:103FA0000E947015812F6D2D0E94BB31692F30E169
:103FB000839F600D112486E996E00E9470158F2D75
:103FC0006D2D0E94BB31692F30E1839F600D11245C
:103FD00086E996E00E94701561E086E996E00E940D
:103FE00070152A81822F6D2D0E94BB31692F20E12F
:103FF000829F600D112486E996E00E947015802F43
:104000006D2D0E94BB31692F30E1839F600D11241B
:1040100086E996E00E9470158E2D6D2D0E94BB31B1
:10402000692F20E1829F600D112486E996E00E94AD
:10403000701560E086E996E00E9470150F900F9071
:10404000DF91CF911F910F91FF90EF90DF900C9433
:10405000481F0895CF92DF92EF92FF920F931F9324
:10406000CF93DF936C017A018B01C0E0D0E0CE15D5
:10407000DF0589F0D8016D918D01D601ED91FC919C
:104080000190F081E02DC6010995892B11F47E0184
:1040900002C02196ECCFC701DF91CF911F910F9104
:1040A000FF90EF90DF90CF900895FC01538D448DE9
:1040B000252F30E0842F90E0821B930B541710F0D3
:1040C000CF96089501970895FC01918D828D9817E0
:1040D00061F0828DDF01A80FB11D5D968C91928DEC
:1040E0009F5F9F73928F90E008958FEF9FEF0895E9
:1040F000FC01918D828D981731F0828DE80FF11DB2
:10410000858D90E008958FEF9FEF0895FC01918DCC
:10411000228D892F90E0805C9F4F821B91098F73C5
:104120009927089589EF95E00E94862021E0892B48
:1041300009F420E0822F0895FC01848DDF01A80F8F
:10414000B11DA35ABF4F2C91848D90E001968F73BF
:104150009927848FA689B7892C93A089B1898C91DE
:1041600080648C93938D848D981306C00288F389A4
:10417000E02D80818F7D80830895EF92FF920F93D1
:104180001F93CF93DF93EC0181E0888F9B8D8C8D03
:10419000981305C0E889F989808185FD24C0F62E31
:1041A0000B8D10E00F5F1F4F0F731127E02E8C8DCA
:1041B000E8120CC00FB607FCFACFE889F9898081B4
:1041C00085FFF5CFCE010E949C20F1CF8B8DFE01A3
:1041D000E80FF11DE35AFF4FF0820B8FEA89FB894C
:1041E0008081806207C0EE89FF896083E889F98950
:1041F00080818064808381E090E0DF91CF911F9186
:104200000F91FF90EF900895CF93DF93EC01888D8D
:104210008823C9F0EA89FB89808185FD05C0A889CA
:10422000B9898C9186FD0FC00FB607FCF5CF808150
:1042300085FFF2CFA889B9898C9185FFEDCFCE019A
:104240000E949C20E7CFDF91CF91089580E090E01D
:10425000892B29F00E94922081110C94000008956E
:10426000833081F028F4813099F08230A1F00895F4
:104270008730A9F08830B9F08430D1F48091800083
:104280008F7D03C0809180008F7780938000089598
:1042900084B58F7702C084B58F7D84BD08958091E9
:1042A000B0008F7703C08091B0008F7D8093B00005
:1042B0000895FC01118210821382128215821482E9
:1042C0000C94850EFC0111821082138212821582D9
:1042D00014826115710551F0FB0101900020E9F78E
:1042E0003197AF01461B570B0C94070E08951F9290
:1042F0000F920FB60F9211242F933F934F935F931A
:104300006F937F938F939F93AF93BF93EF93FF939D
:1043100089EF95E00E949C20FF91EF91BF91AF91B2
:104320009F918F917F916F915F914F913F912F91CD
:104330000F900FBE0F901F9018951F920F920FB6FF
:104340000F9211242F938F939F93EF93FF93E091FC
:104350000906F0910A068081E0910F06F09110069F
:1043600082FD12C09081809112068F5F8F73209121
:104370001306821751F0E0911206F0E0E750FA4F71
:10438000958F8093120601C08081FF91EF919F91DC
:104390008F912F910F900FBE0F901F901895CF9374
:1043A000DF93282F30E0F901E254FE4F8491F901A8
:1043B000E655FE4FD491F901EA56FE4FC491CC2345
:1043C00091F081110E943021EC2FF0E0EE0FFF1FE1
:1043D000E457FE4FA591B491EC91ED2381E090E07C
:1043E00021F480E002C080E090E0DF91CF91089559
:1043F0001F93CF93DF93282F30E0F901E254FE4F53
:104400008491F901E655FE4FD491F901EA56FE4F29
:10441000C491CC23C9F0162F81110E943021EC2FBA
:10442000F0E0EE0FFF1FE451FF4FA591B4918FB75D
:10443000F894111105C09C91ED2FE095E92302C07D
:10444000EC91ED2BEC938FBFDF91CF911F910895ED
:10445000CF93DF9390E0FC01E655FE4F2491FC01E1
:10446000EA56FE4F8491882361F190E0880F991FEE
:10447000FC01E750FF4FC591D491FC01E451FF4F7F
:10448000A591B491611109C09FB7F89488812095D6
:1044900082238883EC912E230BC0623061F49FB796
:1044A000F8943881822F809583238883EC912E2B7A
:1044B0002C939FBF06C08FB7F894E8812E2B2883DA
:1044C0008FBFDF91CF9108951F93CF93DF93182F64
:1044D000EB0161E00E942822209711F460E004C003
:1044E000CF3FD10539F461E0812FDF91CF911F914A
:1044F0000C94F821E12FF0E0E254FE4FE491E33018
:10450000F9F048F4E130B9F0E230A1F584B5806209
:1045100084BDC8BD34C0E730E9F0E83019F1E430BB
:1045200049F580918000806280938000D0938B0059
:10453000C0938A0024C084B5806884BDC7BD1FC0F5
:1045400080918000806880938000D0938900C09320
:10455000880015C08091B00080688093B000C0933F
:10456000B3000DC08091B00080628093B000C09312
:10457000B40005C0C038D1050CF0B5CFAFCFDF9186
:10458000CF911F9108953FB7F8948091290790919A
:104590002A07A0912B07B0912C0726B5A89B05C030
:1045A0002F3F19F00196A11DB11D3FBFBA2FA92FB2
:1045B000982F8827820F911DA11DB11DBC01CD012F
:1045C00042E0660F771F881F991F4A95D1F708951B
:1045D0002FB7F894609125077091260780912707DF
:1045E000909128072FBF08956093200770932107AB
:1045F0008093220790932307DC01CB01845D9E4FBB
:10460000AF4FBF4F80931C0790931D07A0931E07C9
:10461000B0931F0782E090E090931B0780931A07E6
:104620000E94E8226093160770931707809318077B
:104630009093190708951F920F920FB60F921124AD
:104640002F933F938F939F93AF93BF9380912507B1
:1046500090912607A0912707B09128073091240751
:1046600023E0230F2D3720F40196A11DB11D05C0B5
:1046700026E8230F0296A11DB11D209324078093E5
:10468000250790932607A0932707B09328078091CA
:10469000290790912A07A0912B07B0912C0701962A
:1046A000A11DB11D8093290790932A07A0932B0782
:1046B000B0932C07BF91AF919F918F913F912F9114
:1046C0000F900FBE0F901F9018951F920F920FB66C
:1046D0000F9211242F933F934F935F936F937F9388
:1046E0008F939F93EF93FF934091EB055091EC05CF
:1046F0006091ED057091EE0541155105610571055B
:1047000099F08091A304E091A404F091A504908114
:10471000892780831416150616061706D4F441500F
:1047200051096109710915C0809170008D7F8093D6
:1047300070009091A304E091A404F091A5048081FD
:10474000282F30E0892F90E0809590958223932345
:1047500080834093EB055093EC056093ED057093D7
:10476000EE05FF91EF919F918F917F916F915F91F6
:104770004F913F912F910F900FBE0F901F90189562
:104780001F920F920FB60F9211242F933F938F9386
:104790009F93AF93BF93EF93FF938091EF05909119
:1047A000F005A091F105B091F205892B8A2B8B2B96
:1047B00051F18091A604E091A704F091A8049081A2
:1047C000892780838091EF059091F005A091F105F4
:1047D000B091F205181619061A061B064CF58091C1
:1047E000EF059091F005A091F105B091F2050197C8
:1047F000A109B1098093EF059093F005A093F1050D
:10480000B093F20515C080916F008D7F80936F008B
:104810009091A604E091A704F091A8048081282F2C
:1048200030E0892F90E080959095822393238083B8
:10483000FF91EF91BF91AF919F918F913F912F91F8
:104840000F900FBE0F901F9018951F920F920FB6EA
:104850000F9211242F933F938F939F93AF93BF9306
:10486000EF93FF938091F3059091F405A091F505E6
:10487000B091F605892B8A2B8B2B51F18091A904DD
:10488000E091AA04F091AB04908189278083809104
:10489000F3059091F405A091F505B091F605181671
:1048A00019061A061B064CF58091F3059091F40544
:1048B000A091F505B091F6050197A109B109809382
:1048C000F3059093F405A093F505B093F60515C094
:1048D00080916E008D7F80936E009091A904E0918D
:1048E000AA04F091AB048081282F30E0892F90E05A
:1048F00080959095822393238083FF91EF91BF91C0
:10490000AF919F918F913F912F910F900FBE0F907C
:104910001F9018953F924F925F926F927F928F9265
:104920009F92AF92BF92CF92DF92EF92FF920F933E
:104930001F93CF93DF93382E962E842EF90184E6B1
:10494000E816F1042CF082EBE81A87E0F80A03C0BD
:104950008EE1E80EF11CE092130700931207E0933A
:10496000110730920F0790920E0780920D07AE2D1F
:10497000B0E020E833E341EE51E00E9450302B01DB
:104980003C0122EB37E0FF2484E6C82ED12CC0E99D
:10499000D1E0C901825B97408E159F05DCF4C90107
:1049A00083709927892B99F4C901B6010E94C731F8
:1049B000892B31F4C901BE010E94C731892B39F41A
:1049C00080E8480E81E5581E81E0681E711C2F5F4B
:1049D0003F4FDFCF8EE4E81A88EFF80AC70164E69C
:1049E00070E00E94C7316C01C70160E971E00E946C
:1049F000C7315C01C1E0D0E0112783E0E822FF2449
:104A0000C017D1072CF5C230D10589F4E114F104A7
:104A100071F4C114D10419F4A114B10441F480E873
:104A2000480E8BE3581E86E2681E711C0FC0DE0123
:104A3000A850BD4FAC91B0E020E831E541E050E036
:104A40000E945030460E571E681E791E2196D8CF00
:104A5000292D30E0ACE3B0E00E9492306B017C0184
:104A6000C80CD11CE11CF11C232D30E0A0E1BEE0FC
:104A70000E949230C60ED71EE81EF91EDF01BB272A
:104A8000119720E831E541E050E00E942232DC013C
:104A9000CB018C0D9D1DAE1DBF1DBC01CD01640D54
:104AA000751D861D971DDF91CF911F910F91FF906E
:104AB000EF90DF90CF90BF90AF909F908F907F90BE
:104AC0006F905F904F903F900C94F422CF92DF92C2
:104AD000EF92FF920F931F930E94E822C090160757
:104AE000D0901707E0901807F09019078B019C01F0
:104AF0000C191D092E093F0980912007909121076B
:104B0000A0912207B0912307083E134021053105EB
:104B1000D0F00196A11DB11D80932007909321072D
:104B2000A0932207B0932307B701A60148515C4F19
:104B30006F4F7F4F409316075093170760931807E6
:104B400070931907C9CF40911C0750911D076091C0
:104B50001E0770911F0784179507A607B70788F1EE
:104B6000E0911407F0911507309759F109956115F7
:104B700071058105910519F00E94F42222C08091EF
:104B8000200790912107A0912207B0912307845D0F
:104B90009E4FAF4FBF4F80931C0790931D07A0936C
:104BA0001E07B0931F0781E090E020911A07309113
:104BB0001B07232B11F480E090E090931B07809358
:104BC0001A07609120077091210780912207909128
:104BD00023071F910F91FF90EF90DF90CF900895E2
:104BE0000E9466250E9459168091130790E08E540A
:104BF000984F08950E9466250E94591680911207C9
:104C000090E008950E9466250E9459168091110730
:104C100090E0089581E08093C70588E68093E905D8
:104C20001092C8051092EA0560E086E996E00E94BD
:104C300070150E94481F8091C6058111FCCF81E04C
:104C40008093C6058093C5059FEF9093C40510928D
:104C5000C30596E09093C2058093A1058091A105BC
:104C6000806D8093A1058091A005813061F4109240
:104C7000A0058091A1058093BB008091BC0083FDBD
:104C8000F8CF85EC01C085EE8093BC008091C6050D
:104C90008130E1F38091C305873018F48091C3051A
:104CA00001C087E0A2EAB5E024E135E0F9019E2FDA
:104CB000921B981718F49D919193F9CF1092A2042A
:104CC0008093A10486E996E00E942415982F92957E
:104CD0009F708F702AE0929F800D112490E0909336
:104CE000BA048093B90486E996E00E942415982FAF
:104CF00092959F708F702AE0929F800D112490E012
:104D00009093B1048093B00486E996E00E94241544
:104D1000982F9695969596959670292F220F220F8B
:104D2000920F8F70890F90E09093AF048093AE0440
:104D300086E996E00E942415982F92959F708F70B7
:104D40002AE0929F800D112490E090932E0780938B
:104D50002D0786E996E00E942415982F92959F7062
:104D60008F702AE0929F800D112490E09093B304FD
:104D70008093B20486E996E00E942415982F9295BC
:104D80009F708F702AE0929F800D112490E0909385
:104D9000B5048093B40486E996E00E942415982F08
:104DA00092959F708F702AE0929F800D112490E061
:104DB0009093B7048093B60408950F931F93CF93F5
:104DC000DF93CDB7DEB762970FB6F894DEBF0FBEA4
:104DD000CDBF8C014AE06A3071054CF5CE010D96CD
:104DE0000E94A10E6FE473E0CE0101960E94622141
:104DF000BE016F5F7F4FCE0107960E945921BE0111
:104E0000635F7F4FCE0107960E94BB0DBC01C801B6
:104E10000E945921CE0107960E949C0ECE01019658
:104E20000E949C0ECE010D960E949C0E02C00E9414
:104E3000A10EC80162960FB6F894DEBF0FBECDBFBB
:104E4000DF91CF911F910F9108950F931F93CF93EF
:104E5000DF93CDB7DEB768970FB6F894DEBF0FBE0D
:104E6000CDBF8C0180914F0190915001489791F4F2
:104E70000E944C17BC01CE0143960E94DD260E9481
:104E80005417BC01CE010D960E94DD260E945C17CE
:104E9000BC011FC00E944C17BC01CE0143960E946A
:104EA000DD260E945417BC01CE010D960E94DD261E
:104EB0000E9466250E94591680910F07882339F0B9
:104EC000682F70E08D3028F06C50710902C06CE0E2
:104ED00070E0CE0101960E94DD26BE016F5F7F4F1C
:104EE000CE0107960E945921BE01635F7F4FCE011C
:104EF00007960E94BB0DBE016D5E7F4F0E94BB0DE9
:104F0000BC01C8010E945921CE0107960E949C0E47
:104F1000CE0101960E949C0ECE010D960E949C0E21
:104F2000CE0143960E949C0EC80168960FB6F89475
:104F3000DEBF0FBECDBFDF91CF911F910F910895BE
:104F4000CF93DF93CDB7DEB7C155D1090FB6F89433
:104F5000DEBF0FBECDBF789484B5826084BD84B5BA
:104F6000816084BD85B5826085BD85B5816085BD64
:104F700080916E00816080936E001092810080911C
:104F800081008260809381008091810081608093A4
:104F90008100809180008160809380008091B100C9
:104FA00084608093B1008091B00081608093B000F4
:104FB00080917A00846080937A0080917A00826088
:104FC00080937A0080917A00816080937A0080914A
:104FD0007A00806880937A001092C1001092A20437
:104FE0001092A1041092C8051092EA051092C6050D
:104FF00081E08093C5051092A00561E082E10E94E6
:10500000F82161E083E10E94F8218091B9008E7F50
:105010008093B9008091B9008D7F8093B90088E4B6
:105020008093B80085E48093BC00E0910906F0917C
:105030000A0682E08083E0910506F0910606108260
:10504000E0910706F091080680E180831092110636
:10505000E0910D06F0910E0686E08083E0910B064C
:10506000F0910C06808180618083E0910B06F091C5
:105070000C06808188608083E0910B06F0910C061D
:10508000808180688083E0910B06F0910C0680811E
:105090008F7D808381E090E00E944A198C3019F066
:1050A00088E190E002C08CE090E090935001809302
:1050B0004F0180E090E00E944A19882321F081E0AE
:1050C00080932E0102C010922E0182E090E00E9497
:1050D0004A198F3F29F4109248011092470105C0E8
:1050E00090E0909348018093470183E090E00E9414
:1050F0004A198F3F29F410924A011092490105C0C4
:1051000090E090934A018093490184E090E00E94EE
:105110004A198F3F29F410924C0110924B0105C09F
:1051200090E090934C0180934B0186E090E00E94C8
:105130004A198F3F29F410924E0110924D0105C07B
:1051400090E090934E0180934D0187E090E00E94A3
:105150004A198F3F19F41092BC0406C091E08111E6
:1051600001C090E09093BC048BE090E00E944A194B
:105170008F3F29F4109252011092510105C090E026
:10518000909352018093510180E791E00E94841D29
:1051900080915101909152010E94F41D8CE090E0A9
:1051A0000E943A3060968FAF60978DE090E00E9449
:1051B0003A3061968FAF61978CE090E00E944A1977
:1051C0008F3F29F4109254011092530108C0619648
:1051D0008EAD9FAD6197909354018093530187E604
:1051E00091E00E94841D80915301909154010E948E
:1051F000F41D8EE090E00E944A198F3F29F090E064
:105200009093400180933F0161E089E00E94282251
:1052100061E086E00E94282261E083E00E9428226B
:105220008091BD04833008F083C092E09093F7052D
:10523000E82FF0E0EA50FF4FE491E093F8058F5F2C
:105240008093BD04E13031F1E23009F44AC0E1114C
:1052500072C014BC15BC84B5826084BD85B5816004
:1052600085BD8091F70590E0FC01EA56FE4FE49180
:10527000F0E0EE0FFF1FE451FF4F25913491309382
:10528000AB042093AA04FC01E655FE4FE491E093A1
:10529000A90451C010928000109281008091810079
:1052A000886080938100809181008160809381007B
:1052B0008091F70590E0FC01EA56FE4FE491F0E0A2
:1052C000EE0FFF1FE451FF4F259134913093A80456
:1052D0002093A704FC01E655FE4FE491E093A60459
:1052E0002AC01092B0001092B1008091B00082608C
:1052F0008093B0008091B10081608093B100809173
:10530000F70590E0FC01EA56FE4FE491F0E0EE0F65
:10531000FF1FE451FF4F259134913093A504209352
:10532000A404FC01E655FE4FE491E093A30403C0FE
:105330008FEF8093F80580912C0190912D010E94B0
:10534000E61390932D0180932C0161E08AE00E9486
:10535000282261E088E00E94282260E088E00E9424
:10536000F8211FB7F8948091BE04811127C0E0EAAC
:10537000F1E08491E4EBF1E09491E82FF0E0EE0F9E
:10538000FF1FE750FF4FA591B491EC91E92321F461
:1053900061E08AE00E94F82161E08AE00E94282210
:1053A0008CB580618CBD8CB580648CBD61E08DE076
:1053B0000E94282261E08BE00E9428228091BE0496
:1053C0008F5F8093BE041FBF8CB5837F88608CBDC8
:1053D0008CB58C7F81608CBD8DB581608DBD62E0A8
:1053E0008EE00E94282262E080E10E94282262E092
:1053F0008FE00E94282261E082E00E94282204E1DE
:1054000010E020E030E00093D7061093D8062093F8
:10541000D9063093DA064EE150E060E070E0409348
:10542000DB065093DC066093DD067093DE0680EDAC
:1054300097E0A0E0B0E08093DF069093E006A093B1
:10544000E106B093E2060093BE061093BF062093D8
:10545000C0063093C1064093C2065093C3066093C2
:10546000C4067093C5068093C6069093C706A093A2
:10547000C806B093C9060093A5061093A60620930C
:10548000A7063093A8064093A9065093AA066093F6
:10549000AB067093AC068093AD069093AE06A093D6
:1054A000AF06B093B00680910607811104C00E9438
:1054B000C41E811113C010920407109206071092A7
:1054C00005078FE491E00E94A51D10920407109239
:1054D000060710920507E4E0F7E056C080EF0E944F
:1054E0009A1E01E0F12CE12C11E00E942D1E629623
:1054F0008FAF62970E942D1E62969FAD629791308A
:1055000019F48130C1F435C02F2D30E098131DC03F
:1055100080910407181738F4F901E750F94F838197
:10552000802349F402C0181731F090E0193060F47C
:105530001093050709C0EF2DF0E0E750F94F838184
:10554000802B838391E009C0E12EF901E750F94FE8
:105550002381802F809582238383892F0E94681E58
:105560001F5F000F11F4F39401E027E02F1508F0FE
:10557000BCCF113408F49FCFE0920407E110EFC1D3
:1055800081E080930607EBC1129286E0EC3FF807BA
:10559000D9F78091BB04882309F451C00E94C41E2E
:1055A00085E50E949A1E0FEC14E058E0F52EF00EEF
:1055B000F80181918F010E949A1EF012F9CF8EEBB3
:1055C0000E949A1E03EC14E049E0F42EF00E0E94B3
:1055D000521EF80181938F01FE12F9CF6091C4042D
:1055E00070E0762F66278091C304682B072E000C8D
:1055F000880B990B0E941D2F20E030E040E85DE30E
:105600000E947C2F6B017C010E9480317093C20448
:105610006093C10426E636E646EE5FE3C701B601B5
:105620000E947C2F20E030E040E052E40E94A23053
:105630000E9480317093C0046093BF0404C0109234
:10564000C2041092C10480E291E00E94841D25E012
:1056500030E042E050E067E077E0CE0101967C0167
:105660000E943F0E22E030E041E050E067E077E04A
:10567000CE01875B9F4F0E943F0EBE01675B7F4F4D
:10568000CE018D5B9F4F0E9459216CE373E0CE01E8
:105690008D5B9F4F0E94A20DB7010E94BB0D0E941F
:1056A000FB1ECE018D5B9F4F0E949C0ECE01875B3F
:1056B0009F4F0E949C0EC7010E949C0E84E293E0C3
:1056C0000E94721D8EE093E00E94721D85E191E0C0
:1056D0000E94A51D80912C0190912D019093AD0405
:1056E0008093AC040E94E6136FEF70E089E00E94A3
:1056F00064220E94101F60E070E089E00E94642232
:105700006FEF70E086E00E9464220E94101F60E04C
:1057100070E086E00E9464226FEF70E083E00E94F8
:1057200064220E94101F8EE393E00E94721D8091FC
:105730002F0790913007009711F483E397E0F7016A
:10574000E81BF90BCF010E94F41D6AE473E0C70166
:105750000E94622161E573E0CE0107960E946221FA
:1057600068E573E0CE010D960E9462216FE573E05B
:10577000CE0143960E94622166E673E0CE0149960F
:105780000E9462216DE673E0CE014F960E94622175
:1057900064E773E0CE0185960E9462216BE773E0B7
:1057A000CE018B960E94622162E873E0CE01C19621
:1057B0000E94622169E873E0CE01C7960E946221CF
:1057C00060E173E0CE01CD960E94622167E077E050
:1057D000CE01CD960E94850E8DE091E00E94841D41
:1057E0008091C1049091C2040E94F41D0E94E8229D
:1057F0004B015C01F8EE8F0EF3E09F1EA11CB11C63
:1058000000E01FEF94EFC92EDD24D39426E0722E22
:105810008FE00E94CF21892B09F401E080E10E94F2
:10582000CF21892B09F400E00E94E822DC01CB01A2
:1058300088199909AA09BB0996010D2C000C440B83
:10584000550B281739074A075B07E8F40E94E8223E
:105850004B015C01011101C01F5F1A3019F01B30B0
:1058600029F414C088EBC82E8BE0D82EB701719EA6
:10587000600D711D11248DEE96E00E94850E8DEE57
:1058800096E00E94FB1E0E944C19C2CF83E091E07B
:105890000E94A51D8E010D5B1F4F06501109C80106
:1058A0000E949C0E0E151F05C1F78091BC0481114A
:1058B0000E9462120E940A260091B9041091BA0453
:1058C0000E94E8226B017C0181E08093B8041127DB
:1058D0008091B9049091BA0408171907A9F40E949D
:1058E0000A260E94E822DC01CB018C199D09AE0931
:1058F000BF09893B9B40A105B10550F383E391E0CB
:105900000E94A51D1092B8048090B604F090B704D0
:105910009090B4041091B504A090B2043091B304F7
:10592000B090B9045091BA04C090B0047091B10421
:10593000D090AE04E82C092D2A2D4B2D6C2D8D2DE9
:105940009091AF040E948A242A2D4B2D6C2D8D2D11
:105950000E94A51F0E9415010E942621FBCF809165
:10596000FC06882309F4A7CDACEFB6E0EFECF4E039
:105970008D91819334E0E73DF307D1F781E0809387
:10598000BB0407CE8DEE96E00E949C0E83EF96E05E
:105990000E949C0E87E097E00C949C0E1092FC05F0
:1059A0001092FB0588EE93E0A0E0B0E08093FD0547
:1059B0009093FE05A093FF05B093000629ED32E019
:1059C0003093FA052093F90525EC30E03093060674
:1059D0002093050624EC30E0309308062093070658
:1059E00020EC30E030930A062093090621EC30E0E9
:1059F00030930C0620930B0622EC30E030930E0619
:105A000020930D0626EC30E03093100620930F060D
:105A10001092120610921306109214061092150698
:105A2000109299061092980680939A0690939B067E
:105A3000A0939C06B0939D068BEE92E09093970600
:105A40008093960667E274E087E097E00E94622107
:105A500060E081E10E942822EBEBF1E0E491E09329
:105A6000F906E7EAF1E0E491F0E0EE0FFF1FE457FA
:105A7000FE4F859194919093FB068093FA061092C5
:105A800004071092060710920507E4E0F7E012926F
:105A900086E0EC3FF807D9F760E173E083EF96E02A
:105AA0000E9462216AE473E08DEE96E00E9462211A
:105AB00021E040E06EE084ED96E00E94CF1721E007
:105AC00040E060E18BEB96E00E94CF1721E040E0E0
:105AD0006FE082EA96E00C94CF17CF93DF93823089
