:020000040000FA
:100000000C94D6000C94FE000C94FE000C94FE00A0
:100010000C94FE000C94FE000C94FE000C943E1A0E
:100020000C94FE000C94FE000C94FE000C948D1AAF
:100030000C94FE000C94FE000C94E81A0C94FE0044
:100040000C94F4190C94FE000C94C2190C949C1995
:100050000C94FE000C94FE000C94FE000C94FE0028
:100060000C94431B0C94FE0057616B652075702C3B
:10007000204E656F2100000000080002010000030F
:100080000407000000000000000000000000250040
:1000900028002B0002010000000000240027002A95
:1000A000004661756C74792044533332333121003A
:1000B0004453333233315F543D0053746F702054D6
:1000C0006573740054656D70203D20005374617237
:1000D000742054657374004669726D77617265208F
:1000E00076657273696F6E3A20005761726E696E41
:1000F00067212052544320444F4E275420524553E9
:10010000504F4E44210054656D702E2073656E7300
:100110006F72206E6F7420666F756E642E0054656A
:100120006D7041646A3D00446567722E20666F728F
:100130006D61743D00496E636F7272656374205324
:100140006F6E6720466F726D617421005247423DA9
:100150006F6666005247423D6F6E0076616C756552
:100160003D006D656E75506F736974696F6E3D000B
:1001700073796E630000000000230026002900044C
:10018000040404040404040202020202020303033E
:100190000303030102040810204080010204081038
:1001A00020010204081020009B1C5F2E11241FBE9A
:1001B000CFEFD8E0DEBFCDBF14E0A0E0B1E0E6E0D5
:1001C000F8E602C005900D92AC32B107D9F727E0EE
:1001D000ACE2B4E001C01D92AB32B207E1F710E02F
:1001E000C5EDD0E004C02197FE010E940733C43D55
:1001F000D107C9F70E942C1D0C94F6330C94000013
:100200008CBD9DBD089580911307E0911407F09176
:100210001507F8949181982B91832281382F30957E
:1002200023232283A7E0B0E01197F1F79181932374
:100230009183A3E2B0E01197F1F790817894EFEC0D
:10024000F0E03197F1F7982381E009F480E0089518
:100250000F931F93CF93DF9308E010E0C0E0D1E04D
:100260000E9403018111CD2BDD0F01501109C1F74F
:100270008C2FDF91CF911F910F91089590911307CB
:10028000E0911407F0911507292F209580FF14C0E5
:10029000F8948281822382838181892B8183A3E2E6
:1002A000B0E01197F1F78281982B9283789487EDD3
:1002B00090E00197F1F70895F89482818223828378
:1002C0008181892B8183AFEFB0E01197F1F78281B3
:1002D000982B928378948FE090E0EBCF0F931F934D
:1002E000CF93DF93082FC8E0D0E011E081E0902F9A
:1002F000912309F480E00E943E01110F2197B1F78C
:10030000F894E0911407F0911507918180911307FB
:10031000809598239183E0911407F09115079281BD
:10032000892382837894DF91CF911F910F91089553
:1003300080911307E0911407F0911507F8949181CB
:10034000282F20959223918378943DE743E050E055
:10035000315029F1DA011197F1F790819823C1F317
:10036000F8949281922392839181982B918378942F
:10037000ABE7B7E01197F1F7F8949181922391835D
:10038000A3E1B1E01197F1F79081982381E009F0A2
:1003900080E07894E3E6F6E03197F1F7089580E0A5
:1003A0000895089508950895AF92BF92CF92DF9275
:1003B000EF92FF920F931F93CF93DF936C017B011A
:1003C0008B01040F151FEB015E01AE18BF08C017AB
:1003D000D10759F06991D601ED91FC910190F0811E
:1003E000E02DC6010995892B79F7C501DF91CF91E1
:1003F0001F910F91FF90EF90DF90CF90BF90AF9043
:100400000895FC01538D448D252F30E0842F90E01A
:10041000821B930B541710F0CF96089501970895FF
:10042000FC01918D828D981761F0A28DAE0FBF2FC8
:10043000B11D5D968C91928D9F5F9F73928F90E01E
:1004400008958FEF9FEF0895FC01918D828D98178D
:1004500031F0828DE80FF11D858D90E008958FEFCA
:100460009FEF0895FC01918D228D892F90E0805C93
:100470009F4F821B91098F739927089583E196E01E
:100480000E94320221E0892B09F420E0822F089596
:1004900080E090E0892B29F00E943E0281110C94AB
:1004A00000000895FC01A48DA80FB92FB11DA35A17
:1004B000BF4F2C91848D90E001968F739927848F84
:1004C000A689B7892C93A089B1898C9183708064A7
:1004D0008C93938D848D981306C00288F389E02D48
:1004E00080818F7D80830895EF92FF920F931F93F9
:1004F000CF93DF93EC0181E0888F9B8D8C8D9813D7
:100500001AC0E889F989808185FF15C09FB7F894E2
:10051000EE89FF896083E889F9898081837080642E
:1005200080839FBF81E090E0DF91CF911F910F9179
:10053000FF90EF900895F62E0B8D10E00F5F1F4F88
:100540000F731127E02E8C8D8E110CC00FB607FC97
:10055000FACFE889F989808185FFF5CFCE010E9425
:100560005202F1CFEB8DEC0FFD2FF11DE35AFF4F3F
:10057000F0829FB7F8940B8FEA89FB8980818062B3
:10058000CFCF0F931F93CF93DF938C01D0E0C0E0C8
:10059000F801EC0FFD1F6491662341F083E196E0C2
:1005A0000E947402892B11F02196F2CFCE01DF91C7
:1005B000CF911F910F910895CF93DF93EC01888D18
:1005C0008823B9F0AA89BB89E889F9898C9185FDCE
:1005D00003C0808186FD0DC00FB607FCF7CF8C915C
:1005E00085FFF2CF808185FFEDCFCE010E945202C0
:1005F000E9CFDF91CF910895833081F028F48130E5
:1006000099F08230A9F008958730A9F08830C9F0B8
:100610008430B1F4809180008F7D03C08091800090
:100620008F7780938000089584B58F7784BD089577
:1006300084B58F7DFBCF8091B0008F778093B00021
:1006400008958091B0008F7DF9CFCF93DF93282F4D
:1006500030E0F901EA58FF4F8491F901ED56FE4F61
:10066000D491F901E158FE4FC491CC23A1F081113E
:100670000E94FC02EC2FF0E0EE0FFF1FEB58FE4F44
:10068000A591B491EC91ED2381E090E009F480E034
:10069000DF91CF91089580E090E0FACF1F93CF9340
:1006A000DF93282F30E0F901EA58FF4F8491F901D8
:1006B000ED56FE4FD491F901E158FE4FC491CC2381
:1006C000A9F0162F81110E94FC02EC2FF0E0EE0F32
:1006D000FF1FE657FF4FA591B4918FB7F894EC91A7
:1006E000111108C0D095DE23DC938FBFDF91CF912D
:1006F0001F910895DE2BF8CFCF93DF9390E0FC019C
:10070000ED56FE4F249181589E4FFC018491882321
:10071000C9F090E0880F991FFC01E956FF4FA591A1
:10072000B491FC01E657FF4FC591D49161110DC002
:100730009FB7F8948C91209582238C9388812823ED
:1007400028839FBFDF91CF910895623051F49FB706
:10075000F8943C91822F809583238C93E8812E2BF3
:10076000EFCF8FB7F894EC912E2B2C938FBFEACF5D
:100770004F925F926F927F928F929F92AF92BF92B1
:10078000CF92DF92EF92FF920F931F93CF93DF935D
:1007900000D000D01F92CDB7DEB72091120627FD02
:1007A0002CC149835A836B837C838C0161E08091E7
:1007B00011060E947C03809112068D834801B12CA2
:1007C000A12C8D7F09F031C160E072E18AE790E0F1
:1007D000A50198010E94E83229013A017A016901D4
:1007E00091E0C91AD108E108F108AFEFCA16D104A7
:1007F000E104F10409F00CF4C7C060E472E48FE096
:1008000090E0A50198010E94E83269017A01B1E007
:10081000CB1AD108E108F1088D81823009F06AC055
:1008200082E09FEFC916D104E104F10409F00CF451
:100830005EC160E970ED83E090E0A50198010E943F
:10084000E83269017A01A1E0CA1AD108E108F10889
:1008500083E0BFEFCB16D104E104F10409F00CF4FE
:1008600046C168E478EE81E090E0A50198010E941D
:10087000E83269017A0181E0C81AD108E108F1087B
:1008800084E09FEFC916D104E104F10409F00CF4EF
:100890002EC164E274EF80E090E0A50194010E9413
:1008A000E83269017A01B1E0CB1AD108E108F10818
:1008B00085E09FEFC916D104E104F10409F008F4C2
:1008C00016C162E17AE780E090E0A50194010E9400
:1008D000E83269017A01B1E0CB1AD108E108F108E8
:1008E0008FEFC816D104E104F10411F008F0F0C054
:1008F00086E0FDC08FEFC816D104E104F10409F0D1
:100900000CF491C068E478EE81E090E0A5019801D4
:100910000E94E83269017A0191E0C91AD108E10820
:10092000F108AD8184E0A111C4CF83E0AFEFCA1616
:10093000D104E104F10461F15CF162E17AE780E065
:1009400090E0A50194010E94E83269017A0181E0FA
:10095000C81AD108E108F10884E09FEFC916D10454
:10096000E104F104A9F0A0F0730162019AE0F594AA
:10097000E794D794C7949A95D1F7A1E0CA1AD10801
:10098000E108F10885E004C081E0AD81A111AFC0AC
:1009900095B5987F892B85BD89819A81AB81BC8172
:1009A0002FEF3FEFA901892B8A2B8B2B79F0D801F0
:1009B000AA0FBB1F29813A814B815C810E943B3188
:1009C00028EE33E040E050E00E94C6329D81913035
:1009D00009F45CC0923009F46BC091110EC0C7BC21
:1009E00020930D0630930E0640930F065093100689
:1009F00080916E00826080936E000F900F900F9038
:100A00000F900F90DF91CF911F910F91FF90EF907A
:100A1000DF90CF90BF90AF909F908F907F906F901E
:100A20005F904F90089582E0B0CF60E072E18AE776
:100A300090E0A50198010E94E83269017A01B1E0D5
:100A4000CB1AD108E108F10891E0C114D10481E08A
:100A5000E806F10484F068E478EE81E090E0A50116
:100A600098010E94E83269017A0191E0C91AD1081F
:100A7000E108F10893E0AD81A13009F08DCF8091BC
:100A80008100887F892B8093810086CFD092890056
:100A9000C09288002093090630930A0640930B0603
:100AA00050930C0680916F00826080936F00A5CFF9
:100AB000C092B300209305063093060640930706C4
:100AC000509308068091700082608093700095CFEB
:100AD000730162018AE0F594E794D794C7948A95EC
:100AE000D1F7B1E0CB1AD108E108F10887E0909185
:100AF000B100987F892B8093B1004ECF1F93CF9385
:100B0000DF93182FEB0161E00E947C03209739F4FA
:100B100060E0812FDF91CF911F910C944E03CF3F66
:100B2000D10511F461E0F5CFE12FF0E0EA58FF4F75
:100B3000E491E33031F140F4E130B1F0E230E1F042
:100B4000C038D1057CF7E4CFE73029F1E83059F11E
:100B5000E430B1F780918000806280938000D09370
:100B60008B00C0938A0004C084B5806884BDC7BD73
:100B7000DF91CF911F91089584B5806284BDC8BD77
:100B8000F7CF80918000806880938000D0938900A7
:100B9000C0938800EDCF8091B00080688093B00052
:100BA000C093B300E5CF8091B00080628093B00025
:100BB000C093B400DDCF3FB7F8948091E7049091E3
:100BC000E804A091E904B091EA0426B5A89B05C009
:100BD0002F3F19F00196A11DB11D3FBFBA2FA92FBC
:100BE000982F8827BC01CD01620F711D811D911DB9
:100BF00042E0660F771F881F991F4A95D1F7089525
:100C00008F929F92AF92BF92CF92DF92EF92FF921C
:100C10004B015C010E94DB056B017C010E94DB053E
:100C20006C197D098E099F09683E73408105910505
:100C3000A8F321E0821A9108A108B10888EEC80E35
:100C400083E0D81EE11CF11C81149104A104B104BD
:100C500029F7FF90EF90DF90CF90BF90AF909F90DB
:100C60008F9008952FB7F8946091E3047091E40495
:100C70008091E5049091E6042FBF08956093D70416
:100C80007093D8048093D9049093DA04645D7E4F06
:100C90008F4F9F4F6093D3047093D4048093D504F7
:100CA0009093D60482E090E09093D2048093D10494
:100CB0000E9432066093CD047093CE048093CF04DB
:100CC0009093D00408952F923F924F925F926F922B
:100CD0007F928F929F92AF92BF92CF92DF92EF92CC
:100CE000FF920F931F93CF93DF93382E962E842E6F
:100CF000222E84E6E816F1040CF459C092EBE91AAE
:100D000097E0F90AE092E1040093E0042092DF0406
:100D10003092DD049092DC048092DB04AE2DB0E0D2
:100D200020E833E341EE51E00E943B312B013C01CE
:100D300022EB37E0FF24E4E6F0E0C0E9D1E0C901AE
:100D4000825B97408E159F05B4F19EE4E91A98EFF7
:100D5000F90AC70164E670E00E94B2326C01C70173
:100D600060E971E00E94B2325C01CBEDD1E0E1E0DC
:100D7000F0E0112783E0E822FF24E017F1070CF0F0
:100D800042C0E230F10591F5E114F10479F5C114A6
:100D9000D10419F4A114B10449F580E8480E8BE39D
:100DA000581E86E2681E711C31962196E6CF8EE1B0
:100DB000E80EF11CA7CFC90183709927892B99F4FC
:100DC000C901BF010E94B232892B31F4C901BE01B1
:100DD0000E94B232892B39F490E8490E91E5591EF0
:100DE00091E0691E711C2F5F3F4FA9CFA881B0E031
:100DF00020E831E541E050E00E943B31460E571EAD
:100E0000681E791ED1CF292D30E0ACE3B0E00E94FE
:100E10007D316B017C01C80CD11CE11CF11C232D20
:100E200030E0A0E1BEE00E947D31C60ED71EE81E74
:100E3000F91E822D8150990BDC0120E831E541E05B
:100E400050E00E940D336C0D7D1D8E1D9F1D640DA5
:100E5000751D861D971DDF91CF911F910F91FF90FA
:100E6000EF90DF90CF90BF90AF909F908F907F904A
:100E70006F905F904F903F902F900C943E06CF92D2
:100E8000DF92EF92FF920F931F930E9432068B0125
:100E90009C01C090CD04D090CE04E090CF04F0909F
:100EA000D0046091D7047091D8048091D9049091B6
:100EB000DA040C191D092E093F09083E13402105CB
:100EC0003105E0F0DC01CB010196A11DB11D80933D
:100ED000D7049093D804A093D904B093DA04B7014F
:100EE000A60148515C4F6F4F7F4F4093CD04509304
:100EF000CE046093CF047093D004C7CF1F910F919D
:100F0000FF90EF90DF90CF9008954F925F926F9295
:100F10007F928F929F92AF92BF92CF92DF92EF9289
:100F2000FF920F931F93CF93DF934B015C0180914E
:100F3000C9049091CA04A091CB04B091CC04881547
:100F40009905AA05BB0509F4C6C08CE3C82ED12CAF
:100F5000E12CF12CC501A70196010E94C6326093D5
:100F6000DB04CA01B901A70196010E94C632609351
:100F7000DC04C501B40120E13EE040E050E00E9405
:100F8000C632CA01B90128E130E040E050E00E94D9
:100F9000C6326093DD04C501B40120E831E541E0CB
:100FA00050E00E94C63269017A01CA01B9016C5F42
:100FB0007F4F8F4F9F4F27E030E040E050E00E948E
:100FC000C6326F5F6093DE04412C512C320140E049
:100FD00004E610E0C0E9D1E0242F30E02E54384F71
:100FE000F901E370FF273097F9F4C901B8010E94B5
:100FF000B232892B31F4C901BE010E94B232892B71
:1010000099F48EE691E0A0E0B0E0480E591E6A1E09
:101010007B1ED301C201AA27BB27C816D906EA0640
:10102000FB0638F04F5FD8CF8DE691E0A0E0B0E04E
:10103000ECCF4093E104C90164E670E00E94B23253
:10104000EC01C90160E971E00E94B232309721F4ED
:101050002097D9F40097C9F04DE651E060E070E0C8
:10106000441A550A660A770AC418D508E608F7082C
:10107000ABEDB1E020E0213069F43097E9F520973D
:1010800011F40097C9F54DE106C04EE651E060E06D
:1010900070E0E6CF4C9150E070E060E031E0320F5C
:1010A000C416D506E606F70640F0C41AD50AE60AC5
:1010B000F70A1196232F3C30F1F62F5F2093E004BE
:1010C000C394C092DF048092C9049092CA04A09293
:1010D000CB04B092CC04DF91CF911F910F91FF9080
:1010E000EF90DF90CF90BF90AF909F908F907F90C8
:1010F0006F905F904F9008954CE1CDCF0E943F07D5
:101100000E9485078091E10490E08E54984F0895E5
:101110000E943F070E9485078091E00490E00895B7
:101120000E943F070E9485078091DF0490E00895A8
:101130000E943F070E9485078091DB0490E008959C
:101140000E943F070E9485078091DC0490E008958B
:101150000E943F070E9485078091DD0490E008957A
:10116000CF92DF92EF92FF92CF93DF93EC010E9438
:1011700032066B017C018F850E9425039C0181E072
:101180002115310509F480E0898B8889811105C01A
:1011900091E0232B09F090E0998B29898A892817FF
:1011A00021F0CD8ADE8AEF8AF88E8D899E89AF89FB
:1011B000B88DB701A601481B590B6A0B7B0BDB01ED
:1011C000CA01CB80DC80ED80FE80C816D906EA0615
:1011D000FB0664F43A81231749F02A83222349F05D
:1011E0004B895C894F5F5F4F5C8B4B8B3A81311130
:1011F00017C0CF80D884E984FA84C816D906EA06D5
:10120000FB0634F48B899C89998388831C8A1B8A0A
:101210002A8BDF91CF91FF90EF90DF90CF900895D0
:10122000CB84DC84ED84FE84C816D906EA06FB066E
:101230007CF78B899C89919581959109E5CF2091C7
:10124000A604260F3327331F21323105ECF42091F9
:10125000DB05FC0190E080E0243069F082E0089535
:10126000A091A6042191AC014A575B4FA40FB52F62
:10127000B11D2C930196861798F38091A604680FF0
:101280006093A60480E0089581E008951092DB0544
:1012900081E08093DA051092B50561E082E10E9459
:1012A0004E0361E083E10E944E03E9EBF0E08081B0
:1012B0008E7F808380818D7F808388E48093B800D7
:1012C00085E48093BC000895CF93DF9391E09093E1
:1012D00085048823B9F0C091B800D091BA008091FC
:1012E000BC008A7B8093BC0060E082E10E944E03D8
:1012F00060E083E10E944E030E944609D093BA0049
:10130000C093B800DF91CF910895CF92DF92EF9212
:10131000FF920F931F93CF93DF93D091040681E048
:10132000D13208F09CC0C09103060E94DB056B011E
:101330007C018091DB0581116CC082E08093DB052C
:1013400081E08093DA058FEF8093D9051092D8055C
:10135000D093D705A3EEB5E0E7EBF5E080E0D81336
:101360008DC01092B6058091B605CC0FC82BC093E6
:10137000B6058091B505813009F084C01092B5059D
:101380000E94DB056B017C018091B6058093BB0058
:101390008091DD059091DE05A091DF05B091E0051B
:1013A000892B8A2B8B2BA1F00E94DB050091DD0598
:1013B0001091DE052091DF053091E0056C197D0963
:1013C0008E099F09061717072807390708F442C036
:1013D0008091BC0083FDD8CF85EC8093BC000E9437
:1013E000DB056B017C018091DB05823009F44CC088
:1013F0008091D9058F3F09F469C08091D905803269
:1014000009F466C08091D905803309F463C084E093
:1014100026C08091DD059091DE05A091DF05B09199
:10142000E005892B8A2B8B2B09F483CF0E94DB05E7
:101430000091DD051091DE052091DF053091E0057A
:101440006C197D098E099F090617170728073907A8
:1014500008F06FCF8091DC050E94640985E010924E
:10146000E205109204061092E105DF91CF911F91E1
:101470000F91FF90EF90DF90CF9008959D91919301
:101480008F5F6DCF85EEA9CF8091DD059091DE0550
:10149000A091DF05B091E005892B8A2B8B2B09F4F5
:1014A000A2CF0E94DB050091DD051091DE052091A1
:1014B000DF053091E0056C197D098E099F0906173B
:1014C00017072807390708F08ECFC4CF80E0C7CFB1
:1014D00082E0C5CF83E0C3CFCF92DF92EF92FF923D
:1014E0000F931F93CF93DF93D82FC62F613208F04D
:1014F00098C00E94DB056B017C018091DB058111A6
:101500006BC081E08093DB058093DA059FEF9093B9
:10151000D9051092D8059C0F9093D7058093B605F6
:101520008091B605DD0FD82BD093B6058091B50517
:10153000813009F078C01092B5050E94DB056B017F
:101540007C018091B6058093BB008091DD05909170
:10155000DE05A091DF05B091E005892B8A2B8B2B4E
:10156000A1F00E94DB050091DD051091DE052091C0
:10157000DF053091E0056C197D098E099F0906177A
:1015800017072807390708F448C08091BC0083FD7D
:10159000D8CF85EC8093BC000E94DB056B017C01F9
:1015A0008091DB05813009F440C08091D8058C170B
:1015B00010F4C091D805E7EBF5E0A5E9B5E080E0CF
:1015C0008C1355C08C2FDF91CF911F910F91FF90FD
:1015D000EF90DF90CF9008958091DD059091DE052A
:1015E000A091DF05B091E005892B8A2B8B2B09F4A4
:1015F00084CF0E94DB050091DD051091DE0520916E
:10160000DF053091E0056C197D098E099F090617E9
:1016100017072807390708F070CF8091DC050E9472
:101620006409C0E0CFCF85EEB5CF8091DD05909104
:10163000DE05A091DF05B091E005892B8A2B8B2B6D
:1016400009F4AECF0E94DB050091DD051091DE05A7
:101650002091DF053091E0056C197D098E099F0905
:10166000061717072807390708F09ACFD6CF9191A8
:101670009D938F5FA5CF0895E091FC048091FB04BA
:10168000E81730F4F0E0EB56FA4F808190E00895CF
:101690008FEF9FEF08959091FC048091FB042FEF52
:1016A0003FEF981748F4E92FF0E0EB56FA4F20810E
:1016B00030E09F5F9093FC04C90108958091FB0482
:1016C0009091FC04891B990B0895CF92DF92EF92C1
:1016D000FF920F931F93CF93DF937C01CB018A017D
:1016E0002091E105222389F0EB016B01C40ED51E88
:1016F000CC15DD0569F06991D701ED91FC91019060
:10170000F081E02DC7010995F3CF642F0E941F09D6
:10171000C801DF91CF911F910F91FF90EF90DF9063
:10172000CF900895CF93DF931F92CDB7DEB7698333
:101730002091E1052223F9F020910406203258F08F
:1017400021E030E0FC013383228390E080E00F90C1
:10175000DF91CF9108958091E205E82FF0E0ED51FF
:10176000FA4F998190838F5F8093E20580930406FE
:1017700081E090E0ECCF61E0CE0101960E941F096C
:10178000F7CFDF92EF92FF920F931F93CF93DF93E8
:10179000182FF62ED42ED22F81E08093E10588E613
:1017A000809303061092E2051092040660E080EB3D
:1017B00096E00E94920BCAE08D2D6C2F0E94A632FB
:1017C0008295807F682F690F80EB96E00E94920BD4
:1017D0008F2D6C2F0E94A6328295807F682F690F13
:1017E00080EB96E00E94920B812F6C2F0E94A63214
:1017F0008295807F682F690F80EB96E00E94920BA4
:1018000061E080EB96E00E94920B8D2F6C2F0E947E
:10181000A6328295807F682F690F80EB96E00E9448
:10182000920B802F6C2F0E94A6328295807F682FAA
:10183000690F80EB96E00E94920B8E2D6C2F0E9418
:10184000A6328295807F682F690F80EB96E00E9418
:10185000920B60E080EB96E00E94920BDF91CF91BB
:101860001F910F91FF90EF90DF900C94850990E00D
:1018700080E0089540918304509184042091810474
:101880003091820480E09CE34217530711F48FEFFC
:101890009FEF4F5F5F4F4630510529F0509384040E
:1018A00040938304089510928404109283042F5F60
:1018B0003F4F2630310529F0309382042093810474
:1018C000089510928204109281040895CF92DF92BD
:1018D000EF92FF920F931F93CF93DF93909110019C
:1018E00091110BC08FEF9FEFDF91CF911F910F915F
:1018F000FF90EF90DF90CF90089590910D01992384
:1019000089F3082FC0917C05D0917D0580917904E1
:1019100081110DC00E9432066093750470937604A5
:10192000809377049093780481E0809379040E94F7
:101930003206C0907504D0907604E0907704F09061
:1019400078046C197D098E099F096D3271408105FB
:101950009105B0F0109174040E94320660937504F2
:1019600070937604809377049093780491E09127A4
:1019700090937404992331F11092730410927204BD
:1019800020917204309173042095309580917705F1
:10199000282326FF1CC081E08093710427FF1AC012
:1019A00081E08093700480917404882309F49ACFB5
:1019B00002C0D595C7950A95E2F7C0FF93CF80E0A6
:1019C0009CE392CFD0937304C0937204D9CF10924A
:1019D0007104E4CF10927004E6CFCF92DF92EF92C1
:1019E000FF921F93CF93DF93182F8091640481118E
:1019F0000DC00E943206609360047093610480936E
:101A000062049093630481E080936404C0915E0457
:101A1000D0915F04C930D10508F05EC0FE01ED5ED3
:101A2000F24F0C9407331C0D280D2C0D3A0D1C0D94
:101A3000280D600D620D670D0E9498012196CA3035
:101A4000D10509F096C010925F0410925E0428C080
:101A50008CEC0E946E01F2CF84E40E946E010E9421
:101A600032066093600470936104809362049093E3
:101A70006304E4CF0E943206C0906004D0906104F9
:101A8000E0906204F09063046C197D098E099F094F
:101A9000C4E0D0E06E3E72408105910508F069C057
:101AA00060915A0470915B0480915C0490915D0494
:101AB000DF91CF911F91FF90EF90DF90CF9008952D
:101AC0008EEBC7CF0E94280180935804B7CF0E94A5
:101AD000280180935904B2CFC930D10509F0AECFA7
:101AE00060915804709159046F3F760711F470E0CB
:101AF00060E0072E000C880B990B0E94083020E054
:101B000030E040E85DE30E9467306B017C0160914A
:101B1000350170913601072E000C880B990B0E943D
:101B2000083020E030E040E251E40E94F931A701A2
:101B300096010E948D3111110FC020E030E040E28B
:101B400051E40E94673060935A0470935B04809361
:101B50005C0490935D0472CF26E636E646EE5FE3C2
:101B60000E94673020E030E040E052E40E948D3176
:101B7000E4CFD0935F04C0935E0492CFCF93DF9302
:101B8000EC012196FC0120812A33C9F421812436FD
:101B900009F5229630E020E06AE0899190ED980FF7
:101BA0009A3078F4629FA001639F500D1124082E93
:101BB000000C990BC0979A01280F391FEECFCE0168
:101BC000DFCF30931A05209319052115310511F047
:101BD0002093050188818F3689F48A81082E000CB4
:101BE000990B9C012053310930931A052093190554
:101BF000C397059710F420930401249688818236B8
:101C0000F1F4229630E020E06AE0899190ED980F9F
:101C10009A3068F4629FA001639F500D1124082E32
:101C2000000C990BC0979A01280F391FEECF309303
:101C30001A0520931905309301012093000120918A
:101C4000000130910101032E000C440B550B60E69E
:101C50007AEE80E090E00E94E83282E0220F331FAB
:101C6000441F551F8A95D1F720931505309316050B
:101C70004093170550931805CE01DF91CF91089539
:101C80008EBD00000DB407FEFDCF8EB50895CF9335
:101C900081E08093E10588E6809303061092E205D7
:101CA0001092040660E080EB96E00E94920B0E9486
:101CB000850967E088E60E946C0A1092FC04809314
:101CC000FB0480EB96E00E944B0B982F92959F703F
:101CD000CAE08F709C9F800D112490E090938D0539
:101CE00080938C0580EB96E00E944B0B982F929589
:101CF0009F708F709C9F800D112490E090938B05B6
:101D000080938A0580EB96E00E944B0B982F92956A
:101D100093708F709C9F800D112490E090938905A3
:101D20008093880580EB96E00E944B0B80EB96E059
:101D30000E944B0B982F92959F708F709C9F800DE7
:101D4000112490E090938F0580938E0580EB96E0B0
:101D50000E944B0B982F92959F708F709C9F800DC7
:101D6000112490E0909391058093900580EB96E08C
:101D70000E944B0B982F92959F708F709C9F800DA7
:101D8000112490E09093930580939205CF9108954C
:101D9000FC0101900020E9F73197AF01481B590B76
:101DA000BC0183E196E00C94D401CF93DF930E94B1
:101DB000C102EC0183E093E00E94C80E8C0F9D1FCE
:101DC000DF91CF9108950F931F9380912F019091F0
:101DD0003001892B09F44DC0809130048823A9F08B
:101DE0000E94320600912C0410912D0420912E04A3
:101DF00030912F04601B710B820B930B693E734073
:101E000081059105B0F1109230040E94A80820913C
:101E1000290130912A018217930759F50E94A008E1
:101E200020912B0130912C018217930711F50E940C
:101E3000980820912D0130912E0182179307C9F443
:101E40000E94320660932C0470932D0480932E041C
:101E500090932F0481E08093300488E690E00E9404
:101E6000D50E809102019091030190938705809394
:101E700086051F910F9108958F929F92AF92BF9206
:101E80000F931F93CF93DF93CDB7DEB7A1970FB614
:101E9000F894DEBF0FBECDBF19A2423008F44AE06D
:101EA0008E010F5D1F4F842E912CB12CA12CA5010A
:101EB00094010E94C632E62FB901CA01EA30F4F457
:101EC000E05DD801EE938D01232B242B252B79F790
:101ED00090E080E0109719F0CD010E94C80EA19605
:101EE0000FB6F894DEBF0FBECDBFDF91CF911F912B
:101EF0000F91BF90AF909F908F900895E95CE1CFD4
:101F0000CF92DF92EF92FF92CF93DF936C01990F04
:101F1000EE08FF08F7FE1FC06DE283E196E00E9425
:101F20007402EC0166277727CB016C197D098E09B5
:101F30009F094AE00E943C0FC80FD91F83E093E03D
:101F40000E94C80E8C0F9D1FDF91CF91FF90EF90E4
:101F5000DF90CF9008954AE0C701B6010E943C0F80
:101F6000EC01ECCFCF93DF93FC014481558160817C
:101F7000718183E196E00E94D401EC0183E093E05B
:101F80000E94C80E8C0F9D1FDF91CF9108950C9475
:101F90002D310C94253188E090E00E94C90F682F04
:101FA00070E089E00E947E0589E090E00E94C90F00
:101FB000682F70E086E00E947E058AE090E00E9433
:101FC000C90F682F70E083E00C947E05FC018081CE
:101FD0009181009711F00C94902F60E070E0CB019C
:101FE00008952F923F924F925F926F927F928F92BD
:101FF0009F92AF92BF92CF92DF92EF92FF920F9398
:102000001F93CF93DF93CDB7DEB72C970FB6F8941D
:10201000DEBF0FBECDBF0E94DB0500916C041091A6
:102020006D0420916E0430916F04601B710B820B64
:10203000930B683B7B408105910508F4C2C10E9467
:10204000DB0560936C0470936D0480936E04909331
:102050006F0487E097E00E94E60F69837A838B83A1
:102060009C8360E08AE00E944E031AE0812E912C4E
:10207000A12CB12C69817A818B819C81A50194016D
:102080000E94E83269017A01660F771F69537E4F1B
:10209000DB012D903C9085E090E00E94660C9E83D1
:1020A0008D830E943A0C3C01C701B601A501940141
:1020B0000E94E832660F771F69537E4FFB01C08094
:1020C000D18084E090E00E94660C2C010E943A0CC2
:1020D0008C0169817A818B819C8124E630E040E02B
:1020E00050E00E94E832CA01B901A50194010E94A2
:1020F000E832660F771F69537E4FDB01AD90BC90CD
:1021000083E090E00E94660C7C010E943A0C4D81B5
:102110005E81462157214221532170E060E024E195
:10212000440F551F661F771F2A95D1F78E219F21D7
:102130008A219B21B0E0A0E0842B952BA62BB72B06
:1021400040225122C420D520F12CE12C3AE0CC0CC5
:10215000DD1CEE1CFF1C3A95D1F7C82AD92AEA2AC1
:10216000FB2A69817A818B819C8128EE33E040E0F3
:1021700050E00E94E83229013A01809171048823DD
:1021800009F4FDC06894F6F880917004882309F47E
:10219000F9C06894F7F81091FA048F2D9927AA27AF
:1021A000BB278D839E83AF83B8874701AA24BB24B6
:1021B000BB27AF2D9E2D8D2D89879A87AB87BC8736
:1021C000112309F4E2C08C2D0E94400E89850E94E3
:1021D000400E882D0E94400E8D810E94400E3AE0F4
:1021E000832E912CA12CB12CC301B201A501940125
:1021F0000E94E832660F771F69537E4FDB014D90D6
:102200005C9082E090E00E94660C7C010E943A0C97
:102210006C0169817A818B819C8120E137E240E009
:1022200050E00E94E832CA01B901A50194010E9460
:10223000E832660F771F69537E4FFB010190F081F2
:10224000E02DFE83ED8381E090E00E94660C3C016E
:102250000E943A0CCE20DF20C420D520F12CE12CA6
:1022600064E1CC0CDD1CEE1CFF1C6A95D1F78621C5
:1022700097212D813E8182239323B0E0A0E07AE074
:10228000880F991FAA1FBB1F7A95D1F7C82AD92A90
:10229000EA2AFB2A69817A818B819C8120EA36E8CF
:1022A00041E050E00E94E832CA01B901A501940161
:1022B0000E94E832660F771F69537E4FDB01AD90B5
:1022C000BC9090E080E00E94660C9A8389830E9413
:1022D0003A0CE981FA818E239F238A219B21B0E069
:1022E000A0E08C299D29AE29BF29209171046C01A1
:1022F0007D01222309F454C06894F6F8809170049B
:10230000882309F450C06894F7F84F2C55246624AC
:1023100077244701AA24BB24BB27AF2D9E2D8D2DEA
:1023200089839A83AB83BC83112309F43FC08C2D2E
:102330000E94400E89810E94400E882D0E94400E0E
:10234000842D0E94400E61E08AE02C960FB6F8942E
:10235000DEBF0FBECDBFDF91CF911F910F91FF90D8
:10236000EF90DF90CF90BF90AF909F908F907F9035
:102370006F905F904F903F902F900C944E03E89495
:10238000F6F802CFE894F7F806CF8D810E94400E50
:10239000882D0E94400E89850E94400E8C2D1DCFF5
:1023A000E894F6F8ABCFE894F7F8AFCF842D0E940D
:1023B000400E882D0E94400E89810E94400E8C2D77
:1023C000C0CF2C960FB6F894DEBF0FBECDBFDF9105
:1023D000CF911F910F91FF90EF90DF90CF90BF9022
:1023E000AF909F908F907F906F905F904F903F90B5
:1023F0002F9008950F931F93CF93DF938C01EB01E0
:10240000FC01808191810097E1F0688179816115FB
:102410007105A9F0428153812C813D8142175307F8
:1024200070F00E94EF338C819D81F8019583848345
:102430001D821C82DF91CF911F910F9108950E9400
:10244000072F88819981F801918380838A819B81FC
:10245000938382838C819D819583848319821882E2
:102460001B821A82E5CFCF93DF93EC01888199819B
:10247000009711F00E94072F198218821D821C827A
:102480001B821A82DF91CF910895FC018081918196
:10249000009711F00C94072F08950F931F93CF937B
:1024A000DF93EC0188819981009759F02A813B8163
:1024B0002617370730F081E0DF91CF911F910F9100
:1024C00008958B016F5F7F4F0E942933009759F069
:1024D000998388831B830A832C813D81232B59F7A1
:1024E000FC011082E8CF80E0E7CFEF92FF920F93DC
:1024F0001F93CF93DF936115710541F480E0DF9165
:10250000CF911F910F91FF90EF90089541155105C4
:10251000B1F07B01EC010C811D81040F151FB80186
:102520000E944D12882351F3288139818C819D812D
:10253000B701820F931F0E94EF331D830C8381E04C
:10254000DECFCF93DF93EC01FB0101900020E9F790
:102550003197AF01461B570B0E947512811103C0C2
:10256000CE010E943312CE01DF91CF910895CF9317
:10257000DF93EC01FB0144815581608171810E94F0
:102580007512811103C0CE010E943312CE01DF917A
:10259000CF910895EF92FF920F931F93CF93DF9304
:1025A000EC017B018A01BA010E944D1281110BC01E
:1025B000CE010E943312CE01DF91CF911F910F9176
:1025C000FF90EF9008951D830C83B7018881998156
:1025D0000E94EF33F0CFFB0101900020E9F7319723
:1025E000AF01461B570B0C94CA120F931F93CF9346
:1025F000DF93CDB7DEB762970FB6F894DEBF0FBE9C
:10260000CDBF8C01CB01F80111821082138212829E
:10261000158214824AE0BE016F5F7F4F0E94B72F80
:10262000BE016F5F7F4FC8010E94EB1262960FB62A
:10263000F894DEBF0FBECDBFDF91CF911F910F91F8
:102640000895CF93DF93EC01FB018617970749F0BC
:10265000608171816115710541F0448155810E944D
:10266000CA12CE01DF91CF9108950E943312F9CFA3
:10267000FC011182108213821282158214820C9442
:102680002113FC011182108213821282158214829E
:10269000FB0101900020E9F73197AF01461B570B72
:1026A0000C94CA12AF92BF92CF92DF92EF92FF9238
:1026B0000F931F93CF93DF936C015B017A01890124
:1026C0002417350720F48F2D7901042F182F65E08A
:1026D00073E0C6010E944113D5011496CD91DC919F
:1026E000EC16FD06E0F40C171D0708F4E801D5010F
:1026F000ED91FC911197EC0FFD1F108110826D91EF
:102700007C916E0D7F1DC60161157105A1F00E94BF
:10271000EB12F50180819181C80FD91F1883C60182
:10272000DF91CF911F910F91FF90EF90DF90CF90AD
:10273000BF90AF9008950E943312EBCF4F925F92FB
:102740006F927F928F929F92AF92BF92CF92DF92C1
:10275000EF92FF920F931F93CF93DF9300D000D09F
:1027600000D0CDB7DEB77C014B015A0180916505E1
:1027700081113AC081E08093650598E3692E94E069
:10278000792E22E3422E24E0522E10E000E00F5F6B
:102790001F4F680181E0C81AD1089801A601B40151
:1027A000CE0101960E945213CE0101960E94E60FBF
:1027B000D3016D933D01CE0101960E94451298010F
:1027C000A601B501CE0101960E945213CE010196D9
:1027D0000E94E60FF20161932F01CE0101960E9443
:1027E00045120630110599F69091310488E3C82E00
:1027F00084E0D82EE2E3F4E08601A801D8018C91B0
:102800009A3008F04DC08F5F8C930F5F1F4FDA0135
:102810008C918A3019F4D80111971C923196B4E04A
:102820000E331B0751F79F5F943109F43FC090931B
:10283000310465E073E0C7010E944113FE01319647
:102840005F01D6018D916D014AE0B50190E00E94D3
:10285000B72FF50101900020E9F73197AF014A1930
:102860005B09B501C7010E9475120C151D0549F7DA
:10287000C70126960FB6F894DEBF0FBECDBFDF911D
:10288000CF911F910F91FF90EF90DF90CF90BF906D
:10289000AF909F908F907F906F905F904F90089532
:1028A0002081281709F4B1CF8F5FAECF1092310489
:1028B00010926505BECFCF92DF92EF92FF920F93F9
:1028C0001F93CF93DF93CDB7DEB72C970FB6F89455
:1028D000DEBF0FBECDBF8C016FE573E0CE01079662
:1028E0000E94411322E030E050E040E00330110547
:1028F000A9F024E030E042E050E00C30110571F026
:1029000026E030E00033110539F0003F110581F574
:1029100020910B0730910C0744E050E067E077E02E
:10292000CE0101960E945213BE016F5F7F4FCE0110
:1029300007960E94FA11CE0101960E944512CE011F
:1029400007960E94E60F6B01CE0107960E94451282
:10295000C6012C960FB6F894DEBF0FBECDBFDF9137
:10296000CF911F910F91FF90EF90DF90CF9008953E
:10297000003C110521F720910B0730910C0746E030
:1029800050E0CCCF0F931F93CF93DF93CDB7DEB73B
:1029900062970FB6F894DEBF0FBECDBF8C016A30D0
:1029A0007105A4F5CE010D960E94F5126BE273E05D
:1029B000CE0101960E944113BE016F5F7F4FCE0191
:1029C00007960E943813BE01635F7F4FCE010796C2
:1029D0000E94B712BC01C8010E943813CE010796AD
:1029E0000E944512CE0101960E944512CE010D961D
:1029F0000E944512C80162960FB6F894DEBF0FBE62
:102A0000CDBFDF91CF911F910F9108950E94F512D4
:102A1000F1CF0F931F93CF93DF93CDB7DEB76897B6
:102A20000FB6F894DEBF0FBECDBF8B01833079F5B2
:102A300020910B0730910C0742E050E067E077E00F
:102A4000CE010D960E945213B801CE0101960E944C
:102A5000C214BE016F5F7F4FCE0107960E943813EC
:102A6000BE01635F7F4FCE0107960E94B712BC0183
:102A700087E097E00E942113CE0107960E9445123D
:102A8000CE0101960E944512CE010D9644C08C30B5
:102A900009F04EC020910B0730910C0744E050E044
:102AA00067E077E0CE0143960E945213B801CE0151
:102AB0000D960E94C21422E030E050E040E067E052
:102AC00077E0CE0101960E945213BE016F5F7F4FE7
:102AD000CE0107960E943813BE01635F7F4FCE017F
:102AE00007960E94B712BE016D5E7F4F0E94B7121B
:102AF000BC0187E097E00E942113CE0107960E9457
:102B00004512CE0101960E944512CE010D960E94FB
:102B10004512CE0143960E94451268960FB6F8946E
:102B2000DEBF0FBECDBFDF91CF911F910F910895F2
:102B3000803381F4B801CE010D960E94C21424E0C6
:102B400030E050E040E067E077E0CE0101960E947F
:102B500052137FCF803F71F3803CF9F6CE010D9682
:102B60000E94C21426E030E0ECCF0E94320660934F
:102B700078057093790580937A0590937B05809111
:102B80007E05882309F476C0209180053091810567
:102B9000C901880F991F2031310509F45DC0FC017E
:102BA000EF5EFE4F40815181415051095183408376
:102BB000DC01AF5EBE4F6D917C911197FC01EF552A
:102BC000FE4F40815181641775073CF485589E4F34
:102BD000FC01808191818D939C932F30310551F5BB
:102BE00080912F0190913001019709F040C080E859
:102BF0008093770586E093E00E94C80EE0918005FF
:102C0000F0918105EE0FFF1FEF5EFE4F80819181F5
:102C10000E94800F81E193E00E94C80E60917705C9
:102C200070E090E080E042E00E943C0F83E093E09F
:102C30000E94C80E80918005909181058830910591
:102C4000C9F0880F991FFC01EF5EFE4F6081718112
:102C500080917C050C94091540913101509132010D
:102C60004C5051095093320140933101A1CF109241
:102C70007705C0CF08950E9432066093780570935F
:102C8000790580937A0590937B0580917E05882352
:102C900009F476C02091800530918105C901880F23
:102CA000991F2031310509F45DC0FC01EF5EFE4F34
:102CB000408151814F5F5F4F51834083DC01AF5EA4
:102CC000BE4F6D917C911197FC01E558FE4F4081FC
:102CD0005181461757073CF48F559E4FFC01808168
:102CE00091818D939C932F30310551F580912F0167
:102CF00090913001019709F040C080E880937705FA
:102D00008DE193E00E94C80EE0918005F09181056D
:102D1000EE0FFF1FEF5EFE4F808191810E94800FBA
:102D200081E193E00E94C80E6091770570E090E029
:102D300080E042E00E943C0F83E093E00E94C80ED6
:102D4000809180059091810588309105C9F0880FA8
:102D5000991FFC01EF5EFE4F6081718180917C05BF
:102D60000C9409154091310150913201445F5F4F3D
:102D70005093320140933101A1CF10927705C0CF1B
:102D800008950F931F93CF93DF93CDB7DEB7689766
:102D90000FB6F894DEBF0FBECDBF8C01809131011C
:102DA00090913201489709F048C00E949808BC01F0
:102DB000CE0143960E94C2140E94A008BC01CE011D
:102DC0000D960E94C2140E94A808BC01CE01019673
:102DD0000E94C214BE016F5F7F4FCE0107960E9412
:102DE0003813BE01635F7F4FCE0107960E94B71272
:102DF000BE016D5E7F4F0E94B712BC01C8010E94E8
:102E00003813CE0107960E944512CE0101960E940A
:102E10004512CE010D960E944512CE0143960E94A6
:102E20004512C80168960FB6F894DEBF0FBECDBF3D
:102E3000DF91CF911F910F9108950E949808BC01D6
:102E4000CE0143960E94C2140E94A008BC01CE018C
:102E50000D960E94C2140E943F070E948507809130
:102E6000DD046CE070E0882309F4B0CF682F70E0D7
:102E70008D3008F4ABCF6C507109A8CF8F929F9220
:102E8000AF92BF92CF92DF92EF92FF920F931F9378
:102E9000CF93DF93CDB7DEB762970FB6F894DEBF5E
:102EA0000FBECDBF8C016A017B018091500481115E
:102EB00011C00E943206645B7B4F8F4F9F4F60931F
:102EC0004C0470934D0480934E0490934F0481E022
:102ED0008093500480914404811109C066E273E03C
:102EE0008EE394E00E94411381E0809344040E94A9
:102EF000320680904C0490904D04A0904E04B09007
:102F00004F04681979098A099B09693E7340810554
:102F1000910508F4FFC00E94320660934C04709340
:102F20004D0480934E0490934F0420E030E0A901BB
:102F3000C701B6010E94A13220E030E040E05FE32B
:102F400087FD01C1C701B6010E948D310E946B321D
:102F50007B0177FF04C0EE24FF24E61AF70A5B0129
:102F600039E1A31A3CEFB30A809133019091340107
:102F70009B012D593F4F69012A5531094901B7017C
:102F8000892B09F0E5C0CE0107960E94F5126BE28D
:102F900073E0CE0101960E944113BE01695F7F4F2D
:102FA000CE0101960E94B7126BE273E00E94A1125B
:102FB000BC018EE394E00E942113CE0101960E9491
:102FC0004512CE0107960E9445123FECA31637E04A
:102FD000B30680F5B701CE010D960E94F5126091FF
:102FE000350170913601CE0101960E94C214BE01D6
:102FF0006F5F7F4FCE0107960E943813BE01635F5B
:103000007F4FCE0107960E94B7126BE273E00E94D9
:10301000A112BC018EE394E00E942113CE01079619
:103020000E944512CE0101960E944512CE010D96D6
:103030000E94451287ECC816D104A0F5B701CE0155
:103040000D960E94F5126091350170913601CE0106
:1030500007960E94C2146BE273E0CE0101960E94B3
:103060004113BE01695F7F4FCE0101960E94B712E6
:10307000BE01635F7F4F0E94B7126BE273E00E9454
:10308000A112BC018EE394E00E942113CE010196AF
:103090000E944512CE0107960E944512CE010D9660
:1030A0000E94451223E182169104A0F5B701CE01DA
:1030B0000D960E94F5126091350170913601CE0196
:1030C00007960E94C2146AE273E0CE0101960E9444
:1030D0004113BE01695F7F4FCE0101960E94B71276
:1030E000BE01635F7F4F0E94B7126BE273E00E94E4
:1030F000A112BC018EE394E00E942113CE0101963F
:103100000E944512CE0107960E944512CE010D96EF
:103110000E9445126EE374E0C8010E943813C80192
:1031200062960FB6F894DEBF0FBECDBFDF91CF9190
:103130001F910F91FF90EF90DF90CF90BF90AF90D5
:103140009F908F900895C701B6010E948C31FECEEA
:10315000CE0107960E94F5126BE273E0CE01019654
:103160000E944113BE01695F7F4FCE0101960E940C
:10317000B7126BE273E00E94A112BC018EE394E0EF
:103180000E942113CE0101960E944512CE0107969E
:103190000E9445123FECA31637E0B306A0F56091FC
:1031A000350170913601CE010D960E94C214C701FF
:1031B0006AE070E00E94B232CE0107960E94F512DA
:1031C0006AE273E0CE0101960E944113BE01695F7D
:1031D0007F4FCE0101960E94B712BE01635F7F4F01
:1031E0000E94B712BC018EE394E00E942113CE012D
:1031F00001960E944512CE0107960E944512CE010B
:103200000D960E94451287ECC816D104A0F5609176
:10321000350170913601CE010D960E94C214C7018E
:103220006AE070E00E94B232CE0107960E94F51269
:1032300069E273E0CE0101960E944113BE01695F0D
:103240007F4FCE0101960E94B712BE01635F7F4F90
:103250000E94B712BC018EE394E00E942113CE01BC
:1032600001960E944512CE0107960E944512CE019A
:103270000D960E94451223E18216910408F04ACF70
:103280006091350170913601CE010D960E94C214F5
:10329000C7016AE070E00E94B232CE0107960E9438
:1032A000F51268E273E0CE0101960E944113BE015F
:1032B000695F7F4FCE0101960E94B712BE01635F26
:1032C0007F4F0E94B71215CF85ED8093BC0080918F
:1032D000DD059091DE05A091DF05B091E005079630
:1032E000A11DB11D23E0B695A795979587952A95C1
:1032F000D1F72091BC0024FD03C01092DB05089596
:103300004091DD055091DE056091DF057091E0058B
:10331000452B462B472B69F30097A105B10541F0DA
:103320002AE22A95F1F700C00197A109B109E1CF7E
:103330008091DC050C9464091F920F920FB60F92D6
:1033400011242F933F934F935F936F937F938F93AA
:103350009F93AF93BF93EF93FF9383E196E00E9417
:103360005202FF91EF91BF91AF919F918F917F9109
:103370006F915F914F913F912F910F900FBE0F90E2
:103380001F9018951F920F920FB60F9211242F9332
:103390008F939F93EF93FF93E0912306F091240680
:1033A0008081E0912906F0912A0682FD1BC0908160
:1033B00080912C068F5F8F7320912D06821741F02C
:1033C000E0912C06F0E0ED5EF94F958F80932C068E
:1033D000FF91EF919F918F912F910F900FBE0F90C2
:1033E0001F9018958081F4CF1F920F920FB60F9205
:1033F00011242F933F938F939F93AF93BF9380910B
:10340000E3049091E404A091E504B091E6043091C6
:10341000E20423E0230F2D3758F50196A11DB11DBD
:103420002093E2048093E3049093E404A093E504E2
:10343000B093E6048091E7049091E804A091E90438
:10344000B091EA040196A11DB11D8093E704909309
:10345000E804A093E904B093EA04BF91AF919F916F
:103460008F913F912F910F900FBE0F901F90189545
:1034700026E8230F0296A11DB11DD2CF1F920F92F5
:103480000FB60F9211242F933F938F939F93AF9377
:10349000BF93EF93FF938091050690910606A0914C
:1034A0000706B09108060097A105B10531F13091EA
:1034B000EF04E091F004F091F104208123272083B0
:1034C000181619061A061B061CF40197A109B10962
:1034D0008093050690930606A0930706B09308060E
:1034E000FF91EF91BF91AF919F918F913F912F915C
:1034F0000F900FBE0F901F901895209170002D7F98
:10350000209370002091EF04E091F004F091F10419
:103510003081209523232083DBCF1F920F920FB69B
:103520000F9211248F939F93AF93BF93EF93FF93C9
:103530008091090690910A06A0910B06B0910C06A5
:10354000892B8A2B8B2BA1F19091F204E091F3044B
:10355000F091F404808189278083809109069091FD
:103560000A06A0910B06B0910C06181619061A0649
:103570001B069CF48091090690910A06A0910B0607
:10358000B0910C060197A109B109809309069093A7
:103590000A06A0930B06B0930C06FF91EF91BF9122
:1035A000AF919F918F910F900FBE0F901F90189524
:1035B00080916F008D7F80936F008091F204E09185
:1035C000F304F091F4049081809589238083E5CF02
:1035D0001F920F920FB60F9211248F939F93AF9368
:1035E000BF93EF93FF9380910D0690910E06A091EB
:1035F0000F06B0911006892B8A2B8B2BA1F190918D
:10360000F504E091F604F091F70480818927808326
:1036100080910D0690910E06A0910F06B0911006B4
:10362000181619061A061B069CF480910D06909137
:103630000E06A0910F06B09110060197A109B109DD
:1036400080930D0690930E06A0930F06B09310067C
:10365000FF91EF91BF91AF919F918F910F900FBE0E
:103660000F901F90189580916E008D7F80936E0053
:103670008091F504E091F604F091F7049081809533
:1036800089238083E5CF1F920F920FB60F921124EA
:103690002F933F934F935F936F937F938F939F935A
:1036A000AF93BF93EF93FF938091B900887F8036EB
:1036B00009F44AC0F0F5883209F4A7C018F5803142
:1036C00009F49BC0B8F4882309F4F9C0883009F4E0
:1036D00094C0FF91EF91BF91AF919F918F917F9196
:1036E0006F915F914F913F912F910F900FBE0F906F
:1036F0001F901895883109F488C0803251F7809363
:10370000D90514C0803409F49DC040F48033B9F366
:103710008833F9F68093D90585ECB0C0803509F47B
:1037200085C0883509F496C0883499F60E946419DA
:10373000D0CF883909F48CC038F5883729F050F497
:10374000883611F0803729F683E08093DB051092EC
:10375000C80457C0883809F47BC0803919F0803814
:1037600009F0B7CF8091C804803208F071C0E091B1
:10377000C80481E08E0F8093C8048091BB00F0E004
:10378000E855FB4F80833DC0803B39F0E0F4803A40
:1037900009F479C0883A09F09CCF84E08093DB0576
:1037A0001092A7041092A604E091ED04F091EE04AB
:1037B00009958091A60481110FC081E08093A60431
:1037C0001092860409C0803C09F4A6CF883C09F415
:1037D000A3CF883B09F07DCFE091A70481E08E0F55
:1037E0008093A704F0E0EA57FB4F80818093BB00F1
:1037F0009091A7048091A60429C08091B60580937A
:10380000BB0085EC8093BC0064CF9091D80580917B
:10381000D705981758F5E091D80581E08E0F809371
:10382000D805F0E0E954FA4F8081E9CFE091D8055E
:1038300081E08E0F8093D8058091BB00F0E0E954C1
:10384000FA4F80839091D8058091D7059817C8F2D8
:1038500085E8D8CFE091D80581E08E0F8093D80518
:103860008091BB00F0E0E954FA4F80838091DA0543
:1038700081115CCF81E08093B50584EA8093BC0020
:103880001092DB0526CF85EC8093BC001092DB05FF
:103890008091C804803230F4E091C804F0E0E8552B
:1038A000FB4F10826091C80470E0E091EB04F0914E
:1038B000EC0488EA94E009951092C8040ACF1092AB
:1038C000D90534CFCF93DF93EC01862F6F87188A09
:1038D00091E0998B9A8B1C8A1B8A198218821A8212
:1038E0001D8A1E8A1F8A188E44E150E060E070E055
:1038F0004B835C836D837E834AEF50E060E070E031
:103900004F83588769877A8748EE53E060E070E01C
:103910004B875C876D877E8760E00E947C03888987
:10392000811106C061E08F85DF91CF910C944E0329
:10393000DF91CF910895E3E1F6E01382128288EEE1
:1039400093E0A0E0B0E084839583A683B78323EE61
:1039500032E03183208325EC30E03587248724EC66
:1039600030E03787268720EC30E0318B208B21EC4C
:1039700030E0338B228B22EC30E0358B248B26EC2D
:1039800030E0378B268B118E128E138E148EE0EB67
:10399000F6E01382128284839583A683B78385EF32
:1039A00092E0918380836DE273E081E297E00E9470
:1039B000411360E081E10E947C03E4EAF1E0E491DC
:1039C000A3E1B7E0EC93E0E9F1E0E491F0E0EE0F81
:1039D000FF1FEB58FE4F8591949112969C938E9306
:1039E00011971B961C921B971D961C921D971C9657
:1039F0001C921C971A961C921A9719961C9219974A
:103A000018961C92189717961C92179716961C9248
:103A1000169715961C92159714961C921497139648
:103A20001C9265E073E08DE097E00E94411366E22E
:103A300073E087E097E00E9441136EE08EEE96E01F
:103A40000E94621C60E185ED96E00E94621C6FE0BE
:103A50008CEB96E00C94621CCF93DF93CDB7DEB76E
:103A6000C656D1090FB6F894DEBF0FBECDBF78940D
:103A700084B5826084BD84B5816084BD85B5826073
:103A800085BD85B5816085BD80916E008160809324
:103A90006E0010928100809181008260809381008D
:103AA000809181008160809381008091800081609D
:103AB000809380008091B10084608093B1008091F8
:103AC000B00081608093B00080917A008460809320
:103AD0007A0080917A00826080937A0080917A00E7
:103AE000816080937A0080917A00806880937A0068
:103AF0001092C1001092FC041092FB041092E20597
:103B0000109204060E94460981ED91E09093EE0424
:103B10008093ED0482ED91E09093EC048093EB04AC
:103B2000E0912306F091240682E08083E0911F0655
:103B3000F09120061082E0912106F091220680E1AA
:103B4000808310922B06E0912706F091280686E0EC
:103B50008083E0912506F091260680818061808334
:103B6000E0912506F0912606808188608083E091AF
:103B70002506F0912606808180688083E0912506E5
:103B8000F091260680818F7D808381E090E00E9405
:103B9000C90F8C3009F416C488E190E0909332018B
:103BA0008093310190E080E00E94C90F882309F4DE
:103BB0000CC481E080930C0182E090E00E94C90F68
:103BC0008F3F09F005C410922A011092290183E069
:103BD00090E00E94C90F8F3F09F000C410922C01A1
:103BE00010922B0184E090E00E94C90F8F3F09F0F2
:103BF000FBC310922E0110922D0186E090E00E94EE
:103C0000C90F8F3F09F0F6C31092300110922F01B7
:103C100087E090E00E94C90F8F3F09F0F1C3109236
:103C200074058BE090E00E94C90F8F3F09F0EFC34D
:103C3000109234011092330187E291E00E94C10298
:103C400080913301909134010E94800F8CE090E0CC
:103C50000E94253160968FAF60978DE090E00E94C2
:103C6000253161968FAF61978CE090E00E94C90F7B
:103C70008F3F09F0D2C310923601109235018EE1C8
:103C800091E00E94C10280913501909136010E941D
:103C9000800F8EE090E00E94C90F8F3F29F090E0E6
:103CA000909322018093210161E089E00E947C03CE
:103CB00061E086E00E947C0361E083E00E947C0377
:103CC0008091F804833008F020C492E090931106AC
:103CD000E82FF0E0EC56FF4FE491E09312068F5F7F
:103CE0008093F804E13009F4C2C308F49FC3E230C2
:103CF00009F4E4C380910201909103010E94BE0D7A
:103D0000909303018093020161E08AE00E947C03AA
:103D100061E088E00E947C0360E088E00E944E033E
:103D200062E088E00E947C0388E00E94250321E095
:103D3000892B09F020E02093FA041FB7F8948091B2
:103D4000F904811127C0E9E8F1E08491EDE9F1E09F
:103D50009491E82FF0E0EE0FFF1FE956FF4FA59179
:103D6000B491EC91E92321F461E08AE00E944E03D2
:103D700061E08AE00E947C038CB580618CBD8CB5CB
:103D800080648CBD61E08DE00E947C0361E08BE08B
:103D90000E947C038091F9048F5F8093F9041FBF18
:103DA0008091FA04882309F4B4C389E791E00E9462
:103DB000000162E08EE00E947C0362E080E10E94EC
:103DC0007C0362E08FE00E947C0361E082E00E945D
:103DD0007C0304E110E020E030E00093F106109352
:103DE000F2062093F3063093F4064EE150E060E0D3
:103DF00070E04093F5065093F6066093F7067093D3
:103E0000F80680ED97E0A0E0B0E08093F90690938B
:103E1000FA06A093FB06B093FC060093D806109315
:103E2000D9062093DA063093DB064093DC065093E4
:103E3000DD066093DE067093DF068093E0069093C4
:103E4000E106A093E206B093E3060093BF06109349
:103E5000C0062093C1063093C2064093C306509318
:103E6000C4066093C5067093C6068093C7069093F8
:103E7000C806A093C906B093CA06E0902007E110D7
:103E800004C00E949801811146C310921E0710922F
:103E9000200710921F0786E091E00E94D50E109235
:103EA0001E071092200710921F0710921D071092F4
:103EB0001C0710921B0710921A07109219071092F4
:103EC000180710921707109216078091270588236C
:103ED00009F483C30E94980185E50E946E010BE0FE
:103EE00015E0D8018D918D010E946E01B5E003317E
:103EF0001B07B9F78EEB0E946E010FEF14E0F8E09C
:103F0000EF2EF5E0FF2E0E942801F80181938F012A
:103F1000EE16FF06C1F76091FF0470910005072EB1
:103F2000000C880B990B0E94083020E030E040E83C
:103F30005DE30E9467300E946B327093FE046093D1
:103F4000FD0487ED90E00E94C10225E030E042E0F0
:103F500050E061E277E0CE0101963C010E945213ED
:103F600022E030E041E050E061E277E0CE01875BA3
:103F70009F4F0E945213BE01675B7F4FCE018D5B46
:103F80009F4F0E9438136CE473E0CE018D5B9F4F0E
:103F90000E94A112B3010E94B7120E94B20FCE017B
:103FA0008D5B9F4F0E944512CE01875B9F4F0E9401
:103FB0004512C3010E94451284E393E00E94C80E9B
:103FC00083E093E00E94C80E8CEC90E00E94D50E36
:103FD000809102019091030190938705809386055B
:103FE0000E94BE0D6FEF70E089E00E947E0568EED2
:103FF00073E080E090E00E94000670E060E089E0FD
:104000000E947E056FEF70E086E00E947E0568EEFC
:1040100073E080E090E00E94000670E060E086E0DF
:104020000E947E056FEF70E083E00E947E0568EEDF
:1040300073E080E090E00E9400068EE493E00E942E
:10404000C80E8091270790912807009711F48BE202
:1040500097E0D301A81BB90BCD010E94800F66E247
:1040600073E0C3010E9441136AE573E0CE01079635
:104070000E94411361E673E0CE010D960E94411348
:1040800068E673E0CE0143960E9441136FE673E049
:10409000CE0149960E94411366E773E0CE014F9628
:1040A0000E9441136DE773E0CE0185960E94411393
:1040B00064E873E0CE018B960E9441136BE873E0D5
:1040C000CE01C1960E94411362E973E0CE01C7960A
:1040D0000E94411365E073E0CE01CD960E9441132A
:1040E00061E277E0CE01CD960E94211384EC90E04E
:1040F0000E94C1028091FD049091FE040E94800FF5
:104100000E9432066B017C01B8EECB0EB3E0DB1EE1
:10411000E11CF11C00E01FEF74EFA72EBB24B39449
:10412000E6E09E2E8FE00E942503892B09F401E032
:1041300080E10E942503892B09F400E00E943206E9
:104140006C197D098E099F0995010B2C000C440BFD
:10415000550B261737074807590708F054C20E9425
:1041600032066B017C01011101C01F5F1A3009F496
:1041700039C21B3009F03AC281E08093E10588E63C
:10418000809303061092E2051092040661E180EB31
:1041900096E00E94920B0E94850962E088E60E94E8
:1041A0006C0A1092FC048093FB0480EB96E00E9462
:1041B0004B0B182F80EB90E00E94C102812F012E43
:1041C000000C990B0E94800F15501833B8F081EA4B
:1041D00090E00E94D50E05E010E048EE53E060E06C
:1041E00070E088EE93E00E94B80360ED77E080E035
:1041F00090E00E9400060150110979F78AEB90E0E7
:104200000E94D50E8E010D5B1F4F06501109C8018B
:104210000E94451260167106C1F7809174058111E4
:104220000E94CB0F0E94470E00918C0510918D05C6
:104230000E9432066B017C0181E080939405112776
:1042400080918C0590918D050817190799F40E94AB
:10425000470E0E9432066C197D098E099F09693B41
:104260007B408105910560F38AEE90E00E94D50EB7
:104270001092940580909205F0909305909090058F
:1042800010919105A0908E0530918F05B0908C050E
:1042900050918D05C0908A0570918B05D09088054E
:1042A000E82C092D2A2D4B2D6C2D8D2D90918905F3
:1042B0000E9463062A2D4B2D6C2D8D2D0E94C10B63
:1042C00048EE442E43E0542E54E0252E312C0E941B
:1042D000320620E63AEE40E050E00E94C632672BFC
:1042E000682B692B21F580919405882301F10E94A8
:1042F000470EE0909205F090930500919005109183
:10430000910520918E0530918F0540918C0550913B
:104310008D0560918A0570918B058091880590913B
:1043200089050E94630680E791E00E94D50E009106
:10433000860510918705D8018C91882309F42FC236
:104340000E943206C0901F05D0902005E090210504
:10435000F09022056C197D098E099F09C0901B05FC
:10436000D0901C05E0901D05F0901E05C616D706DE
:10437000E806F90608F013C20E9432064B015C0100
:1043800080921F0590922005A0922105B0922205EF
:10439000680130E020E04AE0F801F1908F0180ED03
:1043A0008F0D8A3008F032C1429FC001439F900DAB
:1043B00011242F2DFF0C330B20533109280F391FE7
:1043C0006F01EACF8CE090E0E9CB10920C01F4CBC6
:1043D00090E090932A0180932901F9CB90E090938B
:1043E0002C0180932B01FECB90E090932E018093C3
:1043F0002D0103CC90E09093300180932F0108CCE5
:1044000091E0811101C090E0909374050ACC90E096
:1044100090933401809333010FCC61968EAD9FADA4
:104420006197909336018093350129CC14BC15BC5B
:1044300084B5826084BD85B5816085BD809111069B
:1044400090E0FC01E158FE4FE491F0E0EE0FFF1F19
:10445000E657FF4F259134913093F7042093F604EB
:10446000FC01ED56FE4FE491E093F50443CC10922D
:10447000800010928100809181008860809381008B
:10448000809181008160809381008091110690E08D
:10449000FC01E158FE4FE491F0E0EE0FFF1FE657FC
:1044A000FF4F259134913093F4042093F304FC01E1
:1044B000ED56FE4FE491E093F2041CCC1092B00054
:1044C0001092B1008091B00082608093B000809122
:1044D000B10081608093B1008091110690E0FC01F1
:1044E000E158FE4FE491F0E0EE0FFF1FE657FF4F5B
:1044F000259134913093F1042093F004FC01ED56A2
:10450000FE4FE491E093EF04F5CB8FEF809312061A
:10451000F1CB89E54BCC80EF0E946E01D12CFF24BA
:10452000F39401E00E940301182F0E94030111304F
:10453000F9F48130E1F5013408F4A7CCE0921E07CC
:10454000E11003C081E08093200780911607882343
:1045500009F49BCCA6E1B7E0EBE0F5E08D91819307
:1045600035E0E331F307D1F781E080932705ADCC47
:10457000ED2DF0E0181311C080911E070817A8F464
:10458000DF01AD5EB84F13968C918F2181F410E05E
:10459000093010F400931F07E02EED5EF84F838181
:1045A0009F2D9095892383830AC08013F0CFED2D32
:1045B000F0E0ED5EF84F83818F29838311E0812F36
:1045C0000E943E010F5FFF0C19F4D394FF24F39473
:1045D00027E02D1508F0A6CFAECF1092FE04109262
:1045E000FD04AFCC68EBA62E6BE0B62EB301199D8F
:1045F000600D711D112487E097E00E94211387E070
:1046000097E00E94B20F0E94F10F8CCD30931A05F3
:104610002093190560911505709116058091170575
:10462000909118052115310501F1032E000C440B62
:10463000550B0E94E83220931B0530931C054093D4
:104640001D0550931E05EFE9EF0DE730A0F40E2E87
:10465000000CFF0BE25DFC4D0C940733D026D226F4
:10466000C426C826CA26CC26CE262091050130E0D5
:1046700050E040E0DECF10921405D60111968C91E7
:10468000833241F4809114058F5F80931405860175
:104690000E5F1F4FF80180818E32F1F4C0901B0530
:1046A000D0901C05E0901D05F0901E05C701B601D5
:1046B00022E030E040E050E00E94E832C20ED31E1B
:1046C000E41EF51EC0921B05D0921C05E0921D054C
:1046D000F0921E050F5F1F4FD8018C9180538A30D6
:1046E00008F062C3809313050F5F1F4FF8018081AC
:1046F0008C3211F40F5F1F4FE0911405EE2309F483
:104700004EC0C0901B05D0901C05E0901D05F09098
:104710001E05809113058450990B4CE0489F900131
:10472000499F300D1124E20FF32FF11DEE0FFF1FF3
:10473000E951FE4FB701A601808191810E94B80323
:104740000E943206681979098A099B09C616D7069C
:10475000E806F90620F50E94320660931F05709363
:1047600020058093210590932205809112068130C7
:1047700009F41FC3823009F422C3811105C080915E
:104780006E008D7F80936E0060E0809111060E9424
:104790004E0385E391E00E94D50E10E000E01093F7
:1047A0008705009386050E943206009182051091CC
:1047B00083052091840530918505601B710B820B68
:1047C000930B6630710581059105E8F080910C012D
:1047D0008111FBC270E060E089E00E947E0570E01C
:1047E00060E086E00E947E0570E060E083E00E9469
:1047F0007E050E9432066093820570938305809344
:104800008405909385058091800590918105892B81
:1048100021F080917F058111EFC180917E0581118A
:10482000EBC180913A0581110DC00E943206609360
:10483000360570933705809338059093390581E0EC
:1048400080933A0580912E0581110DC00E94320699
:1048500060932A0570932B0580932C0590932D056A
:1048600081E080932E050E9432060091360510915A
:1048700037052091380530913905601B710B820B8B
:10488000930B0091060110910701209108013091CE
:104890000901061717072807390708F04DC00E94BD
:1048A00032066093360570933705809338059093F0
:1048B00039058091280590912905009709F0F2C2E9
:1048C00081E090E0909381058093800528E833E1B2
:1048D00040E050E020930601309307014093080127
:1048E0005093090180912805909129058230910506
:1048F00081F4109281051092800520E63AEE40E0A6
:1049000050E0209306013093070140930801509333
:1049100009010196833091050CF0E2C290932905BC
:104920008093280580917F05882321F010928105CE
:104930001092800510927F050E9432060091360584
:10494000109137052091380530913905601B710BA6
:10495000820B930B603D77408105910508F0A2C35F
:104960000E94320600912A0510912B0520912C05FA
:1049700030912D05601B710B820B930B6536710511
:104980008105910508F438C10E94320660932A051A
:1049900070932B0580932C0590932D0580918005B5
:1049A0009091810520912705222309F49EC2892B2D
:1049B00089F5CE018D5B9F4F0E94C11681E0209149
:1049C000330130913401232B09F480E00E94ED0C77
:1049D000AB01BC01C3010E943E17AE014D5B5F4FAE
:1049E000B301CE01875B9F4F0E949E13BE01675BA0
:1049F0007F4F87E097E00E94FA11CE01875B9F4FBF
:104A00000E944512C3010E944512CE018D5B9F4F4B
:104A10000E9445128091800590918105019709F0CF
:104A20006AC00E947E08B2010E94B232BC01CE016F
:104A30008B5A9F4F0E94C2140E948808BC01CE016D
:104A4000815B9F4F0E94C2140E949008BC01CE015E
:104A50008D5B9F4F0E94C214BE016D5B7F4FCE01E4
:104A6000875B9F4F0E943813BE01615B7F4FCE0171
:104A7000875B9F4F0E94B712BE016B5A7F4F0E9407
:104A8000B712BC01CE01855A9F4F0E943813C30153
:104A90000E94C116AE01455A5F4FB301CE018F5936
:104AA0009F4F0E949E13BE016F597F4F87E097E092
:104AB0000E94FA11CE018F599F4F0E944512C301E7
:104AC0000E944512CE01855A9F4F0E944512CE0189
:104AD000875B9F4F0E944512CE018D5B9F4F0E94C6
:104AE0004512CE01815B9F4F0E944512CE018B5A29
:104AF0009F4F0E94451280918005909181050497F7
:104B000009F07AC081E02091330130913401232BE8
:104B100009F480E00E94ED0CAB01BC01CE01855A86
:104B20009F4F0E943E170E947E08B2010E94B2323F
:104B3000BC01CE01815B9F4F0E94C2140E94880875
:104B4000BC01CE01875B9F4F0E94C2140E94900857
:104B5000BC01CE0101960E94C214BE016F5F7F4F5F
:104B6000CE018D5B9F4F0E943813BE01675B7F4F64
:104B7000CE018D5B9F4F0E94B712BE01615B7F4FDC
:104B80000E94B712BC01CE018B5A9F4F0E9438136E
:104B9000AE01455A5F4FBE016B5A7F4FCE018F5910
:104BA0009F4F0E949E13BE016F597F4F87E097E091
:104BB0000E94FA11CE018F599F4F0E944512CE01DB
:104BC0008B5A9F4F0E944512CE018D5B9F4F0E94D2
:104BD0004512CE0101960E944512CE01875B9F4F80
:104BE0000E944512CE01815B9F4F0E944512CE016B
:104BF000855A9F4F0E9445120E94F10F8EEE96E05B
:104C00000E94B00885ED96E00E94B0088CEB96E01B
:104C10000E94B00880917E05811147C210927D05E7
:104C200010927C058091EE069091EF0618161906F9
:104C30000CF038C381E080937F05109287051092B5
:104C4000860544E650E060E070E088EE93E00E9464
:104C5000B8030E94320660937805709379058093BB
:104C60007A0590937B05809180059091810501964E
:104C70008530910509F449C29093810580938005A0
:104C800082E691E00E94C1028091800590918105A9
:104C90000E94800F8BE591E00E94C102E0918005A7
:104CA000F0918105EE0FFF1FEF5EFE4F8081918135
:104CB0000E94800F20918005309181058901000FAD
:104CC000111FF801E95CFE4F8081918190937D0571
:104CD00080937C05D9011197FD01EE0FFF1FED5662
:104CE000FD4F608171816115710509F4C9C2AB0185
:104CF00041505109FA01EE0FFF1FE359FD4F01909A
:104D0000F081E02DAE17BF0709F0BAC2623071051D
:104D100009F000C288E1E3E6F1E0D30101900D92D1
:104D20008A95E1F780912701909128018370992756
:104D3000892B21F48DE190E09C838B83E091250108
:104D4000F09126013197EE0FFF1FE60DF71D209120
:104D500023013091240180819181821793070CF007
:104D6000D9C189E090E0909381058093800580E02F
:104D700090E0892B09F4ABCA0E943E02882309F413
:104D80009FCA0E9400009CCA81E08093140575CCE4
:104D900083E0FBCF85E0F9CF86E0F7CF88E0F5CF61
:104DA0008AE0F3CF8CE0F1CF80910401809313056A
:104DB0009DCC80916F008D7F80936F00E5CC8091BA
:104DC00070008D7F80937000DFCC8091740581111D
:104DD00010CD0091250510912605C801880F991F57
:104DE000800F911FFC01EE0FFF1FE75BFD4F20813D
:104DF000318160910E0170910F01620F731F7093EA
:104E00000F0160930E01FC01EE0FFF1FE55BFD4FEC
:104E1000C080D18020916C0530916D05C20ED31EEB
:104E2000D0926D05C0926C05880F991FFC01E35B61
:104E3000FD4FE080F18080916A0590916B05E80E4E
:104E4000F91EF0926B05E0926A0589E00E947E05EA
:104E5000B60186E00E947E05B70183E00E947E05D0
:104E600080912305909124050196909324058093C9
:104E700023058F3F910551F40F5F1F4F10932605B7
:104E80000093250510922405109223058091250595
:104E90009091260506970CF4ACCC10922605109242
:104EA0002505A7CC019709F01DCD309281052092F0
:104EB000800588E893E1A0E0B0E08093060190933C
:104EC0000701A0930801B093090180912705811182
:104ED000F2C682E090E0909329058093280502CDE8
:104EE00010922905109228051DCD892B09F06AC062
:104EF000CE01855A9F4F0E94C1160E947E08B201C2
:104F00000E94B232BC01CE01815B9F4F0E94C2144D
:104F10000E948808BC01CE01875B9F4F0E94C2148B
:104F20000E949008BC01C3010E94C214B301CE01CB
:104F30008D5B9F4F0E943813BE01675B7F4FCE0190
:104F40008D5B9F4F0E94B712BE01615B7F4F0E9435
:104F5000B712BC01CE018B5A9F4F0E943813AE018D
:104F6000455A5F4FBE016B5A7F4FCE018F599F4FFD
:104F70000E949E13BE016F597F4F87E097E00E9409
:104F8000FA11CE018F599F4F0E944512CE018B5AC4
:104F90009F4F0E944512CE018D5B9F4F0E9445128C
:104FA000C3010E944512CE01875B9F4F0E944512AC
:104FB000CE01815B9F4F0E944512CE01855A9F4FC3
:104FC0000E9445128091800590918105019709F01A
:104FD00013CE0E947E08B2010E94B232BC01CE0103
:104FE0008B5A9F4F0E94C2140E948808BC01CE01B8
:104FF000815B9F4F0E94C2140E949008BC01CE01A9
:105000008D5B9F4F0E94C214BE016D5B7F4FCE012E
:10501000875B9F4F0E943813BE01615B7F4FCE01BB
:10502000875B9F4F0E94B712BE016B5A7F4F0E9451
:10503000B712BC01CE01855A9F4F0E943813C3019D
:105040000E94C116AE01455A5F4FB301CE018F5980
:105050009F4F0E949E13BE016F597F4F87E097E0DC
:105060000E94FA11CE018F599F4F0E944512C30131
:105070000E944512CE01855A9F4F0E944512CE01D3
:10508000875B9F4F0E944512CE018D5B9F4F0E9410
:105090004512CE01815B9F4F0E944512CE018B5A73
:1050A0009F4FA8CD10926505A7CD0E9432060091B2
:1050B00078051091790520917A0530917B05601B68
:1050C000710B820B930B61367A4E8105910508F4C2
:1050D000A9CD10927E05E0918005F0918105EE0F3B
:1050E000FF1FE754FD4F808191819093810580934C
:1050F0008005880F991FFC01E95CFE4F808191813A
:1051000090937D0580937C058DCD10928105109242
:105110008005B6CD10927E055093810540938005A1
:10512000452BB9F40E947E087C010E9488088C01FE
:105130000E94900840911F015091200160911D0133
:1051400070911E019C0180911B0190911C010E9495
:1051500063068091800590918105019719F5E09093
:105160002701F090280150E3E51A58EFF50A009165
:1051700025011091260180902301909024010E9426
:1051800098085C010E94A0086C010E94A808940184
:10519000A501B6010E946306609121018EE090E0B6
:1051A0000E94C70F80918005909181050297C1F4FC
:1051B0006091290182E090E00E94C70F60912B016D
:1051C00083E090E00E94C70F60912D0184E090E0A1
:1051D0000E94C70F60912F0186E090E00E94C70FE8
:1051E0008091800590918105039731F460913101A0
:1051F00081E090E00E94C70F809180059091810529
:10520000049701F5609133018BE090E00E94C70F95
:10521000109135018CE090E00E942531811729F032
:10522000612F8CE090E00E942D31109136018DE0CD
:1052300090E00E942531181729F0612F8DE090E051
:105240000E942D310E947E087C010E948808082F50
:105250000E949008C82E0E949808D82E0E94A0088C
:10526000182F0E94A808382FC701B2010E94B2323D
:10527000E82E2C2D4D2D612F832F0E94C10B77CD51
:10528000A901415151094230510560F028503109BE
:105290002230310538F00E945B14F801EF5EFE4FBA
:1052A000918380838091EE069091EF0697FF09C16C
:1052B00044E650E060E070E088EE93E00E94B803BE
:1052C00080917E05811151C000918005109181056A
:1052D0000E943206609378057093790580937A0571
:1052E00090937B05012B09F040C00E949808BC01F7
:1052F000C3010E94C2140E94A008BC01CE018D5BB4
:105300009F4F0E94C2140E94A808BC01CE01815B7D
:105310009F4F0E94C214BE01615B7F4FCE01875B2D
:105320009F4F0E943813BE016D5B7F4FCE01875B9C
:105330009F4F0E94B712B3010E94B712BC0187E0D1
:1053400097E00E942113CE01875B9F4F0E94451278
:10535000CE01815B9F4F0E944512CE018D5B9F4F16
:105360000E944512C3010E944512809180059091D0
:105370008105019709F06CC089E993E00E94C80E8D
:1053800083E093E00E94C80E0E949008909324014D
:10539000809323010E948808909326018093250121
:1053A0000E947E08B2010E94B232BC019093280193
:1053B000809327018091210190912201892B09F08E
:1053C0009FC1C3010E94C214609125017091260102
:1053D000CE018D5B9F4F0E94C2146091230170919A
:1053E0002401CE01815B9F4F0E94C214BE01615B0C
:1053F0007F4FCE01875B9F4F0E943813BE016D5BCC
:105400007F4FCE01875B9F4F0E94B712B3010E946E
:10541000B712BC0187E097E00E942113CE01875BA1
:105420009F4F0E944512CE01815B9F4F0E94451203
:10543000CE018D5B9F4F0E944512C3010E94451211
:1054400082EA93E00E94C80E87E097E00E94B20FC4
:10545000E0918005F0918105EE0FFF1FE754FD4FAD
:105460002081318130938105209380052C303105D6
:1054700049F481E090E09093300180932F0180E81F
:105480008093770580917E0591E0892780937E0542
:105490008901000F111FF801E95CFE4F80819181A5
:1054A00090937D0580937C052131310551F02830A2
:1054B000310539F00E945B14F801EF5EFE4F9183D5
:1054C00080838091D5069091D606009719F190932C
:1054D00076058093750518161906E4F481E080932B
:1054E0007F05109287051092860544E650E060E043
:1054F00070E088EE93E00E94B8030E943B16809112
:105500007E05811107C01092740560E087E090E08D
:105510000E94C70F8091750590917605019609F05C
:1055200000C18091D706882309F4FBC010921001B6
:1055300080917E058823F9F00E9432060091700563
:10554000109171052091720530917305601B710BEC
:10555000820B930B673971058105910560F00E94FC
:105560003206609370057093710580937205909375
:1055700073050E943B168091BC069091BD06009772
:10558000A9F190936F0580936E051816190674F5AE
:1055900011E010937F05109287051092860544E66E
:1055A00050E060E070E088EE93E00E94B8030E9453
:1055B000B51580917E05811119C01093740561E0C5
:1055C00087E090E00E94C70F60910E0188E090E0B4
:1055D0000E94C70F60916C0589E090E00E94C70FA0
:1055E00060916A058AE090E00E94C70F80916E0585
:1055F00090916F05019609F098C08091BE068823AE
:1056000009F493C080917E0510920D01882321F149
:105610000E94320600916605109167052091680589
:1056200030916905601B710B820B930B6739710513
:105630008105910508F445C00E9432066093660515
:105640007093670580936805909369050E94B5156E
:1056500080917E05811135C08091D5069091D60646
:1056600097FF16C044E650E060E070E088EE93E0FB
:105670000E94B80381E080930C0161E090E080E03B
:105680000E94C70F84E591E00E94D50E0E94CB0FC7
:105690008091BC069091BD0697FF13C044E650E090
:1056A00060E070E088EE93E00E94B80310920C0175
:1056B00060E090E080E00E94C70F8CE491E00E94DF
:1056C000D50EE0918005F0918105E331F10508F0F8
:1056D0004ECBE359F44D0C940733992BCA2BD92C9C
:1056E000242D4E2DB726B726B726D22DFA2DFA2D0A
:1056F000FA2DB726B726B726B726B7264E2D8E2DFC
:10570000C3010E94C2146091230170912401CE0153
:105710008D5B9F4F0E94C2146091250170912601FC
:1057200060CE81E08093100126CF81E080930D014F
:105730008FCF8091650581111EC00E94980820912D
:105740000A0130910B0182179307E9F00E94980833
:1057500090930B0180930A01CE0101960E94C1161D
:10576000BE016F5F7F4F87E097E00E94FA11CE0184
:1057700001960E9445120E94980880FD8AC180EC23
:105780008093770588C167E077E0CE0101960E949B
:105790003813E6CF809165058111F4C080915D05D5
:1057A000811111C00E94320667517C4F8F4F9F4F6D
:1057B0006093590570935A0580935B0590935C053F
:1057C00081E080935D058091510581114AC00E945E
:1057D0007E08B2010E94B232BC01CE0101960E9445
:1057E000C2140E948808BC01CE018D5B9F4F0E94AD
:1057F000C2140E949008BC01CE01815B9F4F0E94A1
:10580000C214BE01615B7F4FCE01875B9F4F0E9438
:105810003813BE016D5B7F4FCE01875B9F4F0E94A7
:10582000B712BE016F5F7F4F0E94B712BC018BE4BD
:1058300095E00E94381381E080935105CE01875B8B
:105840009F4F0E944512CE01815B9F4F0E944512DF
:10585000CE018D5B9F4F0E944512CE0101960E94A2
:10586000451280914305811107C0809121018093E9
:10587000420581E0809343050E943206009159055C
:1058800010915A0520915B0530915C05601B710BEE
:10589000820B930B693E73408105910550F4209172
:1058A000420580912101909122012817190609F4DF
:1058B00058C00E9432066093590570935A05809330
:1058C0005B0590935C058091210190912201892BC9
:1058D00009F05AC00E947E08B2010E94B232BC0197
:1058E000CE0101960E94C2140E948808BC01CE011C
:1058F0008D5B9F4F0E94C2140E949008BC01CE0194
:10590000815B9F4F0E94C214BE01615B7F4FCE013D
:10591000875B9F4F0E943813BE016D5B7F4FCE01A6
:10592000875B9F4F0E94B712BE016F5F7F4F0E943F
:10593000B712BC018BE495E00E942113CE01875B76
:105940009F4F0E944512CE01815B9F4F0E944512DE
:10595000CE018D5B9F4F0E944512CE0101960E94A1
:1059600045126BE475E0CE0101960E943813BE012A
:105970006F5F7F4F87E097E00E94FA11CE0101969A
:105980000E94451280E4FCCE0E947E08B2010E9473
:10599000B232BC01CE0101960E94C2140E9490084E
:1059A000BC01CE018D5B9F4F0E94C2140E948808EB
:1059B000A5CF60912D0170912E01C3010E94C214E8
:1059C00060912B0170912C01CE018D5B9F4F0E9445
:1059D000C2146091290170912A01CE01815B9F4F11
:1059E0000E94C214BE01615B7F4FCE01875B9F4F57
:1059F0000E943813BE016D5B7F4FCE01875B9F4FC6
:105A00000E94B712B3010E94B712BC0187E097E071
:105A10000E942113CE01875B9F4F0E944512CE0149
:105A2000815B9F4F0E944512CE018D5B9F4F0E946C
:105A30004512C3010E94451280912F0190913001BF
:105A4000019739F580E89CCE609131017091320167
:105A5000C3010E94F5126AE273E0CE018D5B9F4F95
:105A60000E944113B301CE018D5B9F4F0E94B7127C
:105A70006AE273E00E94A112BC0187E097E00E94F5
:105A80002113CE018D5B9F4F0E944512C3010E94DE
:105A90004512109277050E94E30E69C98091650551
:105AA000811124C081E02091330130913401232BF6
:105AB00009F480E00E94ED0CAB01BC01CE0101961F
:105AC0000E943E17BE016F5F7F4F87E097E00E9404
:105AD000FA11CE0101960E944512809133019091F6
