:100000000C94AB000C94D3000C94D3000C94D3004C
:100010000C94D3000C94D3000C94D3000C94330CA8
:100020000C94D3000C94D3000C94D3000C948E0C3D
:100030000C94D3000C94D3000C94F30C0C94D300C8
:100040000C94E90B0C94D3000C946B0A0C94450AA5
:100050000C94D3000C94D3000C94D3000C94D300D4
:100060000C94DD010C94D300EA18ED18DE18E018AA
:10007000E418E618E81800000000250028002B000E
:1000800002010000000000240027002A00010204F1
:10009000081020408001020408102001020408100A
:1000A0002004040404040404040202020202020301
:1000B000030303030353746F702054657374005378
:1000C000746172742054657374004669726D77614F
:1000D00072652076657273696F6E3A20005761729F
:1000E0006E696E67212052544320444F4E2754209E
:1000F000524553504F4E442100496E636F727265F2
:10010000637420536F6E6720466F726D61742100B7
:1001100076616C75653D006D656E75506F736974C1
:10012000696F6E3D0057616B652075702C204E65C0
:100130006F210000000000230026002900000000BD
:100140000800020100000304070000000000000096
:1001500000003D20352011241FBECFEFD8E0DEBFC8
:10016000CDBF13E0A0E0B1E0EAE2F8E402C0059000
:100170000D92AC3BB107D9F726E0ACEBB3E001C080
:100180001D92AF31B207E1F710E0CAEAD0E004C037
:100190002197FE010E94F720C93AD107C9F70E94B2
:1001A0009A130C9408240C94000085ED8093BC00F5
:1001B0008091BC0084FDFCCF1092E804089540912A
:1001C0008004262F30E0240F311D21323105DCF46C
:1001D0002091E8042430C9F4FC0180E090E0861707
:1001E00058F4309180042191DC01A25ABB4FA30F37
:1001F000B11D2C930196F3CF80918004680F60931A
:10020000800480E0089581E0089582E008950895D3
:10021000E091BD038091BC03E81730F4F0E0E25CAC
:10022000FB4F808190E008958FEF9FEF08959091AC
:10023000BD038091BC03981750F4E92FF0E0E25C15
:10024000FB4F208130E09F5F9093BD0302C02FEFF2
:100250003FEFC90108958091BC0390E02091BD0358
:10026000821B91090895CF92DF92EF92FF920F9334
:100270001F93CF93DF937C01262F972F8A018091C4
:10028000E904882391F0C62FD72F6E01C40ED51E26
:10029000CC15DD0571F06991D701ED91FC910190CC
:1002A000F081E02DC7010995F3CF642F822F0E94C2
:1002B000DF00C801DF91CF911F910F91FF90EF9068
:1002C000DF90CF900895CF93DF931F92CDB7DEB725
:1002D00069832091E9042223D1F020910C0520327A
:1002E00040F021E030E0FC013383228380E090E0A5
:1002F00015C08091EA04E82FF0E0E551FB4F9981A9
:1003000090838F5F8093EA0480930C0505C061E0C1
:10031000CE0101960E94DF0081E090E00F90DF9116
:10032000CF9108950F931F93CF93DF931F92CDB773
:10033000DEB78C01862FF8016787408B91E0492753
:10034000418B428B148A138A118210821282158A81
:10035000168A178A108E44E150E060E070E0438313
:100360005483658376834AEF50E060E070E0478312
:1003700050876187728748EE53E060E070E0438702
:1003800054876587768760E029830E94F60AF80122
:100390008089298181110BC0222349F061E0878582
:1003A0000F90DF91CF911F910F910C94C60A0F907F
:1003B000DF91CF911F910F9108951F920F920FB669
:1003C0000F9211242F933F934F935F936F937F93DB
:1003D0008F939F93AF93BF93EF93FF938091B90057
:1003E000887F803609F49CC068F5883209F45BC0C8
:1003F00090F4803109F454C038F4882309F4F6C02D
:10040000883009F44DC0F6C0883109F44CC0803200
:1004100009F45DC0EFC0803409F468C048F480334B
:1004200009F455C0883309F0E5C08093E604D8C0CC
:10043000803509F44FC0883509F45DC0883409F06F
:10044000D9C0D6C0883909F4C7C0A8F4883709F4E0
:1004500067C038F4883609F463C0803709F460C097
:10046000C9C0883809F4B8C0803909F45FC0803841
:1004700009F0C0C05BC0803B09F486C038F4803A04
:1004800009F466C0883A09F47FC0B4C0803C09F41E
:10049000A7C0883C09F4A4C0883B09F48AC0AAC05C
:1004A0008091C30410C09091E5048091E4049817F2
:1004B00070F5E091E50481E08E0F8093E504F0E0B3
:1004C000EC53FB4F80818093BB0085EC86C080930A
:1004D000E6048EC0E091E50481E08E0F8093E50490
:1004E0008091BB00F0E0EC53FB4F80839091E504DA
:1004F0008091E4046EC0E091E50481E08E0F80936A
:10050000E5048091BB00F0E0EC53FB4F80838091C9
:10051000E70481116DC081E08093C20484EA61C068
:1005200083E08093E8041092A404CFCF8091A404C8
:10053000803208F051C0E091A40481E08E0F8093D6
:10054000A4048091BB00F0E0EC57FB4F8083BDCF4B
:1005500085EC8093BC001092E8048091A404803262
:1005600030F4E091A404F0E0EC57FB4F108260916E
:10057000A40470E0E0918204F091830484E894E0A4
:1005800009951092A40436C084E08093E804109288
:10059000810410928004E0917E04F0917F0409951B
:1005A00080918004811105C081E0809380041092C5
:1005B0005E04E091810481E08E0F80938104F0E07D
:1005C000E25AFB4F80818093BB009091810480911F
:1005D0008004981708F479CF85E88093BC000AC09E
:1005E00085EC8093BC001092E80404C01092E604ED
:1005F0000E94D500FF91EF91BF91AF919F918F9194
:100600007F916F915F914F913F912F910F900FBE0E
:100610000F901F9018950F931F93CF93DF93D82FB0
:10062000C091DB038091360481110DC00E94B60B8E
:1006300060933204709333048093340490933504B0
:1006400081E0809336040E94B60B00913204109131
:1006500033042091340430913504DC01CB01801B3C
:10066000910BA20BB30B8D329140A105B105F0F0B7
:100670000E94B60B60933204709333048093340469
:10068000909335048091310491E098279093310440
:10069000992329F01092300410922F0407C0809102
:1006A000DB0390E09093300480932F0420912F047B
:1006B000309130048901009510954091D40350E0A9
:1006C0004023512346FF02C061E001C060E084E0A6
:1006D0000E94C60A4091D40350E098012423352398
:1006E00027FF02C061E001C060E08CE00E94C60A02
:1006F00080913104882369F08C2F90E002C0959599
:100700008795DA95E2F781709927919581959109FE
:1007100002C080E090E0DF91CF911F910F9108958A
:100720000C94A9230C94A12388E090E00E949203EA
:10073000682F89E00E94C60A89E090E00E94920337
:10074000682F86E00E94C60A8AE090E00E94920329
:10075000682F83E00C94C60A0F931F9380912201A7
:1007600090912301892B09F455C080912E04882390
:10077000A9F00E94B60B00912A0410912B0420913D
:100780002C0430912D04DC01CB01801B910BA20BBA
:10079000B30B893E9340A105B105C8F580912E04A5
:1007A000811138C00E94DB0F20911C0130911D0186
:1007B0008217930779F50E94D30F20911E01309183
:1007C0001F018217930731F50E94CB0F2091200162
:1007D0003091210182179307E9F40E94B60B6093D0
:1007E0002A0470932B0480932C0490932D0481E0B1
:1007F00080932E0485E291E00E945A1280910001BC
:10080000909101019093DE038093DD0303C0109269
:100810002E04C4CF1F910F910895CF93DF93EC0165
:10082000019628812A33D9F78981843639F51092C7
:10083000CC031092CB0323964AE0FE0188812196D7
:1008400090ED980F2091CB033091CC039A3080F437
:10085000429FB001439F700D1124082E000C990B8C
:10086000C097860F971F9093CC038093CB03E5CF5F
:100870001216130614F420930301EF0121968881C8
:100880008F3689F48A81082E000C990B9C01205325
:1008900031093093CC032093CB03C397059710F411
:1008A0002093020124968881823629F51092CC0388
:1008B0001092CB03FE0132964AE0819190ED980FA1
:1008C0002091CB033091CC039A3080F4429FB00149
:1008D000439F700D1124082E000C990BC097860FB2
:1008E000971F9093CC038093CB03E7CF30932701DE
:1008F00020932601EF012091260130912701032E3C
:10090000000C440B550B60E67AEE80E090E00E940C
:10091000D820DA01C90122E0880F991FAA1FBB1F46
:100920002A95D1F78093C7039093C803A093C90376
:10093000B093CA03CE01DF91CF910895CF92DF9299
:10094000EF92FF921F93CF93DF93CDB7DEB72C9733
:100950000FB6F894DEBF0FBECDBF182F6BEC72E060
:10096000CE0101960E94DB09133029F422E030E029
:1009700040E050E00FC01C3029F424E030E042E0B9
:1009800050E008C01033B9F42091130630911406DA
:1009900044E050E06FE076E0CE0107960E94F00957
:1009A000BE01695F7F4FCE0101960E945C09CE01B6
:1009B00007960E949509CE0101960E940E096B01CF
:1009C0007C01CE0101960E949509C6012C960FB6B6
:1009D000F894DEBF0FBECDBFDF91CF911F91FF9086
:1009E000EF90DF90CF90089581E08093E90488E64E
:1009F00080930B051092EA0410920C0560E088EBDE
:100A000095E00E9463010E942F138091E8048111F8
:100A1000FCCF81E08093E8048093E7049FEF9093FC
:100A2000E6041092E50496E09093E4048093C304F6
:100A30008091C304806D8093C3048091C20481308F
:100A400061F41092C2048091C3048093BB00809132
:100A5000BC0083FDF8CF85EC01C085EE8093BC001F
:100A60008091E8048130E1F38091E504873018F447
:100A70008091E50401C087E0A4ECB4E02EE334E00B
:100A8000F9019E2F921B981718F49D919193F9CF1D
:100A90001092BD038093BC0388EB95E00E94170180
:100AA000982F92959F708F702AE0929F800D11244D
:100AB00090E09093E4038093E30388EB95E00E9439
:100AC0001701982F92959F708F702AE0929F800D4A
:100AD000112490E09093E2038093E10388EB95E08A
:100AE0000E941701982F9695969596959670292FA6
:100AF000220F220F920F8F70890F90E09093E003E6
:100B00008093DF0388EB95E00E941701982F929560
:100B10009F708F702AE0929F800D112490E0909337
:100B200029048093280488EB95E00E941701982FF0
:100B300092959F708F702AE0929F800D112490E013
:100B40009093E6038093E50388EB95E00E941701FC
:100B5000982F92959F708F702AE0929F800D11249C
:100B600090E09093E8038093E70388EB95E00E9480
:100B70001701982F92959F708F702AE0929F800D99
:100B8000112490E09093EA038093E90308950F9372
:100B90001F93CF93DF93CDB7DEB762970FB6F8946C
:100BA000DEBF0FBECDBF8C014AE06A3071054CF547
:100BB000CE010D960E949A0964EC72E0CE01019676
:100BC0000E94DB09BE016F5F7F4FCE0107960E9436
:100BD000D209BE01635F7F4FCE0107960E943209A2
:100BE000BC01C8010E94D209CE0107960E94950956
:100BF000CE0101960E949509CE010D960E9495099D
:100C000002C00E949A09C80162960FB6F894DEBF2E
:100C10000FBECDBFDF91CF911F910F9108950F931C
:100C20001F93CF93DF93CDB7DEB768970FB6F894D5
:100C3000DEBF0FBECDBF8B01833091F42091130630
:100C40003091140642E050E06FE076E0CE010D9660
:100C50000E94F009B801CE0101960E94C70555C057
:100C60008C3009F042C0209113063091140644E004
:100C700050E06FE076E0CE0143960E94F009B801A3
:100C8000CE010D960E94C70522E030E040E050E022
:100C90006FE076E0CE0101960E94F009BE016F5F21
:100CA0007F4FCE0107960E94D209BE01635F7F4F3E
:100CB000CE0107960E943209BE016D5E7F4F0E94F1
:100CC0003209BC018FE096E00E944509CE010796EB
:100CD0000E949509CE0101960E949509CE010D96BC
:100CE0000E949509CE0143962DC0803369F5CE014F
:100CF0000D960E94C70524E030E040E050E06FE030
:100D000076E0CE0101960E94F009BE016F5F7F4F31
:100D1000CE0107960E94D209BE01635F7F4FCE01CC
:100D200007960E943209BC018FE096E00E944509B7
:100D3000CE0107960E949509CE0101960E94950961
:100D4000CE010D960E94950968960FB6F894DEBF05
:100D50000FBECDBFDF91CF911F910F9108950E94DB
:100D6000B60B6093D7037093D8038093D903909305
:100D7000DA038091DC03882309F44CC02091D50369
:100D80003091D603C901880F991F2E30310551F0DB
:100D9000FC01E85FFE4F4081518141505109518370
:100DA00040830AC040912401509125014C505109C3
:100DB0005093250140932401DC01A85FBE4F6D9143
:100DC0007C911197FC01E559FD4F408151816417D9
:100DD00075073CF4FC01E35BFD4F408151814D936D
:100DE0005C932D30310569F420912201309123016B
:100DF0002130310521F420E82093D40302C0109261
:100E0000D403FC01E85FFE4F608171818091DB03B8
:100E10000C940F0608950E94B60B6093D70370934D
:100E2000D8038093D9039093DA038091DC0388235D
:100E300009F441C02091D5033091D603C901880F30
:100E4000991F2E30310551F0FC01E85FFE4F4081C3
:100E500051814F5F5F4F518340830AC0409124010D
:100E600050912501445F5F4F509325014093240129
:100E7000DC01A85FBE4F6D917C911197FC01E35B93
:100E8000FD4F40815181461757073CF4FC01E5595D
:100E9000FD4F408151814D935C932D30310511F40C
:100EA0001092D403FC01E85FFE4F60817181809154
:100EB000DB030C940F0608958EBD00000DB407FEF1
:100EC000FDCF8EB508950895CF92DF92EF92FF92F5
:100ED0000F931F93CF93DF936C017A018B01C0E0D6
:100EE000D0E0CE15DF0589F0D8016D918D01D601D6
:100EF000ED91FC910190F081E02DC6010995892BBF
:100F000011F47E0102C02196ECCFC701DF91CF9191
:100F10001F910F91FF90EF90DF90CF900895FC010B
:100F2000918D828D981761F0828DDF01A80FB11D20
:100F30005D968C91928D9F5F9F73928F90E0089544
:100F40008FEF9FEF0895FC01918D828D981731F0FE
:100F5000828DE80FF11D858D90E008958FEF9FEF52
:100F60000895FC01918D228D892F90E0805C9F4F28
:100F7000821B91098F73992708958BE195E00E9458
:100F8000B10721E0892B09F420E0822F0895FC01AC
:100F9000848DDF01A80FB11DA35ABF4F2C91848D02
:100FA00090E001968F739927848FA689B7892C9337
:100FB000A089B1898C9180648C93938D848D9813D2
:100FC00006C00288F389E02D80818F7D808308959B
:100FD000EF92FF920F931F93CF93DF93EC0181E089
:100FE000888F9B8D8C8D981305C0E889F989808145
:100FF00085FD24C0F62E0B8D10E00F5F1F4F0F7381
:101000001127E02E8C8DE8120CC00FB607FCFACF2A
:10101000E889F989808185FFF5CFCE010E94C70755
:10102000F1CF8B8DFE01E80FF11DE35AFF4FF082E7
:101030000B8FEA89FB898081806207C0EE89FF8976
:101040006083E889F98980818064808381E090E011
:10105000DF91CF911F910F91FF90EF900895CF9363
:10106000DF93EC01888D8823C9F0EA89FB898081B0
:1010700085FD05C0A889B9898C9186FD0FC00FB682
:1010800007FCF5CF808185FFF2CFA889B9898C91C3
:1010900085FFEDCFCE010E94C707E7CFDF91CF914B
:1010A000089580E090E0892B29F00E94BD0781110E
:1010B0000C9400000895833081F028F4813099F079
:1010C0008230A1F008958730A9F08830B9F08430DB
:1010D000D1F4809180008F7D03C0809180008F7754
:1010E00080938000089584B58F7702C084B58F7D8A
:1010F00084BD08958091B0008F7703C08091B000C7
:101100008F7D8093B00008950E941023CF93DF93CA
:10111000EC0188819981009711F00E94AE2119821B
:1011200018821D821C821B821A82DF91CF91089542
:101130000F931F93CF93DF93EC01888199810097E0
:1011400029F02A813B812617370788F48B016F5FCE
:101150007F4F0E944622009761F0998388831B830A
:101160000A832C813D81232B11F4FC01108281E044
:1011700001C080E0DF91CF911F910F910895EF9210
:10118000FF920F931F93CF93DF93FC01248135814E
:101190006115710511F480E019C041155105A9F0E0
:1011A0007B01EC018A01020F131FB8010E9498080D
:1011B000882389F3288139818C819D81B701820F31
:1011C000931F0E941E231D830C8381E0DF91CF912A
:1011D0001F910F91FF90EF900895EF92FF920F9360
:1011E0001F93CF93DF93EC017B018A01BA010E9428
:1011F0009808811104C0CE010E94860807C01D8393
:101200000C83B701888199810E941E23CE01DF9152
:10121000CF911F910F91FF90EF900895FC01808175
:101220009181009711F00C94252360E070E0CB01D0
:101230000895CF93DF93EC016115710561F0FB0117
:1012400001900020E9F73197AF01461B570B0E9430
:10125000BF08811103C0CE010E948608CE01DF9134
:10126000CF910895CF93DF93EC01FB014481558129
:10127000608171810E94BF08811103C0CE010E946C
:101280008608CE01DF91CF910895CF93DF93EC01D3
:10129000FB018617970761F0608171816115710507
:1012A00029F0448155810E94ED0802C00E94860801
:1012B000CE01DF91CF9108950F931F93CF93DF93CA
:1012C0008C01EB01FC01808191810097B1F0688174
:1012D00079816115710579F0428153812C813D81BD
:1012E0004217530740F00E941E238C819D81F80114
:1012F0009583848313C00E94AE2188819981F8016F
:10130000918380838A819B81938382838C819D8159
:1013100095838483198218821B821A821D821C8203
:10132000DF91CF911F910F910895FC0180819181F0
:101330000C94AE21EF92FF920F931F93CF93DF9304
:10134000CDB7DEB762970FB6F894DEBF0FBECDBF44
:101350008C01CB01F8011182108213821282158256
:10136000148250E09E012F5F3F4F7901B9010E9426
:101370004C23F70101900020E9F73197AF014E1996
:101380005F09B701C8010E94ED0862960FB6F89494
:10139000DEBF0FBECDBFDF91CF911F910F91FF90A8
:1013A000EF900895FC01118210821382128215823F
:1013B00014820C944509FC0111821082138212825E
:1013C000158214826115710551F0FB010190002016
:1013D000E9F73197AF01461B570B0C94ED080895C0
:1013E000BF92CF92DF92EF92FF920F931F93CF9312
:1013F000DF937C016B01EA0189012417350720F492
:101400008D2FE901042F182F64E273E0C7010E94B9
:10141000DB09D60114968D919C911597C817D907B1
:1014200048F58017910708F48C01D601ED91FC91E5
:101430001197E00FF11FB08010824D915C91BA01BD
:101440006C0F7D1F6115710561F0FB01019000209B
:10145000E9F73197AF01461B570BC7010E94ED0812
:1014600003C0C7010E948608D601ED91FC91E00FF0
:10147000F11FB082C701DF91CF911F910F91FF90B3
:10148000EF90DF90CF90BF9008951F920F920FB60C
:101490000F9211242F933F934F935F936F937F93FA
:1014A0008F939F93AF93BF93EF93FF938BE195E05F
:1014B0000E94C707FF91EF91BF91AF919F918F91CC
:1014C0007F916F915F914F913F912F910F900FBE40
:1014D0000F901F9018951F920F920FB60F92112424
:1014E0002F938F939F93EF93FF93E0912B05F091B0
:1014F0002C058081E0913105F091320582FD12C00A
:101500009081809134058F5F8F732091350582170C
:1015100051F0E0913405F0E0E55EFA4F958F80934D
:10152000340501C08081FF91EF919F918F912F91A0
:101530000F900FBE0F901F901895CF93DF93282F19
:1015400030E0F901E35CFE4F8491F901E357FF4F6E
:10155000D491F901EF55FF4FC491CC2391F0811143
:101560000E945B08EC2FF0E0EE0FFF1FED5CFE4FDA
:10157000A591B491EC91ED2381E090E021F480E01D
:1015800002C080E090E0DF91CF9108951F93CF9348
:10159000DF93282F30E0F901E35CFE4F8491F901DD
:1015A000E357FF4FD491F901EF55FF4FC491CC237E
:1015B000C9F0162F81110E945B08EC2FF0E0EE0FAE
:1015C000FF1FEA58FF4FA591B4918FB7F8941111FE
:1015D00005C09C91ED2FE095E92302C0EC91ED2B25
:1015E000EC938FBFDF91CF911F910895CF93DF933D
:1015F00090E0FC01E357FF4F2491FC01EF55FF4FB2
:101600008491882361F190E0880F991FFC01ED57C8
:10161000FF4FC591D491FC01EA58FF4FA591B491B9
:10162000611109C09FB7F89488812095822388832F
:10163000EC912E230BC0623061F49FB7F89438818F
:10164000822F809583238883EC912E2B2C939FBF30
:1016500006C08FB7F894E8812E2B28838FBFDF91C7
:10166000CF9108951F93CF93DF93182FEB0161E083
:101670000E94F60A209711F460E004C0CF3FD10524
:1016800039F461E0812FDF91CF911F910C94C60A4C
:10169000E12FF0E0E35CFE4FE491E330F9F048F431
:1016A000E130B9F0E230A1F584B5806284BDC8BDF7
:1016B00034C0E730E9F0E83019F1E43049F58091C1
:1016C0008000806280938000D0938B00C0938A005A
:1016D00024C084B5806884BDC7BD1FC080918000D0
:1016E000806880938000D0938900C093880015C0E3
:1016F0008091B00080688093B000C093B3000DC0AB
:101700008091B00080628093B000C093B40005C0A7
:10171000C038D1050CF0B5CFAFCFDF91CF911F917D
:1017200008953FB7F8948091BE049091BF04A091B2
:10173000C004B091C10426B5A89B05C02F3F19F085
:101740000196A11DB11D3FBFBA2FA92F982F882741
:10175000820F911DA11DB11DBC01CD0142E0660F9C
:10176000771F881F991F4A95D1F708952FB7F894CE
:101770006091BA047091BB048091BC049091BD0447
:101780002FBF08956093B5047093B6048093B70497
:101790009093B804DC01CB01845D9E4FAF4FBF4FE7
:1017A0008093B1049093B204A093B304B093B404B3
:1017B00082E090E09093B0048093AF040E94B60B57
:1017C0006093AB047093AC048093AD049093AE042B
:1017D00008951F920F920FB60F9211242F933F93EB
:1017E0008F939F93AF93BF938091BA049091BB0462
:1017F000A091BC04B091BD043091B90423E0230F43
:101800002D3720F40196A11DB11D05C026E8230F38
:101810000296A11DB11D2093B9048093BA04909340
:10182000BB04A093BC04B093BD048091BE0490910E
:10183000BF04A091C004B091C1040196A11DB11DC7
:101840008093BE049093BF04A093C004B093C104DE
:10185000BF91AF919F918F913F912F910F900FBEAC
:101860000F901F9018951F920F920FB60F92112490
:101870002F933F934F935F936F937F938F939F9398
:10188000EF93FF9340910D0550910E0560910F0568
:1018900070911005411551056105710599F0809110
:1018A000BE03E091BF03F091C0039081892780833C
:1018B0001416150616061706D4F44150510961098D
:1018C000710915C0809170008D7F80937000909198
:1018D000BE03E091BF03F091C0038081282F30E068
:1018E000892F90E080959095822393238083409365
:1018F0000D0550930E0560930F0570931005FF9131
:10190000EF919F918F917F916F915F914F913F9157
:101910002F910F900FBE0F901F9018951F920F924E
:101920000FB60F9211242F933F938F939F93AF93F2
:10193000BF93EF93FF938091110590911205A091B1
:101940001305B0911405892B8A2B8B2B51F18091B3
:10195000C103E091C203F091C30390818927808382
:101960008091110590911205A0911305B091140575
:10197000181619061A061B064CF580911105909150
:101980001205A0911305B09114050197A109B109A1
:101990008093110590931205A0931305B09314053D
:1019A00015C080916F008D7F80936F009091C1036F
:1019B000E091C203F091C3038081282F30E0892F8A
:1019C00090E080959095822393238083FF91EF91FF
:1019D000BF91AF919F918F913F912F910F900FBE2B
:1019E0000F901F9018951F920F920FB60F9211240F
:1019F0002F933F938F939F93AF93BF93EF93FF9357
:101A00008091150590911605A0911705B0911805C4
:101A1000892B8A2B8B2B51F18091C403E091C50354
:101A2000F091C6039081892780838091150590915C
:101A30001605A0911705B0911805181619061A0673
:101A40001B064CF58091150590911605A091170580
:101A5000B09118050197A109B109809315059093DC
:101A60001605A0931705B093180515C080916E0058
:101A70008D7F80936E009091C403E091C503F09137
:101A8000C6038081282F30E0892F90E080959095C3
:101A9000822393238083FF91EF91BF91AF919F9118
:101AA0008F913F912F910F900FBE0F901F9018951F
:101AB0003F924F925F926F927F928F929F92AF92DE
:101AC000BF92CF92DF92EF92FF920F931F93CF932B
:101AD000DF93382E962E842EF90184E6E816F10461
:101AE0002CF082EBE81A87E0F80A03C08EE1E80EDA
:101AF000F11CE092D3030093D203E093D103309220
:101B0000CF039092CE038092CD03AE2DB0E020E8BB
:101B100033E341EE51E00E94B7232B013C0122EB5D
:101B200037E0FF2484E6C82ED12CC0E9D1E0C901FA
:101B3000825B97408E159F05DCF4C901837099275D
:101B4000892B99F4C901B6010E94A220892B31F496
:101B5000C901BE010E94A220892B39F480E8480EF9
:101B600081E5581E81E0681E711C2F5F3F4FDFCF5B
:101B70008EE4E81A88EFF80AC70164E670E00E9474
:101B8000A2206C01C70160E971E00E94A2205C0103
:101B9000C1E0D0E0112783E0E822FF24C017D1077D
:101BA0002CF5C230D10589F4E114F10471F4C114AB
:101BB000D10419F4A114B10441F480E8480E8BE378
:101BC000581E86E2681E711C0FC0DE01A857BD4F6B
:101BD000AC91B0E020E831E541E050E00E94B7234D
:101BE000460E571E681E791E2196D8CF292D30E04B
:101BF000ACE3B0E00E94F9236B017C01C80CD11C5E
:101C0000E11CF11C232D30E0A0E1BEE00E94F9238D
:101C1000C60ED71EE81EF91EDF01BB27119720E86C
:101C200031E541E050E00E94FD20DC01CB018C0D4C
:101C30009D1DAE1DBF1DBC01CD01640D751D861D12
:101C4000971DDF91CF911F910F91FF90EF90DF9043
:101C5000CF90BF90AF909F908F907F906F905F904C
:101C60004F903F900C94C20BCF92DF92EF92FF9275
:101C70000F931F930E94B60BC090AB04D090AC049E
:101C8000E090AD04F090AE048B019C010C191D098D
:101C90002E093F098091B5049091B604A091B70434
:101CA000B091B804083E134021053105D0F00196EB
:101CB000A11DB11D8093B5049093B604A093B70401
:101CC000B093B804B701A60148515C4F6F4F7F4FE6
:101CD0004093AB045093AC046093AD047093AE0496
:101CE000C9CF4091B1045091B2046091B304709196
:101CF000B40484179507A607B70788F1E091A904F3
:101D0000F091AA04309759F1099561157105810583
:101D1000910519F00E94C20B22C08091B5049091E8
:101D2000B604A091B704B091B804845D9E4FAF4F44
:101D3000BF4F8093B1049093B204A093B304B093C7
:101D4000B40481E090E02091AF043091B004232BE3
:101D500011F480E090E09093B0048093AF04609120
:101D6000B5047091B6048091B7049091B8041F91A6
:101D70000F91FF90EF90DF90CF9008954F925F9278
:101D80006F927F928F929F92AF92BF92CF92DF928B
:101D9000EF92FF920F931F93CF93DF934B015C0160
:101DA0008091A5049091A604A091A704B091A804E5
:101DB00088169906AA06BB0609F4C2C08CE3C82E91
:101DC000D12CE12CF12CC501B401A70196010E9490
:101DD000B6206093CD03CA01B901A70196010E9404
:101DE000B6206093CE03CA01B90128E130E040E09B
:101DF00050E00E94B62069017A016093CF03CA01C6
:101E0000B9016C5F7F4F8F4F9F4F27E030E040E07C
:101E100050E00E94B6206F5F6093D003412C512C9C
:101E2000320140E004E610E0C0E9D1E0242F30E0C8
:101E30002E54384FF901E370FF27309789F4C90118
:101E4000B8010E94A220892B31F4C901BE010E9471
:101E5000A220892B29F48EE691E0A0E0B0E004C036
:101E60008DE691E0A0E0B0E0480E591E6A1E7B1E90
:101E7000D301C201AA27BB27C816D906EA06FB066A
:101E800010F04F5FD3CF4093D303309799F4C9013B
:101E900064E670E00E94A220892B39F4C90160E950
:101EA00071E00E94A220892B29F48EE691E0A0E047
:101EB000B0E004C08DE691E0A0E0B0E0481A590A15
:101EC0006A0A7B0AC418D508E608F708C90164E65F
:101ED00070E00E94A220EC01C90160E971E00E945B
:101EE000A220A9E8B2E020E0213039F4309749F48B
:101EF000209729F4009729F402C04C9103C04DE1CA
:101F000001C04CE150E060E070E0C416D506E60682
:101F1000F70640F0C41AD50AE60AF70A2F5F1196B1
:101F20002C3011F72F5F2093D203C394C092D103BA
:101F30008092A5049092A604A092A704B092A8044F
:101F4000DF91CF911F910F91FF90EF90DF90CF9095
:101F5000BF90AF909F908F907F906F905F904F90C9
:101F600008950E94340E0E94BE0E8091D30390E02B
:101F70008E54984F08950E94340E0E94BE0E809198
:101F8000D20390E008950E94340E0E94BE0E80910C
:101F9000D10390E008950E94340E0E94BE0E8091FD
:101FA000CD0390E008950E94340E0E94BE0E8091F1
:101FB000CE0390E008950E94340E0E94BE0E8091E0
:101FC000CF0390E00895CF92DF92EF92FF92CF93EC
:101FD000DF93EC010E94B60B6B017C018F850E94A0
:101FE0009D0A21E0892B09F420E0298B8889811141
:101FF00003C081E08227898B29898A89281721F0EB
:10200000CD8ADE8AEF8AF88E8D899E89AF89B88D58
:10201000B701A601481B590B6A0B7B0BDB01CA01F8
:10202000CB80DC80ED80FE80C416D506E606F70680
:1020300064F43A81231749F02A83222331F04B8933
:102040005C894F5F5F4F5C8B4B8B3A8131110CC0C9
:10205000CF80D884E984FA84C816D906EA06FB063C
:10206000ACF48B899C890EC0CB84DC84ED84FE8427
:10207000C816D906EA06FB064CF48B899C89919513
:1020800081959109998388831C8A1B8A2A8BDF9109
:10209000CF91FF90EF90DF90CF9008953F924F92B5
:1020A0005F926F927F928F929F92AF92BF92CF92E8
:1020B000DF92EF92FF920F931F93CF93DF9300D0A5
:1020C00000D0CDB7DEB720911A0527FDAAC14983FC
:1020D0005A836B837C838C0161E0809119050E9497
:1020E000F60A30901A05832D8D7F4801A12CB12C62
:1020F00009F0B7C060E072E18AE790E0A5019401C1
:102100000E94D82029013A0169017A0121E0C21A0E
:10211000D108E108F1088FEFC816D104E104F104F9
:1021200009F008F44CC060E472E48FE090E0A5018F
:1021300094010E94D82069017A0191E0C91AD1085E
:10214000E108F108A2E03A1220C0BFEFCB16D1049B
:10215000E104F10409F008F462C160E970ED83E084
:1021600090E0A50194010E94D82069017A01E1E084
:10217000CE1AD108E108F108FFEFCF16D104E1042F
:10218000F10409F0C0F583E065C02FEFC216D10459
:10219000E104F104B1F0A8F068E478EE81E090E0A9
:1021A000A50194010E94D82069017A0181E0C81A32
:1021B000D108E108F108332009F4D9C027C181E032
:1021C00001C082E0332091F045C0D301C2012AE072
:1021D000B595A795979587952A95D1F76C017D01BF
:1021E000E1E0CE1AD108E108F10885E095B5987FC5
:1021F000892B85BD66C068E478EE81E090E0A5019A
:1022000094010E94D82069017A01B1E0CB1AD1086B
:10221000E108F108EFEFCE16D104E104F10409F072
:1022200008F4A3C064E274EF80E090E0A50194019B
:102230000E94D82069017A0191E0C91AD108E10809
:10224000F108AFEFCA16D104E104F10411F008F06F
:10225000B0C085E09091B100987F892B8093B10048
:1022600030C060E072E18AE790E0A50194010E942D
:10227000D82069017A01F1E0CF1AD108E108F1080C
:10228000C114D10421E0E206F10488F068E478EE9C
:1022900081E090E0A50194010E94D82069017A01B3
:1022A00081E0C81AD108E108F10893E001C091E08B
:1022B000A1E03A1206C080918100887F892B80932B
:1022C000810089819A81AB81BC81892B8A2B8B2BE0
:1022D00081F0D801AA0FBB1F29813A814B815C8113
:1022E0000E94B72328EE33E040E050E00E94B62081
:1022F00003C02FEF3FEFA90191E03916A1F0A2E052
:102300003A1619F131108DC0C7BC209315053093D2
:102310001605409317055093180580916E00826052
:1023200080936E007EC0D0928900C0928800209376
:1023300011053093120540931305509314058091B5
:102340006F00826080936F006CC0C092B3002093D6
:102350000D0530930E0540930F05509310058091A5
:1023600070008260809370005CC084E073CF8FEF58
:10237000C816D104E104F104D1F0C8F062E17AE7B3
:1023800080E090E0A50194010E94D82069017A01C3
:10239000F1E0CF1AD108E108F1082FEFC216D104FD
:1023A000E104F10411F008F010CF84E01FCF83E0C6
:1023B0001DCF62E17AE780E090E0A50194010E94E0
:1023C000D82069017A0191E0C91AD108E108F10821
:1023D000AFEFCA16D104E104F104B1F0A8F0D301C3
:1023E000C2014AE0B595A795979587954A95D1F78B
:1023F0006C017D01E1E0CE1AD108E108F10833203B
:1024000009F4F3CE87E026CF86E0DCCEBFEFCB1613
:10241000D104E104F10409F060F684E0D3CE82E057
:1024200019CF0F900F900F900F90DF91CF911F91C8
:102430000F91FF90EF90DF90CF90BF90AF909F9063
:102440008F907F906F905F904F903F90089500978E
:1024500069F0FC0101900020E9F73197AF01481BBA
:10246000590BBC018BE195E00C94640780E090E08F
:1024700008950F931F93CF93DF938C01C0E0D0E0BA
:10248000F801EC0FFD1F6491662371F0E0911B05CC
:10249000F0911C050190F081E02D8BE195E009950C
:1024A000892B11F02196ECCFCE01DF91CF911F91B6
:1024B0000F910895CF93DF930E943912EC0182E2CD
:1024C00093E00E9427128C0F9D1FDF91CF910895FA
:1024D0008F929F92AF92BF920F931F93CF93DF93F0
:1024E000CDB7DEB7A1970FB6F894DEBF0FBECDBF54
:1024F00019A2423008F44AE08E010F5D1F4F842E6E
:10250000912CA12CB12CA50194010E94B620E62F9C
:10251000B901CA0101501109EA3014F4E05D01C0AB
:10252000E95CD801EC93232B242B252B61F7C80100
:102530000E942712A1960FB6F894DEBF0FBECDBF42
:10254000DF91CF911F910F91BF90AF909F908F908F
:102550000895CF92DF92EF92FF92CF93DF936C01B9
:10256000990FEE08FF08F7FE1AC0E0911B05F091E5
:102570001C050190F081E02D6DE28BE195E009955D
:10258000EC0166277727CB016C197D098E099F091D
:102590004AE00E9468127C01EC0EFD1E06C04AE073
:1025A000C701B6010E9468127C0182E293E00E949A
:1025B00027128E0D9F1DDF91CF91FF90EF90DF903E
:1025C000CF900895CF93DF93FC01448155816081C2
:1025D00071818BE195E00E946407EC0182E293E057
:1025E0000E9427128C0F9D1FDF91CF9108958F922B
:1025F0009F92AF92BF92CF92DF92EF92FF920E9492
:10260000910B4B015C0188EEC82E83E0D82EE12CA3
:10261000F12C0E94910BDC01CB0188199909AA09C0
:10262000BB09883E9340A105B10558F021E0C21ACC
:10263000D108E108F10888EE880E83E0981EA11CFD
:10264000B11CC114D104E104F10419F7FF90EF901B
:10265000DF90CF90BF90AF909F908F900895209182
:102660000C0590910B05213208F04AC08091E804D6
:102670008111FCCF32E03093E80431E03093E7047D
:102680003FEF3093E6041092E5042093E404ABEEB0
:10269000B4E044EC54E0FA013E2F341B321718F436
:1026A0003D913193F9CF1092C3042091C304990F47
:1026B000922B9093C3049091C204913061F41092D4
:1026C000C2049091C3049093BB009091BC0093FD11
:1026D000F8CF95EC01C095EE9093BC009091E80482
:1026E0009230E1F39091E6049F3F79F08091E60407
:1026F000803241F08091E604803331F084E005C0FF
:1027000081E003C082E001C083E01092EA041092ED
:102710000C051092E9040895CF93DF930E942712CD
:10272000EC0182E293E00E9427128C0F9D1FDF9143
:10273000CF910895CF93DF93CDB7DEB7CA56D109B5
:102740000FB6F894DEBF0FBECDBF789484B582601B
:1027500084BD84B5816084BD85B5826085BD85B545
:10276000816085BD80916E00816080936E001092C3
:10277000810080918100826080938100809181003E
:1027800081608093810080918000816080938000CF
:102790008091B10084608093B1008091B00081602D
:1027A0008093B00080917A00846080937A00809159
:1027B0007A00826080937A0080917A0081608093B1
:1027C0007A0080917A00806880937A001092C1002C
:1027D0001092BD031092BC031092EA0410920C05F3
:1027E0001092E80481E08093E7041092C20461E053
:1027F00082E10E94C60A61E083E10E94C60A8091DC
:10280000B9008E7F8093B9008091B9008D7F80934D
:10281000B90088E48093B80085E48093BC00E0911F
:102820002B05F0912C0582E08083E0912705F09143
:1028300028051082E0912905F0912A0580E1808326
:1028400010923305E0912F05F091300586E08083EA
:10285000E0912D05F0912E05808180618083E091CB
:102860002D05F0912E05808188608083E0912D05F3
:10287000F0912E05808180688083E0912D05F09194
:102880002E0580818F7D808381E090E00E949203FD
:102890008C3019F088E190E002C08CE090E09093D9
:1028A00025018093240180E090E00E949203882318
:1028B00021F081E08093050102C01092050182E0C1
:1028C00090E00E9492038F3F29F410921D01109214
:1028D0001C0105C090E090931D0180931C0183E0D2
:1028E00090E00E9492038F3F29F410921F011092F2
:1028F0001E0105C090E090931F0180931E0184E0AB
:1029000090E00E9492038F3F29F4109221011092CF
:10291000200105C090E0909321018093200186E082
:1029200090E00E9492038F3F29F4109223011092AD
:10293000220105C090E0909323018093220187E05B
:1029400090E00E9492038F3F19F41092200406C079
:1029500091E0811101C090E09093200485EB92E01A
:102960000E9427128091200490E00E94A91261E049
:1029700089E00E94F60A61E086E00E94F60A61E0C2
:1029800083E00E94F60A61E08CE00E94F60A61E0B2
:1029900084E00E94F60A8091EB03833008F083C044
:1029A00092E090931905E82FF0E0E058FF4FE49192
:1029B000E0931A058F5F8093EB03E13031F1E23051
:1029C00009F44AC0E11172C014BC15BC84B5826020
:1029D00084BD85B5816085BD8091190590E0FC01BD
:1029E000EF55FF4FE491F0E0EE0FFF1FEA58FF4F65
:1029F000259134913093C6032093C503FC01E3571E
:102A0000FF4FE491E093C40351C0109280001092F4
:102A10008100809181008860809381008091810095
:102A20008160809381008091190590E0FC01EF5551
:102A3000FF4FE491F0E0EE0FFF1FEA58FF4F2591A2
:102A400034913093C3032093C203FC01E357FF4F3B
:102A5000E491E093C1032AC01092B0001092B1003B
:102A60008091B00082608093B0008091B10081605D
:102A70008093B1008091190590E0FC01EF55FF4F64
:102A8000E491F0E0EE0FFF1FEA58FF4F25913491DB
:102A90003093C0032093BF03FC01E357FF4FE49141
:102AA000E093BE0303C08FEF80931A05809100016D
:102AB000909101010E940D04909301018093000107
:102AC00061E08AE00E94F60A1FB7F8948091EC0357
:102AD000811127C0EBEAF0E08491E7E9F0E09491FE
:102AE000E82FF0E0EE0FFF1FED57FF4FA591B491D7
:102AF000EC91E92321F461E08AE00E94C60A61E0DA
:102B00008AE00E94F60A8CB580618CBD8CB5806429
:102B10008CBD61E08DE00E94F60A61E08BE00E94CE
:102B2000F60A8091EC038F5F8093EC031FBF8CB596
:102B30008C608CBD8CB583608CBD8DB58E7F8DBD5A
:102B400062E08EE00E94F60A62E080E10E94F60AEE
:102B500062E08FE00E94F60A61E082E00E94F60ADD
:102B600004E110E020E030E00093F9051093FA054D
:102B70002093FB053093FC054EE150E060E070E0EF
:102B80004093FD055093FE056093FF05709300068A
:102B900080ED97E0A0E0B0E08093010690930206FC
:102BA000A0930306B09304060093E0051093E1059B
:102BB0002093E2053093E3054093E4055093E50547
:102BC0006093E6057093E7058093E8059093E90527
:102BD000A093EA05B093EB050093C7051093C805D1
:102BE0002093C9053093CA054093CB055093CC057B
:102BF0006093CD057093CE058093CF059093D0055B
:102C0000A093D105B093D2056FEB72E09E012F5FC8
:102C10003F4F1901C9010E94DB0966EC72E0CE0149
:102C200007960E94DB096DEC72E0CE010D960E94C2
:102C3000DB0964ED72E0CE0143960E94DB096BED87
:102C400072E0CE0149960E94DB0962EE72E0CE018D
:102C50004F960E94DB0969EE72E0CE0185960E94D4
:102C6000DB0960EF72E0CE018B960E94DB0967EF13
:102C700072E0CE01C1960E94DB096EEF72E0CE01D8
:102C8000C7960E94DB0964E273E0CE01CD960E94F4
:102C9000DB0964E273E0CE018D5B9F4F0E94DB098C
:102CA00065E176E0CE01CD960E944509CE01CD9634
:102CB0000E94E2128AEC90E00E94391224E030E097
:102CC00042E050E065E176E0CE01875B9F4F0E94D5
:102CD000F00922E030E041E050E065E176E0CE012D
:102CE0008B5A9F4F0E94F009BE016B5A7F4FCE0155
:102CF000815B9F4F0E94D20965E073E0CE01815B4A
:102D00009F4F0E941909BE01675B7F4F0E943209E5
:102D10000E94E212CE01815B9F4F0E949509CE0175
:102D20008B5A9F4F0E949509CE01875B9F4F0E944F
:102D300095098FEB90E00E945A12809100019091CA
:102D400001019093DE038093DD030E940D046FEF79
:102D500070E089E00E94320B0E94F71260E070E0A0
:102D600089E00E94320B6FEF70E086E00E94320B28
:102D70000E94F71260E070E086E00E94320B6FEF75
:102D800070E083E00E94320B0E94F7120E94B60BA3
:102D90004B015C01FF24F394EE24EA9444EF51E0EC
:102DA000A6965FAF4EAFA697A2961FAEA2978FE0F2
:102DB0000E949D0A892B21F451E0A2965FAFA29751
:102DC00080E10E949D0A892B19F4A2961FAEA2975A
:102DD00081E0A7968FAFA797C12CD12C0E94B60B8C
:102DE000DC01CB0188199909AA09BB09A696EEADA9
:102DF000FFADA6978F01FF0F220B330B08171907A2
:102E00002A073B0708F044C00E94B60B4B015C0147
:102E1000A296FFADA297F11101C0E3942AE0E21659
:102E200039F03BE0E3120AC0A7961FAEA79706C091
:102E300048EB5BE0A6965FAF4EAFA697B10156E0B8
:102E40005E9D600D711D11248FE096E00E94450982
:102E500087E093E00E9427128FE096E00E94E21242
:102E600088E193E00E9427128E2D90E0A0E0B0E070
:102E70004AE0BC01CD010E94681282E293E00E9408
:102E8000271285E293E00E942712C6010E94A91230
:102E90000F2D10E001501109000F111FC8010196FC
:102EA000A4969FAF8EAFA4979C01A8016FE076E037
:102EB000CE01875B9F4F0E94F009CE01875B9F4F39
:102EC0000E940E09660F771FFB01E453FE4F4080FE
:102ED0005180612C712CCE01875B9F4F0E94950918
:102EE00098012E5F3F4FA4964EAD5FADA4976FE063
:102EF00076E0CE01875B9F4F0E94F009CE01875B91
:102F00009F4F0E940E09660F771FFB01E453FE4F8F
:102F10004081518160E070E0CE01875B9F4FA896B1
:102F20004FAFA897A9965FAFA997AA966FAFAA9738
:102F3000AB967FAFAB970E949509A8964FADA89727
:102F4000A9965FADA997AA966FADAA97AB967FADEC
:102F5000AB97BAE0440F551F661F771FBA95D1F79C
:102F6000442A552A662A772A60E08AE00E94C60A27
:102F7000862D0E945C07852D0E945C07842D0E948F
:102F80005C0761E08AE00E94C60A92E0F91649F007
:102F9000E3E0FE1651F0F1E0FF120AC05D9A5F987F
:102FA00002C05D985F9A289803C05D985F98289A40
:102FB000F39424E0F21202C0FF24F3948BE39FE128
:102FC0000197F1F73FEFC31AD30A4AE0C416D104C0
:102FD00009F004CFA7965FADA7975111E8CE85EB16
:102FE00090E00E945A128E01075B1F4F0650110994
:102FF000C8010E94950902151305C1F780912004AC
:1030000081110E9494030E94F4040091E303109143
:10301000E4030E94B60B6B017C0181E080932704DE
:1030200011278091E3039091E40308171907A9F48D
:103030000E94F4040E94B60BDC01CB018C199D099F
:10304000AE09BF09893B9B40A105B10550F38DED49
:1030500090E00E945A1210922704E090E903F09049
:10306000EA030091E7031091E8032091E503309112
:10307000E6034091E3035091E4036091E103709112
:10308000E2038091DF039091E0030E94580D7AE003
:10309000D72E0E94B60B20E63AEE40E050E00E94A8
:1030A000B620672B682B692B21F4809127048111AE
:1030B000B5C70091DD031091DE03F80180818823FC
:1030C00009F431C10E94B60B8090F3039090F40391
:1030D000A090F503B090F603DC01CB0188199909A3
:1030E000AA09BB098090EF039090F003A090F10330
:1030F000B090F20388169906AA06BB0608F013C121
:103100000E94B60B4B015C016093F3037093F403D0
:103110008093F5039093F6031092CC031092CB03A7
:10312000C8018C01FC01F080019640ED4F0D20910B
:10313000CB033091CC034A3080F4D29EA001D39EC1
:10314000500D1124EF2DFF0CFF0BF097E40FF51F2E
:10315000F093CC03E093CB03E4CF6091C70370916D
:10316000C8038091C9039091CA032115310529F044
:10317000032E000C440B550B05C02091030130E0D9
:1031800040E050E00E94D8202093EF033093F003FA
:103190004093F1035093F2038F2DFF0C990BAA0B70
:1031A000BB0BFC01E156F109E730F10520F4EC5CC2
:1031B000FF4F0C94F7201092EE0312C081E001C083
:1031C00083E08093EE030CC085E0FBCF86E0F9CF6F
:1031D00088E0F7CFD092EE0303C0FCE0F093EE035B
:1031E000F8018181833219F00F5F1F4F07C0809172
:1031F000EE038F5F8093EE030E5F1F4FF801808117
:103200008E32F1F44090EF035090F0036090F103A0
:103210007090F203C301B20122E030E040E050E0E0
:103220000E94D820420E531E641E751E4092EF036A
:103230005092F0036092F1037092F2030F5F1F4F00
:10324000F801808180538A3028F48093ED030F5F6A
:103250001F4F04C0809102018093ED038091ED0324
:10326000F80190819C3211F40F5F1F4F2091EE0303
:10327000222309F458C04090EF035090F00360906F
:10328000F1037090F20390E004973CE0389FF00166
:10329000399FF00D1124E20FF11DEE0FFF1FEA5BC5
:1032A000FE4FB301A201808191810E944E100E94C5
:1032B000B60BDC01CB0188199909AA09BB0948168C
:1032C00059066A067B0678F50E94B60B6093F303F5
:1032D0007093F4038093F5039093F60380911A059D
:1032E000813051F0823071F0811111C080916E00F7
:1032F0008D7F80936E000BC080916F008D7F8093D7
:103300006F0005C0809170008D7F8093700060E039
:10331000809119050E94C60A89EF90E00E945A1216
:1033200090E080E002C0902F812F9093DD03809386
:10333000DE030E94B60B0091230410912404209117
:10334000250430912604DC01CB01801B910BA20BDC
:10335000B30B0697A105B10508F489C0809105015A
:10336000811110C060E070E089E00E94320B60E0E3
:1033700070E086E00E94320B60E070E083E00E9423
:10338000320B6BC080912004811167C00091F9035A
:103390001091FA03C801880F991F800F911FFC013B
:1033A000EE0FFF1FE855FE4F609106017091070177
:1033B00020813181620F731F7093070160930601B2
:1033C000FC01EE0FFF1FE655FE4F209117043091D0
:1033D0001804E080F180E20EF31EF0921804E092EF
:1033E0001704880F991FFC01E455FE4F80911504C6
:1033F00090911604A080B180A80EB91EB092160458
:10340000A092150489E00E94320BB70186E00E9469
:10341000320BB50183E00E94320B8091F70390914B
:10342000F80301969093F8038093F7038F3F91057B
:1034300051F40F5F1F4F1093FA030093F90310929A
:10344000F8031092F7038091F9039091FA0306971D
:1034500024F01092FA031092F9030E94B60B6093C5
:1034600023047093240480932504909326040E94DF
:10347000910B0091FB031091FC032091FD0330910F
:10348000FE03DC01CB01801B910BA20BB30B89382F
:103490009341A105B10508F4A4C00E94910B60936B
:1034A000FB037093FC038093FD039093FE035D98F0
:1034B0005F982898C0900401EC2CF12C51E0E51A9B
:1034C000F108EE0CFF1C47018FEF881A980A94014F
:1034D000A7016FE076E0C1010E94F009C1010E94DE
:1034E0000E09660F771FFB01E453FE4F0081118127
:1034F000C1010E94950997012E5F3F4FA4016FE023
:1035000076E0C1010E94F009C1010E940E09660F18
:10351000771FFB01E453FE4FA080B180C1010E94E0
:10352000950920911F04222371F0809114048823AF
:1035300051F0C701A8962FAFA8970E940B03A89639
:103540002FADA89702C080E090E02C01402A512ABC
:10355000612C712C222341F080911404882321F0E6
:10356000C4010E940B0302C080E090E08A299B29DD
:10357000A0E0B0E01AE0880F991FAA1FBB1F1A95A0
:10358000D1F7482A592A6A2A7B2A60E08AE00E94F9
:10359000C60A862D0E945C07852D0E945C07842D3B
:1035A0000E945C0761E08AE00E94C60A92E0C916A8
:1035B00049F0E3E0CE1651F0F1E0CF120AC05D9A77
:1035C0005F9802C05D985F9A289803C05D985F98E5
:1035D000289A809104018F5F843009F481E0809300
:1035E000040186EF95E00E94E30F8DED95E00E94C7
:1035F000E30F84EC95E00E94E30F8091DC038111DE
:1036000003C01092DB032BC00E94B60B0091D703BE
:103610001091D8032091D9033091DA03DC01CB015A
:10362000801B910BA20BB30B81369A4EA105B105FD
:10363000B0F01092DC03E091D503F091D603EE0FC9
:10364000FF1FE15DFD4F808191819093D6038093B0
:10365000D503FC01E05EFD4F80818093DB03809108
:10366000F6059091F705181619060CF08FC1109207
:10367000DE031092DD0344E650E060E070E088EE87
:1036800093E00E944E100E94B60B6093D703709394
:10369000D8038093D9039093DA038091D503909156
:1036A000D60301968430910529F09093D603809338
:1036B000D50304C01092D6031092D50387E191E0A0
:1036C0000E9439128091D5039091D6030E94A912CD
:1036D00080E191E00E943912E091D503F091D60388
:1036E000EE0FFF1FE85FFE4F808191810E94A912BB
:1036F0002091D5033091D603F901E05EFD4F808122
:103700008093DB0321503109F901EE0FFF1FEE5FBB
:10371000FD4F408151814115510509F428C1CA016D
:103720000197FC01EE0FFF1FEC51FE4F608171818C
:103730006217730709F01BC14230510569F528E192
:10374000EEE2F1E0D10101900D922A95E1F720918E
:103750001A0130911B0123703327232B21F44DE1F3
:1037600050E05C834B832091160130911701E0916A
:103770001801F09119013197EE0FFF1FE20DF31DB3
:1037800040815181421753073CF487E090E09093C9
:10379000D6038093D5033FC41092DC039093D603E5
:1037A0008093D503892BB9F40E94B10F7C010E944C
:1037B000BB0F8C010E94C30F9C01409114015091DA
:1037C0001501609112017091130180911001909187
:1037D00011010E94580D8091D5039091D603019755
:1037E000E9F4E0901A01F0901B0150E3E51A58EF5C
:1037F000F50A00911801109119016090160170905E
:1038000017010E94CB0F4C010E94D30F5C010E9454
:10381000DB0F9301A401B5010E94580D8091D503DF
:103820009091D6030297C1F460911C0182E090E070
:103830000E94900360911E0183E090E00E9490033B
:103840006091200184E090E00E9490036091220149
:1038500086E090E00E9490038091D5039091D6037A
:10386000039731F46091240181E090E00E9490037D
:103870000E94B10F68EE73E00E94A220182F0E94F0
:10388000BB0F082F0E94C30FF82E0E94CB0FB82E3B
:103890000E94D30FC82E0E94DB0FE82E81E0809398
:1038A000E90488E680930B051092EA0410920C0557
:1038B00060E088EB95E00E9463018B2D6D2D0E94E6
:1038C0009620692FE0E18E9F600D112488EB95E032
:1038D0000E9463018C2D6D2D0E949620692FF0E1CE
:1038E0008F9F600D112488EB95E00E9463018E2D5F
:1038F0006D2D0E949620692F20E1829F600D11247A
:1039000088EB95E00E94630161E088EB95E00E94FE
:1039100063018F2D6D2D0E949620692F30E1839FCA
:10392000600D112488EB95E00E946301802F6D2DBE
:103930000E949620692F40E1849F600D112488EB3E
:1039400095E00E946301812F6D2D0E949620692FC2
:1039500050E1859F600D112488EB95E00E94630182
:1039600060E088EB95E00E9463010E942F130091B4
:10397000D5031091D6038091DB030E949E04000FB3
:10398000111FF801E85FFE4F918380838091F60557
:103990009091F70597FF8CC044E650E060E070E03E
:1039A00088EE93E00E944E108091DC03811151C09B
:1039B0000E94B60B6093D7037093D8038093D9030A
:1039C0009093DA038091D5039091D603892B09F067
:1039D00040C00E94CB0FBC01C1010E94C7050E94DC
:1039E000D30FBC01CE01875B9F4F0E94C7050E9489
:1039F000DB0FBC01CE018B5A9F4F0E94C705BE0151
:103A00006B5A7F4FCE01815B9F4F0E94D209BE014E
:103A1000675B7F4FCE01815B9F4F0E943209B101EE
:103A20000E943209BC018FE096E00E944509CE0158
:103A3000815B9F4F0E949509CE018B5A9F4F0E9438
:103A40009509CE01875B9F4F0E949509C1010E9495
:103A50009509E091D503F091D603EE0FFF1FE15DCC
:103A6000FD4F008111811093D6030093D5030A30D6
:103A7000110549F481E090E09093230180932201A5
:103A800080E88093D4039091DC0381E089278093C0
:103A9000DC03F801E05EFD4F80818093DB030E9430
:103AA0009E04000F111FF801E85FFE4F9183808391
:103AB0008091DD059091DE05009701F1909322043D
:103AC0008093210418161906CCF41092DE0310928C
:103AD000DD0344E650E060E070E088EE93E00E9491
:103AE0004E100E940B078091DC03811107C01092D9
:103AF000200460E087E090E00E9490038091210420
:103B000090912204019661F58091DF05882341F1AF
:103B100010921F048091DC03882329F10E94B60BC8
:103B200000911B0410911C0420911D0430911E046F
:103B3000DC01CB01801B910BA20BB30B87399105E4
:103B4000A105B10580F00E94B60B60931B04709331
:103B50001C0480931D0490931E040E940B0703C055
:103B600081E080931F048091C4059091C505009762
:103B700099F190931A04809319041816190664F5A4
:103B80001092DE031092DD0344E650E060E070E046
:103B900088EE93E00E944E100E94AF068091DC03F5
:103BA00081111AC081E08093200461E087E090E0F9
:103BB0000E9490036091060188E090E00E949003CB
:103BC0006091170489E090E00E94900360911504D1
:103BD0008AE090E00E9490038091190490911A0469
:103BE000019661F58091C605882341F11092140475
:103BF0008091DC03882329F10E94B60B0091100408
:103C0000109111042091120430911304DC01CB01B6
:103C1000801B910BA20BB30B87399105A105B10550
:103C200080F00E94B60B609310047093110480938F
:103C30001204909313040E94AF0603C081E08093A6
:103C400014048091DC03811135C08091DD059091D1
:103C5000DE0597FF16C044E650E060E070E088EEB5
:103C600093E00E944E1081E08093050161E080E0C6
:103C700090E00E94900388E293E00E948C130E94DF
:103C800094038091C4059091C50597FF13C044E645
:103C900050E060E070E088EE93E00E944E101092D9
:103CA000050160E080E090E00E9490038FE293E0E5
:103CB0000E948C138091D5039091D6038130910599
:103CC00009F412C11CF4892B99F1A5C18230910528
:103CD00009F450C1039709F09EC1609124017091CD
:103CE00025014AE0CE0101960E949A0963EC72E038
:103CF000CE01875B9F4F0E94DB09BE016F5F7F4F44
:103D0000CE01875B9F4F0E94320963EC72E00E94F4
:103D10001909BC018FE096E00E944509CE01875B3E
:103D20009F4F0E949509CE0101960E9495096FC18F
:103D30000E94B60B0091FF03109100042091010432
:103D400030910204DC01CB01801B910BA20BB30B61
:103D5000893E9340A105B10508F477C00E94B60BD7
:103D60006093FF0370930004809301049093020416
:103D70008091240190912501489799F40E94CB0FDE
:103D8000BC01CE0101960E94C7050E94D30FBC0161
:103D9000CE01875B9F4F0E94C7050E94DB0FBC01CD
:103DA00020C00E94CB0FBC01CE0101960E94C70526
:103DB0000E94D30FBC01CE01875B9F4F0E94C705B5
:103DC0000E94340E0E94BE0E8091CF03882339F0EA
:103DD000682F70E08D3028F06C50710902C06CE0E3
:103DE00070E0CE018B5A9F4F0E94C705BE016B5AEF
:103DF0007F4FCE01815B9F4F0E94D209BE01675B5E
:103E00007F4FCE01815B9F4F0E943209BE016F5FE1
:103E10007F4F0E943209BC01CE01855A9F4F0E94FC
:103E2000D209CE01815B9F4F0E949509CE018B5A2A
:103E30009F4F0E949509CE01875B9F4F0E94950975
:103E4000CE0101960E94950907C06FE076E0CE0191
:103E5000855A9F4F0E94D209BE01655A7F4F8FE05D
:103E600096E00E945C09CE01855A9F4F0E949509F9
:103E70008091080481110DC00E94B60B6093040468
:103E800070930504809306049093070481E0809367
:103E900008040E94B60B00910404109105042091BF
:103EA000060430910704DC01CB01801B910BA20BAF
:103EB000B30B893E9340A105B10508F4AAC00E9446
:103EC000B60B6093040470930504809306049093EA
:103ED00007049091030481E08927809303048823D9
:103EE00009F495C080EC90C00E94B10F68EE73E0B9
:103EF0000E94A220BC01C1010E94C7050E94BB0F05
:103F0000BC01CE01875B9F4F0E94C7050E94C30F73
:103F1000BC01CE018B5A9F4F0E94C705BE016B5A50
:103F20007F4FCE01815B9F4F0E94D209BE01675B2C
:103F30007F4FCE01815B9F4F0E943209B1010E94E9
:103F40003209BC018FE096E00E944509CE01815BF9
:103F50009F4F0E949509CE018B5A9F4F0E94950951
:103F6000CE01875B9F4F0E949509C1010E94950970
:103F700080E44AC06091200170912101C1010E943A
:103F8000C70560911E0170911F01CE01875B9F4F95
:103F90000E94C70560911C0170911D01CE018B5AD2
:103FA0009F4F0E94C705BE016B5A7F4FCE01815BB8
:103FB0009F4F0E94D209BE01675B7F4FCE01815B9C
:103FC0009F4F0E943209B1010E943209BC018FE06B
:103FD00096E00E944509CE01815B9F4F0E949509A2
:103FE000CE018B5A9F4F0E949509CE01875B9F4F50
:103FF0000E949509C1010E9495098091220190912A
:104000002301019721F480E88093D40302C0109229
:10401000D4030E94AC030E9451083BC80E94F404E0
:10402000E090E903F090EA030091E7031091E803C0
:104030002091E5033091E6034091E3035091E403BE
:104040006091E1037091E2038091DF039091E003BE
:104050000E94580D87E393E00E948C138091E30344
:104060009091E4030E94A91224C88FE096E00E9478
:10407000950985E196E00C949509EBE1F5E0138252
:10408000128288EE93E0A0E0B0E084839583A6835B
:10409000B78329E932E03183208325EC30E035878E
:1040A000248724EC30E03787268720EC30E0318B02
:1040B000208B21EC30E0338B228B22EC30E0358BEF
:1040C000248B26EC30E0378B268B118E128E138ECC
:1040D000148EE8EBF5E01382128284839583A68325
:1040E000B78389EA92E09183808364EB73E085E192
:1040F00096E00E94DB096FEB72E08FE096E00E9491
:10410000DB0921E040E06EE086EF95E00E9492013D
:1041100021E040E060E18DED95E00E94920121E018
:1041200040E06FE084EC95E00C949201991B79E0FB
:1041300004C0991F961708F0961B881F7A95C9F737
:104140008095089597FB072E16F4009407D077FD0D
:1041500009D00E94052107FC05D03EF49095819579
:104160009F4F0895709561957F4F0895A1E21A2E93
:10417000AA1BBB1BFD010DC0AA1FBB1FEE1FFF1F0B
:10418000A217B307E407F50720F0A21BB30BE40B5B
:10419000F50B661F771F881F991F1A9469F76095A2
:1041A0007095809590959B01AC01BD01CF0108955C
:1041B000052E97FB1EF400940E94EF2057FD07D0B8
:1041C0000E94B62007FC03D04EF40C94EF205095CB
:1041D0004095309521953F4F4F4F5F4F08959095F3
:1041E0008095709561957F4F8F4F9F4F0895EE0F8B
:1041F000FF1F0590F491E02D0994B7FF0C94B723AD
:104200000E94B723821B930B0895AA1BBB1B51E18D
:1042100007C0AA1FBB1FA617B70710F0A61BB70B36
:10422000881F991F5A95A9F780959095BC01CD01DB
:104230000895CF93DF938230910510F482E090E0EF
:10424000E0911D06F0911E0620E030E0C0E0D0E0D5
:10425000309711F14081518148175907C0F0481734
:10426000590761F482819381209719F09B838A8397
:104270002BC090931E0680931D0626C02115310584
:1042800019F04217530718F49A01BE01DF01EF013C
:104290000280F381E02DDCCF2115310509F1281BC7
:1042A000390B2430310590F412968D919C9113971F
:1042B0006115710521F0FB019383828304C0909303
:1042C0001E0680931D06FD01329644C0FD01E20FDB
:1042D000F31F81939193225031092D933C933AC05F
:1042E00020911B0630911C06232B41F420912A01BA
:1042F00030912B0130931C0620931B06209128013E
:10430000309129012115310541F42DB73EB7409177
:104310002C0150912D01241B350BE0911B06F091CF
:104320001C06E217F307A0F42E1B3F0B28173907D2
:1043300078F0AC014E5F5F4F2417350748F04E0F01
:104340005F1F50931C0640931B068193919302C0FC
:10435000E0E0F0E0CF01DF91CF9108950F931F933C
:10436000CF93DF93009709F48CC0FC01329713823E
:10437000128200911D0610911E060115110581F48F
:1043800020813181820F931F20911B0630911C06E2
:104390002817390779F5F0931C06E0931B0671C0C6
:1043A000D80140E050E0AE17BF0750F412962D91AF
:1043B0003C911397AD012115310509F1D901F3CFD6
:1043C0009D01DA013383228360817181860F971FFB
:1043D0008217930769F4EC0128813981260F371F72
:1043E0002E5F3F4F318320838A819B819383828319
:1043F000452B29F4F0931E06E0931D0642C0139648
:10440000FC93EE931297ED01499159919E01240F6F
:10441000351FE217F30771F480819181840F951F96
:10442000029611969C938E938281938113969C930E
:104430008E931297E0E0F0E0D80112968D919C9156
:104440001397009719F0F8018C01F6CF8D919C918C
:1044500098012E5F3F4F820F931F20911B063091D2
:104460001C062817390769F4309729F410921E06A4
:1044700010921D0602C01382128210931C06009334
:104480001B06DF91CF911F910F910895A0E0B0E03E
:10449000ECE4F2E20C94C623EC01009721F4CB018A
:1044A0000E941921B8C0FC01E60FF71F9C012250A1
:1044B0003109E217F30708F4ACC0D9010D911C9142
:1044C000119706171707B0F00530110508F49FC0C3
:1044D000C80104978617970708F499C0025011097C
:1044E000061B170B019311936D937C93CF010E94D0
:1044F000AE218DC05B01A01AB10A4C01800E911E45
:10450000A0911D06B0911E0640E050E0E12CF12C78
:10451000109709F44AC0A815B905D1F56D907C90A3
:104520001197630182E0C80ED11CCA14DB0480F12C
:10453000A3014A195B096A0182E0C80ED11C1296D8
:10454000BC9012971396AC91B5E0CB16D10440F015
:10455000B282A38351834083D9016D937C930AC0B7
:104560000E5F1F4FC301800F911FF901918380835C
:10457000EB2DFA2FE114F10431F0D7011396FC93DF
:10458000EE93129744C0F0931E06E0931D063FC0C1
:104590008D919C9111974817590708F4AC017D0142
:1045A00012960D90BC91A02DB3CF80911B069091D7
:1045B0001C0688159905E1F446175707C8F4809141
:1045C000280190912901009741F48DB79EB7409141
:1045D0002C0150912D01841B950BE817F907C8F4A5
:1045E000F0931C06E0931B06F901718360830FC0F2
:1045F000CB010E9419217C01009759F0A801BE014E
:104600000E941523CE010E94AE21C70104C0CE0135
:1046100002C080E090E0CDB7DEB7EEE00C94E2237C
:1046200081E090E0F8940C940824FB01DC0102C0C6
:1046300001900D9241505040D8F70895FB01DC01E4
:1046400001900D920020E1F708951F93FC01992736
:104650008827BC01E89411911032E9F3193010F069
:104660001E30C8F31B3251F01D3249F4689406C065
:104670000E946223610F711D811D911D11911053C4
:104680001A30B0F33EF490958095709561957F4F08
:104690008F4F9F4F1F9108954532510520F44230AE
:1046A00010F00C945723FB011082CB010895BB2717
:1046B0004A3031F4992322F4BDE2909581959F4FC1
:1046C0000C947823592F482F372F262F660F771FEA
:1046D000881F991F660F771F881F991F620F731F0E
:1046E000841F951F660F771F881F991F0895BB278A
:1046F000FB015527AA27880F991FAA1FA41710F09E
:10470000A41B83955051B9F7A05DAA3308F0A95DA9
:10471000A193009779F7B111B1931192CB010C9449
:104720009123DC01FC01672F71917723E1F7329728
:1047300004C07C916D9370836291AE17BF07C8F37C
:104740000895F999FECF92BD81BDF89A992780B559
:104750000895262FF999FECF1FBA92BD81BD20BDC5
:104760000FB6F894FA9AF99A0FBE019608950E942E
:10477000F923A59F900DB49F900DA49F800D911DCE
:10478000112408952F923F924F925F926F927F92E1
:104790008F929F92AF92BF92CF92DF92EF92FF9251
:1047A0000F931F93CF93DF93CDB7DEB7CA1BDB0BFD
:1047B0000FB6F894DEBF0FBECDBF09942A883988A2
:1047C00048885F846E847D848C849B84AA84B984A9
:1047D000C884DF80EE80FD800C811B81AA81B981B5
:1047E000CE0FD11D0FB6F894DEBF0FBECDBFED01C9
:1047F0000895A29FB001B39FC001A39F700D811DBA
:104800001124911DB29F700D811D1124911D0895D9
:1048100010E0CAEAD0E004C0FE010E94F720219611
:0A482000CB3AD107C9F7F894FFCF97
:10482A003D0306040101FF00000000000000000033
:10483A00000000000000000000000000000000006E
:10484A000000000018003F0000001F0680001F0043
:10485A001C001F001E001F001E001F001F001E005C
:10486A001F001E001F000000060115012601370166
:10487A004A015D01720188019F01B801D201EE016E
:10488A000B022A024B026E029302BA02E4021003DE
:10489A003F037003A403DC03170455049704DD04E3
:1048AA0027057505C80520067D06E0064907B807ED
:1048BA002D08A9082D09B9094D0AEA0A900B400CDE
:1048CA00FA0CC00D910E6F0F000000000100FFFFEF
:1048DA000000000000000100000000000000FFFFCF
:1048EA000100000000000000FFFF0000FE03FD03BE
:1048FA00FB03F703EF03DF03BF037F03FF02FF019D
:10490A00000A0908060009000D000E000000000058
:10491A00000000000000000000000000000000008D
:10492A00000000000000000000000100010001007A
:10493A000200020002000300030003000300040057
:10494A0000000000030C30030C30030C30C00C04D0
:10495A000007000A000E000000000000000000002E
:10496A00000000000000000000000000000000003D
:10497A00000000000017003B003B001F000C006312
:10498A000017003B003B0001001800000000000077
:10499A00000C0000000000000001000100000000FF
:1049AA00000000000000000C001F1C1F1E1F1E1F1D
:1049BA001F1E1F1E1F00000000E8076407B1078FB3
:1049CA0007A3072F0800000000630133012B01171A
:1049DA0001080107016C6564206C6F636B3D003050
:1049EA003030303030003131313131310032323211
:1049FA0032323200333333333333003434343434E1
:104A0A0034003535353535350036363636363600E6
:104A1A003737373737370038383838383800393980
:104A2A0039393939002E00737472696E67546F44CC
:104A3A006973706C61793D00737472496E6465784C
:104A4A003D000D0A00693D005247423D6F6E00521B
:104A5A0047423D6F66660073796E633A0050696E2D
:104A6A006B50616E746865723A643D342C6F3D35E3
:104A7A002C623D3136303A3864232C38652C32703A
:104A8A002C3866232C38672C32702C3864232C3847
:104A9A00652C3136702C3866232C38672C313670E9
:104AAA002C3863362C38622C3136702C3864232C1F
:104ABA0038652C3136702C38622C3261232C3270D6
:104ACA002C3136612C3136672C3136652C313664FF
:0C4ADA002C3265003031303330300000E9
:00000001FF
