:100000000C949D000C94C5000C94C5000C94C50084
:100010000C94C5000C94C5000C94C5000C94970575
:100020000C94C5000C94C5000C94C5000C94F2050A
:100030000C94C5000C94C5000C9457060C94C50094
:100040000C944D050C94C5000C94CF030C94A9039B
:100050000C94C5000C94C5000C94C5000C94C5000C
:100060000C94BA0A0C94C50087188A1879187B1862
:100070007F188118831800000000250028002B003D
:1000800002010000000000240027002A00010204F1
:10009000081020408001020408102001020408100A
:1000A0002004040404040404040202020202020301
:1000B000030303030353746F702054657374005378
:1000C000746172742054657374004669726D77614F
:1000D00072652076657273696F6E3A2000496E63AF
:1000E0006F727265637420536F6E6720466F726D16
:1000F0006174210076616C75653D006D656E7550AB
:100100006F736974696F6E3D000000000023002664
:10011000002900000000080002010000030407009D
:100120000000000000000057616B652075702C20F6
:100130004E656F210000C71FBF1F11241FBECFEFE8
:10014000D8E0DEBFCDBF13E0A0E0B1E0EEE3F7E41E
:1001500002C005900D92A43BB107D9F726E0A4EBAD
:10016000B3E001C01D92A631B207E1F710E0CCE97F
:10017000D0E004C02197FE010E948120CB39D10735
:10018000C9F70E94AB120C9492230C9400000895BE
:10019000CF92DF92EF92FF920F931F93CF93DF9353
:1001A0006C017A018B01C0E0D0E0CE15DF0589F04B
:1001B000D8016D918D01D601ED91FC910190F081F6
:1001C000E02DC6010995892B11F47E0102C021960C
:1001D000ECCFC701DF91CF911F910F91FF90EF906E
:1001E000DF90CF900895FC01918D828D981761F07A
:1001F000828DDF01A80FB11D5D968C91928D9F5F5E
:100200009F73928F90E008958FEF9FEF0895FC0108
:10021000918D828D981731F0828DE80FF11D858DBB
:1002200090E008958FEF9FEF0895FC01918D228D4E
:10023000892F90E0805C9F4F821B91098F739927D3
:10024000089582E195E00E94150121E0892B09F4CF
:1002500020E0822F0895FC01848DDF01A80FB11DDD
:10026000A35ABF4F2C91848D90E001968F739927EC
:10027000848FA689B7892C93A089B1898C918064D9
:100280008C93938D848D981306C00288F389E02D9A
:1002900080818F7D80830895EF92FF920F931F934B
:1002A000CF93DF93EC0181E0888F9B8D8C8D981329
:1002B00005C0E889F989808185FD24C0F62E0B8D63
:1002C00010E00F5F1F4F0F731127E02E8C8DE81287
:1002D0000CC00FB607FCFACFE889F989808185FF49
:1002E000F5CFCE010E942B01F1CF8B8DFE01E80FDF
:1002F000F11DE35AFF4FF0820B8FEA89FB89808161
:10030000806207C0EE89FF896083E889F98980816E
:100310008064808381E090E0DF91CF911F910F9105
:10032000FF90EF900895CF93DF93EC01888D8823A1
:10033000C9F0EA89FB89808185FD05C0A889B98952
:100340008C9186FD0FC00FB607FCF5CF808185FF2D
:10035000F2CFA889B9898C9185FFEDCFCE010E949B
:100360002B01E7CFDF91CF91089580E090E0892BBA
:1003700029F00E94210181110C940000089583301E
:1003800081F028F4813099F08230A1F0089587300F
:10039000A9F08830B9F08430D1F4809180008F7D4D
:1003A00003C0809180008F7780938000089584B58A
:1003B0008F7702C084B58F7D84BD08958091B00091
:1003C0008F7703C08091B0008F7D8093B000089537
:1003D0000E949A22CF93DF93EC0188819981009744
:1003E00011F00E943821198218821D821C821B8202
:1003F0001A82DF91CF9108950F931F93CF93DF93CC
:10040000EC0188819981009729F02A813B81261788
:10041000370788F48B016F5F7F4F0E94D0210097D0
:1004200061F0998388831B830A832C813D81232B70
:1004300011F4FC01108281E001C080E0DF91CF91D6
:100440001F910F910895EF92FF920F931F93CF93F7
:10045000DF93FC01248135816115710511F480E081
:1004600019C041155105A9F07B01EC018A01020F69
:10047000131FB8010E94FC01882389F32881398168
:100480008C819D81B701820F931F0E94A8221D833A
:100490000C8381E0DF91CF911F910F91FF90EF903E
:1004A0000895EF92FF920F931F93CF93DF93EC0188
:1004B0007B018A01BA010E94FC01811104C0CE01B6
:1004C0000E94EA0107C01D830C83B70188819981CE
:1004D0000E94A822CE01DF91CF911F910F91FF9032
:1004E000EF900895FC0180819181009711F00C94A8
:1004F000AF2260E070E0CB010895CF93DF93EC0171
:100500006115710561F0FB0101900020E9F7319759
:10051000AF01461B570B0E942302811103C0CE017D
:100520000E94EA01CE01DF91CF910895CF93DF932E
:10053000EC01FB0144815581608171810E9423029D
:10054000811103C0CE010E94EA01CE01DF91CF915B
:100550000895CF93DF93EC01FB018617970761F0B5
:10056000608171816115710529F0448155810E9476
:10057000510202C00E94EA01CE01DF91CF9108959D
:100580000F931F93CF93DF938C01EB01FC018081CC
:1005900091810097B1F0688179816115710579F0D9
:1005A000428153812C813D814217530740F00E94C4
:1005B000A8228C819D81F8019583848313C00E94B9
:1005C000382188819981F801918380838A819B8178
:1005D000938382838C819D81958384831982188281
:1005E0001B821A821D821C82DF91CF911F910F9175
:1005F0000895FC01808191810C943821EF92FF9243
:100600000F931F93CF93DF93CDB7DEB762970FB6EB
:10061000F894DEBF0FBECDBF8C01CB01F801118273
:100620001082138212821582148250E09E012F5F85
:100630003F4F7901B9010E94D622F70101900020B5
:10064000E9F73197AF014E195F09B701C8010E9460
:10065000510262960FB6F894DEBF0FBECDBFDF9198
:10066000CF911F910F91FF90EF900895FC0111829F
:10067000108213821282158214820C94A902FC014A
:100680001182108213821282158214826115710503
:1006900051F0FB0101900020E9F73197AF01461BB3
:1006A000570B0C9451020895BF92CF92DF92EF92B4
:1006B000FF920F931F93CF93DF937C016B01EA01AD
:1006C00089012417350720F48D2FE901042F182FF5
:1006D00063E273E0C7010E943F03D60114968D9137
:1006E0009C911597C817D90748F58017910708F40A
:1006F0008C01D601ED91FC911197E00FF11FB080B4
:1007000010824D915C91BA016C0F7D1F61157105CE
:1007100061F0FB0101900020E9F73197AF01461B22
:10072000570BC7010E94510203C0C7010E94EA0192
:10073000D601ED91FC91E00FF11FB082C701DF916E
:10074000CF911F910F91FF90EF90DF90CF90BF90CE
:1007500008951F920F920FB60F9211242F933F937B
:100760004F935F936F937F938F939F93AF93BF93B9
:10077000EF93FF9382E195E00E942B01FF91EF91AF
:10078000BF91AF919F918F917F916F915F914F91A9
:100790003F912F910F900FBE0F901F9018951F92B1
:1007A0000F920FB60F9211242F938F939F93EF9375
:1007B000FF93E0912205F09123058081E0912805C7
:1007C000F091290582FD12C0908180912B058F5FE9
:1007D0008F7320912C05821751F0E0912B05F0E0EA
:1007E000EE5EFA4F958F80932B0501C08081FF91BB
:1007F000EF919F918F912F910F900FBE0F901F90AF
:100800001895CF93DF93282F30E0F901ED5EFE4F6E
:100810008491F901E357FF4FD491F901EF55FF4F50
:10082000C491CC2391F081110E94BF01EC2FF0E024
:10083000EE0FFF1FE75FFE4FA591B491EC91ED2302
:1008400081E090E021F480E002C080E090E0DF9160
:10085000CF9108951F93CF93DF93282F30E0F901B4
:10086000ED5EFE4F8491F901E357FF4FD491F901FA
:10087000EF55FF4FC491CC23C9F0162F81110E9470
:10088000BF01EC2FF0E0EE0FFF1FEA58FF4FA591DC
:10089000B4918FB7F894111105C09C91ED2FE0959C
:1008A000E92302C0EC91ED2BEC938FBFDF91CF9148
:1008B0001F910895CF93DF9390E0FC01E357FF4F22
:1008C0002491FC01EF55FF4F8491882361F190E062
:1008D000880F991FFC01ED57FF4FC591D491FC0182
:1008E000EA58FF4FA591B491611109C09FB7F894E0
:1008F0008881209582238883EC912E230BC062305F
:1009000061F49FB7F8943881822F80958323888380
:10091000EC912E2B2C939FBF06C08FB7F894E881E3
:100920002E2B28838FBFDF91CF9108951F93CF93F4
:10093000DF93182FEB0161E00E945A04209711F415
:1009400060E004C0CF3FD10539F461E0812FDF9131
:10095000CF911F910C942A04E12FF0E0ED5EFE4F41
:10096000E491E330F9F048F4E130B9F0E230A1F578
:1009700084B5806284BDC8BD34C0E730E9F0E8309A
:1009800019F1E43049F58091800080628093800005
:10099000D0938B00C0938A0024C084B5806884BD46
:1009A000C7BD1FC080918000806880938000D09375
:1009B0008900C093880015C08091B0008068809342
:1009C000B000C093B3000DC08091B00080628093EE
:1009D000B000C093B40005C0C038D1050CF0B5CF4D
:1009E000AFCFDF91CF911F9108953FB7F8948091D9
:1009F0005A0490915B04A0915C04B0915D0426B50B
:100A0000A89B05C02F3F19F00196A11DB11D3FBF46
:100A1000BA2FA92F982F8827820F911DA11DB11DD4
:100A2000BC01CD0142E0660F771F881F991F4A95D0
:100A3000D1F708952FB7F894609156047091570438
:100A400080915804909159042FBF089560935104E8
:100A5000709352048093530490935404DC01CB01AF
:100A6000845D9E4FAF4FBF4F80934D0490934E04D3
:100A7000A0934F04B093500482E090E090934C0414
:100A800080934B040E941A056093470470934804B6
:100A90008093490490934A0408951F920F920FB6D1
:100AA0000F9211242F933F938F939F93AF93BF93F4
:100AB0008091560490915704A0915804B091590424
:100AC0003091550423E0230F2D3720F40196A11D0A
:100AD000B11D05C026E8230F0296A11DB11D20936C
:100AE00055048093560490935704A0935804B093F0
:100AF000590480915A0490915B04A0915C04B091D8
:100B00005D040196A11DB11D80935A0490935B046E
:100B1000A0935C04B0935D04BF91AF919F918F91BE
:100B20003F912F910F900FBE0F901F9018951F921D
:100B30000F920FB60F9211242F933F934F935F9311
:100B40006F937F938F939F93EF93FF93409104054F
:100B500050910505609106057091070541155105F5
:100B60006105710599F08091B403E091B503F091AE
:100B7000B60390818927808314161506160617067A
:100B8000D4F4415051096109710915C08091700078
:100B90008D7F809370009091B403E091B503F09144
:100BA000B6038081282F30E0892F90E080959095C2
:100BB000822393238083409304055093050560931B
:100BC000060570930705FF91EF919F918F917F919B
:100BD0006F915F914F913F912F910F900FBE0F90AA
:100BE0001F9018951F920F920FB60F9211242F93FA
:100BF0003F938F939F93AF93BF93EF93FF93809116
:100C0000080590910905A0910A05B0910B05892B63
:100C10008A2B8B2B51F18091B703E091B803F091AF
:100C2000B9039081892780838091080590910905F7
:100C3000A0910A05B0910B05181619061A061B0695
:100C40004CF58091080590910905A0910A05B09195
:100C50000B050197A109B109809308059093090537
:100C6000A0930A05B0930B0515C080916F008D7F8E
:100C700080936F009091B703E091B803F091B903AE
:100C80008081282F30E0892F90E0809590958223F5
:100C900093238083FF91EF91BF91AF919F918F91AB
:100CA0003F912F910F900FBE0F901F9018951F929C
:100CB0000F920FB60F9211242F933F938F939F9310
:100CC000AF93BF93EF93FF9380910C0590910D0527
:100CD000A0910E05B0910F05892B8A2B8B2B51F11A
:100CE0008091BA03E091BB03F091BC039081892706
:100CF000808380910C0590910D05A0910E05B09117
:100D00000F05181619061A061B064CF580910C05DE
:100D100090910D05A0910E05B0910F050197A109C5
:100D2000B10980930C0590930D05A0930E05B09327
:100D30000F0515C080916E008D7F80936E0090919D
:100D4000BA03E091BB03F091BC038081282F30E00F
:100D5000892F90E080959095822393238083FF9143
:100D6000EF91BF91AF919F918F913F912F910F90F4
:100D70000FBE0F901F9018953F924F925F926F9207
:100D80007F928F929F92AF92BF92CF92DF92EF921B
:100D9000FF920F931F93CF93DF93382E962E842EBE
:100DA000F90184E6E816F1042CF082EBE81A87E0FA
:100DB000F80A03C08EE1E80EF11CE092EB03009309
:100DC000EA03E093E9033092E7039092E60380920E
:100DD000E503AE2DB0E020E833E341EE51E00E94A0
:100DE00041232B013C0122EB37E0FF2484E6C82E8F
:100DF000D12CC0E9D1E0C901825B97408E159F05D7
:100E0000DCF4C90183709927892B99F4C901B601D3
:100E10000E942C20892B31F4C901BE010E942C2094
:100E2000892B39F480E8480E81E5581E81E0681E60
:100E3000711C2F5F3F4FDFCF8EE4E81A88EFF80A6E
:100E4000C70164E670E00E942C206C01C70160E9D4
:100E500071E00E942C205C01C1E0D0E0112783E00A
:100E6000E822FF24C017D1072CF5C230D10589F440
:100E7000E114F10471F4C114D10419F4A114B10402
:100E800041F480E8480E8BE3581E86E2681E711C10
:100E90000FC0DE01A55BBD4FAC91B0E020E831E5AD
:100EA00041E050E00E944123460E571E681E791E05
:100EB0002196D8CF292D30E0ACE3B0E00E94832307
:100EC0006B017C01C80CD11CE11CF11C232D30E00E
:100ED000A0E1BEE00E948323C60ED71EE81EF91EC5
:100EE000DF01BB27119720E831E541E050E00E9487
:100EF0008720DC01CB018C0D9D1DAE1DBF1DBC01EB
:100F0000CD01640D751D861D971DDF91CF911F9139
:100F10000F91FF90EF90DF90CF90BF90AF909F9098
:100F20008F907F906F905F904F903F900C9426052C
:100F3000CF92DF92EF92FF920F931F930E941A05B8
:100F4000C0904704D0904804E0904904F0904A04CF
:100F50008B019C010C191D092E093F098091510438
:100F600090915204A0915304B0915404083E134050
:100F700021053105D0F00196A11DB11D80935104CA
:100F800090935204A0935304B0935404B701A60164
:100F900048515C4F6F4F7F4F409347045093480434
:100FA0006093490470934A04C9CF40914D04509115
:100FB0004E0460914F047091500484179507A60762
:100FC000B70788F1E0914504F0914604309759F154
:100FD0000995611571058105910519F00E94260595
:100FE00022C08091510490915204A0915304B09179
:100FF0005404845D9E4FAF4FBF4F80934D04909338
:101000004E04A0934F04B093500481E090E02091EF
:101010004B0430914C04232B11F480E090E090932A
:101020004C0480934B046091510470915204809160
:101030005304909154041F910F91FF90EF90DF9013
:10104000CF9008954F925F926F927F928F929F926E
:10105000AF92BF92CF92DF92EF92FF920F931F93C6
:10106000CF93DF934B015C01809141049091420446
:10107000A0914304B091440488169906AA06BB06C1
:1010800009F4C2C08CE3C82ED12CE12CF12CC5018F
:10109000B401A70196010E9440206093E503CA01B4
:1010A000B901A70196010E9440206093E603CA019E
:1010B000B90128E130E040E050E00E9440206901A1
:1010C0007A016093E703CA01B9016C5F7F4F8F4FCC
:1010D0009F4F27E030E040E050E00E9440206F5FEB
:1010E0006093E803412C512C320140E004E610E00B
:1010F000C0E9D1E0242F30E02E54384FF901E370DD
:10110000FF27309789F4C901B8010E942C20892B50
:1011100031F4C901BE010E942C20892B29F48EE6EE
:1011200091E0A0E0B0E004C08DE691E0A0E0B0E086
:10113000480E591E6A1E7B1ED301C201AA27BB2777
:10114000C816D906EA06FB0610F04F5FD3CF4093CE
:10115000EB03309799F4C90164E670E00E942C20FB
:10116000892B39F4C90160E971E00E942C20892B98
:1011700029F48EE691E0A0E0B0E004C08DE691E0B5
:10118000A0E0B0E0481A590A6A0A7B0AC418D508D8
:10119000E608F708C90164E670E00E942C20EC0123
:1011A000C90160E971E00E942C20ACE4B2E020E0CB
:1011B000213039F4309749F4209729F4009729F425
:1011C00002C04C9103C04DE101C04CE150E060E031
:1011D00070E0C416D506E606F70640F0C41AD50A34
:1011E000E60AF70A2F5F11962C3011F72F5F209334
:1011F000EA03C394C092E9038092410490924204AE
:10120000A0924304B0924404DF91CF911F910F91BB
:10121000FF90EF90DF90CF90BF90AF909F908F9016
:101220007F906F905F904F9008950E9498070E9462
:1012300022088091EB0390E08E54984F08950E940D
:1012400098070E9422088091EA0390E008950E9486
:1012500098070E9422088091E90390E008950E9477
:1012600098070E9422088091E50390E008950E946B
:1012700098070E9422088091E60390E008950E945A
:1012800098070E9422088091E70390E00895CF928A
:10129000DF92EF92FF92CF93DF93EC010E941A0549
:1012A0006B017C018F850E94010421E0892B09F4E8
:1012B00020E0298B8889811103C081E08227898BF6
:1012C00029898A89281721F0CD8ADE8AEF8AF88E4B
:1012D0008D899E89AF89B88DB701A601481B590B2E
:1012E0006A0B7B0BDB01CA01CB80DC80ED80FE80CA
:1012F000C416D506E606F70664F43A81231749F0CA
:101300002A83222331F04B895C894F5F5F4F5C8BCE
:101310004B8B3A8131110CC0CF80D884E984FA8498
:10132000C816D906EA06FB06ACF48B899C890EC068
:10133000CB84DC84ED84FE84C816D906EA06FB065D
:101340004CF48B899C899195819591099983888327
:101350001C8A1B8A2A8BDF91CF91FF90EF90DF9040
:10136000CF90089585ED8093BC008091BC0084FDF2
:10137000FCCF1092DF04089540919404262F30E0B2
:10138000240F311D21323105DCF42091DF0424309B
:10139000C9F4FC0180E090E0861758F43091940481
:1013A0002191DC01AE58BB4FA30FB11D2C930196C8
:1013B000F3CF80919404680F6093940480E00895C3
:1013C00081E0089582E008950895E091BE03809140
:1013D000BD03E81730F4F0E0E154FC4F808190E069
:1013E00008958FEF9FEF08959091BE038091BD0304
:1013F000981750F4E92FF0E0E154FC4F208130E0E1
:101400009F5F9093BE0302C02FEF3FEFC901089585
:101410008091BD0390E02091BE03821B9109089545
:10142000CF92DF92EF92FF920F931F93CF93DF93B0
:101430007C01262F972F8A018091E004882391F068
:10144000C62FD72F6E01C40ED51ECC15DD0571F049
:101450006991D701ED91FC910190F081E02DC701D8
:101460000995F3CF642F822F0E94BC09C801DF9138
:10147000CF911F910F91FF90EF90DF90CF90089543
:10148000CF93DF931F92CDB7DEB769832091E0043D
:101490002223D1F020910305203240F021E030E0FA
:1014A000FC013383228380E090E015C08091E10449
:1014B000E82FF0E0EE51FB4F998190838F5F80938E
:1014C000E1048093030505C061E0CE0101960E940E
:1014D000BC0981E090E00F90DF91CF9108950F93C8
:1014E0001F93CF93DF931F92CDB7DEB78C01862F6A
:1014F000F8016787408B91E04927418B428B148A22
:10150000138A118210821282158A168A178A108E07
:1015100044E150E060E070E0438354836583768368
:101520004AEF50E060E070E0478350876187728740
:1015300048EE53E060E070E0438754876587768724
:1015400060E029830E945A04F80180892981811171
:101550000BC0222349F061E087850F90DF91CF9186
:101560001F910F910C942A040F90DF91CF911F913E
:101570000F9108951F920F920FB60F9211242F937F
:101580003F934F935F936F937F938F939F93AF930B
:10159000BF93EF93FF938091B900887F803609F461
:1015A0009CC068F5883209F45BC090F4803109F47E
:1015B00054C038F4882309F4F6C0883009F44DC0CB
:1015C000F6C0883109F44CC0803209F45DC0EFC028
:1015D000803409F468C048F4803309F455C0883376
:1015E00009F0E5C08093DD04D8C0803509F44FC010
:1015F000883509F45DC0883409F0D9C0D6C088396F
:1016000009F4C7C0A8F4883709F467C038F48836ED
:1016100009F463C0803709F460C0C9C0883809F490
:10162000B8C0803909F45FC0803809F0C0C05BC021
:10163000803B09F486C038F4803A09F466C0883AE1
:1016400009F47FC0B4C0803C09F4A7C0883C09F409
:10165000A4C0883B09F48AC0AAC08091BA0410C013
:101660009091DC048091DB04981770F5E091DC0424
:1016700081E08E0F8093DC04F0E0E554FB4F808125
:101680008093BB0085EC86C08093DD048EC0E09122
:10169000DC0481E08E0F8093DC048091BB00F0E0DD
:1016A000E554FB4F80839091DC048091DB046EC095
:1016B000E091DC0481E08E0F8093DC048091BB001C
:1016C000F0E0E554FB4F80838091DE0481116DC012
:1016D00081E08093B90484EA61C083E08093DF04F1
:1016E0001092B804CFCF8091B804803208F051C076
:1016F000E091B80481E08E0F8093B8048091BB0024
:10170000F0E0E856FB4F8083BDCF85EC8093BC00B2
:101710001092DF048091B804803230F4E091B80474
:10172000F0E0E856FB4F10826091B80470E0E09161
:101730009604F091970488E994E009951092B80412
:1017400036C084E08093DF041092950410929404D4
:10175000E0919204F0919304099580919404811191
:1017600005C081E08093940410927204E091950486
:1017700081E08E0F80939504F0E0EE58FB4F80815E
:101780008093BB009091950480919404981708F47D
:1017900079CF85E88093BC000AC085EC8093BC00BB
:1017A0001092DF0404C01092DD040E94B209FF9180
:1017B000EF91BF91AF919F918F917F916F915F91C9
:1017C0004F913F912F910F900FBE0F901F90189542
:1017D0000F931F93CF93DF93D82FC091F303809182
:1017E0006A0481110DC00E941A056093660470930B
:1017F0006704809368049093690481E080936A048D
:101800000E941A05009166041091670420916804F3
:1018100030916904DC01CB01801B910BA20BB30B4F
:101820008D329140A105B105F0F00E941A05609338
:1018300066047093670480936804909369048091B0
:10184000650491E0982790936504992329F01092FC
:1018500064041092630407C08091F30390E09093B6
:1018600064048093630420916304309164048901CB
:10187000009510954091EC0350E04023512346FF22
:1018800002C061E001C060E084E00E942A0440914F
:10189000EC0350E098012423352327FF02C061E0C8
:1018A00001C060E08CE00E942A04809165048823D6
:1018B00069F08C2F90E002C095958795DA95E2F754
:1018C0008170992791958195910902C080E090E0FF
:1018D000DF91CF911F910F9108950C9433230C94B5
:1018E0002B2388E090E00E946F0C682F89E00E9413
:1018F0002A0489E090E00E946F0C682F86E00E9425
:101900002A048AE090E00E946F0C682F83E00C9418
:101910002A040F931F938091220190912301892B18
:1019200009F455C0809162048823A9F00E941A0529
:1019300000915E0410915F04209160043091610475
:10194000DC01CB01801B910BA20BB30B893E9340B2
:10195000A105B105C8F580916204811138C00E94CB
:101960003F0920911C0130911D018217930779F5E1
:101970000E94370920911E0130911F0182179307A1
:1019800031F50E942F092091200130912101821709
:101990009307E9F40E941A0560935E0470935F0454
:1019A000809360049093610481E08093620487E2F5
:1019B00091E00E9479118091000190910101909332
:1019C000F6038093F50303C010926204C4CF1F9105
:1019D0000F910895CF93DF93EC01019628812A336C
:1019E000D9F78981843639F51092E4031092E30324
:1019F00023964AE0FE018881219690ED980F209170
:101A0000E3033091E4039A3080F4429FB001439F96
:101A1000700D1124082E000C990BC097860F971F8C
:101A20009093E4038093E303E5CF1216130614F4B6
:101A300020930301EF01219688818F3689F48A81F2
:101A4000082E000C990B9C01205331093093E403BC
:101A50002093E303C397059710F420930201249683
:101A60008881823629F51092E4031092E303FE0187
:101A700032964AE0819190ED980F2091E3033091E6
:101A8000E4039A3080F4429FB001439F700D11240B
:101A9000082E000C990BC097860F971F9093E403B4
:101AA0008093E303E7CF3093270120932601EF01D2
:101AB0002091260130912701032E000C440B550B79
:101AC00060E67AEE80E090E00E946220DA01C901CF
:101AD00022E0880F991FAA1FBB1F2A95D1F7809378
:101AE000DF039093E003A093E103B093E203CE0100
:101AF000DF91CF910895CF92DF92EF92FF921F93E3
:101B0000CF93DF93CDB7DEB72C970FB6F894DEBF37
:101B10000FBECDBF182F6AEC72E0CE0101960E9475
:101B20003F03133029F422E030E040E050E00FC0E2
:101B30001C3029F424E030E042E050E008C01033CB
:101B4000B9F420910A0630910B0644E050E066E0BB
:101B500076E0CE0107960E945403BE01695F7F4F75
:101B6000CE0101960E94C002CE0107960E94F902A2
:101B7000CE0101960E9472026B017C01CE0101969A
:101B80000E94F902C6012C960FB6F894DEBF0FBE74
:101B9000CDBFDF91CF911F91FF90EF90DF90CF905D
:101BA00008950F931F93CF93DF93CDB7DEB762975E
:101BB0000FB6F894DEBF0FBECDBF8C014AE06A308D
:101BC00071054CF5CE010D960E94FE0263EC72E0A9
:101BD000CE0101960E943F03BE016F5F7F4FCE0191
:101BE00007960E943603BE01635F7F4FCE010796C2
:101BF0000E949602BC01C8010E943603CE010796DE
:101C00000E94F902CE0101960E94F902CE010D96C2
:101C10000E94F90202C00E94FE02C80162960FB63D
:101C2000F894DEBF0FBECDBFDF91CF911F910F9112
:101C300008950F931F93CF93DF93CDB7DEB76897C7
:101C40000FB6F894DEBF0FBECDBF8B01833091F489
:101C500020910A0630910B0642E050E066E076E003
:101C6000CE010D960E945403B801CE0101960E9448
:101C7000D10D55C08C3009F042C020910A06309138
:101C80000B0644E050E066E076E0CE0143960E9409
:101C90005403B801CE010D960E94D10D22E030E030
:101CA00040E050E066E076E0CE0101960E945403E9
:101CB000BE016F5F7F4FCE0107960E943603BE01C3
:101CC000635F7F4FCE0107960E949602BE016D5E54
:101CD0007F4F0E949602BC0186E096E00E94A90216
:101CE000CE0107960E94F902CE0101960E94F902E8
:101CF000CE010D960E94F902CE0143962DC080338D
:101D000069F5CE010D960E94D10D24E030E040E04F
:101D100050E066E076E0CE0101960E945403BE01D9
:101D20006F5F7F4FCE0107960E943603BE01635F4F
:101D30007F4FCE0107960E949602BC0186E096E096
:101D40000E94A902CE0107960E94F902CE010196D7
:101D50000E94F902CE010D960E94F90268960FB614
:101D6000F894DEBF0FBECDBFDF91CF911F910F91D1
:101D700008950E941A056093EF037093F003809317
:101D8000F1039093F2038091F403882309F44CC08B
:101D90002091ED033091EE03C901880F991F2E3079
:101DA000310551F0FC01E85FFE4F40815181415007
:101DB0005109518340830AC040912401509125016B
:101DC0004C5051095093250140932401DC01A85F38
:101DD000BE4F6D917C911197FC01EA58FD4F4081F7
:101DE0005181641775073CF4FC01E85AFD4F4081AE
:101DF00051814D935C932D30310569F4209122017E
:101E0000309123012130310521F420E82093EC03A7
:101E100002C01092EC03FC01E85FFE4F608171810B
:101E20008091F3030C94190E08950E941A05609393
:101E3000EF037093F0038093F1039093F20380918A
:101E4000F403882309F441C02091ED033091EE039F
:101E5000C901880F991F2E30310551F0FC01E85F50
:101E6000FE4F408151814F5F5F4F518340830AC0D5
:101E70004091240150912501445F5F4F509325010B
:101E800040932401DC01A85FBE4F6D917C911197B6
:101E9000FC01E85AFD4F40815181461757073CF439
:101EA000FC01EA58FD4F408151814D935C932D30E8
:101EB000310511F41092EC03FC01E85FFE4F6081E4
:101EC00071818091F3030C94190E08958EBD00006A
:101ED0000DB407FEFDCF8EB508953F924F925F92ED
:101EE0006F927F928F929F92AF92BF92CF92DF922A
:101EF000EF92FF920F931F93CF93DF9300D000D008
:101F0000CDB7DEB72091110527FDAAC149835A83B9
:101F10006B837C838C0161E0809110050E945A04E0
:101F200030901105832D8D7F4801A12CB12C09F033
:101F3000B7C060E072E18AE790E0A50194010E94D9
:101F4000622029013A0169017A0121E0C21AD1080F
:101F5000E108F1088FEFC816D104E104F10409F09B
:101F600008F44CC060E472E48FE090E0A5019401B5
:101F70000E94622069017A0191E0C91AD108E10842
:101F8000F108A2E03A1220C0BFEFCB16D104E10461
:101F9000F10409F008F462C160E970ED83E090E0BB
:101FA000A50194010E94622069017A01E1E0CE1A44
:101FB000D108E108F108FFEFCF16D104E104F104E4
:101FC00009F0C0F583E065C02FEFC216D104E1042B
:101FD000F104B1F0A8F068E478EE81E090E0A501AA
:101FE00094010E94622069017A0181E0C81AD10837
:101FF000E108F108332009F4D9C027C181E001C00C
:1020000082E0332091F045C0D301C2012AE0B595AA
:10201000A795979587952A95D1F76C017D01E1E009
:10202000CE1AD108E108F10885E095B5987F892B93
:1020300085BD66C068E478EE81E090E0A50194017A
:102040000E94622069017A01B1E0CB1AD108E1084F
:10205000F108EFEFCE16D104E104F10409F008F421
:10206000A3C064E274EF80E090E0A50194010E94B7
:10207000622069017A0191E0C91AD108E108F108EA
:10208000AFEFCA16D104E104F10411F008F0B0C0BA
:1020900085E09091B100987F892B8093B10030C08A
:1020A00060E072E18AE790E0A50194010E9462205D
:1020B00069017A01F1E0CF1AD108E108F108C114F1
:1020C000D10421E0E206F10488F068E478EE81E0D2
:1020D00090E0A50194010E94622069017A0181E0EB
:1020E000C81AD108E108F10893E001C091E0A1E02D
:1020F0003A1206C080918100887F892B80938100ED
:1021000089819A81AB81BC81892B8A2B8B2B81F0B1
:10211000D801AA0FBB1F29813A814B815C810E94A3
:10212000412328EE33E040E050E00E94402003C00D
:102130002FEF3FEFA90191E03916A1F0A2E03A1686
:1021400019F131108DC0C7BC20930C0530930D05DB
:1021500040930E0550930F0580916E00826080932E
:102160006E007EC0D0928900C0928800209308053E
:102170003093090540930A0550930B0580916F0039
:10218000826080936F006CC0C092B30020930405FE
:102190003093050540930605509307058091700024
:1021A0008260809370005CC084E073CF8FEFC816AC
:1021B000D104E104F104D1F0C8F062E17AE780E0F3
:1021C00090E0A50194010E94622069017A01F1E08A
:1021D000CF1AD108E108F1082FEFC216D104E104AB
:1021E000F10411F008F010CF84E01FCF83E01DCF81
:1021F00062E17AE780E090E0A50194010E9462200C
:1022000069017A0191E0C91AD108E108F108AFEF3C
:10221000CA16D104E104F104B1F0A8F0D301C2015F
:102220004AE0B595A795979587954A95D1F76C01A2
:102230007D01E1E0CE1AD108E108F108332009F46C
:10224000F3CE87E026CF86E0DCCEBFEFCB16D104FD
:10225000E104F10409F060F684E0D3CE82E019CF06
:102260000F900F900F900F90DF91CF911F910F91D2
:10227000FF90EF90DF90CF90BF90AF909F908F90A6
:102280007F906F905F904F903F900895009769F016
:10229000FC0101900020E9F73197AF01481B590B71
:1022A000BC0182E195E00C94C80080E090E00895C4
:1022B0000F931F93CF93DF938C01C0E0D0E0F80120
:1022C000EC0FFD1F6491662371F0E0911205F0910F
:1022D00013050190F081E02D82E195E00995892BAD
:1022E00011F02196ECCFCE01DF91CF911F910F918C
:1022F0000895CF93DF930E945811EC0181E293E09F
:102300000E9446118C0F9D1FDF91CF9108958F92EF
:102310009F92AF92BF920F931F93CF93DF93CDB74E
:10232000DEB7A1970FB6F894DEBF0FBECDBF19A2DE
:10233000423008F44AE08E010F5D1F4F842E912C2D
:10234000A12CB12CA50194010E944020E62FB901D7
:10235000CA0101501109EA3014F4E05D01C0E95CE2
:10236000D801EC93232B242B252B61F7C8010E9465
:102370004611A1960FB6F894DEBF0FBECDBFDF9118
:10238000CF911F910F91BF90AF909F908F90089524
:10239000CF92DF92EF92FF92CF93DF936C01990F70
:1023A000EE08FF08F7FE1AC0E0911205F091130540
:1023B0000190F081E02D6DE282E195E00995EC015C
:1023C00066277727CB016C197D098E099F094AE0A2
:1023D0000E9487117C01EC0EFD1E06C04AE0C70179
:1023E000B6010E9487117C0181E293E00E944611B0
:1023F0008E0D9F1DDF91CF91FF90EF90DF90CF90DA
:102400000895CF93DF93FC014481558160817181F0
:1024100082E195E00E94C800EC0181E293E00E9415
:1024200046118C0F9D1FDF91CF9108958F929F923F
:10243000AF92BF92CF92DF92EF92FF920E94F5048B
:102440004B015C0188EEC82E83E0D82EE12CF12CE4
:102450000E94F504DC01CB0188199909AA09BB097E
:10246000883E9340A105B10558F021E0C21AD10879
:10247000E108F10888EE880E83E0981EA11CB11CCB
:10248000C114D104E104F10419F7FF90EF90DF903B
:10249000CF90BF90AF909F908F90089520910305AB
:1024A00090910205213208F04AC08091DF04811129
:1024B000FCCF32E03093DF0431E03093DE043FEFB5
:1024C0003093DD041092DC042093DB04A2EEB4E030
:1024D0004BEB54E0FA013E2F341B321718F43D91B8
:1024E0003193F9CF1092BA042091BA04990F922B2C
:1024F0009093BA049091B904913061F41092B904A8
:102500009091BA049093BB009091BC0093FDF8CFDA
:1025100095EC01C095EE9093BC009091DF04923051
:10252000E1F39091DD049F3F79F08091DD048032EA
:1025300041F08091DD04803331F084E005C081E01A
:1025400003C082E001C083E01092E1041092030511
:102550001092E0040895CF93DF93CDB7DEB7CA564B
:10256000D1090FB6F894DEBF0FBECDBF789484B505
:10257000826084BD84B5816084BD85B5826085BD7F
:1025800085B5816085BD80916E00816080936E000D
:1025900010928100809181008260809381008091FF
:1025A00081008160809381008091800081608093B0
:1025B00080008091B10084608093B1008091B00070
:1025C00081608093B00080917A00846080937A006B
:1025D00080917A00826080937A0080917A00816095
:1025E00080937A0080917A00806880937A001092BC
:1025F000C1001092BE031092BD031092E10410922C
:1026000003051092DF0481E08093DE041092B90488
:1026100061E082E10E942A0461E083E10E942A04D1
:102620008091B9008E7F8093B9008091B9008D7F31
:102630008093B90088E48093B80085E48093BC005F
:10264000E0912205F091230582E08083E0911E0550
:10265000F0911F051082E0912005F091210580E1A5
:10266000808310922A05E0912605F091270586E0E7
:102670008083E0912405F09125058081806180832D
:10268000E0912405F0912505808188608083E091A8
:102690002405F0912505808180688083E0912405E0
:1026A000F091250580818F7D808381E090E00E94FC
:1026B0006F0C8C3019F088E190E002C08CE090E063
:1026C000909325018093240180E090E00E946F0C9C
:1026D000882321F081E08093050102C0109205015A
:1026E00082E090E00E946F0C8F3F29F410921D0150
:1026F00010921C0105C090E090931D0180931C0175
:1027000083E090E00E946F0C8F3F29F410921F012C
:1027100010921E0105C090E090931F0180931E014E
:1027200084E090E00E946F0C8F3F29F41092210109
:102730001092200105C090E0909321018093200128
:1027400086E090E00E946F0C8F3F29F410922301E5
:102750001092220105C090E0909323018093220102
:1027600087E090E00E946F0C8F3F19F410923A04BA
:1027700006C091E0811101C090E090933A0484EB8F
:1027800092E00E94461180913A0490E00E94C811A4
:1027900061E089E00E945A0461E086E00E945A04E8
:1027A00061E083E00E945A0461E08CE00E945A04D8
:1027B00061E084E00E945A048091F703833008F0BE
:1027C00083C092E090931005E82FF0E0E058FF4FAF
:1027D000E491E09311058F5F8093F703E13031F1CD
:1027E000E23009F44AC0E11172C014BC15BC84B5D2
:1027F000826084BD85B5816085BD8091100590E0C3
:10280000FC01EF55FF4FE491F0E0EE0FFF1FEA5897
:10281000FF4F259134913093BC032093BB03FC01FF
:10282000E357FF4FE491E093BA0351C01092800048
:102830001092810080918100886080938100809156
:1028400081008160809381008091100590E0FC01FF
:10285000EF55FF4FE491F0E0EE0FFF1FEA58FF4FF6
:10286000259134913093B9032093B803FC01E357C9
:10287000FF4FE491E093B7032AC01092B00010928A
:10288000B1008091B00082608093B0008091B1006F
:1028900081608093B1008091100590E0FC01EF55BC
:1028A000FF4FE491F0E0EE0FFF1FEA58FF4F259134
:1028B00034913093B6032093B503FC01E357FF4FE7
:1028C000E491E093B40303C08FEF809311058091EE
:1028D0000001909101010E94EA0C90930101809304
:1028E000000161E08AE00E945A041FB7F8948091C9
:1028F000F803811127C0EBEAF0E08491E7E9F0E00A
:102900009491E82FF0E0EE0FFF1FED57FF4FA591D8
:10291000B491EC91E92321F461E08AE00E942A0459
:1029200061E08AE00E945A048CB580618CBD8CB550
:1029300080648CBD61E08DE00E945A0461E08BE010
:102940000E945A048091F8038F5F8093F8031FBFA1
:102950008CB58C608CBD8CB583608CBD8DB58E7F45
:102960008DBD62E08EE00E945A0462E080E10E9428
:102970005A0462E08FE00E945A0461E082E00E9403
:102980005A0404E110E020E030E00093F0051093D9
:10299000F1052093F2053093F3054EE150E060E03D
:1029A00070E04093F4055093F5056093F60570933D
:1029B000F70580ED97E0A0E0B0E08093F8059093F4
:1029C000F905A093FA05B093FB050093D705109382
:1029D000D8052093D9053093DA054093DB05509351
:1029E000DC056093DD057093DE058093DF05909331
:1029F000E005A093E105B093E2050093BE051093B6
:102A0000BF052093C0053093C1054093C205509384
:102A1000C3056093C4057093C5058093C605909364
:102A2000C705A093C805B093C9056EEB72E09E017F
:102A30002F5F3F4F1901C9010E943F0365EC72E00F
:102A4000CE0107960E943F036CEC72E0CE010D961A
:102A50000E943F0363ED72E0CE0143960E943F0364
:102A60006AED72E0CE0149960E943F0361EE72E08A
:102A7000CE014F960E943F0368EE72E0CE0185962C
:102A80000E943F036FEE72E0CE018B960E943F03DF
:102A900066EF72E0CE01C1960E943F036DEF72E0D7
:102AA000CE01C7960E943F0363E273E0CE01CD964C
:102AB0000E943F0363E273E0CE018D5B9F4F0E9453
:102AC0003F036CE076E0CE01CD960E94A902CE01D4
:102AD000CD960E9401128AEC90E00E94581124E0E9
:102AE00030E042E050E06CE076E0CE01875B9F4F43
:102AF0000E94540322E030E041E050E06CE076E0D8
:102B0000CE018B5A9F4F0E945403BE016B5A7F4FD8
:102B1000CE01815B9F4F0E94360364E073E0CE01DB
:102B2000815B9F4F0E947D02BE01675B7F4F0E94C9
:102B300096020E940112CE01815B9F4F0E94F90212
:102B4000CE018B5A9F4F0E94F902CE01875B9F4FA7
:102B50000E94F9028FEB90E00E94791180910001B0
:102B6000909101019093F6038093F5030E94EA0C83
:102B70006FEF70E089E00E9496040E94161260E0F8
:102B800070E089E00E9496046FEF70E086E00E949A
:102B900096040E94161260E070E086E00E9496049F
:102BA0006FEF70E083E00E9496040E9416120E946C
:102BB0001A054B015C01FF24F394EE24EA9444EFE0
:102BC00051E0A6965FAF4EAFA697A2961FAEA29712
:102BD0008FE00E940104892B21F451E0A2965FAF9F
:102BE000A29780E10E940104892B19F4A2961FAEDE
:102BF000A29781E0A7968FAFA797C12CD12C0E94F6
:102C00001A05DC01CB0188199909AA09BB09A69606
:102C1000EEADFFADA6978F01FF0F220B330B081708
:102C200019072A073B0708F044C00E941A054B0108
:102C30005C01A296FFADA297F11101C0E3942AE0D6
:102C4000E21639F03BE0E3120AC0A7961FAEA79741
:102C500006C048EB5BE0A6965FAF4EAFA697B1010A
:102C600056E05E9D600D711D112486E096E00E9485
:102C7000A90286E093E00E94461186E096E00E9459
:102C8000011287E193E00E9446118E2D90E0A0E0B2
:102C9000B0E04AE0BC01CD010E94871181E293E0DF
:102CA0000E94461184E293E00E944611C6010E94F0
:102CB000C8110F2D10E001501109000F111FC8019C
:102CC0000196A4969FAF8EAFA4979C01A80166E0E1
:102CD00076E0CE01875B9F4F0E945403CE01875B55
:102CE0009F4F0E947202660F771FFB01E453FE4F55
:102CF00040805180612C712CCE01875B9F4F0E94D8
:102D0000F90298012E5F3F4FA4964EAD5FADA49798
:102D100066E076E0CE01875B9F4F0E945403CE01B0
:102D2000875B9F4F0E947202660F771FFB01E4537F
:102D3000FE4F4081518160E070E0CE01875B9F4F84
:102D4000A8964FAFA897A9965FAFA997AA966FAF1D
:102D5000AA97AB967FAFAB970E94F902A8964FADAA
:102D6000A897A9965FADA997AA966FADAA97AB96BB
:102D70007FADAB97BAE0440F551F661F771FBA951A
:102D8000D1F7442A552A662A772A60E08AE00E9411
:102D90002A04862D0E94660F852D0E94660F842DC1
:102DA0000E94660F61E08AE00E942A0492E0F91610
:102DB00049F0E3E0FE1651F0F1E0FF120AC05D9A1F
:102DC0005F9802C05D985F9A289803C05D985F98ED
:102DD000289AF39424E0F21202C0FF24F3948BE3C8
:102DE0009FE10197F1F73FEFC31AD30A4AE0C416F7
:102DF000D10409F004CFA7965FADA7975111E8CE93
:102E000085EB90E00E9479118E01075B1F4F065001
:102E10001109C8010E94F90202151305C1F780913A
:102E20003A0481110E94710C81E08093E00488E6ED
:102E3000809302051092E1041092030560E08FEA8E
:102E400095E00E94400A0E944E128091DF04811199
:102E5000FCCF81E08093DF048093DE049FEF9093AA
:102E6000DD041092DC0496E09093DB048093BA04B6
:102E70008091BA04806D8093BA048091B904813046
:102E800061F41092B9048091BA048093BB008091E0
:102E9000BC0083FDF8CF85EC01C085EE8093BC00BB
:102EA0008091DF048130E1F38091DC04873018F4F5
:102EB0008091DC0401C087E0ABEBB4E02FEB33E0A2
:102EC000F9019E2F921B981718F49D919193F9CFB9
:102ED0001092BE038093BD038FEA95E00E94F4092F
:102EE000982F92959F708F70EAE09E9F800D11241D
:102EF000882E912C909200048092FF038FEA95E037
:102F00000E94F409982F92959F708F70FAE09F9F0E
:102F1000800D1124A82EB12CB092FE03A092FD03C7
:102F20008FEA95E00E94F409982F969596959695CC
:102F30009670C92ECC0CCC0CC90E8F708C0DC82E7F
:102F4000D12CD092FC03C092FB038FEA95E00E9443
:102F5000F409982F92959F708F702AE0929F800DB0
:102F6000112490E09093FA038093F9038FEA95E09F
:102F70000E94F409982F92959F708F703AE0939F6A
:102F8000800D1124682E712C70920204609201044D
:102F90008FEA95E00E94F409982F92959F708F70A8
:102FA0004AE0949F800D1124082F10E01093040430
:102FB000009303048FEA95E00E94F409982F9295FC
:102FC0009F708F705AE0959F800D1124E82EF12C90
:102FD000F0920604E09205049301A401B501C60134
:102FE0000E94BC067AE0D72E0091F5031091F603FB
:102FF000F8018081882309F433C10E941A0580906A
:103000000D0490900E04A0900F04B0901004DC0109
:10301000CB0188199909AA09BB09809009049090ED
:103020000A04A0900B04B0900C0488169906AA0616
:10303000BB0608F015C10E941A054B015C016093A4
:103040000D0470930E0480930F049093100410925B
:10305000E4031092E303C8018C01FC01F0800196A7
:1030600040ED4F0D2091E3033091E4034A3080F4AA
:10307000D29EA001D39E500D1124EF2DFF0CFF0B0B
:10308000F097E40FF51FF093E403E093E303E4CF3C
:103090006091DF037091E0038091E1039091E2037E
:1030A0002115310529F0032E000C440B550B05C0EA
:1030B0002091030130E040E050E00E946220209324
:1030C000090430930A0440930B0450930C048F2D91
:1030D000FF0C990BAA0BBB0BFC01E156F109E73081
:1030E000F10520F4EC5CFF4F0C9481201092080451
:1030F00014C081E001C083E0809308040EC085E025
:10310000FBCF86E0F9CFF8E0F093080406C0D09238
:10311000080403C02CE020930804F8018181833265
:1031200019F00F5F1F4F07C0809108048F5F8093D5
:1031300008040E5F1F4FF80180818E32F1F4409039
:10314000090450900A0460900B0470900C04C301B1
:10315000B20122E030E040E050E00E946220420EE6
:10316000531E641E751E4092090450920A04609218
:103170000B0470920C040F5F1F4FF8018081805385
:103180008A3028F4809307040F5F1F4F04C080919A
:1031900002018093070480910704F80190819C321A
:1031A00011F40F5F1F4F20910804222309F458C027
:1031B0004090090450900A0460900B0470900C0435
:1031C00090E004973CE0389FF001399FF00D112406
:1031D000E20FF11DEE0FFF1FEA5BFE4FB301A201EC
:1031E000808191810E946D0F0E941A05DC01CB0144
:1031F00088199909AA09BB09481659066A067B0667
:1032000078F50E941A0560930D0470930E04809364
:103210000F049093100480911105813051F0823099
:1032200071F0811111C080916E008D7F80936E00CE
:103230000BC080916F008D7F80936F0005C08091DF
:1032400070008D7F8093700060E0809110050E9477
:103250002A048DED90E00E94791190E080E002C098
:10326000902F812F9093F5038093F6030E941A0507
:1032700000913D0410913E0420913F0430914004A0
:10328000DC01CB01801B910BA20BB30B0697A105B0
:10329000B10508F489C080910501811110C060E07A
:1032A00070E089E00E94960460E070E086E00E9491
:1032B000960460E070E083E00E9496046BC0809109
:1032C0003A04811167C00091130410911404C801DD
:1032D000880F991F800F911FFC01EE0FFF1FE8550B
:1032E000FE4F609106017091070120813181620FCC
:1032F000731F7093070160930601FC01EE0FFF1F1F
:10330000E655FE4F2091310430913204E080F18087
:10331000E20EF31EF0923204E0923104880F991FFE
:10332000FC01E455FE4F80912F0490913004A08061
:10333000B180A80EB91EB0923004A0922F0489E08B
:103340000E949604B70186E00E949604B50183E0CE
:103350000E9496048091110490911204019690931A
:103360001204809311048F3F910551F40F5F1F4F9A
:103370001093140400931304109212041092110479
:103380008091130490911404069724F01092140471
:10339000109213040E941A0560933D0470933E043A
:1033A00080933F04909340040E94F504009115041B
:1033B000109116042091170430911804DC01CB0100
:1033C000801B910BA20BB30B89389341A105B1056A
:1033D00008F4A4C00E94F5046093150470931604C9
:1033E00080931704909318045D985F982898C09074
:1033F0000401EC2CF12C51E0E51AF108EE0CFF1C55
:1034000047018FEF881A980A9401A70166E076E0D9
:10341000C1010E945403C1010E947202660F771F0E
:10342000FB01E453FE4F00811181C1010E94F902AA
:1034300097012E5F3F4FA40166E076E0C1010E9434
:103440005403C1010E947202660F771FFB01E4530F
:10345000FE4FA080B180C1010E94F9022091390481
:10346000222371F080912E04882351F0C701A89681
:103470002FAFA8970E94E80BA8962FADA89702C07F
:1034800080E090E02C01402A512A612C712C2223EB
:1034900041F080912E04882321F0C4010E94E80BA2
:1034A00002C080E090E08A299B29A0E0B0E01AE009
:1034B000880F991FAA1FBB1F1A95D1F7482A592AAE
:1034C0006A2A7B2A60E08AE00E942A04862D0E94F4
:1034D000660F852D0E94660F842D0E94660F61E0A5
:1034E0008AE00E942A0492E0C91649F0E3E0CE1671
:1034F00051F0F1E0CF120AC05D9A5F9802C05D986A
:103500005F9A289803C05D985F98289A809104017B
:103510008F5F843009F481E0809304018DEE95E0A3
:103520000E94470984ED95E00E9447098BEB95E0E6
:103530000E9447098091F403811103C01092F303A4
:103540002BC00E941A050091EF031091F003209107
:10355000F1033091F203DC01CB01801B910BA20B34
:10356000B30B81369A4EA105B105B0F01092F40369
:10357000E091ED03F091EE03EE0FFF1FE25DFD4FD2
:10358000808191819093EE038093ED03FC01E15ED5
:10359000FD4F80818093F3038091ED059091EE05BE
:1035A000181619060CF093C11092F6031092F50349
:1035B00044E650E060E070E088EE93E00E946D0F1A
:1035C0000E941A056093EF037093F0038093F10358
:1035D0009093F2038091ED039091EE030196843075
:1035E000910529F09093EE038093ED0304C01092AF
:1035F000EE031092ED038BEF90E00E945811809142
:10360000ED039091EE030E94C81184EF90E00E94B8
:103610005811E091ED03F091EE03EE0FFF1FE85F0C
:10362000FE4F808191810E94C8112091ED0330915D
:10363000EE03F901E15EFD4F80818093F303215099
:103640003109F901EE0FFF1FEF5FFD4F40815181FE
:103650004115510509F42CC1CA010197FC01EE0F77
:10366000FF1FED51FE4F608171816217730709F0F2
:103670001FC14230510589F528E1EEE2F1E0D101A8
:1036800001900D922A95E1F720911A0130911B01CA
:1036900023703327232B21F44DE150E05C834B83CF
:1036A0002091160130911701E0911801F091190154
:1036B0003197EE0FFF1F41E050E04C0F5D1FE40F0C
:1036C000F51F40815181421753073CF487E090E099
:1036D0009093EE038093ED034FC41092F403909304
:1036E000EE038093ED03892BB9F40E9415097C0148
:1036F0000E941F098C010E9427099C01409114011E
:103700005091150160911201709113018091100187
:10371000909111010E94BC068091ED039091EE03FF
:103720000197E9F4E0901A01F0901B0150E3E51ACB
:1037300058EFF50A009118011091190160901601D7
:10374000709017010E942F094C010E9437095C01FB
:103750000E943F099301A401B5010E94BC0680911B
:10376000ED039091EE030297C1F460911C0182E099
:1037700090E00E946D0C60911E0183E090E00E9439
:103780006D0C6091200184E090E00E946D0C6091CE
:10379000220186E090E00E946D0C8091ED039091F3
:1037A000EE03039731F46091240181E090E00E94E0
:1037B0006D0C0E94150968EE73E00E942C20182FF2
:1037C0000E941F09082F0E942709F82E0E942F0926
:1037D000B82E0E943709C82E0E943F09E82E81E0CA
:1037E0008093E00488E6809302051092E104109231
:1037F000030560E08FEA95E00E94400A8B2D6D2D55
:103800000E942020692FE0E18E9F600D11248FEA35
:1038100095E00E94400A8C2D6D2D0E942020692F7A
:10382000F0E18F9F600D11248FEA95E00E94400A1D
:103830008E2D6D2D0E942020692F20E1829F600D2A
:1038400011248FEA95E00E94400A61E08FEA95E03A
:103850000E94400A8F2D6D2D0E942020692F30E19B
:10386000839F600D11248FEA95E00E94400A802F0B
:103870006D2D0E942020692F40E1849F600D11244E
:103880008FEA95E00E94400A812F6D2D0E94202032
:10389000692F50E1859F600D11248FEA95E00E9409
:1038A000400A60E08FEA95E00E94400A0E944E12B2
:1038B0000091ED031091EE038091F3030E947B0DC4
:1038C000000F111FF801E85FFE4F91838083809104
:1038D000ED059091EE0597FF8CC044E650E060E066
:1038E00070E088EE93E00E946D0F8091F4038111E7
:1038F00051C00E941A056093EF037093F003809308
:10390000F1039093F2038091ED039091EE03892BE4
:1039100009F040C00E942F09BC01C1010E94D10DD5
:103920000E943709BC01CE01875B9F4F0E94D10DD9
:103930000E943F09BC01CE018B5A9F4F0E94D10DBE
:10394000BE016B5A7F4FCE01815B9F4F0E943603B1
:10395000BE01675B7F4FCE01815B9F4F0E94960245
:10396000B1010E949602BC0186E096E00E94A90285
:10397000CE01815B9F4F0E94F902CE018B5A9F4F6F
:103980000E94F902CE01875B9F4F0E94F902C1019C
:103990000E94F902E091ED03F091EE03EE0FFF1F9C
:1039A000E25DFD4F008111811093EE030093ED0362
:1039B0000A30110549F481E090E09093230180934F
:1039C000220180E88093EC039091F40381E0892741
:1039D0008093F403F801E15EFD4F80818093F3034F
:1039E0000E947B0D000F111FF801E85FFE4F9183CD
:1039F00080838091D4059091D505009701F1909333
:103A00003C0480933B0418161906CCF41092F6037C
:103A10001092F50344E650E060E070E088EE93E039
:103A20000E946D0F0E94150F8091F403811107C051
:103A300010923A0460E087E090E00E946D0C809163
:103A40003B0490913C04019661F58091D605882352
:103A500041F1109239048091F403882329F10E94E6
:103A60001A050091350410913604209137043091E5
:103A70003804DC01CB01801B910BA20BB30B8739FF
:103A80009105A105B10580F00E941A0560933504E7
:103A90007093360480933704909338040E94150F76
:103AA00003C081E0809339048091BB059091BC05EF
:103AB000009799F1909334048093330418161906F3
:103AC00064F51092F6031092F50344E650E060E0CE
:103AD00070E088EE93E00E946D0F0E94B90E809115
:103AE000F40381111AC081E080933A0461E087E019
:103AF00090E00E946D0C6091060188E090E00E94C9
:103B00006D0C6091310489E090E00E946D0C609131
:103B10002F048AE090E00E946D0C80913304909114
:103B20003404019661F58091BD05882341F110921E
:103B30002E048091F403882329F10E941A05009134
:103B40002A0410912B0420912C0430912D04DC01C7
:103B5000CB01801B910BA20BB30B87399105A105FB
:103B6000B10580F00E941A0560932A0470932B041B
:103B700080932C0490932D040E94B90E03C081E021
:103B800080932E048091F40381113DC08091D4056F
:103B90009091D50597FF1AC044E650E060E070E0D0
:103BA00088EE93E00E946D0F81E08093050161E053
:103BB00080E090E00E946D0C87E293E00E94461145
:103BC00081E293E00E9446110E94710C8091BB0536
:103BD0009091BC0597FF17C044E650E060E070E0AC
:103BE00088EE93E00E946D0F1092050160E080E086
:103BF00090E00E946D0C8EE293E00E94461181E2FB
:103C000093E00E9446118091ED039091EE03813084
:103C1000910509F412C11CF4892B99F1ADC18230D0
:103C2000910509F454C1039709F0A6C160912401DC
:103C3000709125014AE0CE0101960E94FE0262ECDD
:103C400072E0CE01875B9F4F0E943F03BE016F5F12
:103C50007F4FCE01875B9F4F0E94960262EC72E01D
:103C60000E947D02BC0186E096E00E94A902CE017E
:103C7000875B9F4F0E94F902CE0101960E94F902D4
:103C800077C10E941A050091190410911A0420911D
:103C90001B0430911C04DC01CB01801B910BA20B97
:103CA000B30B893E9340A105B10508F477C00E948B
:103CB0001A056093190470931A0480931B0490935F
:103CC0001C048091240190912501489799F40E9449
:103CD0002F09BC01CE0101960E94D10D0E94370927
:103CE000BC01CE01875B9F4F0E94D10D0E943F090E
:103CF000BC0120C00E942F09BC01CE0101960E9488
:103D0000D10D0E943709BC01CE01875B9F4F0E94F5
:103D1000D10D0E9498070E9422088091E703882312
:103D200039F0682F70E08D3028F06C50710902C0B6
:103D30006CE070E0CE018B5A9F4F0E94D10DBE0106
:103D40006B5A7F4FCE01815B9F4F0E943603BE01AD
:103D5000675B7F4FCE01815B9F4F0E949602BE0141
:103D60006F5F7F4F0E949602BC01CE01855A9F4F24
:103D70000E943603CE01815B9F4F0E94F902CE0163
:103D80008B5A9F4F0E94F902CE01875B9F4F0E9482
:103D9000F902CE0101960E94F90207C066E076E0C2
:103DA000CE01855A9F4F0E943603BE01655A7F4F50
:103DB00086E096E00E94C002CE01855A9F4F0E9485
:103DC000F9028091220481110DC00E941A056093AE
:103DD0001E0470931F04809320049093210481E0BB
:103DE000809322040E941A0500911E0410911F0462
:103DF0002091200430912104DC01CB01801B910B28
:103E0000A20BB30B893E9340A105B10508F4B2C0E3
:103E10000E941A0560931E0470931F04809320046F
:103E20009093210490911D0481E0892780931D04C3
:103E3000882309F49DC080EC98C00E94150968EEA3
:103E400073E00E942C20BC01CE0101960E94D10D8E
:103E50000E941F09BC01CE01875B9F4F0E94D10DBC
:103E60000E942709BC01CE018B5A9F4F0E94D10DA1
:103E7000BE016B5A7F4FCE01815B9F4F0E9436037C
:103E8000BE01675B7F4FCE01815B9F4F0E94960210
:103E9000BE016F5F7F4F0E949602BC0186E096E0F4
:103EA0000E94A902CE01815B9F4F0E94F902CE01C0
:103EB0008B5A9F4F0E94F902CE01875B9F4F0E9451
:103EC000F902CE0101960E94F90280E44EC0609191
:103ED000200170912101CE0101960E94D10D6091C7
:103EE0001E0170911F01CE01875B9F4F0E94D10D73
:103EF00060911C0170911D01CE018B5A9F4F0E9451
:103F0000D10DBE016B5A7F4FCE01815B9F4F0E9446
:103F10003603BE01675B7F4FCE01815B9F4F0E94DE
:103F20009602BE016F5F7F4F0E949602BC0186E041
:103F300096E00E94A902CE01815B9F4F0E94F90288
:103F4000CE018B5A9F4F0E94F902CE01875B9F4F93
:103F50000E94F902CE0101960E94F902809122018D
:103F600090912301019721F480E88093EC0302C033
:103F70001092EC030E94890C0E94B50135C886E0BE
:103F800096E00E94F9028CE096E00C94F902E2E1DE
:103F9000F5E01382128288EE93E0A0E0B0E0848323
:103FA0009583A683B78328E932E03183208325EC0B
:103FB00030E03587248724EC30E03787268720ECF3
:103FC00030E0318B208B21EC30E0338B228B22ECE4
:103FD00030E0358B248B26EC30E0378B268B118E2E
:103FE000128E138E148EEFEAF5E013821282848310
:103FF0009583A683B78388EA92E0918380836DEAF4
:1040000073E08CE096E00E943F036EEB72E086E086
:1040100096E00E943F0321E040E06EE08DEE95E0E7
:104020000E946F0A21E040E060E184ED95E00E948B
:104030006F0A21E040E06FE08BEB95E00C946F0A93
:10404000991B79E004C0991F961708F0961B881FEA
:104050007A95C9F78095089597FB072E16F400947A
:1040600007D077FD09D00E948F2007FC05D03EF4D1
:10407000909581959F4F0895709561957F4F089514
:10408000A1E21A2EAA1BBB1BFD010DC0AA1FBB1F5C
:10409000EE1FFF1FA217B307E407F50720F0A21BCE
:1040A000B30BE40BF50B661F771F881F991F1A943B
:1040B00069F760957095809590959B01AC01BD0165
:1040C000CF010895052E97FB1EF400940E947920DD
:1040D00057FD07D00E94402007FC03D04EF40C94FB
:1040E000792050954095309521953F4F4F4F5F4F28
:1040F000089590958095709561957F4F8F4F9F4F54
:104100000895EE0FFF1F0590F491E02D0994B7FF7D
:104110000C9441230E944123821B930B0895AA1BF8
:10412000BB1B51E107C0AA1FBB1FA617B70710F0A2
:10413000A61BB70B881F991F5A95A9F780959095D4
:10414000BC01CD010895CF93DF938230910510F427
:1041500082E090E0E0911406F091150620E030E056
:10416000C0E0D0E0309711F14081518148175907E4
:10417000C0F04817590761F482819381209719F0A4
:104180009B838A832BC0909315068093140626C0C8
:104190002115310519F04217530718F49A01BE0191
:1041A000DF01EF010280F381E02DDCCF2115310525
:1041B00009F1281B390B2430310590F412968D91AA
:1041C0009C9113976115710521F0FB019383828304
:1041D00004C09093150680931406FD01329644C0E6
:1041E000FD01E20FF31F81939193225031092D932A
:1041F0003C933AC02091120630911306232B41F4D0
:1042000020912A0130912B0130931306209312063E
:1042100020912801309129012115310541F42DB754
:104220003EB740912C0150912D01241B350BE0919C
:104230001206F0911306E217F307A0F42E1B3F0BB2
:104240002817390778F0AC014E5F5F4F2417350708
:1042500048F04E0F5F1F5093130640931206819350
:10426000919302C0E0E0F0E0CF01DF91CF9108959B
:104270000F931F93CF93DF93009709F48CC0FC0139
:1042800032971382128200911406109115060115BF
:10429000110581F420813181820F931F2091120634
:1042A000309113062817390779F5F0931306E09338
:1042B000120671C0D80140E050E0AE17BF0750F4BD
:1042C00012962D913C911397AD012115310509F1FD
:1042D000D901F3CF9D01DA0133832283608171819B
:1042E000860F971F8217930769F4EC0128813981A3
:1042F000260F371F2E5F3F4F318320838A819B819A
:1043000093838283452B29F4F0931506E0931406DA
:1043100042C01396FC93EE931297ED014991599187
:104320009E01240F351FE217F30771F480819181FC
:10433000840F951F029611969C938E938281938190
:1043400013969C938E931297E0E0F0E0D8011296BA
:104350008D919C911397009719F0F8018C01F6CF7D
:104360008D919C9198012E5F3F4F820F931F20915A
:104370001206309113062817390769F4309729F48B
:10438000109215061092140602C013821282109326
:10439000130600931206DF91CF911F910F9108959C
:1043A000A0E0B0E0E6EDF1E20C945023EC010097C0
:1043B00021F4CB010E94A320B8C0FC01E60FF71F37
:1043C0009C0122503109E217F30708F4ACC0D9016F
:1043D0000D911C91119706171707B0F005301105C4
:1043E00008F49FC0C80104978617970708F499C07E
:1043F00002501109061B170B019311936D937C93C7
:10440000CF010E9438218DC05B01A01AB10A4C0176
:10441000800E911EA0911406B091150640E050E068
:10442000E12CF12C109709F44AC0A815B905D1F573
:104430006D907C901197630182E0C80ED11CCA1464
:10444000DB0480F1A3014A195B096A0182E0C80E0E
:10445000D11C1296BC9012971396AC91B5E0CB1676
:10446000D10440F0B282A38351834083D9016D937C
:104470007C930AC00E5F1F4FC301800F911FF9018B
:1044800091838083EB2DFA2FE114F10431F0D701F1
:104490001396FC93EE93129744C0F0931506E093A5
:1044A00014063FC08D919C9111974817590708F445
:1044B000AC017D0112960D90BC91A02DB3CF8091DF
:1044C00012069091130688159905E1F446175707CF
:1044D000C8F48091280190912901009741F48DB78B
:1044E0009EB740912C0150912D01841B950BE8172C
:1044F000F907C8F4F0931306E0931206F9017183EB
:1045000060830FC0CB010E94A3207C01009759F06B
:10451000A801BE010E949F22CE010E943821C7013E
:1045200004C0CE0102C080E090E0CDB7DEB7EEE07F
:104530000C946C2381E090E0F8940C949223FB019E
:10454000DC0102C001900D9241505040D8F708950F
:10455000FB01DC0101900D920020E1F708951F930B
:10456000FC0199278827BC01E89411911032E9F3E6
:10457000193010F01E30C8F31B3251F01D3249F4CF
:10458000689406C00E94EC22610F711D811D911D6F
:10459000119110531A30B0F33EF4909580957095B8
:1045A00061957F4F8F4F9F4F1F9108954532510561
:1045B00020F4423010F00C94E122FB011082CB0178
:1045C0000895BB274A3031F4992322F4BDE2909537
:1045D00081959F4F0C940223592F482F372F262F58
:1045E000660F771F881F991F660F771F881F991FF7
:1045F000620F731F841F951F660F771F881F991FF7
:104600000895BB27FB015527AA27880F991FAA1FCA
:10461000A41710F0A41B83955051B9F7A05DAA33DD
:1046200008F0A95DA193009779F7B111B1931192A8
:10463000CB010C941B23DC01FC01672F71917723C4
:10464000E1F7329704C07C916D9370836291AE174D
:10465000BF07C8F30895F999FECF92BD81BDF89ABE
:10466000992780B50895262FF999FECF1FBA92BDDC
:1046700081BD20BD0FB6F894FA9AF99A0FBE019643
:1046800008950E948323A59F900DB49F900DA49F31
:10469000800D911D112408952F923F924F925F92A9
:1046A0006F927F928F929F92AF92BF92CF92DF9242
:1046B000EF92FF920F931F93CF93DF93CDB7DEB7A7
:1046C000CA1BDB0B0FB6F894DEBF0FBECDBF09943B
:1046D0002A88398848885F846E847D848C849B8492
:1046E000AA84B984C884DF80EE80FD800C811B81A0
:1046F000AA81B981CE0FD11D0FB6F894DEBF0FBECF
:10470000CDBFED010895A29FB001B39FC001A39F4B
:10471000700D811D1124911DB29F700D811D1124FA
:10472000911D089510E0CCE9D0E004C0FE010E9484
:0E47300081202196CD39D107C9F7F894FFCF2B
:10473E00360306040101FF00000000000000000027
:10474E00000000000000000000000000000000005B
:10475E000000000018003F000000160680001F0039
:10476E001C001F001E001F001E001F001F001E0049
:10477E001F001E001F000000060115012601370153
:10478E004A015D01720188019F01B801D201EE015B
:10479E000B022A024B026E029302BA02E4021003CB
:1047AE003F037003A403DC03170455049704DD04D0
:1047BE0027057505C80520067D06E0064907B807DA
:1047CE002D08A9082D09B9094D0AEA0A900B400CCB
:1047DE00FA0CC00D910E6F0F000000000100FFFFDC
:1047EE000000000000000100000000000000FFFFBC
:1047FE000100000000000000FFFF0000FE03FD03AB
:10480E00FB03F703EF03DF03BF037F03FF02FF0189
:10481E000A0908060009000D000E00000000000045
:10482E00000000000000000000000000000000007A
:10483E000000000000000000000100010001000265
:10484E000002000200030003000300030004000046
:10485E00000000030C30030C30030C30C00C0400BD
:10486E0007000A000E00000000000000000000001B
:10487E000000000000000000000000001F1C1F1EB2
:10488E001F1E1F1F1E1F1E1F000000000000000025
:10489E0017003B003B001F000C00630017003B009D
:1048AE003B00010018000000000000000C0000009A
:1048BE0000000000010001000000000000000000E8
:1048CE0000000C00000000004C01C8001501F300B0
:1048DE000701930100000000400A100A080AF409BB
:1048EE00E509E4096C6564206C6F636B3D00303044
:1048FE0030303030003131313131310032323232FC
:10490E0032320033333333333300343434343434CB
:10491E0000353535353535003636363636360037D0
:10492E00373737373700383838383838003939396B
:10493E00393939002E00737472696E67546F446989
:10494E0073706C61793D00737472496E6465783D65
:10495E00000D0A00693D005247423D6F6E005247FE
:10496E00423D6F66660050696E6B50616E7468658D
:10497E00723A643D342C6F3D352C623D3136303AFF
:10498E003864232C38652C32702C3866232C38670B
:10499E002C32702C3864232C38652C3136702C3820
:1049AE0066232C38672C3136702C3863362C3862DF
:1049BE002C3136702C3864232C38652C3136702C03
:1049CE0038622C3261232C32702C3136612C313608
:1049DE00672C3136652C3136642C3265003031301F
:0449EE003230300033
:00000001FF
