:020000040000FA
:100000000C9489000C94B1000C94B1000C94B100D4
:100010000C94B1000C94B1000C94B1000C94661BCC
:100020000C94B1000C94B1000C94B1000C94B51B6D
:100030000C94B1000C94B1000C94101C0C94B10001
:100040000C941C1B0C94B1000C94EA1A0C94C41A66
:100050000C94B1000C94B1000C94B1000C94B1005C
:100060000C946B1C0C94B10057616B652075702C5F
:10007000204E656F2100000000080002010000030F
:100080000407000000000000000000000000250040
:1000900028002B0002010000000000240027002A95
:1000A000004661756C74792044533332333121003A
:1000B0004453333233315F543D004669726D77618A
:1000C00072653A2000496E636F72726563742053E3
:1000D0006F6E6720466F726D617421000000000032
:1000E000230026002900040404040404040402027A
:1000F00002020202030303030303010204081020A7
:100100004080010204081020010204081020C31DD1
:10011000342F11241FBECFEFD8E0DEBFCDBF14E0D7
:10012000A0E0B1E0E2E0FAE602C005900D92AC3347
:10013000B107D9F727E0ACE3B4E001C01D92A035C8
:10014000B207E1F710E0C8E8D0E004C02197FE0153
:100150000E94FE33C738D107C9F70E94651E0C9470
:10016000F4340C94000080913807E0913907F09145
:100170003A07F8949181282F2095922391837894BF
:100180003DE743E050E0315029F1DA011197F1F7F2
:1001900090819823C1F3F894928192239283918164
:1001A000982B91837894ABE7B7E01197F1F7F89427
:1001B000918192239183A3E1B1E01197F1F79081AE
:1001C000982381E009F080E07894E3E6F6E0319747
:1001D000F1F7089580E0089590913807E09139078C
:1001E000F0913A07292F209580FF14C0F89482815E
:1001F000822382838181892B8183A3E2B0E01197DE
:10020000F1F78281982B9283789487ED90E00197A3
:10021000F1F70895F8948281822382838181892B6A
:100220008183AFEFB0E01197F1F78281982B928331
:1002300078948FE090E0EBCF0F931F93CF93DF93F1
:10024000082FC8E0D0E011E081E0902F912309F45D
:1002500080E00E94EC00110F2197B1F7F894E09133
:100260003907F0913A07918180913807809598235A
:100270009183E0913907F0913A0792818923828333
:100280007894DF91CF911F910F9108958091380755
:10029000E0913907F0913A07F8949181982B918376
:1002A0002281382F309523232283A7E0B0E01197D5
:1002B000F1F7918193239183A3E2B0E01197F1F7D5
:1002C00090817894EFECF0E03197F1F7982381E09A
:1002D00009F480E008950F931F93CF93DF9308E014
:1002E00010E0C0E0D1E00E9446018111CD2BDD0F6E
:1002F00001501109C1F78C2FDF91CF911F910F9100
:1003000008958CBD9DBD0895089508950895AF92F8
:10031000BF92CF92DF92EF92FF920F931F93CF93F2
:10032000DF936C017B018B01040F151FEB015E0154
:10033000AE18BF08C017D10759F06991D601ED91E9
:10034000FC910190F081E02DC6010995892B79F788
:10035000C501DF91CF911F910F91FF90EF90DF903A
:10036000CF90BF90AF900895FC01538D448D252F01
:1003700030E0842F90E0821B930B541710F0CF963F
:10038000089501970895FC01918D828D981761F071
:10039000A28DAE0FBF2FB11D5D968C91928D9F5F88
:1003A0009F73928F90E008958FEF9FEF0895FC0167
:1003B000918D828D981731F0828DE80FF11D858D1A
:1003C00090E008958FEF9FEF0895FC01918D228DAD
:1003D000892F90E0805C9F4F821B91098F73992732
:1003E000089584E396E00E94E50121E0892B09F459
:1003F00020E0822F089580E090E0892B29F00E9470
:10040000F10181110C9400000895FC01A48DA80F46
:10041000B92FB11DA35ABF4F2C91848D90E0019646
:100420008F739927848FA689B7892C93A089B18966
:100430008C91837080648C93938D848D981306C007
:100440000288F389E02D80818F7D80830895EF926B
:10045000FF920F931F93CF93DF93EC0181E0888F7E
:100460009B8D8C8D98131AC0E889F989808185FF4E
:1004700015C09FB7F894EE89FF896083E889F989F0
:1004800080818370806480839FBF81E090E0DF91F2
:10049000CF911F910F91FF90EF900895F62E0B8D45
:1004A00010E00F5F1F4F0F731127E02E8C8D8E1100
:1004B0000CC00FB607FCFACFE889F989808185FF67
:1004C000F5CFCE010E940502F1CFEB8DEC0FFD2F91
:1004D000F11DE35AFF4FF0829FB7F8940B8FEA8922
:1004E000FB8980818062CFCF0F931F93CF93DF93DF
:1004F0008C01D0E0C0E0F801EC0FFD1F6491662391
:1005000041F084E396E00E942702892B11F02196A6
:10051000F2CFCE01DF91CF911F910F910895CF932C
:10052000DF93EC01888D8823B9F0AA89BB89E8891B
:10053000F9898C9185FD03C0808186FD0DC00FB6C1
:1005400007FCF7CF8C9185FFF2CF808185FFEDCF3F
:10055000CE010E940502E9CFDF91CF91089583304B
:1005600081F028F4813099F08230A9F00895873025
:10057000A9F08830C9F08430B1F4809180008F7D7B
:1005800003C0809180008F7780938000089584B5A8
:100590008F7784BD089584B58F7DFBCF8091B000A7
:1005A0008F778093B00008958091B0008F7DF9CF50
:1005B000CF93DF93282F30E0F901EA58FF4F849161
:1005C000F901E650FF4FD491F901EA51FF4FC49170
:1005D000CC23A1F081110E94AF02EC2FF0E0EE0FCE
:1005E000FF1FE452FF4FA591B491EC91ED2381E000
:1005F00090E009F480E0DF91CF91089580E090E0F1
:10060000FACF1F93CF93DF93282F30E0F901EA58F8
:10061000FF4F8491F901E650FF4FD491F901EA515F
:10062000FF4FC491CC23A9F0162F81110E94AF0275
:10063000EC2FF0E0EE0FFF1FE657FF4FA591B491AE
:100640008FB7F894EC91111108C0D095DE23DC939C
:100650008FBFDF91CF911F910895DE2BF8CFCF93FD
:10066000DF9390E0FC01E650FF4F24918A519F4FA9
:10067000FC0184918823C9F090E0880F991FFC0148
:10068000E956FF4FA591B491FC01E657FF4FC59184
:10069000D49161110DC09FB7F8948C91209582235D
:1006A0008C938881282328839FBFDF91CF91089561
:1006B000623051F49FB7F8943C91822F8095832348
:1006C0008C93E8812E2BEFCF8FB7F894EC912E2BE3
:1006D0002C938FBFEACF4F925F926F927F928F924F
:1006E0009F92AF92BF92CF92DF92EF92FF920F93C1
:1006F0001F93CF93DF9300D000D01F92CDB7DEB70A
:100700002091330627FD2CC149835A836B837C8358
:100710008C0161E0809132060E942F0380913306A4
:100720008D834801B12CA12C8D7F09F031C160E08F
:1007300072E18AE790E0A50198010E94DF33290168
:100740003A017A01690191E0C91AD108E108F1087A
:10075000AFEFCA16D104E104F10409F00CF4C7C0EC
:1007600060E472E48FE090E0A50198010E94DF331D
:1007700069017A01B1E0CB1AD108E108F1088D8155
:10078000823009F06AC082E09FEFC916D104E1040B
:10079000F10409F00CF45EC160E970ED83E090E0D3
:1007A000A50198010E94DF3369017A01A1E0CA1A0C
:1007B000D108E108F10883E0BFEFCB16D104E104D2
:1007C000F10409F00CF446C168E478EE81E090E0B1
:1007D000A50198010E94DF3369017A0181E0C81AFE
:1007E000D108E108F10884E09FEFC916D104E104C3
:1007F000F10409F00CF42EC164E274EF80E090E0A3
:10080000A50194010E94DF3369017A01B1E0CB1A9E
:10081000D108E108F10885E09FEFC916D104E10491
:10082000F10409F008F416C162E17AE780E090E093
:10083000A50194010E94DF3369017A01B1E0CB1A6E
:10084000D108E108F1088FEFC816D104E104F104E2
:1008500011F008F0F0C086E0FDC08FEFC816D1049B
:10086000E104F10409F00CF491C068E478EE81E051
:1008700090E0A50198010E94DF3369017A0191E0BF
:10088000C91AD108E108F108AD8184E0A111C4CFF3
:1008900083E0AFEFCA16D104E104F10461F15CF129
:1008A00062E17AE780E090E0A50194010E94DF33E5
:1008B00069017A0181E0C81AD108E108F10884E0F1
:1008C0009FEFC916D104E104F104A9F0A0F073016F
:1008D00062019AE0F594E794D794C7949A95D1F77A
:1008E000A1E0CA1AD108E108F10885E004C081E05E
:1008F000AD81A111AFC095B5987F892B85BD898148
:100900009A81AB81BC812FEF3FEFA901892B8A2B04
:100910008B2B79F0D801AA0FBB1F29813A814B811B
:100920005C810E94323228EE33E040E050E00E94C9
:10093000BD339D81913009F45CC0923009F46BC0E5
:1009400091110EC0C7BC20932E0630932F06409302
:1009500030065093310680916E00826080936E0065
:100960000F900F900F900F900F90DF91CF911F91EC
:100970000F91FF90EF90DF90CF90BF90AF909F903E
:100980008F907F906F905F904F90089582E0B0CFEE
:1009900060E072E18AE790E0A50198010E94DF33F0
:1009A00069017A01B1E0CB1AD108E108F10891E0C0
:1009B000C114D10481E0E806F10484F068E478EE23
:1009C00081E090E0A50198010E94DF3369017A017E
:1009D00091E0C91AD108E108F10893E0AD81A13096
:1009E00009F08DCF80918100887F892B80938100D1
:1009F00086CFD0928900C092880020932A06309337
:100A00002B0640932C0650932D0680916F00826038
:100A100080936F00A5CFC092B30020932606309339
:100A20002706409328065093290680917000826023
:100A30008093700095CF730162018AE0F594E7948A
:100A4000D794C7948A95D1F7B1E0CB1AD108E108C1
:100A5000F10887E09091B100987F892B8093B100D5
:100A60004ECF1F93CF93DF93182FEB0161E00E94CD
:100A70002F03209739F460E0812FDF91CF911F91F0
:100A80000C940103CF3FD10511F461E0F5CFE12FC4
:100A9000F0E0EA58FF4FE491E33031F140F4E13007
:100AA000B1F0E230E1F0C038D1057CF7E4CFE730B7
:100AB00029F1E83059F1E430B1F78091800080628B
:100AC00080938000D0938B00C0938A0004C084B5CB
:100AD000806884BDC7BDDF91CF911F91089584B513
:100AE000806284BDC8BDF7CF80918000806880930C
:100AF0008000D0938900C0938800EDCF8091B00032
:100B000080688093B000C093B300E5CF8091B000BF
:100B100080628093B000C093B400DDCF3FB7F894FB
:100B20008091D7049091D804A091D904B091DA04AF
:100B300026B5A89B05C02F3F19F00196A11DB11D38
:100B40003FBFBA2FA92F982F8827BC01CD01620F74
:100B5000711D811D911D42E0660F771F881F991F2F
:100B60004A95D1F708958F929F92AF92BF92CF92FC
:100B7000DF92EF92FF924B015C010E948E056B01A8
:100B80007C010E948E056C197D098E099F09683EC3
:100B9000734081059105A8F321E0821A9108A1080C
:100BA000B10888EEC80E83E0D81EE11CF11C811448
:100BB0009104A104B10429F7FF90EF90DF90CF904A
:100BC000BF90AF909F908F9008952FB7F894609149
:100BD000D3047091D4048091D5049091D6042FBF92
:100BE00008956093C7047093C8048093C9049093D8
:100BF000CA04645D7E4F8F4F9F4F6093C304709310
:100C0000C4048093C5049093C60482E090E090935E
:100C1000C2048093C1040E94E5056093BD047093F3
:100C2000BE048093BF049093C00408952F923F9216
:100C30004F925F926F927F928F929F92AF92BF92EC
:100C4000CF92DF92EF92FF920F931F93CF93DF9398
:100C5000382E962E842E222E84E6E816F1040CF40B
:100C600059C092EBE91A97E0F90AE092D104009397
:100C7000D0042092CF043092CD049092CC04809284
:100C8000CB04AE2DB0E020E833E341EE51E00E940A
:100C900032322B013C0122EB37E0FF24E4E6F0E0A6
:100CA000C0E9D1E0C901825B97408E159F05B4F180
:100CB0009EE4E91A98EFF90AC70164E670E00E9421
:100CC000A9336C01C70160E971E00E94A9335C019E
:100CD000CDEFD1E0E1E0F0E0112783E0E822FF244E
:100CE000E017F1070CF042C0E230F10591F5E11494
:100CF000F10479F5C114D10419F4A114B10449F532
:100D000080E8480E8BE3581E86E2681E711C3196FF
:100D10002196E6CF8EE1E80EF11CA7CFC9018370C2
:100D20009927892B99F4C901BF010E94A933892B06
:100D300031F4C901BE010E94A933892B39F490E82E
:100D4000490E91E5591E91E0691E711C2F5F3F4FBE
:100D5000A9CFA881B0E020E831E541E050E00E9451
:100D60003232460E571E681E791ED1CF292D30E033
:100D7000ACE3B0E00E9474326B017C01C80CD11C62
:100D8000E11CF11C232D30E0A0E1BEE00E94743292
:100D9000C60ED71EE81EF91E822D8150990BDC016C
:100DA00020E831E541E050E00E940B346C0D7D1DE0
:100DB0008E1D9F1D640D751D861D971DDF91CF91A2
:100DC0001F910F91FF90EF90DF90CF90BF90AF9069
:100DD0009F908F907F906F905F904F903F902F905B
:100DE0000C94F105CF92DF92EF92FF920F931F9335
:100DF0000E94E5058B019C01C090BD04D090BE040B
:100E0000E090BF04F090C0046091C7047091C804E2
:100E10008091C9049091CA040C191D092E093F093B
:100E2000083E134021053105E0F0DC01CB010196BD
:100E3000A11DB11D8093C7049093C804A093C90459
:100E4000B093CA04B701A60148515C4F6F4F7F4F62
:100E50004093BD045093BE046093BF047093C004DC
:100E6000C7CF1F910F91FF90EF90DF90CF90089523
:100E70004F925F926F927F928F929F92AF92BF92AA
:100E8000CF92DF92EF92FF920F931F93CF93DF9356
:100E90004B015C018091B9049091BA04A091BB040C
:100EA000B091BC0488159905AA05BB0509F4C6C014
:100EB0008CE3C82ED12CE12CF12CC501A7019601A1
:100EC0000E94BD336093CB04CA01B901A70196010A
:100ED0000E94BD336093CC04C501B40120E13EE023
:100EE00040E050E00E94BD33CA01B90128E130E082
:100EF00040E050E00E94BD336093CD04C501B401D1
:100F000020E831E541E050E00E94BD3369017A01FB
:100F1000CA01B9016C5F7F4F8F4F9F4F27E030E0D0
:100F200040E050E00E94BD336F5F6093CE04412CDF
:100F3000512C320140E004E610E0C0E9D1E0242F5A
:100F400030E02E54384FF901E370FF273097F9F461
:100F5000C901B8010E94A933892B31F4C901BE012E
:100F60000E94A933892B99F48EE691E0A0E0B0E0CD
:100F7000480E591E6A1E7B1ED301C201AA27BB2739
:100F8000C816D906EA06FB0638F04F5FD8CF8DE6C3
:100F900091E0A0E0B0E0ECCF4093D104C90164E659
:100FA00070E00E94A933EC01C90160E971E00E9480
:100FB000A933309721F42097D9F40097C9F04DE672
:100FC00051E060E070E0441A550A660A770AC418D6
:100FD000D508E608F708ADEFB1E020E0213069F46C
:100FE0003097E9F5209711F40097C9F54DE106C057
:100FF0004EE651E060E070E0E6CF4C9150E070E0EA
:1010000060E031E0320FC416D506E606F70640F080
:10101000C41AD50AE60AF70A1196232F3C30F1F6D6
:101020002F5F2093D004C394C092CF048092B90460
:101030009092BA04A092BB04B092BC04DF91CF910D
:101040001F910F91FF90EF90DF90CF90BF90AF90E6
:101050009F908F907F906F905F904F9008954CE19C
:10106000CDCF0E94F2060E9438078091D10490E013
:101070008E54984F08950E94F2060E94380780917E
:10108000D00490E008950E94F2060E9438078091F3
:10109000CF0490E008950E94F2060E9438078091E4
:1010A000CB0490E008950E94F2060E9438078091D8
:1010B000CC0490E008950E94F2060E9438078091C7
:1010C000CD0490E00895CF92DF92EF92FF92CF93FC
:1010D000DF93EC010E94E5056B017C018F850E9486
:1010E000D8029C0181E02115310509F480E0898B4B
:1010F0008889811105C091E0232B09F090E0998B3C
:1011000029898A89281721F0CD8ADE8AEF8AF88E0C
:101110008D899E89AF89B88DB701A601481B590BEF
:101120006A0B7B0BDB01CA01CB80DC80ED80FE808B
:10113000C816D906EA06FB0664F43A81231749F07B
:101140002A83222349F04B895C894F5F5F4F5C8B78
:101150004B8B3A81311117C0CF80D884E984FA844F
:10116000C816D906EA06FB0634F48B899C89998354
:1011700088831C8A1B8A2A8BDF91CF91FF90EF9086
:10118000DF90CF900895CB84DC84ED84FE84C81674
:10119000D906EA06FB067CF78B899C899195819597
:1011A0009109E5CF20919604260F3327331F213272
:1011B0003105ECF42091E105FC0190E080E0243061
:1011C00069F082E00895A09196042191AC014A58FB
:1011D0005B4FA40FB52FB11D2C930196861798F382
:1011E00080919604680F6093960480E0089581E0F2
:1011F00008951092E10581E08093E0051092BB050F
:1012000061E082E10E94010361E083E10E94010349
:10121000E9EBF0E080818E7F808380818D7F808309
:1012200088E48093B80085E48093BC000895CF9350
:10123000DF9391E0909375048823B9F0C091B800D2
:10124000D091BA008091BC008A7B8093BC0060E0A2
:1012500082E10E94010360E083E10E9401030E9499
:10126000F908D093BA00C093B800DF91CF910895E8
:10127000CF92DF92EF92FF920F931F93CF93DF9362
:10128000D0910A0681E0D13208F09CC0C0910906D5
:101290000E948E056B017C018091E10581116CC07B
:1012A00082E08093E10581E08093E0058FEF8093F9
:1012B000DF051092DE05D093DD05A9EEB5E0EDEB7C
:1012C000F5E080E0D8138DC01092BC058091BC057C
:1012D000CC0FC82BC093BC058091BB05813009F0B1
:1012E00084C01092BB050E948E056B017C01809129
:1012F000BC058093BB008091E3059091E405A0912B
:10130000E505B091E605892B8A2B8B2BA1F00E9475
:101310008E050091E3051091E4052091E5053091DB
:10132000E6056C197D098E099F090617170728071E
:10133000390708F442C08091BC0083FDD8CF85EC0A
:101340008093BC000E948E056B017C018091E105B9
:10135000823009F44CC08091DF058F3F09F469C0E9
:101360008091DF05803209F466C08091DF0580330B
:1013700009F463C084E026C08091E3059091E40500
:10138000A091E505B091E605892B8A2B8B2B09F4FA
:1013900083CF0E948E050091E3051091E405209112
:1013A000E5053091E6056C197D098E099F09061740
:1013B00017072807390708F06FCF8091E2050E94D0
:1013C000170985E01092E80510920A061092E705C9
:1013D000DF91CF911F910F91FF90EF90DF90CF9011
:1013E00008959D9191938F5F6DCF85EEA9CF8091E8
:1013F000E3059091E405A091E505B091E605892B00
:101400008A2B8B2B09F4A2CF0E948E050091E30555
:101410001091E4052091E5053091E6056C197D09F0
:101420008E099F09061717072807390708F08ECF7E
:10143000C4CF80E0C7CF82E0C5CF83E0C3CFCF92D7
:10144000DF92EF92FF920F931F93CF93DF93D82FEA
:10145000C62F613208F098C00E948E056B017C0196
:101460008091E10581116BC081E08093E10580935B
:10147000E0059FEF9093DF051092DE059C0F90939F
:10148000DD058093BC058091BC05DD0FD82BD09382
:10149000BC058091BB05813009F078C01092BB0576
:1014A0000E948E056B017C018091BC058093BB007E
:1014B0008091E3059091E405A091E505B091E605E2
:1014C000892B8A2B8B2BA1F00E948E050091E305BE
:1014D0001091E4052091E5053091E6056C197D0930
:1014E0008E099F09061717072807390708F448C00F
:1014F0008091BC0083FDD8CF85EC8093BC000E9416
:101500008E056B017C018091E105813009F440C0BA
:101510008091DE058C1710F4C091DE05EDEBF5E04F
:10152000ABE9B5E080E08C1355C08C2FDF91CF91F3
:101530001F910F91FF90EF90DF90CF9008958091D1
:10154000E3059091E405A091E505B091E605892BAE
:101550008A2B8B2B09F484CF0E948E050091E30522
:101560001091E4052091E5053091E6056C197D099F
:101570008E099F09061717072807390708F070CF4B
:101580008091E2050E941709C0E0CFCF85EEB5CF6C
:101590008091E3059091E405A091E505B091E60501
:1015A000892B8A2B8B2B09F4AECF0E948E050091DC
:1015B000E3051091E4052091E5053091E6056C19ED
:1015C0007D098E099F09061717072807390708F0B4
:1015D0009ACFD6CF91919D938F5FA5CF0895E0913B
:1015E000EC048091EB04E81730F4F0E0E556FA4F94
:1015F000808190E008958FEF9FEF08959091EC0423
:101600008091EB042FEF3FEF981748F4E92FF0E0BB
:10161000E556FA4F208130E09F5F9093EC04C901BA
:1016200008958091EB049091EC04891B990B089527
:10163000CF92DF92EF92FF920F931F93CF93DF939E
:101640007C01CB018A012091E705222389F0EB017F
:101650006B01C40ED51ECC15DD0569F06991D7016B
:10166000ED91FC910190F081E02DC7010995F3CF38
:10167000642F0E94D208C801DF91CF911F910F9172
:10168000FF90EF90DF90CF900895CF93DF931F925C
:10169000CDB7DEB769832091E7052223F9F02091C9
:1016A0000A06203258F021E030E0FC013383228327
:1016B00090E080E00F90DF91CF9108958091E80550
:1016C000E82FF0E0E751FA4F998190838F5F809384
:1016D000E80580930A0681E090E0ECCF61E0CE015E
:1016E00001960E94D208F7CFDF92EF92FF920F93FC
:1016F0001F93CF93DF93182FF62ED42ED22F81E095
:101700008093E70588E6809309061092E805109219
:101710000A0660E081ED96E00E94450BCAE08D2D3F
:101720006C2F0E949D338295807F682F690F81ED19
:1017300096E00E94450B8F2D6C2F0E949D33829561
:10174000807F682F690F81ED96E00E94450B812F05
:101750006C2F0E949D338295807F682F690F81EDE9
:1017600096E00E94450B61E081ED96E00E94450BFA
:101770008D2F6C2F0E949D338295807F682F690F7B
:1017800081ED96E00E94450B802F6C2F0E949D33C7
:101790008295807F682F690F81ED96E00E94450B4E
:1017A0008E2D6C2F0E949D338295807F682F690F4C
:1017B00081ED96E00E94450B60E081ED96E00E948D
:1017C000450BDF91CF911F910F91FF90EF90DF902C
:1017D0000C94380990E080E0089540917304509192
:1017E0007404209171043091720480E09CE34217EC
:1017F000530711F48FEF9FEF4F5F5F4F4330510559
:1018000029F0509374044093730408951092740463
:10181000109273042F5F3F4F2330310529F030932E
:10182000720420937104089510927204109271044E
:101830000895209166053091670502C0359527957A
:101840008A95E2F720FF03C080E09CE308958FEFC4
:101850009FEF0895CF92DF92EF92FF920F931F9325
:10186000CF93DF939091790591110BC08FEF9FEF8C
:10187000DF91CF911F910F91FF90EF90DF90CF906C
:10188000089590916E05992389F3082FC0918205E0
:10189000D09183058091690481110DC00E94E505F6
:1018A0006093650470936604809367049093680462
:1018B00081E0809369040E94E505C0906504D090A2
:1018C0006604E0906704F09068046C197D098E0945
:1018D0009F096D32714081059105B0F0109164044B
:1018E0000E94E50560936504709366048093670425
:1018F0009093680491E0912790936404992331F1C7
:101900001092630410926204209162043091630487
:101910002095309580917D05282326FF1CC081E00D
:101920008093610427FF1AC081E080936004809156
:101930006404882309F49ACF02C0D595C7950A9507
:10194000E2F7C0FF93CF80E09CE392CFD093630493
:10195000C0936204D9CF10926104E4CF1092600466
:10196000E6CFCF92DF92EF92FF921F93CF93DF9358
:1019700090910B06992309F48EC0C0915A04D0911E
:101980005B04C830D10580F4182FFE01E653F34FF5
:101990000C94FE33D20CED0CF10CD20CED0CF30CCC
:1019A000F50CFA0C0E94B3002196C830D10509F459
:1019B0006DC0D0935B04C0935A046091540470913D
:1019C00055048091560490915704DF91CF911F9157
:1019D000FF90EF90DF90CF9008958CEC0E941C0157
:1019E000E3CF84E4FBCF8EEBF9CF0E946B018093B1
:1019F0005804DACF0E946B01809359046091580417
:101A0000782F6F3F760711F470E060E0072E000C2E
:101A1000880B990B0E94FF3020E030E040E85DE346
:101A20000E945E316B017C016091B9017091BA0135
:101A3000072E000C880B990B0E94FF3020E030E04D
:101A400040E251E40E94F032A70196010E948432E4
:101A500011110FC020E030E040E251E40E945E31FD
:101A600060935404709355048093560490935704E4
:101A70009BCF26E636E646EE5FE30E945E3120E02D
:101A800030E040E052E40E948432E4CF10925B04E4
:101A900010925A0492CF60E070E0CB0196CFCF93C2
:101AA000DF93EC012196FC0120812A33C9F42181C6
:101AB000243609F5229630E020E06AE0899190ED25
:101AC000980F9A3078F4629FA001639F500D112403
:101AD000082E000C990BC0979A01280F391FEECFE2
:101AE000CE01DFCF3093080520930705211531057E
:101AF00011F02093610188818F3689F48A81082E44
:101B0000000C990B9C012053310930930805209358
:101B10000705C397059710F42093600124968881E8
:101B20008236F1F4229630E020E06AE0899190ED6F
:101B3000980F9A3068F4629FA001639F500D1124A2
:101B4000082E000C990BC0979A01280F391FEECF71
:101B5000309308052093070530930101209300017D
:101B60002091000130910101032E000C440B550B14
:101B700060E67AEE80E090E00E94DF3382E0220FA0
:101B8000331F441F551F8A95D1F7209303053093C7
:101B900004054093050550930605CE01DF91CF91D2
:101BA00008958EBD00000DB407FEFDCF8EB50895DB
:101BB000CF9381E08093E70588E680930906109231
:101BC000E80510920A0660E081ED96E00E94450B60
:101BD0000E94380967E088E60E941F0A1092EC0410
:101BE0008093EB0481ED96E00E94FE0A982F929577
:101BF0009F70CAE08F709C9F800D112490E090939D
:101C000093058093920581ED96E00E94FE0A982F3D
:101C100092959F708F709C9F800D112490E09093FF
:101C200091058093900581ED96E00E94FE0A982F21
:101C3000929593708F709C9F800D112490E09093EB
:101C40008F0580938E0581ED96E00E94FE0A81ED5E
:101C500096E00E94FE0A982F92959F708F709C9F2D
:101C6000800D112490E0909395058093940581ED6B
:101C700096E00E94FE0A982F92959F708F709C9F0D
:101C8000800D112490E0909397058093960581ED47
:101C900096E00E94FE0A982F92959F708F709C9FED
:101CA000800D112490E09093990580939805CF9131
:101CB0000895FC0101900020E9F73197AF01481B1E
:101CC000590BBC0184E396E00C948701CF93DF931A
:101CD0000E947402EC018DE393E00E94590E8C0F78
:101CE0009D1FDF91CF9108950F931F938091B301B2
:101CF0009091B401892B09F44DC08091420488234E
:101D0000A9F00E94E50500913E0410913F04209146
:101D1000400430914104601B710B820B930B693EB0
:101D2000734081059105B0F1109242040E945B0856
:101D30002091AD013091AE018217930759F50E94B1
:101D400053082091AF013091B0018217930711F52C
:101D50000E944B082091B1013091B2018217930784
:101D6000C9F40E94E50560933E0470933F0480939C
:101D700040049093410481E08093420488E690E01F
:101D80000E94660E809102019091030190938D054F
:101D900080938C051F910F9108958F929F92AF921F
:101DA000BF92CF92DF92EF92FF920F931F93CF9348
:101DB000DF93CDB7DEB7A1970FB6F894DEBF0FBEA5
:101DC000CDBF6C01990FEE08FF08F7FE47C06DE22A
:101DD00084E396E00E9427028C0122273327A90181
:101DE0002C193D094E095F0919A2CE0181967C018B
:101DF0009AE0892E912CA12CB12CCA01B901A50120
:101E000094010E94BD33605DF70162937F0121154B
:101E100031054105510589F790E080E0309719F0D0
:101E2000CF010E94590E080F191F8DE393E00E9405
:101E3000590E800F911FA1960FB6F894DEBF0FBE0A
:101E4000CDBFDF91CF911F910F91FF90EF90DF9069
:101E5000CF90BF90AF909F908F900895A70196016B
:101E600019A28E010F5D1F4F8AE0C82ED12CE12CE4
:101E7000F12CCA01B901A70196010E94BD33605D32
:101E8000F80162938F01211531054105510589F74C
:101E9000309729F0CF010E94590E8C01C6CF10E077
:101EA00000E0C3CF0C9424320C941C32FC018081DE
:101EB0009181009711F00C94653060E070E0CB01E7
:101EC00008952F923F924F925F926F927F928F92DE
:101ED0009F92AF92BF92CF92DF92EF92FF921F93A9
:101EE000CF93DF93CDB7DEB72C970FB6F894DEBF54
:101EF0000FBECDBF0E948E05C0905C04D0905D04E3
:101F0000E0905E04F0905F046C197D098E099F09D2
:101F1000603D77408105910508F498C20E948E05C6
:101F200060935C0470935D0480935E0490935F04FF
:101F30008CE297E00E94560F1B012C012AE0822EB2
:101F4000912CA12CB12CA50194010E94DF3329838F
:101F50003A834B835C83660F771F67517E4FDB01AB
:101F60000D90BC91A02DBE83AD8387E090E00E94D0
:101F70002A0C6C0190E080E00E94190CC822D92242
:101F80000E94ED0B7C0169817A818B819C81A50186
:101F900094010E94DF33660F771F67517E4FFB016C
:101FA0008080918086E090E00E942A0C5C0181E0B4
:101FB00090E00E94190CA822B9220E94ED0BCE20BD
:101FC000DF202D813E81C222D322F12CE12C5AE068
:101FD000CC0CDD1CEE1CFF1C5A95D1F78A219B21ED
:101FE00088229922B12CA12C8C289D28AE28BF28AC
:101FF000C201B10124E630E040E050E00E94DF334E
:1020000069017A0180916104811102C06894B6F877
:1020100080916004811102C06894B7F860E08AE0A2
:102020000E9401031091EA048B2D9927AA27BB2750
:1020300089839A83AB83BC83C501AA27BB278D8381
:102040009E83AF83B887BB27AB2D9A2D892D8987B7
:102050009A87AB87BC87112309F4CBC1882D0E94D6
:10206000D10D89850E94D10D8D810E94D10D89816C
:102070000E94D10D2AE0822E912CA12CB12CC701F7
:10208000B601A50194010E94DF33660F771F6751E7
:102090007E4FDB016D907C9085E090E00E942A0CE1
:1020A0006C0182E090E00E94190CC822D9226C20B9
:1020B0007D200E94ED0B6C01C201B10128EE33E0DE
:1020C00040E050E00E94DF33CA01B901A50194014C
:1020D0000E94DF33660F771F67517E4FFB0101902F
:1020E000F081E02DFA83E98384E090E00E942A0CDD
:1020F0007C0183E090E00E94190CE822F9222981FA
:102100003A81E222F3220E94ED0BC620D720A601DD
:1021100070E060E0E4E1440F551F661F771FEA9509
:10212000D1F78E219F21B0E0A0E0FAE0880F991F3F
:10213000AA1FBB1FFA95D1F76A017B01C82AD92AC9
:10214000EA2AFB2AC201B10120E137E240E050E077
:102150000E94DF33CA01B901A50194010E94DF3357
:10216000660F771F67517E4FDB010D90BC91A02D4C
:10217000BA83A98383E090E00E942A0C5C0184E08A
:1021800090E00E94190C8A219B21E981FA81E823C1
:10219000F923FA83E9830E94ED0B29813A81822396
:1021A0009323B0E0A0E0C82AD92AEA2AFB2AC20178
:1021B000B10120EA36E841E050E00E94DF33298790
:1021C0003A874B875C8780916104882309F41CC19E
:1021D000E894F6F880916004882309F418C1E89423
:1021E000F7F88F2D9927AA27BB2789839A83AB837A
:1021F000BC834701AA24BB24BB27AF2D9E2D8D2D68
:102200008D839E83AF83B887112309F403C18C2D7E
:102210000E94D10D8D810E94D10D882D0E94D10D7B
:1022200089810E94D10D3AE0832E912CA12CB12CF2
:1022300069857A858B859C85A50194010E94DF3391
:10224000660F771F67517E4FDB016D907C9082E0B7
:1022500090E00E942A0C6C0185E090E00E94190C2D
:10226000C822D9226C207D200E94ED0B6C01C20196
:10227000B10120E432E44FE050E00E94DF33CA01B4
:10228000B901A50194010E94DF33660F771F6751E2
:102290007E4FFB010190F081E02DFA83E98381E01C
:1022A00090E00E942A0C7C0186E090E00E94190CCC
:1022B000E822F92229813A81E222F3220E94ED0BE1
:1022C000C620D720A60170E060E0E4E1440F551F6E
:1022D000661F771FEA95D1F78E219F21B0E0A0E01D
:1022E000FAE0880F991FAA1FBB1FFA95D1F76A0160
:1022F0007B01C82AD92AEA2AFB2AC201B10120E8B7
:1023000036E948E950E00E94DF33CA01B901A5016E
:1023100094010E94DF33660F771F67517E4FDB0108
:10232000AD90BC9090E080E00E942A0C9A83898353
:1023300087E090E00E94190CE981FA81E823F923F3
:10234000EA21FB21FA83E9830E94ED0B29813A817E
:1023500082239323B0E0A0E08C299D29AE29BF29D8
:10236000209161046C017D01222309F45EC0E89490
:10237000F6F880916004882309F45AC0E894F7F8CD
:102380004F2C5524662477244701AA24BB24BB275D
:10239000AF2D9E2D8D2D89839A83AB83BC83112312
:1023A00009F449C08C2D0E94D10D89810E94D10D64
:1023B000882D0E94D10D842D0E94D10D61E08AE00C
:1023C0002C960FB6F894DEBF0FBECDBFDF91CF9134
:1023D0001F91FF90EF90DF90CF90BF90AF909F90B4
:1023E0008F907F906F905F904F903F902F900C94C4
:1023F000010389810E94D10D8D810E94D10D8985B3
:102400000E94D10D882D34CE6894F6F8E3CE6894FE
:10241000F7F8E7CE89810E94D10D882D0E94D10D59
:102420008D810E94D10D8C2DFCCE6894F6F8A1CF41
:102430006894F7F8A5CF842D0E94D10D882D0E94B5
:10244000D10D89810E94D10D8C2DB6CF2C960FB65F
:10245000F894DEBF0FBECDBFDF91CF911F91FF90EB
:10246000EF90DF90CF90BF90AF909F908F907F9034
:102470006F905F904F903F902F9008950F931F9310
:10248000CF93DF938C01EB01FC0180819181009758
:10249000E1F06881798161157105A9F0428153816C
:1024A0002C813D814217530770F00E94ED348C81DE
:1024B0009D81F801958384831D821C82DF91CF91D9
:1024C0001F910F9108950E94DC2F88819981F80156
:1024D000918380838A819B81938382838C819D8178
:1024E00095838483198218821B821A82E5CFCF9349
:1024F000DF93EC0188819981009711F00E94DC2F15
:10250000198218821D821C821B821A82DF91CF9150
:102510000895FC0180819181009711F00C94DC2FCB
:1025200008950F931F93CF93DF93EC0188819981D6
:10253000009759F02A813B812617370730F081E058
:10254000DF91CF911F910F9108958B016F5F7F4FA6
:102550000E942734009759F0998388831B830A834C
:102560002C813D81232B59F7FC011082E8CF80E0BC
:10257000E7CFEF92FF920F931F93CF93DF936115F5
:10258000710541F480E0DF91CF911F910F91FF9091
:10259000EF90089541155105B1F07B01EC010C81DC
:1025A0001D81040F151FB8010E949112882351F359
:1025B000288139818C819D81B701820F931F0E94F0
:1025C000ED341D830C8381E0DECFEF92FF920F93F9
:1025D0001F93CF93DF93CDB7DEB72D970FB6F89447
:1025E000DEBF0FBECDBF7C01CB01BA012AE08E0158
:1025F0000F5F1F4FA8010E94AC30F801019000202E
:10260000E9F73197AF01401B510BB801C7010E9498
:10261000B912811103C0C7010E947712C7012D961C
:102620000FB6F894DEBF0FBECDBFDF91CF911F91E3
:102630000F91FF90EF900895CF93DF93EC01FB0192
:1026400001900020E9F73197AF01461B570B0E941C
:10265000B912811103C0CE010E947712CE01DF9121
:10266000CF910895CF93DF93EC01FB014481558115
:10267000608171810E94B912811103C0CE010E9454
:102680007712CE01DF91CF910895EF92FF920F93D1
:102690001F93CF93DF9300D000D0CDB7DEB77C017E
:1026A000862F4AE08E010F5F1F4FB80190E00E9415
:1026B0008C30F80101900020E9F73197AF01401B01
:1026C000510BB801C7010E94B9120F900F900F90E3
:1026D0000F90DF91CF911F910F91FF90EF90089590
:1026E000EF92FF920F931F93CF93DF93EC017B0147
:1026F0008A01BA010E94911281110BC0CE010E9481
:102700007712CE01DF91CF911F910F91FF90EF9043
:1027100008951D830C83B701888199810E94ED344F
:10272000F0CFFB0101900020E9F73197AF01461B84
:10273000570B0C9470130F931F93CF93DF93CDB768
:10274000DEB762970FB6F894DEBF0FBECDBF8C0127
:10275000CB01F80111821082138212821582148239
:102760004AE0BE016F5F7F4F0E948C30BE016F5FF9
:102770007F4FC8010E94911362960FB6F894DEBF96
:102780000FBECDBFDF91CF911F910F9108950F9391
:102790001F93CF93DF93CDB7DEB7A1970FB6F89411
:1027A000DEBF0FBECDBF8C01CB01BA01F801118293
:1027B000108213821282158214822AE0AE014F5FCA
:1027C0005F4F0E94AC30BE016F5F7F4FC8010E9417
:1027D0009113A1960FB6F894DEBF0FBECDBFDF9167
:1027E000CF911F910F910895CF93DF93EC01FB01DF
:1027F0008617970749F0608171816115710541F075
:10280000448155810E947013CE01DF91CF910895CC
:102810000E947712F9CFFC0111821082138212827A
:10282000158214820C94F413FC011182108213821D
:10283000128215821482FB0101900020E9F7319782
:10284000AF01461B570B0C947013AF92BF92CF92FF
:10285000DF92EF92FF920F931F93CF93DF936C0160
:102860005B017A0189012417350720F48F2D790146
:10287000042F182F6FE373E0C6010E941414D501D2
:102880001496CD91DC91EC16FD06E0F40C171D07B3
:1028900008F4E801D501ED91FC911197EC0FFD1FB3
:1028A000108110826D917C916E0D7F1DC6016115A6
:1028B0007105A1F00E949113F50180819181C80FEB
:1028C000D91F1883C601DF91CF911F910F91FF90FF
:1028D000EF90DF90CF90BF90AF9008950E94771255
:1028E000EBCF4F925F926F927F928F929F92AF92B7
:1028F000BF92CF92DF92EF92FF920F931F93CF93ED
:10290000DF9300D000D000D0CDB7DEB77C014B0103
:102910005A018091680581113EC081E0809368056D
:1029200010926705109266059CE4692E94E0792E5A
:1029300024E4422E24E0522E10E000E00F5F1F4FEF
:10294000680181E0C81AD1089801A601B401CE013E
:1029500001960E942514CE0101960E94560FD301C4
:102960006D933D01CE0101960E9489129801A60146
:10297000B501CE0101960E942514CE0101960E9458
:10298000560FF20161932F01CE0101960E94891228
:102990000830110599F6909143048CE4C82E84E028
:1029A000D82EE4E4F4E08601A801D8018C919A3095
:1029B000D8F58F5F8C930F5F1F4FDA018C918A30AF
:1029C00019F4D80111971C923196B4E004351B0715
:1029D00059F79F5F943169F1909343046FE373E07B
:1029E000C7010E941414F60161916F01C7010E9492
:1029F00045130C151D05B9F7C70126960FB6F894B7
:102A0000DEBF0FBECDBFDF91CF911F910F91FF9021
:102A1000EF90DF90CF90BF90AF909F908F907F907E
:102A20006F905F904F9008952081281721F28F5F5B
:102A3000C1CF1092430410926805D0CFCF92DF929D
:102A4000EF92FF920F931F93CF93DF93CDB7DEB733
:102A50002C970FB6F894DEBF0FBECDBF8C016AE78E
:102A600073E0CE0107960E94141422E030E050E09B
:102A700040E003301105A9F024E030E042E050E0EE
:102A80000C30110571F026E030E00033110539F00B
:102A9000003F110581F5209130073091310744E066
:102AA00050E06CE277E0CE0101960E942514BE0151
:102AB0006F5F7F4FCE0107960E943E12CE010196B6
:102AC0000E948912CE0107960E94560F6B01CE011B
:102AD00007960E948912C6012C960FB6F894DEBFA5
:102AE0000FBECDBFDF91CF911F910F91FF90EF905F
:102AF000DF90CF900895003C110521F72091300719
:102B00003091310746E050E0CCCF0F931F93CF9325
:102B1000DF93CDB7DEB762970FB6F894DEBF0FBE76
:102B2000CDBF8C0177FF03C07195619571096A3043
:102B30007105A4F5CE010D960E949B1367E473E026
:102B4000CE0101960E941414BE016F5F7F4FCE012B
:102B500007960E940B14BE01635F7F4FCE0107965C
:102B60000E943213BC01C8010E940B14CE010796CB
:102B70000E948912CE0101960E948912CE010D9603
:102B80000E948912C80162960FB6F894DEBF0FBE8C
:102B9000CDBFDF91CF911F910F910895C8010E9481
:102BA0009B13F0CF0F931F93CF93DF93CDB7DEB777
:102BB00068970FB6F894DEBF0FBECDBF8B0177FFCD
:102BC00003C0119501951109833079F520913007E3
:102BD0003091310742E050E06CE277E0CE010D9693
:102BE0000E942514B801CE0101960E948515BE01F0
:102BF0006F5F7F4FCE0107960E940B14BE01635F8B
:102C00007F4FCE0107960E943213BC018CE297E001
:102C10000E94F413CE0107960E948912CE010196FC
:102C20000E948912CE010D9644C08C3009F04EC02E
:102C3000209130073091310744E050E06CE277E0BA
:102C4000CE0143960E942514B801CE010D960E9434
:102C5000851522E030E050E040E06CE277E0CE0104
:102C600001960E942514BE016F5F7F4FCE0107962B
:102C70000E940B14BE01635F7F4FCE0107960E9436
:102C80003213BE016D5E7F4F0E943213BC018CE295
:102C900097E00E94F413CE0107960E948912CE019C
:102CA00001960E948912CE010D960E948912CE01D2
:102CB00043960E94891268960FB6F894DEBF0FBE45
:102CC000CDBFDF91CF911F910F9108958033A1F473
:102CD000209130073091310746E050E06CE277E018
:102CE000CE0143960E942514B801CE010D960E9494
:102CF000851524E030E0AFCF803F81F4B801CE01EC
:102D00000D960E94851524E030E050E040E06CE232
:102D100077E0CE0101960E94251469CF803C59F6D8
:102D2000B801CE010D960E94851526E030E0EDCF6A
:102D30000E94E50560937E0570937F058093800572
:102D40009093810580918405882309F44CC02091DB
:102D5000860530918705C901880F991F21313105FA
:102D6000A1F1FC01ED56FE4F4081518141505109C6
:102D700051834083DC01AD56BE4F6D917C9111971C
:102D8000FC01EC5FFE4F40815181641775073CF4F4
:102D9000FC01EE5CFE4F408151814D935C932031EC
:102DA000310551F42091B3013091B4012130310546
:102DB000B9F420E820937D058D569E4FFC0160817B
:102DC0007181809182050C94D2154091B50150918A
:102DD000B6014C5051095093B6014093B501CACF8A
:102DE00010927D05E9CF08950E94E50560937E0568
:102DF00070937F0580938005909381058091840571
:102E0000882309F44CC02091860530918705C901BB
:102E1000880F991F21313105A1F1FC01ED56FE4FBC
:102E2000408151814F5F5F4F51834083DC01AD563C
:102E3000BE4F6D917C911197FC01EE5CFE4F40817D
:102E40005181461757073CF4FC01EC5FFE4F40816F
:102E500051814D935C932031310551F42091B301A0
:102E60003091B40121303105B9F420E820937D057B
:102E70008D569E4FFC0160817181809182050C947A
:102E8000D2154091B5015091B601445F5F4F509308
:102E9000B6014093B501CACF10927D05E9CF0895E0
:102EA0008F929F92AF92BF92DF92EF92FF920F9319
:102EB0001F93CF93DF93CDB7DEB7A2970FB6F894E9
:102EC000DEBF0FBECDBF8C018AE0E7ECF1E0DE0192
:102ED000119601900D928A95E1F780913C049091B2
:102EE0003D0401968A3091050CF086C090933D0414
:102EF00080933C04E0913C04F0913D0481E090E03B
:102F00008C0F9D1FE80FF91FD0808091B501909123
:102F1000B601489709F075C00E94E5054B015C01B8
:102F20000E944B08BC01CE014D960E9485150E945F
:102F30005308BC01CE0147960E9485150E945B088C
:102F4000BC01CE010B960E948515BE01655F7F4FC7
:102F5000CE0141960E940B14BE01695E7F4FCE01E7
:102F600041960E943213BE01635E7F4F0E9432136E
:102F70007C01C501B40128EE33E040E050E00E943E
:102F8000BD3324E630E040E050E00E94BD33BA019A
:102F9000A901C7010E94E5127C016D2D0E94451315
:102FA000811103C0C7010E947712B701C8010E94B6
:102FB0000B14CE0141960E948912CE010B960E94FD
:102FC0008912CE0147960E948912CE014D960E9429
:102FD0008912C801A2960FB6F894DEBF0FBECDBF0E
:102FE000DF91CF911F910F91FF90EF90DF90BF90F5
:102FF000AF909F908F90089510923D0410923C04E2
:1030000079CF0E94E50528EE33E040E050E00E94D1
:10301000BD3324E630E040E050E00E94BD3349017A
:103020005A010E944B08BC01CE014D960E948515A5
:103030000E945308BC01CE0147960E9485150E944C
:10304000F2060E9438078091CD046CE070E088237E
:1030500031F0682F70E08D3010F06C507109CE01A6
:103060000B960E948515BE01655F7F4FCE0141968C
:103070000E940B14BE01695E7F4FCE0141960E94F3
:103080003213BE01635E7F4F0E943213B501A4016B
:1030900081CF8F929F92AF92BF92CF92DF92EF92A9
:1030A000FF920F931F93CF93DF93CDB7DEB7629755
:1030B0000FB6F894DEBF0FBECDBF8C016A017B0155
:1030C00080911E06811111C00E94E505645B7B4F53
:1030D0008F4F9F4F60931A0670931B0680931C06B8
:1030E00090931D0681E080931E0680911206811147
:1030F00009C060E473E08CE096E00E94141481E063
:103100008093120680910B06811119C06CE076E065
:10311000C8010E940B14C80162960FB6F894DEBF76
:103120000FBECDBFDF91CF911F910F91FF90EF9018
:10313000DF90CF90BF90AF909F908F9008950E94A6
:10314000E50580901A0690901B06A0901C06B09092
:103150001D06681979098A099B09693E7340810532
:103160009105A0F20E94E50560931A0670931B0674
:1031700080931C0690931D0620E030E0A901C70152
:10318000B6010E94983320E030E040E05FE387FD25
:1031900002C1C701B6010E9484320E9462337B01E2
:1031A00077FF04C0EE24FF24E61AF70A5B0139E139
:1031B000A31A3CEFB30A8091B7019091B8019B012B
:1031C0002D593F4F69012A5531094901B701892B12
:1031D00009F0E6C0CE0101960E949B1367E473E0FC
:1031E000CE0107960E941414BE016F5F7F4FCE017F
:1031F00007960E94321367E473E00E941C13BC011F
:103200008CE096E00E94F413CE0107960E9489128A
:10321000CE0101960E9489123FECA31637E0B30657
:1032200080F5B701CE0101960E949B136091B90110
:103230007091BA01CE010D960E948515BE01635FA3
:103240007F4FCE0107960E940B14BE016F5F7F4F28
:10325000CE0107960E94321367E473E00E941C13AC
:10326000BC018CE096E00E94F413CE0107960E9408
:103270008912CE010D960E948912CE0101960E94FC
:10328000891287ECC816D104A0F5B701CE010196CA
:103290000E949B136091B9017091BA01CE0107960B
:1032A0000E94851567E473E0CE010D960E94141408
:1032B000BE01695F7F4FCE010D960E943213BE01A1
:1032C0006F5F7F4F0E94321367E473E00E941C130C
:1032D000BC018CE096E00E94F413CE010D960E9492
:1032E0008912CE0107960E948912CE0101960E9492
:1032F000891223E182169104A0F5B701CE0101964F
:103300000E949B136091B9017091BA01CE0107969A
:103310000E94851566E473E0CE010D960E94141498
:10332000BE01695F7F4FCE010D960E943213BE0130
:103330006F5F7F4F0E94321367E473E00E941C139B
:10334000BC018CE096E00E94F413CE010D960E9421
:103350008912CE0107960E948912CE0101960E9421
:1033600089126FE373E0CE0101960E9414146CE0A1
:1033700076E0CE0101960E94321366E473E00E946B
:103380001C13BC018CE096E00E94F413CE01019660
:103390000E948912BBCEC701B6010E948332FDCEC6
:1033A000CE0101960E949B1367E473E0CE0107965D
:1033B0000E941414BE016F5F7F4FCE0107960E94DA
:1033C000321367E473E00E941C13BC018CE096E0AA
:1033D0000E94F413CE0107960E948912CE01019635
:1033E0000E9489123FECA31637E0B306A0F5609166
:1033F000B9017091BA01CE0101960E948515C701ED
:103400006AE070E00E94A933CE0107960E949B13E8
:1034100066E473E0CE010D960E941414BE01695F4C
:103420007F4FCE010D960E943213BE016F5F7F4F1A
:103430000E943213BC018CE096E00E94F413CE018E
:103440000D960E948912CE0107960E948912CE0124
:1034500001960E94891287ECC816D104A0F56091EC
:10346000B9017091BA01CE0101960E948515C7017C
:103470006AE070E00E94A933CE0107960E949B1378
:1034800065E473E0CE010D960E941414BE01695FDD
:103490007F4FCE010D960E943213BE016F5F7F4FAA
:1034A0000E943213BC018CE096E00E94F413CE011E
:1034B0000D960E948912CE0107960E948912CE01B4
:1034C00001960E94891223E18216910408F049CFE7
:1034D0006091B9017091BA01CE0101960E948515E3
:1034E000C7016AE070E00E94A933CE0107960E94EE
:1034F0009B1364E473E0CE010D960E941414BE0188
:10350000695F7F4FCE010D960E943213BE016F5F3F
:103510007F4F0E94321314CF85ED8093BC008091C1
:10352000E3059091E405A091E505B091E6050796C5
:10353000A11DB11D23E0B695A795979587952A956E
:10354000D1F72091BC0024FD03C01092E10508953D
:103550004091E3055091E4056091E5057091E60521
:10356000452B462B472B69F30097A105B10541F088
:1035700025E32A95F1F700000197A109B109E1CFF0
:103580008091E2050C9417091F920F920FB60F92CB
:1035900011242F933F934F935F936F937F938F9358
:1035A0009F93AF93BF93EF93FF9384E396E00E94C2
:1035B0000502FF91EF91BF91AF919F918F917F9104
:1035C0006F915F914F913F912F910F900FBE0F9090
:1035D0001F9018951F920F920FB60F9211242F93E0
:1035E0008F939F93EF93FF93E0914406F0914506EC
:1035F0008081E0914A06F0914B0682FD1BC09081CC
:1036000080914D068F5F8F7320914E06821741F097
:10361000E0914D06F0E0EC5CF94F958F80934D06FC
:10362000FF91EF919F918F912F910F900FBE0F906F
:103630001F9018958081F4CF1F920F920FB60F92B2
:1036400011242F933F938F939F93AF93BF938091B8
:10365000D3049091D404A091D504B091D6043091B4
:10366000D20423E0230F2D3758F50196A11DB11D7B
:103670002093D2048093D3049093D404A093D504D0
:10368000B093D6048091D7049091D804A091D90426
:10369000B091DA040196A11DB11D8093D7049093D7
:1036A000D804A093D904B093DA04BF91AF919F914D
:1036B0008F913F912F910F900FBE0F901F901895F3
:1036C00026E8230F0296A11DB11DD2CF1F920F92A3
:1036D0000FB60F9211242F933F938F939F93AF9325
:1036E000BF93EF93FF938091260690912706A091B8
:1036F0002806B09129060097A105B10531F1309156
:10370000DF04E091E004F091E1042081232720838D
:10371000181619061A061B061CF40197A109B1090F
:103720008093260690932706A0932806B093290637
:10373000FF91EF91BF91AF919F918F913F912F9109
:103740000F900FBE0F901F901895209170002D7F45
:10375000209370002091DF04E091E004F091E104F7
:103760003081209523232083DBCF1F920F920FB649
:103770000F9211248F939F93AF93BF93EF93FF9377
:1037800080912A0690912B06A0912C06B0912D06CF
:10379000892B8A2B8B2BA1F19091E204E091E30419
:1037A000F091E40480818927808380912A0690919A
:1037B0002B06A0912C06B0912D06181619061A0694
:1037C0001B069CF480912A0690912B06A0912C0652
:1037D000B0912D060197A109B10980932A06909313
:1037E0002B06A0932C06B0932D06FF91EF91BF916D
:1037F000AF919F918F910F900FBE0F901F901895D2
:1038000080916F008D7F80936F008091E204E09142
:10381000E304F091E4049081809589238083E5CFCF
:103820001F920F920FB60F9211248F939F93AF9315
:10383000BF93EF93FF9380912E0690912F06A09156
:103840003006B0913106892B8A2B8B2BA1F19091F8
:10385000E504E091E604F091E70480818927808304
:1038600080912E0690912F06A0913006B0913106DE
:10387000181619061A061B069CF480912E069091C4
:103880002F06A0913006B09131060197A109B10928
:1038900080932E0690932F06A0933006B0933106A6
:1038A000FF91EF91BF91AF919F918F910F900FBEBC
:1038B0000F901F90189580916E008D7F80936E0001
:1038C0008091E504E091E604F091E7049081809511
:1038D00089238083E5CF1F920F920FB60F92112498
:1038E0002F933F934F935F936F937F938F939F9308
:1038F000AF93BF93EF93FF938091B900887F803699
:1039000009F44AC0F0F5883209F4A7C018F58031EF
:1039100009F49BC0B8F4882309F4F9C0883009F48D
:1039200094C0FF91EF91BF91AF919F918F917F9143
:103930006F915F914F913F912F910F900FBE0F901C
:103940001F901895883109F488C0803251F7809310
:10395000DF0514C0803409F49DC040F48033B9F30E
:103960008833F9F68093DF0585ECB0C0803509F423
:1039700085C0883509F496C0883499F60E948C1A5F
:10398000D0CF883909F48CC038F5883729F050F445
:10399000883611F0803729F683E08093E105109294
:1039A000B80457C0883809F47BC0803919F08038D2
:1039B00009F0B7CF8091B804803208F071C0E0916F
:1039C000B80481E08E0F8093B8048091BB00F0E0D2
:1039D000E856FB4F80833DC0803B39F0E0F4803AED
:1039E00009F479C0883A09F09CCF84E08093E1051E
:1039F0001092970410929604E091DD04F091DE0499
:103A000009958091960481110FC081E080939604FE
:103A10001092760409C0803C09F4A6CF883C09F4D2
:103A2000A3CF883B09F07DCFE091970481E08E0F12
:103A300080939704F0E0EA58FB4F80818093BB00AD
:103A4000909197048091960429C08091BC05809341
:103A5000BB0085EC8093BC0064CF9091DE05809123
:103A6000DD05981758F5E091DE0581E08E0F809313
:103A7000DE05F0E0E354FA4F8081E9CFE091DE0506
:103A800081E08E0F8093DE058091BB00F0E0E3546F
:103A9000FA4F80839091DE058091DD059817C8F27A
:103AA00085E8D8CFE091DE0581E08E0F8093DE05BA
:103AB0008091BB00F0E0E354FA4F80838091E005F1
:103AC00081115CCF81E08093BB0584EA8093BC00C8
:103AD0001092E10526CF85EC8093BC001092E105A1
:103AE0008091B804803230F4E091B804F0E0E856F8
:103AF000FB4F10826091B80470E0E091DB04F0911C
:103B0000DC0488E994E009951092B8040ACF109279
:103B1000DF0534CFCF93DF93EC01862F6F87188AB0
:103B200091E0998B9A8B1C8A1B8A198218821A82BF
:103B30001D8A1E8A1F8A188E44E150E060E070E002
:103B40004B835C836D837E834AEF50E060E070E0DE
:103B50004F83588769877A8748EE53E060E070E0CA
:103B60004B875C876D877E8760E00E942F03888982
:103B7000811106C061E08F85DF91CF910C94010324
:103B8000DF91CF910895E4E3F6E01382128288EE8C
:103B900093E0A0E0B0E084839583A683B7832DE112
:103BA00033E03183208325EC30E03587248724EC13
:103BB00030E03787268720EC30E0318B208B21ECFA
:103BC00030E0338B228B22EC30E0358B248B26ECDB
:103BD00030E0378B268B118E128E138E148EE1ED12
:103BE000F6E01382128284839583A683B7838FE2E3
:103BF00093E09183808369E473E086E497E00E9418
:103C0000141460E081E10E942F03EBE0F1E0E49105
:103C1000A8E3B7E0EC93E7EFF0E0E491F0E0EE0F1B
:103C2000FF1FE452FF4F8591949112969C938E93BF
:103C300011971B961C921B971D961C921D971C9604
:103C40001C921C971A961C921A9719961C921997F7
:103C500018961C92189717961C92179716961C92F6
:103C6000169715961C92159714961C9214971396F6
:103C70001C926FE373E082E397E00E94141462E405
:103C800073E08CE297E00E9414146EE083E197E009
:103C90000E948A1D60E18AEF96E00E948A1D6FE013
:103CA00081EE96E00E948A1DA091BB01B091BC01FB
:103CB00020E63AEE0E9404346093DD067093DE063F
:103CC0008093DF069093E0060895CF93DF93CDB7FE
:103CD000DEB7C656D1090FB6F894DEBF0FBECDBF12
:103CE000789484B5826084BD84B5816084BD85B5D7
:103CF000826085BD85B5816085BD80916E008160E3
:103D000080936E0010928100809181008260809388
:103D1000810080918100816080938100809180008A
:103D20008160809380008091B10084608093B100B5
:103D30008091B00081608093B00080917A008460AF
:103D400080937A0080917A00826080937A008091DB
:103D50007A00816080937A0080917A0080688093F5
:103D60007A001092C10061E085E00E942F0360E0BC
:103D700085E00E9401031092EC041092EB04109273
:103D8000E80510920A060E94F90884E891E09093F1
:103D9000DE048093DD0485E891E09093DC04809359
:103DA000DB04E0914406F091450682E08083E091D7
:103DB0004006F09141061082E0914206F0914306E0
:103DC00080E1808310924C06E0914806F09149060C
:103DD00086E08083E0914606F0914706808180610D
:103DE0008083E0914606F091470680818860808359
:103DF000E0914606F0914706808180688083E091DB
:103E00004606F091470680818F7D808383E398E0AA
:103E100090934B0180934A0181EE97E090931D01AE
:103E200080931C019093AC018093AB0180EF90E0F4
:103E300090937E0180937D0181E090E00E94540F79
:103E40008C3009F4FDC388E190E09093B601809333
:103E5000B50190E080E00E94540F882309F4F3C379
:103E600081E08093620182E090E00E94540F8F3FD6
:103E700009F0ECC31092AE011092AD0183E090E026
:103E80000E94540F8F3F09F0E7C31092B0011092C7
:103E9000AF0184E090E00E94540F8F3F09F0E2C32D
:103EA0001092B2011092B10186E090E00E94540F8E
:103EB0008F3F09F0DDC31092B4011092B30187E087
:103EC00090E00E94540F8F3F09F0D8C310927A05FA
:103ED0008BE090E00E94540F8F3F09F0D6C3109200
:103EE000B8011092B7018CE090E00E941C326096FD
:103EF0008FAF60978DE090E00E941C3261968FAF8B
:103F0000619761968EAD9FAD61978F3F910509F0E6
:103F1000C2C31092BA011092B9018EE090E00E94E3
:103F2000540F8F3F29F090E09093BC018093BB0128
:103F30008FE090E00E94540F8F3F29F090E0909323
:103F4000BE018093BD0180E190E00E94540F8F3F3D
:103F500029F090E09093C0018093BF0161E089E077
:103F60000E942F0361E086E00E942F0361E083E05E
:103F70000E942F038091E804833008F000C492E08F
:103F800090933206E82FF0E0EC56FF4FE491E09377
:103F900033068F5F8093E804E13009F4A2C308F48C
:103FA0007FC3E23009F4C4C3809102019091030100
:103FB0000E944F0D909303018093020161E08AE01B
:103FC0000E942F0361E088E00E942F0360E088E0F8
:103FD0000E94010362E088E00E942F0388E00E94B3
:103FE000D80221E0892B09F020E02093EA041FB7D2
:103FF000F8948091E904811127C0E0EFF0E084910A
:10400000E4E0F1E09491E82FF0E0EE0FFF1FE956B5
:10401000FF4FA591B491EC91E92321F461E08AE08E
:104020000E94010361E08AE00E942F038CB5806149
:104030008CBD8CB580648CBD61E08DE00E942F0347
:1040400061E08BE00E942F038091E9048F5F8093F1
:10405000E9041FBF8091EA04882309F494C389E727
:1040600091E00E94810162E08EE00E942F0362E0F5
:1040700080E10E942F0362E08FE00E942F0361E045
:1040800082E00E942F0304E110E020E030E0009382
:1040900016071093170720931807309319074EE15E
:1040A00050E060E070E040931A0750931B07609364
:1040B0001C0770931D0780ED97E0A0E0B0E08093AF
:1040C0001E0790931F07A0932007B093210700932A
:1040D000FD061093FE062093FF06309300074093E1
:1040E00001075093020760930307709304078093BE
:1040F000050790930607A0930707B093080700935E
:10410000E4061093E5062093E6063093E706409315
:10411000E8065093E9066093EA067093EB068093F5
:10412000EC069093ED06A093EE06B093EF06E090B8
:104130004507E11004C00E94B300811126C310920C
:1041400043071092450710924407109242071092BD
:1041500041071092400710923F0710923E071092BD
:104160003D0710923C0710923B0780910B06882375
:1041700021F10E94B30085E50E941C0109EF14E0C3
:1041800091E0E92E95E0F92EF80181918F010E94CE
:104190001C01E016F106C1F78EEB0E941C010DEE2A
:1041A00014E086EFE82E84E0F82E0E946B01F801FF
:1041B00081938F01EE16FF06C1F78AEB90E00E9413
:1041C000740225E030E042E050E066E477E0CE01A2
:1041D00001963C010E94251422E030E041E050E0CD
:1041E00066E477E0CE01875B9F4F0E942514BE01F5
:1041F000675B7F4FCE018D5B9F4F0E940B1460E584
:1042000073E0CE018D5B9F4F0E941C13B3010E948F
:104210003213FC01448155816081718184E396E011
:104220000E9487018DE393E00E94590ECE018D5BC1
:104230009F4F0E948912CE01875B9F4F0E94891277
:10424000C3010E94891282E593E00E94590E8DE31A
:1042500093E00E94590E80914C0790914D07009772
:1042600011F480E597E09301281B390BC9010E94E6
:10427000CD0E809102019091030190938D05809362
:104280008C050E944F0D6FEF70E089E00E943105B0
:1042900068EE73E080E090E00E94B30570E060E0BB
:1042A00089E00E9431056FEF70E086E00E943105E1
:1042B00068EE73E080E090E00E94B30570E060E09B
:1042C00086E00E9431056FEF70E083E00E943105C7
:1042D00068EE73E080E090E00E94B30560E473E074
:1042E000C3010E94141463E773E0CE0107960E9495
:1042F00014146CE773E0CE010D960E94141465E867
:1043000073E0CE0143960E9414146EE873E0CE0170
:1043100049960E94141467E973E0CE014F960E94FB
:10432000141460EA73E0CE0185960E94141469EAC1
:1043300073E0CE018B960E94141462EB73E0CE0101
:10434000C1960E9414146BEB73E0CE01C7960E94D5
:1043500014146FE373E0CE01CD960E94141466E44A
:1043600077E0CE018D5B9F4F0E940B1466E473E0F3
:10437000CE018D5B9F4F0E941C13BC01CE01CD96D8
:104380000E94F413CE018D5B9F4F0E9489120E9400
:10439000E5056B017C0138EEC30E33E0D31EE11C52
:1043A000F11C00E01FEFA4EFAA2EBB24B394B6E0EB
:1043B0009B2E8FE00E94D802892B09F401E080E156
:1043C0000E94D802892B09F400E00E94E5056C19CF
:1043D0007D098E099F0995010B2C000C440B550B90
:1043E000261737074807590708F03EC20E94E5051F
:1043F0006B017C01011101C01F5F1A3009F427C253
:104400001B3009F028C281E08093E70588E680939D
:1044100009061092E80510920A0661E181ED96E026
:104420000E94450B0E94380962E088E60E941F0A3C
:104430001092EC048093EB0481ED96E00E94FE0A5A
:10444000182F80EB90E00E947402812F012E000C47
:10445000990B0E94CD0E15501833B8F081EA90E008
:104460000E94660E05E010E048EE53E060E070E068
:1044700088EE93E00E946B0360ED77E080E090E0CF
:104480000E94B3050150110979F78E010D5B1F4F92
:1044900006501109C8010E94891260167106C1F701
:1044A0000E94D80D00919205109193050E94E50598
:1044B0006B017C0181E080939A0511278091920520
:1044C000909193050817190779F40E94D80D0E945E
:1044D000E5056C197D098E099F09693B7B408105C3
:1044E000910560F310929A0580909805F0909905D7
:1044F0009090960510919705A090940530919505A0
:10450000B090920550919305C090900570919105DF
:10451000D0908E05E82C092D2A2D4B2D6C2D8D2D3C
:1045200090918F050E94160660E085E00E940103CD
:104530002A2D4B2D6C2D8D2D0E94740B61E085E092
:104540000E940103E4E62E2E312C9E012F5F3F4F87
:1045500029010E94E50520E63AEE40E050E00E9485
:10456000BD33672B682B692B01F580919A05882351
:10457000E1F00E94D80DE0909805F0909905009127
:1045800096051091970520919405309195054091DD
:1045900092055091930560919005709191058091DD
:1045A0008E0590918F050E94160600918C05109142
:1045B0008D05F8018081882309F421C20E94E50558
:1045C000C0900D05D0900E05E0900F05F0901005FD
:1045D0006C197D098E099F09C0900905D0900A05C4
:1045E000E0900B05F0900C05C616D706E806F90614
:1045F00008F005C20E94E5054B015C0180920D05A3
:1046000090920E05A0920F05B0921005680130E05F
:1046100020E04AE0F801F1908F0180ED8F0D8A30A3
:1046200008F025C1429FC001439F900D11242F2DFA
:10463000FF0C330B20533109280F391F6F01EACFCC
:104640008CE090E002CC109262010DCC90E090934F
:10465000AE018093AD0112CC90E09093B0018093B5
:10466000AF0117CC90E09093B2018093B1011CCCC4
:1046700090E09093B4018093B30121CC91E081113B
:1046800001C090E090937A0523CC90E09093B8011C
:104690008093B70128CC9093BA018093B9013DCCA7
:1046A00014BC15BC84B5826084BD85B5816085BDB0
:1046B0008091320690E0FC01EA51FF4FE491F0E076
:1046C000EE0FFF1FE657FF4F259134913093E7041B
:1046D0002093E604FC01E650FF4FE491E093E504EB
:1046E00063CC1092800010928100809181008860DC
:1046F000809381008091810081608093810080910E
:10470000320690E0FC01EA51FF4FE491F0E0EE0F39
:10471000FF1FE657FF4F259134913093E404209317
:10472000E304FC01E650FF4FE491E093E2043CCC4B
:104730001092B0001092B1008091B000826080931E
:10474000B0008091B10081608093B1008091320609
:1047500090E0FC01EA51FF4FE491F0E0EE0FFF1F03
:10476000E657FF4F259134913093E1042093E00404
:10477000FC01E650FF4FE491E093DF0415CC8FEF8E
:104780008093330611CC89E56BCC80EF0E941C012D
:10479000D12CFF24F39401E00E944601182F0E94BF
:1047A00046011130F9F48130E1F5013408F4C7CC49
:1047B000E0924307E11003C081E0809345078091B8
:1047C0003B07882309F4BBCCABE3B7E0E9EFF4E0A7
:1047D0008D91819335E0E130F307D1F781E080934B
:1047E0000B06C3CCED2DF0E0181311C080914307E8
:1047F0000817A8F4DF01A85CB84F13968C918F219D
:1048000081F410E0093010F400934407E02EE85CD6
:10481000F84F83819F2D9095892383830AC080134D
:10482000F0CFED2DF0E0E85CF84F83818F29838392
:1048300011E0812F0E94EC000F5FFF0C19F4D3945C
:10484000FF24F39427E02D1508F0A6CFAECFF8EBA8
:10485000AF2EFBE0BF2EB301199D600D711D112419
:104860008CE297E00E94F4130E94610FA2CD309376
:104870000805209307056091030570910405809158
:104880000505909106052115310501F1032E000C57
:10489000440B550B0E94DF332093090530930A0522
:1048A00040930B0550930C05EFE9EF0DE730A0F4B2
:1048B0000E2E000CFF0BE15AFB4D0C94FE33E72744
:1048C000E927DB27DF27E127E327E527209161019F
:1048D00030E050E040E0DECF10920205F601818129
:1048E000833241F4809102058F5F80930205860137
:1048F0000E5F1F4FF80180818E32F1F4C0900905E0
:10490000D0900A05E0900B05F0900C05C701B601A8
:1049100022E030E040E050E00E94DF33C20ED31EC0
:10492000E41EF51EC0920905D0920A05E0920B051F
:10493000F0920C050F5F1F4FF801808180538A3081
:1049400008F049C3809301050F5F1F4FF801808174
:104950008C3211F40F5F1F4FE0910205EE2309F432
:104960004EC0C0900905D0900A05E0900B05F0906C
:104970000C05809101058450990B4CE0489F9001F3
:10498000499F300D1124E20FF32FF11DEE0FFF1F91
:10499000E75FFD4FB701A601808191810E946B0303
:1049A0000E94E505681979098A099B09C616D70688
:1049B000E806F90620F50E94E50560930D05709361
:1049C0000E0580930F05909310058091330681307A
:1049D00009F406C3823009F409C3811105C080912E
:1049E0006E008D7F80936E0060E0809132060E94A1
:1049F000010385EC90E00E94660E10E000E0109349
:104A00008D0500938C050E94E505009188051091A5
:104A1000890520918A0530918B05601B710B820BF3
:104A2000930B663071058105910520F1809162013B
:104A3000882339F08091BF019091C001009709F05F
:104A4000DBC270E060E089E00E94310570E060E068
:104A500086E00E94310570E060E083E00E9431054D
:104A60000E94E505609388057093890580938A0507
:104A700090938B058091860590918705892B21F075
:104A8000809185058111ECC1809184058111E8C177
:104A90008091BB019091BC01892B09F4E1C1809107
:104AA000270581110DC00E94E505609323057093D1
:104AB0002405809325059093260581E080932705A2
:104AC00080911B0581110DC00E94E50560931705BB
:104AD000709318058093190590931A0581E08093CF
:104AE0001B050E94E50500912305109124052091E6
:104AF000250530912605601B710B820B930B0091ED
:104B0000DD061091DE062091DF063091E0060617E3
:104B100017072807390708F04AC00E94E505609387
:104B200023057093240580932505909326054091D5
:104B300015055091160581E090E04115510531F0C1
:104B40004130510509F00DC384E090E09093870552
:104B5000809386056091BD017091BE0128EE33E01F
:104B6000629FC001639F900D729F900D1124092ECA
:104B7000000CAA0BBB0B8093DD069093DE06A0937E
:104B8000DF06B093E0064F5F5F4F433051050CF0F6
:104B900001C3509316054093150580918505882320
:104BA00021F01092870510928605109285050E94CB
:104BB000E5050091230510912405209125053091EC
:104BC0002605601B710B820B930B603D77408105BE
:104BD000910508F0E4C20E94E505009117051091C7
:104BE00018052091190530911A05601B710B820B75
:104BF000930B653671058105910508F431C10E945A
:104C0000E505609317057093180580931905909337
:104C10001A058091860590918705892B89F5CE012B
:104C20008D5B9F4F0E94501781E02091B70130911A
:104C3000B801232B09F480E00E94B10CAB01BC0148
:104C4000C3010E944918AE014D5B5F4FB301CE0115
:104C5000875B9F4F0E947114BE01675B7F4F8CE2A0
:104C600097E00E943E12CE01875B9F4F0E948912FF
:104C7000C3010E948912CE018D5B9F4F0E94891251
:104C80008091860590918705019709F06BC00E947D
:104C9000310868EE73E00E94A933BC01CE018B5A43
:104CA0009F4F0E9485150E943B08BC01CE01815B8D
:104CB0009F4F0E9485150E944308BC01CE018D5B69
:104CC0009F4F0E948515BE016D5B7F4FCE01875BB4
:104CD0009F4F0E940B14BE01615B7F4FCE01875B2B
:104CE0009F4F0E943213BE016B5A7F4F0E943213B6
:104CF000BC01CE01855A9F4F0E940B14C3010E9434
:104D00005017AE01455A5F4FB301CE018F599F4FE7
:104D10000E947114BE016F597F4F8CE297E00E9490
:104D20003E12CE018F599F4F0E948912C3010E94EB
:104D30008912CE01855A9F4F0E948912CE01875B4E
:104D40009F4F0E948912CE018D5B9F4F0E94891256
:104D5000CE01815B9F4F0E948912CE018B5A9F4FDB
:104D60000E9489128091860590918705049709F029
:104D700077C081E02091B7013091B801232B09F46D
:104D800080E00E94B10CAB01BC01CE01855A9F4F5F
:104D90000E9449180E94310868EE73E00E94A9330E
:104DA000BC01CE01815B9F4F0E9485150E943B088C
:104DB000BC01CE01875B9F4F0E9485150E9443086E
:104DC000BC01C2010E948515B201CE018D5B9F4FCF
:104DD0000E940B14BE01675B7F4FCE018D5B9F4F1E
:104DE0000E943213BE01615B7F4F0E943213BC01EF
:104DF000CE018B5A9F4F0E940B14AE01455A5F4F54
:104E0000BE016B5A7F4FCE018F599F4F0E94711484
:104E1000BE016F597F4F8CE297E00E943E12CE0197
:104E20008F599F4F0E948912CE018B5A9F4F0E942B
:104E30008912CE018D5B9F4F0E948912C2010E9490
:104E40008912CE01875B9F4F0E948912CE01815B40
:104E50009F4F0E948912CE01855A9F4F0E9489124E
:104E60000E94610F83E197E00E9463088AEF96E059
:104E70000E94630881EE96E00E9463088091840599
:104E8000811190C1109283051092820580911307C1
:104E900090911407181619060CF0A5C281E08093B2
:104EA000850510928D0510928C0544E650E060E077
:104EB00070E088EE93E00E946B030E94E50560932A
:104EC0007E0570937F058093800590938105809186
:104ED00086059091870501968730910509F492C166
:104EE00090938705809386052091860530918705EC
:104EF000F901EE0FFF1FEB59FE4F808191819093D6
:104F000083058093820521503109F901EE0FFF1FBF
:104F1000E354FD4F408151814115510509F44FC2C1
:104F2000CA010197FC01EE0FFF1FE157FD4F6081A1
:104F300071812617370709F042C24230510509F046
:104F400066C128E1E1EDF1E0D30101900D922A95CF
:104F5000E1F72091AB013091AC0123703327232B73
:104F600021F42DE130E03C832B83E091A701F09107
:104F7000A8013197EE0FFF1FE60DF71D4091A90123
:104F80005091AA0120813181241735070CF03FC1CF
:104F90008AE090E0909387058093860580E090E01A
:104FA000892B09F4D6CA0E94F101882309F4CACAE0
:104FB0000E940000C7CA81E0809302058FCC83E085
:104FC000FBCF85E0F9CF86E0F7CF88E0F5CF8AE028
:104FD000F3CF8CE0F1CF8091600180930105B6CCD6
:104FE00080916F008D7F80936F00FECC8091700068
:104FF0008D7F80937000F8CC209169052111A4C0A9
:105000009C012F5F3F4F4091630150916401249FA9
:10501000C001259F900D349F900D1124B1010E9475
:10502000A93389E00E9431052091BF013091C00170
:105030002F5F3F4F4091710550917205249FC00131
:10504000259F900D349F900D1124B1010E94A9332A
:1050500086E00E9431052091BF013091C0012F5F91
:105060003F4F40916F0550917005249FC001259FCF
:10507000900D349F900D1124B1010E94A93383E05B
:105080000E94310580917A058111EACC20911305A7
:1050900030911405C901880F991F820F931FFC01DD
:1050A000EE0FFF1FE559FD4F4091630150916401E0
:1050B00060817181460F571F5093640140936301D3
:1050C000FC01EE0FFF1FE359FD4F40917105509118
:1050D000720560817181460F571F5093720540938E
:1050E0007105880F991FFC01E159FD4F80916F05F3
:1050F0009091700540815181840F951F90937005A8
:1051000080936F05809111059091120501969093FF
:105110001205809311058F3F910551F42F5F3F4F8A
:105120003093140520931305109212051092110567
:10513000809113059091140506970CF491CC109270
:105140001405109213058CCC70E060E089E00E9499
:10515000310570E060E086E00E94310570E060E0BB
:105160008ECF4230510509F00ECD10928705109276
:105170008605A091BB01B091BC0120E63AEE0E94E9
:1051800004346093DD067093DE068093DF0690930F
:10519000E006F9CC1092160510921505FECC10927F
:1051A00068055ECE0E94E50500917E0510917F05A1
:1051B0002091800530918105601B710B820B930B50
:1051C00061367A4E8105910508F460CE109284050F
:1051D000E0918605F0918705EE0FFF1FE551FD4F29
:1051E000808191819093870580938605880F991F10
:1051F000FC01EB59FE4F8081918190938305809350
:10520000820544CE10928705109286056DCE1092CD
:1052100084059093870580938605892BB9F40E94B5
:1052200031087C010E943B088C010E944308409198
:10523000A5015091A6016091A3017091A4019C0168
:105240008091A1019091A2010E941606809186058D
:10525000909187050197C9F4E090AB01F090AC0103
:105260000091A7011091A8018090A9019090AA0136
:105270000E944B085C010E9453086C010E945B086D
:105280009401A501B6010E941606809186059091B1
:1052900087050297C1F46091AD0182E090E00E9421
:1052A000520F6091AF0183E090E00E94520F609135
:1052B000B10184E090E00E94520F6091B30186E05A
:1052C00090E00E94520F8091860590918705039788
:1052D00031F46091B50181E090E00E94520F80911D
:1052E000860590918705049731F46091B7018BE0B2
:1052F00090E00E94520F8091860590918705049757
:10530000D1F41091B9018CE090E00E941C32811719
:1053100029F0612F8CE090E00E9424321091BA01B4
:105320008DE090E00E941C32181729F0612F8DE06B
:1053300090E00E9424328091860590918705059720
:1053400061F46091BB018EE090E00E94520F609189
:10535000BD018FE090E00E94520F809186059091F0
:105360008705069731F46091BF0180E190E00E94CB
:10537000520F60E085E00E9401030E9431087C0129
:105380000E943B08082F0E944308C82E0E944B0829
:10539000D82E0E945308182F0E945B08382FC7018F
:1053A00068EE73E00E94A933E82E2C2D4D2D612F5D
:1053B000832F0E94740B61E085E00E94010300913D
:1053C0008605109187050331110569F080918205EA
:1053D000909183050E941E15000F111FF801ED56D4
:1053E000FE4F91838083809113079091140797FF5C
:1053F00097C044E650E060E070E088EE93E00E94E1
:105400006B0380918405811155C000918605109130
:1054100087050E94E50560937E0570937F05809364
:10542000800590938105012B09F044C00E944B0830
:10543000BC01C3010E9485150E945308BC01CE0126
:105440008D5B9F4F0E9485150E945B08BC01CE01B9
:10545000815B9F4F0E948515BE01615B7F4FCE012E
:10546000875B9F4F0E940B14BE016D5B7F4FCE0187
:10547000875B9F4F0E943213B3010E94321366E490
:1054800073E00E941C13BC018CE297E00E94F413AD
:10549000CE01875B9F4F0E948912CE01815B9F4F97
:1054A0000E948912CE018D5B9F4F0E948912C30119
:1054B0000E948912E0918605F0918705EE0FFF1F8B
:1054C000E551FD4F2081318130938705209386057A
:1054D0002D30310549F481E090E09093B401809340
:1054E000B30180E880937D058091840591E0892750
:1054F000809384058901000F111FF801EB59FE4FBD
:1055000080819181909383058093820522313105BA
:1055100039F00E941E15F801ED56FE4F91838083ED
:105520008091FA069091FB06009719F190937C0503
:1055300080937B0518161906E4F481E080938505B5
:1055400010928D0510928C0544E650E060E070E00A
:1055500088EE93E00E946B030E94F416809184050C
:10556000811107C010927A0560E087E090E00E9408
:10557000520F80917B0590917C05019609F001C145
:105580008091FC06882309F4FCC010927905809173
:1055900084058823F9F00E94E505009175051091B6
:1055A00076052091770530917805601B710B820B91
:1055B000930B673971058105910560F00E94E5053F
:1055C00060937505709376058093770590937805C1
:1055D0000E94F4168091E1069091E2060097A9F1ED
:1055E00090937405809373051816190674F511E0ED
:1055F0001093850510928D0510928C0544E650E0BD
:1056000060E070E088EE93E00E946B030E949816C1
:1056100080918405811119C010937A0561E087E0BB
:1056200090E00E94520F6091630188E090E00E9438
:10563000520F6091710589E090E00E94520F6091D5
:105640006F058AE090E00E94520F8091730590915F
:105650007405019609F099C08091E306882309F446
:1056600094C08091840510926E05882321F10E94D8
:10567000E50500916A0510916B0520916C0530914C
:105680006D05601B710B820B930B673971058105EA
:10569000910508F453C00E94E50560936A05709374
:1056A0006B0580936C0590936D050E949816809110
:1056B0008405811143C08091FA069091FB0697FF03
:1056C00028C044E650E060E070E088EE93E00E947D
:1056D0006B0381E08093620161E090E080E00E94D2
:1056E000520F88E090E00E94540F682F89E00E94DA
:1056F000010389E090E00E94540F682F86E00E9429
:1057000001038AE090E00E94540F682F83E00E941A
:1057100001038091E1069091E20697FF0FC044E6F5
:1057200050E060E070E088EE93E00E946B0310921E
:10573000620160E090E080E00E94520FE0918605F7
:10574000F0918705E731F10508F028CCE655F44DD6
:105750000C94FE33C92B412C182D6B2D992D1F2E27
:10576000DC2ECE27CE27CE27CE27CE27CE27CE277C
:10577000CE27CE27CE27CE27992DE22D1F2E1F2EE6
:10578000DC2E81E08093790525CF81E080936E0542
:105790008ECF1092690580916805811129C00E9401
:1057A000E50500912F0510913005209131053091CC
:1057B0003205601B710B820B930B633371058105FE
:1057C000910508F44FC00E94E50560932F05709382
:1057D00030058093310590933205C2010E94501725
:1057E000B2018CE297E00E943E12C2010E9489122F
:1057F0008091380581110DC00E94E5056093340544
:1058000070933505809336059093370581E080933A
:1058100038050E94E5050091340510913505209169
:10582000360530913705601B710B820B930B693E77
:10583000734081059105F0F00E94E5056093340501
:105840007093350580933605909337058091330525
:1058500091E0892780933305882351F080EC809371
:105860007D0508C06CE277E0C2010E940B14B8CF3E
:1058700010927D050E94740E1092670510926605C5
:105880008DCB809168058111D1C080915205811125
:105890000DC00E94E50560934E0570934F058093FF
:1058A00050059093510581E0809352058091460503
:1058B000811143C00E943108BC01C2010E948515BC
:1058C0000E944308BC01CE018D5B9F4F0E9485154D
:1058D0000E943B08BC01CE01815B9F4F0E94851551
:1058E000BE01615B7F4FCE01875B9F4F0E940B140F
:1058F000BE016D5B7F4FCE01875B9F4F0E943213CD
:10590000B2010E943213BC0180E495E00E940B14A6
:1059100081E080934605CE01875B9F4F0E948912EC
:10592000CE01815B9F4F0E948912CE018D5B9F4FFC
:105930000E948912C2010E9489120E94E50500910D
:105940004E0510914F052091500530915105601B77
:10595000710B820B930B693E73408105910508F42E
:1059600058C00E94E50560934E0570934F058093E3
:105970005005909351050E9431087C010E94430814
:10598000BC01CE018D5B9F4F0E9485150E943B0894
:10599000BC01CE01815B9F4F0E948515BE01615BFA
:1059A0007F4FCE01875B9F4F0E940B14BE016D5B42
:1059B0007F4FCE01875B9F4F0E9432138C014AE0DC
:1059C000B201C7010E948C30F20101900020E9F77A
:1059D0003197AF0144195509B201C8010E94B912AB
:1059E000811103C0C8010E947712B80180E495E0DC
:1059F0000E94F413CE01875B9F4F0E948912CE0153
:105A0000815B9F4F0E948912CE018D5B9F4F0E9448
:105A1000891260E475E0C2010E940B14B2018CE2AD
:105A200097E00E943E12C2010E94891280E817CFBF
:105A30006091B1017091B201C3010E94851560911E
:105A4000AF017091B001CE018D5B9F4F0E94851513
:105A50006091AD017091AE01CE01815B9F4F0E94BC
:105A60008515BE01615B7F4FCE01875B9F4F0E9412
:105A70000B14BE016D5B7F4FCE01875B9F4F0E9471
:105A80003213B3010E94321366E473E00E941C13C8
:105A9000BC018CE297E00E94F413CE01875B9F4F1C
:105AA0000E948912CE01815B9F4F0E948912CE0114
:105AB0008D5B9F4F0E948912C3010E9489128091C1
:105AC000B3019091B401019789F580E880937D0539
:105AD0000E94740E63CA6091B5017091B601C30152
