:100000000C94F8000C9420010C9420010C94200115
:100010000C9420010C9420010C9420010C942A06CD
:100020000C9420010C9420010C9420010C94850662
:100030000C9420010C9420010C94EA060C942001ED
:100040000C94E0050C9420010C9462040C943C0484
:100050000C9420010C9420010C9420010C9420019C
:100060000C941C0C0C942001962298228C228E2237
:10007000902292229422F629692A4D2B9E2BCF2B77
:10008000572C102D6B2D6B2D6B2D6B2D6B2D6B2D20
:100090006B2D6B2D6B2D6B2D6B2DCF2B082C572CB7
:1000A000572C102DC90FCC0FC70FC90FCC0FCE0F77
:1000B000D20FD70F00000000250028002B000201FE
:1000C0000000000000240027002A0053746F7020F5
:1000D000546573740054656D70203D200053746145
:1000E00072742054657374004669726D776172652D
:1000F0002076657273696F6E3A20005761726E697F
:100100006E67212052544320444F4E2754205245BD
:1001100053504F4E44210054656D702E2073656E10
:10012000736F72206E6F7420666F756E642E004957
:100130006E636F727265637420536F6E6720466FD3
:10014000726D617421005247423D6F6666005247EE
:10015000423D6F6E004D656E75506F736974696FC7
:100160006E3D004578697420746F20706172656E11
:100170007420706F736974696F6E3A200076616CD9
:1001800075653D006D656E75506F736974696F6E4E
:100190003D0073796E63000000000800020100005A
:1001A000030407000000000000000057616B652099
:1001B00075702C204E656F21000000000023002682
:1001C00000290004040404040404040202020202DC
:1001D000020303030303030102040810204080010B
:1001E000020408102001020408102000D82DCC2D94
:1001F00011241FBECFEFD8E0DEBFCDBF27E0A0E1C6
:10020000B4E001C01D92A332B207E1F714E0A0E010
:10021000B1E0E2EFF8E602C005900D92A031B1071F
:10022000D9F710E0C7EFD0E004C02197FE010E948B
:100230003732C63FD107C9F70E94CD1C0C946C34ED
:100240000C9400000895CF92DF92EF92FF920F93EB
:100250001F93CF93DF936C017A018B01C0E0D0E054
:10026000CE15DF0589F0D8016D918D01D601ED9194
:10027000FC910190F081E02DC6010995892B11F4C4
:100280007E0102C02196ECCFC701DF91CF911F9173
:100290000F91FF90EF90DF90CF900895FC01538D68
:1002A000448D252F30E0842F90E0821B930B541750
:1002B00010F0CF96089501970895FC01918D828DDD
:1002C000981761F0828DDF01A80FB11D5D968C91AA
:1002D000928D9F5F9F73928F90E008958FEF9FEFB5
:1002E0000895FC01918D828D981731F0828DE80F71
:1002F000F11D858D90E008958FEF9FEF0895FC012B
:10030000918D228D892F90E0805C9F4F821B9109F7
:100310008F739927089587E096E00E947F0121E07E
:10032000892B09F420E0822F0895FC01848DDF01E0
:10033000A80FB11DA35ABF4F2C91848D90E0019658
:100340008F739927848FA689B7892C93A089B18947
:100350008C9180648C93938D848D981306C0028851
:10036000F389E02D80818F7D80830895EF92FF9245
:100370000F931F93CF93DF93EC0181E0888F9B8DC8
:100380008C8D981305C0E889F989808185FD24C08A
:10039000F62E0B8D10E00F5F1F4F0F731127E02E0D
:1003A0008C8DE8120CC00FB607FCFACFE889F989EA
:1003B000808185FFF5CFCE010E949501F1CF8B8D15
:1003C000FE01E80FF11DE35AFF4FF0820B8FEA891F
:1003D000FB898081806207C0EE89FF896083E8899C
:1003E000F98980818064808381E090E0DF91CF9102
:1003F0001F910F91FF90EF900895CF93DF93EC0141
:10040000888D8823C9F0EA89FB89808185FD05C034
:10041000A889B9898C9186FD0FC00FB607FCF5CF6E
:10042000808185FFF2CFA889B9898C9185FFEDCFB6
:10043000CE010E949501E7CFDF91CF91089580E032
:1004400090E0892B29F00E948B0181110C9400000F
:100450000895833081F028F4813099F08230A1F042
:1004600008958730A9F08830B9F08430D1F48091B4
:1004700080008F7D03C0809180008F778093800003
:10048000089584B58F7702C084B58F7D84BD0895AB
:100490008091B0008F7703C08091B0008F7D8093F2
:1004A000B00008950E9457340F931F93CF93DF93AA
:1004B000EC0188819981009729F02A813B812617D8
:1004C000370788F48B016F5F7F4F0E948D33009751
:1004D00061F0998388831B830A832C813D81232BC0
:1004E00011F4FC01108281E001C080E0DF91CF9126
:1004F0001F910F910895FC0180819181009711F067
:100500000C94882E60E070E0CB010895EF92FF928A
:100510000F931F93CF93DF93FC01248135816115E5
:10052000710511F480E019C041155105A9F07B0156
:10053000EC018A01020F131FB8010E9454028823A4
:1005400089F3288139818C819D81B701820F931FA6
:100550000E9465341D830C8381E0DF91CF911F9150
:100560000F91FF90EF9008950F931F93CF93DF9318
:100570008C01EB01FC01808191810097B1F06881D1
:1005800079816115710579F0428153812C813D811A
:100590004217530740F00E9465348C819D81F80119
:1005A0009583848313C00E94F53288819981F80174
:1005B000918380838A819B81938382838C819D81B7
:1005C00095838483198218821B821A821D821C8261
:1005D000DF91CF911F910F910895CF93DF93EC019D
:1005E00088819981009711F00E94F5321982188252
:1005F0001D821C821B821A82DF91CF910895CF93B6
:10060000DF93EC016115710561F0FB0101900020A1
:10061000E9F73197AF01461B570B0E948602811103
:1006200003C0CE010E94ED02CE01DF91CF9108956B
:10063000CF93DF93EC01FB0144815581608171818F
:100640000E948602811103C0CE010E94ED02CE01FC
:10065000DF91CF910895EF92FF920F931F93CF9365
:10066000DF93EC017B018A01BA010E9454028111DF
:1006700004C0CE010E94ED0207C01D830C83B701A8
:10068000888199810E946534CE01DF91CF911F91BD
:100690000F91FF90EF900895CF93DF93EC016115D8
:1006A000710559F0FB0101900020E9F73197AF0186
:1006B000461B570B0E942B0302C00E94ED02CE0185
:1006C000DF91CF910895CF93DF93EC01FB01861763
:1006D000970761F0608171816115710529F044818E
:1006E00055810E942B0302C00E94ED02CE01DF91D2
:1006F000CF910895FC01808191810C94F5320F9384
:100700001F93CF93DF93CDB7DEB7A1970FB6F894C1
:10071000DEBF0FBECDBF8C01CB01BA01F801118243
:100720001082138212821582148230E0AE014F5F74
:100730005F4F0E94DA2EBE016F5F7F4FC8010E949B
:100740004C03A1960FB6F894DEBF0FBECDBFDF916C
:10075000CF911F910F9108950F931F93CF93DF9324
:10076000CDB7DEB762970FB6F894DEBF0FBECDBF30
:100770008C01CB01F8011182108213821282158242
:10078000148250E0BE016F5F7F4F0E94AF2EBE010A
:100790006F5F7F4FC8010E944C0362960FB6F894BA
:1007A000DEBF0FBECDBFDF91CF911F910F91089596
:1007B000FC011182108213821282158214820C9421
:1007C0006303FC011182108213821282158214824B
:1007D0006115710551F0FB0101900020E9F7319797
:1007E000AF01461B570B0C942B030895BF92CF9279
:1007F000DF92EF92FF920F931F93CF93DF937C01D1
:100800006B018A01E9012417350720F4812F890142
:10081000C42FD82F6FE074E0C7010E94E103D60116
:1008200014968D919C91159708171907D0F48C1781
:100830009D0708F4EC01D601ED91FC911197EC0FA6
:10084000FD1FB08010824D915C91BA01600F711F45
:10085000C7010E944C03D601ED91FC91EC0FFD1FE6
:10086000B082C701DF91CF911F910F91FF90EF9060
:10087000DF90CF90BF9008951F920F920FB60F9206
:1008800011242F933F934F935F936F937F938F9395
:100890009F93AF93BF93EF93FF9387E096E00E94FF
:1008A0009501FF91EF91BF91AF919F918F917F91B2
:1008B0006F915F914F913F912F910F900FBE0F90CD
:1008C0001F9018951F920F920FB60F9211242F931D
:1008D0008F939F93EF93FF93E0911706F091180683
:1008E0008081E0911D06F0911E0682FD12C090816C
:1008F000809120068F5F8F7320912106821751F01F
:10090000E0912006F0E0E95FF94F958F8093200693
:1009100001C08081FF91EF919F918F912F910F9056
:100920000FBE0F901F901895CF93DF93282F30E0C4
:10093000F901E956FE4F8491F901E952FE4FD49135
:10094000F901ED53FE4FC491CC2391F081110E9427
:100950002902EC2FF0E0EE0FFF1FE754FE4FA591A8
:10096000B491EC91ED2381E090E021F480E002C0AD
:1009700080E090E0DF91CF9108951F93CF93DF93B4
:10098000282F30E0F901E956FE4F8491F901E95230
:10099000FE4FD491F901ED53FE4FC491CC23C9F021
:1009A000162F81110E942902EC2FF0E0EE0FFF1F9D
:1009B000EC54FF4FA591B4918FB7F894111105C075
:1009C0009C91ED2FE095E92302C0EC91ED2BEC9387
:1009D0008FBFDF91CF911F910895CF93DF9390E068
:1009E000FC01E952FE4F2491FC01ED53FE4F84912E
:1009F000882361F190E0880F991FFC01EF53FF4FAE
:100A0000C591D491FC01EC54FF4FA591B4916111B3
:100A100009C09FB7F8948881209582238883EC9140
:100A20002E230BC0623061F49FB7F8943881822F77
:100A3000809583238883EC912E2B2C939FBF06C037
:100A40008FB7F894E8812E2B28838FBFDF91CF9149
:100A500008951F93CF93DF93182FEB0161E00E945D
:100A6000ED04209711F460E004C0CF3FD10539F4C4
:100A700061E0812FDF91CF911F910C94BD04E12F94
:100A8000F0E0E956FE4FE491E330F9F048F4E1304C
:100A9000B9F0E230A1F584B5806284BDC8BD34C030
:100AA000E730E9F0E83019F1E43049F58091800051
:100AB000806280938000D0938B00C0938A0024C012
:100AC00084B5806884BDC7BD1FC0809180008068E8
:100AD00080938000D0938900C093880015C08091D6
:100AE000B00080688093B000C093B3000DC08091C7
:100AF000B00080628093B000C093B40005C0C038DD
:100B0000D1050CF0B5CFAFCFDF91CF911F910895F4
:100B10003FB7F8948091F0049091F104A091F20411
:100B2000B091F30426B5A89B05C02F3F19F001969C
:100B3000A11DB11D3FBFBA2FA92F982F8827820F63
:100B4000911DA11DB11DBC01CD0142E0660F771FB3
:100B5000881F991F4A95D1F708952FB7F89460918F
:100B6000EC047091ED048091EE049091EF042FBF9E
:100B700008956093E7047093E8048093E9049093E8
:100B8000EA04DC01CB01845D9E4FAF4FBF4F8093E1
:100B9000E3049093E404A093E504B093E60482E0B8
:100BA00090E09093E2048093E1040E94AD0560938D
:100BB000DD047093DE048093DF049093E0040895D5
:100BC0001F920F920FB60F9211242F933F938F9382
:100BD0009F93AF93BF938091EC049091ED04A0910B
:100BE000EE04B091EF043091EB0423E0230F2D3796
:100BF00020F40196A11DB11D05C026E8230F029621
:100C0000A11DB11D2093EB048093EC049093ED049F
:100C1000A093EE04B093EF048091F0049091F1045E
:100C2000A091F204B091F3040196A11DB11D80932F
:100C3000F0049093F104A093F204B093F304BF91F5
:100C4000AF919F918F913F912F910F900FBE0F9079
:100C50001F9018951F920F920FB60F9211242F9389
:100C60003F934F935F936F937F938F939F93EF93F4
:100C7000FF934091F9055091FA056091FB05709141
:100C8000FC05411551056105710599F0809112042B
:100C9000E0911304F0911404908189278083141645
:100CA000150616061706D4F4415051096109710959
:100CB00015C0809170008D7F809370009091120418
:100CC000E0911304F09114048081282F30E0892FE3
:100CD00090E0809590958223932380834093F9053B
:100CE0005093FA056093FB057093FC05FF91EF911B
:100CF0009F918F917F916F915F914F913F912F9134
:100D00000F900FBE0F901F9018951F920F920FB665
:100D10000F9211242F933F938F939F93AF93BF9381
:100D2000EF93FF938091FD059091FE05A091FF0543
:100D3000B0910006892B8A2B8B2B51F180911504E1
:100D4000E0911604F09117049081892780838091A7
:100D5000FD059091FE05A091FF05B09100061816C3
:100D600019061A061B064CF58091FD059091FE05AB
:100D7000A091FF05B09100060197A109B1098093E8
:100D8000FD059093FE05A093FF05B093000615C0E6
:100D900080916F008D7F80936F0090911504E0919A
:100DA0001604F09117048081282F30E0892F90E0FD
:100DB00080959095822393238083FF91EF91BF913B
:100DC000AF919F918F913F912F910F900FBE0F90F8
:100DD0001F9018951F920F920FB60F9211242F9308
:100DE0003F938F939F93AF93BF93EF93FF93809124
:100DF000010690910206A0910306B0910406892B8A
:100E00008A2B8B2B51F180911804E0911904F091F9
:100E10001A049081892780838091010690910206AF
:100E2000A0910306B0910406181619061A061B06AF
:100E30004CF58091010690910206A0910306B091B5
:100E400004060197A109B109809301069093020657
:100E5000A0930306B093040615C080916E008D7FA9
:100E600080936E0090911804E0911904F0911A0497
:100E70008081282F30E0892F90E080959095822303
:100E800093238083FF91EF91BF91AF919F918F91B9
:100E90003F912F910F900FBE0F901F9018953F928A
:100EA0004F925F926F927F928F929F92AF92BF927A
:100EB000CF92DF92EF92FF920F931F93CF93DF9326
:100EC000382E962E842EF90184E6E816F1042CF0D3
:100ED00082EBE81A87E0F80A03C08EE1E80EF11C05
:100EE000E092D6040093D504E093D4043092D20467
:100EF0009092D1048092D004AE2DB0E020E833E38C
:100F000041EE51E00E946B302B013C0122EB37E0B7
:100F1000FF2484E6C82ED12CC0E9D1E0C901825B50
:100F200097408E159F05DCF4C90183709927892BA2
:100F300099F4C901B6010E94E231892B31F4C9014B
:100F4000BE010E94E231892B39F480E8480E81E528
:100F5000581E81E0681E711C2F5F3F4FDFCF8EE46B
:100F6000E81A88EFF80AC70164E670E00E94E231EF
:100F70006C01C70160E971E00E94E2315C01C1E0EF
:100F8000D0E0112783E0E822FF24C017D1072CF519
:100F9000C230D10589F4E114F10471F4C114D10413
:100FA00019F4A114B10441F480E8480E8BE3581EF3
:100FB00086E2681E711C0FC0DE01A251BD4FAC91CC
:100FC000B0E020E831E541E050E00E946B30460E91
:100FD000571E681E791E2196D8CF292D30E0ACE32C
:100FE000B0E00E94AD306B017C01C80CD11CE11C4B
:100FF000F11C232D30E0A0E1BEE00E94AD30C60E12
:10100000D71EE81EF91EDF01BB27119720E831E546
:1010100041E050E00E944432DC01CB018C0D9D1D6B
:10102000AE1DBF1DBC01CD01640D751D861D971D34
:10103000DF91CF911F910F91FF90EF90DF90CF90B4
:10104000BF90AF909F908F907F906F905F904F90E8
:101050003F900C94B905CF92DF92EF92FF920F93DD
:101060001F930E94AD05C090DD04D090DE04E09097
:10107000DF04F090E0048B019C010C191D092E097E
:101080003F098091E7049091E804A091E904B091B0
:10109000EA04083E134021053105D0F00196A11D58
:1010A000B11D8093E7049093E804A093E904B09302
:1010B000EA04B701A60148515C4F6F4F7F4F409340
:1010C000DD045093DE046093DF047093E004C9CF25
:1010D0004091E3045091E4046091E5047091E604CA
:1010E00084179507A607B70788F1E091DB04F09114
:1010F000DC04309759F10995611571058105910559
:1011000019F00E94B90522C08091E7049091E8048B
:10111000A091E904B091EA04845D9E4FAF4FBF4FA8
:101120008093E3049093E404A093E504B093E60471
:1011300081E090E02091E1043091E204232B11F44E
:1011400080E090E09093E2048093E1046091E704F2
:101150007091E8048091E9049091EA041F910F9145
:10116000FF90EF90DF90CF9008954F925F926F9233
:101170007F928F929F92AF92BF92CF92DF92EF9227
:10118000FF920F931F93CF93DF934B015C018091EC
:10119000D7049091D804A091D904B091DA048816AC
:1011A0009906AA06BB0609F4C2C08CE3C82ED12C4E
:1011B000E12CF12CC501B401A70196010E94F63182
:1011C0006093D004CA01B901A70196010E94F631CB
:1011D0006093D104CA01B90128E130E040E050E059
:1011E0000E94F63169017A016093D204CA01B90103
:1011F0006C5F7F4F8F4F9F4F27E030E040E050E023
:101200000E94F6316F5F6093D304412C512C320160
:1012100040E004E610E0C0E9D1E0242F30E02E5495
:10122000384FF901E370FF27309789F4C901B801FD
:101230000E94E231892B31F4C901BE010E94E231E2
:10124000892B29F48EE691E0A0E0B0E004C08DE6A1
:1012500091E0A0E0B0E0480E591E6A1E7B1ED3014B
:10126000C201AA27BB27C816D906EA06FB0610F05A
:101270004F5FD3CF4093D604309799F4C90164E609
:1012800070E00E94E231892B39F4C90160E971E014
:101290000E94E231892B29F48EE691E0A0E0B0E0D3
:1012A00004C08DE691E0A0E0B0E0481A590A6A0A4D
:1012B0007B0AC418D508E608F708C90164E670E09F
:1012C0000E94E231EC01C90160E971E00E94E23163
:1012D000AFEEB2E020E0213039F4309749F42097A6
:1012E00029F4009729F402C04C9103C04DE101C0DC
:1012F0004CE150E060E070E0C416D506E606F70663
:1013000040F0C41AD50AE60AF70A2F5F11962C306E
:1013100011F72F5F2093D504C394C092D404809218
:10132000D7049092D804A092D904B092DA04DF9145
:10133000CF911F910F91FF90EF90DF90CF90BF90D2
:10134000AF909F908F907F906F905F904F90089597
:101350000E942B080E94B5088091D60490E08E541C
:10136000984F08950E942B080E94B5088091D504DB
:1013700090E008950E942B080E94B5088091D40443
:1013800090E008950E942B080E94B5088091D00437
:1013900090E008950E942B080E94B5088091D10426
:1013A00090E008950E942B080E94B5088091D20415
:1013B00090E00895CF92DF92EF92FF92CF93DF9368
:1013C000EC010E94AD056B017C018F850E949404A5
:1013D00021E0892B09F420E0298B8889811103C041
:1013E00081E08227898B29898A89281721F0CD8A73
:1013F000DE8AEF8AF88E8D899E89AF89B88DB70114
:10140000A601481B590B6A0B7B0BDB01CA01CB8081
:10141000DC80ED80FE80C416D506E606F70664F48F
:101420003A81231749F02A83222331F04B895C89C2
:101430004F5F5F4F5C8B4B8B3A8131110CC0CF807B
:10144000D884E984FA84C816D906EA06FB06ACF407
:101450008B899C890EC0CB84DC84ED84FE84C81605
:10146000D906EA06FB064CF48B899C8991958195F7
:101470009109998388831C8A1B8A2A8BDF91CF91DB
:10148000FF90EF90DF90CF9008950F931F93CF932D
:10149000DF931F92CDB7DEB78C01862FF8016787E7
:1014A000408B91E04927418B428B148A138A118229
:1014B00010821282158A168A178A108E44E150E033
:1014C00060E070E043835483658376834AEF50E0A5
:1014D00060E070E0478350876187728748EE53E091
:1014E00060E070E0438754876587768760E02983F2
:1014F0000E94ED04F8018089298181110BC022230B
:1015000049F061E087850F90DF91CF911F910F9196
:101510000C94BD040F90DF91CF911F910F9108950E
:1015200085ED8093BC008091BC0084FDFCCF1092BF
:10153000D405089540917105262F30E0240F311D08
:1015400021323105DCF42091D4052430C9F4FC01AA
:1015500080E090E0861758F4309171052191DC010C
:10156000A15BBA4FA30FB11D2C930196F3CF8091CD
:101570007105680F6093710580E0089581E008951A
:1015800082E008950895E091110480911004E81715
:1015900030F4F0E0EC50FB4F808190E008958FEF45
:1015A0009FEF08959091110480911004981750F4C2
:1015B000E92FF0E0EC50FB4F208130E09F5F9093EB
:1015C000110402C02FEF3FEFC9010895809110046C
:1015D00090E020911104821B91090895CF92DF922F
:1015E000EF92FF920F931F93CF93DF937C01262FEF
:1015F000972F8A018091D505882391F0C62FD72F88
:101600006E01C40ED51ECC15DD0571F06991D701B0
:10161000ED91FC910190F081E02DC7010995F3CF88
:10162000642F822F0E949A0AC801DF91CF911F91E7
:101630000F91FF90EF90DF90CF900895CF93DF93BD
:101640001F92CDB7DEB769832091D5052223D1F053
:101650002091F805203240F021E030E0FC01338396
:10166000228380E090E015C08091D605E82FF0E05D
:10167000E952FA4F998190838F5F8093D6058093CA
:10168000F80505C061E0CE0101960E949A0A81E04A
:1016900090E00F90DF91CF910895089580E090E061
:1016A000089540914D0550914E0520914B05309184
:1016B0004C054217530719F080E09CE302C08FEFFE
:1016C0009FEF4F5F5F4F4330510529F050934E0518
:1016D00040934D05089510924E0510924D052F5FD1
:1016E0003F4F2330310529F030934C0520934B05B3
:1016F000089510924C0510924B05089520912204F4
:101700003091230402C0359527958A95E2F720FF92
:1017100003C080E09CE308958FEF9FEF0895CF9280
:10172000DF92EF92FF921F93CF93DF939091260465
:10173000911103C08FEF9FEF77C0909125049923FB
:10174000C9F3182FC0912C04D0912D04809143052A
:1017500081110DC00E94AD0560933F057093400557
:10176000809341059093420581E0809343050E9458
:10177000AD05C0903F05D0904005E0904105F09048
:101780004205DC01CB018C199D09AE09BF098D32E0
:101790009140A105B105F8F00E94AD0560933F05A9
:1017A00070934005809341059093420580913E05DA
:1017B00091E0982790933E05992329F010923D05DA
:1017C00010923C0508C080912C0490912D049093B8
:1017D0003D0580933C0520913C0530913D052095C9
:1017E00030954091270450E02423352326FF04C080
:1017F00081E080933B0502C010923B0527FF04C0A7
:1018000081E080933A0502C010923A0580913E052E
:10181000882309F48FCF02C0D595C7951A95E2F7B2
:10182000C0FF88CF80E09CE3DF91CF911F91FF90B4
:10183000EF90DF90CF9008951F920F920FB60F9206
:1018400011242F933F934F935F936F937F938F93C5
:101850009F93AF93BF93EF93FF938091B900887FDD
:10186000803609F49CC068F5883209F45BC090F4B6
:10187000803109F454C038F4882309F4F6C0883064
:1018800009F44DC0F6C0883109F44CC0803209F427
:101890005DC0EFC0803409F468C048F4803309F4B7
:1018A00055C0883309F0E5C08093D205D8C0803593
:1018B00009F44FC0883509F45DC0883409F0D9C0F7
:1018C000D6C0883909F4C7C0A8F4883709F467C0BE
:1018D00038F4883609F463C0803709F460C0C9C0A1
:1018E000883809F4B8C0803909F45FC0803809F03D
:1018F000C0C05BC0803B09F486C038F4803A09F46C
:1019000066C0883A09F47FC0B4C0803C09F4A7C01F
:10191000883C09F4A4C0883B09F48AC0AAC080911D
:10192000AF0510C09091D1058091D005981770F542
:10193000E091D10581E08E0F8093D105F0E0E05574
:10194000FA4F80818093BB0085EC86C08093D205DE
:101950008EC0E091D10581E08E0F8093D1058091FA
:10196000BB00F0E0E055FA4F80839091D105809163
:10197000D0056EC0E091D10581E08E0F8093D10536
:101980008091BB00F0E0E055FA4F80838091D30551
:1019900081116DC081E08093AE0584EA61C083E06F
:1019A0008093D40510929505CFCF80919505803214
:1019B00008F051C0E091950581E08E0F8093950568
:1019C0008091BB00F0E0EB58FA4F8083BDCF85ECEF
:1019D0008093BC001092D40580919505803230F43C
:1019E000E0919505F0E0EB58FA4F10826091950573
:1019F00070E0E0917305F091740585E795E0099535
:101A00001092950536C084E08093D405109272053B
:101A100010927105E0916F05F09170050995809124
:101A20007105811105C081E08093710510924F0509
:101A3000E091720581E08E0F80937205F0E0E15B2A
:101A4000FA4F80818093BB0090917205809171055F
:101A5000981708F479CF85E88093BC000AC085EC1C
:101A60008093BC001092D40504C01092D2050E944D
:101A7000900AFF91EF91BF91AF919F918F917F91CC
:101A80006F915F914F913F912F910F900FBE0F90EB
:101A90001F9018950C945D300C9455302F923F9206
:101AA0004F925F926F927F928F929F92AF92BF926E
:101AB000CF92DF92EF92FF920F931F93CF93DF931A
:101AC00000D000D0CDB7DEB70E9488050091360562
:101AD000109137052091380530913905DC01CB0193
:101AE000801B910BA20BB30B803D9740A105B10564
:101AF00008F41CC20E948805609336057093370570
:101B000080933805909339058FEF96E00E947B0211
:101B10002AE0822E912CA12CB12CA50194010E94C7
:101B20001832660F771FFB01E550FD4F6080718012
:101B300087E090E029833A834B835C830E948F0B7C
:101B40006C0180E090E00E947E0BC822D9220E94A6
:101B5000510B7C0129813A814B815C81CA01B90119
:101B6000A50194010E941832660F771FFB01E55012
:101B7000FD4F0081118186E090E029833A834B83F9
:101B80005C830E948F0B5C0181E090E00E947E0BE1
:101B9000A822B9220E94510B8A219B2108231923D4
:101BA000C801A0E0B0E0CE20DF20C620D720E12C85
:101BB000F12C1AE0CC0CDD1CEE1CFF1C1A95D1F7A1
:101BC000C82AD92AEA2AFB2A80913B0529813A8131
:101BD0004B815C81811102C06894F6F880913A05CE
:101BE000811102C06894F7F860E08AE029833A83A3
:101BF0004B835C830E94BD048F2D0E942E188E2D76
:101C00000E942E188D2D0E942E188C2D0E942E18A9
:101C10008AE0C82ED12CE12CF12C29813A814B810C
:101C20005C81CA01B901A70196010E941832660FB2
:101C3000771FFB01E550FD4F8080918085E090E0AB
:101C400029833A834B835C830E948F0B5C0182E083
:101C500090E00E947E0B8A219B218C010821192192
:101C60000E94510B4C0129813A814B815C81CA0150
:101C7000B901A70196010E941832660F771FFB0178
:101C8000E550FD4F6080718084E090E029833A83C5
:101C90004B835C830E948F0B5C0183E090E00E9489
:101CA0007E0B8A219B21682279220E94510B80227F
:101CB0009122A12CB12C14012501F4E1220C331C3A
:101CC000441C551CFA95D1F786219721A0E0B0E07D
:101CD0001AE0880F991FAA1FBB1F1A95D1F732016E
:101CE0002101482A592A6A2A7B2A29813A814B8173
:101CF0005C81CA01B901A70196010E941832660FE2
:101D0000771FFB01E550FD4FE080F18083E090E01C
:101D100029833A834B835C830E948F0B8C0184E080
:101D200090E00E947E0B80239123E822F9220E94FA
:101D3000510B8E219F21A0E0B0E0482A592A6A2A3F
:101D40007B2A80913B0529813A814B815C818823E4
:101D500019F0E89476F802C0689476F880913A0514
:101D6000882319F0E89477F802C0689477F8872DF3
:101D700029833A834B835C830E942E18862D0E9410
:101D80002E18852D0E942E18842D0E942E188AE070
:101D9000C82ED12CE12CF12C29813A814B815C8118
:101DA000CA01B901A70196010E941832660F771F78
:101DB000FB01E550FD4F8080918082E090E0298317
:101DC0003A834B835C830E948F0B5C0185E090E03B
:101DD0000E947E0B8A219B218C01082119210E94DF
:101DE000510B4C0129813A814B815C81CA01B901B7
:101DF000A70196010E941832660F771FFB01E5507C
:101E0000FD4F6080718081E090E029833A834B83AD
:101E10005C830E948F0B5C0186E090E00E947E0B49
:101E20008A219B21682279220E94510B80229122D3
:101E3000A12CB12C14012501F4E1220C331C441C0B
:101E4000551CFA95D1F786219721A0E0B0E01AE061
:101E5000880F991FAA1FBB1F1A95D1F732012101C4
:101E6000482A592A6A2A7B2A29813A814B815C8136
:101E7000CA01B901A70196010E941832660F771FA7
:101E8000FB01E550FD4F0081118180E090E00E9450
:101E90008F0B6C0187E090E00E947E0B8C219D21CE
:101EA0006C01C022D1220E94510B8C219D216C011A
:101EB000E12CF12CC428D528E628F72880913B0591
:101EC000882319F0E894F6F802C06894F6F8809137
:101ED0003A05882319F0E894F7F802C06894F7F8F7
:101EE0008F2D0E942E188E2D0E942E188D2D0E944F
:101EF0002E188C2D0E942E1861E08AE00F900F9012
:101F00000F900F90DF91CF911F910F91FF90EF9065
:101F1000DF90CF90BF90AF909F908F907F906F9009
:101F20005F904F903F902F900C94BD040F900F90B6
:101F30000F900F90DF91CF911F910F91FF90EF9035
:101F4000DF90CF90BF90AF909F908F907F906F90D9
:101F50005F904F903F902F900895CF92DF92EF9235
:101F6000FF921F93CF93DF9390911B04992309F461
:101F700085C0C0913405D0913505C830D10508F031
:101F800067C0182FFE01EE5AFF4F0C94373284E4DD
:101F900006C00E944F1A5CC08CEC01C08EEB0E9400
:101FA000B81A56C00E94071B8093320551C00E9488
:101FB000071B80933305682F70E0762F662780918A
:101FC0003205682B6F3F8FEF780711F460E070E007
:101FD000072E000C880B990B0E94382F20E030E070
:101FE00040E85DE30E94972F6B017C018091B9016D
:101FF0009091BA01BC01990F880B990B0E94382F60
:1020000020E030E040E251E40E9429319B01AC0124
:10201000C701B6010E94BD30112361F026E636E605
:1020200046EE5FE30E94972F20E030E040E052E46C
:102030000E94BD3020E030E040E251E40E94972F42
:1020400060932E0570932F05809330059093310592
:102050002196C830D10529F0D0933505C0933405B9
:1020600004C0109235051092340560912E057091D0
:102070002F05809130059091310503C060E070E03C
:10208000CB01DF91CF911F91FF90EF90DF90CF9028
:1020900008958F929F92AF92BF92CF92DF92EF926C
:1020A000FF920F931F93CF93DF93CDB7DEB7629765
:1020B0000FB6F894DEBF0FBECDBF8C016A017B0165
:1020C00080912605811113C00E94AD05DC01CB0172
:1020D000845B9B4FAF4FBF4F8093220590932305A6
:1020E000A0932405B093250581E080932605809177
:1020F0001A05811109C065E373E084E195E00E944F
:10210000E10381E080931A050E94AD0580902205CD
:1021100090902305A0902405B0902505DC01CB010B
:1021200088199909AA09BB09893E9340A105B105FF
:1021300008F4E4C10E94AD05609322057093230565
:10214000809324059093250520E030E0A901C70184
:10215000B6010E94D13120E030E040E05FE387FD2E
:1021600005C0C701B6010E94BD3004C0C701B60159
:102170000E94BC300E949B318091B7019091B801C0
:102180009B0129513C4F49012458334059012A559C
:10219000310969017B01892B09F0C2C077FF03C0B7
:1021A000F194E194F1084AE0B701CE0107960E944C
:1021B000AC036CE373E0CE0101960E94E103BE0123
:1021C000695F7F4FCE0101960E9418036CE373E0B4
:1021D0000E94FF02BC0184E195E00E946303CE01EE
:1021E00001960E947A03CE0107960E947A033FEC83
:1021F000831637E0930688F54AE0B701CE010D96C5
:102200000E94AC036091B9017091BA01CE010196B0
:102210000E947F15BE016F5F7F4FCE0107960E941F
:10222000D803BE01635F7F4FCE0107960E9418035B
:102230006CE373E00E94FF02BC0184E195E00E9420
:102240006303CE0107960E947A03CE0101960E9495
:102250007A03CE010D960E947A0387ECA816B1048A
:10226000A8F54AE0B701CE010D960E94AC0360913B
:10227000B9017091BA01CE0107960E947F156CE3F7
:1022800073E0CE0101960E94E103BE01695F7F4FBA
:10229000CE0101960E941803BE01635F7F4F0E942A
:1022A00018036CE373E00E94FF02BC0184E195E037
:1022B0000E946303CE0101960E947A03CE01079625
:1022C0000E947A03CE010D960E947A0323E1C21682
:1022D000D10408F0FAC04AE0B701CE010D960E9481
:1022E000AC036091B9017091BA01CE0107960E94CA
:1022F0007F156BE373E0CE0101960E94E103BE01FE
:10230000695F7F4FCE0101960E941803BE01635F93
:102310007F4F0E9418036CE373E00E94FF02C4C069
:1023200077FF03C0F194E194F1084AE0B701CE01D0
:1023300007960E94AC036CE373E0CE0101960E9405
:10234000E103BE01695F7F4FCE0101960E94180331
:102350006CE373E00E94FF02BC0184E195E00E94FF
:102360006303CE0101960E947A03CE0107960E9474
:102370007A033FEC831637E09306A8F56091B90124
:102380007091BA01CE010D960E947F15C7016AE0D7
:1023900070E00E94E2314AE0CE0107960E94AC0351
:1023A0006BE373E0CE0101960E94E103BE01695F19
:1023B0007F4FCE0101960E941803BE01635F7F4FDD
:1023C0000E941803BC0184E195E00E946303CE01E2
:1023D00001960E947A03CE0107960E947A03CE01ED
:1023E0000D960E947A0387ECA816B104A8F56091B7
:1023F000B9017091BA01CE010D960E947F15C701F7
:102400006AE070E00E94E2314AE0CE0107960E9445
:10241000AC036AE373E0CE0101960E94E103BE01C2
:10242000695F7F4FCE0101960E941803BE01635F72
:102430007F4F0E941803BC0184E195E00E94630372
:10244000CE0101960E947A03CE0107960E947A037C
:10245000CE010D960E947A0323E1C216D104A8F59D
:102460006091B9017091BA01CE010D960E947F155D
:10247000C7016AE070E00E94E2314AE0CE010796AF
:102480000E94AC0369E373E0CE0101960E94E10370
:10249000BE01695F7F4FCE0101960E941803BE0105
:1024A000635F7F4F0E941803BC0184E195E00E94A6
:1024B0006303CE0101960E947A03CE0107960E9423
:1024C0007A03CE010D960E947A036FE074E0CE018C
:1024D00001960E94E10364E175E0CE0101960E943D
:1024E00018036BE373E00E94FF02BC0184E195E0F6
:1024F0000E946303CE0101960E947A0364E175E0B5
:10250000C8010E94D803C80162960FB6F894DEBFD6
:102510000FBECDBFDF91CF911F910F91FF90EF9034
:10252000DF90CF90BF90AF909F908F9008954F9283
:102530005F926F927F928F929F92AF92BF92CF9253
:10254000DF92EF92FF920F931F93CF93DF9300D010
:1025500000D000D0CDB7DEB77C014B015A0180918D
:102560002404882341F080919D0506EA15E0AEE938
:10257000B5E0F8014CC081E080932404109223045C
:102580001092220486EA682E85E0782E9EE9492E74
:1025900095E0592E00E010E00F5F1F4F680181E0C9
:1025A000C81AD1089801A601B401CE0101960E9473
:1025B000F603CE0101960E947B02F30161933F0175
:1025C000CE0101960E947A039801A601B501CE01C1
:1025D00001960E94F603CE0101960E947B02F20151
:1025E00061932F01CE0101960E947A0308301105F4
:1025F00099F6B9CF2C9192130DC090819A3009F4BD
:1026000010823196119695E0EE3AF90731F09081FB
:102610008A3080F79F5F9083F0CF8F5F843119F00D
:1026200080939D0504C010929D05109224046FE0D4
:1026300074E0C7010E94E103FE0131966F01F801C9
:1026400081918F014AE0B60190E00E94BA2EF60116
:1026500001900020E9F73197AF014C195D09B601EF
:10266000C7010E948602F5E00E3A1F0741F7C70135
:1026700026960FB6F894DEBF0FBECDBFDF91CF9187
:102680001F910F91FF90EF90DF90CF90BF90AF9090
:102690009F908F907F906F905F904F9008950F93D1
:1026A0001F938091B3019091B401892B09F455C017
:1026B00080919C058823A9F00E94AD0500919805A2
:1026C0001091990520919A0530919B05DC01CB0171
:1026D000801B910BA20BB30B893E9340A105B10562
:1026E000C8F580919C05811138C00E94D2092091C3
:1026F000AD013091AE018217930779F50E94CA09A6
:102700002091AF013091B0018217930731F50E94FB
:10271000C2092091B1013091B20182179307E9F407
:102720000E94AD05609398057093990580939A0572
:1027300090939B0581E080939C058BEA91E00E9439
:10274000411A80910001909101019093320480938D
:10275000310403C010929C05C4CF1F910F910895BE
:10276000CF93DF93EC01019628812A33D9F7898131
:10277000843639F5109221041092200423964AE001
:10278000FE018881219690ED980F209120043091D0
:1027900021049A3080F4429FB001439F700D1124B0
:1027A000082E000C990BC097860F971F9093210459
:1027B00080932004E5CF1216130614F420935F01D2
:1027C000EF01219688818F3689F48A81082E000CCA
:1027D000990B9C012053310930932104209320044C
:1027E000C397059710F420935E0124968881823662
:1027F00029F51092210410922004FE0132964AE03D
:10280000819190ED980F20912004309121049A300D
:1028100080F4429FB001439F700D1124082E000CDC
:10282000990BC097860F971F9093210480932004E3
:10283000E7CF3093920120939101EF012091910114
:1028400030919201032E000C440B550B60E67AEE9A
:1028500080E090E00E941832DA01C90122E0880F7E
:10286000991FAA1FBB1F2A95D1F780931C04909330
:102870001D04A0931E04B0931F04CE01DF91CF91DD
:102880000895CF92DF92EF92FF920F931F93CF9311
:10289000DF93CDB7DEB72C970FB6F894DEBF0FBE2F
:1028A000CDBF8C0165E473E0CE0101960E94E10387
:1028B0000330110529F422E030E040E050E021C06F
:1028C0000C30110529F424E030E042E050E019C05A
:1028D0000033110519F426E030E007C0003F110570
:1028E00039F4209103073091040744E050E009C017
:1028F000003C1105B9F4209103073091040746E02C
:1029000050E06FEF76E0CE0107960E94F603BE011D
:10291000695F7F4FCE0101960E94B402CE010796F7
:102920000E947A03CE0101960E947B026B017C011A
:10293000CE0101960E947A03C6012C960FB6F89438
:10294000DEBF0FBECDBFDF91CF911F910F91FF90E2
:10295000EF90DF90CF90089581E08093D50588E6D1
:102960008093F7051092D6051092F80560E084EA8E
:1029700096E00E941E0B0E94EC1B8091D4058111F1
:10298000FCCF81E08093D4058093D3059FEF909393
:10299000D2051092D10596E09093D0058093AF05B3
:1029A0008091AF05806D8093AF058091AE05813039
:1029B00061F41092AE058091AF058093BB008091C9
:1029C000BC0083FDF8CF85EC01C085EE8093BC0090
:1029D0008091D4058130E1F38091D105873018F4DE
:1029E0008091D10501C087E0A0EBB5E024EF34E091
:1029F000F9019E2F921B981718F49D919193F9CF8E
:102A0000109211048093100484EA96E00E94D20A86
:102A1000982F92959F708F702AE0929F800D1124BD
:102A200090E0909338048093370484EA96E00E9403
:102A3000D20A982F92959F708F702AE0929F800DF6
:102A4000112490E0909336048093350484EA96E054
:102A50000E94D20A982F9695969596959670292F52
:102A6000220F220F920F8F70890F90E09093340401
:102A70008093330484EA96E00E94D20A982F9295BC
:102A80009F708F702AE0929F800D112490E09093A8
:102A900097058093960584EA96E00E94D20A982FC3
:102AA00092959F708F702AE0929F800D112490E084
:102AB00090933A048093390484EA96E00E94D20A03
:102AC000982F92959F708F702AE0929F800D11240D
:102AD00090E090933C0480933B0484EA96E00E944B
:102AE000D20A982F92959F708F702AE0929F800D46
:102AF000112490E090933E0480933D0408950F9339
:102B00001F93CF93DF93CDB7DEB762970FB6F894DC
:102B1000DEBF0FBECDBF8C0177FF03C071956195FD
:102B200071094AE06A3071054CF5CE010D960E949C
:102B3000AC036CE373E0CE0101960E94E103BE0199
:102B40006F5F7F4FCE0107960E94D803BE01635F7F
:102B50007F4FCE0107960E941803BC01C8010E9456
:102B6000D803CE0107960E947A03CE0101960E94F7
:102B70007A03CE010D960E947A0303C0C8010E9419
:102B8000AC03C80162960FB6F894DEBF0FBECDBF8E
:102B9000DF91CF911F910F9108950F931F93CF93C2
:102BA000DF93CDB7DEB76B970FB6F894DEBF0FBEDD
:102BB000CDBF282FCB012B8F698F7A8F0E94321BBC
:102BC000698D062F7A8D172F2B8D17FF03C0119556
:102BD00001951109C8012B8F0E94321B2B8D2330C8
:102BE00091F4209103073091040742E050E06FEF29
:102BF00076E0CE010D960E94F603B801CE01019653
:102C00000E947F1562C02C3009F042C0209103075A
:102C10003091040744E050E06FEF76E0CE01439638
:102C20000E94F603B801CE010D960E947F1522E0A6
:102C300030E040E050E06FEF76E0CE0101960E9478
:102C4000F603BE016F5F7F4FCE0107960E94D80347
:102C5000BE01635F7F4FCE0107960E941803BE013D
:102C60006D5E7F4F0E941803BC018FEF96E00E94BB
:102C70006303CE0107960E947A03CE0101960E945B
:102C80007A03CE010D960E947A03CE0143963AC094
:102C9000203311F0203F41F4B801CE010D960E947F
:102CA0007F1524E030E009C0203C71F5B801CE0169
:102CB0000D960E947F1526E030E040E050E06FEF77
:102CC00076E0CE0101960E94F603BE016F5F7F4F52
:102CD000CE0107960E94D803BE01635F7F4FCE01ED
:102CE00007960E941803BC018FEF96E00E946303D1
:102CF000CE0107960E947A03CE0101960E947A03C4
:102D0000CE010D960E947A038FEF96E00E941D1B64
:102D10006B960FB6F894DEBF0FBECDBFDF91CF919B
:102D20001F910F9108950E94AD0560932804709340
:102D3000290480932A0490932B0480912E048823E5
:102D400009F44CC020912F0430913004C901880F40
:102D5000991F2131310551F0FC01ED56FE4F4081A4
:102D6000518141505109518340830AC04091B501BE
:102D70005091B6014C5051095093B6014093B501A2
:102D8000DC01AD56BE4F6D917C911197FC01EE5F59
:102D9000FE4F40815181641775073CF4FC01E05DF2
:102DA000FE4F408151814D935C932031310569F490
:102DB0002091B3013091B4012130310521F420E894
:102DC0002093270402C010922704FC01ED56FE4F09
:102DD0006081718180912C040C94CD1508950E941E
:102DE000AD05609328047093290480932A0490937E
:102DF0002B0480912E04882309F44CC020912F04C9
:102E000030913004C901880F991F2131310551F0EB
:102E1000FC01ED56FE4F408151814F5F5F4F518362
:102E200040830AC04091B5015091B601445F5F4FA5
:102E30005093B6014093B501DC01AD56BE4F6D9184
:102E40007C911197FC01E05DFE4F40815181461756
:102E500057073CF4FC01EE5FFE4F408151814D93DA
:102E60005C932031310569F42091B3013091B401B4
:102E70002130310521F420E82093270402C010926C
:102E80002704FC01ED56FE4F6081718180912C0476
:102E90000C94CD1508958F929F92AF92BF92CF92CE
:102EA000DF92EF92FF920F931F93CF93DF93CDB7F3
:102EB000DEB7A5970FB6F894DEBF0FBECDBF7C017D
:102EC0008091B5019091B6018E010F5F1F4F489719
:102ED00009F06AC00E94AD054B015C010E94C20965
:102EE000BC01CE0180960E947F150E94CA09BC01D8
:102EF000CE014A960E947F150E94D209BC01CE01E4
:102F00000E960E947F15BE01625F7F4FCE014496F0
:102F10000E94D803BE01665E7F4FCE0144960E9498
:102F20001803BE01605E7F4F0E9418036C01C5014B
:102F3000B40128EE33E040E050E00E94F63124E690
:102F400030E040E050E00E94F631CA01B9012AE0C9
:102F5000A8010E94E52EF80101900020E9F73197C1
:102F6000AF01401B510BB801C6010E9486028111BE
:102F700003C0C6010E94ED026CE373E0C6010E942B
:102F8000FF02BC01C7010E94D803CE0144960E94F3
:102F90007A03CE010E960E947A03CE014A960E94D1
:102FA0007A03CE01809644C00E94C209BC01CE01C2
:102FB0004A960E947F150E94CA09BC01CE01449620
:102FC0000E947F150E942B080E94B5088091D204B0
:102FD000882339F0682F70E08D3028F06C5071092B
:102FE00002C06CE070E0C8010E947F15B801CE01FC
:102FF0000E960E94D803BE016C5E7F4FCE010E96E6
:103000000E941803BE01665E7F4F0E941803BC0138
:10301000C7010E94D803CE010E960E947A03C80110
:103020000E947A03CE0144960E947A03CE014A960A
:103030000E947A03C701A5960FB6F894DEBF0FBEB3
:10304000CDBFDF91CF911F910F91FF90EF90DF9057
:10305000CF90BF90AF909F908F9008958EBD00004D
:103060000DB407FEFDCF8EB50895009769F0FC0101
:1030700001900020E9F73197AF01481B590BBC01C3
:1030800087E096E00C94230180E090E008953F9261
:103090004F925F926F927F928F929F92AF92BF9268
:1030A000CF92DF92EF92FF920F931F93CF93DF9314
:1030B00000D000D0CDB7DEB72091060627FDAAC10B
:1030C00049835A836B837C838C0161E08091050680
:1030D0000E94ED0430900606832D8D7F4801A12CBF
:1030E000B12C09F0B7C060E072E18AE790E0A50179
:1030F00094010E94183229013A0169017A0121E004
:10310000C21AD108E108F1088FEFC816D104E10412
:10311000F10409F008F44CC060E472E48FE090E040
:10312000A50194010E94183269017A0191E0C91A3F
:10313000D108E108F108A2E03A1220C0BFEFCB1697
:10314000D104E104F10409F008F462C160E970ED12
:1031500083E090E0A50194010E94183269017A0190
:10316000E1E0CE1AD108E108F108FFEFCF16D10453
:10317000E104F10409F0C0F583E065C02FEFC21649
:10318000D104E104F104B1F0A8F068E478EE81E044
:1031900090E0A50194010E94183269017A0181E052
:1031A000C81AD108E108F108332009F4D9C027C1B1
:1031B00081E001C082E0332091F045C0D301C2011B
:1031C0002AE0B595A795979587952A95D1F76C0133
:1031D0007D01E1E0CE1AD108E108F10885E095B55E
:1031E000987F892B85BD66C068E478EE81E090E029
:1031F000A50194010E94183269017A01B1E0CB1A4D
:10320000D108E108F108EFEFCE16D104E104F10492
:1032100009F008F4A3C064E274EF80E090E0A50137
:1032200094010E94183269017A0191E0C91AD1080B
:10323000E108F108AFEFCA16D104E104F10411F07E
:1032400008F0B0C085E09091B100987F892B809301
:10325000B10030C060E072E18AE790E0A50194011E
:103260000E94183269017A01F1E0CF1AD108E10811
:10327000F108C114D10421E0E206F10488F068E409
:1032800078EE81E090E0A50194010E941832690176
:103290007A0181E0C81AD108E108F10893E001C081
:1032A00091E0A1E03A1206C080918100887F892BCD
:1032B0008093810089819A81AB81BC81892B8A2B83
:1032C0008B2B81F0D801AA0FBB1F29813A814B813A
:1032D0005C810E946B3028EE33E040E050E00E94B9
:1032E000F63103C02FEF3FEFA90191E03916A1F0AD
:1032F000A2E03A1619F131108DC0C7BC2093010627
:1033000030930206409303065093040680916E00AA
:10331000826080936E007EC0D0928900C092880047
:103320002093FD053093FE054093FF055093000662
:1033300080916F00826080936F006CC0C092B30078
:103340002093F9053093FA054093FB055093FC0553
:10335000809170008260809370005CC084E073CFC5
:103360008FEFC816D104E104F104D1F0C8F062E196
:103370007AE780E090E0A50194010E94183269018B
:103380007A01F1E0CF1AD108E108F1082FEFC21657
:10339000D104E104F10411F008F010CF84E01FCF54
:1033A00083E01DCF62E17AE780E090E0A50194011F
:1033B0000E94183269017A0191E0C91AD108E10826
:1033C000F108AFEFCA16D104E104F104B1F0A8F09E
:1033D000D301C2014AE0B595A795979587954A957F
:1033E000D1F76C017D01E1E0CE1AD108E108F108C6
:1033F000332009F4F3CE87E026CF86E0DCCEBFEFA2
:10340000CB16D104E104F10409F060F684E0D3CED8
:1034100082E019CF0F900F900F900F90DF91CF9116
:103420001F910F91FF90EF90DF90CF90BF90AF90E2
:103430009F908F907F906F905F904F903F900895F6
:103440000F931F93CF93DF938C01C0E0D0E0F8017E
:10345000EC0FFD1F6491662371F0E0910706F09177
:1034600008060190F081E02D87E096E00995892B10
:1034700011F02196ECCFCE01DF91CF911F910F91EA
:103480000895CF93DF930E94201AEC018DE094E021
:103490000E9435188C0F9D1FDF91CF910895909158
:1034A0000B07E0910C07F0910D07F8948181292F0B
:1034B00020958223818378948DE743E050E081500A
:1034C00021F1DA011197F1F730813923C1F3F89432
:1034D0008281822382838181892B81837894ABE7E7
:1034E000B7E01197F1F7F894818128232183A3E1B4
:1034F000B1E01197F1F78081982381E009F080E035
:103500007894E3E6F6E03197F1F7089590910B0790
:10351000E0910C07F0910D07392F309580FF13C013
:10352000F8942281832F822382838181892B818356
:10353000A3E2B0E01197F1F78281982B92837894FF
:1035400087ED90E012C0F8942281832F822382833A
:103550008181892B8183AFEFB0E01197F1F78281F0
:10356000982B928378948FE090E00197F1F708957B
:103570000F931F93CF93DF93082FC8E0D0E011E0A3
:1035800081E0912F902309F480E00E94861A110FA8
:103590002197B1F7F894E0910C07F0910D07918114
:1035A00080910B07809598239183E0910C07F0910F
:1035B0000D079281892382837894DF91CF911F91A7
:1035C0000F91089580910B07E0910C07F0910D0782
:1035D000F8949181982B91832281982F909529239B
:1035E0002283A7E0B0E01197F1F721819223918324
:1035F000A3E2B0E01197F1F790817894EFECF0E05E
:103600003197F1F7982381E009F480E008950F9352
:103610001F93CF93DF9308E010E0D1E0C0E00E9459
:10362000E21A8111CD2BDD0F01501109C1F78C2F4A
:10363000DF91CF911F910F910895CF93DF93FC01FC
:10364000448155816081718187E096E00E94230169
:10365000EC018DE094E00E9435188C0F9D1FDF91E6
:10366000CF9108958F929F92AF92BF92CF92DF92A7
:10367000EF92FF920F931F93CF93DF93CDB7DEB7F7
:10368000A1970FB6F894DEBF0FBECDBF6C01990FA6
:10369000EE08FF08F7FE31C0E0910706F09108063A
:1036A0000190F081E02D6DE287E096E009958C01B4
:1036B00022273327A9012C193D094E095F0919A2B8
:1036C000CE0181967C019AE0892E912CA12CB12CFF
:1036D000CA01B901A50194010E94F631605DF701AC
:1036E00062937F01211531054105510589F7CF010D
:1036F0000E943518080F191F1EC0A701960119A2B4
:103700008E010F5D1F4F8AE0C82ED12CE12CF12CC9
:10371000CA01B901A70196010E94F631605DF80166
:1037200062938F01211531054105510589F7CF01BC
:103730000E9435188C018DE094E00E943518800FAE
:10374000911FA1960FB6F894DEBF0FBECDBFDF91DB
:10375000CF911F910F91FF90EF90DF90CF90BF908E
:10376000AF909F908F9008958F929F92AF92BF924B
:10377000CF92DF92EF92FF920E9488054B015C018D
:1037800088EEC82E83E0D82EE12CF12C0E9488050B
:10379000DC01CB0188199909AA09BB09883E93402D
:1037A000A105B10558F021E0C21AD108E108F108DD
:1037B00088EE880E83E0981EA11CB11CC114D104B0
:1037C000E104F10419F7FF90EF90DF90CF90BF90E4
:1037D000AF909F908F9008952091F8059091F705F4
:1037E000213208F04AC08091D4058111FCCF32E02B
:1037F0003093D40531E03093D3053FEF3093D205B9
:103800001092D1052093D005A7EDB5E040EB55E02F
:10381000FA013E2F341B321718F43D913193F9CF42
:103820001092AF052091AF05990F922B9093AF05A1
:103830009091AE05913061F41092AE059091AF0574
:103840009093BB009091BC0093FDF8CF95EC01C024
:1038500095EE9093BC009091D4059230E1F3909155
:10386000D2059F3F79F08091D205803241F080915E
:10387000D205803331F084E005C081E003C082E0EE
:1038800001C083E01092D6051092F8051092D5057C
:103890000895DF92EF92FF920F931F93CF93DF93E0
:1038A00000D0CDB7DEB7F82E162F81E08093D50576
:1038B00088E68093F7051092D6051092F80560E02F
:1038C00084EA96E02A8349830E941E0B8AE0D82E60
:1038D0004981842F6D2D0E94D631692F30E1839F5D
:1038E000600D112484EA96E00E941E0B812F6D2D3D
:1038F0000E94D631692F30E1839F600D112484EA44
:1039000096E00E941E0B8F2D6D2D0E94D631692FDF
:1039100030E1839F600D112484EA96E00E941E0B23
:1039200061E084EA96E00E941E0B2A81822F6D2DB1
:103930000E94D631692F20E1829F600D112484EA14
:1039400096E00E941E0B802F6D2D0E94D631692FAC
:1039500030E1839F600D112484EA96E00E941E0BE3
:103960008E2D6D2D0E94D631692F20E1829F600D32
:10397000112484EA96E00E941E0B60E084EA96E03F
:103980000E941E0B0F900F90DF91CF911F910F910E
:10399000FF90EF90DF900C94EC1BCF93DF93CDB7AB
:1039A000DEB7C856D1090FB6F894DEBF0FBECDBF43
:1039B000789484B5826084BD84B5816084BD85B50A
:1039C000826085BD85B5816085BD80916E00816016
:1039D00080936E00109281008091810082608093BC
:1039E00081008091810081608093810080918000BE
:1039F0008160809380008091B10084608093B100E9
:103A00008091B00081608093B00080917A008460E2
:103A100080937A0080917A00826080937A0080910E
:103A20007A00816080937A0080917A008068809328
:103A30007A001092C10061E085E00E94ED0460E030
:103A400085E00E94BD04109211041092100410929F
:103A5000D6051092F8051092D40581E08093D30525
:103A60001092AE0561E082E10E94BD0461E083E155
:103A70000E94BD048091B9008E7F8093B90080912F
:103A8000B9008D7F8093B90088E48093B80085E405
:103A90008093BC00E0911706F091180682E08083C5
:103AA000E0911306F09114061082E0911506F09152
:103AB000160680E1808310921F06E0911B06F091AC
:103AC0001C0686E08083E0911906F0911A06808139
:103AD00080618083E0911906F0911A0680818860E8
:103AE0008083E0911906F0911A06808180688083B6
:103AF000E0911906F0911A0680818F7D808383E31F
:103B000098E0909349018093480181EE97E090936B
:103B10001B0180931A019093AC018093AB0180EF5D
:103B200090E090937C0180937B0181E090E00E9483
:103B30004C0D8C3019F088E190E002C08CE090E0F0
:103B40009093B6018093B50180E090E00E944C0D07
:103B5000882321F081E08093600102C0109260010F
:103B600082E090E00E944C0D8F3F29F41092AE014C
:103B70001092AD0105C090E09093AE018093AD012D
:103B800083E090E00E944C0D8F3F29F41092B00129
:103B90001092AF0105C090E09093B0018093AF0107
:103BA00084E090E00E944C0D8F3F29F41092B20106
:103BB0001092B10105C090E09093B2018093B101E1
:103BC00086E090E00E944C0D8F3F29F41092B401E2
:103BD0001092B30105C090E09093B4018093B301BB
:103BE00087E090E00E944C0D8F3F19F41092C704BB
:103BF00006C091E0811101C090E09093C7048BE072
:103C000090E00E944C0D8F3F29F41092B801109261
:103C1000B70105C090E09093B8018093B7018CE0A4
:103C200090E00E94553060968FAF60978DE090E0F5
:103C30000E94553061968FAF619761968EAD9FADB2
:103C400061978F3F910529F41092BA011092B90142
:103C500004C09093BA018093B9018EE090E00E9475
:103C60004C0D8F3F29F090E09093BC018093BB01F5
:103C70008FE090E00E944C0D8F3F29F090E09093F0
:103C8000BE018093BD0180E190E00E944C0D8F3F0A
:103C900029F090E09093C0018093BF0161E089E03A
:103CA0000E94ED0461E086E00E94ED0461E083E0A3
:103CB0000E94ED0480913F04833008F083C092E0BD
:103CC00090930506E82FF0E0E254FF4FE491E09373
:103CD00006068F5F80933F04E13031F1E23009F452
:103CE0004AC0E11172C014BC15BC84B5826084BDA9
:103CF00085B5816085BD8091050690E0FC01ED539E
:103D0000FE4FE491F0E0EE0FFF1FEC54FF4F2591C2
:103D1000349130931A0420931904FC01E952FE4FA8
:103D2000E491E093180451C0109280001092810039
:103D30008091810088608093810080918100816002
:103D4000809381008091050690E0FC01ED53FE4FC9
:103D5000E491F0E0EE0FFF1FEC54FF4F25913491FA
:103D60003093170420931604FC01E952FE4FE491AE
:103D7000E09315042AC01092B0001092B100809117
:103D8000B00082608093B0008091B1008160809328
:103D9000B1008091050690E0FC01ED53FE4FE491E7
:103DA000F0E0EE0FFF1FEC54FF4F2591349130935C
:103DB000140420931304FC01E952FE4FE491E093B4
:103DC000120403C08FEF809306068091000190914A
:103DD00001010E94B013909301018093000161E002
:103DE0008AE00E94ED0461E088E00E94ED0460E05A
:103DF00088E00E94BD041FB7F894809140048111AF
:103E000027C0EDECF1E08491E1EEF1E09491E82F30
:103E1000F0E0EE0FFF1FEF53FF4FA591B491EC912F
:103E2000E92321F461E08AE00E94BD0461E08AE0B8
:103E30000E94ED048CB580618CBD8CB580648CBD16
:103E400061E08DE00E94ED0461E08BE00E94ED04F2
:103E5000809140048F5F809340041FBF8CB5837FA7
:103E600088608CBD8CB58C7F81608CBD8DB5816088
:103E70008DBD62E08EE00E94ED0462E080E10E9470
:103E8000ED0462E08FE00E94ED0461E082E00E94B8
:103E9000ED0404E110E020E030E00093E906109327
:103EA000EA062093EB063093EC064EE150E060E02A
:103EB00070E04093ED065093EE066093EF0670932A
:103EC000F00680ED97E0A0E0B0E08093F1069093DB
:103ED000F206A093F306B093F4060093D006109375
:103EE000D1062093D2063093D3064093D406509344
:103EF000D5066093D6067093D7068093D806909324
:103F0000D906A093DA06B093DB060093B7061093A8
:103F1000B8062093B9063093BA064093BB06509377
:103F2000BC066093BD067093BE068093BF06909357
:103F3000C006A093C106B093C206809118078111F4
:103F400004C00E944F1A811113C0109216071092DC
:103F500018071092170787E191E00E94411A10920A
:103F600016071092180710921707E6E1F7E058C0FD
:103F700080EF0E94B81A01E0F12CE12C11E00E94C0
:103F8000E21AA8968FAFA8970E94E21AA8969FAD52
:103F9000A897913019F48130C1F435C02F2D30E04D
:103FA00098131DC080911607181738F4F901E55FC2
:103FB000F84F8381802349F402C0181731F090E054
:103FC000193060F41093170709C0EF2DF0E0E55F9A
:103FD000F84F8381802B838391E009C0E12EF901A2
:103FE000E55FF84F2381802F809582238383892F7B
:103FF0000E94861A1F5F000F11F4F39401E027E07E
:104000002F1508F0BCCF113408F49FCFE0921607AB
:10401000E1100C946F2D81E0809318070C946F2DA4
:10402000129297E0EE30F907D9F780911B048823AC
:1040300009F451C00E944F1A85E50E94B81A01E5A3
:1040400014E058E0F52EF00EF80181918F010E94E6
:10405000B81AF012F9CF8EEB0E94B81A05E414E0FA
:1040600049E0F42EF00E0E94071BF80181938F01A6
:10407000FE12F9CF6091460470E0762F662780919A
:104080004504682B072E000C880B990B0E94382FD3
:1040900020E030E040E85DE30E94972F6B017C0157
:1040A0000E949B31709344046093430426E636E6F5
:1040B00046EE5FE3C701B6010E94972F20E030E093
:1040C00040E052E40E94BD300E949B317093420454
:1040D0006093410404C0109244041092430488EE9B
:1040E00090E00E94201A25E030E042E050E069E1D3
:1040F00077E0CE0101966C010E94F60322E030E0E9
:1041000041E050E069E177E0CE01875B9F4F0E947C
:10411000F603BE01675B7F4FCE018D5B9F4F0E9410
:10412000D80363E373E0CE018D5B9F4F0E94FF02D3
:10413000B6010E9418030E941D1BCE018D5B9F4F8C
:104140000E947A03CE01875B9F4F0E947A03C601CB
:104150000E947A038DED90E00E94411A8091000147
:104160009091010190933204809331040E94B01326
:104170006FEF70E089E00E9429050E94B41B60E0A7
:1041800070E089E00E9429056FEF70E086E00E94F0
:1041900029050E94B41B60E070E086E00E942905BA
:1041A0006FEF70E083E00E9429050E94B41B65E375
:1041B00073E0C6010E94E1036EE373E0CE0107964F
:1041C0000E94E10367E473E0CE010D960E94E103D3
:1041D00060E573E0CE0143960E94E10369E573E078
:1041E000CE0149960E94E10362E673E0CE014F964C
:1041F0000E94E1036BE673E0CE0185960E94E10325
:1042000064E773E0CE018B960E94E1036DE773E0F3
:10421000CE01C1960E94E10366E873E0CE01C79625
:104220000E94E1036FE074E0CE01CD960E94E103AD
:1042300069E177E0CE018D5B9F4F0E94D8036BE36D
:1042400073E0CE018D5B9F4F0E94FF02BC01CE0147
:10425000CD960E946303CE018D5B9F4F0E947A032F
:1042600085ED90E00E94201A8091430490914404CF
:104270000E94321B0E94AD054B015C01E8EE8E0EE0
:10428000E3E09E1EA11CB11C00E01FEF94EFE92E9D
:10429000FF24F39426E0722E8FE00E949404892B71
:1042A00009F401E080E10E949404892B09F400E004
:1042B0000E94AD05DC01CB0188199909AA09BB0947
:1042C00097010F2C000C440B550B281739074A0790
:1042D0005B07E8F40E94AD054B015C01011101C0D0
:1042E0001F5F1A3019F01B3029F414C088EBE82E38
:1042F0008BE0F82EB601719E600D711D11248FEFB9
:1043000096E00E9463038FEF96E00E941D1B0E94BF
:104310004E0DC2CF8BEC90E00E94411A8E010D5BD6
:104320001F4F06501109C8010E947A030C151D0584
:10433000C1F70E94AC1400913704109138040E9418
:10434000AD054B015C0181E08093CF041127809182
:1043500037049091380408171907A9F40E94AC1487
:104360000E94AD05DC01CB0188199909AA09BB0996
:10437000893B9B40A105B10550F38BEF90E00E9473
:10438000411A1092CF0460903D04F0903E0470906A
:104390003B0410913C048090390430913A04909091
:1043A000370450913804A090350470913604B090D1
:1043B0003304E62C072D282D492D6A2D8B2D909145
:1043C00034040E944F0760E085E00E94BD04282D60
:1043D000492D6A2D8B2D0E94491C61E085E00E94C9
:1043E000BD04B8EE2B2EB3E03B2E0E94AD0520E6B7
:1043F0003AEE40E050E00E94F631672B682B692BC3
:1044000029F48091CF0481110C94842D0091310402
:1044100010913204F8018081882309F431C10E948F
:10442000AD0580905F0490906004A0906104B0900E
:104430006204DC01CB0188199909AA09BB098090A3
:104440005B0490905C04A0905D04B0905E048816BC
:104450009906AA06BB0608F013C10E94AD054B01E0
:104460005C0160935F047093600480936104909397
:1044700062041092210410922004C8016AE08C01A9
:10448000FC01F080019640ED4F0D20912004309109
:1044900021044A3080F4629FA001639F500D1124D3
:1044A000EF2DFF0CFF0BF097E40FF51FF0932104A5
:1044B000E0932004E4CF60911C0470911D0480916E
:1044C0001E0490911F042115310529F0032E000CC4
:1044D000440B550B05C020915F0130E040E050E0F7
:1044E0000E94183220935B0430935C0440935D0477
:1044F00050935E048F2DFF0C990BAA0BBB0BFC0194
:10450000E156F109E730F10520F4EC5CFF4F0C9423
:10451000373210925A040FC081E00BC083E009C00B
:1045200085E007C086E005C088E003C08AE001C0DE
:104530008CE080935A04F8018181833219F00F5F77
:104540001F4F07C080915A048F5F80935A040E5FFB
:104550001F4FF80180818E32F1F440905B0450903F
:104560005C0460905D0470905E04C301B20122E0BF
:1045700030E040E050E00E941832420E531E641EAC
:10458000751E40925B0450925C0460925D047092D0
:104590005E040F5F1F4FF801808180538A3028F43A
:1045A000809359040F5F1F4F04C080915E01809378
:1045B000590420915904F80180818C3211F40F5F65
:1045C0001F4F40915A04442309F45AC040905B04A1
:1045D00050905C0460905D0470905E0430E0245064
:1045E00031095CE0529FC001539F900D1124FC01E2
:1045F000E40FF11DEE0FFF1FE152FE4FB301A201C8
:10460000808191810E9447180E94AD05DC01CB0199
:1046100088199909AA09BB09481659066A067B0632
:1046200078F50E94AD0560935F04709360048093F9
:1046300061049093620480910606813051F08230CB
:1046400071F0811111C080916E008D7F80936E009A
:104650000BC080916F008D7F80936F0005C08091AB
:1046600070008D7F8093700060E0809105060E944D
:10467000BD048FE291E00E94411A90E080E002C008
:10468000902F812F90933104809332040E94AD05C6
:104690000091CB041091CC042091CD043091CE0434
:1046A000DC01CB01801B910BA20BB30B0697A1057C
:1046B000B10508F4DAC080916001882331F080915F
:1046C000BF019091C001009781F460E070E089E043
:1046D0000E94290560E070E086E00E94290560E004
:1046E00070E083E00E942905B6C02091B804211132
:1046F00043C09C012F5F3F4F409161015091620187
:10470000249FC001259F900D349F900D112464E6D5
:1047100070E00E94E23189E00E9429052091BF01EA
:104720003091C0012F5F3F4F4091BF045091C004B2
:10473000249FC001259F900D349F900D112464E6A5
:1047400070E00E94E23186E00E9429052091BF01BD
:104750003091C0012F5F3F4F4091BD045091BE0486
:10476000249FC001259F900D349F900D112464E675
:1047700070E00E94E2310CC060E070E089E00E94CD
:10478000290560E070E086E00E94290560E070E0A5
:1047900083E00E9429058091C70481115CC02091AB
:1047A000650430916604C901880F991F820F931F19
:1047B000FC01EE0FFF1FEF5BFD4F609161017091F7
:1047C000620140815181460F571F5093620140930F
:1047D0006101FC01EE0FFF1FED5BFD4F6091BF0417
:1047E0007091C00440815181460F571F5093C004FF
:1047F0004093BF04880F991FFC01EB5BFD4F409174
:10480000BD045091BE0480819181840F951F9093C7
:10481000BE048093BD04809163049091640401966A
:1048200090936404809363048F3F910551F42F5F4C
:104830003F4F3093660420936504109264041092F5
:1048400063048091650490916604069724F01092A9
:104850006604109265040E94AD056093CB047093CA
:10486000CC048093CD049093CE0480912F0490913A
:104870003004892B21F08091CA0481110FC28091EC
:104880002E0481110BC28091BB019091BC01892B38
:1048900009F404C28091790481110DC00E94AD0514
:1048A00060937504709376048093770490937804F2
:1048B00081E08093790480916D0481110DC00E9484
:1048C000AD056093690470936A0480936B049093C0
:1048D0006C0481E080936D040E94AD050091750425
:1048E000109176042091770430917804DC01CB019B
:1048F000801B910BA20BB30B0091B0061091B10677
:104900002091B2063091B306081719072A073B0712
:1049100008F064C00E94AD0560937504709376043E
:1049200080937704909378044091670450916804D1
:104930004115510519F481E090E005C04130510561
:10494000F1F484E090E09093300480932F04209160
:10495000BD013091BE01229DC001239D900D329D6D
:10496000900D1124092E000CAA0BBB0B8093B006EE
:104970009093B106A093B206B093B30617C042302D
:104980005105A1F41092300410922F04A091BB01A4
:10499000B091BC0120E63AEE0E943D326093B00631
:1049A0007093B1068093B2069093B306CA01019644
:1049B000833091052CF4909368048093670404C0BD
:1049C00010926804109267048091CA04882321F031
:1049D0001092300410922F041092CA040E94AD0568
:1049E0000091750410917604209177043091780439
:1049F000DC01CB01801B910BA20BB30B803D9740D8
:104A0000A105B10508F048C10E94AD0500916904F7
:104A100010916A0420916B0430916C04DC01CB018D
:104A2000801B910BA20BB30B85369105A105B10537
:104A300008F434C10E94AD056093690470936A0460
:104A400080936B0490936C0480912F0490913004B8
:104A5000892B91F5CE018D5B9F4F0E944B1781E012
:104A60002091B7013091B801232B09F480E00E9416
:104A7000AD0FAB01BC0120E0C6010E944910AE01A0
:104A80004D5B5F4FB601CE01875B9F4F0E9497122F
:104A9000BE01675B7F4F8FEF96E00E94B402CE01AC
:104AA000875B9F4F0E947A03C6010E947A03CE0162
:104AB0008D5B9F4F0E947A0380912F049091300468
:104AC000019709F06AC00E94A809B1010E94E23171
:104AD000BC01CE018B5A9F4F0E947F150E94B209E4
:104AE000BC01CE01815B9F4F0E947F150E94BA09D5
:104AF000BC01CE018D5B9F4F0E947F15BE016D5B97
:104B00007F4FCE01875B9F4F0E94D803BE01615B40
:104B10007F4FCE01875B9F4F0E941803BE016B5AE7
:104B20007F4F0E941803BC01CE01855A9F4F0E94FF
:104B3000D803C6010E944B17AE01455A5F4FB6011C
:104B4000CE018F599F4F0E949712BE016F597F4F20
:104B50008FEF96E00E94B402CE018F599F4F0E94C2
:104B60007A03C6010E947A03CE01855A9F4F0E94A4
:104B70007A03CE01875B9F4F0E947A03CE018D5B43
:104B80009F4F0E947A03CE01815B9F4F0E947A0360
:104B9000CE018B5A9F4F0E947A0380912F049091EF
:104BA0003004049709F07AC081E02091B701309178
:104BB000B801232B09F480E00E94AD0FAB01BC01CA
:104BC00020E0CE01855A9F4F0E9449100E94A809FB
:104BD000B1010E94E231BC01CE01815B9F4F0E9476
:104BE0007F150E94B209BC01CE01875B9F4F0E94D6
:104BF0007F150E94BA09BC01C6010E947F15B6014B
:104C0000CE018D5B9F4F0E94D803BE01675B7F4F33
:104C1000CE018D5B9F4F0E941803BE01615B7F4FE9
:104C20000E941803BC01CE018B5A9F4F0E94D803EB
:104C3000AE01455A5F4FBE016B5A7F4FCE018F596F
:104C40009F4F0E949712BE016F597F4F8FEF96E0E2
:104C50000E94B402CE018F599F4F0E947A03CE0169
:104C60008B5A9F4F0E947A03CE018D5B9F4F0E940B
:104C70007A03C6010E947A03CE01875B9F4F0E9490
:104C80007A03CE01815B9F4F0E947A03CE01855A41
:104C90009F4F0E947A0302C0109224040E944E0D7E
:104CA00086EE96E00E94DA098DEC96E00E94DA0921
:104CB00084EB96E00E94DA0980912E04811105C0F0
:104CC00010922D0410922C0430C00E94AD0500916A
:104CD00028041091290420912A0430912B04DC012E
:104CE000CB01801B910BA20BB30B81369A4EA10511
:104CF000B105D8F010922E04E0912F04F091300409
:104D0000EE0FFF1FEF53FD4F808191819093300490
:104D100080932F04880F991FFC01ED59FE4F80816D
:104D2000918190932D0480932C048091E6069091BC
:104D3000E706181619060CF085C181E08093CA04B5
:104D4000109232041092310444E650E060E070E0CA
:104D500088EE93E00E9447180E94AD0560932804F6
:104D60007093290480932A0490932B0480912F043C
:104D70009091300401968730910529F0909330048A
:104D800080932F0404C01092300410922F0484E802
:104D900091E00E94201A80912F04909130040E948B
:104DA000321B8DE791E00E94201AE0912F04F091D0
:104DB0003004EE0FFF1FED56FE4F808191810E945F
:104DC000321B20912F0430913004F901EE0FFF1FA8
:104DD000ED59FE4F8081918190932D0480932C0496
:104DE00021503109F901EE0FFF1FED56FD4F4081B3
:104DF00051814115510509F411C1CA010197FC0106
:104E0000EE0FFF1FEB59FD4F608171816217730731
:104E100009F004C14230510569F528E1E7ECF1E001
:104E2000D60101900D922A95E1F72091AB013091C6
:104E3000AC0123703327232B21F42DE130E03C8398
:104E40002B832091A7013091A801E091A901F09155
:104E5000AA013197EE0FFF1FEC0DFD1D408151811E
:104E6000421753073CF48AE090E09093300480931B
:104E70002F0431C610922E049093300480932F0497
:104E800083E691E00E94201A80912F0490913004D3
:104E90000E94321B80912F0490913004892BB9F429
:104EA0000E94A8097C010E94B2098C010E94BA09E3
:104EB0009C014091A5015091A6016091A3017091C0
:104EC000A4018091A1019091A2010E944F078091BD
:104ED0002F04909130040197C9F4E090AB01F09059
:104EE000AC010091A9011091AA016090A7017090F6
:104EF000A8010E94C2094C010E94CA095C010E94DB
:104F0000D2099301A401B5010E944F0780912F049B
:104F1000909130040297C1F46091AD0182E090E07D
:104F20000E944A0D6091AF0183E090E00E944A0D1B
:104F30006091B10184E090E00E944A0D6091B3015C
:104F400086E090E00E944A0D80912F0490913004F9
:104F5000039731F46091B50181E090E00E944A0D21
:104F600080912F0490913004049731F46091B7013F
:104F70008BE090E00E944A0D80912F0490913004C4
:104F8000049709F4E3C580912F04909130040597AC
:104F900061F46091BB018EE090E00E944A0D609147
:104FA000BD018FE090E00E944A0D80912F04909106
:104FB0003004069731F46091BF0180E190E00E94D7
:104FC0004A0D60E085E00E94BD040E94A8097C01B2
:104FD0000E94B209082F0E94BA09A9968FAFA9971B
:104FE0000E94C209A8968FAFA8970E94CA09182FDD
:104FF0000E94D209382FC701B1010E94E231E82E88
:10500000A9962FADA997A8964FADA897612F832F8A
:105010000E94491C61E085E00E94BD0400912F04BC
:10502000109130040331110569F080912C049091A6
:105030002D040E944114000F111FF801ED56FE4F80
:10504000918380838091E6069091E70697FFA5C043
:1050500044E650E060E070E088EE93E00E9447187C
:1050600080912E04811155C00E94AD0560932804E3
:105070007093290480932A0490932B0480912F0429
:1050800090913004892B09F044C00E94C209BC01F0
:10509000C6010E947F150E94CA09BC01CE018D5B2A
:1050A0009F4F0E947F150E94D209BC01CE01815BF7
:1050B0009F4F0E947F15BE01615B7F4FCE01875BD2
:1050C0009F4F0E94D803BE016D5B7F4FCE01875B6F
:1050D0009F4F0E941803B6010E9418036BE373E010
:1050E0000E94FF02BC018FEF96E00E946303CE0195
:1050F000875B9F4F0E947A03CE01815B9F4F0E9486
:105100007A03CE018D5B9F4F0E947A03C6010E94F5
:105110007A03E0912F04F0913004EE0FFF1FEF535C
:10512000FD4F808191819093300480932F0485E519
:1051300091E00E94201A80912F04909130040E94E7
:10514000321B20912F04309130042D30310549F469
:1051500081E090E09093B4018093B30180E8809364
:10516000270490912E0481E0892780932E048901E1
:10517000000F111FF801ED59FE4F8081918190932E
:105180002D0480932C042231310539F00E94411402
:10519000F801ED56FE4F918380838091CD0690916A
:1051A000CE06009719F19093C9048093C80418168D
:1051B0001906E4F481E08093CA041092320410923C
:1051C000310444E650E060E070E088EE93E00E9435
:1051D00047180E94EF1680912E04811107C010928B
:1051E000C70460E087E090E00E944A0D8091C80407
:1051F0009091C904019661F58091CF06882341F111
:105200001092260480912E04882329F10E94AD0576
:105210000091C3041091C4042091C5043091C604C8
:10522000DC01CB01801B910BA20BB30B87399105DD
:10523000A105B10580F00E94AD056093C304709391
:10524000C4048093C5049093C6040E94EF1603C063
:1052500081E0809326048091B4069091B506009772
:10526000A9F19093C2048093C1041816190674F52D
:1052700011E01093CA04109232041092310444E6F3
:1052800050E060E070E088EE93E00E9447180E94D2
:10529000931680912E04811119C01093C70461E008
:1052A00087E090E00E944A0D6091610188E090E003
:1052B0000E944A0D6091BF0489E090E00E944A0D6F
:1052C0006091BD048AE090E00E944A0D8091C10483
:1052D0009091C204019661F58091B606882341F150
:1052E0001092250480912E04882329F10E94AD0597
:1052F0000091B9041091BA042091BB043091BC0410
:10530000DC01CB01801B910BA20BB30B87399105FC
:10531000A105B10580F00E94AD056093B9047093BA
:10532000BA048093BB049093BC040E94931603C0FC
:1053300081E08093250480912E0481114BC08091DF
:10534000CD069091CE0697FF2CC044E650E060E079
:1053500070E088EE93E00E94471881E0809360013E
:1053600061E080E090E00E944A0D8EE491E00E94AE
:10537000411A88E090E00E944C0D682F89E00E945D
:10538000BD0489E090E00E944C0D682F86E00E94E9
:10539000BD048AE090E00E944C0D682F83E00E94DB
:1053A000BD048091B4069091B50697FF13C044E602
:1053B00050E060E070E088EE93E00E9447181092A1
:1053C000600160E080E090E00E944A0D86E491E098
:1053D0000E94411AE0912F04F0913004E731F10569
:1053E00008F079C3E55CFF4F0C9437321092B80493
:1053F0008091240481112FC00E94AD050091810489
:10540000109182042091830430918404DC01CB014B
:10541000801B910BA20BB30B0B97A105B10570F08C
:105420000E94AD056093810470938204809383048D
:1054300090938404C6010E944B1705C06FEF76E07D
:10544000C6010E94D803B6018FEF96E00E94B40215
:10545000C6010E947A0380918A0481110DC00E94C6
:10546000AD056093860470938704809388049093BD
:10547000890481E080938A040E94AD05009186042E
:10548000109187042091880430918904DC01CB01BC
:10549000801B910BA20BB30B893E9340A105B10574
:1054A00008F4F4C00E94AD056093860470938704ED
:1054B00080938804909389049091850481E08927E2
:1054C00080938504882311F080ECDEC010922704BD
:1054D000DDC0809124048111D6C08091A404811183
:1054E0000DC00E94AD056093A0047093A104809349
:1054F000A2049093A30481E08093A4048091980473
:10550000811146C00E94A809B1010E94E231BC018C
:10551000C6010E947F150E94B209BC01CE018D5BBD
:105520009F4F0E947F150E94BA09BC01CE01815B8A
:105530009F4F0E947F15BE01615B7F4FCE01875B4D
:105540009F4F0E94D803BE016D5B7F4FCE01875BEA
:105550009F4F0E941803B6010E941803BC0182E904
:1055600094E00E94D80381E080939804CE01875B89
:105570009F4F0E947A03CE01815B9F4F0E947A0366
:10558000CE018D5B9F4F0E947A03C6010E947A0371
:105590000E94AD050091A0041091A1042091A204E5
:1055A0003091A304DC01CB01801B910BA20BB30B48
:1055B000893E9340A105B10508F458C00E94AD058D
:1055C0006093A0047093A1048093A2049093A30419
:1055D0000E94A8097C010E94B209BC01CE018D5B2A
:1055E0009F4F0E947F150E94BA09BC01CE01815BCA
:1055F0009F4F0E947F15BE01615B7F4FCE01875B8D
:105600009F4F0E94D803BE016D5B7F4FCE01875B29
:105610009F4F0E9418038C014AE0B601C7010E9407
:10562000BA2EF60101900020E9F73197AF014C192D
:105630005D09B601C8010E948602811103C0C8013C
:105640000E94ED02B80182E994E00E946303CE015A
:10565000875B9F4F0E947A03CE01815B9F4F0E9420
:105660007A03CE018D5B9F4F0E947A0362E974E05A
:10567000C6010E94D803B6018FEF96E00E94B402E3
:10568000C6010E947A0380E8809327040E944F138A
:1056900010922304109222041EC26091B1017091F5
:1056A000B201C6010E947F156091AF017091B001F7
:1056B000CE018D5B9F4F0E947F156091AD0170916F
:1056C000AE01CE01815B9F4F0E947F15BE01615BE1
:1056D0007F4FCE01875B9F4F0E94D803BE016D5B59
:1056E0007F4FCE01875B9F4F0E941803B6010E9437
:1056F00018036BE373E00E94FF02BC018FEF96E09A
:105700000E946303CE01875B9F4F0E947A03CE0104
:10571000815B9F4F0E947A03CE018D5B9F4F0E9459
:105720007A03C6010E947A038091B3019091B4017B
:10573000019781F580E8809327042EC06091B50120
:105740007091B6014AE0C6010E94AC036BE373E0BE
:10575000CE018D5B9F4F0E94E103B601CE018D5BB0
:105760009F4F0E94180369E373E00E94FF02BC018F
:105770008FEF96E00E946303CE018D5B9F4F0E94E6
:105780007A03C6010E947A038FEC90E09093230481
:1057900080932204109227040E944F139CC1809191
:1057A000240481112FC081E02091B7013091B8010C
:1057B000232B09F480E00E94AD0FAB01BC0120E077
:1057C000C6010E944910B6018FEF96E00E94B40214
:1057D000C6010E947A038091B7019091B801892B8C
:1057E00041F487EC90E0909323048093220480E8B6
:1057F00007C08FE890E0909323048093220480EC0C
:105800008093270481E02091B7013091B8013BC01B
:1058100081E02091B7013091B801232B09F480E099
:105820000E94AD0FAB01BC0121E0C6010E944910EE
:10583000B6018FEF96E00E94B402C6010E947A037F
:105840002091B7013091B8012115310561F487E04D
:1058500090E0909323048093220480E880932704AF
:1058600083E090E00BC083E890E090932304809362
:10587000220480EC8093270480E390E090932D0431
:1058800080932C0481E0232B09F480E00E94AD0F6B
:1058900020E030E0A9010E94312F9091270487FF7A
:1058A00002C09F7701C090689093270414C11092A2
:1058B0002304109222040E94AD05645D7E4F8F4F39
:1058C0009F4F28EE33E040E050E00E94F63124E69E
:1058D00030E040E050E00E94F631BA01A9012AE030
:1058E000C6010E947F030E94AD0568537F4F8F4F12
:1058F0009F4F28EE33E040E050E00E94F63124E66E
:1059000030E040E050E00E94F631BA01A9012AE0FF
:10591000CE018D5B9F4F0E947F030E94AD056C59A5
:105920007F4F8F4F9F4F28EE33E040E050E00E94C2
:10593000F63124E630E040E050E00E94F631BA0152
:10594000A9012AE0CE01875B9F4F0E947F030E943E
:10595000AD0528EE33E040E050E00E94F63124E649
:1059600030E040E050E00E94F631BA01A9012AE09F
:10597000CE01815B9F4F0E947F036091BD017091BA
:10598000BE01CE018B5A9F4F0E947F156091BB01D3
:105990007091BC01CE018F599F4F0E947F15BE01AF
:1059A0006F597F4FCE01855A9F4F0E94D803BE0189
:1059B0006B5A7F4FCE01855A9F4F0E941803BE013C
:1059C000615B7F4F0E941803BE01675B7F4F0E949F
:1059D0001803BE016D5B7F4F0E941803B6010E9441
:1059E0001803BC018FEF96E00E946303CE01855A35
:1059F0009F4F0E947A03CE018F599F4F0E947A03D6
:105A0000CE018B5A9F4F0E947A03CE01815B9F4F3C
:105A10000E947A03CE01875B9F4F0E947A0353C096
:105A20008091B00481110DC00E94AD056093AC045B
:105A30007093AD048093AE049093AF0481E08093A3
:105A4000B0040E94AD050091AC041091AD0420910A
:105A5000AE043091AF04DC01CB01801B910BA20B93
:105A6000B30B8E349140A105B10580F00E94AD05C5
:105A70006093AC047093AD048093AE049093AF0434
:105A80009091B80481E089278093B8046091BF01A8
:105A90007091C001C6010E947F156BE373E0CE01D7
:105AA0008D5B9F4F0E94E103B601CE018D5B9F4F3E
:105AB0000E94180369E373E00E94FF02BC018FEFAC
:105AC00096E00E946303CE018D5B9F4F0E947A0394
:105AD000C6010E947A030E941F020C94F521809156
