:020000040000FA
:100000000C9489000C94B1000C94B1000C94B100D4
:100010000C94B1000C94B1000C94B1000C94631BCF
:100020000C94B1000C94B1000C94B1000C94B21B70
:100030000C94B1000C94B1000C940D1C0C94B10004
:100040000C94191B0C94B1000C94E71A0C94C11A6F
:100050000C94B1000C94B1000C94B1000C94B1005C
:100060000C94681C0C94B10057616B652075702C62
:10007000204E656F2100000000080002010000030F
:100080000407000000000000000000000000250040
:1000900028002B0002010000000000240027002A95
:1000A000004661756C74792044533332333121003A
:1000B0004453333233315F543D004669726D77618A
:1000C00072653A2000496E636F72726563742053E3
:1000D0006F6E6720466F726D617421000000000032
:1000E000230026002900040404040404040402027A
:1000F00002020202030303030303010204081020A7
:100100004080010204081020010204081020C01DD4
:100110001C2F11241FBECFEFD8E0DEBFCDBF13E0F0
:10012000A0E0B1E0E2EDF9E602C005900D92A03B3F
:10013000B107D9F726E0A0EBB3E001C01D92A43CC3
:10014000B207E1F710E0C8E8D0E004C02197FE0153
:100150000E94E633C738D107C9F70E94621E0C948B
:10016000DC340C9400008091AC06E091AD06F09177
:10017000AE06F8949181282F20959223918378944C
:100180003DE743E050E0315029F1DA011197F1F7F2
:1001900090819823C1F3F894928192239283918164
:1001A000982B91837894ABE7B7E01197F1F7F89427
:1001B000918192239183A3E1B1E01197F1F79081AE
:1001C000982381E009F080E07894E3E6F6E0319747
:1001D000F1F7089580E008959091AC06E091AD06A6
:1001E000F091AE06292F209580FF14C0F8948281EB
:1001F000822382838181892B8183A3E2B0E01197DE
:10020000F1F78281982B9283789487ED90E00197A3
:10021000F1F70895F8948281822382838181892B6A
:100220008183AFEFB0E01197F1F78281982B928331
:1002300078948FE090E0EBCF0F931F93CF93DF93F1
:10024000082FC8E0D0E011E081E0902F912309F45D
:1002500080E00E94EC00110F2197B1F7F894E09133
:10026000AD06F091AE0691818091AC068095982301
:100270009183E091AD06F091AE069281892382834D
:100280007894DF91CF911F910F9108958091AC06E2
:10029000E091AD06F091AE06F8949181982B918390
:1002A0002281382F309523232283A7E0B0E01197D5
:1002B000F1F7918193239183A3E2B0E01197F1F7D5
:1002C00090817894EFECF0E03197F1F7982381E09A
:1002D00009F480E008950F931F93CF93DF9308E014
:1002E00010E0C0E0D1E00E9446018111CD2BDD0F6E
:1002F00001501109C1F78C2FDF91CF911F910F9100
:1003000008958CBD9DBD0895089508950895AF92F8
:10031000BF92CF92DF92EF92FF920F931F93CF93F2
:10032000DF936C017B018B01040F151FEB015E0154
:10033000AE18BF08C017D10759F06991D601ED91E9
:10034000FC910190F081E02DC6010995892B79F788
:10035000C501DF91CF911F910F91FF90EF90DF903A
:10036000CF90BF90AF900895FC01538D448D252F01
:1003700030E0842F90E0821B930B541710F0CF963F
:10038000089501970895FC01918D828D981761F071
:10039000A28DAE0FBF2FB11D5D968C91928D9F5F88
:1003A0009F73928F90E008958FEF9FEF0895FC0167
:1003B000918D828D981731F0828DE80FF11D858D1A
:1003C00090E008958FEF9FEF0895FC01918D228DAD
:1003D000892F90E0805C9F4F821B91098F73992732
:1003E000089588EA95E00E94E50121E0892B09F44F
:1003F00020E0822F089580E090E0892B29F00E9470
:10040000F10181110C9400000895FC01A48DA80F46
:10041000B92FB11DA35ABF4F2C91848D90E0019646
:100420008F739927848FA689B7892C93A089B18966
:100430008C91837080648C93938D848D981306C007
:100440000288F389E02D80818F7D80830895EF926B
:10045000FF920F931F93CF93DF93EC0181E0888F7E
:100460009B8D8C8D98131AC0E889F989808185FF4E
:1004700015C09FB7F894EE89FF896083E889F989F0
:1004800080818370806480839FBF81E090E0DF91F2
:10049000CF911F910F91FF90EF900895F62E0B8D45
:1004A00010E00F5F1F4F0F731127E02E8C8D8E1100
:1004B0000CC00FB607FCFACFE889F989808185FF67
:1004C000F5CFCE010E940502F1CFEB8DEC0FFD2F91
:1004D000F11DE35AFF4FF0829FB7F8940B8FEA8922
:1004E000FB8980818062CFCF0F931F93CF93DF93DF
:1004F0008C01D0E0C0E0F801EC0FFD1F6491662391
:1005000041F088EA95E00E942702892B11F021969C
:10051000F2CFCE01DF91CF911F910F910895CF932C
:10052000DF93EC01888D8823B9F0AA89BB89E8891B
:10053000F9898C9185FD03C0808186FD0DC00FB6C1
:1005400007FCF7CF8C9185FFF2CF808185FFEDCF3F
:10055000CE010E940502E9CFDF91CF91089583304B
:1005600081F028F4813099F08230A9F00895873025
:10057000A9F08830C9F08430B1F4809180008F7D7B
:1005800003C0809180008F7780938000089584B5A8
:100590008F7784BD089584B58F7DFBCF8091B000A7
:1005A0008F778093B00008958091B0008F7DF9CF50
:1005B000CF93DF93282F30E0F901EA58FF4F849161
:1005C000F901E650FF4FD491F901EA51FF4FC49170
:1005D000CC23A1F081110E94AF02EC2FF0E0EE0FCE
:1005E000FF1FE452FF4FA591B491EC91ED2381E000
:1005F00090E009F480E0DF91CF91089580E090E0F1
:10060000FACF1F93CF93DF93282F30E0F901EA58F8
:10061000FF4F8491F901E650FF4FD491F901EA515F
:10062000FF4FC491CC23A9F0162F81110E94AF0275
:10063000EC2FF0E0EE0FFF1FE657FF4FA591B491AE
:100640008FB7F894EC91111108C0D095DE23DC939C
:100650008FBFDF91CF911F910895DE2BF8CFCF93FD
:10066000DF9390E0FC01E650FF4F24918A519F4FA9
:10067000FC0184918823C9F090E0880F991FFC0148
:10068000E956FF4FA591B491FC01E657FF4FC59184
:10069000D49161110DC09FB7F8948C91209582235D
:1006A0008C938881282328839FBFDF91CF91089561
:1006B000623051F49FB7F8943C91822F8095832348
:1006C0008C93E8812E2BEFCF8FB7F894EC912E2BE3
:1006D0002C938FBFEACF4F925F926F927F928F924F
:1006E0009F92AF92BF92CF92DF92EF92FF920F93C1
:1006F0001F93CF93DF9300D000D01F92CDB7DEB70A
:100700002091A70527FD2CC149835A836B837C83E5
:100710008C0161E08091A6050E942F038091A705BE
:100720008D834801B12CA12C8D7F09F031C160E08F
:1007300072E18AE790E0A50198010E94C733290180
:100740003A017A01690191E0C91AD108E108F1087A
:10075000AFEFCA16D104E104F10409F00CF4C7C0EC
:1007600060E472E48FE090E0A50198010E94C73335
:1007700069017A01B1E0CB1AD108E108F1088D8155
:10078000823009F06AC082E09FEFC916D104E1040B
:10079000F10409F00CF45EC160E970ED83E090E0D3
:1007A000A50198010E94C73369017A01A1E0CA1A24
:1007B000D108E108F10883E0BFEFCB16D104E104D2
:1007C000F10409F00CF446C168E478EE81E090E0B1
:1007D000A50198010E94C73369017A0181E0C81A16
:1007E000D108E108F10884E09FEFC916D104E104C3
:1007F000F10409F00CF42EC164E274EF80E090E0A3
:10080000A50194010E94C73369017A01B1E0CB1AB6
:10081000D108E108F10885E09FEFC916D104E10491
:10082000F10409F008F416C162E17AE780E090E093
:10083000A50194010E94C73369017A01B1E0CB1A86
:10084000D108E108F1088FEFC816D104E104F104E2
:1008500011F008F0F0C086E0FDC08FEFC816D1049B
:10086000E104F10409F00CF491C068E478EE81E051
:1008700090E0A50198010E94C73369017A0191E0D7
:10088000C91AD108E108F108AD8184E0A111C4CFF3
:1008900083E0AFEFCA16D104E104F10461F15CF129
:1008A00062E17AE780E090E0A50194010E94C733FD
:1008B00069017A0181E0C81AD108E108F10884E0F1
:1008C0009FEFC916D104E104F104A9F0A0F073016F
:1008D00062019AE0F594E794D794C7949A95D1F77A
:1008E000A1E0CA1AD108E108F10885E004C081E05E
:1008F000AD81A111AFC095B5987F892B85BD898148
:100900009A81AB81BC812FEF3FEFA901892B8A2B04
:100910008B2B79F0D801AA0FBB1F29813A814B811B
:100920005C810E941A3228EE33E040E050E00E94E1
:10093000A5339D81913009F45CC0923009F46BC0FD
:1009400091110EC0C7BC2093A2053093A30540931C
:10095000A4055093A50580916E00826080936E007F
:100960000F900F900F900F900F90DF91CF911F91EC
:100970000F91FF90EF90DF90CF90BF90AF909F903E
:100980008F907F906F905F904F90089582E0B0CFEE
:1009900060E072E18AE790E0A50198010E94C73308
:1009A00069017A01B1E0CB1AD108E108F10891E0C0
:1009B000C114D10481E0E806F10484F068E478EE23
:1009C00081E090E0A50198010E94C73369017A0196
:1009D00091E0C91AD108E108F10893E0AD81A13096
:1009E00009F08DCF80918100887F892B80938100D1
:1009F00086CFD0928900C092880020939E053093C4
:100A00009F054093A0055093A10580916F008260DF
:100A100080936F00A5CFC092B30020939A053093C6
:100A20009B0540939C0550939D05809170008260CA
:100A30008093700095CF730162018AE0F594E7948A
:100A4000D794C7948A95D1F7B1E0CB1AD108E108C1
:100A5000F10887E09091B100987F892B8093B100D5
:100A60004ECF1F93CF93DF93182FEB0161E00E94CD
:100A70002F03209739F460E0812FDF91CF911F91F0
:100A80000C940103CF3FD10511F461E0F5CFE12FC4
:100A9000F0E0EA58FF4FE491E33031F140F4E13007
:100AA000B1F0E230E1F0C038D1057CF7E4CFE730B7
:100AB00029F1E83059F1E430B1F78091800080628B
:100AC00080938000D0938B00C0938A0004C084B5CB
:100AD000806884BDC7BDDF91CF911F91089584B513
:100AE000806284BDC8BDF7CF80918000806880930C
:100AF0008000D0938900C0938800EDCF8091B00032
:100B000080688093B000C093B300E5CF8091B000BF
:100B100080628093B000C093B400DDCF3FB7F894FB
:100B200080914B0490914C04A0914D04B0914E04DF
:100B300026B5A89B05C02F3F19F00196A11DB11D38
:100B40003FBFBA2FA92F982F8827BC01CD01620F74
:100B5000711D811D911D42E0660F771F881F991F2F
:100B60004A95D1F708958F929F92AF92BF92CF92FC
:100B7000DF92EF92FF924B015C010E948E056B01A8
:100B80007C010E948E056C197D098E099F09683EC3
:100B9000734081059105A8F321E0821A9108A1080C
:100BA000B10888EEC80E83E0D81EE11CF11C811448
:100BB0009104A104B10429F7FF90EF90DF90CF904A
:100BC000BF90AF909F908F9008952FB7F894609149
:100BD0004704709148048091490490914A042FBFC2
:100BE000089560933B0470933C0480933D0490937C
:100BF0003E04645D7E4F8F4F9F4F60933704709328
:100C000038048093390490933A0482E090E0909302
:100C10003604809335040E94E50560933104709397
:100C20003204809333049093340408952F923F92BA
:100C30004F925F926F927F928F929F92AF92BF92EC
:100C4000CF92DF92EF92FF920F931F93CF93DF9398
:100C5000382E962E842E222E84E6E816F1040CF40B
:100C600059C092EBE91A97E0F90AE0924504009323
:100C700044042092430430924104909240048092B4
:100C80003F04AE2DB0E020E833E341EE51E00E9496
:100C90001A322B013C0122EB37E0FF24E4E6F0E0BE
:100CA000C0E9D1E0C901825B97408E159F05B4F180
:100CB0009EE4E91A98EFF90AC70164E670E00E9421
:100CC00091336C01C70160E971E00E9491335C01CE
:100CD000C8EBD1E0E1E0F0E0112783E0E822FF2457
:100CE000E017F1070CF042C0E230F10591F5E11494
:100CF000F10479F5C114D10419F4A114B10449F532
:100D000080E8480E8BE3581E86E2681E711C3196FF
:100D10002196E6CF8EE1E80EF11CA7CFC9018370C2
:100D20009927892B99F4C901BF010E949133892B1E
:100D300031F4C901BE010E949133892B39F490E846
:100D4000490E91E5591E91E0691E711C2F5F3F4FBE
:100D5000A9CFA881B0E020E831E541E050E00E9451
:100D60001A32460E571E681E791ED1CF292D30E04B
:100D7000ACE3B0E00E945C326B017C01C80CD11C7A
:100D8000E11CF11C232D30E0A0E1BEE00E945C32AA
:100D9000C60ED71EE81EF91E822D8150990BDC016C
:100DA00020E831E541E050E00E94F3336C0D7D1DF9
:100DB0008E1D9F1D640D751D861D971DDF91CF91A2
:100DC0001F910F91FF90EF90DF90CF90BF90AF9069
:100DD0009F908F907F906F905F904F903F902F905B
:100DE0000C94F105CF92DF92EF92FF920F931F9335
:100DF0000E94E5058B019C01C0903104D090320423
:100E0000E0903304F090340460913B0470913C0412
:100E100080913D0490913E040C191D092E093F0953
:100E2000083E134021053105E0F0DC01CB010196BD
:100E3000A11DB11D80933B0490933C04A0933D04FD
:100E4000B0933E04B701A60148515C4F6F4F7F4FEE
:100E5000409331045093320460933304709334040C
:100E6000C7CF1F910F91FF90EF90DF90CF90089523
:100E70004F925F926F927F928F929F92AF92BF92AA
:100E8000CF92DF92EF92FF920F931F93CF93DF9356
:100E90004B015C0180912D0490912E04A0912F04B0
:100EA000B091300488159905AA05BB0509F4C6C0A0
:100EB0008CE3C82ED12CE12CF12CC501A7019601A1
:100EC0000E94A53360933F04CA01B901A7019601AE
:100ED0000E94A53360934004C501B40120E13EE0C7
:100EE00040E050E00E94A533CA01B90128E130E09A
:100EF00040E050E00E94A53360934104C501B40175
:100F000020E831E541E050E00E94A53369017A0113
:100F1000CA01B9016C5F7F4F8F4F9F4F27E030E0D0
:100F200040E050E00E94A5336F5F60934204412C83
:100F3000512C320140E004E610E0C0E9D1E0242F5A
:100F400030E02E54384FF901E370FF273097F9F461
:100F5000C901B8010E949133892B31F4C901BE0146
:100F60000E949133892B99F48EE691E0A0E0B0E0E5
:100F7000480E591E6A1E7B1ED301C201AA27BB2739
:100F8000C816D906EA06FB0638F04F5FD8CF8DE6C3
:100F900091E0A0E0B0E0ECCF40934504C90164E6E5
:100FA00070E00E949133EC01C90160E971E00E9498
:100FB0009133309721F42097D9F40097C9F04DE68A
:100FC00051E060E070E0441A550A660A770AC418D6
:100FD000D508E608F708A8EBB1E020E0213069F475
:100FE0003097E9F5209711F40097C9F54DE106C057
:100FF0004EE651E060E070E0E6CF4C9150E070E0EA
:1010000060E031E0320FC416D506E606F70640F080
:10101000C41AD50AE60AF70A1196232F3C30F1F6D6
:101020002F5F20934404C394C092430480922D0404
:1010300090922E04A0922F04B0923004DF91CF91B1
:101040001F910F91FF90EF90DF90CF90BF90AF90E6
:101050009F908F907F906F905F904F9008954CE19C
:10106000CDCF0E94F2060E9438078091450490E09F
:101070008E54984F08950E94F2060E94380780917E
:10108000440490E008950E94F2060E94380780917F
:10109000430490E008950E94F2060E943807809170
:1010A0003F0490E008950E94F2060E943807809164
:1010B000400490E008950E94F2060E943807809153
:1010C000410490E00895CF92DF92EF92FF92CF9388
:1010D000DF93EC010E94E5056B017C018F850E9486
:1010E000D8029C0181E02115310509F480E0898B4B
:1010F0008889811105C091E0232B09F090E0998B3C
:1011000029898A89281721F0CD8ADE8AEF8AF88E0C
:101110008D899E89AF89B88DB701A601481B590BEF
:101120006A0B7B0BDB01CA01CB80DC80ED80FE808B
:10113000C816D906EA06FB0664F43A81231749F07B
:101140002A83222349F04B895C894F5F5F4F5C8B78
:101150004B8B3A81311117C0CF80D884E984FA844F
:10116000C816D906EA06FB0634F48B899C89998354
:1011700088831C8A1B8A2A8BDF91CF91FF90EF9086
:10118000DF90CF900895CB84DC84ED84FE84C81674
:10119000D906EA06FB067CF78B899C899195819597
:1011A0009109E5CF20910A04260F3327331F2132FE
:1011B0003105ECF420915505FC0190E080E02430ED
:1011C00069F082E00895A0910A042191AC01465192
:1011D0005C4FA40FB52FB11D2C930196861798F381
:1011E00080910A04680F60930A0480E0089581E00A
:1011F00008951092550581E08093540510922F05B3
:1012000061E082E10E94010361E083E10E94010349
:10121000E9EBF0E080818E7F808380818D7F808309
:1012200088E48093B80085E48093BC000895CF9350
:10123000DF9391E09093E9038823B9F0C091B8005F
:10124000D091BA008091BC008A7B8093BC0060E0A2
:1012500082E10E94010360E083E10E9401030E9499
:10126000F908D093BA00C093B800DF91CF910895E8
:10127000CF92DF92EF92FF920F931F93CF93DF9362
:10128000D0917E0581E0D13208F09CC0C0917D05EF
:101290000E948E056B017C018091550581116CC007
:1012A00082E08093550581E0809354058FEF809311
:1012B000530510925205D0935105ADE5B5E0E1E339
:1012C000F5E080E0D8138DC0109230058091300594
:1012D000CC0FC82BC093300580912F05813009F0C9
:1012E00084C010922F050E948E056B017C018091B5
:1012F00030058093BB008091570590915805A091CF
:101300005905B0915A05892B8A2B8B2BA1F00E948D
:101310008E0500915705109158052091590530917F
:101320005A056C197D098E099F09061717072807AA
:10133000390708F442C08091BC0083FDD8CF85EC0A
:101340008093BC000E948E056B017C018091550545
:10135000823009F44CC0809153058F3F09F469C075
:1013600080915305803209F466C080915305803323
:1013700009F463C084E026C0809157059091580518
:10138000A0915905B0915A05892B8A2B8B2B09F412
:1013900083CF0E948E05009157051091580520912A
:1013A000590530915A056C197D098E099F09061758
:1013B00017072807390708F06FCF809156050E945C
:1013C000170985E010925C0510927E0510925B056E
:1013D000DF91CF911F910F91FF90EF90DF90CF9011
:1013E00008959D9191938F5F6DCF85EEA9CF8091E8
:1013F000570590915805A0915905B0915A05892B30
:101400008A2B8B2B09F4A2CF0E948E0500915705E1
:10141000109158052091590530915A056C197D0994
:101420008E099F09061717072807390708F08ECF7E
:10143000C4CF80E0C7CF82E0C5CF83E0C3CFCF92D7
:10144000DF92EF92FF920F931F93CF93DF93D82FEA
:10145000C62F613208F098C00E948E056B017C0196
:101460008091550581116BC081E080935505809373
:1014700054059FEF90935305109252059C0F909343
:1014800051058093300580913005DD0FD82BD09326
:10149000300580912F05813009F078C010922F051A
:1014A0000E948E056B017C01809130058093BB000A
:1014B0008091570590915805A0915905B0915A0512
:1014C000892B8A2B8B2BA1F00E948E05009157054A
:1014D000109158052091590530915A056C197D09D4
:1014E0008E099F09061717072807390708F448C00F
:1014F0008091BC0083FDD8CF85EC8093BC000E9416
:101500008E056B017C0180915505813009F440C046
:10151000809152058C1710F4C0915205E1E3F5E07B
:10152000AFE0B5E080E08C1355C08C2FDF91CF91F8
:101530001F910F91FF90EF90DF90CF9008958091D1
:10154000570590915805A0915905B0915A05892BDE
:101550008A2B8B2B09F484CF0E948E0500915705AE
:10156000109158052091590530915A056C197D0943
:101570008E099F09061717072807390708F070CF4B
:10158000809156050E941709C0E0CFCF85EEB5CFF8
:101590008091570590915805A0915905B0915A0531
:1015A000892B8A2B8B2B09F4AECF0E948E050091DC
:1015B0005705109158052091590530915A056C191D
:1015C0007D098E099F09061717072807390708F0B4
:1015D0009ACFD6CF91919D938F5FA5CF0895E0913B
:1015E000600480915F04E81730F4F0E0E15FFA4FA7
:1015F000808190E008958FEF9FEF089590916004AF
:1016000080915F042FEF3FEF981748F4E92FF0E047
:10161000E15FFA4F208130E09F5F90936004C90141
:10162000089580915F0490916004891B990B08953F
:10163000CF92DF92EF92FF920F931F93CF93DF939E
:101640007C01CB018A0120915B05222389F0EB010B
:101650006B01C40ED51ECC15DD0569F06991D7016B
:10166000ED91FC910190F081E02DC7010995F3CF38
:10167000642F0E94D208C801DF91CF911F910F9172
:10168000FF90EF90DF90CF900895CF93DF931F925C
:10169000CDB7DEB7698320915B052223F9F0209155
:1016A0007E05203258F021E030E0FC0133832283B4
:1016B00090E080E00F90DF91CF91089580915C05DC
:1016C000E82FF0E0E35AFA4F998190838F5F80937F
:1016D0005C0580937E0581E090E0ECCF61E0CE0177
:1016E00001960E94D208F7CFDF92EF92FF920F93FC
:1016F0001F93CF93DF93182FF62ED42ED22F81E095
:1017000080935B0588E680937D0510925C051092BE
:101710007E0560E085E496E00E94450BCAE08D2DD1
:101720006C2F0E9485338295807F682F690F85E436
:1017300096E00E94450B8F2D6C2F0E948533829579
:10174000807F682F690F85E496E00E94450B812F0A
:101750006C2F0E9485338295807F682F690F85E406
:1017600096E00E94450B61E085E496E00E94450BFF
:101770008D2F6C2F0E9485338295807F682F690F93
:1017800085E496E00E94450B802F6C2F0E948533E4
:101790008295807F682F690F85E496E00E94450B53
:1017A0008E2D6C2F0E9485338295807F682F690F64
:1017B00085E496E00E94450B60E085E496E00E9497
:1017C000450BDF91CF911F910F91FF90EF90DF902C
:1017D0000C94380990E080E008954091E70350911F
:1017E000E8032091E5033091E60380E09CE3421793
:1017F000530711F48FEF9FEF4F5F5F4F4330510559
:1018000029F05093E8034093E70308951092E8030A
:101810001092E7032F5F3F4F2330310529F03093BB
:10182000E6032093E50308951092E6031092E50382
:1018300008952091DA043091DB0402C03595279594
:101840008A95E2F720FF03C080E09CE308958FEFC4
:101850009FEF0895CF92DF92EF92FF920F931F9325
:10186000CF93DF939091ED0491110BC08FEF9FEF19
:10187000DF91CF911F910F91FF90EF90DF90CF906C
:1018800008959091E204992389F3082FC091F604FA
:10189000D091F7048091DD0381110DC00E94E50510
:1018A0006093D9037093DA038093DB039093DC0396
:1018B00081E08093DD030E94E505C090D903D090BC
:1018C000DA03E090DB03F090DC036C197D098E09EC
:1018D0009F096D32714081059105B0F01091D803D8
:1018E0000E94E5056093D9037093DA038093DB03CC
:1018F0009093DC0391E091279093D803992331F1E1
:101900001092D7031092D6032091D6033091D703BB
:10191000209530958091F104282326FF1CC081E09A
:101920008093D50327FF1AC081E08093D403809170
:10193000D803882309F49ACF02C0D595C7950A9594
:10194000E2F7C0FF93CF80E09CE392CFD093D70320
:10195000C093D603D9CF1092D503E4CF1092D4030D
:10196000E6CFCF92DF92EF92FF921F93CF93DF9358
:1019700090917F05992309F48EC0C091CE03D09138
:10198000CF03C830D10580F4182FFE01E653F34F82
:101990000C94E633D20CED0CF10CD20CED0CF30CE4
:1019A000F50CFA0C0E94B3002196C830D10509F459
:1019B0006DC0D093CF03C093CE036091C8037091E4
:1019C000C9038091CA039091CB03DF91CF911F91FE
:1019D000FF90EF90DF90CF9008958CEC0E941C0157
:1019E000E3CF84E4FBCF8EEBF9CF0E946B018093B1
:1019F000CC03DACF0E946B018093CD036091CC03BE
:101A0000782F6F3F760711F470E060E0072E000C2E
:101A1000880B990B0E94E73020E030E040E85DE35E
:101A20000E9446316B017C016091740170917501D7
:101A3000072E000C880B990B0E94E73020E030E065
:101A400040E251E40E94D832A70196010E946C3214
:101A500011110FC020E030E040E251E40E94463115
:101A60006093C8037093C9038093CA039093CB0318
:101A70009BCF26E636E646EE5FE30E94463120E045
:101A800030E040E052E40E946C32E4CF1092CF0389
:101A90001092CE0392CF60E070E0CB0196CFCF934F
:101AA000DF93EC012196FC0120812A33C9F42181C6
:101AB000243609F5229630E020E06AE0899190ED25
:101AC000980F9A3078F4629FA001639F500D112403
:101AD000082E000C990BC0979A01280F391FEECFE2
:101AE000CE01DFCF30937C0420937B042115310598
:101AF00011F02093330188818F3689F48A81082E72
:101B0000000C990B9C012053310930937C042093E5
:101B10007B04C397059710F42093320124968881A3
:101B20008236F1F4229630E020E06AE0899190ED6F
:101B3000980F9A3068F4629FA001639F500D1124A2
:101B4000082E000C990BC0979A01280F391FEECF71
:101B500030937C0420937B04309301012093000197
:101B60002091000130910101032E000C440B550B14
:101B700060E67AEE80E090E00E94C73382E0220FB8
:101B8000331F441F551F8A95D1F720937704309354
:101B900078044093790450937A04CE01DF91CF9179
:101BA00008958EBD00000DB407FEFDCF8EB50895DB
:101BB000CF9381E080935B0588E680937D0510924A
:101BC0005C0510927E0560E085E496E00E94450B7E
:101BD0000E94380967E088E60E941F0A109260049C
:101BE00080935F0485E496E00E94FE0A982F929508
:101BF0009F70CAE08F709C9F800D112490E090939D
:101C000007058093060585E496E00E94FE0A982F5A
:101C100092959F708F709C9F800D112490E09093FF
:101C200005058093040585E496E00E94FE0A982F3E
:101C3000929593708F709C9F800D112490E09093EB
:101C400003058093020585E496E00E94FE0A85E480
:101C500096E00E94FE0A982F92959F708F709C9F2D
:101C6000800D112490E0909309058093080585E488
:101C700096E00E94FE0A982F92959F708F709C9F0D
:101C8000800D112490E090930B0580930A0585E464
:101C900096E00E94FE0A982F92959F708F709C9FED
:101CA000800D112490E090930D0580930C05CF9149
:101CB0000895FC0101900020E9F73197AF01481B1E
:101CC000590BBC0188EA95E00C948701CF93DF9310
:101CD0000E947402EC0183EB92E00E94590E8C0F7B
:101CE0009D1FDF91CF9108950F931F9380916E01F7
:101CF00090916F01892B09F44DC08091B603882320
:101D0000A9F00E94E5050091B2031091B303209160
:101D1000B4033091B503601B710B820B930B693ECA
:101D2000734081059105B0F11092B6030E945B08E3
:101D300020916801309169018217930759F50E943B
:101D4000530820916A0130916B018217930711F5B6
:101D50000E944B0820916C0130916D01821793070E
:101D6000C9F40E94E5056093B2037093B3038093B6
:101D7000B4039093B50381E08093B60388E690E0C6
:101D80000E94660E809102019091030190930105DB
:101D9000809300051F910F9108958F929F92AF92AB
:101DA000BF92CF92DF92EF92FF920F931F93CF9348
:101DB000DF93CDB7DEB7A1970FB6F894DEBF0FBEA5
:101DC000CDBF6C01990FEE08FF08F7FE47C06DE22A
:101DD00088EA95E00E9427028C0122273327A90177
:101DE0002C193D094E095F0919A2CE0181967C018B
:101DF0009AE0892E912CA12CB12CCA01B901A50120
:101E000094010E94A533605DF70162937F01211563
:101E100031054105510589F790E080E0309719F0D0
:101E2000CF010E94590E080F191F83EB92E00E9408
:101E3000590E800F911FA1960FB6F894DEBF0FBE0A
:101E4000CDBFDF91CF911F910F91FF90EF90DF9069
:101E5000CF90BF90AF909F908F900895A70196016B
:101E600019A28E010F5D1F4F8AE0C82ED12CE12CE4
:101E7000F12CCA01B901A70196010E94A533605D4A
:101E8000F80162938F01211531054105510589F74C
:101E9000309729F0CF010E94590E8C01C6CF10E077
:101EA00000E0C3CF0C940C320C940432FC0180810E
:101EB0009181009711F00C944D3060E070E0CB01FF
:101EC00008952F923F924F925F926F927F928F92DE
:101ED0009F92AF92BF92CF92DF92EF92FF921F93A9
:101EE000CF93DF93CDB7DEB72C970FB6F894DEBF54
:101EF0000FBECDBF0E948E05C090D003D090D103FD
:101F0000E090D203F090D3036C197D098E099F09EC
:101F1000603D77408105910508F498C20E948E05C6
:101F20006093D0037093D1038093D2039093D30333
:101F300080EA96E00E94560F1B012C012AE0822EB7
:101F4000912CA12CB12CA50194010E94C7332983A7
:101F50003A834B835C83660F771F6C557E4FDB01A2
:101F60000D90BC91A02DBE83AD8387E090E00E94D0
:101F70002A0C6C0190E080E00E94190CC822D92242
:101F80000E94ED0B7C0169817A818B819C81A50186
:101F900094010E94C733660F771F6C557E4FFB017B
:101FA0008080918086E090E00E942A0C5C0181E0B4
:101FB00090E00E94190CA822B9220E94ED0BCE20BD
:101FC000DF202D813E81C222D322F12CE12C5AE068
:101FD000CC0CDD1CEE1CFF1C5A95D1F78A219B21ED
:101FE00088229922B12CA12C8C289D28AE28BF28AC
:101FF000C201B10124E630E040E050E00E94C73366
:1020000069017A018091D503811102C06894B6F804
:102010008091D403811102C06894B7F860E08AE02F
:102020000E94010310915E048B2D9927AA27BB27DC
:1020300089839A83AB83BC83C501AA27BB278D8381
:102040009E83AF83B887BB27AB2D9A2D892D8987B7
:102050009A87AB87BC87112309F4CBC1882D0E94D6
:10206000D10D89850E94D10D8D810E94D10D89816C
:102070000E94D10D2AE0822E912CA12CB12CC701F7
:10208000B601A50194010E94C733660F771F6C55F6
:102090007E4FDB016D907C9085E090E00E942A0CE1
:1020A0006C0182E090E00E94190CC822D9226C20B9
:1020B0007D200E94ED0B6C01C201B10128EE33E0DE
:1020C00040E050E00E94C733CA01B901A501940164
:1020D0000E94C733660F771F6C557E4FFB0101903E
:1020E000F081E02DFA83E98384E090E00E942A0CDD
:1020F0007C0183E090E00E94190CE822F9222981FA
:102100003A81E222F3220E94ED0BC620D720A601DD
:1021100070E060E0E4E1440F551F661F771FEA9509
:10212000D1F78E219F21B0E0A0E0FAE0880F991F3F
:10213000AA1FBB1FFA95D1F76A017B01C82AD92AC9
:10214000EA2AFB2AC201B10120E137E240E050E077
:102150000E94C733CA01B901A50194010E94C73387
:10216000660F771F6C557E4FDB010D90BC91A02D43
:10217000BA83A98383E090E00E942A0C5C0184E08A
:1021800090E00E94190C8A219B21E981FA81E823C1
:10219000F923FA83E9830E94ED0B29813A81822396
:1021A0009323B0E0A0E0C82AD92AEA2AFB2AC20178
:1021B000B10120EA36E841E050E00E94C7332987A8
:1021C0003A874B875C878091D503882309F41CC12B
:1021D000E894F6F88091D403882309F418C1E894B0
:1021E000F7F88F2D9927AA27BB2789839A83AB837A
:1021F000BC834701AA24BB24BB27AF2D9E2D8D2D68
:102200008D839E83AF83B887112309F403C18C2D7E
:102210000E94D10D8D810E94D10D882D0E94D10D7B
:1022200089810E94D10D3AE0832E912CA12CB12CF2
:1022300069857A858B859C85A50194010E94C733A9
:10224000660F771F6C557E4FDB016D907C9082E0AE
:1022500090E00E942A0C6C0185E090E00E94190C2D
:10226000C822D9226C207D200E94ED0B6C01C20196
:10227000B10120E432E44FE050E00E94C733CA01CC
:10228000B901A50194010E94C733660F771F6C55F1
:102290007E4FFB010190F081E02DFA83E98381E01C
:1022A00090E00E942A0C7C0186E090E00E94190CCC
:1022B000E822F92229813A81E222F3220E94ED0BE1
:1022C000C620D720A60170E060E0E4E1440F551F6E
:1022D000661F771FEA95D1F78E219F21B0E0A0E01D
:1022E000FAE0880F991FAA1FBB1FFA95D1F76A0160
:1022F0007B01C82AD92AEA2AFB2AC201B10120E8B7
:1023000036E948E950E00E94C733CA01B901A50186
:1023100094010E94C733660F771F6C557E4FDB0117
:10232000AD90BC9090E080E00E942A0C9A83898353
:1023300087E090E00E94190CE981FA81E823F923F3
:10234000EA21FB21FA83E9830E94ED0B29813A817E
:1023500082239323B0E0A0E08C299D29AE29BF29D8
:102360002091D5036C017D01222309F45EC0E8941D
:10237000F6F88091D403882309F45AC0E894F7F85A
:102380004F2C5524662477244701AA24BB24BB275D
:10239000AF2D9E2D8D2D89839A83AB83BC83112312
:1023A00009F449C08C2D0E94D10D89810E94D10D64
:1023B000882D0E94D10D842D0E94D10D61E08AE00C
:1023C0002C960FB6F894DEBF0FBECDBFDF91CF9134
:1023D0001F91FF90EF90DF90CF90BF90AF909F90B4
:1023E0008F907F906F905F904F903F902F900C94C4
:1023F000010389810E94D10D8D810E94D10D8985B3
:102400000E94D10D882D34CE6894F6F8E3CE6894FE
:10241000F7F8E7CE89810E94D10D882D0E94D10D59
:102420008D810E94D10D8C2DFCCE6894F6F8A1CF41
:102430006894F7F8A5CF842D0E94D10D882D0E94B5
:10244000D10D89810E94D10D8C2DB6CF2C960FB65F
:10245000F894DEBF0FBECDBFDF91CF911F91FF90EB
:10246000EF90DF90CF90BF90AF909F908F907F9034
:102470006F905F904F903F902F9008950F931F9310
:10248000CF93DF938C01EB01FC0180819181009758
:10249000E1F06881798161157105A9F0428153816C
:1024A0002C813D814217530770F00E94D5348C81F6
:1024B0009D81F801958384831D821C82DF91CF91D9
:1024C0001F910F9108950E94C42F88819981F8016E
:1024D000918380838A819B81938382838C819D8178
:1024E00095838483198218821B821A82E5CFCF9349
:1024F000DF93EC0188819981009711F00E94C42F2D
:10250000198218821D821C821B821A82DF91CF9150
:102510000895FC0180819181009711F00C94C42FE3
:1025200008950F931F93CF93DF93EC0188819981D6
:10253000009759F02A813B812617370730F081E058
:10254000DF91CF911F910F9108958B016F5F7F4FA6
:102550000E940F34009759F0998388831B830A8364
:102560002C813D81232B59F7FC011082E8CF80E0BC
:10257000E7CFEF92FF920F931F93CF93DF936115F5
:10258000710541F480E0DF91CF911F910F91FF9091
:10259000EF90089541155105B1F07B01EC010C81DC
:1025A0001D81040F151FB8010E949112882351F359
:1025B000288139818C819D81B701820F931F0E94F0
:1025C000D5341D830C8381E0DECFEF92FF920F9311
:1025D0001F93CF93DF93CDB7DEB72D970FB6F89447
:1025E000DEBF0FBECDBF7C01CB01BA012AE08E0158
:1025F0000F5F1F4FA8010E949430F8010190002046
:10260000E9F73197AF01401B510BB801C7010E9498
:10261000B912811103C0C7010E947712C7012D961C
:102620000FB6F894DEBF0FBECDBFDF91CF911F91E3
:102630000F91FF90EF900895CF93DF93EC01FB0192
:1026400001900020E9F73197AF01461B570B0E941C
:10265000B912811103C0CE010E947712CE01DF9121
:10266000CF910895CF93DF93EC01FB014481558115
:10267000608171810E94B912811103C0CE010E9454
:102680007712CE01DF91CF910895EF92FF920F93D1
:102690001F93CF93DF9300D000D0CDB7DEB77C017E
:1026A000862F4AE08E010F5F1F4FB80190E00E9415
:1026B0007430F80101900020E9F73197AF01401B19
:1026C000510BB801C7010E94B9120F900F900F90E3
:1026D0000F90DF91CF911F910F91FF90EF90089590
:1026E000EF92FF920F931F93CF93DF93EC017B0147
:1026F0008A01BA010E94911281110BC0CE010E9481
:102700007712CE01DF91CF911F910F91FF90EF9043
:1027100008951D830C83B701888199810E94D53467
:10272000F0CFFB0101900020E9F73197AF01461B84
:10273000570B0C9470130F931F93CF93DF93CDB768
:10274000DEB762970FB6F894DEBF0FBECDBF8C0127
:10275000CB01F80111821082138212821582148239
:102760004AE0BE016F5F7F4F0E947430BE016F5F11
:102770007F4FC8010E94911362960FB6F894DEBF96
:102780000FBECDBFDF91CF911F910F9108950F9391
:102790001F93CF93DF93CDB7DEB7A1970FB6F89411
:1027A000DEBF0FBECDBF8C01CB01BA01F801118293
:1027B000108213821282158214822AE0AE014F5FCA
:1027C0005F4F0E949430BE016F5F7F4FC8010E942F
:1027D0009113A1960FB6F894DEBF0FBECDBFDF9167
:1027E000CF911F910F910895CF93DF93EC01FB01DF
:1027F0008617970749F0608171816115710541F075
:10280000448155810E947013CE01DF91CF910895CC
:102810000E947712F9CFFC0111821082138212827A
:10282000158214820C94F413FC011182108213821D
:10283000128215821482FB0101900020E9F7319782
:10284000AF01461B570B0C947013AF92BF92CF92FF
:10285000DF92EF92FF920F931F93CF93DF936C0160
:102860005B017A0189012417350720F48F2D790146
:10287000042F182F65EB72E0C6010E941414D501D5
:102880001496CD91DC91EC16FD06E0F40C171D07B3
:1028900008F4E801D501ED91FC911197EC0FFD1FB3
:1028A000108110826D917C916E0D7F1DC6016115A6
:1028B0007105A1F00E949113F50180819181C80FEB
:1028C000D91F1883C601DF91CF911F910F91FF90FF
:1028D000EF90DF90CF90BF90AF9008950E94771255
:1028E000EBCF4F925F926F927F928F929F92AF92B7
:1028F000BF92CF92DF92EF92FF920F931F93CF93ED
:10290000DF9300D000D000D0CDB7DEB77C014B0103
:102910005A018091DC0481113EC081E08093DC0487
:102920001092DB041092DA0490EC692E93E0792E79
:1029300028EB422E23E0522E10E000E00F5F1F4FE5
:10294000680181E0C81AD1089801A601B401CE013E
:1029500001960E942514CE0101960E94560FD301C4
:102960006D933D01CE0101960E9489129801A60146
:10297000B501CE0101960E942514CE0101960E9458
:10298000560FF20161932F01CE0101960E94891228
:102990000830110599F69091B70380ECC82E83E0BA
:1029A000D82EE8EBF3E08601A801D8018C919A308B
:1029B000D8F58F5F8C930F5F1F4FDA018C918A30AF
:1029C00019F4D80111971C923196B3E0083C1B070B
:1029D00059F79F5F943169F19093B70365EB72E00B
:1029E000C7010E941414F60161916F01C7010E9492
:1029F00045130C151D05B9F7C70126960FB6F894B7
:102A0000DEBF0FBECDBFDF91CF911F910F91FF9021
:102A1000EF90DF90CF90BF90AF909F908F907F907E
:102A20006F905F904F9008952081281721F28F5F5B
:102A3000C1CF1092B7031092DC04D0CFCF92DF92B7
:102A4000EF92FF920F931F93CF93DF93CDB7DEB733
:102A50002C970FB6F894DEBF0FBECDBF8C016EEE83
:102A600072E0CE0107960E94141422E030E050E09C
:102A700040E003301105A9F024E030E042E050E0EE
:102A80000C30110571F026E030E00033110539F00B
:102A9000003F110581F52091A4063091A50644E080
:102AA00050E060EA76E0CE0101960E942514BE0156
:102AB0006F5F7F4FCE0107960E943E12CE010196B6
:102AC0000E948912CE0107960E94560F6B01CE011B
:102AD00007960E948912C6012C960FB6F894DEBFA5
:102AE0000FBECDBFDF91CF911F910F91FF90EF905F
:102AF000DF90CF900895003C110521F72091A406A6
:102B00003091A50646E050E0CCCF0F931F93CF93B2
:102B1000DF93CDB7DEB762970FB6F894DEBF0FBE76
:102B2000CDBF8C0177FF03C07195619571096A3043
:102B30007105A4F5CE010D960E949B136DEB72E01A
:102B4000CE0101960E941414BE016F5F7F4FCE012B
:102B500007960E940B14BE01635F7F4FCE0107965C
:102B60000E943213BC01C8010E940B14CE010796CB
:102B70000E948912CE0101960E948912CE010D9603
:102B80000E948912C80162960FB6F894DEBF0FBE8C
:102B9000CDBFDF91CF911F910F910895C8010E9481
:102BA0009B13F0CF0F931F93CF93DF93CDB7DEB777
:102BB00068970FB6F894DEBF0FBECDBF8B0177FFCD
:102BC00003C0119501951109833079F52091A40670
:102BD0003091A50642E050E060EA76E0CE010D9625
:102BE0000E942514B801CE0101960E948515BE01F0
:102BF0006F5F7F4FCE0107960E940B14BE01635F8B
:102C00007F4FCE0107960E943213BC0180EA96E006
:102C10000E94F413CE0107960E948912CE010196FC
:102C20000E948912CE010D9644C08C3009F04EC02E
:102C30002091A4063091A50644E050E060EA76E0D9
:102C4000CE0143960E942514B801CE010D960E9434
:102C5000851522E030E050E040E060EA76E0CE0109
:102C600001960E942514BE016F5F7F4FCE0107962B
:102C70000E940B14BE01635F7F4FCE0107960E9436
:102C80003213BE016D5E7F4F0E943213BC0180EA99
:102C900096E00E94F413CE0107960E948912CE019D
:102CA00001960E948912CE010D960E948912CE01D2
:102CB00043960E94891268960FB6F894DEBF0FBE45
:102CC000CDBFDF91CF911F910F9108958033A1F473
:102CD0002091A4063091A50646E050E060EA76E037
:102CE000CE0143960E942514B801CE010D960E9494
:102CF000851524E030E0AFCF803F81F4B801CE01EC
:102D00000D960E94851524E030E050E040E060EA36
:102D100076E0CE0101960E94251469CF803C59F6D9
:102D2000B801CE010D960E94851526E030E0EDCF6A
:102D30000E94E5056093F2047093F3048093F40419
:102D40009093F5048091F804882309F44BC02091F6
:102D5000FA043091FB04C901880F991F2131310514
:102D600099F1FC01E25BFE4F4081518141505109D4
:102D700051834083FC01E25BFE4FD901AC5FBE4F43
:102D80006C91408151816417150641F03CF0D901E6
:102D9000A55EBE4F4C9150E05183408320313105F8
:102DA00051F420916E0130916F0121303105B9F459
:102DB00020E82093F104825B9E4FFC0160817181C9
:102DC0008091F6040C94D2154091700150917101DC
:102DD0004C5051095093710140937001CBCF109228
:102DE000F104E9CF08950E94E5056093F204709321
:102DF000F3048093F4049093F5048091F8048823FD
:102E000009F44AC02091FA043091FB04C901880FEB
:102E1000991F2131310591F1FC01E25BFE4F4081A8
:102E200051814F5F5F4F51834083FC01E25BFE4F56
:102E3000D901A55EBE4F6C91408151816417150682
:102E40003CF4D901AC5FBE4F4C9150E051834083BC
:102E50002031310551F420916E0130916F01213004
:102E60003105B9F420E82093F104825B9E4FFC0108
:102E7000608171818091F6040C94D21540917001AB
:102E800050917101445F5F4F509371014093700105
:102E9000CCCF1092F104E9CF08958F929F92AF9218
:102EA000BF92DF92EF92FF920F931F93CF93DF9326
:102EB000CDB7DEB7A2970FB6F894DEBF0FBECDBF79
:102EC0008C018AE0E2E8F1E0DE01119601900D92BA
:102ED0008A95E1F78091B0039091B10301968A3011
:102EE00091050CF086C09093B1038093B003E091FC
:102EF000B003F091B10381E090E08C0F9D1FE80FCB
:102F0000F91FD0808091700190917101489709F06C
:102F100075C00E94E5054B015C010E944B08BC0195
:102F2000CE014D960E9485150E945308BC01CE012A
:102F300047960E9485150E945B08BC01CE010B9646
:102F40000E948515BE01655F7F4FCE0141960E94AC
:102F50000B14BE01695E7F4FCE0141960E94321371
:102F6000BE01635E7F4F0E9432137C01C501B40134
:102F700028EE33E040E050E00E94A53324E630E044
:102F800040E050E00E94A533BA01A901C7010E94A8
:102F9000E5127C016D2D0E944513811103C0C7010C
:102FA0000E947712B701C8010E940B14CE0141960E
:102FB0000E948912CE010B960E948912CE0147967B
:102FC0000E948912CE014D960E948912C801A296D4
:102FD0000FB6F894DEBF0FBECDBFDF91CF911F912A
:102FE0000F91FF90EF90DF90BF90AF909F908F90E8
:102FF00008951092B1031092B00379CF0E94E505B5
:1030000028EE33E040E050E00E94A53324E630E0B3
:1030100040E050E00E94A53349015A010E944B084C
:10302000BC01CE014D960E9485150E945308BC013B
:10303000CE0147960E9485150E94F2060E9438072D
:10304000809141046CE070E0882331F0682F70E0DB
:103050008D3010F06C507109CE010B960E948515D1
:10306000BE01655F7F4FCE0141960E940B14BE01E9
:10307000695E7F4FCE0141960E943213BE01635EAE
:103080007F4F0E943213B501A40181CF8F929F928E
:10309000AF92BF92CF92DF92EF92FF920F931F9366
:1030A000CF93DF93CDB7DEB762970FB6F894DEBF4C
:1030B0000FBECDBF8C016A017B0180919205811109
:1030C00011C00E94E505645B7B4F8F4F9F4F60935B
:1030D0008E0570938F05809390059093910581E004
:1030E0008093920580918605811109C066EB72E09C
:1030F00080E895E00E94141481E080938605809119
:103100007F05811119C060E875E0C8010E940B14A9
:10311000C80162960FB6F894DEBF0FBECDBFDF9137
:10312000CF911F910F91FF90EF90DF90CF90BF90C4
:10313000AF909F908F9008950E94E50580908E0536
:1031400090908F05A0909005B0909105681979092D
:103150008A099B09693E734081059105A0F20E948E
:10316000E50560938E0570938F058093900590938D
:10317000910520E030E0A901C701B6010E9480332B
:1031800020E030E040E05FE387FD02C1C701B60107
:103190000E946C320E944A337B0177FF04C0EE2408
:1031A000FF24E61AF70A5B0139E1A31A3CEFB30AE0
:1031B00080917201909173019B012D593F4F6901DC
:1031C0002A5531094901B701892B09F0E6C0CE0122
:1031D00001960E949B136DEB72E0CE0107960E9450
:1031E0001414BE016F5F7F4FCE0107960E94321309
:1031F0006DEB72E00E941C13BC0180E895E00E9418
:10320000F413CE0107960E948912CE0101960E9406
:1032100089123FECA31637E0B30680F5B701CE0163
:1032200001960E949B136091740170917501CE010B
:103230000D960E948515BE01635F7F4FCE010796F4
:103240000E940B14BE016F5F7F4FCE0107960E9454
:1032500032136DEB72E00E941C13BC0180E895E014
:103260000E94F413CE0107960E948912CE010D969A
:103270000E948912CE0101960E94891287ECC8161D
:10328000D104A0F5B701CE0101960E949B13609175
:10329000740170917501CE0107960E9485156DEB42
:1032A00072E0CE010D960E941414BE01695F7F4F3B
:1032B000CE010D960E943213BE016F5F7F4F0E94B8
:1032C00032136DEB72E00E941C13BC0180E895E0A4
:1032D0000E94F413CE010D960E948912CE0107962A
:1032E0000E948912CE0101960E94891223E1821662
:1032F0009104A0F5B701CE0101960E949B13609145
:10330000740170917501CE0107960E9485156CEBD2
:1033100072E0CE010D960E941414BE01695F7F4FCA
:10332000CE010D960E943213BE016F5F7F4F0E9447
:1033300032136DEB72E00E941C13BC0180E895E033
:103340000E94F413CE010D960E948912CE010796B9
:103350000E948912CE0101960E94891265EB72E0EB
:10336000CE0101960E94141460E875E0CE0101962A
:103370000E9432136CEB72E00E941C13BC0180E8C7
:1033800095E00E94F413CE0101960E948912BBCEF3
:10339000C701B6010E946B32FDCECE0101960E949C
:1033A0009B136DEB72E0CE0107960E941414BE01D0
:1033B0006F5F7F4FCE0107960E9432136DEB72E074
:1033C0000E941C13BC0180E895E00E94F413CE011A
:1033D00007960E948912CE0101960E9489123FEC45
:1033E000A31637E0B306A0F56091740170917501E2
:1033F000CE0101960E948515C7016AE070E00E9427
:103400009133CE0107960E949B136CEB72E0CE01C4
:103410000D960E941414BE01695F7F4FCE010D9678
:103420000E943213BE016F5F7F4F0E943213BC01B6
:1034300080E895E00E94F413CE010D960E94891257
:10344000CE0107960E948912CE0101960E94891230
:1034500087ECC816D104A0F56091740170917501D4
:10346000CE0101960E948515C7016AE070E00E94B6
:103470009133CE0107960E949B136BEB72E0CE0155
:103480000D960E941414BE01695F7F4FCE010D9608
:103490000E943213BE016F5F7F4F0E943213BC0146
:1034A00080E895E00E94F413CE010D960E948912E7
:1034B000CE0107960E948912CE0101960E948912C0
:1034C00023E18216910408F049CF60917401709154
:1034D0007501CE0101960E948515C7016AE070E072
:1034E0000E949133CE0107960E949B136AEB72E013
:1034F000CE010D960E941414BE01695F7F4FCE016C
:103500000D960E943213BE016F5F7F4F0E943213EF
:1035100014CF85ED8093BC0080915705909158059C
:10352000A0915905B0915A050796A11DB11D23E040
:10353000B695A795979587952A95D1F72091BC00C8
:1035400024FD03C0109255050895409157055091F0
:1035500058056091590570915A05452B462B472B0C
:1035600069F30097A105B10541F02AE22A95F1F728
:1035700000C00197A109B109E1CF809156050C94D3
:1035800017091F920F920FB60F9211242F933F939A
:103590004F935F936F937F938F939F93AF93BF935B
:1035A000EF93FF9388EA95E00E940502FF91EF9167
:1035B000BF91AF919F918F917F916F915F914F914B
:1035C0003F912F910F900FBE0F901F9018951F9253
:1035D0000F920FB60F9211242F938F939F93EF9317
:1035E000FF93E091B805F091B9058081E091BE05A7
:1035F000F091BF0582FD1BC090818091C1058F5F56
:103600008F732091C205821741F0E091C105F0E06F
:10361000E855FA4F958F8093C105FF91EF919F91E7
:103620008F912F910F900FBE0F901F901895808152
:10363000F4CF1F920F920FB60F9211242F933F9346
:103640008F939F93AF93BF938091470490914804C9
:10365000A0914904B0914A043091460423E0230F1D
:103660002D3758F50196A11DB11D20934604809376
:10367000470490934804A0934904B0934A0480916E
:103680004B0490914C04A0914D04B0914E040196CE
:10369000A11DB11D80934B0490934C04A0934D0445
:1036A000B0934E04BF91AF919F918F913F912F9115
:1036B0000F900FBE0F901F90189526E8230F0296CB
:1036C000A11DB11DD2CF1F920F920FB60F921124E0
:1036D0002F933F938F939F93AF93BF93EF93FF935A
:1036E00080919A0590919B05A0919C05B0919D05B4
:1036F0000097A105B10531F130915304E0915404D4
:10370000F0915504208123272083181619061A06E4
:103710001B061CF40197A109B10980939A059093A7
:103720009B05A0939C05B0939D05FF91EF91BF91E0
:10373000AF919F918F913F912F910F900FBE0F905E
:103740001F901895209170002D7F2093700020917C
:103750005304E0915404F0915504308120952323C3
:103760002083DBCF1F920F920FB60F9211248F93FD
:103770009F93AF93BF93EF93FF9380919E0590919A
:103780009F05A091A005B091A105892B8A2B8B2BB9
:10379000A1F190915604E0915704F0915804808172
:1037A0008927808380919E0590919F05A091A00517
:1037B000B091A105181619061A061B069CF48091F3
:1037C0009E0590919F05A091A005B091A10501973C
:1037D000A109B10980939E0590939F05A093A00530
:1037E000B093A105FF91EF91BF91AF919F918F9100
:1037F0000F900FBE0F901F90189580916F008D7FD6
:1038000080936F0080915604E0915704F091580422
:103810009081809589238083E5CF1F920F920FB608
:103820000F9211248F939F93AF93BF93EF93FF93C6
:103830008091A2059091A305A091A405B091A50542
:10384000892B8A2B8B2BA1F190915904E0915A047A
:10385000F0915B048081892780838091A2059091FB
:10386000A305A091A405B091A505181619061A067E
:103870001B069CF48091A2059091A305A091A4053C
:10388000B091A5050197A109B1098093A205909374
:10389000A305A093A405B093A505FF91EF91BF9157
:1038A000AF919F918F910F900FBE0F901F90189521
:1038B00080916E008D7F80936E0080915904E0911D
:1038C0005A04F0915B049081809589238083E5CF31
:1038D0001F920F920FB60F9211242F933F934F9385
:1038E0005F936F937F938F939F93AF93BF93EF9368
:1038F000FF938091B900887F803609F44AC0F0F5C3
:10390000883209F4A7C018F5803109F49BC0B8F4D7
:10391000882309F4F9C0883009F494C0FF91EF912D
:10392000BF91AF919F918F917F916F915F914F91D7
:103930003F912F910F900FBE0F901F9018958831D7
:1039400009F488C0803251F78093530514C0803445
:1039500009F49DC040F48033B9F38833F9F68093BD
:10396000530585ECB0C0803509F485C0883509F46D
:1039700096C0883499F60E94891AD0CF883909F404
:103980008CC038F5883729F050F4883611F080372C
:1039900029F683E08093550510922C0457C088388F
:1039A00009F47BC0803919F0803809F0B7CF8091D5
:1039B0002C04803208F071C0E0912C0481E08E0F5D
:1039C00080932C048091BB00F0E0E45FFB4F808388
:1039D0003DC0803B39F0E0F4803A09F479C0883A80
:1039E00009F09CCF84E08093550510920B0410924F
:1039F0000A04E0915104F0915204099580910A045F
:103A000081110FC081E080930A041092EA0309C07B
:103A1000803C09F4A6CF883C09F4A3CF883B09F089
:103A20007DCFE0910B0481E08E0F80930B04F0E0DA
:103A3000E651FC4F80818093BB0090910B048091F4
:103A40000A0429C0809130058093BB0085EC8093E7
:103A5000BC0064CF9091520580915105981758F59C
:103A6000E091520581E08E0F80935205F0E0EF5C0B
:103A7000FA4F8081E9CFE091520581E08E0F80936B
:103A800052058091BB00F0E0EF5CFA4F808390918B
:103A90005205809151059817C8F285E8D8CFE0917A
:103AA000520581E08E0F809352058091BB00F0E0BB
:103AB000EF5CFA4F80838091540581115CCF81E0E7
:103AC00080932F0584EA8093BC001092550526CF81
:103AD00085EC8093BC001092550580912C048032B7
:103AE00030F4E0912C04F0E0E45FFB4F1082609131
:103AF0002C0470E0E0914F04F09150048CE094E0CD
:103B0000099510922C040ACF1092530534CFCF930D
:103B1000DF93EC01862F6F87188A91E0998B9A8B3F
:103B20001C8A1B8A198218821A821D8A1E8A1F8A81
:103B3000188E44E150E060E070E04B835C836D835D
:103B40007E834AEF50E060E070E04F8358876987DA
:103B50007A8748EE53E060E070E04B875C876D87C2
:103B60007E8760E00E942F038889811106C061E092
:103B70008F85DF91CF910C940103DF91CF91089550
:103B8000E8EAF5E01382128288EE93E0A0E0B0E06C
:103B900084839583A683B78323E932E0318320832E
:103BA00025EC30E03587248724EC30E03787268702
:103BB00020EC30E0318B208B21EC30E0338B228BFA
:103BC00022EC30E0358B248B26EC30E0378B268BD3
:103BD000118E128E138E148EE5E4F6E0138212829B
:103BE00084839583A683B78385EA92E0918380835B
:103BF0006FEB72E08AEB96E00E94141460E081E1C2
:103C00000E942F03EBE0F1E0E491ACEAB6E0EC9324
:103C1000E7EFF0E0E491F0E0EE0FFF1FE452FF4F1A
:103C20008591949112969C938E9311971B961C925A
:103C30001B971D961C921D971C961C921C971A96FA
:103C40001C921A9719961C92199718961C921897FD
:103C500017961C92179716961C92169715961C92FB
:103C6000159714961C92149713961C9265EB72E0AC
:103C700086EA96E00E94141468EB72E080EA96E00F
:103C80000E9414146EE087E896E00E94871D60E1B0
:103C90008EE696E00E94871D6FE085E596E00E9423
:103CA000871DA0917601B091770120E63AEE0E943F
:103CB000EC336093510670935206809353069093B1
:103CC00054060895CF93DF93CDB7DEB7C656D1091A
:103CD0000FB6F894DEBF0FBECDBF789484B5826076
:103CE00084BD84B5816084BD85B5826085BD85B5A0
:103CF000816085BD80916E00816080936E0010921E
:103D00008100809181008260809381008091810098
:103D10008160809381008091800081608093800029
:103D20008091B10084608093B1008091B000816087
:103D30008093B00080917A00846080937A008091B3
:103D40007A00826080937A0080917A00816080930B
:103D50007A0080917A00806880937A001092C10086
:103D600061E085E00E942F0360E085E00E9401038E
:103D70001092600410925F0410925C0510927E0510
:103D80000E94F90884E891E09093520480935104D2
:103D900085E891E09093500480934F04E091B8053A
:103DA000F091B90582E08083E091B405F091B5050A
:103DB0001082E091B605F091B70580E18083109202
:103DC000C005E091BC05F091BD0586E08083E091DF
:103DD000BA05F091BB05808180618083E091BA05CE
:103DE000F091BB05808188608083E091BA05F091F5
:103DF000BB05808180688083E091BA05F091BB05A6
:103E000080818F7D808383E38093270181EE80937F
:103E1000100181EE97E0909367018093660180EF37
:103E20008093430181E090E00E94540F8C3009F4AC
:103E3000FAC388E190E0909371018093700190E063
:103E400080E00E94540F882309F4F0C381E080933E
:103E5000340182E090E00E94540F8F3F09F0E9C3E3
:103E6000109269011092680183E090E00E94540F63
:103E70008F3F09F0E4C310926B0110926A0184E055
:103E800090E00E94540F8F3F09F0DFC310926D0144
:103E900010926C0186E090E00E94540F8F3F09F071
:103EA000DAC310926F0110926E0187E090E00E94D9
:103EB000540F8F3F09F0D5C31092EE048BE090E0D1
:103EC0000E94540F8F3F09F0D3C3109273011092D8
:103ED00072018CE090E00E94043260968FAF609790
:103EE0008DE090E00E94043261968FAF61976196F9
:103EF0008EAD9FAD61978F3F910509F0BFC31092C2
:103F00007501109274018EE090E00E94540F8F3F73
:103F100029F090E090937701809376018FE090E014
:103F20000E94540F8F3F29F090E090937901809385
:103F3000780180E190E00E94540F8F3F29F090E0DB
:103F400090937B0180937A0161E089E00E942F03C6
:103F500061E086E00E942F0361E083E00E942F036E
:103F600080915C04833008F0FDC392E09093A60535
:103F7000E82FF0E0EC56FF4FE491E093A7058F5F48
:103F800080935C04E13009F49FC308F47CC3E23001
:103F900009F4C1C380910201909103010E944F0D69
:103FA000909303018093020161E08AE00E942F0355
:103FB00061E088E00E942F0360E088E00E94010336
:103FC00062E088E00E942F0388E00E94D80221E08E
:103FD000892B09F020E020935E041FB7F8948091AC
:103FE0005D04811127C0E0EFF0E08491E4E0F1E0AE
:103FF0009491E82FF0E0EE0FFF1FE956FF4FA591D7
:10400000B491EC91E92321F461E08AE00E9401037C
:1040100061E08AE00E942F038CB580618CBD8CB575
:1040200080648CBD61E08DE00E942F0361E08BE035
:104030000E942F0380915D048F5F80935D041FBFFA
:1040400080915E04882309F491C389E791E00E947E
:10405000810162E08EE00E942F0362E080E10E9415
:104060002F0362E08FE00E942F0361E082E00E9454
:104070002F0304E110E020E030E000938A06109363
:104080008B0620938C0630938D064EE150E060E065
:1040900070E040938E0650938F0660939006709365
:1040A000910680ED97E0A0E0B0E0809392069093B7
:1040B0009306A0939406B09395060093710610930F
:1040C00072062093730630937406409375065093DE
:1040D00076066093770670937806809379069093BE
:1040E0007A06A0937B06B0937C0600935806109343
:1040F000590620935A0630935B0640935C06509312
:104100005D0660935E0670935F06809360069093F1
:104110006106A0936206B0936306E090B906E110D1
:1041200004C00E94B300811123C31092B7061092FD
:10413000B9061092B8061092B6061092B506109203
:10414000B4061092B3061092B2061092B106109205
:10415000B0061092AF0680917F05882309F10E9476
:10416000B30085E50E941C010DE614E0F801819181
:104170008F010E941C01F4E005371F07B9F78EEB91
:104180000E941C0101E614E03AE6E32E34E0F32E2F
:104190000E946B01F80181938F01EE16FF06C1F7B3
:1041A0008AEB90E00E94740225E030E042E050E0AB
:1041B0006AEB76E0CE0101963C010E94251422E0D4
:1041C00030E041E050E06AEB76E0CE01875B9F4F44
:1041D0000E942514BE01675B7F4FCE018D5B9F4F10
:1041E0000E940B1466EC72E0CE018D5B9F4F0E9423
:1041F0001C13B3010E943213FC014481558160817C
:10420000718188EA95E00E94870183EB92E00E9429
:10421000590ECE018D5B9F4F0E948912CE01875BA4
:104220009F4F0E948912C3010E94891288EC92E07C
:104230000E94590E83EB92E00E94590E8091C006B5
:104240009091C106009711F484EC96E09301281B2D
:10425000390BC9010E94CD0E80910201909103019A
:1042600090930105809300050E944F0D6FEF70E061
:1042700089E00E94310568EE73E080E090E00E94E2
:10428000B30570E060E089E00E9431056FEF70E0F7
:1042900086E00E94310568EE73E080E090E00E94C5
:1042A000B30570E060E086E00E9431056FEF70E0DA
:1042B00083E00E94310568EE73E080E090E00E94A8
:1042C000B30566EB72E0C3010E94141467EE72E05E
:1042D000CE0107960E94141460EF72E0CE010D9695
:1042E0000E94141469EF72E0CE0143960E941414E8
:1042F00062E073E0CE0149960E9414146BE073E013
:10430000CE014F960E94141464E173E0CE018596AD
:104310000E9414146DE173E0CE018B960E94141478
:1043200066E273E0CE01C1960E9414146FE273E05E
:10433000CE01C7960E94141465EB72E0CE01CD96B3
:104340000E9414146AEB76E0CE018D5B9F4F0E94B1
:104350000B146CEB72E0CE018D5B9F4F0E941C131F
:10436000BC01CE01CD960E94F413CE018D5B9F4F10
:104370000E9489120E94E5056B017C0138EEC30E94
:1043800033E0D31EE11CF11C00E01FEF94EFA92ED7
:10439000BB24B39426E0922E8FE00E94D802892B92
:1043A00009F401E080E10E94D802892B09F400E0C1
:1043B0000E94E5056C197D098E099F0995010B2C5A
:1043C000000C440B550B261737074807590708F010
:1043D0003EC20E94E5056B017C01011101C01F5F17
:1043E0001A3009F427C21B3009F028C281E08093FB
:1043F0005B0588E680937D0510925C0510927E0532
:1044000061E185E496E00E94450B0E94380962E074
:1044100088E60E941F0A1092600480935F0485E47E
:1044200096E00E94FE0A182F80EB90E00E94740232
:10443000812F012E000C990B0E94CD0E15501833C0
:10444000B8F081EA90E00E94660E05E010E048EEC8
:1044500053E060E070E088EE93E00E946B0360ED53
:1044600077E080E090E00E94B3050150110979F7F0
:104470008E010D5B1F4F06501109C8010E94891261
:1044800060167106C1F70E94D80D009106051091C3
:1044900007050E94E5056B017C0181E080930E0514
:1044A000112780910605909107050817190779F4DF
:1044B0000E94D80D0E94E5056C197D098E099F099F
:1044C000693B7B408105910560F310920E05809059
:1044D0000C05F0900D0590900A0510910B05A09029
:1044E000080530910905B090060550910705C09068
:1044F000040570910505D0900205E82C092D2A2DA0
:104500004B2D6C2D8D2D909103050E94160660E0B9
:1045100085E00E9401032A2D4B2D6C2D8D2D0E94CC
:10452000740B61E085E00E940103B4E62B2E312C70
:104530009E012F5F3F4F29010E94E50520E63AEEDC
:1045400040E050E00E94A533672B682B692B01F5F2
:1045500080910E058823E1F00E94D80DE0900C05B3
:10456000F0900D0500910A0510910B0520910805AA
:1045700030910905409106055091070560910405A9
:104580007091050580910205909103050E94160621
:104590000091000510910105F8018081882309F43C
:1045A00021C20E94E505C0908104D0908204E09071
:1045B0008304F09084046C197D098E099F09C090D2
:1045C0007D04D0907E04E0907F04F0908004C616B5
:1045D000D706E806F90608F005C20E94E5054B017A
:1045E0005C018092810490928204A0928304B09234
:1045F0008404680130E020E04AE0F801F1908F0186
:1046000080ED8F0D8A3008F025C1429FC001439F85
:10461000900D11242F2DFF0C330B20533109280F3F
:10462000391F6F01EACF8CE090E005CC1092340185
:1046300010CC90E0909369018093680115CC90E0D4
:1046400090936B0180936A011ACC90E090936D0176
:1046500080936C011FCC90E090936F0180936E016A
:1046600024CC91E0811101C090E09093EE0426CC1F
:1046700090E090937301809372012BCC909375011D
:104680008093740140CC14BC15BC84B5826084BD99
:1046900085B5816085BD8091A60590E0FC01EA5159
:1046A000FF4FE491F0E0EE0FFF1FE657FF4F25911B
:1046B000349130935B0420935A04FC01E650FF4F81
:1046C000E491E093590466CC10928000109281002E
:1046D0008091810088608093810080918100816059
:1046E000809381008091A60590E0FC01EA51FF4F84
:1046F000E491F0E0EE0FFF1FE657FF4F2591349154
:104700003093580420935704FC01E650FF4FE49186
:10471000E09356043FCC1092B0001092B10080910B
:10472000B00082608093B0008091B100816080937E
:10473000B1008091A60590E0FC01EA51FF4FE491A1
:10474000F0E0EE0FFF1FE657FF4F259134913093B5
:10475000550420935404FC01E650FF4FE491E0938C
:10476000530418CC8FEF8093A70514CC89E56ECC49
:1047700080EF0E941C01D12CFF24F39401E00E94E1
:104780004601182F0E9446011130F9F48130E1F5FD
:10479000013408F4CACCE092B706E11003C081E00E
:1047A0008093B9068091AF06882309F4BECCAFEAA6
:1047B000B6E0EDE6F4E08D91819334E0E537F30760
:1047C000D1F781E080937F05C6CCED2DF0E0181382
:1047D00011C08091B7060817A8F4DF01A455B94F9E
:1047E00013968C918F2181F410E0093010F400931E
:1047F000B806E02EE455F94F83819F2D90958923CB
:1048000083830AC08013F0CFED2DF0E0E455F94F1B
:1048100083818F29838311E0812F0E94EC000F5F39
:10482000FF0C19F4D394FF24F39427E02D1508F01E
:10483000A6CFAECF88EBA82E8BE0B82EB301199D82
:10484000600D711D112480EA96E00E94F4130E940D
:10485000610FA2CD30937C0420937B046091770498
:10486000709178048091790490917A042115310532
:1048700001F1032E000C440B550B0E94C73320930B
:104880007D0430937E0440937F0450938004EFE9CD
:10489000EF0DE730A0F40E2E000CFF0BEE5AFB4D8F
:1048A0000C94E633D227D427C627CA27CC27CE2795
:1048B000D0272091330130E050E040E0DECF10926D
:1048C0007604F6018181833241F4809176048F5F12
:1048D0008093760486010E5F1F4FF80180818E322F
:1048E000F1F4C0907D04D0907E04E0907F04F090BD
:1048F0008004C701B60122E030E040E050E00E94B1
:10490000C733C20ED31EE41EF51EC0927D04D092A2
:104910007E04E0927F04F09280040F5F1F4FF80145
:10492000808180538A3008F041C3809375040F5F03
:104930001F4FF80180818C3211F40F5F1F4FE091FF
:104940007604EE2309F44EC0C0907D04D0907E041E
:10495000E0907F04F0908004809175048450990B5E
:104960004CE0489F9001499F300D1124E20FF32F36
:10497000F11DEE0FFF1FEC53FE4FB701A601808122
:1049800091810E946B030E94E505681979098A09E3
:104990009B09C616D706E806F90620F50E94E5052C
:1049A00060938104709382048093830490938404C1
:1049B0008091A705813009F4FEC2823009F401C359
:1049C000811105C080916E008D7F80936E0060E044
:1049D0008091A6050E94010385EC90E00E94660E7E
:1049E00010E000E010930105009300050E94E5052A
:1049F0000091FC041091FD042091FE043091FF040D
:104A0000601B710B820B930B66307105810591055C
:104A100020F180913401882339F080917A019091BE
:104A20007B01009709F0D3C270E060E089E00E944A
:104A3000310570E060E086E00E94310570E060E0E2
:104A400083E00E9431050E94E5056093FC047093A9
:104A5000FD048093FE049093FF048091FA049091EA
:104A6000FB04892B21F08091F9048111ECC1809124
:104A7000F8048111E8C18091760190917701892B2A
:104A800009F4E1C180919B0481110DC00E94E505EC
:104A900060939704709398048093990490939A0478
:104AA00081E080939B0480918F0481110DC00E944E
:104AB000E50560938B0470938C0480938D04909330
:104AC0008E0481E080938F040E94E5050091970495
:104AD000109198042091990430919A04601B710BF5
:104AE000820B930B009151061091520620915306B0
:104AF00030915406061717072807390708F04AC0EF
:104B00000E94E5056093970470939804809399043C
:104B100090939A044091890450918A0481E090E036
:104B20004115510531F04130510509F005C384E0CC
:104B300090E09093FB048093FA0460917801709167
:104B4000790128EE33E0629FC001639F900D729F50
:104B5000900D1124092E000CAA0BBB0B809351065B
:104B600090935206A0935306B09354064F5F5F4F45
:104B7000433051050CF0F9C250938A0440938904E4
:104B80008091F904882321F01092FB041092FA041A
:104B90001092F9040E94E505009197041091980481
:104BA0002091990430919A04601B710B820B930B36
:104BB000603D77408105910508F0DCC20E94E50563
:104BC00000918B0410918C0420918D0430918E04FF
:104BD000601B710B820B930B653671058105910586
:104BE00008F431C10E94E50560938B0470938C0436
:104BF00080938D0490938E048091FA049091FB042D
:104C0000892B89F5CE018D5B9F4F0E944D1781E066
:104C10002091720130917301232B09F480E00E94EE
:104C2000B10CAB01BC01C3010E944618AE014D5B43
:104C30005F4FB301CE01875B9F4F0E947114BE018D
:104C4000675B7F4F80EA96E00E943E12CE01875B51
:104C50009F4F0E948912C3010E948912CE018D5B71
:104C60009F4F0E9489128091FA049091FB04019752
:104C700009F06BC00E94310868EE73E00E94913326
:104C8000BC01CE018B5A9F4F0E9485150E943B08A4
:104C9000BC01CE01815B9F4F0E9485150E94430895
:104CA000BC01CE018D5B9F4F0E948515BE016D5BDF
:104CB0007F4FCE01875B9F4F0E940B14BE01615B4B
:104CC0007F4FCE01875B9F4F0E943213BE016B5A0C
:104CD0007F4F0E943213BC01CE01855A9F4F0E9424
:104CE0000B14C3010E944D17AE01455A5F4FB3012B
:104CF000CE018F599F4F0E947114BE016F597F4F93
:104D000080EA96E00E943E12CE018F599F4F0E948A
:104D10008912C3010E948912CE01855A9F4F0E94B9
:104D20008912CE01875B9F4F0E948912CE018D5B55
:104D30009F4F0E948912CE01815B9F4F0E94891272
:104D4000CE018B5A9F4F0E9489128091FA04909154
:104D5000FB04049709F077C081E020917201309143
:104D60007301232B09F480E00E94B10CAB01BC015C
:104D7000CE01855A9F4F0E9446180E94310868EE66
:104D800073E00E949133BC01CE01815B9F4F0E9472
:104D900085150E943B08BC01CE01875B9F4F0E9496
:104DA00085150E944308BC01C2010E948515B2010D
:104DB000CE018D5B9F4F0E940B14BE01675B7F4F3E
:104DC000CE018D5B9F4F0E943213BE01615B7F4F0E
:104DD0000E943213BC01CE018B5A9F4F0E940B14CC
:104DE000AE01455A5F4FBE016B5A7F4FCE018F59BE
:104DF0009F4F0E947114BE016F597F4F80EA96E069
:104E00000E943E12CE018F599F4F0E948912CE01FF
:104E10008B5A9F4F0E948912CE018D5B9F4F0E943B
:104E20008912C2010E948912CE01875B9F4F0E94A6
:104E30008912CE01815B9F4F0E948912CE01855A53
:104E40009F4F0E9489120E94610F87E896E00E949E
:104E500063088EE696E00E94630885E596E00E946E
:104E600063088091F804811188C11092F7041092B0
:104E7000F6048091870690918806181619060CF0A2
:104E800099C281E08093F904109201051092000507
:104E900044E650E060E070E088EE93E00E946B032F
:104EA0000E94E5056093F2047093F3048093F40488
:104EB0009093F5048091FA049091FB040196873059
:104EC000910509F486C19093FB048093FA04209124
:104ED000FA043091FB04F901E95CFE4F808190E017
:104EE0009093F7048093F60421503109F901EF59AA
:104EF000FD4F4081442309F449C2642F6150770B70
:104F0000CB01FB01E65BFD4F50815217130609F000
:104F10003DC2423009F062C128E1ECE8F1E0D30182
:104F200001900D922A95E1F7209166013091670179
:104F300023703327232B21F42DE130E03C832B8396
:104F4000E0916401F09165013197EE0FFF1FE60DCE
:104F5000F71D409162015091630120813181241736
:104F600035070CF03BC18AE090E09093FB048093FE
:104F7000FA0480E090E0892B09F4DECA0E94F10176
:104F8000882309F4D2CA0E940000CFCA81E080932E
:104F9000760497CC83E0FBCF85E0F9CF86E0F7CFAE
:104FA00088E0F5CF8AE0F3CF8CE0F1CF8091320139
:104FB00080937504BECC80916F008D7F80936F00CD
:104FC00006CD809170008D7F8093700000CD209180
:104FD000DD042111A4C09C012F5F3F4F409135019A
:104FE00050913601249FC001259F900D349F900D54
:104FF0001124B1010E94913389E00E943105209172
:105000007A0130917B012F5F3F4F4091E504509131
:10501000E604249FC001259F900D349F900D11241C
:10502000B1010E94913386E00E94310520917A01FE
:1050300030917B012F5F3F4F4091E3045091E40496
:10504000249FC001259F900D349F900D1124B10124
:105050000E94913383E00E9431058091EE0481111A
:10506000F2CC2091870430918804C901880F991FE0
:10507000820F931FFC01EE0FFF1FEA5DFD4F409171
:1050800035015091360160817181460F571F509351
:10509000360140933501FC01EE0FFF1FE85DFD4F27
:1050A0004091E5045091E60460817181460F571FDD
:1050B0005093E6044093E504880F991FFC01E65DD8
:1050C000FD4F8091E3049091E40440815181840F6D
:1050D000951F9093E4048093E3048091850490915C
:1050E0008604019690938604809385048F3F9105F2
:1050F00051F42F5F3F4F3093880420938704109220
:105100008604109285048091870490918804069704
:105110000CF499CC109288041092870494CC70E01F
:1051200060E089E00E94310570E060E086E00E9466
:10513000310570E060E08ECF4230510509F016CDA8
:105140001092FB041092FA04A0917601B0917701BD
:1051500020E63AEE0E94EC336093510670935206BB
:10516000809353069093540601CD10928A041092B6
:10517000890406CD1092DC0466CE0E94E5050091FC
:10518000F2041091F3042091F4043091F504601BB3
:10519000710B820B930B61367A4E8105910508F4F1
:1051A00068CE1092F804E091FA04F091FB04E858FC
:1051B000FD4F808190E09093FB048093FA04895C1A
:1051C0009E4FFC01808190E09093F7048093F60459
:1051D00050CE1092FB041092FA0479CE1092F8048B
:1051E0009093FB048093FA04892BB9F40E94310850
:1051F0007C010E943B088C010E94430840916001A1
:105200005091610160915E0170915F019C018091FC
:105210005C0190915D010E9416068091FA049091C4
:10522000FB040197C9F4E0906601F09067010091DA
:1052300064011091650180906201909063010E9469
:105240004B085C010E9453086C010E945B089401AA
:10525000A501B6010E9416068091FA049091FB0404
:105260000297C1F46091680182E090E00E94520FC1
:1052700060916A0183E090E00E94520F60916C019E
:1052800084E090E00E94520F60916E0186E090E011
:105290000E94520F8091FA049091FB04039731F41D
:1052A0006091700181E090E00E94520F8091FA04B9
:1052B0009091FB04049731F4609172018BE090E0CF
:1052C0000E94520F8091FA049091FB040497D1F44C
:1052D000109174018CE090E00E940432811729F053
:1052E000612F8CE090E00E940C32109175018DE0EE
:1052F00090E00E940432181729F0612F8DE090E0B1
:105300000E940C328091FA049091FB04059761F49D
:10531000609176018EE090E00E94520F60917801DA
:105320008FE090E00E94520F8091FA049091FB046C
:10533000069731F460917A0180E190E00E94520F6B
:1053400060E085E00E9401030E9431087C010E9418
:105350003B08082F0E944308C82E0E944B08D82EF5
:105360000E945308182F0E945B08382FC70168EE6F
:1053700073E00E949133E82E2C2D4D2D612F832F49
:105380000E94740B61E085E00E9401030091FA0421
:105390001091FB040331110569F08091F60490919E
:1053A000F7040E941E15000F111FF801E25BFE4F6B
:1053B00091838083809187069091880697FF94C09F
:1053C00044E650E060E070E088EE93E00E946B03FA
:1053D0008091F804811155C00091FA041091FB04EA
:1053E0000E94E5056093F2047093F3048093F40443
:1053F0009093F504012B09F044C00E944B08BC01B6
:10540000C3010E9485150E945308BC01CE018D5B2B
:105410009F4F0E9485150E945B08BC01CE01815BF5
:105420009F4F0E948515BE01615B7F4FCE01875B58
:105430009F4F0E940B14BE016D5B7F4FCE01875BB7
:105440009F4F0E943213B3010E9432136CEB72E043
:105450000E941C13BC0180EA96E00E94F413CE0166
:10546000875B9F4F0E948912CE01815B9F4F0E94F4
:105470008912CE018D5B9F4F0E948912C3010E9449
:105480008912E091FA04F091FB04E858FD4F008185
:1054900010E01093FB040093FA040D30110549F459
:1054A00081E090E090936F0180936E0180E880939B
:1054B000F1048091F80491E089278093F804F801C1
:1054C000E95CFE4F808190E09093F7048093F604AE
:1054D0000231110549F00E941E15000F111FF8013D
:1054E000E25BFE4F9183808380916E0690916F0600
:1054F000009719F19093F0048093EF0418161906A1
:10550000E4F481E08093F904109201051092000503
:1055100044E650E060E070E088EE93E00E946B03A8
:105520000E94F3168091F804811107C01092EE04D6
:1055300060E087E090E00E94520F8091EF0490912C
:10554000F004019609F001C180917006882309F4E6
:10555000FCC01092ED048091F8048823F9F00E94B9
:10556000E5050091E9041091EA042091EB043091E3
:10557000EC04601B710B820B930B6739710581057D
:10558000910560F00E94E5056093E9047093EA04D8
:105590008093EB049093EC040E94F31680915506DF
:1055A000909156060097A9F19093E8048093E70440
:1055B0001816190674F511E01093F90410920105FC
:1055C0001092000544E650E060E070E088EE93E061
:1055D0000E946B030E9498168091F804811119C0F3
:1055E0001093EE0461E087E090E00E94520F60911A
:1055F000350188E090E00E94520F6091E50489E057
:1056000090E00E94520F6091E3048AE090E00E94D3
:10561000520F8091E7049091E804019609F099C037
:1056200080915706882309F494C08091F804109261
:10563000E204882321F10E94E5050091DE04109127
:10564000DF042091E0043091E104601B710B820BB8
:10565000930B673971058105910508F453C00E94C9
:10566000E5056093DE047093DF048093E00490937B
:10567000E1040E9498168091F804811143C0809142
:105680006E0690916F0697FF28C044E650E060E0F8
:1056900070E088EE93E00E946B0381E08093340118
:1056A00061E090E080E00E94520F88E090E00E946C
:1056B000540F682F89E00E94010389E090E00E9466
:1056C000540F682F86E00E9401038AE090E00E9458
:1056D000540F682F83E00E9401038091550690913A
:1056E000560697FF0FC044E650E060E070E088EE99
:1056F00093E00E946B031092340160E090E080E040
:105700000E94520FE091FA04F091FB04E731F10599
:1057100008F02FCCE257F44D0C94E633AD2B252C3A
:10572000002D532D812D072EC42EB927B927B92757
:10573000B927B927B927B927B927B927B927B92769
:10574000812DCA2D072E072EC42E81E08093ED04F3
:1057500025CF81E08093E2048ECF1092DD0480910A
:10576000DC04811129C00E94E5050091A304109179
:10577000A4042091A5043091A604601B710B820B38
:10578000930B633371058105910508F44FC00E94A6
:10579000E5056093A3047093A4048093A5049093FB
:1057A000A604C2010E944D17B20180EA96E00E9451
:1057B0003E12C2010E9489128091AC0481110DC079
:1057C0000E94E5056093A8047093A9048093AA043D
:1057D0009093AB0481E08093AC040E94E5050091B6
:1057E000A8041091A9042091AA043091AB04601B75
:1057F000710B820B930B693E734081059105F0F0AC
:105800000E94E5056093A8047093A9048093AA04FC
:105810009093AB048091A70491E089278093A7041B
:10582000882351F080EC8093F10408C060EA76E0B0
:10583000C2010E940B14B8CF1092F1040E94740EA2
:105840001092DB041092DA0494CB8091DC04811175
:10585000D5C08091C60481110DC00E94E5056093FA
:10586000C2047093C3048093C4049093C50481E080
:105870008093C6048091BA04811147C00E94310808
:1058800068EE73E00E949133BC01C2010E9485154D
:105890000E943B08BC01CE018D5B9F4F0E94851585
:1058A0000E944308BC01CE01815B9F4F0E94851579
:1058B000BE01615B7F4FCE01875B9F4F0E940B143F
:1058C000BE016D5B7F4FCE01875B9F4F0E943213FD
:1058D000B2010E943213BC0184EB94E00E940B14CD
:1058E00081E08093BA04CE01875B9F4F0E948912AA
:1058F000CE01815B9F4F0E948912CE018D5B9F4F2D
:105900000E948912C2010E9489120E94E50500913D
:10591000C2041091C3042091C4043091C504601BDB
:10592000710B820B930B693E73408105910508F45E
:1059300058C00E94E5056093C2047093C30480932D
:10594000C4049093C5040E9431087C010E943B0866
:10595000BC01CE018D5B9F4F0E9485150E944308BC
:10596000BC01CE01815B9F4F0E948515BE01615B2A
:105970007F4FCE01875B9F4F0E940B14BE016D5B72
:105980007F4FCE01875B9F4F0E9432138C014AE00C
:10599000B201C7010E947430F20101900020E9F7C2
:1059A0003197AF0144195509B201C8010E94B912DB
:1059B000811103C0C8010E947712B80184EB94E002
:1059C0000E94F413CE01875B9F4F0E948912CE0183
:1059D000815B9F4F0E948912CE018D5B9F4F0E9479
:1059E000891264EB74E0C2010E940B14B20180EAD8
:1059F00096E00E943E12C2010E94891280E813CFF5
:105A000060916C0170916D01C3010E9485156091D8
:105A10006A0170916B01CE018D5B9F4F0E948515CD
:105A20006091680170916901CE01815B9F4F0E9476
:105A30008515BE01615B7F4FCE01875B9F4F0E9442
:105A40000B14BE016D5B7F4FCE01875B9F4F0E94A1
:105A50003213B3010E9432136CEB72E00E941C13EC
:105A6000BC0180EA96E00E94F413CE01875B9F4F51
:105A70000E948912CE01815B9F4F0E948912CE0144
:105A80008D5B9F4F0E948912C3010E9489128091F1
:105A90006E0190916F01019789F580E88093F10480
:105AA0000E94740E66CA6091700170917101C30109
:105AB0000E949B136CEB72E0CE018D5B9F4F0E94A6
:105AC0001414B301CE018D5B9F4F0E9432136AEB19
:105AD00072E00E941C13BC0180EA96E00E94F4135D
