:020000040000FA
:100000000C9484000C94AC000C94AC000C94AC00E8
:100010000C94AC000C94AC000C94AC000C94991AA9
:100020000C94AC000C94AC000C94AC000C94E81A4A
:100030000C94AC000C94AC000C94431B0C94AC00DE
:100040000C944F1A0C94AC000C941D1A0C94F719D4
:100050000C94AC000C94AC000C94AC000C94AC0070
:100060000C949E1B0C94AC0057616B652075702C32
:10007000204E656F2100000000080002010000030F
:100080000407000000000000000000000000250040
:1000900028002B0002010000000000240027002A95
:1000A000004661756C74792044533332333121003A
:1000B0004669726D776172653A2000496E636F72AE
:1000C0007265637420536F6E6720466F726D617442
:1000D000210000000000230026002900040404047D
:1000E00004040404020202020202030303030303E2
:1000F00001020408102040800102040810200102BF
:1001000004081020F61C3F2E11241FBECFEFD8E0AC
:10011000DEBFCDBF13E0A0E0B1E0EAE0F8E602C048
:1001200005900D92AE39B107D9F726E0AEE9B3E0FC
:1001300001C01D92AF3AB207E1F710E0C3E8D0E08A
:1001400004C02197FE010E940933C238D107C9F7C4
:100150000E94971D0C94F8330C9400008091970630
:10016000E0919806F0919906F8949181282F2095B6
:100170009223918378943DE743E050E0315029F198
:10018000DA011197F1F790819823C1F3F8949281E5
:10019000922392839181982B91837894ABE7B7E077
:1001A0001197F1F7F894918192239183A3E1B1E043
:1001B0001197F1F79081982381E009F080E078941D
:1001C000E3E6F6E03197F1F7089580E00895909125
:1001D0009706E0919806F0919906292F209580FFC7
:1001E00014C0F8948281822382838181892B818348
:1001F000A3E2B0E01197F1F78281982B9283789473
:1002000087ED90E00197F1F70895F89482818223B9
:1002100082838181892B8183AFEFB0E01197F1F761
:100220008281982B928378948FE090E0EBCF0F93AC
:100230001F93CF93DF93082FC8E0D0E011E081E057
:10024000902F912309F480E00E94E700110F21977D
:10025000B1F7F894E0919806F09199069181809118
:100260009706809598239183E0919806F0919906DE
:100270009281892382837894DF91CF911F910F918E
:10028000089580919706E0919806F0919906F89468
:100290009181982B91832281382F309523232283BB
:1002A000A7E0B0E01197F1F7918193239183A3E246
:1002B000B0E01197F1F790817894EFECF0E031978E
:1002C000F1F7982381E009F480E008950F931F93DC
:1002D000CF93DF9308E010E0C0E0D1E00E9441013D
:1002E0008111CD2BDD0F01501109C1F78C2FDF914A
:1002F000CF911F910F9108958CBD9DBD08950895D4
:1003000008950895AF92BF92CF92DF92EF92FF923D
:100310000F931F93CF93DF936C017B018B01040F2D
:10032000151FEB015E01AE18BF08C017D10759F0C9
:100330006991D601ED91FC910190F081E02DC6010B
:100340000995892B79F7C501DF91CF911F910F9105
:10035000FF90EF90DF90CF90BF90AF900895FC0199
:10036000538D448D252F30E0842F90E0821B930B1A
:10037000541710F0CF96089501970895FC01918DC0
:10038000828D981761F0A28DAE0FBF2FB11D5D96C3
:100390008C91928D9F5F9F73928F90E008958FEF65
:1003A0009FEF0895FC01918D828D981731F0828D19
:1003B000E80FF11D858D90E008958FEF9FEF089570
:1003C000FC01918D228D892F90E0805C9F4F821BD4
:1003D00091098F739927089583E995E00E94E001C0
:1003E00021E0892B09F420E0822F089580E090E03D
:1003F000892B29F00E94EC0181110C9400000895D2
:10040000FC01A48DA80FB92FB11DA35ABF4F2C9189
:10041000848D90E001968F739927848FA689B78980
:100420002C93A089B1898C91837080648C93938D77
:10043000848D981306C00288F389E02D80818F7D1A
:1004400080830895EF92FF920F931F93CF93DF93D2
:10045000EC0181E0888F9B8D8C8D98131AC0E88900
:10046000F989808185FF15C09FB7F894EE89FF89CF
:100470006083E889F98980818370806480839FBF6D
:1004800081E090E0DF91CF911F910F91FF90EF906D
:100490000895F62E0B8D10E00F5F1F4F0F7311277D
:1004A000E02E8C8D8E110CC00FB607FCFACFE889B8
:1004B000F989808185FFF5CFCE010E940002F1CF3E
:1004C000EB8DEC0FFD2FF11DE35AFF4FF0829FB72C
:1004D000F8940B8FEA89FB8980818062CFCF0F93DC
:1004E0001F93CF93DF938C01D0E0C0E0F801EC0FB5
:1004F000FD1F6491662341F083E995E00E9422028A
:10050000892B11F02196F2CFCE01DF91CF911F916F
:100510000F910895CF93DF93EC01888D8823B9F074
:10052000AA89BB89E889F9898C9185FD03C08081FE
:1005300086FD0DC00FB607FCF7CF8C9185FFF2CF7B
:10054000808185FFEDCFCE010E940002E9CFDF91CF
:10055000CF910895833081F028F4813099F0823072
:10056000A9F008958730A9F08830C9F08430B1F43B
:10057000809180008F7D03C0809180008F77809371
:100580008000089584B58F7784BD089584B58F7DEC
:10059000FBCF8091B0008F778093B0000895809159
:1005A000B0008F7DF9CFCF93DF93282F30E0F90192
:1005B000EA58FF4F8491F901E051FF4FD491F901BE
:1005C000E452FF4FC491CC23A1F081110E94AA02F2
:1005D000EC2FF0E0EE0FFF1FEE52FF4FA591B4910C
:1005E000EC91ED2381E090E009F480E0DF91CF9180
:1005F000089580E090E0FACF1F93CF93DF93282FE8
:1006000030E0F901EA58FF4F8491F901E051FF4FC2
:10061000D491F901E452FF4FC491CC23A9F0162FD5
:1006200081110E94AA02EC2FF0E0EE0FFF1FE657A7
:10063000FF4FA591B4918FB7F894EC91111108C0B8
:10064000D095DE23DC938FBFDF91CF911F9108956A
:10065000DE2BF8CFCF93DF9390E0FC01E051FF4F0A
:10066000249184529F4FFC0184918823C9F090E02B
:10067000880F991FFC01E956FF4FA591B491FC0129
:10068000E657FF4FC591D49161110DC09FB7F89403
:100690008C91209582238C938881282328839FBF67
:1006A000DF91CF910895623051F49FB7F8943C9157
:1006B000822F809583238C93E8812E2BEFCF8FB7E9
:1006C000F894EC912E2B2C938FBFEACF4F925F9230
:1006D0006F927F928F929F92AF92BF92CF92DF9252
:1006E000EF92FF920F931F93CF93DF9300D000D030
:1006F0001F92CDB7DEB72091920527FD2CC149830B
:100700005A836B837C838C0161E0809191050E9408
:100710002A03809192058D834801B12CA12C8D7FF5
:1007200009F031C160E072E18AE790E0A50198012B
:100730000E94EA3229013A017A01690191E0C91A5D
:10074000D108E108F108AFEFCA16D104E104F104C1
:1007500009F00CF4C7C060E472E48FE090E0A501FA
:1007600098010E94EA3269017A01B1E0CB1AD108FE
:10077000E108F1088D81823009F06AC082E09FEFC4
:10078000C916D104E104F10409F00CF45EC160E97A
:1007900070ED83E090E0A50198010E94EA326901C2
:1007A0007A01A1E0CA1AD108E108F10883E0BFEF9D
:1007B000CB16D104E104F10409F00CF446C168E45D
:1007C00078EE81E090E0A50198010E94EA3269018B
:1007D0007A0181E0C81AD108E108F10884E09FEFAE
:1007E000C916D104E104F10409F00CF42EC164E24D
:1007F00074EF80E090E0A50194010E94EA32690163
:100800007A01B1E0CB1AD108E108F10885E09FEF49
:10081000C916D104E104F10409F008F416C162E13B
:100820007AE780E090E0A50194010E94EA32690134
:100830007A01B1E0CB1AD108E108F1088FEFC816B0
:10084000D104E104F10411F008F0F0C086E0FDC02D
:100850008FEFC816D104E104F10409F00CF491C043
:1008600068E478EE81E090E0A50198010E94EA3208
:1008700069017A0191E0C91AD108E108F108AD8156
:1008800084E0A111C4CF83E0AFEFCA16D104E10424
:10089000F10461F15CF162E17AE780E090E0A501AA
:1008A00094010E94EA3269017A0181E0C81AD108F4
:1008B000E108F10884E09FEFC916D104E104F104D6
:1008C000A9F0A0F0730162019AE0F594E794D7943F
:1008D000C7949A95D1F7A1E0CA1AD108E108F108A6
:1008E00085E004C081E0AD81A111AFC095B5987FCE
:1008F000892B85BD89819A81AB81BC812FEF3FEF28
:10090000A901892B8A2B8B2B79F0D801AA0FBB1F49
:1009100029813A814B815C810E943D3128EE33E090
:1009200040E050E00E94C8329D81913009F45CC0E3
:10093000923009F46BC091110EC0C7BC20938D0595
:1009400030938E0540938F055093900580916E00F3
:10095000826080936E000F900F900F900F900F9019
:10096000DF91CF911F910F91FF90EF90DF90CF908B
:10097000BF90AF909F908F907F906F905F904F90BF
:10098000089582E0B0CF60E072E18AE790E0A501CF
:1009900098010E94EA3269017A01B1E0CB1AD108CC
:1009A000E108F10891E0C114D10481E0E806F10406
:1009B00084F068E478EE81E090E0A50198010E945F
:1009C000EA3269017A0191E0C91AD108E108F10817
:1009D00093E0AD81A13009F08DCF80918100887FB7
:1009E000892B8093810086CFD0928900C0928800A5
:1009F0002093890530938A0540938B0550938C058D
:100A000080916F00826080936F00A5CFC092B30089
:100A1000209385053093860540938705509388057C
:100A20008091700082608093700095CF73016201A5
:100A30008AE0F594E794D794C7948A95D1F7B1E00A
:100A4000CB1AD108E108F10887E09091B100987FB6
:100A5000892B8093B1004ECF1F93CF93DF93182F34
:100A6000EB0161E00E942A03209739F460E0812FB6
:100A7000DF91CF911F910C94FC02CF3FD10511F46F
:100A800061E0F5CFE12FF0E0EA58FF4FE491E33069
:100A900031F140F4E130B1F0E230E1F0C038D1059D
:100AA0007CF7E4CFE73029F1E83059F1E430B1F7D1
:100AB00080918000806280938000D0938B00C093EF
:100AC0008A0004C084B5806884BDC7BDDF91CF9122
:100AD0001F91089584B5806284BDC8BDF7CF809111
:100AE0008000806880938000D0938900C093880044
:100AF000EDCF8091B00080688093B000C093B300C8
:100B0000E5CF8091B00080628093B000C093B400C4
:100B1000DDCF3FB7F8948091380490913904A091CB
:100B20003A04B0913B0426B5A89B05C02F3F19F0AD
:100B30000196A11DB11D3FBFBA2FA92F982F88275D
:100B4000BC01CD01620F711D811D911D42E0660F38
:100B5000771F881F991F4A95D1F708958F929F920A
:100B6000AF92BF92CF92DF92EF92FF924B015C0166
:100B70000E9489056B017C010E9489056C197D0921
:100B80008E099F09683E734081059105A8F321E015
:100B9000821A9108A108B10888EEC80E83E0D81E19
:100BA000E11CF11C81149104A104B10429F7FF9008
:100BB000EF90DF90CF90BF90AF909F908F9008956F
:100BC0002FB7F89460913404709135048091360405
:100BD000909137042FBF08956093280470932904DF
:100BE00080932A0490932B04645D7E4F8F4F9F4F18
:100BF0006093240470932504809326049093270423
:100C000082E090E090932304809322040E94E00508
:100C100060931E0470931F0480932004909321041A
:100C200008952F923F924F925F926F927F928F9290
:100C30009F92AF92BF92CF92DF92EF92FF920F936B
:100C40001F93CF93DF93382E962E842E222E84E688
:100C5000E816F1040CF459C092EBE91A97E0F90A8E
:100C6000E0923204009331042092300430922E043A
:100C700090922D0480922C04AE2DB0E020E833E356
:100C800041EE51E00E943D312B013C0122EB37E067
:100C9000FF24E4E6F0E0C0E9D1E0C901825B9740BF
:100CA0008E159F05B4F19EE4E91A98EFF90AC70181
:100CB00064E670E00E94B4326C01C70160E971E043
:100CC0000E94B4325C01C4EAD1E0E1E0F0E0112717
:100CD00083E0E822FF24E017F1070CF042C0E23085
:100CE000F10591F5E114F10479F5C114D10419F479
:100CF000A114B10449F580E8480E8BE3581E86E242
:100D0000681E711C31962196E6CF8EE1E80EF11C2B
:100D1000A7CFC90183709927892B99F4C901BF0115
:100D20000E94B432892B31F4C901BE010E94B43251
:100D3000892B39F490E8490E91E5591E91E0691E1E
:100D4000711C2F5F3F4FA9CFA881B0E020E831E5AB
:100D500041E050E00E943D31460E571E681E791E4C
:100D6000D1CF292D30E0ACE3B0E00E947F316B01A0
:100D70007C01C80CD11CE11CF11C232D30E0A0E14A
:100D8000BEE00E947F31C60ED71EE81EF91E822DDE
:100D90008150990BDC0120E831E541E050E00E94F0
:100DA0000F336C0D7D1D8E1D9F1D640D751D861DE1
:100DB000971DDF91CF911F910F91FF90EF90DF90E2
:100DC000CF90BF90AF909F908F907F906F905F90EB
:100DD0004F903F902F900C94EC05CF92DF92EF92C2
:100DE000FF920F931F930E94E0058B019C01C0901E
:100DF0001E04D0901F04E0902004F0902104609124
:100E000028047091290480912A0490912B040C19D4
:100E10001D092E093F09083E134021053105E0F068
:100E2000DC01CB010196A11DB11D80932804909394
:100E30002904A0932A04B0932B04B701A6014851BA
:100E40005C4F6F4F7F4F40931E0450931F0460937D
:100E5000200470932104C7CF1F910F91FF90EF9052
:100E6000DF90CF9008954F925F926F927F928F9212
:100E70009F92AF92BF92CF92DF92EF92FF920F9329
:100E80001F93CF93DF934B015C0180911A049091E3
:100E90001B04A0911C04B0911D0488159905AA0596
:100EA000BB0509F4C6C08CE3C82ED12CE12CF12C73
:100EB000C501A70196010E94C83260932C04CA01A3
:100EC000B901A70196010E94C83260932D04C501A3
:100ED000B40120E13EE040E050E00E94C832CA0187
:100EE000B90128E130E040E050E00E94C832609350
:100EF0002E04C501B40120E831E541E050E00E9434
:100F0000C83269017A01CA01B9016C5F7F4F8F4F06
:100F10009F4F27E030E040E050E00E94C8326F5F12
:100F200060932F04412C512C320140E004E610E084
:100F3000C0E9D1E0242F30E02E54384FF901E3709E
:100F4000FF273097F9F4C901B8010E94B432892B08
:100F500031F4C901BE010E94B432892B99F48EE6A6
:100F600091E0A0E0B0E0480E591E6A1E7B1ED3013E
:100F7000C201AA27BB27C816D906EA06FB0638F025
:100F80004F5FD8CF8DE691E0A0E0B0E0ECCF40938A
:100F90003204C90164E670E00E94B432EC01C90178
:100FA00060E971E00E94B432309721F42097D9F4BF
:100FB0000097C9F04DE651E060E070E0441A550A30
:100FC000660A770AC418D508E608F708A4EAB1E06B
:100FD00020E0213069F43097E9F5209711F400976B
:100FE000C9F54DE106C04EE651E060E070E0E6CFA5
:100FF0004C9150E070E060E031E0320FC416D5064D
:10100000E606F70640F0C41AD50AE60AF70A119672
:10101000232F3C30F1F62F5F20933104C394C0920C
:10102000300480921A0490921B04A0921C04B09287
:101030001D04DF91CF911F910F91FF90EF90DF90F2
:10104000CF90BF90AF909F908F907F906F905F9068
:101050004F9008954CE1CDCF0E94ED060E943307DA
:101060008091320490E08E54984F08950E94ED06CE
:101070000E9433078091310490E008950E94ED06AC
:101080000E9433078091300490E008950E94ED069D
:101090000E94330780912C0490E008950E94ED0691
:1010A0000E94330780912D0490E008950E94ED0680
:1010B0000E94330780912E0490E00895CF92DF9232
:1010C000EF92FF92CF93DF93EC010E94E0056B015A
:1010D0007C018F850E94D3029C0181E0211531059E
:1010E00009F480E0898B8889811105C091E0232B68
:1010F00009F090E0998B29898A89281721F0CD8AF7
:10110000DE8AEF8AF88E8D899E89AF89B88DB70106
:10111000A601481B590B6A0B7B0BDB01CA01CB8074
:10112000DC80ED80FE80C816D906EA06FB0664F472
:101130003A81231749F02A83222349F04B895C899D
:101140004F5F5F4F5C8B4B8B3A81311117C0CF8063
:10115000D884E984FA84C816D906EA06FB0634F472
:101160008B899C89998388831C8A1B8A2A8BDF91AF
:10117000CF91FF90EF90DF90CF900895CB84DC84E7
:10118000ED84FE84C816D906EA06FB067CF78B8937
:101190009C89919581959109E5CF2091F703260FC0
:1011A0003327331F21323105ECF420914005FC0137
:1011B00090E080E0243069F082E00895A091F70388
:1011C0002191AC0149525C4FA40FB52FB11D2C9356
:1011D0000196861798F38091F703680F6093F703E1
:1011E00080E0089581E008951092400581E08093A9
:1011F0003F0510921A0561E082E10E94FC0261E065
:1012000083E10E94FC02E9EBF0E080818E7F808325
:1012100080818D7F808388E48093B80085E480930B
:10122000BC000895CF93DF9391E09093D603882379
:10123000B9F0C091B800D091BA008091BC008A7B0F
:101240008093BC0060E082E10E94FC0260E083E1E8
:101250000E94FC020E94F408D093BA00C093B80028
:10126000DF91CF9108958F929F92AF92BF92CF92CC
:10127000DF92EF92FF920F931F93CF93DF93D09162
:101280006905D13208F0D7C0182FC09168050E94B7
:1012900089056B017C018091400581116BC082E062
:1012A0008093400510933F058FEF80933E05109289
:1012B0003D05D0933C05A8E4B5E0ECE1F5E080E025
:1012C000D81391C010921B0580911B05CC0FC82B21
:1012D000C0931B0580911A05813009F088C01092D7
:1012E0001A050E9489056B017C0180911B05809382
:1012F000BB008091420590914305A0914405B091B7
:101300004505892B8A2B8B2BA1F00E948905009122
:1013100042051091430520914405309145056C1913
:101320007D098E099F09061717072807390708F452
:1013300042C08091BC0083FDD8CF85EC8093BC0077
:101340000E9489056B017C0180914005823009F47F
:1013500050C080913E058F3F09F46FC080913E05DB
:10136000803209F46CC080913E05803309F469C075
:1013700084E026C08091420590914305A0914405E8
:10138000B0914505892B8A2B8B2B09F484CF0E94C1
:1013900089058090420590904305A0904405B09047
:1013A00045056C197D098E099F0986169706A806C2
:1013B000B90608F070CF809141050E94120985E0BE
:1013C000109247051092690510924605DF91CF9162
:1013D0001F910F91FF90EF90DF90CF90BF90AF9053
:1013E0009F908F9008959D9191938F5F69CF85EE27
:1013F000A5CF8091420590914305A0914405B091FD
:101400004505892B8A2B8B2B09F49ECF0E948905D9
:101410000091420510914305209144053091450506
:101420006C197D098E099F090617170728073907C8
:1014300008F08ACFC0CF81E0C3CF80E0C1CF82E087
:10144000BFCF83E0BDCFCF92DF92EF92FF920F9399
:101450001F93CF93DF93D82FC62F613208F098C027
:101460000E9489056B017C018091400581116BC050
:1014700081E08093400580933F059FEF90933E0568
:1014800010923D059C0F90933C0580931B05809125
:101490001B05DD0FD82BD0931B0580911A058130D9
:1014A00009F078C010921A050E9489056B017C0131
:1014B00080911B058093BB0080914205909143056C
:1014C000A0914405B0914505892B8A2B8B2BA1F067
:1014D0000E94890500914205109143052091440521
:1014E000309145056C197D098E099F09061717076C
:1014F0002807390708F448C08091BC0083FDD8CF85
:1015000085EC8093BC000E9489056B017C01809171
:101510004005813009F440C080913D058C1710F4DE
:10152000C0913D05ECE1F5E0AAEFB4E080E08C135A
:1015300055C08C2FDF91CF911F910F91FF90EF90AD
:10154000DF90CF9008958091420590914305A0913E
:101550004405B0914505892B8A2B8B2B09F484CF48
:101560000E94890500914205109143052091440590
:10157000309145056C197D098E099F0906171707DB
:101580002807390708F070CF809141050E941209A1
:10159000C0E0CFCF85EEB5CF809142059091430555
:1015A000A0914405B0914505892B8A2B8B2B09F41A
:1015B000AECF0E948905009142051091430520910C
:1015C0004405309145056C197D098E099F09061760
:1015D00017072807390708F09ACFD6CF91919D9326
:1015E0008F5FA5CF0895E0914D0480914C04E817DA
:1015F00030F4F0E0E650FB4F808190E008958FEFEB
:101600009FEF089590914D0480914C042FEF3FEF90
:10161000981748F4E92FF0E0E650FB4F208130E0C6
:101620009F5F90934D04C901089580914C0490915F
:101630004D04891B990B0895CF92DF92EF92FF9290
:101640000F931F93CF93DF937C01CB018A012091ED
:101650004605222389F0EB016B01C40ED51ECC1583
:10166000DD0569F06991D701ED91FC910190F08160
:10167000E02DC7010995F3CF642F0E94CD08C80162
:10168000DF91CF911F910F91FF90EF90DF90CF905E
:101690000895CF93DF931F92CDB7DEB76983209172
:1016A00046052223F9F020916905203258F021E007
:1016B00030E0FC013383228390E080E00F90DF91E3
:1016C000CF91089580914705E82FF0E0E85BFA4F4D
:1016D000998190838F5F809347058093690581E0AE
:1016E00090E0ECCF61E0CE0101960E94CD08F7CFEB
:1016F000DF92EF92FF920F931F93CF93DF93182FF8
:10170000F62ED42ED22F81E08093460588E6809372
:101710006805109247051092690560E080E396E045
:101720000E94490BCAE08D2D6C2F0E94A832829531
:10173000807F682F690F80E396E00E94490B8F2D10
:101740006C2F0E94A8328295807F682F690F80E3FA
:1017500096E00E94490B812F6C2F0E94A83282953F
:10176000807F682F690F80E396E00E94490B61E05B
:1017700080E396E00E94490B8D2F6C2F0E94A832C7
:101780008295807F682F690F80E396E00E94490B65
:10179000802F6C2F0E94A8328295807F682F690F5E
:1017A00080E396E00E94490B8E2D6C2F0E94A83298
:1017B0008295807F682F690F80E396E00E94490B35
:1017C00060E080E396E00E94490B81E0DF91CF91D9
:1017D0001F910F91FF90EF90DF900C94330990E0F0
:1017E00080E008954091D4035091D5032091D20315
:1017F0003091D30380E09CE34217530711F48FEF3D
:101800009FEF4F5F5F4F4330510529F05093D50351
:101810004093D40308951092D5031092D4032F5F00
:101820003F4F2330310529F03093D3032093D20367
:1018300008951092D3031092D20308952091C50405
:101840003091C60402C0359527958A95E2F720FFAE
:1018500003C080E09CE308958FEF9FEF0895CF923F
:10186000DF92EF92FF920F931F93CF93DF939091AC
:10187000D80491110BC08FEF9FEFDF91CF911F9193
:101880000F91FF90EF90DF90CF9008959091CD044D
:10189000992389F3082FC091E104D091E20480914B
:1018A000CA0381110DC00E94E0056093C6037093C6
:1018B000C7038093C8039093C90381E08093CA0350
:1018C0000E94E005C090C603D090C703E090C80313
:1018D000F090C9036C197D098E099F096D32714022
:1018E00081059105B0F01091C5030E94E005609359
:1018F000C6037093C7038093C8039093C90391E014
:1019000091279093C503992331F11092C40310924B
:10191000C3032091C3033091C40320953095809177
:10192000DC04282326FF1CC081E08093C20327FF2C
:101930001AC081E08093C1038091C503882309F414
:101940009ACF02C0D595C7950A95E2F7C0FF93CF0D
:1019500080E09CE392CFD093C403C093C303D9CF5C
:101960001092C203E4CF1092C103E6CFCF92DF9270
:10197000EF92FF921F93CF93DF9390916A05992383
:1019800009F48BC0C091BB03D091BC03C830D10512
:1019900080F4182FFE01E153F34F0C940933D70C58
:1019A000F20CF60CD70CF20CF80CFA0CFF0C0E949F
:1019B000AE002196C830D10509F46AC0D093BC03AB
:1019C000C093BB036091B5037091B6038091B703D8
:1019D0009091B803DF91CF911F91FF90EF90DF902E
:1019E000CF9008958CEC0E941701E3CF84E4FBCFE5
:1019F0008EEBF9CF0E9466018093B903DACF0E9483
:101A000066018093BA036091B903782F6F3F760720
:101A100011F470E060E0072E000C880B990B0E9417
:101A20000A3020E030E040E85DE30E9469306B015D
:101A30007C016091640170E090E080E00E940830D9
:101A400020E030E040E251E40E94FB31A701960122
:101A50000E948F3111110FC020E030E040E251E4CC
:101A60000E9469306093B5037093B6038093B70307
:101A70009093B8039ECF26E636E646EE5FE30E94DB
:101A8000693020E030E040E052E40E948F31E4CF42
:101A90001092BC031092BB0395CF60E070E0CB01C5
:101AA00099CFCF93DF93EC012196FC0120812A335B
:101AB000C9F42181243609F5229630E020E06AE05D
:101AC000899190ED980F9A3078F4629FA001639FFE
:101AD000500D1124082E000C990BC0979A01280F65
:101AE000391FEECFCE01DFCF309369042093680415
:101AF0002115310511F02093340188818F3689F446
:101B00008A81082E000C990B9C01205331093093D7
:101B1000690420936804C397059710F42093330158
:101B2000249688818236F1F4229630E020E06AE043
:101B3000899190ED980F9A3068F4629FA001639F9D
:101B4000500D1124082E000C990BC0979A01280FF4
:101B5000391FEECF3093690420936804309301015C
:101B6000209300012091000130910101032E000C0F
:101B7000440B550B60E67AEE80E090E00E94EA327A
:101B800082E0220F331F441F551F8A95D1F72093FF
:101B90006404309365044093660450936704CE0157
:101BA000DF91CF9108958EBD00000DB407FEFDCFEB
:101BB0008EB50895CF9381E08093460588E68093A3
:101BC0006805109247051092690560E080E396E091
:101BD0000E94490B81E00E94330967E088E60E9479
:101BE000230A10924D0480934C0480E396E00E94F7
:101BF000020B982F92959F70CAE08F709C9F800D6A
:101C0000112490E09093F2048093F10480E396E035
:101C10000E94020B982F92959F708F709C9F800D51
:101C2000112490E09093F0048093EF0480E396E019
:101C30000E94020B982F929593708F709C9F800D3D
:101C4000112490E09093EE048093ED0480E396E0FD
:101C50000E94020B80E396E00E94020B982F92955F
:101C60009F708F709C9F800D112490E09093F404DE
:101C70008093F30480E396E00E94020B982F9295E4
:101C80009F708F709C9F800D112490E09093F604BC
:101C90008093F50480E396E00E94020B982F9295C2
:101CA0009F708F709C9F800D112490E09093F8049A
:101CB0008093F704CF910895FC0101900020E9F78B
:101CC0003197AF01481B590BBC0183E995E00C9497
:101CD0008201CF93DF930E946F02EC018FE992E0C3
:101CE0000E945C0E8C0F9D1FDF91CF9108950F9382
:101CF0001F9380916101882309F447C08091A40358
:101D00008823A9F00E94E0050091A0031091A1038F
:101D10002091A2033091A303601B710B820B930BE4
:101D2000693E73408105910580F11092A4030E94E1
:101D3000560820915E012817190639F50E944E08B1
:101D400020915F012817190601F50E94460820918D
:101D5000600128171906C9F40E94E0056093A003EA
:101D60007093A1038093A2039093A30381E08093D7
:101D7000A40388E690E00E94690E8091030190918F
:101D800004019093EC048093EB041F910F9108954C
:101D90000C942F310C942731FC01808191810097A4
:101DA00011F00C94702F60E070E0CB0108952F9239
:101DB0003F924F925F926F927F928F929F92AF92DB
:101DC000BF92CF92DF92EF92FF921F93CF93DF9358
:101DD000CDB7DEB72C970FB6F894DEBF0FBECDBFE0
:101DE0000E948905C090BD03D090BE03E090BF0360
:101DF000F090C0036C197D098E099F09603D774002
:101E00008105910508F498C20E9489056093BD037D
:101E10007093BE038093BF039093C0038BE896E05A
:101E20000E94CC0E1B012C012AE0822E912CA12CA9
:101E3000B12CA50194010E94EA3229833A834B8395
:101E40005C83660F771F60577E4FDB010D90BC915E
:101E5000A02DBE83AD8387E090E00E942F0C6C0123
:101E600090E080E00E941E0CC822D9220E94F20B52
:101E70007C0169817A818B819C81A50194010E94FA
:101E8000EA32660F771F60577E4FFB01808091809A
:101E900086E090E00E942F0C5C0181E090E00E94BF
:101EA0001E0CA822B9220E94F20BCE20DF202D8129
:101EB0003E81C222D322F12CE12C5AE0CC0CDD1C55
:101EC000EE1CFF1C5A95D1F78A219B21882299226A
:101ED000B12CA12C8C289D28AE28BF28C201B101AD
:101EE00024E630E040E050E00E94EA3269017A01E5
:101EF0008091C203811102C06894B6F88091C10339
:101F0000811102C06894B7F860E08AE00E94FC0288
:101F100010914B048B2D9927AA27BB2789839A837D
:101F2000AB83BC83C501AA27BB278D839E83AF8368
:101F3000B887BB27AB2D9A2D892D89879A87AB87C8
:101F4000BC87112309F4CBC1882D0E94D30D89854C
:101F50000E94D30D8D810E94D30D89810E94D30DE3
:101F60002AE0822E912CA12CB12CC701B601A5012B
:101F700094010E94EA32660F771F60577E4FDB01A3
:101F80006D907C9085E090E00E942F0C6C0182E0C7
:101F900090E00E941E0CC822D9226C207D200E9455
:101FA000F20B6C01C201B10128EE33E040E050E0D9
:101FB0000E94EA32CA01B901A50194010E94EA32E5
:101FC000660F771F60577E4FFB010190F081E02D77
:101FD000FA83E98384E090E00E942F0C7C0183E087
:101FE00090E00E941E0CE822F92229813A81E22227
:101FF000F3220E94F20BC620D720A60170E060E019
:10200000E4E1440F551F661F771FEA95D1F78E2133
:102010009F21B0E0A0E0FAE0880F991FAA1FBB1F24
:10202000FA95D1F76A017B01C82AD92AEA2AFB2A44
:10203000C201B10120E137E240E050E00E94EA3203
:10204000CA01B901A50194010E94EA32660F771F07
:1020500060577E4FDB010D90BC91A02DBA83A98300
:1020600083E090E00E942F0C5C0184E090E00E94ED
:102070001E0C8A219B21E981FA81E823F923FA8346
:10208000E9830E94F20B29813A8182239323B0E0F5
:10209000A0E0C82AD92AEA2AFB2AC201B10120EA13
:1020A00036E841E050E00E94EA3229873A874B87C0
:1020B0005C878091C203882309F41CC1E894F6F878
:1020C0008091C103882309F418C1E894F7F88F2D93
:1020D0009927AA27BB2789839A83AB83BC834701AF
:1020E000AA24BB24BB27AF2D9E2D8D2D8D839E83CF
:1020F000AF83B887112309F403C18C2D0E94D30D3F
:102100008D810E94D30D882D0E94D30D89810E945C
:10211000D30D3AE0832E912CA12CB12C69857A85C0
:102120008B859C85A50194010E94EA32660F771F7A
:1021300060577E4FDB016D907C9082E090E00E94C2
:102140002F0C6C0185E090E00E941E0CC822D92261
:102150006C207D200E94F20B6C01C201B10120E4D1
:1021600032E44FE050E00E94EA32CA01B901A50111
:1021700094010E94EA32660F771F60577E4FFB0181
:102180000190F081E02DFA83E98381E090E00E94E4
:102190002F0C7C0186E090E00E941E0CE822F922C0
:1021A00029813A81E222F3220E94F20BC620D72035
:1021B000A60170E060E0E4E1440F551F661F771F41
:1021C000EA95D1F78E219F21B0E0A0E0FAE0880FD8
:1021D000991FAA1FBB1FFA95D1F76A017B01C82A74
:1021E000D92AEA2AFB2AC201B10120E836E948E9E6
:1021F00050E00E94EA32CA01B901A50194010E948F
:10220000EA32660F771F60577E4FDB01AD90BC90BE
:1022100090E080E00E942F0C9A83898387E090E011
:102220000E941E0CE981FA81E823F923EA21FB21AF
:10223000FA83E9830E94F20B29813A818223932356
:10224000B0E0A0E08C299D29AE29BF292091C203CE
:102250006C017D01222309F45EC0E894F6F88091B8
:10226000C103882309F45AC0E894F7F84F2C552489
:10227000662477244701AA24BB24BB27AF2D9E2DBB
:102280008D2D89839A83AB83BC83112309F449C0C4
:102290008C2D0E94D30D89810E94D30D882D0E9420
:1022A000D30D842D0E94D30D61E08AE02C960FB6E9
:1022B000F894DEBF0FBECDBFDF91CF911F91FF908D
:1022C000EF90DF90CF90BF90AF909F908F907F90D6
:1022D0006F905F904F903F902F900C94FC028981FB
:1022E0000E94D30D8D810E94D30D89850E94D30D4C
:1022F000882D34CE6894F6F8E3CE6894F7F8E7CEEC
:1023000089810E94D30D882D0E94D30D8D810E945A
:10231000D30D8C2DFCCE6894F6F8A1CF6894F7F815
:10232000A5CF842D0E94D30D882D0E94D30D8981C5
:102330000E94D30D8C2DB6CF2C960FB6F894DEBF2D
:102340000FBECDBFDF91CF911F91FF90EF90DF9037
:10235000CF90BF90AF909F908F907F906F905F9045
:102360004F903F902F9008950F931F93CF93DF933B
:102370008C01EB01FC01808191810097E1F0688183
:10238000798161157105A9F0428153812C813D81CC
:102390004217530770F00E94F1338C819D81F80140
:1023A000958384831D821C82DF91CF911F910F91B1
:1023B00008950E94E72E88819981F8019183808396
:1023C0008A819B81938382838C819D819583848381
:1023D000198218821B821A82E5CFCF93DF93EC011A
:1023E00088819981009711F00E94E72E1982188246
:1023F0001D821C821B821A82DF91CF910895FC01FD
:1024000080819181009711F00C94E72E08950F932D
:102410001F93CF93DF93EC0188819981009759F046
:102420002A813B812617370730F081E0DF91CF9179
:102430001F910F9108958B016F5F7F4F0E942B3387
:10244000009759F0998388831B830A832C813D81EF
:10245000232B59F7FC011082E8CF80E0E7CFEF9201
:10246000FF920F931F93CF93DF936115710541F492
:1024700080E0DF91CF911F910F91FF90EF90089531
:1024800041155105B1F07B01EC010C811D81040F58
:10249000151FB8010E940712882351F32881398142
:1024A0008C819D81B701820F931F0E94F1331D83A0
:1024B0000C8381E0DECFEF92FF920F931F93CF93B7
:1024C000DF93CDB7DEB72D970FB6F894DEBF0FBE02
:1024D000CDBF7C01CB01BA012AE08E010F5F1F4FF7
:1024E000A8010E94B72FF80101900020E9F7319769
:1024F000AF01401B510BB801C7010E942F1281117F
:1025000003C0C7010E94ED11C7012D960FB6F894C4
:10251000DEBF0FBECDBFDF91CF911F910F91FF9016
:10252000EF900895CF93DF93EC01FB010190002021
:10253000E9F73197AF01461B570B0E942F1281110B
:1025400003C0CE010E94ED11CE01DF91CF9108951D
:10255000CF93DF93EC01FB01448155816081718150
:102560000E942F12811103C0CE010E94ED11CE01F5
:10257000DF91CF910895EF92FF920F931F93CF9326
:10258000DF9300D000D0CDB7DEB77C01862F4AE0C4
:102590008E010F5F1F4FB80190E00E94972FF80146
:1025A00001900020E9F73197AF01401B510BB801B2
:1025B000C7010E942F120F900F900F900F90DF9184
:1025C000CF911F910F91FF90EF900895EF92FF929E
:1025D0000F931F93CF93DF93EC017B018A01BA0124
:1025E0000E94071281110BC0CE010E94ED11CE0195
:1025F000DF91CF911F910F91FF90EF9008951D8370
:102600000C83B701888199810E94F133F0CFFB01DF
:1026100001900020E9F73197AF01461B570B0C944E
:10262000E6120F931F93CF93DF93CDB7DEB7629778
:102630000FB6F894DEBF0FBECDBF8C01CB01F80101
:102640001182108213821282158214824AE0BE0126
:102650006F5F7F4F0E94972FBE016F5F7F4FC80152
:102660000E94071362960FB6F894DEBF0FBECDBF6F
:10267000DF91CF911F910F9108950F931F93CF93E7
:10268000DF93CDB7DEB7A1970FB6F894DEBF0FBECC
:10269000CDBF8C01CB01BA01F801118210821382E7
:1026A0001282158214822AE0AE014F5F5F4F0E94B2
:1026B000B72FBE016F5F7F4FC8010E940713A1961D
:1026C0000FB6F894DEBF0FBECDBFDF91CF911F9143
:1026D0000F910895CF93DF93EC01FB0186179707C5
:1026E00049F0608171816115710541F04481558126
:1026F0000E94E612CE01DF91CF9108950E94ED1164
:10270000F9CFFC0111821082138212821582148289
:102710000C946A13FC0111821082138212821582BA
:102720001482FB0101900020E9F73197AF01461BAD
:10273000570B0C94E612AF92BF92CF92DF92EF92BA
:10274000FF920F931F93CF93DF936C015B017A018C
:1027500089012417350720F48F2D7901042F182FB4
:1027600061EA72E0C6010E948A13D5011496CD91E8
:10277000DC91EC16FD06E0F40C171D0708F4E801E7
:10278000D501ED91FC911197EC0FFD1F1081108286
:102790006D917C916E0D7F1DC60161157105A1F0D3
:1027A0000E940713F50180819181C80FD91F1883FA
:1027B000C601DF91CF911F910F91FF90EF90DF90B5
:1027C000CF90BF90AF9008950E94ED11EBCF4F9244
:1027D0005F926F927F928F929F92AF92BF92CF92B1
:1027E000DF92EF92FF920F931F93CF93DF9300D06E
:1027F00000D000D0CDB7DEB77C014B015A018091EB
:10280000C70481113EC081E08093C7041092C604C2
:102810001092C5049DEA692E93E0792E25EA422E96
:1028200023E0522E10E000E00F5F1F4F680181E0AF
:10283000C81AD1089801A601B401CE0101960E94E0
:102840009B13CE0101960E94CC0ED3016D933D01E6
:10285000CE0101960E94FF119801A601B501CE019B
:1028600001960E949B13CE0101960E94CC0EF201AC
:1028700061932F01CE0101960E94FF1108301105CE
:1028800099F6909102018DEAC82E83E0D82EE5EAF0
:10289000F3E08601A801D8018C919A30D8F58F5FBA
:1028A0008C930F5F1F4FDA018C918A3019F4D80195
:1028B00011971C923196B3E0053B1B0759F79F5FB8
:1028C000943169F19093020161EA72E0C7010E94BC
:1028D0008A13F60161916F01C7010E94BB120C15AA
:1028E0001D05B9F7C70126960FB6F894DEBF0FBED7
:1028F000CDBFDF91CF911F910F91FF90EF90DF90AF
:10290000CF90BF90AF909F908F907F906F905F908F
:102910004F9008952081281721F28F5FC1CF109228
:1029200002011092C704D0CFCF92DF92EF92FF92B4
:102930000F931F93CF93DF93CDB7DEB72C970FB6CE
:10294000F894DEBF0FBECDBF8C016CED72E0CE01FE
:1029500007960E948A1322E030E050E040E0033006
:102960001105A9F024E030E042E050E00C30110500
:1029700071F026E030E00033110539F0003F110519
:1029800081F520918F063091900644E050E06BE88D
:1029900076E0CE0101960E949B13BE016F5F7F4FD0
:1029A000CE0107960E94B411CE0101960E94FF113C
:1029B000CE0107960E94CC0E6B01CE0107960E94B5
:1029C000FF11C6012C960FB6F894DEBF0FBECDBF27
:1029D000DF91CF911F910F91FF90EF90DF90CF90FB
:1029E0000895003C110521F720918F063091900643
:1029F00046E050E0CCCF0F931F93CF93DF93CDB73A
:102A0000DEB762970FB6F894DEBF0FBECDBF8C0164
:102A100077FF03C07195619571096A307105A4F55E
:102A2000CE010D960E94111369EA72E0CE01019663
:102A30000E948A13BE016F5F7F4FCE0107960E94EE
:102A40008113BE01635F7F4FCE0107960E94A812DB
:102A5000BC01C8010E948113CE0107960E94FF119C
:102A6000CE0101960E94FF11CE010D960E94FF112A
:102A7000C80162960FB6F894DEBF0FBECDBFDF91DE
:102A8000CF911F910F910895C8010E941113F0CFAB
:102A90000F931F93CF93DF93CDB7DEB768970FB631
:102AA000F894DEBF0FBECDBF8B0177FF03C0119539
:102AB00001951109833079F520918F0630919006A8
:102AC00042E050E06BE876E0CE010D960E949B1349
:102AD000B801CE0101960E94FB14BE016F5F7F4FCB
:102AE000CE0107960E948113BE01635F7F4FCE0126
:102AF00007960E94A812BC018BE896E00E946A1318
:102B0000CE0107960E94FF11CE0101960E94FF118F
:102B1000CE010D9644C08C3009F04EC020918F0636
:102B20003091900644E050E06BE876E0CE014396A9
:102B30000E949B13B801CE010D960E94FB1422E067
:102B400030E050E040E06BE876E0CE0101960E9474
:102B50009B13BE016F5F7F4FCE0107960E948113CA
:102B6000BE01635F7F4FCE0107960E94A812BE018F
:102B70006D5E7F4F0E94A812BC018BE896E00E9418
:102B80006A13CE0107960E94FF11CE0101960E94A2
:102B9000FF11CE010D960E94FF11CE0143960E94B7
:102BA000FF1168960FB6F894DEBF0FBECDBFDF9160
:102BB000CF911F910F9108958033A1F420918F063A
:102BC0003091900646E050E06BE876E0CE01439607
:102BD0000E949B13B801CE010D960E94FB1424E0C5
:102BE00030E0AFCF803F81F4B801CE010D960E9456
:102BF000FB1424E030E050E040E06BE876E0CE01EA
:102C000001960E949B1369CF803C59F6B801CE0112
:102C10000D960E94FB1426E030E0EDCF0E94E00507
:102C20006093DD047093DE048093DF049093E004EE
:102C30008091E304882389F18091E5049091E60472
:102C4000FC01EF5AFE4F81319105F1F020812150B6
:102C500020833081DC01AB5FBE4F2C91321728F40A
:102C6000DC01A45EBE4F2C912083409739F4809103
:102C70006101813079F480E88093DC04608170E048
:102C80008091E1040C944815209162012C5020930E
:102C90006201DFCF1092DC04F1CF08950E94E005BD
:102CA0006093DD047093DE048093DF049093E0046E
:102CB0008091E304882389F18091E5049091E604F2
:102CC000FC01EF5AFE4F81319105F1F020812F5F19
:102CD00020833081DC01A45EBE4F2C91231728F4A1
:102CE000DC01AB5FBE4F2C912083409739F480917B
:102CF0006101813079F480E88093DC04608170E0C8
:102D00008091E1040C94481520916201245F209386
:102D10006201DFCF1092DC04F1CF08958F929F9271
:102D2000AF92BF92DF92EF92FF920F931F93CF93D8
:102D3000DF93CDB7DEB7A2970FB6F894DEBF0FBE14
:102D4000CDBF8C018AE0EEE6F1E0DE011196019044
:102D50000D928A95E1F780919E0390919F030196D1
:102D60008A3091050CF084C090939F0380939E035A
:102D7000E0919E03F0919F0381E090E08C0F9D1FF6
:102D8000E80FF91FD08080916201883109F075C089
:102D90000E94E0054B015C010E944608BC01CE0187
:102DA0004D960E94FB140E944E08BC01CE0147962E
:102DB0000E94FB140E945608BC01CE010B960E9493
:102DC000FB14BE01655F7F4FCE0141960E948113C7
:102DD000BE01695E7F4FCE0141960E94A812BE01DE
:102DE000635E7F4F0E94A8127C01C501B40128EEEA
:102DF00033E040E050E00E94C83224E630E040E09A
:102E000050E00E94C832BA01A901C7010E945B12BA
:102E10007C016D2D0E94BB12811103C0C7010E946D
:102E2000ED11B701C8010E948113CE0141960E94A5
:102E3000FF11CE010B960E94FF11CE0147960E9412
:102E4000FF11CE014D960E94FF11C801A2960FB648
:102E5000F894DEBF0FBECDBFDF91CF911F910F91D0
:102E6000FF90EF90DF90BF90AF909F908F9008956C
:102E700010929F0310929E037BCF0E94E00528EEE4
:102E800033E040E050E00E94C83224E630E040E009
:102E900050E00E94C83249015A010E944608BC0114
:102EA000CE014D960E94FB140E944E08BC01CE013B
:102EB00047960E94FB140E94ED060E943307809102
:102EC0002E046CE070E0882331F0682F70E08D30C4
:102ED00010F06C507109CE010B960E94FB14BE01DC
:102EE000655F7F4FCE0141960E948113BE01695EEE
:102EF0007F4FCE0141960E94A812BE01635E7F4FB4
:102F00000E94A812B501A40181CF8F929F92AF9227
:102F1000BF92CF92DF92EF92FF920F931F93CF93C6
:102F2000DF93CDB7DEB762970FB6F894DEBF0FBE62
:102F3000CDBF8C016A017B0180917D05811111C09B
:102F40000E94E005645B7B4F8F4F9F4F6093790534
:102F500070937A0580937B0590937C0581E0809344
:102F60007D0580917105811109C062EA72E08BE6EE
:102F700095E00E948A1381E08093710580916A0533
:102F8000811119C06BE675E0C8010E948113C80168
:102F900062960FB6F894DEBF0FBECDBFDF91CF9122
:102FA0001F910F91FF90EF90DF90CF90BF90AF9067
:102FB0009F908F9008950E94E005809079059090F1
:102FC0007A05A0907B05B0907C05681979098A097B
:102FD0009B09693E734081059105A0F20E94E005BE
:102FE0006093790570937A0580937B0590937C05B7
:102FF00020E030E0A901C701B6010E94A33220E021
:1030000030E040E05FE387FDFCC0C701B6010E94ED
:103010008F310E946D327B0177FF04C0EE24FF24C4
:10302000E61AF70A5B0139E1A31A3CEFB30A809173
:1030300063019B012D593F4F69012A55310949010F
:10304000B7018111E3C0CE0101960E94111369EA14
:1030500072E0CE0107960E948A13BE016F5F7F4F18
:10306000CE0107960E94A81269EA72E00E949212AD
:10307000BC018BE695E00E946A13CE0107960E9480
:10308000FF11CE0101960E94FF113FECA31637E01D
:10309000B30678F5B701CE0101960E941113609135
:1030A000640170E0CE010D960E94FB14BE01635FC7
:1030B0007F4FCE0107960E948113BE016F5F7F4F45
:1030C000CE0107960E94A81269EA72E00E9492124D
:1030D000BC018BE695E00E946A13CE0107960E9420
:1030E000FF11CE010D960E94FF11CE0101960E94A4
:1030F000FF1187ECC816D10498F5B701CE010196EF
:103100000E9411136091640170E0CE0107960E9445
:10311000FB1469EA72E0CE010D960E948A13BE018B
:10312000695F7F4FCE010D960E94A812BE016F5FAE
:103130007F4F0E94A81269EA72E00E949212BC01BD
:103140008BE695E00E946A13CE010D960E94FF1156
:10315000CE0107960E94FF11CE0101960E94FF1139
:1031600023E18216910498F5B701CE0101960E94E1
:1031700011136091640170E0CE0107960E94FB1468
:1031800068EA72E0CE010D960E948A13BE01695F63
:103190007F4FCE010D960E94A812BE016F5F7F4F38
:1031A0000E94A81269EA72E00E949212BC018BE6AA
:1031B00095E00E946A13CE010D960E94FF11CE0188
:1031C00007960E94FF11CE0101960E94FF1161EA4D
:1031D00072E0CE0101960E948A136BE675E0CE0183
:1031E00001960E94A81268EA72E00E949212BC0145
:1031F0008BE695E00E946A13CE0101960E94FF11B2
:10320000C1CEC701B6010E948E3103CFCE01019617
:103210000E94111369EA72E0CE0107960E948A1398
:10322000BE016F5F7F4FCE0107960E94A81269EA28
:1032300072E00E949212BC018BE695E00E946A1334
:10324000CE0107960E94FF11CE0101960E94FF1148
:103250003FECA31637E0B30698F56091640170E087
:10326000CE0101960E94FB14C7016AE070E00E9443
:10327000B432CE0107960E94111368EA72E0CE01C3
:103280000D960E948A13BE01695F7F4FCE010D9695
:103290000E94A812BE016F5F7F4F0E94A812BC015E
:1032A0008BE695E00E946A13CE010D960E94FF11F5
:1032B000CE0107960E94FF11CE0101960E94FF11D8
:1032C00087ECC816D10498F56091640170E0CE01D6
:1032D00001960E94FB14C7016AE070E00E94B432BC
:1032E000CE0107960E94111367EA72E0CE010D9697
:1032F0000E948A13BE01695F7F4FCE010D960E9426
:10330000A812BE016F5F7F4F0E94A812BC018BE61E
:1033100095E00E946A13CE010D960E94FF11CE0126
:1033200007960E94FF11CE0101960E94FF1123E132
:103330008216910408F04BCF6091640170E0CE01D9
:1033400001960E94FB14C7016AE070E00E94B4324B
:10335000CE0107960E94111366EA72E0CE010D9627
:103360000E948A13BE01695F7F4FCE010D960E94B5
:10337000A812BE016F5F7F4F0E94A81217CF85ED84
:103380008093BC008091420590914305A091440533
:10339000B09145050796A11DB11D23E0B695A795EF
:1033A000979587952A95D1F72091BC0024FD03C0FD
:1033B0001092400508954091420550914305609157
:1033C000440570914505452B462B472B69F3009723
:1033D000A105B10541F02AE22A95F1F700C0019755
:1033E000A109B109E1CF809141050C9412091F9206
:1033F0000F920FB60F9211242F933F934F935F9329
:103400006F937F938F939F93AF93BF93EF93FF93AC
:1034100083E995E00E940002FF91EF91BF91AF9187
:103420009F918F917F916F915F914F913F912F91DC
:103430000F900FBE0F901F9018951F920F920FB60E
:103440000F9211242F938F939F93EF93FF93E0910B
:10345000A305F091A4058081E091A905F091AA054A
:1034600082FD1BC090818091AC058F5F8F7320918E
:10347000AD05821741F0E091AC05F0E0ED56FA4F52
:10348000958F8093AC05FF91EF919F918F912F9134
:103490000F900FBE0F901F9018958081F4CF1F9250
:1034A0000F920FB60F9211242F933F938F939F93F8
:1034B000AF93BF938091340490913504A09136046A
:1034C000B09137043091330423E0230F2D3758F5A2
:1034D0000196A11DB11D2093330480933404909371
:1034E0003504A0933604B09337048091380490914A
:1034F0003904A0913A04B0913B040196A11DB11D7D
:103500008093380490933904A0933A04B0933B0419
:10351000BF91AF919F918F913F912F910F900FBECF
:103520000F901F90189526E8230F0296A11DB11D3C
:10353000D2CF1F920F920FB60F9211242F933F9369
:103540008F939F93AF93BF93EF93FF9380918505E4
:1035500090918605A0918705B09188050097A105F7
:10356000B10531F130914004E0914104F091420401
:10357000208123272083181619061A061B061CF41F
:103580000197A109B1098093850590938605A093C1
:103590008705B0938805FF91EF91BF91AF919F91FF
:1035A0008F913F912F910F900FBE0F901F90189504
:1035B000209170002D7F2093700020914004E091B5
:1035C0004104F09142043081209523232083DBCFF6
:1035D0001F920F920FB60F9211248F939F93AF9368
:1035E000BF93EF93FF938091890590918A05A091F5
:1035F0008B05B0918C05892B8A2B8B2BA1F1909197
:103600004304E0914404F09145048081892780833C
:103610008091890590918A05A0918B05B0918C05C8
:10362000181619061A061B069CF4809189059091BC
:103630008A05A0918B05B0918C050197A109B1096C
:103640008093890590938A05A0938B05B0938C0590
:10365000FF91EF91BF91AF919F918F910F900FBE0E
:103660000F901F90189580916F008D7F80936F0051
:1036700080914304E0914404F09145049081809549
:1036800089238083E5CF1F920F920FB60F921124EA
:103690008F939F93AF93BF93EF93FF9380918D058B
:1036A00090918E05A0918F05B0919005892B8A2B62
:1036B0008B2BA1F190914604E0914704F0914804CE
:1036C00080818927808380918D0590918E05A091BE
:1036D0008F05B0919005181619061A061B069CF462
:1036E00080918D0590918E05A0918F05B0919005E8
:1036F0000197A109B10980938D0590938E05A09340
:103700008F05B0939005FF91EF91BF91AF919F917D
:103710008F910F900FBE0F901F90189580916E00A3
:103720008D7F80936E0080914604E0914704F09174
:1037300048049081809589238083E5CF1F920F9262
:103740000FB60F9211242F933F934F935F936F9374
:103750007F938F939F93AF93BF93EF93FF9380914A
:10376000B900887F803609F44AC0F0F5883209F440
:10377000A7C018F5803109F49BC0B8F4882309F478
:10378000F9C0883009F494C0FF91EF91BF91AF91D7
:103790009F918F917F916F915F914F913F912F9169
:1037A0000F900FBE0F901F901895883109F488C0B4
:1037B000803251F780933E0514C0803409F49DC0D7
:1037C00040F48033B9F38833F9F680933E0585ECF5
:1037D000B0C0803509F485C0883509F496C08834B6
:1037E00099F60E94BF19D0CF883909F48CC038F5FA
:1037F000883729F050F4883611F0803729F683E0B5
:10380000809340051092190457C0883809F47BC092
:10381000803919F0803809F0B7CF809119048032CF
:1038200008F071C0E091190481E08E0F80931904B3
:103830008091BB00F0E0E750FC4F80833DC0803BAF
:1038400039F0E0F4803A09F479C0883A09F09CCF65
:1038500084E0809340051092F8031092F703E09102
:103860003E04F0913F0409958091F70381110FC048
:1038700081E08093F7031092D70309C0803C09F4DC
:10388000A6CF883C09F4A3CF883B09F07DCFE09117
:10389000F80381E08E0F8093F803F0E0E952FC4FCB
:1038A00080818093BB009091F8038091F70329C039
:1038B00080911B058093BB0085EC8093BC0064CF96
:1038C00090913D0580913C05981758F5E0913D0594
:1038D00081E08E0F80933D05F0E0E45EFA4F808139
:1038E000E9CFE0913D0581E08E0F80933D05809109
:1038F000BB00F0E0E45EFA4F808390913D0580913B
:103900003C059817C8F285E8D8CFE0913D0581E0E5
:103910008E0F80933D058091BB00F0E0E45EFA4F8E
:10392000808380913F0581115CCF81E080931A05EF
:1039300084EA8093BC001092400526CF85EC8093EA
:10394000BC001092400580911904803230F4E0915F
:103950001904F0E0E750FC4F10826091190470E008
:10396000E0913C04F0913D0489EF93E009951092B9
:1039700019040ACF10923E0534CFCF93DF93EC01A8
:10398000862F6F87188A91E0998B9A8B1C8A1B8AE5
:10399000198218821A821D8A1E8A1F8A188E44E193
:1039A00050E060E070E04B835C836D837E834AEF80
:1039B00050E060E070E04F83588769877A8748EE6F
:1039C00053E060E070E04B875C876D877E8760E046
:1039D0000E942A038889811106C061E08F85DF91EA
:1039E000CF910C94FC02DF91CF910895E3E9F5E0CB
:1039F0001382128288EE93E0A0E0B0E08483958386
:103A0000A683B7832FE732E03183208325EC30E0B3
:103A10003587248724EC30E03787268720EC30E098
:103A2000318B208B21EC30E0338B228B22EC30E089
:103A3000358B248B26EC30E0378B268B118E128E43
:103A4000138E148EE0E3F6E0138212828483958352
:103A5000A683B78381E992E0918380836BEA72E069
:103A600085EA96E00E948A1360E081E10E942A03C1
:103A7000E1E0F1E0E491A7E9B6E0EC93EDEEF0E0EF
:103A8000E491F0E0EE0FFF1FEE52FF4F859194910D
:103A900012969C938E9311971B961C921B971D96C2
:103AA0001C921D971C961C921C971A961C921A9792
:103AB00019961C92199718961C92189717961C9293
:103AC000179716961C92169715961C921597149692
:103AD0001C92149713961C9261EA72E081E996E0B9
:103AE0000E948A1364EA72E08BE896E00E948A13CF
:103AF0006EE082E796E00E94BD1C60E189E596E0F9
:103B00000E94BD1C6FE080E496E00E94BD1C2091E5
:103B1000650130E0A0E6BAEE0E947F3160933C067A
:103B200070933D0680933E0690933F060895CF9391
:103B3000DF93CDB7DEB7C656D1090FB6F894DEBF16
:103B40000FBECDBF789484B5826084BD84B581609A
:103B500084BD85B5826085BD85B5816085BD809158
:103B60006E00816080936E001092810080918100D0
:103B700082608093810080918100816080938100C8
:103B8000809180008160809380008091B10084608A
:103B90008093B1008091B00081608093B0008091EB
:103BA0007A00846080937A0080917A0082608093AA
:103BB0007A0080917A00816080937A0080917A0007
:103BC000806880937A001092C10061E085E00E94D5
:103BD0002A0360E085E00E94FC0210924D041092DE
:103BE0004C0410924705109269050E94F4088FE773
:103BF00091E090933F0480933E0480E891E090939D
:103C00003D0480933C04E091A305F091A40582E07B
:103C10008083E0919F05F091A0051082E091A105BD
:103C2000F091A20580E180831092AB05E091A70599
:103C3000F091A80586E08083E091A505F091A605A6
:103C4000808180618083E091A505F091A605808147
:103C500088608083E091A505F091A6058081806849
:103C60008083E091A505F091A60580818F7D8083FA
:103C700083E38093280181EE8093110180935D019D
:103C800080EF8093460181E090E00E94CA0E8C3064
:103C900009F088E18093620190E080E00E94CA0E02
:103CA000882309F437C481E08093370182E090E0F3
:103CB0000E94CA0E8F3F09F030C410925E0183E06B
:103CC00090E00E94CA0E8F3F09F02AC410925F0153
:103CD00084E090E00E94CA0E8F3F09F024C4109245
:103CE000600186E090E00E94CA0E8F3F09F01EC47A
:103CF0001092610187E090E00E94CA0E8F3F09F0A8
:103D000018C41092D9048BE090E00E94CA0E8F3F35
:103D100009F016C4109263018CE090E00E942731F4
:103D200060968FAF60978DE090E00E94273161969A
:103D30008FAF619761968EAD9FAD61978F3F910573
:103D400009F001C4109264018EE090E00E94CA0E56
:103D50008F3F11F0809365018FE090E00E94CA0EC2
:103D60008F3F11F08093660180E190E00E94CA0EBF
:103D70008F3F11F0809367014091650128EE33E099
:103D8000429FC001439F900D1124092E000CAA0BE5
:103D9000BB0B80933C0690933D06A0933E06B093E8
:103DA0003F0661E089E00E942A0361E086E00E940C
:103DB0002A0361E083E00E942A0380914904833052
:103DC00008F033C492E090939105E82FF0E0EC56B0
:103DD000FF4FE491E09392058F5F80934904E130B7
:103DE00009F4D5C308F4B2C3E23009F4F7C38091F3
:103DF0000301909104010E94510D9093040180935E
:103E0000030161E08AE00E942A0361E088E00E94E9
:103E10002A0360E088E00E94FC0262E088E00E94E1
:103E20002A0388E00E94D30221E0892B09F020E0D8
:103E300020934B041FB7F89480914A04811127C046
:103E4000E6EEF0E08491EAEFF0E09491E82FF0E004
:103E5000EE0FFF1FE956FF4FA591B491EC91E923B6
:103E600021F461E08AE00E94FC0261E08AE00E94A5
:103E70002A038CB580618CBD8CB580648CBD61E0FB
:103E80008DE00E942A0361E08BE00E942A0380916A
:103E90004A048F5F80934A041FBF80914B0488239C
:103EA00009F4C7C389E791E00E947C0162E08EE0DB
:103EB0000E942A0362E080E10E942A0362E08FE010
:103EC0000E942A0361E082E00E942A0304E110E0DC
:103ED00020E030E000937506109376062093770675
:103EE000309378064EE150E060E070E04093790650
:103EF00050937A0660937B0670937C0680ED97E082
:103F0000A0E0B0E080937D0690937E06A0937F06AC
:103F1000B093800600935C0610935D0620935E06C6
:103F200030935F064093600650936106609362068B
:103F3000709363068093640690936506A09366066B
:103F4000B0936706009343061093440620934506FA
:103F500030934606409347065093480660934906BF
:103F600070934A0680934B0690934C06A0934D069F
:103F7000B0934E06E090A406E11027C00E94AE0068
:103F8000882319F180EF0E941701D12CFF24F394AC
:103F900001E00E944101182F0E944101113009F0F7
:103FA0004AC3813009F066C3013478F0E092A2067A
:103FB000E11003C081E08093A40680919A06AAE9EB
:103FC000B6E0EAE5F4E081116BC31092A20610920C
:103FD000A4061092A3061092A1061092A0061092B9
:103FE0009F0610929E0610929D0610929C061092BB
:103FF0009B0610929A0680916A05882309F10E9417
:10400000AE0085E50E9417010AE514E0F8018191F0
:104010008F010E941701F4E002361F07B9F78EEBFB
:104020000E9417010EE414E0E7E5EE2EE4E0FE2E18
:104030000E946601F80181938F01EE16FF06C1F719
:1040400080EB90E00E946F0225E030E042E050E01B
:1040500065EA76E0CE0101963C010E949B1322E0C6
:1040600030E041E050E065EA76E0CE01875B9F4FAB
:104070000E949B13BE01675B7F4FCE018D5B9F4FFC
:104080000E94811362EB72E0CE018D5B9F4F0E9414
:104090009212B3010E94A812FC01448155816081F3
:1040A000718183E995E00E9482018FE992E00E948C
:1040B0005C0ECE018D5B9F4F0E94FF11CE01875B8E
:1040C0009F4F0E94FF11C3010E94FF1184EB92E0F9
:1040D0000E945C0E8FE992E00E945C0E8091AB061C
:1040E0009091AC06009711F48FEA96E06301C81A2C
:1040F000D90A0D2C000CEE08FF08F7FEDBC26DE2BA
:1041000083E995E00E94220222273327A9012C1976
:104110003D094E095F0919A28E010F5D1F4F7AE01C
:10412000C72ED12CE12CF12CCA01B901A7019601AF
:104130000E94C832605DF80162938F01211531053C
:104140004105510589F70115110519F0C8010E94B3
:104150005C0E8FE992E00E945C0E809103019091C9
:1041600004019093EC048093EB040E94510D6FEFD7
:1041700070E089E00E942C0568EE73E080E090E03A
:104180000E94AE0570E060E089E00E942C056FEFB0
:1041900070E086E00E942C0568EE73E080E090E01D
:1041A0000E94AE0570E060E086E00E942C056FEF93
:1041B00070E083E00E942C0568EE73E080E090E000
:1041C0000E94AE0562EA72E0C3010E948A1365EDA7
:1041D00072E0CE0107960E948A136EED72E0CE0166
:1041E0000D960E948A1367EE72E0CE0143960E94FC
:1041F0008A1360EF72E0CE0149960E948A1369EF3C
:1042000072E0CE014F960E948A1362E073E0CE0105
:1042100085960E948A136BE073E0CE018B960E9414
:104220008A1364E173E0CE01C1960E948A136DE1A6
:1042300073E0CE01C7960E948A1361EA72E0CE0154
:10424000CD960E948A1365EA76E0CE018D5B9F4F82
:104250000E94811368EA72E0CE018D5B9F4F0E943D
:104260009212BC01CE01CD960E946A13CE018D5BE5
:104270009F4F0E94FF110E94E0056B017C01F8EE48
:10428000CF0EF3E0DF1EE11CF11C00E01FEF94EF06
:10429000A92EBB24B39426E0922E8FE00E94D30275
:1042A000892B09F401E080E10E94D302892B09F4F3
:1042B00000E00E94E0056C197D098E099F099501B7
:1042C0000B2C000C440B550B2617370748075907D2
:1042D00008F018C20E94E0056B017C01011101C0C9
:1042E0001F5F1A3009F401C21B3009F002C281E0DD
:1042F0008093460588E680936805109247051092E2
:10430000690561E180E396E00E94490B81E00E942B
:10431000330962E088E60E94230A10924D048093DC
:104320004C0480E396E00E94020B85508833B8F07D
:1043300081EA90E00E94690E05E010E048EE53E04B
:1043400060E070E088EE93E00E94660360ED77E045
:1043500080E090E00E94AE050150110979F78E01CE
:104360000D5B1F4F06501109C8010E94FF11601616
:104370007106C1F70E94DA0D0091F1041091F20468
:104380000E94E0056B017C0181E08093F904112714
:104390008091F1049091F2040817190779F40E94B2
:1043A000DA0D0E94E0056C197D098E099F09693BB1
:1043B0007B408105910560F31092F9048090F70429
:1043C000F090F8049090F5041091F604A090F30496
:1043D0003091F404B090F1045091F204C090EF04D5
:1043E0007091F004D090ED04E82C092D2A2D4B2D6E
:1043F0006C2D8D2D9091EE040E94110660E085E0F9
:104400000E94FC022A2D4B2D6C2D8D2D0E94780BC5
:1044100061E085E00E94FC02B4E62B2E312CBE0147
:104420006F5F7F4F2B010E94E00520E63AEE40E0EF
:1044300050E00E94C832672B682B692B01F58091F0
:10444000F9048823E1F00E94DA0DE090F704F0907F
:10445000F8040091F5041091F6042091F3043091D2
:10446000F4044091F1045091F2046091EF047091D2
:10447000F0048091ED049091EE040E9411060091E9
:10448000EB041091EC04F8018081882309F405C243
:104490000E94E005C0906E04D0906F04E09070041C
:1044A000F09071046C197D098E099F09C0906A040F
:1044B000D0906B04E0906C04F0906D04C616D706A3
:1044C000E806F90608F0E9C10E94E0054B015C012D
:1044D00080926E0490926F04A0927004B092710466
:1044E000680130E020E04AE0F801F1908F0180EDB2
:1044F0008F0D8A3008F009C1429FC001439F900D83
:1045000011242F2DFF0C330B20533109280F391F95
:104510006F01EACF10923701C9CB80935E01CFCBF8
:1045200080935F01D5CB80936001DBCB80936101E9
:10453000E1CB91E0811101C090E09093D904E3CBED
:1045400080936301E9CB80936401FECB14BC15BC5E
:1045500084B5826084BD85B5816085BD80919105FB
:1045600090E0FC01E452FF4FE491F0E0EE0FFF1FFA
:10457000E657FF4F25913491309348042093470428
:10458000FC01E051FF4FE491E093460430CC1092DF
:10459000800010928100809181008860809381006A
:1045A000809181008160809381008091910590E0ED
:1045B000FC01E452FF4FE491F0E0EE0FFF1FE657DD
:1045C000FF4F259134913093450420934404FC011E
:1045D000E051FF4FE491E093430409CC1092B00006
:1045E0001092B1008091B00082608093B000809101
:1045F000B10081608093B1008091910590E0FC0151
:10460000E452FF4FE491F0E0EE0FFF1FE657FF4F3B
:10461000259134913093420420934104FC01E051F0
:10462000FF4FE491E0934004E2CB8FEF809392053B
:10463000DECB89E538CCED2DF0E0181311C0809168
:10464000A2060817A8F4DF01A956B94F13968C915A
:104650008F2181F410E0093010F40093A306E02EBE
:10466000E956F94F83819F2D9095892383830AC052
:104670008013F0CFED2DF0E0E956F94F83818F29BB
:10468000838311E0812F0E94E7000F5FFF0C19F474
:10469000D394FF24F39427E02D1508F07ACC84CC32
:1046A0008D91819364E0E236F607D1F781E0809343
:1046B0006A05A1CCA701960119A28E010F5D1F4FBB
:1046C0006AE0C62ED12CE12CF12CCA01B901A70158
:1046D00096010E94C832605DF80162938F01211536
:1046E00031054105510589F72ECD88EBA82E8BE0C9
:1046F000B82EB301199D600D711D11248BE896E051
:104700000E946A130E94D70EC8CD3093690420938B
:1047100068046091640470916504809166049091CE
:1047200067042115310501F1032E000C440B550BD4
:104730000E94EA3220936A0430936B0440936C0425
:1047400050936D04EFE9EF0DE730A0F40E2E000C4E
:10475000FF0BE355FC4D0C9409331A271C270E2739
:1047600012271427162718272091340130E050E033
:1047700040E0DECF10926304F6018181833241F480
:10478000809163048F5F8093630486010E5F1F4FE7
:10479000F80180818E32F1F4C0906A04D0906B04ED
:1047A000E0906C04F0906D04C701B60122E030E0A7
:1047B00040E050E00E94EA32C20ED31EE41EF51E15
:1047C000C0926A04D0926B04E0926C04F0926D0483
:1047D0000F5F1F4FF801808180538A3008F02EC38D
:1047E000809362040F5F1F4FF80180818C3211F4B7
:1047F0000F5F1F4FE0916304EE2309F44EC0C09099
:104800006A04D0906B04E0906C04F0906D04809189
:1048100062048450990B4CE0489F9001499F300DF1
:104820001124E20FF32FF11DEE0FFF1FE055FE4F95
:10483000B701A601808191810E9466030E94E00574
:10484000681979098A099B09C616D706E806F90688
:1048500020F50E94E00560936E0470936F048093CE
:1048600070049093710480919205813009F4EBC239
:10487000823009F4EEC2811105C080916E008D7FF7
:1048800080936E0060E0809191050E94FC028BEBAA
:1048900090E00E94690E10E000E01093EC04009399
:1048A000EB040E94E0050091E7041091E8042091D8
:1048B000E9043091EA04601B710B820B930B6630A4
:1048C00071058105910508F180913701882321F058
:1048D000209167012111C3C270E060E089E00E946D
:1048E0002C0570E060E086E00E942C0570E060E03E
:1048F00083E00E942C050E94E0056093E70470931A
:10490000E8048093E9049093EA048091E50490918F
:10491000E604892B21F08091E4048111E2C18091A9
:10492000E3048111DEC180916501882309F4D9C1B6
:104930008091860481110DC00E94E005609382047D
:1049400070938304809384049093850481E0809322
:10495000860480917A0481110DC00E94E005609365
:10496000760470937704809378049093790481E0BF
:1049700080937A040E94E0050091820410918304E0
:104980002091840430918504601B710B820B930B82
:1049900000913C0610913D0620913E0630913F0665
:1049A000061717072807390708F046C00E94E005D8
:1049B00060938204709383048093840490938504AD
:1049C000409135015091360181E090E0411551054B
:1049D00031F04130510509F0F5C284E090E0909348
:1049E000E6048093E5046091660128EE33E0629F5F
:1049F000C001639F900D1124092E000CAA0BBB0B64
:104A000080933C0690933D06A0933E06B0933F06EC
:104A10004F5F5F4F433051050CF0ECC250933601AD
:104A2000409335018091E404882321F01092E6043C
:104A30001092E5041092E4040E94E00500918204C3
:104A4000109183042091840430918504601B710BC4
:104A5000820B930B603D77408105910508F0CFC232
:104A60000E94E0050091760410917704209178046B
:104A700030917904601B710B820B930B65367105C5
:104A80008105910508F42DC10E94E005609376042C
:104A90007093770480937804909379048091E5046F
:104AA0009091E604892B79F5CE018D5B9F4F0E9492
:104AB0008E1681E090916301911101C080E00E9407
:104AC000B60CAB01BC01C3010E948517AE014D5B62
:104AD0005F4FB301CE01875B9F4F0E94E713BE017A
:104AE000675B7F4F8BE896E00E94B411CE01875B35
:104AF0009F4F0E94FF11C3010E94FF11CE018D5BE9
:104B00009F4F0E94FF118091E5049091E604019768
:104B100009F06BC00E942C0868EE73E00E94B4326A
:104B2000BC01CE018B5A9F4F0E94FB140E94360895
:104B3000BC01CE01815B9F4F0E94FB140E943E0886
:104B4000BC01CE018D5B9F4F0E94FB14BE016D5BCB
:104B50007F4FCE01875B9F4F0E948113BE01615B37
:104B60007F4FCE01875B9F4F0E94A812BE016B5AF8
:104B70007F4F0E94A812BC01CE01855A9F4F0E9410
:104B80008113C3010E948E16AE01455A5F4FB301D7
:104B9000CE018F599F4F0E94E713BE016F597F4F7F
:104BA0008BE896E00E94B411CE018F599F4F0E946E
:104BB000FF11C3010E94FF11CE01855A9F4F0E9431
:104BC000FF11CE01875B9F4F0E94FF11CE018D5BCD
:104BD0009F4F0E94FF11CE01815B9F4F0E94FF11EA
:104BE000CE018B5A9F4F0E94FF118091E504909156
:104BF000E604049709F075C081E09091630191117A
:104C000001C080E00E94B60CAB01BC01CE01855A08
:104C10009F4F0E9485170E942C0868EE73E00E9447
:104C2000B432BC01CE01815B9F4F0E94FB140E94F5
:104C30003608BC01CE01875B9F4F0E94FB140E9487
:104C40003E08BC01C2010E94FB14B201CE018D5B83
:104C50009F4F0E948113BE01675B7F4FCE018D5B2A
:104C60009F4F0E94A812BE01615B7F4F0E94A81255
:104C7000BC01CE018B5A9F4F0E948113AE01455A51
:104C80005F4FBE016B5A7F4FCE018F599F4F0E94DD
:104C9000E713BE016F597F4F8BE896E00E94B41175
:104CA000CE018F599F4F0E94FF11CE018B5A9F4F0B
:104CB0000E94FF11CE018D5B9F4F0E94FF11C20128
:104CC0000E94FF11CE01875B9F4F0E94FF11CE0112
:104CD000815B9F4F0E94FF11CE01855A9F4F0E941A
:104CE000FF110E94D70E82E796E00E945E0889E5D8
:104CF00096E00E945E0880E496E00E945E08809143
:104D0000E30481117FC11092E2041092E1048091CA
:104D1000720690917306181619060CF07AC281E09B
:104D20008093E4041092EC041092EB0444E650E00B
:104D300060E070E088EE93E00E9466030E94E00568
:104D40006093DD047093DE048093DF049093E004AD
:104D50008091E5049091E60401968730910509F46D
:104D60007DC19093E6048093E5042091E5043091A1
:104D7000E604F901E65CFE4F808190E09093E20446
:104D80008093E10421503109F901E35BFD4F40813B
:104D9000442309F42DC2642F6150770BCB01FB0132
:104DA000EA5CFD4F50815217130609F021C24230D0
:104DB00009F059C128E1E8E7F1E0D30101900D9233
:104DC0002A95E1F720915D01237021F42DE130E077
:104DD0003C832B8340915C01E0915B01E150FF0B30
:104DE000EE0FFF1FE60DF71D2081318142171306DC
:104DF00009F00CF438C18AE090E09093E6048093C7
:104E0000E50480E090E0892B09F40DCB0E94EC01D1
:104E1000882309F401CB0E940000FECA81E0809340
:104E20006304AACC83E0FBCF85E0F9CF86E0F7CF1F
:104E300088E0F5CF8AE0F3CF8CE0F1CF80913301A9
:104E400080936204D1CC80916F008D7F80936F003E
:104E500019CD809170008D7F8093700013CD80916B
:104E6000C8048111A2C030E02F5F3F4F409138014C
:104E700050913901249FC001259F900D349F900DC2
:104E80001124B1010E94B43289E00E942C052091C6
:104E9000670130E02F5F3F4F4091D0045091D10423
:104EA000249FC001259F900D349F900D1124B101C6
:104EB0000E94B43286E00E942C052091670130E008
:104EC0002F5F3F4F4091CE045091CF04249FC001EB
:104ED000259F900D349F900D1124B1010E94B43292
:104EE00083E00E942C058091D904811104CD20918A
:104EF000740430917504C901880F991F820F931FA4
:104F0000FC01EE0FFF1FEE5EFD4F40913801509106
:104F1000390160817181460F571F509339014093C9
:104F20003801FC01EE0FFF1FEC5EFD4F4091D004F5
:104F30005091D10460817181460F571F5093D10465
:104F40004093D004880F991FFC01EA5EFD4F8091C9
:104F5000CE049091CF0440815181840F951F90938E
:104F6000CF048093CE0480917204909173040196D3
:104F700090937304809372048F3F910551F42F5FD7
:104F80003F4F309375042093740410927304109271
:104F90007204809174049091750406970CF4ABCC64
:104FA0001092750410927404A6CC70E060E089E061
:104FB0000E942C0570E060E086E00E942C0570E005
:104FC00060E08ECF4230510509F022CD1092E60408
:104FD0001092E5042091650130E0A0E6BAEE0E944F
:104FE0007F3160933C0670933D0680933E0690931C
:104FF0003F060ECD109236011092350113CD10925E
:10500000C7046FCE0E94E0050091DD041091DE041C
:105010002091DF043091E004601B710B820B930B35
:1050200061367A4E8105910508F471CE1092E30441
:10503000E091E504F091E604EC59FD4F808190E0A9
:105040009093E6048093E504865C9E4FFC0180818A
:1050500090E09093E2048093E10459CE1092E6042C
:105060001092E50482CE1092E3049093E6048093BC
:10507000E504892BA1F40E942C087C010E943608CB
:105080008C010E943E089C0140915A0150E06091C1
:10509000590170E08091580190E00E9411068091C2
:1050A000E5049091E6040197B1F4E0905D01F12CE4
:1050B00000915B0110E0C0905C01D12C0E94460879
:1050C0004C010E944E085C010E9456089601A40102
:1050D000B5010E9411068091E5049091E6040297C3
:1050E000C1F460915E0182E090E00E94C80E609180
:1050F0005F0183E090E00E94C80E6091600184E04F
:1051000090E00E94C80E6091610186E090E00E94EC
:10511000C80E8091E5049091E604039731F4609104
:10512000620181E090E00E94C80E8091E5049091B8
:10513000E604049731F4609163018BE090E00E94F3
:10514000C80E8091E5049091E604049769F41091EB
:1051500064018CE090E00E942731181729F0612F3C
:105160008CE090E00E942F318091E5049091E6045C
:10517000059761F4609165018EE090E00E94C80E91
:10518000609166018FE090E00E94C80E8091E50476
:105190009091E604069731F46091670180E190E018
:1051A0000E94C80E60E085E00E94FC020E942C086C
:1051B0007C010E943608082F0E943E08C82E0E94DB
:1051C0004608D82E0E944E08182F0E945608382FE5
:1051D000C70168EE73E00E94B432E82E2C2D4D2DED
:1051E000612F832F0E94780B61E085E00E94FC0212
:1051F0000091E5041091E6040331110551F080910E
:10520000E1049091E2040E949414F801EF5AFE4FD9
:105210008083809172069091730697FF8EC044E65A
:1052200050E060E070E088EE93E00E9466038091B9
:10523000E304811155C00091E5041091E6040E9439
:10524000E0056093DD047093DE048093DF049093A7
:10525000E004012B09F044C00E944608BC01C301D0
:105260000E94FB140E944E08BC01CE018D5B9F4F33
:105270000E94FB140E945608BC01CE01815B9F4F27
:105280000E94FB14BE01615B7F4FCE01875B9F4F85
:105290000E948113BE016D5B7F4FCE01875B9F4FE4
:1052A0000E94A812B3010E94A81268EA72E00E944C
:1052B0009212BC018BE896E00E946A13CE01875BD4
:1052C0009F4F0E94FF11CE01815B9F4F0E94FF11F3
:1052D000CE018D5B9F4F0E94FF11C3010E94FF1101
:1052E000E091E504F091E604EC59FD4F008110E0F7
:1052F0001093E6040093E5040D30110531F481E0CC
:105300008093610180E88093DC048091E30491E064
:1053100089278093E304F801E65CFE4F808190E0EA
:105320009093E2048093E1040231110531F00E9470
:105330009414F801EF5AFE4F8083809159069091A2
:105340005A06009719F19093DB048093DA0418163B
:105350001906E4F481E08093E4041092EC041092C6
:10536000EB0444E650E060E070E088EE93E00E94D9
:1053700066030E944E168091E304811107C01092CB
:10538000D90460E087E090E00E94C80E8091DA04C2
:105390009091DB04019609F001C180915B0688239E
:1053A00009F4FCC01092D8048091E3048823F9F03A
:1053B0000E94E0050091D4041091D5042091D604F8
:1053C0003091D704601B710B820B930B6739710509
:1053D0008105910560F00E94E0056093D40470930C
:1053E000D5048093D6049093D7040E944E168091E2
:1053F0004006909141060097A9F19093D3048093C1
:10540000D2041816190674F511E01093E4041092F2
:10541000EC041092EB0444E650E060E070E088EEAB
:1054200093E00E9466030E940E168091E3048111AE
:1054300019C01093D90461E087E090E00E94C80E83
:105440006091380188E090E00E94C80E6091D0041D
:1054500089E090E00E94C80E6091CE048AE090E05E
:105460000E94C80E8091D2049091D304019609F055
:1054700099C080914206882309F494C08091E30486
:105480001092CD04882321F10E94E0050091C90407
:105490001091CA042091CB043091CC04601B710B95
:1054A000820B930B673971058105910508F453C090
:1054B0000E94E0056093C9047093CA048093CB04F2
:1054C0009093CC040E940E168091E304811143C096
:1054D0008091590690915A0697FF28C044E650E003
:1054E00060E070E088EE93E00E94660381E08093C4
:1054F000370161E090E080E00E94C80E88E090E013
:105500000E94CA0E682F89E00E94FC0289E090E0A8
:105510000E94CA0E682F86E00E94FC028AE090E09A
:105520000E94CA0E682F83E00E94FC028091400610
:105530009091410697FF0FC044E650E060E070E0B4
:1055400088EE93E00E9466031092370160E090E0DD
:1055500080E00E94C80EE091E504F091E604E73196
:10556000F10508F04ECCE954F54D0C940933D62AD8
:105570004E2B252C742CB22C2D2DE82D0127012724
:1055800001270127012701270127012701270127DB
:105590000127B22CF52C2D2D2D2DE82D81E08093A7
:1055A000D80425CF81E08093CD048ECF1092C8041B
:1055B0008091C704811129C00E94E00500918E04EA
:1055C00010918F042091900430919104601B710B15
:1055D000820B930B633371058105910508F44FC06D
:1055E0000E94E00560938E0470938F048093900472
:1055F00090939104C2010E948E16B2018BE896E04E
:105600000E94B411C2010E94FF1180919704811180
:105610000DC00E94E00560939304709394048093FE
:1056200095049093960481E0809397040E94E0058E
:105630000091930410919404209195043091960464
:10564000601B710B820B930B693E734081059105C2
:10565000F0F00E94E00560939304709394048093AB
:105660009504909396048091920491E08927809309
:105670009204882351F080EC8093DC0408C06BE82E
:1056800076E0C2010E948113B8CF1092DC040E9420
:10569000770E1092C6041092C504B3CB8091C70454
:1056A0008111D1C08091B10481110DC00E94E0052B
:1056B0006093AD047093AE048093AF049093B004F4
:1056C00081E08093B1048091A504811143C00E94C0
:1056D0002C08BC01C2010E94FB140E943E08BC01C0
:1056E000CE018D5B9F4F0E94FB140E943608BC01C7
:1056F000CE01815B9F4F0E94FB14BE01615B7F4F17
:10570000CE01875B9F4F0E948113BE016D5B7F4F6F
:10571000CE01875B9F4F0E94A812B2010E94A8127F
:10572000BC018FE994E00E94811381E08093A5047D
:10573000CE01875B9F4F0E94FF11CE01815B9F4F7F
:105740000E94FF11CE018D5B9F4F0E94FF11C2018D
:105750000E94FF110E94E0050091AD041091AE047B
:105760002091AF043091B004601B710B820B930B3E
:10577000693E73408105910508F458C00E94E00518
:105780006093AD047093AE048093AF049093B00423
:105790000E942C087C010E943E08BC01CE018D5B5A
:1057A0009F4F0E94FB140E943608BC01CE01815B12
:1057B0009F4F0E94FB14BE01615B7F4FCE01875B50
:1057C0009F4F0E948113BE016D5B7F4FCE01875BAF
:1057D0009F4F0E94A8128C014AE0B201C7010E94AB
:1057E000972FF20101900020E9F73197AF0144199A
:1057F0005509B201C8010E942F12811103C0C801CE
:105800000E94ED11B8018FE994E00E946A13CE0165
:10581000875B9F4F0E94FF11CE01815B9F4F0E94CB
:10582000FF11CE018D5B9F4F0E94FF116FE974E065
:10583000C2010E948113B2018BE896E00E94B4116C
:10584000C2010E94FF1180E817CF6091600170E0F3
:10585000C3010E94FB1460915F0170E0CE018D5B7B
:105860009F4F0E94FB1460915E0170E0CE01815B4E
:105870009F4F0E94FB14BE01615B7F4FCE01875B8F
:105880009F4F0E948113BE016D5B7F4FCE01875BEE
:105890009F4F0E94A812B3010E94A81268EA72E00A
:1058A0000E949212BC018BE896E00E946A13CE011E
:1058B000875B9F4F0E94FF11CE01815B9F4F0E942B
:1058C000FF11CE018D5B9F4F0E94FF11C3010E940B
:1058D000FF1180916101813009F041C080E880931F
:1058E000DC040E94770E8DCA8091620125961FAE5E
:1058F0001EAE259727961FAE1EAE279729961FAE80
:105900001EAE29974AE0B30190E00E94D92FB3015F
:10591000CE018D5B9F4F0E94071368EA72E0C301BE
:105920000E948A13BE016D5B7F4FC3010E94A812C3
:1059300066EA72E00E949212BC018BE896E00E9437
:105940006A13C3010E94FF11CE018D5B9F4F0E941D
:10595000FF118FEC90E09093C6048093C5041092E1
:10596000DC04BFCF8091C704811122C081E09091F7
:105970006301911101C080E00E94B60CAB01BC0133
:10598000C2010E948517B2018BE896E00E94B41113
:10599000C2010E94FF118091630181111EC087EC3A
:1059A00090E09093C6048093C50480E88093DC0463
:1059B00081E090916301911101C080E00E94B60CDA
:1059C0001091DC0420E030E0A9010E94033087FF41
:1059D00042C01F771093DC0414CA8FE890E09093C4
:1059E000C6048093C50480ECE1CF81E0909163010F
:1059F000911101C080E00E94B60CAB01BC01C20154
:105A00000E948517B2018BE896E00E94B411C20192
:105A10000E94FF1190916301911111C027E030E0C5
:105A20003093C6042093C50480E88093DC0423E00F
:105A300030E03093E2042093E10481E0BCCF23E81E
:105A400030E03093C6042093C50480EC8093DC04DE
:105A500020E330E0EECF1068BDCF1092C604109264
:105A6000C5040E94E005645D7E4F8F4F9F4F28EE76
:105A700033E040E050E00E94C83224E630E040E0ED
:105A800050E00E94C832BA01A901C3010E943D132F
:105A90000E94E00568537F4F8F4F9F4F28EE33E001
:105AA00040E050E00E94C83224E630E040E050E0A0
:105AB0000E94C832BA01A901CE018D5B9F4F0E949E
:105AC0003D130E94E0056C597F4F8F4F9F4F28EE8A
:105AD00033E040E050E00E94C83224E630E040E08D
