:020000040000FA
:100000000C9489000C94B1000C94B1000C94B100D4
:100010000C94B1000C94B1000C94B1000C94181B1A
:100020000C94B1000C94B1000C94B1000C94671BBB
:100030000C94B1000C94B1000C94C21B0C94B10050
:100040000C94CE1A0C94B1000C949C1A0C94761A51
:100050000C94B1000C94B1000C94B1000C94B1005C
:100060000C941D1C0C94B10057616B652075702CAD
:10007000204E656F2100000000080002010000030F
:100080000407000000000000000000000000250040
:1000900028002B0002010000000000240027002A95
:1000A000004661756C74792044533332333121003A
:1000B0004453333233315F543D004669726D77618A
:1000C00072653A2000496E636F72726563742053E3
:1000D0006F6E6720466F726D617421000000000032
:1000E000230026002900040404040404040402027A
:1000F00002020202030303030303010204081020A7
:100100004080010204081020010204081020751D1F
:100110006B2E11241FBECFEFD8E0DEBFCDBF13E0A2
:10012000A0E0B1E0E2E6F8E602C005900D92A83941
:10013000B107D9F726E0A8E9B3E001C01D92AC3AB7
:10014000B207E1F710E0C8E8D0E004C02197FE0153
:100150000E943533C738D107C9F70E94161E0C9488
:1001600024340C94000080919406E0919506F0915F
:100170009606F8949181282F209592239183789464
:100180003DE743E050E0315029F1DA011197F1F7F2
:1001900090819823C1F3F894928192239283918164
:1001A000982B91837894ABE7B7E01197F1F7F89427
:1001B000918192239183A3E1B1E01197F1F79081AE
:1001C000982381E009F080E07894E3E6F6E0319747
:1001D000F1F7089580E0089590919406E0919506D6
:1001E000F0919606292F209580FF14C0F894828103
:1001F000822382838181892B8183A3E2B0E01197DE
:10020000F1F78281982B9283789487ED90E00197A3
:10021000F1F70895F8948281822382838181892B6A
:100220008183AFEFB0E01197F1F78281982B928331
:1002300078948FE090E0EBCF0F931F93CF93DF93F1
:10024000082FC8E0D0E011E081E0902F912309F45D
:1002500080E00E94EC00110F2197B1F7F894E09133
:100260009506F09196069181809194068095982349
:100270009183E0919506F09196069281892382837D
:100280007894DF91CF911F910F91089580919406FA
:10029000E0919506F0919606F8949181982B9183C0
:1002A0002281382F309523232283A7E0B0E01197D5
:1002B000F1F7918193239183A3E2B0E01197F1F7D5
:1002C00090817894EFECF0E03197F1F7982381E09A
:1002D00009F480E008950F931F93CF93DF9308E014
:1002E00010E0C0E0D1E00E9446018111CD2BDD0F6E
:1002F00001501109C1F78C2FDF91CF911F910F9100
:1003000008958CBD9DBD0895089508950895AF92F8
:10031000BF92CF92DF92EF92FF920F931F93CF93F2
:10032000DF936C017B018B01040F151FEB015E0154
:10033000AE18BF08C017D10759F06991D601ED91E9
:10034000FC910190F081E02DC6010995892B79F788
:10035000C501DF91CF911F910F91FF90EF90DF903A
:10036000CF90BF90AF900895FC01538D448D252F01
:1003700030E0842F90E0821B930B541710F0CF963F
:10038000089501970895FC01918D828D981761F071
:10039000A28DAE0FBF2FB11D5D968C91928D9F5F88
:1003A0009F73928F90E008958FEF9FEF0895FC0167
:1003B000918D828D981731F0828DE80FF11D858D1A
:1003C00090E008958FEF9FEF0895FC01918D228DAD
:1003D000892F90E0805C9F4F821B91098F73992732
:1003E000089580E995E00E94E50121E0892B09F458
:1003F00020E0822F089580E090E0892B29F00E9470
:10040000F10181110C9400000895FC01A48DA80F46
:10041000B92FB11DA35ABF4F2C91848D90E0019646
:100420008F739927848FA689B7892C93A089B18966
:100430008C91837080648C93938D848D981306C007
:100440000288F389E02D80818F7D80830895EF926B
:10045000FF920F931F93CF93DF93EC0181E0888F7E
:100460009B8D8C8D98131AC0E889F989808185FF4E
:1004700015C09FB7F894EE89FF896083E889F989F0
:1004800080818370806480839FBF81E090E0DF91F2
:10049000CF911F910F91FF90EF900895F62E0B8D45
:1004A00010E00F5F1F4F0F731127E02E8C8D8E1100
:1004B0000CC00FB607FCFACFE889F989808185FF67
:1004C000F5CFCE010E940502F1CFEB8DEC0FFD2F91
:1004D000F11DE35AFF4FF0829FB7F8940B8FEA8922
:1004E000FB8980818062CFCF0F931F93CF93DF93DF
:1004F0008C01D0E0C0E0F801EC0FFD1F6491662391
:1005000041F080E995E00E942702892B11F02196A5
:10051000F2CFCE01DF91CF911F910F910895CF932C
:10052000DF93EC01888D8823B9F0AA89BB89E8891B
:10053000F9898C9185FD03C0808186FD0DC00FB6C1
:1005400007FCF7CF8C9185FFF2CF808185FFEDCF3F
:10055000CE010E940502E9CFDF91CF91089583304B
:1005600081F028F4813099F08230A9F00895873025
:10057000A9F08830C9F08430B1F4809180008F7D7B
:1005800003C0809180008F7780938000089584B5A8
:100590008F7784BD089584B58F7DFBCF8091B000A7
:1005A0008F778093B00008958091B0008F7DF9CF50
:1005B000CF93DF93282F30E0F901EA58FF4F849161
:1005C000F901E650FF4FD491F901EA51FF4FC49170
:1005D000CC23A1F081110E94AF02EC2FF0E0EE0FCE
:1005E000FF1FE452FF4FA591B491EC91ED2381E000
:1005F00090E009F480E0DF91CF91089580E090E0F1
:10060000FACF1F93CF93DF93282F30E0F901EA58F8
:10061000FF4F8491F901E650FF4FD491F901EA515F
:10062000FF4FC491CC23A9F0162F81110E94AF0275
:10063000EC2FF0E0EE0FFF1FE657FF4FA591B491AE
:100640008FB7F894EC91111108C0D095DE23DC939C
:100650008FBFDF91CF911F910895DE2BF8CFCF93FD
:10066000DF9390E0FC01E650FF4F24918A519F4FA9
:10067000FC0184918823C9F090E0880F991FFC0148
:10068000E956FF4FA591B491FC01E657FF4FC59184
:10069000D49161110DC09FB7F8948C91209582235D
:1006A0008C938881282328839FBFDF91CF91089561
:1006B000623051F49FB7F8943C91822F8095832348
:1006C0008C93E8812E2BEFCF8FB7F894EC912E2BE3
:1006D0002C938FBFEACF4F925F926F927F928F924F
:1006E0009F92AF92BF92CF92DF92EF92FF920F93C1
:1006F0001F93CF93DF9300D000D01F92CDB7DEB70A
:1007000020918F0527FD2CC149835A836B837C83FD
:100710008C0161E080918E050E942F0380918F05EE
:100720008D834801B12CA12C8D7F09F031C160E08F
:1007300072E18AE790E0A50198010E941633290131
:100740003A017A01690191E0C91AD108E108F1087A
:10075000AFEFCA16D104E104F10409F00CF4C7C0EC
:1007600060E472E48FE090E0A50198010E941633E6
:1007700069017A01B1E0CB1AD108E108F1088D8155
:10078000823009F06AC082E09FEFC916D104E1040B
:10079000F10409F00CF45EC160E970ED83E090E0D3
:1007A000A50198010E94163369017A01A1E0CA1AD5
:1007B000D108E108F10883E0BFEFCB16D104E104D2
:1007C000F10409F00CF446C168E478EE81E090E0B1
:1007D000A50198010E94163369017A0181E0C81AC7
:1007E000D108E108F10884E09FEFC916D104E104C3
:1007F000F10409F00CF42EC164E274EF80E090E0A3
:10080000A50194010E94163369017A01B1E0CB1A67
:10081000D108E108F10885E09FEFC916D104E10491
:10082000F10409F008F416C162E17AE780E090E093
:10083000A50194010E94163369017A01B1E0CB1A37
:10084000D108E108F1088FEFC816D104E104F104E2
:1008500011F008F0F0C086E0FDC08FEFC816D1049B
:10086000E104F10409F00CF491C068E478EE81E051
:1008700090E0A50198010E94163369017A0191E088
:10088000C91AD108E108F108AD8184E0A111C4CFF3
:1008900083E0AFEFCA16D104E104F10461F15CF129
:1008A00062E17AE780E090E0A50194010E941633AE
:1008B00069017A0181E0C81AD108E108F10884E0F1
:1008C0009FEFC916D104E104F104A9F0A0F073016F
:1008D00062019AE0F594E794D794C7949A95D1F77A
:1008E000A1E0CA1AD108E108F10885E004C081E05E
:1008F000AD81A111AFC095B5987F892B85BD898148
:100900009A81AB81BC812FEF3FEFA901892B8A2B04
:100910008B2B79F0D801AA0FBB1F29813A814B811B
:100920005C810E94693128EE33E040E050E00E9493
:10093000F4329D81913009F45CC0923009F46BC0AF
:1009400091110EC0C7BC20938A0530938B0540934C
:100950008C0550938D0580916E00826080936E00AF
:100960000F900F900F900F900F90DF91CF911F91EC
:100970000F91FF90EF90DF90CF90BF90AF909F903E
:100980008F907F906F905F904F90089582E0B0CFEE
:1009900060E072E18AE790E0A50198010E941633B9
:1009A00069017A01B1E0CB1AD108E108F10891E0C0
:1009B000C114D10481E0E806F10484F068E478EE23
:1009C00081E090E0A50198010E94163369017A0147
:1009D00091E0C91AD108E108F10893E0AD81A13096
:1009E00009F08DCF80918100887F892B80938100D1
:1009F00086CFD0928900C0928800209386053093DC
:100A00008705409388055093890580916F00826027
:100A100080936F00A5CFC092B300209382053093DE
:100A20008305409384055093850580917000826012
:100A30008093700095CF730162018AE0F594E7948A
:100A4000D794C7948A95D1F7B1E0CB1AD108E108C1
:100A5000F10887E09091B100987F892B8093B100D5
:100A60004ECF1F93CF93DF93182FEB0161E00E94CD
:100A70002F03209739F460E0812FDF91CF911F91F0
:100A80000C940103CF3FD10511F461E0F5CFE12FC4
:100A9000F0E0EA58FF4FE491E33031F140F4E13007
:100AA000B1F0E230E1F0C038D1057CF7E4CFE730B7
:100AB00029F1E83059F1E430B1F78091800080628B
:100AC00080938000D0938B00C0938A0004C084B5CB
:100AD000806884BDC7BDDF91CF911F91089584B513
:100AE000806284BDC8BDF7CF80918000806880930C
:100AF0008000D0938900C0938800EDCF8091B00032
:100B000080688093B000C093B300E5CF8091B000BF
:100B100080628093B000C093B400DDCF3FB7F894FB
:100B20008091330490913404A0913504B09136043F
:100B300026B5A89B05C02F3F19F00196A11DB11D38
:100B40003FBFBA2FA92F982F8827BC01CD01620F74
:100B5000711D811D911D42E0660F771F881F991F2F
:100B60004A95D1F708958F929F92AF92BF92CF92FC
:100B7000DF92EF92FF924B015C010E948E056B01A8
:100B80007C010E948E056C197D098E099F09683EC3
:100B9000734081059105A8F321E0821A9108A1080C
:100BA000B10888EEC80E83E0D81EE11CF11C811448
:100BB0009104A104B10429F7FF90EF90DF90CF904A
:100BC000BF90AF909F908F9008952FB7F894609149
:100BD0002F047091300480913104909132042FBF22
:100BE00008956093230470932404809325049093C4
:100BF0002604645D7E4F8F4F9F4F60931F04709358
:100C00002004809321049093220482E090E090934A
:100C10001E0480931D040E94E505609319047093DF
:100C20001A0480931B0490931C0408952F923F9202
:100C30004F925F926F927F928F929F92AF92BF92EC
:100C4000CF92DF92EF92FF920F931F93CF93DF9398
:100C5000382E962E842E222E84E6E816F1040CF40B
:100C600059C092EBE91A97E0F90AE0922D0400933B
:100C70002C0420922B043092290490922804809214
:100C80002704AE2DB0E020E833E341EE51E00E94AE
:100C900069312B013C0122EB37E0FF24E4E6F0E070
:100CA000C0E9D1E0C901825B97408E159F05B4F180
:100CB0009EE4E91A98EFF90AC70164E670E00E9421
:100CC000E0326C01C70160E971E00E94E0325C0132
:100CD000C1EAD1E0E1E0F0E0112783E0E822FF245F
:100CE000E017F1070CF042C0E230F10591F5E11494
:100CF000F10479F5C114D10419F4A114B10449F532
:100D000080E8480E8BE3581E86E2681E711C3196FF
:100D10002196E6CF8EE1E80EF11CA7CFC9018370C2
:100D20009927892B99F4C901BF010E94E032892BD0
:100D300031F4C901BE010E94E032892B39F490E8F8
:100D4000490E91E5591E91E0691E711C2F5F3F4FBE
:100D5000A9CFA881B0E020E831E541E050E00E9451
:100D60006931460E571E681E791ED1CF292D30E0FD
:100D7000ACE3B0E00E94AB316B017C01C80CD11C2C
:100D8000E11CF11C232D30E0A0E1BEE00E94AB315C
:100D9000C60ED71EE81EF91E822D8150990BDC016C
:100DA00020E831E541E050E00E943B336C0D7D1DB1
:100DB0008E1D9F1D640D751D861D971DDF91CF91A2
:100DC0001F910F91FF90EF90DF90CF90BF90AF9069
:100DD0009F908F907F906F905F904F903F902F905B
:100DE0000C94F105CF92DF92EF92FF920F931F9335
:100DF0000E94E5058B019C01C0901904D0901A0453
:100E0000E0901B04F0901C04609123047091240472
:100E100080912504909126040C191D092E093F0983
:100E2000083E134021053105E0F0DC01CB010196BD
:100E3000A11DB11D8093230490932404A093250445
:100E4000B0932604B701A60148515C4F6F4F7F4F06
:100E50004093190450931A0460931B0470931C046C
:100E6000C7CF1F910F91FF90EF90DF90CF90089523
:100E70004F925F926F927F928F929F92AF92BF92AA
:100E8000CF92DF92EF92FF920F931F93CF93DF9356
:100E90004B015C018091150490911604A0911704F8
:100EA000B091180488159905AA05BB0509F4C6C0B8
:100EB0008CE3C82ED12CE12CF12CC501A7019601A1
:100EC0000E94F43260932704CA01B901A701960178
:100ED0000E94F43260932804C501B40120E13EE091
:100EE00040E050E00E94F432CA01B90128E130E04C
:100EF00040E050E00E94F43260932904C501B4013F
:100F000020E831E541E050E00E94F43269017A01C5
:100F1000CA01B9016C5F7F4F8F4F9F4F27E030E0D0
:100F200040E050E00E94F4326F5F60932A04412C4D
:100F3000512C320140E004E610E0C0E9D1E0242F5A
:100F400030E02E54384FF901E370FF273097F9F461
:100F5000C901B8010E94E032892B31F4C901BE01F8
:100F60000E94E032892B99F48EE691E0A0E0B0E097
:100F7000480E591E6A1E7B1ED301C201AA27BB2739
:100F8000C816D906EA06FB0638F04F5FD8CF8DE6C3
:100F900091E0A0E0B0E0ECCF40932D04C90164E6FD
:100FA00070E00E94E032EC01C90160E971E00E944A
:100FB000E032309721F42097D9F40097C9F04DE63C
:100FC00051E060E070E0441A550A660A770AC418D6
:100FD000D508E608F708A1EAB1E020E0213069F47D
:100FE0003097E9F5209711F40097C9F54DE106C057
:100FF0004EE651E060E070E0E6CF4C9150E070E0EA
:1010000060E031E0320FC416D506E606F70640F080
:10101000C41AD50AE60AF70A1196232F3C30F1F6D6
:101020002F5F20932C04C394C0922B04809215044C
:1010300090921604A0921704B0921804DF91CF91F9
:101040001F910F91FF90EF90DF90CF90BF90AF90E6
:101050009F908F907F906F905F904F9008954CE19C
:10106000CDCF0E94F2060E94380780912D0490E0B7
:101070008E54984F08950E94F2060E94380780917E
:101080002C0490E008950E94F2060E943807809197
:101090002B0490E008950E94F2060E943807809188
:1010A000270490E008950E94F2060E94380780917C
:1010B000280490E008950E94F2060E94380780916B
:1010C000290490E00895CF92DF92EF92FF92CF93A0
:1010D000DF93EC010E94E5056B017C018F850E9486
:1010E000D8029C0181E02115310509F480E0898B4B
:1010F0008889811105C091E0232B09F090E0998B3C
:1011000029898A89281721F0CD8ADE8AEF8AF88E0C
:101110008D899E89AF89B88DB701A601481B590BEF
:101120006A0B7B0BDB01CA01CB80DC80ED80FE808B
:10113000C816D906EA06FB0664F43A81231749F07B
:101140002A83222349F04B895C894F5F5F4F5C8B78
:101150004B8B3A81311117C0CF80D884E984FA844F
:10116000C816D906EA06FB0634F48B899C89998354
:1011700088831C8A1B8A2A8BDF91CF91FF90EF9086
:10118000DF90CF900895CB84DC84ED84FE84C81674
:10119000D906EA06FB067CF78B899C899195819597
:1011A0009109E5CF2091F203260F3327331F213217
:1011B0003105ECF420913D05FC0190E080E0243005
:1011C00069F082E00895A091F2032191AC014E52A2
:1011D0005C4FA40FB52FB11D2C930196861798F381
:1011E0008091F203680F6093F20380E0089581E03C
:1011F000089510923D0581E080933C0510921705FB
:1012000061E082E10E94010361E083E10E94010349
:10121000E9EBF0E080818E7F808380818D7F808309
:1012200088E48093B80085E48093BC000895CF9350
:10123000DF9391E09093D1038823B9F0C091B80077
:10124000D091BA008091BC008A7B8093BC0060E0A2
:1012500082E10E94010360E083E10E9401030E9499
:10126000F908D093BA00C093B800DF91CF910895E8
:10127000CF92DF92EF92FF920F931F93CF93DF9362
:10128000D091660581E0D13208F09CC0C09165051F
:101290000E948E056B017C0180913D0581116CC01F
:1012A00082E080933D0581E080933C058FEF809341
:1012B0003B0510923A05D0933905A5E4B5E0E9E184
:1012C000F5E080E0D8138DC01092180580911805C4
:1012D000CC0FC82BC093180580911705813009F0F9
:1012E00084C0109217050E948E056B017C018091CD
:1012F00018058093BB0080913F0590914005A09117
:101300004105B0914205892B8A2B8B2BA1F00E94BD
:101310008E0500913F0510914005209141053091C7
:1013200042056C197D098E099F09061717072807C2
:10133000390708F442C08091BC0083FDD8CF85EC0A
:101340008093BC000E948E056B017C0180913D055D
:10135000823009F44CC080913B058F3F09F469C08D
:1013600080913B05803209F466C080913B05803353
:1013700009F463C084E026C080913F059091400548
:10138000A0914105B0914205892B8A2B8B2B09F442
:1013900083CF0E948E0500913F051091400520915A
:1013A0004105309142056C197D098E099F09061788
:1013B00017072807390708F06FCF80913E050E9474
:1013C000170985E0109244051092660510924305B6
:1013D000DF91CF911F910F91FF90EF90DF90CF9011
:1013E00008959D9191938F5F6DCF85EEA9CF8091E8
:1013F0003F0590914005A0914105B0914205892B90
:101400008A2B8B2B09F4A2CF0E948E0500913F05F9
:101410001091400520914105309142056C197D09DC
:101420008E099F09061717072807390708F08ECF7E
:10143000C4CF80E0C7CF82E0C5CF83E0C3CFCF92D7
:10144000DF92EF92FF920F931F93CF93DF93D82FEA
:10145000C62F613208F098C00E948E056B017C0196
:1014600080913D0581116BC081E080933D058093A3
:101470003C059FEF90933B0510923A059C0F90938B
:1014800039058093180580911805DD0FD82BD0936E
:10149000180580911705813009F078C01092170562
:1014A0000E948E056B017C01809118058093BB0022
:1014B00080913F0590914005A0914105B091420572
:1014C000892B8A2B8B2BA1F00E948E0500913F0562
:1014D0001091400520914105309142056C197D091C
:1014E0008E099F09061717072807390708F448C00F
:1014F0008091BC0083FDD8CF85EC8093BC000E9416
:101500008E056B017C0180913D05813009F440C05E
:1015100080913A058C1710F4C0913A05E9E1F5E0A5
:10152000A7EFB4E080E08C1355C08C2FDF91CF91F2
:101530001F910F91FF90EF90DF90CF9008958091D1
:101540003F0590914005A0914105B0914205892B3E
:101550008A2B8B2B09F484CF0E948E0500913F05C6
:101560001091400520914105309142056C197D098B
:101570008E099F09061717072807390708F070CF4B
:1015800080913E050E941709C0E0CFCF85EEB5CF10
:1015900080913F0590914005A0914105B091420591
:1015A000892B8A2B8B2B09F4AECF0E948E050091DC
:1015B0003F051091400520914105309142056C197D
:1015C0007D098E099F09061717072807390708F0B4
:1015D0009ACFD6CF91919D938F5FA5CF0895E0913B
:1015E000480480914704E81730F4F0E0E950FB4FDD
:1015F000808190E008958FEF9FEF089590914804C7
:10160000809147042FEF3FEF981748F4E92FF0E05F
:10161000E950FB4F208130E09F5F90934804C9015F
:1016200008958091470490914804891B990B08956F
:10163000CF92DF92EF92FF920F931F93CF93DF939E
:101640007C01CB018A0120914305222389F0EB0123
:101650006B01C40ED51ECC15DD0569F06991D7016B
:10166000ED91FC910190F081E02DC7010995F3CF38
:10167000642F0E94D208C801DF91CF911F910F9172
:10168000FF90EF90DF90CF900895CF93DF931F925C
:10169000CDB7DEB76983209143052223F9F020916D
:1016A0006605203258F021E030E0FC0133832283CC
:1016B00090E080E00F90DF91CF91089580914405F4
:1016C000E82FF0E0EB5BFA4F998190838F5F809376
:1016D00044058093660581E090E0ECCF61E0CE01A7
:1016E00001960E94D208F7CFDF92EF92FF920F93FC
:1016F0001F93CF93DF93182FF62ED42ED22F81E095
:101700008093430588E68093650510924405109206
:10171000660560E08DE296E00E94450BCAE08D2DE3
:101720006C2F0E94D4328295807F682F690F8DE2E2
:1017300096E00E94450B8F2D6C2F0E94D43282952B
:10174000807F682F690F8DE296E00E94450B812F04
:101750006C2F0E94D4328295807F682F690F8DE2B2
:1017600096E00E94450B61E08DE296E00E94450BF9
:101770008D2F6C2F0E94D4328295807F682F690F45
:101780008DE296E00E94450B802F6C2F0E94D43290
:101790008295807F682F690F8DE296E00E94450B4D
:1017A0008E2D6C2F0E94D4328295807F682F690F16
:1017B0008DE296E00E94450B60E08DE296E00E948B
:1017C000450BDF91CF911F910F91FF90EF90DF902C
:1017D0000C94380990E080E008954091CF03509137
:1017E000D0032091CD033091CE0380E09CE34217DB
:1017F000530711F48FEF9FEF4F5F5F4F4330510559
:1018000029F05093D0034093CF0308951092D00352
:101810001092CF032F5F3F4F2330310529F03093D3
:10182000CE032093CD0308951092CE031092CD03E2
:1018300008952091C2043091C30402C035952795C4
:101840008A95E2F720FF03C080E09CE308958FEFC4
:101850009FEF0895CF92DF92EF92FF920F931F9325
:10186000CF93DF939091D50491110BC08FEF9FEF31
:10187000DF91CF911F910F91FF90EF90DF90CF906C
:1018800008959091CA04992389F3082FC091DE042A
:10189000D091DF048091C50381110DC00E94E50540
:1018A0006093C1037093C2038093C3039093C403F6
:1018B00081E08093C5030E94E505C090C103D090EC
:1018C000C203E090C303F090C4036C197D098E0934
:1018D0009F096D32714081059105B0F01091C003F0
:1018E0000E94E5056093C1037093C2038093C30314
:1018F0009093C40391E091279093C003992331F111
:101900001092BF031092BE032091BE033091BF031B
:10191000209530958091D904282326FF1CC081E0B2
:101920008093BD0327FF1AC081E08093BC038091A0
:10193000C003882309F49ACF02C0D595C7950A95AC
:10194000E2F7C0FF93CF80E09CE392CFD093BF0338
:10195000C093BE03D9CF1092BD03E4CF1092BC0355
:10196000E6CFCF92DF92EF92FF921F93CF93DF9358
:1019700090916705992309F48BC0C091B603D0916B
:10198000B703C830D10580F4182FFE01E653F34F9A
:101990000C943533D20CED0CF10CD20CED0CF30C95
:1019A000F50CFA0C0E94B3002196C830D10509F459
:1019B0006AC0D093B703C093B6036091B00370912F
:1019C000B1038091B2039091B303DF91CF911F9146
:1019D000FF90EF90DF90CF9008958CEC0E941C0157
:1019E000E3CF84E4FBCF8EEBF9CF0E946B018093B1
:1019F000B403DACF0E946B018093B5036091B40306
:101A0000782F6F3F760711F470E060E0072E000C2E
:101A1000880B990B0E94363020E030E040E85DE30F
:101A20000E9495306B017C016091610170E090E053
:101A300080E00E94343020E030E040E251E40E9437
:101A40002732A70196010E94BB3111110FC020E07F
:101A500030E040E251E40E9495306093B00370930F
:101A6000B1038093B2039093B3039ECF26E636E68C
:101A700046EE5FE30E94953020E030E040E052E423
:101A80000E94BB31E4CF1092B7031092B60395CFFA
:101A900060E070E0CB0199CFCF93DF93EC0121960A
:101AA000FC0120812A33C9F42181243609F52296CC
:101AB00030E020E06AE0899190ED980F9A3078F458
:101AC000629FA001639F500D1124082E000C990BFA
:101AD000C0979A01280F391FEECFCE01DFCF309388
:101AE0006404209363042115310511F02093330120
:101AF00088818F3689F48A81082E000C990B9C010D
:101B0000205331093093640420936304C3970597ED
:101B100010F420933201249688818236F1F42296C3
:101B200030E020E06AE0899190ED980F9A3068F4F7
:101B3000629FA001639F500D1124082E000C990B89
:101B4000C0979A01280F391FEECF30936404209379
:101B50006304309301012093000120910001309132
:101B60000101032E000C440B550B60E67AEE80E079
:101B700090E00E94163382E0220F331F441F551F4E
:101B80008A95D1F720935F043093600440936104F9
:101B900050936204CE01DF91CF9108958EBD000075
:101BA0000DB407FEFDCF8EB50895CF9381E08093ED
:101BB000430588E6809365051092440510926605FA
:101BC00060E08DE296E00E94450B0E94380967E0D4
:101BD00088E60E941F0A10924804809347048DE211
:101BE00096E00E94FE0A982F92959F70CAE08F702F
:101BF0009C9F800D112490E09093EF048093EE045D
:101C00008DE296E00E94FE0A982F92959F708F7049
:101C10009C9F800D112490E09093ED048093EC0440
:101C20008DE296E00E94FE0A982F929593708F7035
:101C30009C9F800D112490E09093EB048093EA0424
:101C40008DE296E00E94FE0A8DE296E00E94FE0A76
:101C5000982F92959F708F709C9F800D112490E01B
:101C60009093F1048093F0048DE296E00E94FE0AC6
:101C7000982F92959F708F709C9F800D112490E0FB
:101C80009093F3048093F2048DE296E00E94FE0AA2
:101C9000982F92959F708F709C9F800D112490E0DB
:101CA0009093F5048093F404CF910895FC01019082
:101CB0000020E9F73197AF01481B590BBC0180E9BF
:101CC00095E00C948701CF93DF930E947402EC019E
:101CD0008CE992E00E94560E8C0F9D1FDF91CF91F0
:101CE00008950F931F9380915E01882309F447C0E4
:101CF00080919E038823A9F00E94E50500919A0334
:101D000010919B0320919C0330919D03601B710BEC
:101D1000820B930B693E73408105910580F110920F
:101D20009E030E945B0820915B012817190639F574
:101D30000E94530820915C012817190601F50E94A2
:101D40004B0820915D0128171906C9F40E94E5058A
:101D500060939A0370939B0380939C0390939D03DD
:101D600081E080939E0388E690E00E94630E80915C
:101D70000201909103019093E9048093E8041F917C
:101D80000F9108958F929F92AF92BF92CF92DF9260
:101D9000EF92FF920F931F93CF93DF93CDB7DEB7F0
:101DA000A1970FB6F894DEBF0FBECDBF6C01990F9F
:101DB000EE08FF08F7FE47C06DE280E995E00E945B
:101DC00027028C0122273327A9012C193D094E092E
:101DD0005F0919A2CE0181967C019AE0892E912C8F
:101DE000A12CB12CCA01B901A50194010E94F432C1
:101DF000605DF70162937F012115310541055105B1
:101E000089F790E080E0309719F0CF010E94560EDC
:101E1000080F191F8CE992E00E94560E800F911F47
:101E2000A1960FB6F894DEBF0FBECDBFDF91CF9164
:101E30001F910F91FF90EF90DF90CF90BF90AF90E8
:101E40009F908F900895A701960119A28E010F5DB2
:101E50001F4F8AE0C82ED12CE12CF12CCA01B90108
:101E6000A70196010E94F432605DF80162938F0130
:101E7000211531054105510589F7309729F0CF012A
:101E80000E94560E8C01C6CF10E000E0C3CF0C9428
:101E90005B310C945331FC0180819181009711F0EA
:101EA0000C949C2F60E070E0CB0108952F923F923C
:101EB0004F925F926F927F928F929F92AF92BF925A
:101EC000CF92DF92EF92FF921F93CF93DF93CDB724
:101ED000DEB72C970FB6F894DEBF0FBECDBF0E94C1
:101EE0008E05C090B803D090B903E090BA03F0908B
:101EF000BB036C197D098E099F09603D7740810500
:101F0000910508F498C20E948E056093B8037093FF
:101F1000B9038093BA039093BB0388E896E00E94CC
:101F20004B0F1B012C012AE0822E912CA12CB12CED
:101F3000A50194010E94163329833A834B835C8365
:101F4000660F771F63577E4FDB010D90BC91A02D6C
:101F5000BE83AD8387E090E00E942A0C6C0190E084
:101F600080E00E94190CC822D9220E94ED0B7C014E
:101F700069817A818B819C81A50194010E9416332D
:101F8000660F771F63577E4FFB018080918086E04C
:101F900090E00E942A0C5C0181E090E00E94190C04
:101FA000A822B9220E94ED0BCE20DF202D813E8198
:101FB000C222D322F12CE12C5AE0CC0CDD1CEE1C09
:101FC000FF1C5A95D1F78A219B2188229922B12C96
:101FD000A12C8C289D28AE28BF28C201B10124E67F
:101FE00030E040E050E00E94163369017A018091B0
:101FF000BD03811102C06894B6F88091BC038111C1
:1020000002C06894B7F860E08AE00E940103109172
:1020100046048B2D9927AA27BB2789839A83AB83F4
:10202000BC83C501AA27BB278D839E83AF83B88756
:10203000BB27AB2D9A2D892D89879A87AB87BC87C3
:10204000112309F4CBC1882D0E94CE0D89850E94F1
:10205000CE0D8D810E94CE0D89810E94CE0D2AE089
:10206000822E912CA12CB12CC701B601A50194019F
:102070000E941633660F771F63577E4FDB016D900A
:102080007C9085E090E00E942A0C6C0182E090E058
:102090000E94190CC822D9226C207D200E94ED0BD1
:1020A0006C01C201B10128EE33E040E050E00E9433
:1020B0001633CA01B901A50194010E941633660FB7
:1020C000771F63577E4FFB010190F081E02DFA836B
:1020D000E98384E090E00E942A0C7C0183E090E098
:1020E0000E94190CE822F92229813A81E222F32286
:1020F0000E94ED0BC620D720A60170E060E0E4E16D
:10210000440F551F661F771FEA95D1F78E219F2137
:10211000B0E0A0E0FAE0880F991FAA1FBB1FFA9554
:10212000D1F76A017B01C82AD92AEA2AFB2AC2010F
:10213000B10120E137E240E050E00E941633CA01CD
:10214000B901A50194010E941633660F771F6357EA
:102150007E4FDB010D90BC91A02DBA83A98383E053
:1021600090E00E942A0C5C0184E090E00E94190C2F
:102170008A219B21E981FA81E823F923FA83E98303
:102180000E94ED0B29813A8182239323B0E0A0E0E5
:10219000C82AD92AEA2AFB2AC201B10120EA36E874
:1021A00041E050E00E94163329873A874B875C87CD
:1021B0008091BD03882309F41CC1E894F6F880914E
:1021C000BC03882309F418C1E894F7F88F2D9927E8
:1021D000AA27BB2789839A83AB83BC834701AA24A0
:1021E000BB24BB27AF2D9E2D8D2D8D839E83AF836A
:1021F000B887112309F403C18C2D0E94CE0D8D8167
:102200000E94CE0D882D0E94CE0D89810E94CE0D98
:102210003AE0832E912CA12CB12C69857A858B858F
:102220009C85A50194010E941633660F771F6357A2
:102230007E4FDB016D907C9082E090E00E942A0C42
:102240006C0185E090E00E94190CC822D9226C2014
:102250007D200E94ED0B6C01C201B10120E432E44B
:102260004FE050E00E941633CA01B901A501940164
:102270000E941633660F771F63577E4FFB01019054
:10228000F081E02DFA83E98381E090E00E942A0C3E
:102290007C0186E090E00E94190CE822F922298155
:1022A0003A81E222F3220E94ED0BC620D720A6013C
:1022B00070E060E0E4E1440F551F661F771FEA9568
:1022C000D1F78E219F21B0E0A0E0FAE0880F991F9E
:1022D000AA1FBB1FFA95D1F76A017B01C82AD92A28
:1022E000EA2AFB2AC201B10120E836E948E950E0B8
:1022F0000E941633CA01B901A50194010E94163348
:10230000660F771F63577E4FDB01AD90BC9090E066
:1023100080E00E942A0C9A83898387E090E00E94E3
:10232000190CE981FA81E823F923EA21FB21FA83D8
:10233000E9830E94ED0B29813A8182239323B0E047
:10234000A0E08C299D29AE29BF292091BD036C01F5
:102350007D01222309F45EC0E894F6F88091BC0365
:10236000882309F45AC0E894F7F84F2C55246624C2
:1023700077244701AA24BB24BB27AF2D9E2D8D2D8A
:1023800089839A83AB83BC83112309F449C08C2DC4
:102390000E94CE0D89810E94CE0D882D0E94CE0D07
:1023A000842D0E94CE0D61E08AE02C960FB6F89441
:1023B000DEBF0FBECDBFDF91CF911F91FF90EF9099
:1023C000DF90CF90BF90AF909F908F907F906F9055
:1023D0005F904F903F902F900C94010389810E9451
:1023E000CE0D8D810E94CE0D89850E94CE0D882D47
:1023F00034CE6894F6F8E3CE6894F7F8E7CE898196
:102400000E94CE0D882D0E94CE0D8D810E94CE0D92
:102410008C2DFCCE6894F6F8A1CF6894F7F8A5CF80
:10242000842D0E94CE0D882D0E94CE0D89810E94A0
:10243000CE0D8C2DB6CF2C960FB6F894DEBF0FBE06
:10244000CDBFDF91CF911F91FF90EF90DF90CF90A4
:10245000BF90AF909F908F907F906F905F904F90C4
:102460003F902F9008950F931F93CF93DF938C018C
:10247000EB01FC01808191810097E1F06881798115
:1024800061157105A9F0428153812C813D8142176C
:10249000530770F00E941D348C819D81F801958353
:1024A00084831D821C82DF91CF911F910F9108952B
:1024B0000E94132F88819981F801918380838A81FA
:1024C0009B81938382838C819D81958384831982F0
:1024D00018821B821A82E5CFCF93DF93EC018881AB
:1024E0009981009711F00E94132F198218821D8282
:1024F0001C821B821A82DF91CF910895FC0180819A
:102500009181009711F00C94132F08950F931F934E
:10251000CF93DF93EC0188819981009759F02A814C
:102520003B812617370730F081E0DF91CF911F9173
:102530000F9108958B016F5F7F4F0E945733009773
:1025400059F0998388831B830A832C813D81232B37
:1025500059F7FC011082E8CF80E0E7CFEF92FF92BD
:102560000F931F93CF93DF936115710541F480E0C2
:10257000DF91CF911F910F91FF90EF90089541153A
:102580005105B1F07B01EC010C811D81040F151F79
:10259000B8010E948612882351F3288139818C81E9
:1025A0009D81B701820F931F0E941D341D830C83F0
:1025B00081E0DECFEF92FF920F931F93CF93DF93D3
:1025C000CDB7DEB72D970FB6F894DEBF0FBECDBFE7
:1025D0007C01CB01BA012AE08E010F5F1F4FA801D9
:1025E0000E94E32FF80101900020E9F73197AF0135
:1025F000401B510BB801C7010E94AE12811103C0EC
:10260000C7010E946C12C7012D960FB6F894DEBF69
:102610000FBECDBFDF91CF911F910F91FF90EF9033
:102620000895CF93DF93EC01FB0101900020E9F7BF
:102630003197AF01461B570B0E94AE12811103C0A8
:10264000CE010E946C12CE01DF91CF910895CF93FD
:10265000DF93EC01FB0144815581608171810E940F
:10266000AE12811103C0CE010E946C12CE01DF9127
:10267000CF910895EF92FF920F931F93CF93DF9323
:1026800000D000D0CDB7DEB77C01862F4AE08E01A6
:102690000F5F1F4FB80190E00E94C32FF801019017
:1026A0000020E9F73197AF01401B510BB801C7017A
:1026B0000E94AE120F900F900F900F90DF91CF916C
:1026C0001F910F91FF90EF900895EF92FF920F935B
:1026D0001F93CF93DF93EC017B018A01BA010E9423
:1026E000861281110BC0CE010E946C12CE01DF91C7
:1026F000CF911F910F91FF90EF9008951D830C8350
:10270000B701888199810E941D34F0CFFB010190AF
:102710000020E9F73197AF01461B570B0C94651366
:102720000F931F93CF93DF93CDB7DEB762970FB6AA
:10273000F894DEBF0FBECDBF8C01CB01F801118232
:10274000108213821282158214824AE0BE016F5FEA
:102750007F4F0E94C32FBE016F5F7F4FC8010E9451
:10276000861362960FB6F894DEBF0FBECDBFDF9121
:10277000CF911F910F9108950F931F93CF93DF93E4
:10278000CDB7DEB7A1970FB6F894DEBF0FBECDBFB1
:102790008C01CB01BA01F8011182108213821282DE
:1027A000158214822AE0AE014F5F5F4F0E94E32F33
:1027B000BE016F5F7F4FC8010E948613A1960FB6BE
:1027C000F894DEBF0FBECDBFDF91CF911F910F9167
:1027D0000895CF93DF93EC01FB018617970749F02B
:1027E000608171816115710541F0448155810E94BC
:1027F0006513CE01DF91CF9108950E946C12F9CF3D
:10280000FC011182108213821282158214820C94B0
:10281000E913FC0111821082138212821582148244
:10282000FB0101900020E9F73197AF01461B570BE0
:102830000C946513AF92BF92CF92DF92EF92FF920A
:102840000F931F93CF93DF936C015B017A01890192
:102850002417350720F48F2D7901042F182F6EE9E6
:1028600072E0C6010E940914D5011496CD91DC9145
:10287000EC16FD06E0F40C171D0708F4E801D5017D
:10288000ED91FC911197EC0FFD1F108110826D915D
:102890007C916E0D7F1DC60161157105A1F00E942E
:1028A0008613F50180819181C80FD91F1883C60155
:1028B000DF91CF911F910F91FF90EF90DF90CF901C
:1028C000BF90AF9008950E946C12EBCF4F925F9231
:1028D0006F927F928F929F92AF92BF92CF92DF9230
:1028E000EF92FF920F931F93CF93DF9300D000D00E
:1028F00000D0CDB7DEB77C014B015A018091C404F2
:1029000081113EC081E08093C4041092C3041092F0
:10291000C20498EA692E93E0792E20EA422E23E041
:10292000522E10E000E00F5F1F4F680181E0C81ACF
:10293000D1089801A601B401CE0101960E941A1493
:10294000CE0101960E944B0FD3016D933D01CE0144
:1029500001960E947E129801A601B501CE01019652
:102960000E941A14CE0101960E944B0FF20161934E
:102970002F01CE0101960E947E120830110599F6B2
:1029800090919F0388EAC82E83E0D82EE0EAF3E016
:102990008601A801D8018C919A30D8F58F5F8C936D
:1029A0000F5F1F4FDA018C918A3019F4D80111970B
:1029B0001C923196B3E0003B1B0759F79F5F94319F
:1029C00069F190939F036EE972E0C7010E940914B8
:1029D000F60161916F01C7010E943A130C151D05A4
:1029E000B9F7C70126960FB6F894DEBF0FBECDBF6C
:1029F000DF91CF911F910F91FF90EF90DF90CF90DB
:102A0000BF90AF909F908F907F906F905F904F900E
:102A100008952081281721F28F5FC1CF10929F0364
:102A20001092C404D0CFCF92DF92EF92FF920F9317
:102A30001F93CF93DF93CDB7DEB72C970FB6F894E3
:102A4000DEBF0FBECDBF8C0167ED72E0CE010796F1
:102A50000E94091422E030E050E040E0033011050C
:102A6000A9F024E030E042E050E00C30110571F0B4
:102A700026E030E00033110539F0003F110581F503
:102A800020918C0630918D0644E050E068E876E0B5
:102A9000CE0101960E941A14BE016F5F7F4FCE01D6
:102AA00007960E943312CE0101960E947E12CE013B
:102AB00007960E944B0F6B01CE0107960E947E1273
:102AC000C6012C960FB6F894DEBF0FBECDBFDF91C6
:102AD000CF911F910F91FF90EF90DF90CF900895CD
:102AE000003C110521F720918C0630918D0646E0BF
:102AF00050E0CCCF0F931F93CF93DF93CDB7DEB7CA
:102B000062970FB6F894DEBF0FBECDBF8C0177FF82
:102B100003C07195619571096A307105A4F5CE0104
:102B20000D960E94901366EA72E0CE0101960E9413
:102B30000914BE016F5F7F4FCE0107960E940014FB
:102B4000BE01635F7F4FCE0107960E942713BC0131
:102B5000C8010E940014CE0107960E947E12CE0189
:102B600001960E947E12CE010D960E947E12C8012F
:102B700062960FB6F894DEBF0FBECDBFDF91CF9146
:102B80001F910F910895C8010E949013F0CF0F93E9
:102B90001F93CF93DF93CDB7DEB768970FB6F89446
:102BA000DEBF0FBECDBF8B0177FF03C0119501952E
:102BB0001109833079F520918C0630918D0642E021
:102BC00050E068E876E0CE010D960E941A14B80134
:102BD000CE0101960E947A15BE016F5F7F4FCE0134
:102BE00007960E940014BE01635F7F4FCE010796D7
:102BF0000E942713BC0188E896E00E94E913CE01E9
:102C000007960E947E12CE0101960E947E12CE018E
:102C10000D9644C08C3009F04EC020918C06309146
:102C20008D0644E050E068E876E0CE0143960E94CD
:102C30001A14B801CE010D960E947A1522E030E0F8
:102C400050E040E068E876E0CE0101960E941A1458
:102C5000BE016F5F7F4FCE0107960E940014BE0138
:102C6000635F7F4FCE0107960E942713BE016D5E02
:102C70007F4F0E942713BC0188E896E00E94E91369
:102C8000CE0107960E947E12CE0101960E947E120E
:102C9000CE010D960E947E12CE0143960E947E12B6
:102CA00068960FB6F894DEBF0FBECDBFDF91CF910F
:102CB0001F910F9108958033A1F420918C063091DB
:102CC0008D0646E050E068E876E0CE0143960E942B
:102CD0001A14B801CE010D960E947A1524E030E056
:102CE000AFCF803F81F4B801CE010D960E947A15D6
:102CF00024E030E050E040E068E876E0CE01019664
:102D00000E941A1469CF803C59F6B801CE010D9685
:102D10000E947A1526E030E0EDCF0E94E505609331
:102D2000DA047093DB048093DC049093DD048091DB
:102D3000E004882389F18091E2049091E304FC018E
:102D4000E25BFE4F81319105F1F02081215020831B
:102D50003081DC01AC5FBE4F2C91321728F4DC01CE
:102D6000A55EBE4F2C912083409739F480915E017F
:102D7000813079F480E88093D904608170E080919B
:102D8000DE040C94C71520915F012C5020935F0145
:102D9000DFCF1092D904F1CF08950E94E50560932A
:102DA000DA047093DB048093DC049093DD0480915B
:102DB000E004882389F18091E2049091E304FC010E
:102DC000E25BFE4F81319105F1F020812F5F20837E
:102DD0003081DC01A55EBE4F2C91231728F4DC0165
:102DE000AC5FBE4F2C912083409739F480915E01F7
:102DF000813079F480E88093D904608170E080911B
:102E0000DE040C94C71520915F01245F20935F01BD
:102E1000DFCF1092D904F1CF08958F929F92AF9295
:102E2000BF92DF92EF92FF920F931F93CF93DF93A6
:102E3000CDB7DEB7A2970FB6F894DEBF0FBECDBFF9
:102E40008C018AE0EBE6F1E0DE01119601900D9233
:102E50008A95E1F7809198039091990301968A30C1
:102E600091050CF084C09093990380939803E091AE
:102E70009803F091990381E090E08C0F9D1FE80F7B
:102E8000F91FD08080915F01883109F075C00E94E0
:102E9000E5054B015C010E944B08BC01CE014D963B
:102EA0000E947A150E945308BC01CE0147960E94E9
:102EB0007A150E945B08BC01CE010B960E947A1520
:102EC000BE01655F7F4FCE0141960E940014BE0196
:102ED000695E7F4FCE0141960E942713BE01635E5B
:102EE0007F4F0E9427137C01C501B40128EE33E017
:102EF00040E050E00E94F43224E630E040E050E050
:102F00000E94F432BA01A901C7010E94DA127C01C1
:102F10006D2D0E943A13811103C0C7010E946C12EB
:102F2000B701C8010E940014CE0141960E947E1292
:102F3000CE010B960E947E12CE0147960E947E1211
:102F4000CE014D960E947E12C801A2960FB6F8944B
:102F5000DEBF0FBECDBFDF91CF911F910F91FF90CC
:102F6000EF90DF90BF90AF909F908F900895109258
:102F70009903109298037BCF0E94E50528EE33E079
:102F800040E050E00E94F43224E630E040E050E0BF
:102F90000E94F43249015A010E944B08BC01CE0143
:102FA0004D960E947A150E945308BC01CE014796A7
:102FB0000E947A150E94F2060E9438078091290427
:102FC0006CE070E0882331F0682F70E08D3010F0F5
:102FD0006C507109CE010B960E947A15BE01655F97
:102FE0007F4FCE0141960E940014BE01695E7F4F63
:102FF000CE0141960E942713BE01635E7F4F0E945F
:103000002713B501A40181CF8F929F92AF92BF92F7
:10301000CF92DF92EF92FF920F931F93CF93DF93A4
:10302000CDB7DEB762970FB6F894DEBF0FBECDBF47
:103030008C016A017B0180917A05811111C00E9487
:10304000E505645B7B4F8F4F9F4F609376057093D0
:103050007705809378059093790581E080937A05D0
:1030600080916E05811109C06FE972E088E695E0F4
:103070000E94091481E080936E058091670581119B
:1030800019C068E675E0C8010E940014C801629684
:103090000FB6F894DEBF0FBECDBFDF91CF911F9169
:1030A0000F91FF90EF90DF90CF90BF90AF909F90E7
:1030B0008F9008950E94E5058090760590907705A1
:1030C000A0907805B0907905681979098A099B095B
:1030D000693E734081059105A0F20E94E505609369
:1030E000760570937705809378059093790520E0B5
:1030F00030E0A901C701B6010E94CF3220E030E0E4
:1031000040E05FE387FDFCC0C701B6010E94BB3110
:103110000E9499327B0177FF04C0EE24FF24E61A57
:10312000F70A5B0139E1A31A3CEFB30A8091600111
:103130009B012D593F4F69012A5531094901B701BA
:103140008111E3C0CE0101960E94901366EA72E0FD
:10315000CE0107960E940914BE016F5F7F4FCE011A
:1031600007960E94271366EA72E00E941113BC01C1
:1031700088E695E00E94E913CE0107960E947E1230
:10318000CE0101960E947E123FECA31637E0B306F3
:1031900078F5B701CE0101960E949013609161010C
:1031A00070E0CE010D960E947A15BE01635F7F4FDD
:1031B000CE0107960E940014BE016F5F7F4FCE01C3
:1031C00007960E94271366EA72E00E941113BC0161
:1031D00088E695E00E94E913CE0107960E947E12D0
:1031E000CE010D960E947E12CE0101960E947E12A3
:1031F00087ECC816D10498F5B701CE0101960E945C
:1032000090136091610170E0CE0107960E947A15DB
:1032100066EA72E0CE010D960E940914BE01695F54
:103220007F4FCE010D960E942713BE016F5F7F4F27
:103230000E94271366EA72E00E941113BC0188E61F
:1032400095E00E94E913CE010D960E947E12CE01F8
:1032500007960E947E12CE0101960E947E1223E103
:103260008216910498F5B701CE0101960E94901341
:103270006091610170E0CE0107960E947A1565EABF
:1032800072E0CE010D960E940914BE01695F7F4F66
:10329000CE010D960E942713BE016F5F7F4F0E94E3
:1032A000271366EA72E00E941113BC0188E695E0DC
:1032B0000E94E913CE010D960E947E12CE01079660
:1032C0000E947E12CE0101960E947E126EE972E08B
:1032D000CE0101960E94091468E675E0CE010196C0
:1032E0000E94271365EA72E00E941113BC0188E670
:1032F00095E00E94E913CE0101960E947E12C1CE94
:10330000C701B6010E94BA3103CFCE0101960E94D7
:10331000901366EA72E0CE0107960E940914BE017E
:103320006F5F7F4FCE0107960E94271366EA72E017
:103330000E941113BC0188E695E00E94E913CE01BA
:1033400007960E947E12CE0101960E947E123FECEB
:10335000A31637E0B30698F56091610170E0CE01E5
:1033600001960E947A15C7016AE070E00E94E0327F
:10337000CE0107960E94901365EA72E0CE010D9689
:103380000E940914BE01695F7F4FCE010D960E9415
:103390002713BE016F5F7F4F0E942713BC0188E691
:1033A00095E00E94E913CE010D960E947E12CE0197
:1033B00007960E947E12CE0101960E947E1287EC33
:1033C000C816D10498F56091610170E0CE010196B4
:1033D0000E947A15C7016AE070E00E94E032CE01D7
:1033E00007960E94901364EA72E0CE010D960E9447
:1033F0000914BE01695F7F4FCE010D960E9427130D
:10340000BE016F5F7F4F0E942713BC0188E695E0E5
:103410000E94E913CE010D960E947E12CE010796FE
:103420000E947E12CE0101960E947E1223E1821636
:10343000910408F04BCF6091610170E0CE010196DC
:103440000E947A15C7016AE070E00E94E032CE0166
:1034500007960E94901363EA72E0CE010D960E94D7
:103460000914BE01695F7F4FCE010D960E9427139C
:10347000BE016F5F7F4F0E94271317CF85ED8093AA
:10348000BC0080913F0590914005A0914105B0910D
:1034900042050796A11DB11D23E0B695A795979506
:1034A00087952A95D1F72091BC0024FD03C0109286
:1034B0003D05089540913F055091400560914105BB
:1034C00070914205452B462B472B69F30097A105C8
:1034D000B10541F02AE22A95F1F700C00197A10950
:1034E000B109E1CF80913E050C9417091F920F920C
:1034F0000FB60F9211242F933F934F935F936F93C7
:103500007F938F939F93AF93BF93EF93FF9380E944
:1035100095E00E940502FF91EF91BF91AF919F91BD
:103520008F917F916F915F914F913F912F910F906C
:103530000FBE0F901F9018951F920F920FB60F920B
:1035400011242F938F939F93EF93FF93E091A00506
:10355000F091A1058081E091A605F091A70582FD7B
:103560001BC090818091A9058F5F8F732091AA0560
:10357000821741F0E091A905F0E0E057FA4F958FEE
:103580008093A905FF91EF919F918F912F910F90BB
:103590000FBE0F901F9018958081F4CF1F920F924D
:1035A0000FB60F9211242F933F938F939F93AF9356
:1035B000BF9380912F0490913004A0913104B09179
:1035C000320430912E0423E0230F2D3758F5019655
:1035D000A11DB11D20932E0480932F0490933004DD
:1035E000A0933104B0933204809133049091340459
:1035F000A0913504B09136040196A11DB11D8093B0
:10360000330490933404A0933504B0933604BF91EF
:10361000AF919F918F913F912F910F900FBE0F907F
:103620001F90189526E8230F0296A11DB11DD2CF39
:103630001F920F920FB60F9211242F933F938F93E7
:103640009F93AF93BF93EF93FF93809182059091E7
:103650008305A0918405B09185050097A105B1056A
:1036600031F130913B04E0913C04F0913D04208124
:1036700023272083181619061A061B061CF4019727
:10368000A109B1098093820590938305A0938405D5
:10369000B0938505FF91EF91BF91AF919F918F916D
:1036A0003F912F910F900FBE0F901F901895209172
:1036B00070002D7F2093700020913B04E0913C042A
:1036C000F0913D043081209523232083DBCF1F928E
:1036D0000F920FB60F9211248F939F93AF93BF93C6
:1036E000EF93FF938091860590918705A0918805BF
:1036F000B0918905892B8A2B8B2BA1F190913E04E7
:10370000E0913F04F091400480818927808380917B
:10371000860590918705A0918805B09189051816B6
:1037200019061A061B069CF4809186059091870560
:10373000A0918805B09189050197A109B1098093ED
:10374000860590938705A0938805B0938905FF911E
:10375000EF91BF91AF919F918F910F900FBE0F90FE
:103760001F90189580916F008D7F80936F008091DE
:103770003E04E0913F04F0914004908180958923BC
:103780008083E5CF1F920F920FB60F9211248F9373
:103790009F93AF93BF93EF93FF9380918A0590918E
:1037A0008B05A0918C05B0918D05892B8A2B8B2BD5
:1037B000A1F190914104E0914204F0914304808191
:1037C0008927808380918A0590918B05A0918C0533
:1037D000B0918D05181619061A061B069CF48091E7
:1037E0008A0590918B05A0918C05B0918D0501976C
:1037F000A109B10980938A0590938B05A0938C054C
:10380000B0938D05FF91EF91BF91AF919F918F91F3
:103810000F900FBE0F901F90189580916E008D7FB6
:1038200080936E0080914104E0914204F091430442
:103830009081809589238083E5CF1F920F920FB6E8
:103840000F9211242F933F934F935F936F937F9326
:103850008F939F93AF93BF93EF93FF938091B900A2
:10386000887F803609F44AC0F0F5883209F4A7C091
:1038700018F5803109F49BC0B8F4882309F4F9C025
:10388000883009F494C0FF91EF91BF91AF919F915F
:103890008F917F916F915F914F913F912F910F90F9
:1038A0000FBE0F901F901895883109F488C08032A0
:1038B00051F780933B0514C0803409F49DC040F457
:1038C0008033B9F38833F9F680933B0585ECB0C0BB
:1038D000803509F485C0883509F496C0883499F696
:1038E0000E943E1AD0CF883909F48CC038F5883749
:1038F00029F050F4883611F0803729F683E0809360
:103900003D051092140457C0883809F47BC08039F3
:1039100019F0803809F0B7CF80911404803208F094
:1039200071C0E091140481E08E0F809314048091A3
:10393000BB00F0E0EC50FC4F80833DC0803B39F091
:10394000E0F4803A09F479C0883A09F09CCF84E029
:1039500080933D051092F3031092F203E091390435
:10396000F0913A0409958091F20381110FC081E032
:103970008093F2031092D20309C0803C09F4A6CFD1
:10398000883C09F4A3CF883B09F07DCFE091F30395
:1039900081E08E0F8093F303F0E0EE52FC4F8081C4
:1039A0008093BB009091F3038091F20329C0809132
:1039B00018058093BB0085EC8093BC0064CF909188
:1039C0003A0580913905981758F5E0913A0581E05C
:1039D0008E0F80933A05F0E0E75EFA4F8081E9CFE1
:1039E000E0913A0581E08E0F80933A058091BB000B
:1039F000F0E0E75EFA4F808390913A0580913905B7
:103A00009817C8F285E8D8CFE0913A0581E08E0F8B
:103A100080933A058091BB00F0E0E75EFA4F808327
:103A200080913C0581115CCF81E08093170584EA89
:103A30008093BC0010923D0526CF85EC8093BC009E
:103A400010923D0580911404803230F4E09114040A
:103A5000F0E0EC50FC4F10826091140470E0E091B3
:103A60003704F091380484EF93E009951092140420
:103A70000ACF10923B0534CFCF93DF93EC01862F12
:103A80006F87188A91E0998B9A8B1C8A1B8A1982FE
:103A900018821A821D8A1E8A1F8A188E44E150E0FD
:103AA00060E070E04B835C836D837E834AEF50E07F
:103AB00060E070E04F83588769877A8748EE53E06B
:103AC00060E070E04B875C876D877E8760E00E94D6
:103AD0002F038889811106C061E08F85DF91CF9126
:103AE0000C940103DF91CF910895E0E9F5E0138292
:103AF000128288EE93E0A0E0B0E084839583A683F1
:103B0000B7832CE732E03183208325EC30E0358722
:103B1000248724EC30E03787268720EC30E0318B97
:103B2000208B21EC30E0338B228B22EC30E0358B84
:103B3000248B26EC30E0378B268B118E128E138E61
:103B4000148EEDE2F6E01382128284839583A683BD
:103B5000B7838EE892E09183808368EA72E082EA1C
:103B600096E00E94091460E081E10E942F03EBE0DF
:103B7000F1E0E491A4E9B6E0EC93E7EFF0E0E49142
:103B8000F0E0EE0FFF1FE452FF4F859194911296E3
:103B90009C938E9311971B961C921B971D961C92BB
:103BA0001D971C961C921C971A961C921A97199690
:103BB0001C92199718961C92189717961C92179793
:103BC00016961C92169715961C92159714961C9291
:103BD000149713961C926EE972E08EE896E00E94AC
:103BE000091461EA72E088E896E00E9409146EE028
:103BF0008FE696E00E943C1D60E186E596E00E941B
:103C00003C1D6FE08DE396E00E943C1D2091620117
:103C100030E0A0E6BAEE0E94AB31609339067093B3
:103C20003A0680933B0690933C060895CF93DF932A
:103C3000CDB7DEB7C656D1090FB6F894DEBF0FBEBA
:103C4000CDBF789484B5826084BD84B5816084BD25
:103C500085B5826085BD85B5816085BD80916E002A
:103C6000816080936E00109281008091810082605B
:103C70008093810080918100816080938100809198
:103C800080008160809380008091B1008460809387
:103C9000B1008091B00081608093B00080917A0083
:103CA000846080937A0080917A00826080937A00A9
:103CB00080917A00816080937A0080917A00806898
:103CC00080937A001092C10061E085E00E942F038A
:103CD00060E085E00E9401031092480410924704BE
:103CE00010924405109266050E94F90884E891E05C
:103CF00090933A048093390485E891E090933804D6
:103D000080933704E091A005F091A10582E08083C3
:103D1000E0919C05F0919D051082E0919E05F09147
:103D20009F0580E180831092A805E091A405F091A1
:103D3000A50586E08083E091A205F091A30580812E
:103D400080618083E091A205F091A3058081886065
:103D50008083E091A205F091A30580818068808333
:103D6000E091A205F091A30580818F7D808383E39C
:103D70008093270181EE8093100180935A0180EF98
:103D80008093430181E090E00E94490F8C3009F05C
:103D900088E180935F0190E080E00E94490F8823D2
:103DA00009F4FBC381E08093340182E090E00E943B
:103DB000490F8F3F09F0F4C310925B0183E090E05C
:103DC0000E94490F8F3F09F0EEC310925C0184E01E
:103DD00090E00E94490F8F3F09F0E8C310925D0107
:103DE00086E090E00E94490F8F3F09F0E2C31092F5
:103DF0005E0187E090E00E94490F8F3F09F0DCC32D
:103E00001092D6048BE090E00E94490F8F3F09F09A
:103E1000DAC3109260018CE090E00E94533160960A
:103E20008FAF60978DE090E00E94533161968FAF25
:103E3000619761968EAD9FAD61978F3F910509F0B7
:103E4000C5C3109261018EE090E00E94490F8F3F40
:103E500011F0809362018FE090E00E94490F8F3F44
:103E600011F08093630180E190E00E94490F8F3F41
:103E700011F08093640161E089E00E942F0361E00A
:103E800086E00E942F0361E083E00E942F0380916F
:103E90004404833008F00CC492E090938E05E82F20
:103EA000F0E0EC56FF4FE491E0938F058F5F809335
:103EB0004404E13009F4AEC308F48BC3E23009F4E2
:103EC000D0C380910201909103010E944C0D909308
:103ED00003018093020161E08AE00E942F0361E008
:103EE00088E00E942F0360E088E00E94010362E006
:103EF00088E00E942F0388E00E94D80221E0892BED
:103F000009F020E0209346041FB7F89480914504FF
:103F1000811127C0E0EFF0E08491E4E0F1E09491BA
:103F2000E82FF0E0EE0FFF1FE956FF4FA591B49187
:103F3000EC91E92321F461E08AE00E94010361E051
:103F40008AE00E942F038CB580618CBD8CB58064A3
:103F50008CBD61E08DE00E942F0361E08BE00E9448
:103F60002F03809145048F5F809345041FBF80918C
:103F70004604882309F4A0C389E791E00E948101E7
:103F800062E08EE00E942F0362E080E10E942F0336
:103F900062E08FE00E942F0361E082E00E942F0325
:103FA00004E110E020E030E0009372061093730605
:103FB00020937406309375064EE150E060E070E0A7
:103FC000409376065093770660937806709379064F
:103FD00080ED97E0A0E0B0E080937A0690937B06B6
:103FE000A0937C06B0937D060093590610935A0661
:103FF00020935B0630935C0640935D0650935E060B
:1040000060935F06709360068093610690936206EA
:10401000A0936306B0936406009340061093410694
:10402000209342063093430640934406509345063E
:10403000609346067093470680934806909349061E
:10404000A0934A06B0934B06E090A106E11027C06A
:104050000E94B300882319F180EF0E941C01D12C2B
:10406000FF24F39401E00E944601182F0E944601AC
:10407000113009F023C3813009F03FC3013478F0D7
:10408000E0929F06E11003C081E08093A106809139
:104090009706A7E9B6E0E5E5F4E0811144C3109284
:1040A0009F061092A1061092A00610929E061092F2
:1040B0009D0610929C0610929B0610929A061092F2
:1040C00099061092980610929706809167058823AA
:1040D00009F10E94B30085E50E941C0105E514E08A
:1040E000F80181918F010E941C01F4E00D351F073A
:1040F000B9F78EEB0E941C0109E414E032E5E32ECF
:1041000034E0F32E0E946B01F80181938F01EE16CB
:10411000FF06C1F78AEB90E00E94740225E030E0D0
:1041200042E050E062EA76E0CE0101963C010E9456
:104130001A1422E030E041E050E062EA76E0CE017D
:10414000875B9F4F0E941A14BE01675B7F4FCE01B1
:104150008D5B9F4F0E9400146FEA72E0CE018D5B71
:104160009F4F0E941113B3010E942713FC01448149
:1041700055816081718180E995E00E9487018CE919
:1041800092E00E94560ECE018D5B9F4F0E947E12E0
:10419000CE01875B9F4F0E947E12C3010E947E1258
:1041A00081EB92E00E94560E8CE992E00E94560E3E
:1041B0008091A8069091A906009711F48CEA96E0E8
:1041C0009301281B390BC9010E94C20E8091020184
:1041D000909103019093E9048093E8040E944C0DB0
:1041E0006FEF70E089E00E94310568EE73E080E0D7
:1041F00090E00E94B30570E060E089E00E94310524
:104200006FEF70E086E00E94310568EE73E080E0B9
:1042100090E00E94B30570E060E086E00E94310506
:104220006FEF70E083E00E94310568EE73E080E09C
:1042300090E00E94B3056FE972E0C3010E94091487
:1042400060ED72E0CE0107960E94091469ED72E0FC
:10425000CE010D960E94091462EE72E0CE014396E3
:104260000E9409146BEE72E0CE0149960E94091477
:1042700064EF72E0CE014F960E9409146DEF72E078
:10428000CE0185960E94091466E073E0CE018B96FC
:104290000E9409146FE073E0CE01C1960E940914D8
:1042A00068E173E0CE01C7960E9409146EE972E0DE
:1042B000CE01CD960E94091462EA76E0CE018D5BB4
:1042C0009F4F0E94001465EA72E0CE018D5B9F4F04
:1042D0000E941113BC01CE01CD960E94E913CE01BC
:1042E0008D5B9F4F0E947E120E94E5056B017C0151
:1042F00038EEC30E33E0D31EE11CF11C00E01FEFCB
:1043000094EFA92EBB24B39426E0922E8FE00E9456
:10431000D802892B09F401E080E10E94D802892BA0
:1043200009F400E00E94E5056C197D098E099F09DA
:1043300095010B2C000C440B550B2617370748072B
:10434000590708F007C20E94E5056B017C010111C5
:1043500001C01F5F1A3009F4F0C11B3009F0F1C130
:1043600081E08093430588E68093650510924405BB
:104370001092660561E18DE296E00E94450B0E9475
:10438000380962E088E60E941F0A10924804809370
:1043900047048DE296E00E94FE0A182F80EB90E021
:1043A0000E947402812F012E000C990B0E94C20EF4
:1043B00015501833B8F081EA90E00E94630E05E0D2
:1043C00010E048EE53E060E070E088EE93E00E9479
:1043D0006B0360ED77E080E090E00E94B305015050
:1043E000110979F78E010D5B1F4F06501109C801A5
:1043F0000E947E1260167106C1F70E94D50D0091D1
:10440000EE041091EF040E94E5056B017C0181E050
:104410008093F60411278091EE049091EF04081721
:10442000190779F40E94D50D0E94E5056C197D09E4
:104430008E099F09693B7B408105910560F31092CD
:10444000F6048090F404F090F5049090F20410913A
:10445000F304A090F0043091F104B090EE04509178
:10446000EF04C090EC047091ED04D090EA04E82CC5
:10447000092D2A2D4B2D6C2D8D2D9091EB040E9432
:10448000160660E085E00E9401032A2D4B2D6C2D5D
:104490008D2D0E94740B61E085E00E940103B4E65B
:1044A0002B2E312C9E012F5F3F4F29010E94E505E5
:1044B00020E63AEE40E050E00E94F432672B682B91
:1044C000692B01F58091F6048823E1F00E94D50D57
:1044D000E090F404F090F5040091F2041091F304DC
:1044E0002091F0043091F1044091EE045091EF04DA
:1044F0006091EC047091ED048091EA049091EB04DA
:104500000E9416060091E8041091E904F8018081E8
:10451000882309F4EAC10E94E505C0906904D0909F
:104520006A04E0906B04F0906C046C197D098E09AC
:104530009F09C0906504D0906604E0906704F090F5
:104540006804C616D706E806F90608F0CEC10E9430
:10455000E5054B015C018092690490926A04A09287
:104560006B04B0926C04680130E020E04AE0F8018E
:10457000F1908F0180ED8F0D8A3008F0EEC0429FE0
:10458000C001439F900D11242F2DFF0C330B20539E
:104590003109280F391F6F01EACF1092340105CC81
:1045A00080935B010BCC80935C0111CC80935D0107
:1045B00017CC80935E011DCC91E0811101C090E089
:1045C0009093D6041FCC8093600125CC8093610129
:1045D0003ACC14BC15BC84B5826084BD85B58160BD
:1045E00085BD80918E0590E0FC01EA51FF4FE4917A
:1045F000F0E0EE0FFF1FE657FF4F25913491309307
:10460000430420934204FC01E650FF4FE491E09301
:10461000410457CC1092800010928100809181005B
:104620008860809381008091810081608093810007
:1046300080918E0590E0FC01EA51FF4FE491F0E09B
:10464000EE0FFF1FE657FF4F259134913093400442
:1046500020933F04FC01E650FF4FE491E0933E04B9
:1046600030CC1092B0001092B1008091B000826006
:104670008093B0008091B10081608093B1008091FF
:104680008E0590E0FC01EA51FF4FE491F0E0EE0F5F
:10469000FF1FE657FF4F2591349130933D0420933F
:1046A0003C04FC01E650FF4FE491E0933B0409CC4D
:1046B0008FEF80938F0505CC89E55FCCED2DF0E081
:1046C000181311C080919F060817A8F4DF01AC569B
:1046D000B94F13968C918F2181F410E0093010F4BA
:1046E0000093A006E02EEC56F94F83819F2D909504
:1046F000892383830AC08013F0CFED2DF0E0EC56C0
:10470000F94F83818F29838311E0812F0E94EC0070
:104710000F5FFF0C19F4D394FF24F39427E02D15B9
:1047200008F0A1CCABCC8D91819334E0ED35F3074B
:10473000D1F781E080936705C8CC88EBA82E8BE089
:10474000B82EB301199D600D711D112488E896E003
:104750000E94E9130E94560FD9CD30936404209330
:10476000630460915F047091600480916104909192
:1047700062042115310501F1032E000C440B550B89
:104780000E941633209365043093660440936704B7
:1047900050936804EFE9EF0DE730A0F40E2E000C03
:1047A000FF0BEB52FC4D0C94353342274427362740
:1047B0003A273C273E2740272091330130E050E044
:1047C00040E0DECF10925E04F6018181833241F435
:1047D00080915E048F5F80935E0486010E5F1F4FA1
:1047E000F80180818E32F1F4C0906504D0906604A7
:1047F000E0906704F0906804C701B60122E030E061
:1048000040E050E00E941633C20ED31EE41EF51E97
:10481000C0926504D0926604E0926704F092680446
:104820000F5F1F4FF801808180538A3008F02EC33C
:1048300080935D040F5F1F4FF80180818C3211F46B
:104840000F5F1F4FE0915E04EE2309F44EC0C0904D
:104850006504D0906604E0906704F090680480914D
:104860005D048450990B4CE0489F9001499F300DA6
:104870001124E20FF32FF11DEE0FFF1FE355FE4F42
:10488000B701A601808191810E946B030E94E5051A
:10489000681979098A099B09C616D706E806F90638
:1048A00020F50E94E5056093690470936A04809383
:1048B0006B0490936C0480918F05813009F4EBC2F6
:1048C000823009F4EEC2811105C080916E008D7FA7
:1048D00080936E0060E080918E050E94010385EC5C
:1048E00090E00E94630E10E000E01093E904009352
:1048F000E8040E94E5050091E4041091E50420918C
:10490000E6043091E704601B710B820B930B663059
:1049100071058105910508F180913401882321F00A
:10492000209164012111C3C270E060E089E00E941F
:10493000310570E060E086E00E94310570E060E0E3
:1049400083E00E9431050E94E5056093E4047093C2
:10495000E5048093E6049093E7048091E20490914B
:10496000E304892B21F08091E1048111E2C180915F
:10497000E0048111DEC180916201882309F4D9C16C
:104980008091830481110DC00E94E50560937F042E
:1049900070938004809381049093820481E08093DB
:1049A00083048091770481110DC00E94E505609316
:1049B000730470937404809375049093760481E07B
:1049C000809377040E94E50500917F041091800494
:1049D0002091810430918204601B710B820B930B38
:1049E0000091390610913A0620913B0630913C0621
:1049F000061717072807390708F046C00E94E50583
:104A000060937F0470938004809381049093820468
:104A1000409171045091720481E090E0411551057C
:104A200031F04130510509F0F5C284E090E09093F7
:104A3000E3048093E2046091630128EE33E0629F17
:104A4000C001639F900D1124092E000CAA0BBB0B13
:104A50008093390690933A06A0933B06B0933C06A8
:104A60004F5F5F4F433051050CF0ECC2509372041E
:104A7000409371048091E104882321F01092E304B3
:104A80001092E2041092E1040E94E50500917F0477
:104A9000109180042091810430918204601B710B7D
:104AA000820B930B603D77408105910508F0CFC2E2
:104AB0000E94E5050091730410917404209175041F
:104AC00030917604601B710B820B930B6536710578
:104AD0008105910508F42DC10E94E50560937304DA
:104AE0007093740480937504909376048091E2042B
:104AF0009091E304892B79F5CE018D5B9F4F0E9445
:104B00000D1781E090916001911101C080E00E9439
:104B1000B10CAB01BC01C3010E940418AE014D5B96
:104B20005F4FB301CE01875B9F4F0E946614BE01A9
:104B3000675B7F4F88E896E00E943312CE01875B67
:104B40009F4F0E947E12C3010E947E12CE018D5B98
:104B50009F4F0E947E128091E2049091E30401979E
:104B600009F06BC00E94310868EE73E00E94E032E9
:104B7000BC01CE018B5A9F4F0E947A150E943B08C0
:104B8000BC01CE01815B9F4F0E947A150E944308B1
:104B9000BC01CE018D5B9F4F0E947A15BE016D5BFB
:104BA0007F4FCE01875B9F4F0E940014BE01615B67
:104BB0007F4FCE01875B9F4F0E942713BE016B5A28
:104BC0007F4F0E942713BC01CE01855A9F4F0E9440
:104BD0000014C3010E940D17AE01455A5F4FB30187
:104BE000CE018F599F4F0E946614BE016F597F4FAF
:104BF00088E896E00E943312CE018F599F4F0E94A1
:104C00007E12C3010E947E12CE01855A9F4F0E94E0
:104C10007E12CE01875B9F4F0E947E12CE018D5B7C
:104C20009F4F0E947E12CE01815B9F4F0E947E1299
:104C3000CE018B5A9F4F0E947E128091E204909188
:104C4000E304049709F075C081E09091600191112F
:104C500001C080E00E94B10CAB01BC01CE01855ABD
:104C60009F4F0E9404180E94310868EE73E00E9472
:104C7000E032BC01CE01815B9F4F0E947A150E94F9
:104C80003B08BC01CE01875B9F4F0E947A150E94B2
:104C90004308BC01C2010E947A15B201CE018D5BAE
:104CA0009F4F0E940014BE01675B7F4FCE018D5B5A
:104CB0009F4F0E942713BE01615B7F4F0E94271305
:104CC000BC01CE018B5A9F4F0E940014AE01455A81
:104CD0005F4FBE016B5A7F4FCE018F599F4F0E948D
:104CE0006614BE016F597F4F88E896E00E94331228
:104CF000CE018F599F4F0E947E12CE018B5A9F4F3B
:104D00000E947E12CE018D5B9F4F0E947E12C201D7
:104D10000E947E12CE01875B9F4F0E947E12CE01C1
:104D2000815B9F4F0E947E12CE01855A9F4F0E9449
:104D30007E120E94560F8FE696E00E94630886E579
:104D400096E00E9463088DE396E00E9463088091DC
:104D5000E00481117FC11092DF041092DE04809183
:104D60006F0690917006181619060CF07AC281E051
:104D70008093E1041092E9041092E80444E650E0C4
:104D800060E070E088EE93E00E946B030E94E5050E
:104D90006093DA047093DB048093DC049093DD0469
:104DA0008091E2049091E30401968730910509F423
:104DB0007DC19093E3048093E2042091E20430915A
:104DC000E304F901E95CFE4F808190E09093DF04F9
:104DD0008093DE0421503109F901E65BFD4F4081EB
:104DE000442309F42DC2642F6150770BCB01FB01E2
:104DF000ED5CFD4F50815217130609F021C242307D
:104E000009F059C128E1E5E7F1E0D30101900D92E5
:104E10002A95E1F720915A01237021F42DE130E029
:104E20003C832B8340915801E0915901E150FF0BE5
:104E3000EE0FFF1FE60DF71D20813181421713068B
:104E400009F00CF438C18AE090E09093E304809379
:104E5000E20480E090E0892B09F428CB0E94F10164
:104E6000882309F41CCB0E94000019CB81E08093B9
:104E70005E04AACC83E0FBCF85E0F9CF86E0F7CFD4
:104E800088E0F5CF8AE0F3CF8CE0F1CF809132015A
:104E900080935D04D1CC80916F008D7F80936F00F3
:104EA00019CD809170008D7F8093700013CD80911B
:104EB000C5048111A2C030E02F5F3F4F4091350102
:104EC00050913601249FC001259F900D349F900D75
:104ED0001124B1010E94E03289E00E943105209145
:104EE000640130E02F5F3F4F4091CD045091CE04DC
:104EF000249FC001259F900D349F900D1124B10176
:104F00000E94E03286E00E9431052091640130E089
:104F10002F5F3F4F4091CB045091CC04249FC001A0
:104F2000259F900D349F900D1124B1010E94E03215
:104F300083E00E9431058091D604811104CD209137
:104F40006F0430917004C901880F991F820F931F5D
:104F5000FC01EE0FFF1FE15FFD4F409135015091C5
:104F6000360160817181460F571F5093360140937F
:104F70003501FC01EE0FFF1FEF5EFD4F4091CD04A8
:104F80005091CE0460817181460F571F5093CE041B
:104F90004093CD04880F991FFC01ED5EFD4F809179
:104FA000CB049091CC0440815181840F951F909344
:104FB000CC048093CB0480916D0490916E04019693
:104FC00090936E0480936D048F3F910551F42F5F91
:104FD0003F4F3093700420936F0410926E04109230
:104FE0006D0480916F049091700406970CF4ABCC23
:104FF0001092700410926F04A6CC70E060E089E01B
:105000000E94310570E060E086E00E94310570E0AA
:1050100060E08ECF4230510509F022CD1092E304BA
:105020001092E2042091620130E0A0E6BAEE0E9404
:10503000AB316093390670933A0680933B069093A8
:105040003C060ECD109272041092710413CD109292
:10505000C4046FCE0E94E5050091DA041091DB04D0
:105060002091DC043091DD04601B710B820B930BEB
:1050700061367A4E8105910508F471CE1092E004F4
:10508000E091E204F091E304EF59FD4F808190E05C
:105090009093E3048093E204895C9E4FFC0180813D
:1050A00090E09093DF048093DE0459CE1092E304E5
:1050B0001092E20482CE1092E0049093E304809375
:1050C000E204892BA1F40E9431087C010E943B0874
:1050D0008C010E9443089C014091570150E060916F
:1050E000560170E08091550190E00E941606809173
:1050F000E2049091E3040197B1F4E0905A01F12C9D
:105100000091590110E0C0905801D12C0E944B0829
:105110004C010E9453085C010E945B089601A401A7
:10512000B5010E9416068091E2049091E304029773
:10513000C1F460915B0182E090E00E94470F6091B2
:105140005C0183E090E00E94470F60915D0184E084
:1051500090E00E94470F60915E0186E090E00E941F
:10516000470F8091E2049091E304039731F460913A
:105170005F0181E090E00E94470F8091E2049091EE
:10518000E304049731F4609160018BE090E00E94A9
:10519000470F8091E2049091E304049769F4109121
:1051A00061018CE090E00E945331181729F0612FC3
:1051B0008CE090E00E945B318091E2049091E304E6
:1051C000059761F4609162018EE090E00E94470FC4
:1051D000609163018FE090E00E94470F8091E204AC
:1051E0009091E304069731F46091640180E190E0CE
:1051F0000E94470F60E085E00E9401030E94310891
:105200007C010E943B08082F0E944308C82E0E9480
:105210004B08D82E0E945308182F0E945B08382F85
:10522000C70168EE73E00E94E032E82E2C2D4D2D70
:10523000612F832F0E94740B61E085E00E940103BF
:105240000091E2041091E3040331110551F08091C3
:10525000DE049091DF040E941315F801E25BFE4F1B
:10526000808380916F069091700697FF8EC044E610
:1052700050E060E070E088EE93E00E946B03809164
:10528000E004811155C00091E2041091E3040E94F2
:10529000E5056093DA047093DB048093DC0490935B
:1052A000DD04012B09F044C00E944B08BC01C3017E
:1052B0000E947A150E945308BC01CE018D5B9F4F5E
:1052C0000E947A150E945B08BC01CE01815B9F4F52
:1052D0000E947A15BE01615B7F4FCE01875B9F4FB5
:1052E0000E940014BE016D5B7F4FCE01875B9F4F14
:1052F0000E942713B3010E94271365EA72E00E94FF
:105300001113BC0188E896E00E94E913CE01875B87
:105310009F4F0E947E12CE01815B9F4F0E947E12A2
:10532000CE018D5B9F4F0E947E12C3010E947E12B0
:10533000E091E204F091E304EF59FD4F008110E0A9
:105340001093E3040093E2040D30110531F481E081
:1053500080935E0180E88093D9048091E00491E01D
:1053600089278093E004F801E95CFE4F808190E09A
:105370009093DF048093DE040231110531F00E9426
:105380001315F801E25BFE4F8083809156069091E1
:105390005706009719F19093D8048093D7041816F4
:1053A0001906E4F481E08093E1041092E90410927C
:1053B000E80444E650E060E070E088EE93E00E948C
:1053C0006B030E94CD168091E004811107C01092FA
:1053D000D60460E087E090E00E94470F8091D704F8
:1053E0009091D804019609F001C180915806882354
:1053F00009F4FCC01092D5048091E0048823F9F0F0
:105400000E94E5050091D1041091D2042091D304AB
:105410003091D404601B710B820B930B67397105BB
:105420008105910560F00E94E5056093D1047093B9
:10543000D2048093D3049093D4040E94CD1680911B
:105440003D0690913E060097A9F19093D004809379
:10545000CF041816190674F511E01093E1041092A8
:10546000E9041092E80444E650E060E070E088EE61
:1054700093E00E946B030E948D168091E0048111DD
:1054800019C01093D60461E087E090E00E94470FB6
:105490006091350188E090E00E94470F6091CD0453
:1054A00089E090E00E94470F6091CB048AE090E091
:1054B0000E94470F8091CF049091D004019609F08B
:1054C00099C080913F06882309F494C08091E0043C
:1054D0001092CA04882321F10E94E5050091C604B8
:1054E0001091C7042091C8043091C904601B710B4E
:1054F000820B930B673971058105910508F453C040
:105500000E94E5056093C6047093C7048093C804A5
:105510009093C9040E948D168091E004811143C0CC
:10552000809156069091570697FF28C044E650E0B8
:1055300060E070E088EE93E00E946B0381E080936E
:10554000340161E090E080E00E94470F88E090E045
:105550000E94490F682F89E00E94010389E090E0D2
:105560000E94490F682F86E00E9401038AE090E0C4
:105570000E94490F682F83E00E94010380913D063D
:1055800090913E0697FF0FC044E650E060E070E067
:1055900088EE93E00E946B031092340160E090E08B
:1055A00080E00E94470FE091E204F091E304E731CC
:1055B000F10508F04ECCE152F54D0C943533FE2A3E
:1055C000762B512CA02CDE2C592D142E292729277F
:1055D000292729272927292729272927292729274B
:1055E0002927DE2C212D592D592D142E81E0809351
:1055F000D50425CF81E08093CA048ECF1092C504D4
:105600008091C404811129C00E94E50500918B049A
:1056100010918C0420918D0430918E04601B710BCD
:10562000820B930B633371058105910508F44FC01C
:105630000E94E50560938B0470938C0480938D0425
:1056400090938E04C2010E940D17B20188E896E083
:105650000E943312C2010E947E1280919404811133
:105660000DC00E94E50560939004709391048093AF
:1056700092049093930481E0809394040E94E50542
:105680000091900410919104209192043091930420
:10569000601B710B820B930B693E73408105910572
:1056A000F0F00E94E505609390047093910480935C
:1056B00092049093930480918F0491E089278093C2
:1056C0008F04882351F080EC8093D90408C068E8E7
:1056D00076E0C2010E940014B8CF1092D9040E9453
:1056E000710E1092C3041092C204B3CB8091C40413
:1056F0008111D5C08091AE0481110DC00E94E505D5
:105700006093AA047093AB048093AC049093AD04AF
:1057100081E08093AE048091A204811147C00E9471
:10572000310868EE73E00E94E032BC01C2010E94C1
:105730007A150E943B08BC01CE018D5B9F4F0E94F1
:105740007A150E944308BC01CE01815B9F4F0E94E5
:105750007A15BE01615B7F4FCE01875B9F4F0E9430
:105760000014BE016D5B7F4FCE01875B9F4F0E948F
:105770002713B2010E942713BC018CE994E00E9418
:10578000001481E08093A204CE01875B9F4F0E94AA
:105790007E12CE01815B9F4F0E947E12CE018D5BF7
:1057A0009F4F0E947E12C2010E947E120E94E50558
:1057B0000091AA041091AB042091AC043091AD0487
:1057C000601B710B820B930B693E73408105910541
:1057D00008F458C00E94E5056093AA047093AB04D6
:1057E0008093AC049093AD040E9431087C010E9428
:1057F0003B08BC01CE018D5B9F4F0E947A150E9431
:105800004308BC01CE01815B9F4F0E947A15BE0107
:10581000615B7F4FCE01875B9F4F0E940014BE01EA
:105820006D5B7F4FCE01875B9F4F0E9427138C01DA
:105830004AE0B201C7010E94C32FF201019000208B
:10584000E9F73197AF0144195509B201C8010E9427
:10585000AE12811103C0C8010E946C12B8018CE91C
:1058600094E00E94E913CE01875B9F4F0E947E1255
:10587000CE01815B9F4F0E947E12CE018D5B9F4FB8
:105880000E947E126CE974E0C2010E940014B20111
:1058900088E896E00E943312C2010E947E1280E8DE
:1058A00013CF60915D0170E0C3010E947A15609191
:1058B0005C0170E0CE018D5B9F4F0E947A15609174
:1058C0005B0170E0CE01815B9F4F0E947A15BE01A3
:1058D000615B7F4FCE01875B9F4F0E940014BE012A
:1058E0006D5B7F4FCE01875B9F4F0E942713B301F3
:1058F0000E94271365EA72E00E941113BC0188E838
:1059000096E00E94E913CE01875B9F4F0E947E12B2
:10591000CE01815B9F4F0E947E12CE018D5B9F4F17
:105920000E947E12C3010E947E1280915E0181302E
:1059300009F041C080E88093D9040E94710E89CAA1
:1059400080915F0125961FAE1EAE259727961FAE4C
:105950001EAE279729961FAE1EAE29974AE0B301C7
:1059600090E00E940530B301CE018D5B9F4F0E94F5
:10597000861365EA72E0C3010E940914BE016D5BE3
:105980007F4FC3010E94271363EA72E00E94111344
:10599000BC0188E896E00E94E913C3010E947E12D0
:1059A000CE018D5B9F4F0E947E128FEC90E0909312
:1059B000C3048093C2041092D904BFCF8091C40461
:1059C000811122C081E090916001911101C080E0BD
:1059D0000E94B10CAB01BC01C2010E940418B201CB
:1059E00088E896E00E943312C2010E947E128091E4
:1059F000600181111EC087EC90E09093C3048093F6
:105A0000C20480E88093D90481E0909160019111F3
:105A100001C080E00E94B10C1091D90420E030E078
:105A2000A9010E942F3087FF42C01F771093D9042D
:105A300010CA8FE890E09093C3048093C20480EC76
:105A4000E1CF81E090916001911101C080E00E945E
:105A5000B10CAB01BC01C3010E940418B30188E87A
:105A600096E00E943312C3010E947E129091600161
:105A7000911111C027E030E03093C3042093C20499
:105A800080E88093D90423E030E03093DF04209352
:105A9000DE0481E0BCCF23E830E03093C3042093E0
:105AA000C20480EC8093D90420E330E0EECF10688C
:105AB000BDCF1092C3041092C2040E94E505645D3C
:105AC0007E4F8F4F9F4F28EE33E040E050E00E9422
:105AD000F43224E630E040E050E00E94F432BA01B3
