:020000040000FA
:100000000C9484000C94AC000C94AC000C94AC00E8
:100010000C94AC000C94AC000C94AC000C94E41A5E
:100020000C94AC000C94AC000C94AC000C94331BFE
:100030000C94AC000C94AC000C948E1B0C94AC0093
:100040000C949A1A0C94AC000C94681A0C94421AF2
:100050000C94AC000C94AC000C94AC000C94AC0070
:100060000C94E91B0C94AC0057616B652075702CE7
:10007000204E656F2100000000080002010000030F
:100080000407000000000000000000000000250040
:1000900028002B0002010000000000240027002A95
:1000A000004661756C74792044533332333121003A
:1000B0004669726D776172653A2000496E636F72AE
:1000C0007265637420536F6E6720466F726D617442
:1000D000210000000000230026002900040404047D
:1000E00004040404020202020202030303030303E2
:1000F00001020408102040800102040810200102BF
:1001000004081020411DF42E11241FBECFEFD8E0AB
:10011000DEBFCDBF13E0A0E0B1E0E2E8F9E602C047
:1001200005900D92A43BB107D9F726E0A4EBB3E00C
:1001300001C01D92A53CB207E1F710E0C3E8D0E092
:1001400004C02197FE010E94BE33C238D107C9F70F
:100150000E94E31D0C94B4340C9400008091AD0611
:10016000E091AE06F091AF06F8949181282F20958A
:100170009223918378943DE743E050E0315029F198
:10018000DA011197F1F790819823C1F3F8949281E5
:10019000922392839181982B91837894ABE7B7E077
:1001A0001197F1F7F894918192239183A3E1B1E043
:1001B0001197F1F79081982381E009F080E078941D
:1001C000E3E6F6E03197F1F7089580E00895909125
:1001D000AD06E091AE06F091AF06292F209580FF85
:1001E00014C0F8948281822382838181892B818348
:1001F000A3E2B0E01197F1F78281982B9283789473
:1002000087ED90E00197F1F70895F89482818223B9
:1002100082838181892B8183AFEFB0E01197F1F761
:100220008281982B928378948FE090E0EBCF0F93AC
:100230001F93CF93DF93082FC8E0D0E011E081E057
:10024000902F912309F480E00E94E700110F21977D
:10025000B1F7F894E091AE06F091AF0691818091EC
:10026000AD06809598239183E091AE06F091AF069C
:100270009281892382837894DF91CF911F910F918E
:1002800008958091AD06E091AE06F091AF06F89426
:100290009181982B91832281382F309523232283BB
:1002A000A7E0B0E01197F1F7918193239183A3E246
:1002B000B0E01197F1F790817894EFECF0E031978E
:1002C000F1F7982381E009F480E008950F931F93DC
:1002D000CF93DF9308E010E0C0E0D1E00E9441013D
:1002E0008111CD2BDD0F01501109C1F78C2FDF914A
:1002F000CF911F910F9108958CBD9DBD08950895D4
:1003000008950895AF92BF92CF92DF92EF92FF923D
:100310000F931F93CF93DF936C017B018B01040F2D
:10032000151FEB015E01AE18BF08C017D10759F0C9
:100330006991D601ED91FC910190F081E02DC6010B
:100340000995892B79F7C501DF91CF911F910F9105
:10035000FF90EF90DF90CF90BF90AF900895FC0199
:10036000538D448D252F30E0842F90E0821B930B1A
:10037000541710F0CF96089501970895FC01918DC0
:10038000828D981761F0A28DAE0FBF2FB11D5D96C3
:100390008C91928D9F5F9F73928F90E008958FEF65
:1003A0009FEF0895FC01918D828D981731F0828D19
:1003B000E80FF11D858D90E008958FEF9FEF089570
:1003C000FC01918D228D892F90E0805C9F4F821BD4
:1003D00091098F739927089589EA95E00E94E001B9
:1003E00021E0892B09F420E0822F089580E090E03D
:1003F000892B29F00E94EC0181110C9400000895D2
:10040000FC01A48DA80FB92FB11DA35ABF4F2C9189
:10041000848D90E001968F739927848FA689B78980
:100420002C93A089B1898C91837080648C93938D77
:10043000848D981306C00288F389E02D80818F7D1A
:1004400080830895EF92FF920F931F93CF93DF93D2
:10045000EC0181E0888F9B8D8C8D98131AC0E88900
:10046000F989808185FF15C09FB7F894EE89FF89CF
:100470006083E889F98980818370806480839FBF6D
:1004800081E090E0DF91CF911F910F91FF90EF906D
:100490000895F62E0B8D10E00F5F1F4F0F7311277D
:1004A000E02E8C8D8E110CC00FB607FCFACFE889B8
:1004B000F989808185FFF5CFCE010E940002F1CF3E
:1004C000EB8DEC0FFD2FF11DE35AFF4FF0829FB72C
:1004D000F8940B8FEA89FB8980818062CFCF0F93DC
:1004E0001F93CF93DF938C01D0E0C0E0F801EC0FB5
:1004F000FD1F6491662341F089EA95E00E94220283
:10050000892B11F02196F2CFCE01DF91CF911F916F
:100510000F910895CF93DF93EC01888D8823B9F074
:10052000AA89BB89E889F9898C9185FD03C08081FE
:1005300086FD0DC00FB607FCF7CF8C9185FFF2CF7B
:10054000808185FFEDCFCE010E940002E9CFDF91CF
:10055000CF910895833081F028F4813099F0823072
:10056000A9F008958730A9F08830C9F08430B1F43B
:10057000809180008F7D03C0809180008F77809371
:100580008000089584B58F7784BD089584B58F7DEC
:10059000FBCF8091B0008F778093B0000895809159
:1005A000B0008F7DF9CFCF93DF93282F30E0F90192
:1005B000EA58FF4F8491F901E051FF4FD491F901BE
:1005C000E452FF4FC491CC23A1F081110E94AA02F2
:1005D000EC2FF0E0EE0FFF1FEE52FF4FA591B4910C
:1005E000EC91ED2381E090E009F480E0DF91CF9180
:1005F000089580E090E0FACF1F93CF93DF93282FE8
:1006000030E0F901EA58FF4F8491F901E051FF4FC2
:10061000D491F901E452FF4FC491CC23A9F0162FD5
:1006200081110E94AA02EC2FF0E0EE0FFF1FE657A7
:10063000FF4FA591B4918FB7F894EC91111108C0B8
:10064000D095DE23DC938FBFDF91CF911F9108956A
:10065000DE2BF8CFCF93DF9390E0FC01E051FF4F0A
:10066000249184529F4FFC0184918823C9F090E02B
:10067000880F991FFC01E956FF4FA591B491FC0129
:10068000E657FF4FC591D49161110DC09FB7F89403
:100690008C91209582238C938881282328839FBF67
:1006A000DF91CF910895623051F49FB7F8943C9157
:1006B000822F809583238C93E8812E2BEFCF8FB7E9
:1006C000F894EC912E2B2C938FBFEACF4F925F9230
:1006D0006F927F928F929F92AF92BF92CF92DF9252
:1006E000EF92FF920F931F93CF93DF9300D000D030
:1006F0001F92CDB7DEB72091A80527FD2CC14983F5
:100700005A836B837C838C0161E08091A7050E94F2
:100710002A038091A8058D834801B12CA12C8D7FDF
:1007200009F031C160E072E18AE790E0A50198012B
:100730000E949F3329013A017A01690191E0C91AA7
:10074000D108E108F108AFEFCA16D104E104F104C1
:1007500009F00CF4C7C060E472E48FE090E0A501FA
:1007600098010E949F3369017A01B1E0CB1AD10848
:10077000E108F1088D81823009F06AC082E09FEFC4
:10078000C916D104E104F10409F00CF45EC160E97A
:1007900070ED83E090E0A50198010E949F3369010C
:1007A0007A01A1E0CA1AD108E108F10883E0BFEF9D
:1007B000CB16D104E104F10409F00CF446C168E45D
:1007C00078EE81E090E0A50198010E949F336901D5
:1007D0007A0181E0C81AD108E108F10884E09FEFAE
:1007E000C916D104E104F10409F00CF42EC164E24D
:1007F00074EF80E090E0A50194010E949F336901AD
:100800007A01B1E0CB1AD108E108F10885E09FEF49
:10081000C916D104E104F10409F008F416C162E13B
:100820007AE780E090E0A50194010E949F3369017E
:100830007A01B1E0CB1AD108E108F1088FEFC816B0
:10084000D104E104F10411F008F0F0C086E0FDC02D
:100850008FEFC816D104E104F10409F00CF491C043
:1008600068E478EE81E090E0A50198010E949F3352
:1008700069017A0191E0C91AD108E108F108AD8156
:1008800084E0A111C4CF83E0AFEFCA16D104E10424
:10089000F10461F15CF162E17AE780E090E0A501AA
:1008A00094010E949F3369017A0181E0C81AD1083E
:1008B000E108F10884E09FEFC916D104E104F104D6
:1008C000A9F0A0F0730162019AE0F594E794D7943F
:1008D000C7949A95D1F7A1E0CA1AD108E108F108A6
:1008E00085E004C081E0AD81A111AFC095B5987FCE
:1008F000892B85BD89819A81AB81BC812FEF3FEF28
:10090000A901892B8A2B8B2B79F0D801AA0FBB1F49
:1009100029813A814B815C810E94F23128EE33E0DB
:1009200040E050E00E947D339D81913009F45CC02D
:10093000923009F46BC091110EC0C7BC2093A3057F
:100940003093A4054093A5055093A60580916E00B1
:10095000826080936E000F900F900F900F900F9019
:10096000DF91CF911F910F91FF90EF90DF90CF908B
:10097000BF90AF909F908F907F906F905F904F90BF
:10098000089582E0B0CF60E072E18AE790E0A501CF
:1009900098010E949F3369017A01B1E0CB1AD10816
:1009A000E108F10891E0C114D10481E0E806F10406
:1009B00084F068E478EE81E090E0A50198010E945F
:1009C0009F3369017A0191E0C91AD108E108F10861
:1009D00093E0AD81A13009F08DCF80918100887FB7
:1009E000892B8093810086CFD0928900C0928800A5
:1009F00020939F053093A0054093A1055093A20535
:100A000080916F00826080936F00A5CFC092B30089
:100A100020939B0530939C0540939D0550939E0524
:100A20008091700082608093700095CF73016201A5
:100A30008AE0F594E794D794C7948A95D1F7B1E00A
:100A4000CB1AD108E108F10887E09091B100987FB6
:100A5000892B8093B1004ECF1F93CF93DF93182F34
:100A6000EB0161E00E942A03209739F460E0812FB6
:100A7000DF91CF911F910C94FC02CF3FD10511F46F
:100A800061E0F5CFE12FF0E0EA58FF4FE491E33069
:100A900031F140F4E130B1F0E230E1F0C038D1059D
:100AA0007CF7E4CFE73029F1E83059F1E430B1F7D1
:100AB00080918000806280938000D0938B00C093EF
:100AC0008A0004C084B5806884BDC7BDDF91CF9122
:100AD0001F91089584B5806284BDC8BDF7CF809111
:100AE0008000806880938000D0938900C093880044
:100AF000EDCF8091B00080688093B000C093B300C8
:100B0000E5CF8091B00080628093B000C093B400C4
:100B1000DDCF3FB7F89480914E0490914F04A0919F
:100B20005004B091510426B5A89B05C02F3F19F081
:100B30000196A11DB11D3FBFBA2FA92F982F88275D
:100B4000BC01CD01620F711D811D911D42E0660F38
:100B5000771F881F991F4A95D1F708958F929F920A
:100B6000AF92BF92CF92DF92EF92FF924B015C0166
:100B70000E9489056B017C010E9489056C197D0921
:100B80008E099F09683E734081059105A8F321E015
:100B9000821A9108A108B10888EEC80E83E0D81E19
:100BA000E11CF11C81149104A104B10429F7FF9008
:100BB000EF90DF90CF90BF90AF909F908F9008956F
:100BC0002FB7F89460914A0470914B0480914C04C3
:100BD00090914D042FBF089560933E0470933F049D
:100BE0008093400490934104645D7E4F8F4F9F4FEC
:100BF00060933A0470933B0480933C0490933D04CB
:100C000082E090E090933904809338040E94E005DC
:100C100060933404709335048093360490933704C2
:100C200008952F923F924F925F926F927F928F9290
:100C30009F92AF92BF92CF92DF92EF92FF920F936B
:100C40001F93CF93DF93382E962E842E222E84E688
:100C5000E816F1040CF459C092EBE91A97E0F90A8E
:100C6000E0924804009347042092460430924404E2
:100C70009092430480924204AE2DB0E020E833E32A
:100C800041EE51E00E94F2312B013C0122EB37E0B2
:100C9000FF24E4E6F0E0C0E9D1E0C901825B9740BF
:100CA0008E159F05B4F19EE4E91A98EFF90AC70181
:100CB00064E670E00E9469336C01C70160E971E08D
:100CC0000E9469335C01CBEBD1E0E1E0F0E0112759
:100CD00083E0E822FF24E017F1070CF042C0E23085
:100CE000F10591F5E114F10479F5C114D10419F479
:100CF000A114B10449F580E8480E8BE3581E86E242
:100D0000681E711C31962196E6CF8EE1E80EF11C2B
:100D1000A7CFC90183709927892B99F4C901BF0115
:100D20000E946933892B31F4C901BE010E946933E5
:100D3000892B39F490E8490E91E5591E91E0691E1E
:100D4000711C2F5F3F4FA9CFA881B0E020E831E5AB
:100D500041E050E00E94F231460E571E681E791E97
:100D6000D1CF292D30E0ACE3B0E00E9434326B01EA
:100D70007C01C80CD11CE11CF11C232D30E0A0E14A
:100D8000BEE00E943432C60ED71EE81EF91E822D28
:100D90008150990BDC0120E831E541E050E00E94F0
:100DA000CB336C0D7D1D8E1D9F1D640D751D861D25
:100DB000971DDF91CF911F910F91FF90EF90DF90E2
:100DC000CF90BF90AF909F908F907F906F905F90EB
:100DD0004F903F902F900C94EC05CF92DF92EF92C2
:100DE000FF920F931F930E94E0058B019C01C0901E
:100DF0003404D0903504E0903604F09037046091CC
:100E00003E0470913F0480914004909141040C197C
:100E10001D092E093F09083E134021053105E0F068
:100E2000DC01CB010196A11DB11D80933E0490937E
:100E30003F04A0934004B0934104B701A601485178
:100E40005C4F6F4F7F4F4093340450933504609351
:100E5000360470933704C7CF1F910F91FF90EF9026
:100E6000DF90CF9008954F925F926F927F928F9212
:100E70009F92AF92BF92CF92DF92EF92FF920F9329
:100E80001F93CF93DF934B015C01809130049091CD
:100E90003104A0913204B091330488159905AA0554
:100EA000BB0509F4C6C08CE3C82ED12CE12CF12C73
:100EB000C501A70196010E947D3360934204CA01D7
:100EC000B901A70196010E947D3360934304C501D7
:100ED000B40120E13EE040E050E00E947D33CA01D1
:100EE000B90128E130E040E050E00E947D3360939A
:100EF0004404C501B40120E831E541E050E00E941E
:100F00007D3369017A01CA01B9016C5F7F4F8F4F50
:100F10009F4F27E030E040E050E00E947D336F5F5C
:100F200060934504412C512C320140E004E610E06E
:100F3000C0E9D1E0242F30E02E54384FF901E3709E
:100F4000FF273097F9F4C901B8010E946933892B52
:100F500031F4C901BE010E946933892B99F48EE6F0
:100F600091E0A0E0B0E0480E591E6A1E7B1ED3013E
:100F7000C201AA27BB27C816D906EA06FB0638F025
:100F80004F5FD8CF8DE691E0A0E0B0E0ECCF40938A
:100F90004804C90164E670E00E946933EC01C901AC
:100FA00060E971E00E946933309721F42097D9F409
:100FB0000097C9F04DE651E060E070E0441A550A30
:100FC000660A770AC418D508E608F708ABEBB1E063
:100FD00020E0213069F43097E9F5209711F400976B
:100FE000C9F54DE106C04EE651E060E070E0E6CFA5
:100FF0004C9150E070E060E031E0320FC416D5064D
:10100000E606F70640F0C41AD50AE60AF70A119672
:10101000232F3C30F1F62F5F20934704C394C092F6
:1010200046048092300490923104A0923204B0922F
:101030003304DF91CF911F910F91FF90EF90DF90DC
:10104000CF90BF90AF909F908F907F906F905F9068
:101050004F9008954CE1CDCF0E94ED060E943307DA
:101060008091480490E08E54984F08950E94ED06B8
:101070000E9433078091470490E008950E94ED0696
:101080000E9433078091460490E008950E94ED0687
:101090000E9433078091420490E008950E94ED067B
:1010A0000E9433078091430490E008950E94ED066A
:1010B0000E9433078091440490E00895CF92DF921C
:1010C000EF92FF92CF93DF93EC010E94E0056B015A
:1010D0007C018F850E94D3029C0181E0211531059E
:1010E00009F480E0898B8889811105C091E0232B68
:1010F00009F090E0998B29898A89281721F0CD8AF7
:10110000DE8AEF8AF88E8D899E89AF89B88DB70106
:10111000A601481B590B6A0B7B0BDB01CA01CB8074
:10112000DC80ED80FE80C816D906EA06FB0664F472
:101130003A81231749F02A83222349F04B895C899D
:101140004F5F5F4F5C8B4B8B3A81311117C0CF8063
:10115000D884E984FA84C816D906EA06FB0634F472
:101160008B899C89998388831C8A1B8A2A8BDF91AF
:10117000CF91FF90EF90DF90CF900895CB84DC84E7
:10118000ED84FE84C816D906EA06FB067CF78B8937
:101190009C89919581959109E5CF20910D04260FA9
:1011A0003327331F21323105ECF420915605FC0121
:1011B00090E080E0243069F082E00895A0910D0471
:1011C0002191AC0143515C4FA40FB52FB11D2C935D
:1011D0000196861798F380910D04680F60930D04B3
:1011E00080E0089581E008951092560581E0809393
:1011F00055051092300561E082E10E94FC0261E039
:1012000083E10E94FC02E9EBF0E080818E7F808325
:1012100080818D7F808388E48093B80085E480930B
:10122000BC000895CF93DF9391E09093EC03882363
:10123000B9F0C091B800D091BA008091BC008A7B0F
:101240008093BC0060E082E10E94FC0260E083E1E8
:101250000E94FC020E94F408D093BA00C093B80028
:10126000DF91CF9108958F929F92AF92BF92CF92CC
:10127000DF92EF92FF920F931F93CF93DF93D09162
:101280007F05D13208F0D7C0182FC0917E050E948B
:1012900089056B017C018091560581116BC082E04C
:1012A00080935605109355058FEF80935405109247
:1012B0005305D0935205AEE5B5E0E2E3F5E080E0FA
:1012C000D81391C01092310580913105CC0FC82BF5
:1012D000C093310580913005813009F088C01092AB
:1012E00030050E9489056B017C0180913105809356
:1012F000BB008091580590915905A0915A05B09175
:101300005B05892B8A2B8B2BA1F00E94890500910C
:1013100058051091590520915A0530915B056C19BB
:101320007D098E099F09061717072807390708F452
:1013300042C08091BC0083FDD8CF85EC8093BC0077
:101340000E9489056B017C0180915605823009F469
:1013500050C0809154058F3F09F46FC080915405AF
:10136000803209F46CC080915405803309F469C05F
:1013700084E026C08091580590915905A0915A05A6
:10138000B0915B05892B8A2B8B2B09F484CF0E94AB
:1013900089058090580590905905A0905A05B09005
:1013A0005B056C197D098E099F0986169706A806AC
:1013B000B90608F070CF809157050E94120985E0A8
:1013C00010925D0510927F0510925C05DF91CF9120
:1013D0001F910F91FF90EF90DF90CF90BF90AF9053
:1013E0009F908F9008959D9191938F5F69CF85EE27
:1013F000A5CF8091580590915905A0915A05B091BB
:101400005B05892B8A2B8B2B09F49ECF0E948905C3
:10141000009158051091590520915A0530915B05AE
:101420006C197D098E099F090617170728073907C8
:1014300008F08ACFC0CF81E0C3CF80E0C1CF82E087
:10144000BFCF83E0BDCFCF92DF92EF92FF920F9399
:101450001F93CF93DF93D82FC62F613208F098C027
:101460000E9489056B017C018091560581116BC03A
:1014700081E080935605809355059FEF9093540526
:10148000109253059C0F90935205809331058091E3
:101490003105DD0FD82BD093310580913005813097
:1014A00009F078C0109230050E9489056B017C011B
:1014B000809131058093BB0080915805909159052A
:1014C000A0915A05B0915B05892B8A2B8B2BA1F03B
:1014D0000E948905009158051091590520915A05DF
:1014E00030915B056C197D098E099F090617170756
:1014F0002807390708F448C08091BC0083FDD8CF85
:1015000085EC8093BC000E9489056B017C01809171
:101510005605813009F440C0809153058C1710F4B2
:10152000C0915305E2E3F5E0A0E1B5E080E08C1363
:1015300055C08C2FDF91CF911F910F91FF90EF90AD
:10154000DF90CF9008958091580590915905A09112
:101550005A05B0915B05892B8A2B8B2B09F484CF1C
:101560000E948905009158051091590520915A054E
:1015700030915B056C197D098E099F0906171707C5
:101580002807390708F070CF809157050E9412098B
:10159000C0E0CFCF85EEB5CF809158059091590529
:1015A000A0915A05B0915B05892B8A2B8B2B09F4EE
:1015B000AECF0E94890500915805109159052091E0
:1015C0005A0530915B056C197D098E099F09061734
:1015D00017072807390708F09ACFD6CF91919D9326
:1015E0008F5FA5CF0895E091630480916204E817AE
:1015F00030F4F0E0E05FFA4F808190E008958FEFE3
:101600009FEF089590916304809162042FEF3FEF64
:10161000981748F4E92FF0E0E05FFA4F208130E0BE
:101620009F5F90936304C901089580916204909133
:101630006304891B990B0895CF92DF92EF92FF927A
:101640000F931F93CF93DF937C01CB018A012091ED
:101650005C05222389F0EB016B01C40ED51ECC156D
:10166000DD0569F06991D701ED91FC910190F08160
:10167000E02DC7010995F3CF642F0E94CD08C80162
:10168000DF91CF911F910F91FF90EF90DF90CF905E
:101690000895CF93DF931F92CDB7DEB76983209172
:1016A0005C052223F9F020917F05203258F021E0DB
:1016B00030E0FC013383228390E080E00F90DF91E3
:1016C000CF91089580915D05E82FF0E0E25AFA4F3E
:1016D000998190838F5F80935D0580937F0581E082
:1016E00090E0ECCF61E0CE0101960E94CD08F7CFEB
:1016F000DF92EF92FF920F931F93CF93DF93182FF8
:10170000F62ED42ED22F81E080935C0588E680935C
:101710007E0510925D0510927F0560E086E496E0FC
:101720000E94490BCAE08D2D6C2F0E945D3382957B
:10173000807F682F690F86E496E00E94490B8F2D09
:101740006C2F0E945D338295807F682F690F86E43D
:1017500096E00E94490B812F6C2F0E945D33829589
:10176000807F682F690F86E496E00E94490B61E054
:1017700086E496E00E94490B8D2F6C2F0E945D330A
:101780008295807F682F690F86E496E00E94490B5E
:10179000802F6C2F0E945D338295807F682F690FA8
:1017A00086E496E00E94490B8E2D6C2F0E945D33DB
:1017B0008295807F682F690F86E496E00E94490B2E
:1017C00060E086E496E00E94490B81E0DF91CF91D2
:1017D0001F910F91FF90EF90DF900C94330990E0F0
:1017E00080E008954091EA035091EB032091E803D3
:1017F0003091E90380E09CE34217530711F48FEF27
:101800009FEF4F5F5F4F4330510529F05093EB033B
:101810004093EA0308951092EB031092EA032F5FBE
:101820003F4F2330310529F03093E9032093E8033B
:1018300008951092E9031092E80308952091DB04C3
:101840003091DC0402C0359527958A95E2F720FF98
:1018500003C080E09CE308958FEF9FEF0895CF923F
:10186000DF92EF92FF920F931F93CF93DF939091AC
:10187000EE0491110BC08FEF9FEFDF91CF911F917D
:101880000F91FF90EF90DF90CF9008959091E30437
:10189000992389F3082FC091F704D091F80480911F
:1018A000E00381110DC00E94E0056093DC0370939A
:1018B000DD038093DE039093DF0381E08093E003F8
:1018C0000E94E005C090DC03D090DD03E090DE03D1
:1018D000F090DF036C197D098E099F096D3271400C
:1018E00081059105B0F01091DB030E94E005609343
:1018F000DC037093DD038093DE039093DF0391E0BC
:1019000091279093DB03992331F11092DA0310921F
:10191000D9032091D9033091DA0320953095809135
:10192000F204282326FF1CC081E08093D80327FF00
:101930001AC081E08093D7038091DB03882309F4E8
:101940009ACF02C0D595C7950A95E2F7C0FF93CF0D
:1019500080E09CE392CFD093DA03C093D903D9CF30
:101960001092D803E4CF1092D703E6CFCF92DF9244
:10197000EF92FF921F93CF93DF939091800599236D
:1019800009F48EC0C091D103D091D203C830D105E3
:1019900080F4182FFE01E153F34F0C94BE33D70CA3
:1019A000F20CF60CD70CF20CF80CFA0CFF0C0E949F
:1019B000AE002196C830D10509F46DC0D093D20392
:1019C000C093D1036091CB037091CC038091CD0380
:1019D0009091CE03DF91CF911F91FF90EF90DF9018
:1019E000CF9008958CEC0E941701E3CF84E4FBCFE5
:1019F0008EEBF9CF0E9466018093CF03DACF0E946D
:101A000066018093D0036091CF03782F6F3F7607F4
:101A100011F470E060E0072E000C880B990B0E9417
:101A2000BF3020E030E040E85DE30E941E316B01F2
:101A30007C016091770170917801072E000C880B72
:101A4000990B0E94BF3020E030E040E251E40E9458
:101A5000B032A70196010E94443211110FC020E05C
:101A600030E040E251E40E941E316093CB0370935A
:101A7000CC038093CD039093CE039BCF26E636E62E
:101A800046EE5FE30E941E3120E030E040E052E489
:101A90000E944432E4CF1092D2031092D10392CF2D
:101AA00060E070E0CB0196CFCF93DF93EC012196FD
:101AB000FC0120812A33C9F42181243609F52296BC
:101AC00030E020E06AE0899190ED980F9A3078F448
:101AD000629FA001639F500D1124082E000C990BEA
:101AE000C0979A01280F391FEECFCE01DFCF309378
:101AF0007F0420937E042115310511F020933401D9
:101B000088818F3689F48A81082E000C990B9C01FC
:101B10002053310930937F0420937E04C3970597A7
:101B200010F420933301249688818236F1F42296B2
:101B300030E020E06AE0899190ED980F9A3068F4E7
:101B4000629FA001639F500D1124082E000C990B79
:101B5000C0979A01280F391FEECF30937F0420934E
:101B60007E04309301012093000120910001309107
:101B70000101032E000C440B550B60E67AEE80E069
:101B800090E00E949F3382E0220F331F441F551FB5
:101B90008A95D1F720937A0430937B0440937C0498
:101BA00050937D04CE01DF91CF9108958EBD00004A
:101BB0000DB407FEFDCF8EB50895CF9381E08093DD
:101BC0005C0588E680937E0510925D0510927F0586
:101BD00060E086E496E00E94490B81E00E943309B0
:101BE00067E088E60E94230A1092630480936204EF
:101BF00086E496E00E94020B982F92959F70CAE0AF
:101C00008F709C9F800D112490E090930805809325
:101C1000070586E496E00E94020B982F92959F702C
:101C20008F709C9F800D112490E090930605809307
:101C3000050586E496E00E94020B982F929593701A
:101C40008F709C9F800D112490E0909304058093E9
:101C5000030586E496E00E94020B86E496E00E946B
:101C6000020B982F92959F708F709C9F800D11246E
:101C700090E090930A058093090586E496E00E941F
:101C8000020B982F92959F708F709C9F800D11244E
:101C900090E090930C0580930B0586E496E00E94FB
:101CA000020B982F92959F708F709C9F800D11242E
:101CB00090E090930E0580930D05CF910895FC015F
:101CC00001900020E9F73197AF01481B590BBC0187
:101CD00089EA95E00C948201CF93DF930E946F0212
:101CE000EC0186EB92E00E945F0E8C0F9D1FDF914E
:101CF000CF9108950F931F9380917101909172017C
:101D0000892B09F44DC08091BA038823A9F00E9461
:101D1000E0050091B6031091B7032091B80330910C
:101D2000B903601B710B820B930B693E73408105F5
:101D30009105B0F11092BA030E94560820916B01F0
:101D400030916C018217930759F50E944E0820913B
:101D50006D0130916E018217930711F50E944608BC
:101D600020916F013091700182179307C9F40E948E
:101D7000E0056093B6037093B7038093B803909324
:101D8000B90381E08093BA0388E690E00E946C0E6C
:101D900080910301909104019093020580930105C5
:101DA0001F910F9108950C94E4310C94DC31FC01E7
:101DB00080819181009711F00C94253060E070E0F3
:101DC000CB0108952F923F924F925F926F927F9234
:101DD0008F929F92AF92BF92CF92DF92EF92FF923B
:101DE0001F93CF93DF93CDB7DEB72C970FB6F89440
:101DF000DEBF0FBECDBF0E948905C090D303D09037
:101E0000D403E090D503F090D6036C197D098E09B8
:101E10009F09603D77408105910508F498C20E94B2
:101E200089056093D3037093D4038093D503909373
:101E3000D60381EA96E00E94D70E1B012C012AE00E
:101E4000822E912CA12CB12CA50194010E949F33CC
:101E500029833A834B835C83660F771F69557E4FD6
:101E6000DB010D90BC91A02DBE83AD8387E090E097
:101E70000E942F0C6C0190E080E00E941E0CC82292
:101E8000D9220E94F20B7C0169817A818B819C812D
:101E9000A50194010E949F33660F771F69557E4FFD
:101EA000FB018080918086E090E00E942F0C5C0115
:101EB00081E090E00E941E0CA822B9220E94F20B41
:101EC000CE20DF202D813E81C222D322F12CE12CB5
:101ED0005AE0CC0CDD1CEE1CFF1C5A95D1F78A2170
:101EE0009B2188229922B12CA12C8C289D28AE28D8
:101EF000BF28C201B10124E630E040E050E00E947A
:101F00009F3369017A018091D803811102C06894DE
:101F1000B6F88091D703811102C06894B7F860E0E9
:101F20008AE00E94FC02109161048B2D9927AA2758
:101F3000BB2789839A83AB83BC83C501AA27BB27B0
:101F40008D839E83AF83B887BB27AB2D9A2D892DB8
:101F500089879A87AB87BC87112309F4CBC1882D69
:101F60000E94D60D89850E94D60D8D810E94D60DC6
:101F700089810E94D60D2AE0822E912CA12CB12CB1
:101F8000C701B601A50194010E949F33660F771F18
:101F900069557E4FDB016D907C9085E090E00E945A
:101FA0002F0C6C0182E090E00E941E0CC822D92206
:101FB0006C207D200E94F20B6C01C201B10128EE61
:101FC00033E040E050E00E949F33CA01B901A5010F
:101FD00094010E949F33660F771F69557E4FFB0166
:101FE0000190F081E02DFA83E98384E090E00E9483
:101FF0002F0C7C0183E090E00E941E0CE822F92265
:1020000029813A81E222F3220E94F20BC620D720D6
:10201000A60170E060E0E4E1440F551F661F771FE2
:10202000EA95D1F78E219F21B0E0A0E0FAE0880F79
:10203000991FAA1FBB1FFA95D1F76A017B01C82A15
:10204000D92AEA2AFB2AC201B10120E137E240E0A5
:1020500050E00E949F33CA01B901A50194010E947A
:102060009F33660F771F69557E4FDB010D90BC9142
:10207000A02DBA83A98383E090E00E942F0C5C011D
:1020800084E090E00E941E0C8A219B21E981FA8164
:10209000E823F923FA83E9830E94F20B29813A812C
:1020A00082239323B0E0A0E0C82AD92AEA2AFB2A97
:1020B000C201B10120EA36E841E050E00E949F33BE
:1020C00029873A874B875C878091D803882309F456
:1020D0001CC1E894F6F88091D703882309F418C14D
:1020E000E894F7F88F2D9927AA27BB2789839A832D
:1020F000AB83BC834701AA24BB24BB27AF2D9E2DF5
:102100008D2D8D839E83AF83B887112309F403C17E
:102110008C2D0E94D60D8D810E94D60D882D0E9497
:10212000D60D89810E94D60D3AE0832E912CA12CE8
:10213000B12C69857A858B859C85A50194010E94C7
:102140009F33660F771F69557E4FDB016D907C9042
:1021500082E090E00E942F0C6C0185E090E00E94EC
:102160001E0CC822D9226C207D200E94F20B6C012B
:10217000C201B10120E432E44FE050E00E949F33FD
:10218000CA01B901A50194010E949F33660F771F10
:1021900069557E4FFB010190F081E02DFA83E983C0
:1021A00081E090E00E942F0C7C0186E090E00E948C
:1021B0001E0CE822F92229813A81E222F3220E94B0
:1021C000F20BC620D720A60170E060E0E4E1440FE6
:1021D000551F661F771FEA95D1F78E219F21B0E02A
:1021E000A0E0FAE0880F991FAA1FBB1FFA95D1F74C
:1021F0006A017B01C82AD92AEA2AFB2AC201B10155
:1022000020E836E948E950E00E949F33CA01B9014D
:10221000A50194010E949F33660F771F69557E4F79
:10222000DB01AD90BC9090E080E00E942F0C9A837F
:10223000898387E090E00E941E0CE981FA81E823FF
:10224000F923EA21FB21FA83E9830E94F20B298119
:102250003A8182239323B0E0A0E08C299D29AE2906
:10226000BF292091D8036C017D01222309F45EC0AF
:10227000E894F6F88091D703882309F45AC0E894CB
:10228000F7F84F2C5524662477244701AA24BB2451
:10229000BB27AF2D9E2D8D2D89839A83AB83BC8365
:1022A000112309F449C08C2D0E94D60D89810E940A
:1022B000D60D882D0E94D60D842D0E94D60D61E08A
:1022C0008AE02C960FB6F894DEBF0FBECDBFDF912B
:1022D000CF911F91FF90EF90DF90CF90BF90AF9084
:1022E0009F908F907F906F905F904F903F902F9036
:1022F0000C94FC0289810E94D60D8D810E94D60D1E
:1023000089850E94D60D882D34CE6894F6F8E3CEE8
:102310006894F7F8E7CE89810E94D60D882D0E9437
:10232000D60D8D810E94D60D8C2DFCCE6894F6F8CA
:10233000A1CF6894F7F8A5CF842D0E94D60D882DE3
:102340000E94D60D89810E94D60D8C2DB6CF2C9679
:102350000FB6F894DEBF0FBECDBFDF91CF911F91B6
:10236000FF90EF90DF90CF90BF90AF909F908F90B5
:102370007F906F905F904F903F902F9008950F93B4
:102380001F93CF93DF938C01EB01FC01808191813E
:102390000097E1F06881798161157105A9F04281AA
:1023A00053812C813D814217530770F00E94AD3458
:1023B0008C819D81F801958384831D821C82DF912D
:1023C000CF911F910F9108950E949C2F8881998130
:1023D000F801918380838A819B81938382838C819E
:1023E0009D8195838483198218821B821A82E5CF8E
:1023F000CF93DF93EC0188819981009711F00E94BF
:102400009C2F198218821D821C821B821A82DF91E6
:10241000CF910895FC0180819181009711F00C9477
:102420009C2F08950F931F93CF93DF93EC01888126
:102430009981009759F02A813B812617370730F0A0
:1024400081E0DF91CF911F910F9108958B016F5F14
:102450007F4F0E94E733009759F0998388831B834D
:102460000A832C813D81232B59F7FC011082E8CF90
:1024700080E0E7CFEF92FF920F931F93CF93DF930C
:102480006115710541F480E0DF91CF911F910F91AB
:10249000FF90EF90089541155105B1F07B01EC01DB
:1024A0000C811D81040F151FB8010E941212882390
:1024B00051F3288139818C819D81B701820F931F4F
:1024C0000E94AD341D830C8381E0DECFEF92FF923A
:1024D0000F931F93CF93DF93CDB7DEB72D970FB632
:1024E000F894DEBF0FBECDBF7C01CB01BA012AE05C
:1024F0008E010F5F1F4FA8010E946C30F801019000
:102500000020E9F73197AF01401B510BB801C7011B
:102510000E943A12811103C0C7010E94F811C7013D
:102520002D960FB6F894DEBF0FBECDBFDF91CF91D1
:102530001F910F91FF90EF900895CF93DF93EC01DF
:10254000FB0101900020E9F73197AF01461B570BC3
:102550000E943A12811103C0CE010E94F811CE01EF
:10256000DF91CF910895CF93DF93EC01FB0144817C
:102570005581608171810E943A12811103C0CE01A0
:102580000E94F811CE01DF91CF910895EF92FF9252
:102590000F931F93CF93DF9300D000D0CDB7DEB75A
:1025A0007C01862F4AE08E010F5F1F4FB80190E03B
:1025B0000E944C30F80101900020E9F73197AF01FB
:1025C000401B510BB801C7010E943A120F900F90A7
:1025D0000F900F90DF91CF911F910F91FF90EF908F
:1025E0000895EF92FF920F931F93CF93DF93EC0127
:1025F0007B018A01BA010E94121281110BC0CE0127
:102600000E94F811CE01DF91CF911F910F91FF90A1
:10261000EF9008951D830C83B701888199810E94F2
:10262000AD34F0CFFB0101900020E9F73197AF0105
:10263000461B570B0C94F1120F931F93CF93DF930C
:10264000CDB7DEB762970FB6F894DEBF0FBECDBF31
:102650008C01CB01F8011182108213821282158243
:1026600014824AE0BE016F5F7F4F0E944C30BE0172
:102670006F5F7F4FC8010E94121362960FB6F894E5
:10268000DEBF0FBECDBFDF91CF911F910F91089597
:102690000F931F93CF93DF93CDB7DEB7A1970FB6FC
:1026A000F894DEBF0FBECDBF8C01CB01BA01F8019B
:1026B0001182108213821282158214822AE0AE01E6
:1026C0004F5F5F4F0E946C30BE016F5F7F4FC8014C
:1026D0000E941213A1960FB6F894DEBF0FBECDBFB5
:1026E000DF91CF911F910F910895CF93DF93EC016C
:1026F000FB018617970749F06081718161157105AB
:1027000041F0448155810E94F112CE01DF91CF91B9
:1027100008950E94F811F9CFFC01118210821382F2
:102720001282158214820C947513FC01118210829E
:102730001382128215821482FB0101900020E9F7B6
:102740003197AF01461B570B0C94F112AF92BF9219
:10275000CF92DF92EF92FF920F931F93CF93DF936D
:102760006C015B017A0189012417350720F48F2D54
:102770007901042F182F68EB72E0C6010E949513AF
:10278000D5011496CD91DC91EC16FD06E0F40C1702
:102790001D0708F4E801D501ED91FC911197EC0FAC
:1027A000FD1F108110826D917C916E0D7F1DC60101
:1027B00061157105A1F00E941213F50180819181CC
:1027C000C80FD91F1883C601DF91CF911F910F91B8
:1027D000FF90EF90DF90CF90BF90AF9008950E9450
:1027E000F811EBCF4F925F926F927F928F929F92F0
:1027F000AF92BF92CF92DF92EF92FF920F931F930F
:10280000CF93DF9300D000D000D0CDB7DEB77C01EE
:102810004B015A018091DD0481113EC081E080931B
:10282000DD041092DC041092DB0493EC692E93E03B
:10283000792E2BEB422E23E0522E10E000E00F5FAA
:102840001F4F680181E0C81AD1089801A601B401A0
:10285000CE0101960E94A613CE0101960E94D70ECA
:10286000D3016D933D01CE0101960E940A12980199
:10287000A601B501CE0101960E94A613CE010196D4
:102880000E94D70EF20161932F01CE0101960E94A2
:102890000A120830110599F69091020183ECC82EB6
:1028A00083E0D82EEBEBF3E08601A801D8018C91F0
:1028B0009A30D8F58F5F8C930F5F1F4FDA018C91A0
:1028C0008A3019F4D80111971C923196B3E00B3C71
:1028D0001B0759F79F5F943169F19093020168EBF0
:1028E00072E0C7010E949513F60161916F01C70163
:1028F0000E94C6120C151D05B9F7C70126960FB622
:10290000F894DEBF0FBECDBFDF91CF911F910F9125
:10291000FF90EF90DF90CF90BF90AF909F908F90FF
:102920007F906F905F904F9008952081281721F23B
:102930008F5FC1CF109202011092DD04D0CFCF92F1
:10294000DF92EF92FF920F931F93CF93DF93CDB758
:10295000DEB72C970FB6F894DEBF0FBECDBF8C014B
:1029600063EF72E0CE0107960E94951322E030E0FB
:1029700050E040E003301105A9F024E030E042E0EF
:1029800050E00C30110571F026E030E00033110505
:1029900039F0003F110581F52091A5063091A6067A
:1029A00044E050E061EA76E0CE0101960E94A61371
:1029B000BE016F5F7F4FCE0107960E94BF11CE010F
:1029C00001960E940A12CE0107960E94D70E6B0153
:1029D000CE0107960E940A12C6012C960FB6F894F3
:1029E000DEBF0FBECDBFDF91CF911F910F91FF9042
:1029F000EF90DF90CF900895003C110521F72091D2
:102A0000A5063091A60646E050E0CCCF0F931F9369
:102A1000CF93DF93CDB7DEB762970FB6F894DEBFE2
:102A20000FBECDBF8C0177FF03C071956195710911
:102A30006A307105A4F5CE010D960E941C1360EC5E
:102A400072E0CE0101960E949513BE016F5F7F4F29
:102A5000CE0107960E948C13BE01635F7F4FCE01AB
:102A600007960E94B312BC01C8010E948C13CE01CC
:102A700007960E940A12CE0101960E940A12CE0108
:102A80000D960E940A12C80162960FB6F894DEBF36
:102A90000FBECDBFDF91CF911F910F910895C80157
:102AA0000E941C13F0CF0F931F93CF93DF93CDB7EA
:102AB000DEB768970FB6F894DEBF0FBECDBF8B01AF
:102AC00077FF03C0119501951109833079F52091A5
:102AD000A5063091A60642E050E061EA76E0CE011C
:102AE0000D960E94A613B801CE0101960E9406150C
:102AF000BE016F5F7F4FCE0107960E948C13BE010F
:102B0000635F7F4FCE0107960E94B312BC0181EA3A
:102B100096E00E947513CE0107960E940A12CE011C
:102B200001960E940A12CE010D9644C08C3009F025
:102B30004EC02091A5063091A60644E050E061EA1F
:102B400076E0CE0143960E94A613B801CE010D9601
:102B50000E94061522E030E050E040E061EA76E0B5
:102B6000CE0101960E94A613BE016F5F7F4FCE017A
:102B700007960E948C13BE01635F7F4FCE010796BC
:102B80000E94B312BE016D5E7F4F0E94B312BC0162
:102B900081EA96E00E947513CE0107960E940A1200
:102BA000CE0101960E940A12CE010D960E940A12D1
:102BB000CE0143960E940A1268960FB6F894DEBFC3
:102BC0000FBECDBFDF91CF911F910F91089580333C
:102BD000A1F42091A5063091A60646E050E061EAF6
:102BE00076E0CE0143960E94A613B801CE010D9661
:102BF0000E94061524E030E0AFCF803F81F4B80199
:102C0000CE010D960E94061524E030E050E040E031
:102C100061EA76E0CE0101960E94A61369CF803C5E
:102C200059F6B801CE010D960E94061526E030E057
:102C3000EDCF0E94E0056093F3047093F404809359
:102C4000F5049093F6048091F904882309F44BC0AD
:102C50002091FB043091FC04C901880F991F213198
:102C6000310599F1FC01EF5AFE4F408151814150ED
:102C7000510951834083FC01EF5AFE4FD901AB5FEC
:102C8000BE4F6C91408151816417150641F03CF0B4
:102C9000D901A45EBE4F4C9150E051834083203156
:102CA000310551F4209171013091720121303105CB
:102CB000B9F420E82093F2048F5A9E4FFC01608102
:102CC00071818091F7040C945315409173015091D8
:102CD00074014C5051095093740140937301CBCF50
:102CE0001092F204E9CF08950E94E0056093F30486
:102CF0007093F4048093F5049093F6048091F904A2
:102D0000882309F44AC02091FB043091FC04C901D6
:102D1000880F991F2131310591F1FC01EF5AFE4FC7
:102D2000408151814F5F5F4F51834083FC01EF5AD7
:102D3000FE4FD901A45EBE4F6C9140815181641752
:102D400015063CF4D901AB5FBE4F4C9150E0518366
:102D500040832031310551F420917101309172018D
:102D600021303105B9F420E82093F2048F5A9E4FA8
:102D7000FC01608171818091F7040C94531540919E
:102D8000730150917401445F5F4F509374014093FD
:102D90007301CCCF1092F204E9CF08958F929F92E5
:102DA000AF92BF92DF92EF92FF920F931F93CF9358
:102DB000DF93CDB7DEB7A2970FB6F894DEBF0FBE94
:102DC000CDBF8C018AE0E5E8F1E0DE0111960190CB
:102DD0000D928A95E1F78091B4039091B503019625
:102DE0008A3091050CF086C09093B5038093B403AC
:102DF000E091B403F091B50381E090E08C0F9D1F4A
:102E0000E80FF91FD0808091730190917401489769
:102E100009F075C00E94E0054B015C010E94460864
:102E2000BC01CE014D960E9406150E944E08BC01C1
:102E3000CE0147960E9406150E945608BC01CE019D
:102E40000B960E940615BE01655F7F4FCE0141962D
:102E50000E948C13BE01695E7F4FCE0141960E9495
:102E6000B312BE01635E7F4F0E94B3127C01C501A5
:102E7000B40128EE33E040E050E00E947D3324E6C8
:102E800030E040E050E00E947D33BA01A901C70163
:102E90000E9466127C016D2D0E94C612811103C032
:102EA000C7010E94F811B701C8010E948C13CE011E
:102EB00041960E940A12CE010B960E940A12CE0180
:102EC00047960E940A12CE014D960E940A12C8012E
:102ED000A2960FB6F894DEBF0FBECDBFDF91CF91A3
:102EE0001F910F91FF90EF90DF90BF90AF909F9058
:102EF0008F9008951092B5031092B40379CF0E9479
:102F0000E00528EE33E040E050E00E947D3324E607
:102F100030E040E050E00E947D3349015A010E94B8
:102F20004608BC01CE014D960E9406150E944E082F
:102F3000BC01CE0147960E9406150E94ED060E9434
:102F40003307809144046CE070E0882331F0682FEF
:102F500070E08D3010F06C507109CE010B960E941C
:102F60000615BE01655F7F4FCE0141960E948C130E
:102F7000BE01695E7F4FCE0141960E94B312BE0131
:102F8000635E7F4F0E94B312B501A40181CF8F927F
:102F90009F92AF92BF92CF92DF92EF92FF920F93E8
:102FA0001F93CF93DF93CDB7DEB762970FB6F89438
:102FB000DEBF0FBECDBF8C016A017B0180919305FE
:102FC000811111C00E94E005645B7B4F8F4F9F4FC2
:102FD00060938F057093900580939105909392056F
:102FE00081E08093930580918705811109C069EB89
:102FF00072E081E895E00E94951381E08093870557
:1030000080918005811119C061E875E0C8010E94B6
:103010008C13C80162960FB6F894DEBF0FBECDBF09
:10302000DF91CF911F910F91FF90EF90DF90CF90A4
:10303000BF90AF909F908F9008950E94E005809080
:103040008F0590909005A0909105B0909205681919
:1030500079098A099B09693E734081059105A0F2AF
:103060000E94E00560938F05709390058093910511
:103070009093920520E030E0A901C701B6010E94BB
:10308000583320E030E040E05FE387FD02C1C70134
:10309000B6010E9444320E9422337B0177FF04C0B4
:1030A000EE24FF24E61AF70A5B0139E1A31A3CEF8C
:1030B000B30A80917501909176019B012D593F4F84
:1030C00069012A5531094901B701892B09F0E6C088
:1030D000CE0101960E941C1360EC72E0CE010796AF
:1030E0000E949513BE016F5F7F4FCE0107960E942D
:1030F000B31260EC72E00E949D12BC0181E895E081
:103100000E947513CE0107960E940A12CE01019605
:103110000E940A123FECA31637E0B30680F5B70110
:10312000CE0101960E941C13609177017091780185
:10313000CE010D960E940615BE01635F7F4FCE0142
:1031400007960E948C13BE016F5F7F4FCE010796DA
:103150000E94B31260EC72E00E949D12BC0181E8F3
:1031600095E00E947513CE0107960E940A12CE01C7
:103170000D960E940A12CE0101960E940A1287EC57
:10318000C816D104A0F5B701CE0101960E941C1308
:103190006091770170917801CE0107960E94061523
:1031A00060EC72E0CE010D960E949513BE01695F3E
:1031B0007F4FCE010D960E94B312BE016F5F7F4F0D
:1031C0000E94B31260EC72E00E949D12BC0181E883
:1031D00095E00E947513CE010D960E940A12CE0151
:1031E00007960E940A12CE0101960E940A1223E15C
:1031F00082169104A0F5B701CE0101960E941C131E
:103200006091770170917801CE0107960E940615B2
:103210006FEB72E0CE010D960E949513BE01695FBF
:103220007F4FCE010D960E94B312BE016F5F7F4F9C
:103230000E94B31260EC72E00E949D12BC0181E812
:1032400095E00E947513CE010D960E940A12CE01E0
:1032500007960E940A12CE0101960E940A1268EB9C
:1032600072E0CE0101960E94951361E875E0CE01EF
:1032700001960E94B3126FEB72E00E949D12BC0196
:1032800081E895E00E947513CE0101960E940A1212
:10329000BBCEC701B6010E944332FDCECE010196DE
:1032A0000E941C1360EC72E0CE0107960E949513F9
:1032B000BE016F5F7F4FCE0107960E94B31260EC94
:1032C00072E00E949D12BC0181E895E00E94751396
:1032D000CE0107960E940A12CE0101960E940A12A0
:1032E0003FECA31637E0B306A0F56091770170912B
:1032F0007801CE0101960E940615C7016AE070E0D0
:103300000E946933CE0107960E941C136FEB72E096
:10331000CE010D960E949513BE01695F7F4FCE01CD
:103320000D960E94B312BE016F5F7F4F0E94B312D1
:10333000BC0181E895E00E947513CE010D960E94B4
:103340000A12CE0107960E940A12CE0101960E942F
:103350000A1287ECC816D104A0F56091770170912C
:103360007801CE0101960E940615C7016AE070E05F
:103370000E946933CE0107960E941C136EEB72E027
:10338000CE010D960E949513BE01695F7F4FCE015D
:103390000D960E94B312BE016F5F7F4F0E94B31261
:1033A000BC0181E895E00E947513CE010D960E9444
:1033B0000A12CE0107960E940A12CE0101960E94BF
:1033C0000A1223E18216910408F049CF6091770137
:1033D00070917801CE0101960E940615C7016AE03E
:1033E00070E00E946933CE0107960E941C136DEBBA
:1033F00072E0CE010D960E949513BE01695F7F4F6A
:10340000CE010D960E94B312BE016F5F7F4F0E94E6
:10341000B31214CF85ED8093BC0080915805909134
:103420005905A0915A05B0915B050796A11DB11DE4
:1034300023E0B695A795979587952A95D1F7209182
:10344000BC0024FD03C01092560508954091580514
:103450005091590560915A0570915B05452B462B9B
:10346000472B69F30097A105B10541F02AE22A959F
:10347000F1F700C00197A109B109E1CF809157058B
:103480000C9412091F920F920FB60F9211242F93D2
:103490003F934F935F936F937F938F939F93AF93DC
:1034A000BF93EF93FF9389EA95E00E940002FF919A
:1034B000EF91BF91AF919F918F917F916F915F91AC
:1034C0004F913F912F910F900FBE0F901F90189525
:1034D0001F920F920FB60F9211242F938F939F93E9
:1034E000EF93FF93E091B905F091BA058081E091E7
:1034F000BF05F091C00582FD1BC090818091C2057F
:103500008F5F8F732091C305821741F0E091C20550
:10351000F0E0E755FA4F958F8093C205FF91EF9148
:103520009F918F912F910F900FBE0F901F90189524
:103530008081F4CF1F920F920FB60F9211242F9318
:103540003F938F939F93AF93BF9380914A04909141
:103550004B04A0914C04B0914D043091490423E0F8
:10356000230F2D3758F50196A11DB11D2093490455
:1035700080934A0490934B04A0934C04B0934D0461
:1035800080914E0490914F04A0915004B091510449
:103590000196A11DB11D80934E0490934F04A093FA
:1035A0005004B0935104BF91AF919F918F913F917F
:1035B0002F910F900FBE0F901F90189526E8230FA4
:1035C0000296A11DB11DD2CF1F920F920FB60F927E
:1035D00011242F933F938F939F93AF93BF93EF93B8
:1035E000FF9380919B0590919C05A0919D05B091C2
:1035F0009E050097A105B10531F130915604E09187
:103600005704F091580420812327208318161906A7
:103610001A061B061CF40197A109B10980939B05AA
:1036200090939C05A0939D05B0939E05FF91EF910B
:10363000BF91AF919F918F913F912F910F900FBEAE
:103640000F901F901895209170002D7F209370008F
:1036500020915604E0915704F09158043081209550
:1036600023232083DBCF1F920F920FB60F921124DA
:103670008F939F93AF93BF93EF93FF9380919F0599
:103680009091A005A091A105B091A205892B8A2B4C
:103690008B2BA1F190915904E0915A04F0915B04B5
:1036A00080818927808380919F059091A005A091BA
:1036B000A105B091A205181619061A061B069CF45E
:1036C00080919F059091A005A091A105B091A205C0
:1036D0000197A109B10980939F059093A005A0933C
:1036E000A105B093A205FF91EF91BF91AF919F917A
:1036F0008F910F900FBE0F901F90189580916F00C3
:103700008D7F80936F0080915904E0915A04F0916D
:103710005B049081809589238083E5CF1F920F926F
:103720000FB60F9211248F939F93AF93BF93EF9394
:10373000FF938091A3059091A405A091A505B09158
:10374000A605892B8A2B8B2BA1F190915C04E0912B
:103750005D04F0915E048081892780838091A305B8
:103760009091A405A091A505B091A605181619067B
:103770001A061B069CF48091A3059091A405A091C4
:10378000A505B091A6050197A109B1098093A305EC
:103790009093A405A093A505B093A605FF91EF9182
:1037A000BF91AF919F918F910F900FBE0F901F907F
:1037B000189580916E008D7F80936E0080915C04DF
:1037C000E0915D04F0915E0490818095892380836F
:1037D000E5CF1F920F920FB60F9211242F933F93B4
:1037E0004F935F936F937F938F939F93AF93BF9309
:1037F000EF93FF938091B900887F803609F44AC027
:10380000F0F5883209F4A7C018F5803109F49BC09F
:10381000B8F4882309F4F9C0883009F494C0FF9102
:10382000EF91BF91AF919F918F917F916F915F9138
:103830004F913F912F910F900FBE0F901F901895B1
:10384000883109F488C0803251F78093540514C040
:10385000803409F49DC040F48033B9F38833F9F61D
:103860008093540585ECB0C0803509F485C0883557
:1038700009F496C0883499F60E940A1AD0CF883984
:1038800009F48CC038F5883729F050F4883611F0E7
:10389000803729F683E08093560510922F0457C095
:1038A000883809F47BC0803919F0803809F0B7CF27
:1038B00080912F04803208F071C0E0912F0481E0E4
:1038C0008E0F80932F048091BB00F0E0E15FFB4FEF
:1038D00080833DC0803B39F0E0F4803A09F479C040
:1038E000883A09F09CCF84E08093560510920E042C
:1038F00010920D04E0915404F091550409958091C3
:103900000D0481110FC081E080930D041092ED032E
:1039100009C0803C09F4A6CF883C09F4A3CF883BBA
:1039200009F07DCFE0910E0481E08E0F80930E04AC
:10393000F0E0E351FC4F80818093BB0090910E0436
:1039400080910D0429C0809131058093BB0085ECE6
:103950008093BC0064CF90915305809152059817D5
:1039600058F5E091530581E08E0F80935305F0E008
:10397000EE5CFA4F8081E9CFE091530581E08E0F34
:10398000809353058091BB00F0E0EE5CFA4F80839A
:1039900090915305809152059817C8F285E8D8CFC9
:1039A000E091530581E08E0F809353058091BB0019
:1039B000F0E0EE5CFA4F80838091550581115CCF79
:1039C00081E08093300584EA8093BC001092560514
:1039D00026CF85EC8093BC001092560580912F0471
:1039E000803230F4E0912F04F0E0E15FFB4F108271
:1039F00060912F0470E0E0915204F09153048FE045
:103A000094E0099510922F040ACF1092540534CFF8
:103A1000CF93DF93EC01862F6F87188A91E0998B03
:103A20009A8B1C8A1B8A198218821A821D8A1E8A06
:103A30001F8A188E44E150E060E070E04B835C83A5
:103A40006D837E834AEF50E060E070E04F835887DB
:103A500069877A8748EE53E060E070E04B875C87C7
:103A60006D877E8760E00E942A038889811106C0E5
:103A700061E08F85DF91CF910C94FC02DF91CF91B3
:103A80000895E9EAF5E01382128288EE93E0A0E05F
:103A9000B0E084839583A683B78326E932E031833F
:103AA000208325EC30E03587248724EC30E037870D
:103AB000268720EC30E0318B208B21EC30E0338BFB
:103AC000228B22EC30E0358B248B26EC30E0378BD8
:103AD000268B118E128E138E148EE6E4F6E013827E
:103AE000128284839583A683B78388EA92E09183C8
:103AF000808362EC72E08BEB96E00E94951360E0AD
:103B000081E10E942A03E1E0F1E0E491ADEAB6E050
:103B1000EC93EDEEF0E0E491F0E0EE0FFF1FEE52DB
:103B2000FF4F8591949112969C938E9311971B96BB
:103B30001C921B971D961C921D971C961C921C97FD
:103B40001A961C921A9719961C92199718961C92FD
:103B5000189717961C92179716961C9216971596FB
:103B60001C92159714961C92149713961C9268EB4E
:103B700072E087EA96E00E9495136BEB72E081EAAF
:103B800096E00E9495136EE088E896E00E94081D7A
:103B900060E18FE696E00E94081D6FE086E596E002
:103BA0000E94081DA0917901B0917A0120E63AEEB9
:103BB0000E94C43360935206709353068093540658
:103BC000909355060895CF93DF93CDB7DEB7C656D1
:103BD000D1090FB6F894DEBF0FBECDBF789484B57F
:103BE000826084BD84B5816084BD85B5826085BDF9
:103BF00085B5816085BD80916E00816080936E0087
:103C00001092810080918100826080938100809178
:103C10008100816080938100809180008160809329
:103C200080008091B10084608093B1008091B000E9
:103C300081608093B00080917A00846080937A00E4
:103C400080917A00826080937A0080917A0081600E
:103C500080937A0080917A00806880937A00109235
:103C6000C10061E085E00E942A0360E085E00E94D7
:103C7000FC02109263041092620410925D0510928F
:103C80007F050E94F4088FE791E09093550480939C
:103C9000540480E891E09093530480935204E0919F
:103CA000B905F091BA0582E08083E091B505F09105
:103CB000B6051082E091B705F091B80580E18083E8
:103CC0001092C105E091BD05F091BE0586E08083AC
:103CD000E091BB05F091BC05808180618083E0911B
:103CE000BB05F091BC05808188608083E091BB05B5
:103CF000F091BC05808180688083E091BB05F091E4
:103D0000BC0580818F7D808383E38093280181EED1
:103D10008093110181EE97E090936A01809369018D
:103D200080EF8093460181E090E00E94D50E8C30B8
:103D300009F43AC488E190E0909374018093730190
:103D400090E080E00E94D50E882309F430C481E021
:103D50008093370182E090E00E94D50E8F3F09F0FA
:103D600029C410926C0110926B0183E090E00E94D4
:103D7000D50E8F3F09F024C410926E0110926D0190
:103D800084E090E00E94D50E8F3F09F01FC410928E
:103D9000700110926F0186E090E00E94D50E8F3F77
:103DA00009F01AC4109272011092710187E090E03C
:103DB0000E94D50E8F3F09F015C41092EF048BE0DE
:103DC00090E00E94D50E8F3F09F013C41092760147
:103DD000109275018CE090E00E94DC3160968FAF0C
:103DE00060978DE090E00E94DC3161968FAF619723
:103DF00061968EAD9FAD61978F3F910509F0FFC32E
:103E000010927801109277018EE090E00E94D50E1A
:103E10008F3F29F090E090937A01809379018FE0B1
:103E200090E00E94D50E8F3F29F090E090937C01A6
:103E300080937B0180E190E00E94D50E8F3F29F0B6
:103E400090E090937E0180937D01409179015091A3
:103E50007A0128EE33E0429FC001439F900D529FAC
:103E6000900D1124092E000CAA0BBB0B8093520657
:103E700090935306A0935406B093550661E089E0F1
:103E80000E942A0361E086E00E942A0361E083E049
:103E90000E942A0380915F04833008F024C492E0DA
:103EA0009093A705E82FF0E0EC56FF4FE491E093E4
:103EB000A8058F5F80935F04E13009F4C6C308F45E
:103EC000A3C3E23009F4E8C3809103019091040197
:103ED0000E94540D909304018093030161E08AE0F5
:103EE0000E942A0361E088E00E942A0360E088E0E3
:103EF0000E94FC0262E088E00E942A0388E00E949F
:103F0000D30221E0892B09F020E0209361041FB740
:103F1000F89480916004811127C0E6EEF0E084916E
:103F2000EAEFF0E09491E82FF0E0EE0FFF1FE95682
:103F3000FF4FA591B491EC91E92321F461E08AE06F
:103F40000E94FC0261E08AE00E942A038CB5806135
:103F50008CBD8CB580648CBD61E08DE00E942A032D
:103F600061E08BE00E942A03809160048F5F809360
:103F700060041FBF80916104882309F4B8C389E7F6
:103F800091E00E947C0162E08EE00E942A0362E0E0
:103F900080E10E942A0362E08FE00E942A0361E030
:103FA00082E00E942A0304E110E020E030E0009368
:103FB0008B0610938C0620938D0630938E064EE16F
:103FC00050E060E070E040938F065093900660935D
:103FD00091067093920680ED97E0A0E0B0E08093A8
:103FE000930690939406A0939506B093960600933B
:103FF00072061093730620937406309375064093EF
:1040000076065093770660937806709379068093CE
:104010007A0690937B06A0937C06B0937D0600936E
:10402000590610935A0620935B0630935C06409322
:104030005D0650935E0660935F0670936006809302
:10404000610690936206A0936306B0936406E090C5
:10405000BA06E11004C00E94AE0081114AC310925A
:10406000B8061092BA061092B9061092B7061092CE
:10407000B6061092B5061092B4061092B3061092CE
:10408000B2061092B1061092B00680918005882386
:1040900009F10E94AE0085E50E94170100E714E0D7
:1040A000F80181918F010E941701F4E008371F0782
:1040B000B9F78EEB0E94170104E614E0EDE6EE2E50
:1040C000E4E0FE2E0E946601F80181938F01EE1656
:1040D000FF06C1F780EB90E00E946F0225E030E020
:1040E00042E050E06BEB76E0CE0101963C010E948D
:1040F000A61322E030E041E050E06BEB76E0CE0129
:10410000875B9F4F0E94A613BE01675B7F4FCE0166
:104110008D5B9F4F0E948C1369EC72E0CE018D5B2A
:104120009F4F0E949D12B3010E94B312FC01448173
:1041300055816081718189EA95E00E94820186EB58
:1041400092E00E945F0ECE018D5B9F4F0E940A128B
:10415000CE01875B9F4F0E940A12C3010E940A1280
:104160008BEC92E00E945F0E86EB92E00E945F0E65
:104170008091C1069091C206009711F485EC96E0FB
:104180006301C81AD90A0D2C000CEE08FF08F7FECF
:1041900012C36DE289EA95E00E94220222273327AA
:1041A000A9012C193D094E095F0919A28E010F5D65
:1041B0001F4F7AE0C72ED12CE12CF12CCA01B90196
:1041C000A70196010E947D33605DF80162938F0123
:1041D000211531054105510589F70115110519F022
:1041E000C8010E945F0E86EB92E00E945F0E8091F4
:1041F00003019091040190930205809301050E94B0
:10420000540D6FEF70E089E00E942C0568EE73E0BA
:1042100080E090E00E94AE0570E060E089E00E94DE
:104220002C056FEF70E086E00E942C0568EE73E0CD
:1042300080E090E00E94AE0570E060E086E00E94C1
:104240002C056FEF70E083E00E942C0568EE73E0B0
:1042500080E090E00E94AE0569EB72E0C3010E942D
:1042600095136CEE72E0CE0107960E94951365EFF0
:1042700072E0CE010D960E9495136EEF72E0CE01B2
:1042800043960E94951367E073E0CE0149960E9421
:10429000951360E173E0CE014F960E94951369E19A
:1042A00073E0CE0185960E94951362E273E0CE0121
:1042B0008B960E9495136BE273E0CE01C1960E942B
:1042C000951364E373E0CE01C7960E94951368EBE3
:1042D00072E0CE01CD960E9495136BEB76E0CE0195
:1042E0008D5B9F4F0E948C136FEB72E0CE018D5B54
:1042F0009F4F0E949D12BC01CE01CD960E94751366
:10430000CE018D5B9F4F0E940A120E94E0056B0157
:104310007C01F8EECF0EF3E0DF1EE11CF11C00E0A3
:104320001FEF94EFA92EBB24B39426E0922E8FE0CA
:104330000E94D302892B09F401E080E10E94D3029C
:10434000892B09F400E00E94E0056C197D098E09B3
:104350009F0995010B2C000C440B550B26173707B2
:104360004807590708F04FC20E94E0056B017C0125
:10437000011101C01F5F1A3009F438C21B3009F067
:1043800039C281E080935C0588E680937E051092B7
:104390005D0510927F0561E186E496E00E94490B7D
:1043A00081E00E94330962E088E60E94230A1092AD
:1043B00063048093620486E496E00E94020B8550B9
:1043C0008833B8F081EA90E00E946C0E05E010E0BE
:1043D00048EE53E060E070E088EE93E00E946603F0
:1043E00060ED77E080E090E00E94AE050150110999
:1043F00079F78E010D5B1F4F06501109C8010E940D
:104400000A1260167106C1F70E94DD0D00910705C2
:10441000109108050E94E0056B017C0181E080930A
:104420000F051127809107059091080508171907B6
:1044300079F40E94DD0D0E94E0056C197D098E095A
:104440009F09693B7B408105910560F310920F0540
:1044500080900D05F0900E0590900B0510910C05C5
:10446000A090090530910A05B09007055091080504
:10447000C090050570910605D0900305E82C092D24
:104480002A2D4B2D6C2D8D2D909104050E94110627
:1044900060E085E00E94FC022A2D4B2D6C2D8D2DB5
:1044A0000E94780B61E085E00E94FC02B4E62B2EAE
:1044B000312CBE016F5F7F4F2B010E94E00520E68B
:1044C0003AEE40E050E00E947D33672B682B692B69
:1044D00001F580910F058823E1F00E94DD0DE09049
:1044E0000D05F0900E0500910B0510910C05209123
:1044F000090530910A054091070550910805609122
:1045000005057091060580910305909104050E94B0
:1045100011060091010510910205F80180818823A0
:1045200009F43CC20E94E005C0908404D090850448
:10453000E0908604F09087046C197D098E099F092C
:10454000C0908004D0908104E0908204F0908304B5
:10455000C616D706E806F90608F020C20E94E00554
:104560004B015C018092840490928504A0928604A1
:10457000B0928704680130E020E04AE0F801F19051
:104580008F0180ED8F0D8A3008F040C1429FC0013D
:10459000439F900D11242F2DFF0C330B2053310915
:1045A000280F391F6F01EACF8CE090E0C5CB109245
:1045B0003701D0CB90E090936C0180936B01D5CB09
:1045C00090E090936E0180936D01DACB90E0909330
:1045D000700180936F01DFCB90E090937201809324
:1045E0007101E4CB91E0811101C090E09093EF0460
:1045F000E6CB90E09093760180937501EBCB90939E
:1046000078018093770100CC14BC15BC84B582601E
:1046100084BD85B5816085BD8091A70590E0FC01D2
:10462000E452FF4FE491F0E0EE0FFF1FE657FF4F1B
:104630002591349130935E0420935D04FC01E05198
:10464000FF4FE491E0935C043FCC10928000109205
:104650008100809181008860809381008091810039
:104660008160809381008091A70590E0FC01E45275
:10467000FF4FE491F0E0EE0FFF1FE657FF4F25914B
:10468000349130935B0420935A04FC01E051FF4FB6
:10469000E491E093590418CC1092B0001092B1004C
:1046A0008091B00082608093B0008091B100816001
:1046B0008093B1008091A70590E0FC01E452FF4F88
:1046C000E491F0E0EE0FFF1FE657FF4F2591349184
:1046D0003093580420935704FC01E051FF4FE491BC
:1046E000E0935604F1CB8FEF8093A805EDCB89E5DD
:1046F00047CC80EF0E941701D12CFF24F39401E0F6
:104700000E944101182F0E9441011130F9F48130BB
:10471000E1F5013408F4A3CCE092B806E11003C03F
:1047200081E08093BA068091B006882309F497CC83
:10473000A0EBB6E0E0E7F4E08D91819364E0E83728
:10474000F607D1F781E0809380059FCCED2DF0E056
:10475000181311C08091B8060817A8F4DF01A355FB
:10476000B94F13968C918F2181F410E0093010F429
:104770000093B906E02EE355F94F83819F2D909564
:10478000892383830AC08013F0CFED2DF0E0E35539
:10479000F94F83818F29838311E0812F0E94E700E5
:1047A0000F5FFF0C19F4D394FF24F39427E02D1529
:1047B00008F0A6CFAECFA701960119A28E010F5D1A
:1047C0001F4F6AE0C62ED12CE12CF12CCA01B90191
:1047D000A70196010E947D33605DF80162938F010D
:1047E000211531054105510589F7F7CC88EBA82E35
:1047F0008BE0B82EB301199D600D711D112481EA63
:1048000096E00E9475130E94E20E91CD30937F04D2
:1048100020937E0460917A0470917B0480917C04E3
:1048200090917D042115310501F1032E000C440BFC
:10483000550B0E949F332093800430938104409352
:10484000820450938304EFE9EF0DE730A0F40E2EBD
:10485000000CFF0BE25DFB4D0C94BE33AE27B0277E
:10486000A227A627A827AA27AC272091340130E049
:1048700050E040E0DECF10927904F601818183326E
:1048800041F4809179048F5F8093790486010E5FF3
:104890001F4FF80180818E32F1F4C0908004D090D7
:1048A0008104E0908204F0908304C701B60122E005
:1048B00030E040E050E00E949F33C20ED31EE41E61
:1048C000F51EC0928004D0928104E0928204F0929E
:1048D00083040F5F1F4FF801808180538A3008F0F6
:1048E00041C3809378040F5F1F4FF80180818C32A1
:1048F00011F40F5F1F4FE0917904EE2309F44EC0CD
:10490000C0908004D0908104E0908204F0908304F1
:10491000809178048450990B4CE0489F9001499F06
:10492000300D1124E20FF32FF11DEE0FFF1FE9539D
:10493000FE4FB701A601808191810E9466030E940B
:10494000E005681979098A099B09C616D706E806A1
:10495000F90620F50E94E0056093840470938504B5
:1049600080938604909387048091A805813009F490
:10497000FEC2823009F401C3811105C080916E002E
:104980008D7F80936E0060E08091A7050E94FC02FD
:104990008BEB90E00E946C0E10E000E0109302059B
:1049A000009301050E94E0050091FD041091FE04B2
:1049B0002091FF0430910005601B710B820B930B5B
:1049C000663071058105910520F1809137018823BA
:1049D00039F080917D0190917E01009709F0D3C25A
:1049E00070E060E089E00E942C0570E060E086E005
:1049F0000E942C0570E060E083E00E942C050E947C
:104A0000E0056093FD047093FE048093FF0490938F
:104A100000058091FB049091FC04892B21F080918A
:104A2000FA048111ECC18091F9048111E8C18091EF
:104A3000790190917A01892B09F4E1C180919C045C
:104A400081110DC00E94E005609398047093990451
:104A500080939A0490939B0481E080939C048091BE
:104A6000900481110DC00E94E00560938C04709346
:104A70008D0480938E0490938F0481E08093900442
:104A80000E94E005009198041091990420919A04E5
:104A900030919B04601B710B820B930B00915206AB
:104AA00010915306209154063091550606171707AA
:104AB0002807390708F04AC00E94E005609398046F
:104AC0007093990480939A0490939B0440913501CC
:104AD0005091360181E090E04115510531F04130AF
:104AE000510509F005C384E090E09093FC048093A5
:104AF000FB0460917B0170917C0128EE33E0629FA2
:104B0000C001639F900D729F900D1124092E000C1F
:104B1000AA0BBB0B8093520690935306A0935406A6
:104B2000B09355064F5F5F4F433051050CF0F9C20B
:104B300050933601409335018091FA04882321F087
:104B40001092FC041092FB041092FA040E94E005FB
:104B5000009198041091990420919A0430919B043B
:104B6000601B710B820B930B603D774081059105B3
:104B700008F0DCC20E94E00500918C0410918D04C5
:104B800020918E0430918F04601B710B820B930B6C
:104B9000653671058105910508F431C10E94E00573
:104BA00060938C0470938D0480938E0490938F0493
:104BB0008091FB049091FC04892B89F5CE018D5BDB
:104BC0009F4F0E94CE1681E02091750130917601B1
:104BD000232B09F480E00E94B60CAB01BC01C30199
:104BE0000E94C717AE014D5B5F4FB301CE01875BDB
:104BF0009F4F0E94F213BE01675B7F4F81EA96E0F0
:104C00000E94BF11CE01875B9F4F0E940A12C30111
:104C10000E940A12CE018D5B9F4F0E940A12809162
:104C2000FB049091FC04019709F06BC00E942C08D2
:104C300068EE73E00E946933BC01CE018B5A9F4F2E
:104C40000E9406150E943608BC01CE01815B9F4F71
:104C50000E9406150E943E08BC01CE018D5B9F4F4D
:104C60000E940615BE016D5B7F4FCE01875B9F4F93
:104C70000E948C13BE01615B7F4FCE01875B9F4F0B
:104C80000E94B312BE016B5A7F4F0E94B312BC0147
:104C9000CE01855A9F4F0E948C13C3010E94CE16ED
:104CA000AE01455A5F4FB301CE018F599F4F0E940D
:104CB000F213BE016F597F4F81EA96E00E94BF1147
:104CC000CE018F599F4F0E940A12C3010E940A12FF
:104CD000CE01855A9F4F0E940A12CE01875B9F4FDB
:104CE0000E940A12CE018D5B9F4F0E940A12CE01D4
:104CF000815B9F4F0E940A12CE018B5A9F4F0E94E8
:104D00000A128091FB049091FC04049709F077C08B
:104D100081E02091750130917601232B09F480E028
:104D20000E94B60CAB01BC01CE01855A9F4F0E9478
:104D3000C7170E942C0868EE73E00E946933BC011B
:104D4000CE01815B9F4F0E9406150E943608BC0170
:104D5000CE01875B9F4F0E9406150E943E08BC0152
:104D6000C2010E940615B201CE018D5B9F4F0E94C9
:104D70008C13BE01675B7F4FCE018D5B9F4F0E94FE
:104D8000B312BE01615B7F4F0E94B312BC01CE0122
:104D90008B5A9F4F0E948C13AE01455A5F4FBE0144
:104DA0006B5A7F4FCE018F599F4F0E94F213BE0165
:104DB0006F597F4F81EA96E00E94BF11CE018F5953
:104DC0009F4F0E940A12CE018B5A9F4F0E940A12D7
:104DD000CE018D5B9F4F0E940A12C2010E940A12EF
:104DE000CE01875B9F4F0E940A12CE01815B9F4FCD
:104DF0000E940A12CE01855A9F4F0E940A120E94F9
:104E0000E20E88E896E00E945E088FE696E00E9437
:104E10005E0886E596E00E945E088091F9048111A3
:104E200088C11092F8041092F7048091880690913E
:104E30008906181619060CF099C281E08093FA04CD
:104E4000109202051092010544E650E060E070E027
:104E500088EE93E00E9466030E94E0056093F304ED
:104E60007093F4048093F5049093F6048091FB040E
:104E70009091FC0401968730910509F486C19093C6
:104E8000FC048093FB042091FB043091FC04F901A5
:104E9000E65CFE4F808190E09093F8048093F704E5
:104EA00021503109F901EC59FD4F4081442309F4A7
:104EB00049C2642F6150770BCB01FB01E35BFD4FCF
:104EC00050815217130609F03DC2423009F062C109
:104ED00028E1EFE8F1E0D30101900D922A95E1F786
:104EE0002091690130916A0123703327232B21F42B
:104EF0002DE130E03C832B83E0916501F091660168
:104F00003197EE0FFF1FE60DF71D4091670150919D
:104F1000680120813181241735070CF03BC18AE0FC
:104F200090E09093FC048093FB0480E090E0892B58
:104F300009F4C3CA0E94EC01882309F4B7CA0E948D
:104F40000000B4CA81E08093790497CC83E0FBCF62
:104F500085E0F9CF86E0F7CF88E0F5CF8AE0F3CFA0
:104F60008CE0F1CF8091330180937804BECC8091A6
:104F70006F008D7F80936F0006CD809170008D7FD4
:104F80008093700000CD2091DE042111A4C09C010B
:104F90002F5F3F4F4091380150913901249FC0014C
:104FA000259F900D349F900D1124B1010E9469330B
:104FB00089E00E942C0520917D0130917E012F5FB8
:104FC0003F4F4091E6045091E704249FC001259F84
:104FD000900D349F900D1124B1010E94693386E039
:104FE0000E942C0520917D0130917E012F5F3F4F63
:104FF0004091E4045091E504249FC001259F900D49
:10500000349F900D1124B1010E94693383E00E9406
:105010002C058091EF048111F2CC20918A0430910B
:105020008B04C901880F991F820F931FFC01EE0F9B
:10503000FF1FE75DFD4F40913801509139016081BC
:105040007181460F571F5093390140933801FC017D
:10505000EE0FFF1FE55DFD4F4091E6045091E70420
:1050600060817181460F571F5093E7044093E60417
:10507000880F991FFC01E35DFD4F8091E40490913E
:10508000E50440815181840F951F9093E50480933E
:10509000E404809188049091890401969093890496
:1050A000809388048F3F910551F42F5F3F4F3093D9
:1050B0008B0420938A0410928904109288048091B2
:1050C0008A0490918B0406970CF499CC10928B046F
:1050D00010928A0494CC70E060E089E00E942C0574
:1050E00070E060E086E00E942C0570E060E08ECF0A
:1050F0004230510509F016CD1092FC041092FB04C9
:10510000A0917901B0917A0120E63AEE0E94C43371
:1051100060935206709353068093540690935506FD
:1051200001CD109236011092350106CD1092DD04AA
:1051300066CE0E94E0050091F3041091F4042091E2
:10514000F5043091F604601B710B820B930B6136F2
:105150007A4E8105910508F468CE1092F904E09129
:10516000FB04F091FC04E558FD4F808190E09093A2
:10517000FC048093FB04865C9E4FFC01808190E0E0
:105180009093F8048093F70450CE1092FC04109290
:10519000FB0479CE1092F9049093FC048093FB04F5
:1051A000892BB9F40E942C087C010E9436088C01DE
:1051B0000E943E0840916301509164016091610139
:1051C000709162019C0180915F01909160010E9449
:1051D00011068091FB049091FC040197C9F4E090C2
:1051E0006901F0906A01009165011091660180905B
:1051F0006701909068010E9446085C010E944E0879
:105200006C010E9456089401A501B6010E94110686
:105210008091FB049091FC040297C1F460916B01B2
:1052200082E090E00E94D30E60916D0183E090E0F7
:105230000E94D30E60916F0184E090E00E94D30E33
:105240006091710186E090E00E94D30E8091FB0492
:105250009091FC04039731F46091730181E090E038
:105260000E94D30E8091FB049091FC04049731F4CA
:10527000609175018BE090E00E94D30E8091FB0459
:105280009091FC040497D1F4109177018CE090E0A8
:105290000E94DC31811729F0612F8CE090E00E94A0
:1052A000E431109178018DE090E00E94DC31181714
:1052B00029F0612F8DE090E00E94E4318091FB04A1
:1052C0009091FC04059761F4609179018EE090E083
:1052D0000E94D30E60917B018FE090E00E94D30E7C
:1052E0008091FB049091FC04069731F460917D015C
:1052F00080E190E00E94D30E60E085E00E94FC0215
:105300000E942C087C010E943608082F0E943E084B
:10531000C82E0E944608D82E0E944E08182F0E94C0
:105320005608382FC70168EE73E00E946933E82EF3
:105330002C2D4D2D612F832F0E94780B61E085E08D
:105340000E94FC020091FB041091FC040331110542
:1053500069F08091F7049091F8040E949F14000F67
:10536000111FF801EF5AFE4F9183808380918806C8
:105370009091890697FF94C044E650E060E070E0A9
:1053800088EE93E00E9466038091F904811155C074
:105390000091FB041091FC040E94E0056093F3046B
:1053A0007093F4048093F5049093F604012B09F0B4
:1053B00044C00E944608BC01C3010E9406150E9419
:1053C0004E08BC01CE018D5B9F4F0E9406150E94C6
:1053D0005608BC01CE01815B9F4F0E940615BE019D
:1053E000615B7F4FCE01875B9F4F0E948C13BE0194
:1053F0006D5B7F4FCE01875B9F4F0E94B312B3015D
:105400000E94B3126FEB72E00E949D12BC0181EA10
:1054100096E00E947513CE01875B9F4F0E940A128F
:10542000CE01815B9F4F0E940A12CE018D5B9F4F80
:105430000E940A12C3010E940A12E091FB04F0913B
:10544000FC04E558FD4F008110E01093FC0400932C
:10545000FB040D30110549F481E090E09093720156
:105460008093710180E88093F2048091F90491E0C7
:1054700089278093F904F801E65CFE4F808190E073
:105480009093F8048093F7040231110549F00E94CB
:105490009F14000F111FF801EF5AFE4F9183808374
:1054A00080916F0690917006009719F19093F10426
:1054B0008093F00418161906E4F481E08093FA044E
:1054C000109202051092010544E650E060E070E0A1
:1054D00088EE93E00E9466030E9474168091F9049E
:1054E000811107C01092EF0460E087E090E00E9415
:1054F000D30E8091F0049091F104019609F001C15E
:1055000080917106882309F4FCC01092EE0480910A
:10551000F9048823F9F00E94E0050091EA04109153
:10552000EB042091EC043091ED04601B710B820BB5
:10553000930B673971058105910560F00E94E005C4
:105540006093EA047093EB048093EC049093ED0471
:105550000E94741680915606909157060097A9F103
:105560009093E9048093E8041816190674F511E085
:105570001093FA04109202051092010544E650E0DF
:1055800060E070E088EE93E00E9466030E941916C6
:105590008091F904811119C01093EF0461E087E054
:1055A00090E00E94D30E6091380188E090E00E9464
:1055B000D30E6091E60489E090E00E94D30E6091E2
:1055C000E4048AE090E00E94D30E8091E804909178
:1055D000E904019609F099C080915806882309F4DE
:1055E00094C08091F9041092E304882321F10E9471
:1055F000E0050091DF041091E0042091E104309176
:10560000E204601B710B820B930B673971058105F6
:10561000910508F453C00E94E0056093DF04709385
:10562000E0048093E1049093E2040E9419168091B3
:10563000F904811143C080916F069091700697FF25
:1056400028C044E650E060E070E088EE93E00E94FD
:10565000660381E08093370161E090E080E00E9482
:10566000D30E88E090E00E94D50E682F89E00E945A
:10567000FC0289E090E00E94D50E682F86E00E942F
:10568000FC028AE090E00E94D50E682F83E00E9421
:10569000FC02809156069091570697FF0FC044E692
:1056A00050E060E070E088EE93E00E9466031092A4
:1056B000370160E090E080E00E94D30EE091FB04AF
:1056C000F091FC04E731F10508F02FCCE659F44DD8
:1056D0000C94BE33892B012CD82C2B2D592DDF2D6A
:1056E0009C2E9527952795279527952795279527CC
:1056F0009527952795279527592DA22DDF2DDF2D4D
:105700009C2E81E08093EE0425CF81E08093E3041A
:105710008ECF1092DE048091DD04811129C00E9499
:10572000E0050091A4041091A5042091A6043091F5
:10573000A704601B710B820B930B6333710581050A
:10574000910508F44FC00E94E0056093A404709393
:10575000A5048093A6049093A704C2010E94CE16CC
:10576000B20181EA96E00E94BF11C2010E940A12B2
:105770008091AD0481110DC00E94E0056093A904E1
:105780007093AA048093AB049093AC0481E080935F
:10579000AD040E94E0050091A9041091AA04209193
:1057A000AB043091AC04601B710B820B930B693E10
:1057B000734081059105F0F00E94E0056093A90413
:1057C0007093AA048093AB049093AC048091A804D6
:1057D00091E089278093A804882351F080EC80937E
:1057E000F20408C061EA76E0C2010E948C13B8CFCF
:1057F0001092F2040E947A0E1092DC041092DB04E4
:1058000094CB8091DD048111D1C08091C7048111B6
:105810000DC00E94E0056093C3047093C40480939C
:10582000C5049093C60481E08093C7048091BB04B3
:10583000811143C00E942C08BC01C2010E940615C0
:105840000E943E08BC01CE018D5B9F4F0E94061551
:105850000E943608BC01CE01815B9F4F0E94061555
:10586000BE01615B7F4FCE01875B9F4F0E948C130F
:10587000BE016D5B7F4FCE01875B9F4F0E94B312CD
:10588000B2010E94B312BC0185EB94E00E948C131C
:1058900081E08093BB04CE01875B9F4F0E940A1278
:1058A000CE01815B9F4F0E940A12CE018D5B9F4FFC
:1058B0000E940A12C2010E940A120E94E005009191
:1058C000C3041091C4042091C5043091C604601B28
:1058D000710B820B930B693E73408105910508F4AF
:1058E00058C00E94E0056093C3047093C404809381
:1058F000C5049093C6040E942C087C010E943E08B7
:10590000BC01CE018D5B9F4F0E9406150E94360898
:10591000BC01CE01815B9F4F0E940615BE01615BF9
:105920007F4FCE01875B9F4F0E948C13BE016D5B42
:105930007F4FCE01875B9F4F0E94B3128C014AE0DC
:10594000B201C7010E944C30F20101900020E9F73A
:105950003197AF0144195509B201C8010E943A12AA
:10596000811103C0C8010E94F811B80185EB94E0D1
:105970000E947513CE01875B9F4F0E940A12CE01D1
:10598000815B9F4F0E940A12CE018D5B9F4F0E9448
:105990000A1265EB74E0C2010E948C13B20181EA25
:1059A00096E00E94BF11C2010E940A1280E817CF40
:1059B00060916F0170917001C3010E9406156091A2
:1059C0006D0170916E01CE018D5B9F4F0E94061597
:1059D00060916B0170916C01CE01815B9F4F0E94C1
:1059E0000615BE01615B7F4FCE01875B9F4F0E9412
:1059F0008C13BE016D5B7F4FCE01875B9F4F0E9472
:105A0000B312B3010E94B3126FEB72E00E949D12B9
:105A1000BC0181EA96E00E947513CE01875B9F4F1F
:105A20000E940A12CE01815B9F4F0E940A12CE0192
:105A30008D5B9F4F0E940A12C3010E940A1280913F
:105A4000710190917201019789F580E88093F204C9
:105A50000E947A0E6ACA6091730170917401C30149
:105A60000E941C136FEB72E0CE018D5B9F4F0E9472
:105A70009513B301CE018D5B9F4F0E94B3126DEB66
:105A800072E00E949D12BC0181EA96E00E947513AB
:105A9000CE018D5B9F4F0E940A12C3010E940A1221
:105AA0008FEC90E09093DC048093DB041092F2047E
:105AB000CFCF8091DD04811126C081E02091750156
:105AC00030917601232B09F480E00E94B60CAB01E3
:105AD000BC01C2010E94C717B20181EA96E00E9490
