:100000000C9490000C94B8000C94B8000C94B800B8
:100010000C94B8000C94B8000C94B8000C94010532
:100020000C94B8000C94B8000C94B8000C945C05C7
:100030000C94B8000C94B8000C94C1050C94B80052
:100040000C94B7040C94B8000C9462030C943C0319
:100050000C94B8000C94B8000C94B8000C94B80040
:100060000C943E0A0C94B800401742173617381704
:100070003A173C173E1700000000250028002B000F
:1000800002010000000000240027002A00010204F1
:10009000081020408001020408102001020408100A
:1000A0002004040404040404040202020202020301
:1000B0000303030303496E636F7272656374205315
:1000C0006F6E6720466F726D617421005247423D2A
:1000D0006F6666005247423D6F6E0076616C7565D3
:1000E0003D006D656E75506F736974696F6E3D008C
:1000F0000000000023002600290000000008000284
:100100000100000304070000000000000000576128
:100110006B652075702C204E656F21006A1F621F71
:1001200011241FBECFEFD8E0DEBFCDBF13E0A0E0AB
:10013000B1E0E8ECF6E402C005900D92AA38B107F0
:10014000D9F725E0AAE8B3E001C01D92AF3EB2079F
:10015000E1F710E0CFE8D0E004C02197FE010E9453
:100160002420CE38D107C9F70E94A0120C9457233F
:100170000C9400000895CF92DF92EF92FF920F93BC
:100180001F93CF93DF936C017A018B01C0E0D0E025
:10019000CE15DF0589F0D8016D918D01D601ED9165
:1001A000FC910190F081E02DC6010995892B11F495
:1001B0007E0102C02196ECCFC701DF91CF911F9144
:1001C0000F91FF90EF90DF90CF900895FC01918DFB
:1001D000828D981761F0828DDF01A80FB11D5D96A9
:1001E0008C91928D9F5F9F73928F90E008958FEF17
:1001F0009FEF0895FC01918D828D981731F0828DCB
:10020000E80FF11D858D90E008958FEF9FEF089521
:10021000FC01918D228D892F90E0805C9F4F821B85
:1002200091098F73992708958BEE94E00E9408013D
:1002300021E0892B09F420E0822F0895FC01848DB0
:10024000DF01A80FB11DA35ABF4F2C91848D90E000
:1002500001968F739927848FA689B7892C93A089DB
:10026000B1898C9180648C93938D848D981306C092
:100270000288F389E02D80818F7D80830895EF923D
:10028000FF920F931F93CF93DF93EC0181E0888F50
:100290009B8D8C8D981305C0E889F989808185FD37
:1002A00024C0F62E0B8D10E00F5F1F4F0F73112728
:1002B000E02E8C8DE8120CC00FB607FCFACFE8894F
:1002C000F989808185FFF5CFCE010E941E01F1CF13
:1002D0008B8DFE01E80FF11DE35AFF4FF0820B8F6B
:1002E000EA89FB898081806207C0EE89FF8960838B
:1002F000E889F98980818064808381E090E0DF91E2
:10030000CF911F910F91FF90EF900895CF93DF93BE
:10031000EC01888D8823C9F0EA89FB89808185FDFD
:1003200005C0A889B9898C9186FD0FC00FB607FC5E
:10033000F5CF808185FFF2CFA889B9898C9185FF9F
:10034000EDCFCE010E941E01E7CFDF91CF9108953E
:1003500080E090E0892B29F00E94140181110C9417
:1003600000000895833081F028F4813099F08230C4
:10037000A1F008958730A9F08830B9F08430D1F425
:10038000809180008F7D03C0809180008F77809363
:100390008000089584B58F7702C084B58F7D84BDB9
:1003A00008958091B0008F7703C08091B0008F7D59
:1003B0008093B00008950E9410210F931F93CF9354
:1003C000DF93EC0188819981009729F02A813B8194
:1003D0002617370788F48B016F5F7F4F0E944620F6
:1003E000009761F0998388831B830A832C813D8168
:1003F000232B11F4FC01108281E001C080E0DF9129
:10040000CF911F910F910895EF92FF920F931F9339
:10041000CF93DF93FC01248135816115710511F4BF
:1004200080E019C041155105A9F07B01EC018A015A
:10043000020F131FB8010E94DD01882389F3288170
:1004400039818C819D81B701820F931F0E941E21EB
:100450001D830C8381E0DF91CF911F910F91FF905D
:10046000EF9008950F931F93CF93DF938C01EB01CF
:10047000FC01808191810097B1F0688179816115DB
:10048000710579F0428153812C813D8142175307D8
:1004900040F00E941E218C819D81F8019583848308
:1004A00013C00E94BA2188819981F80191838083C9
:1004B0008A819B81938382838C819D8195838483B0
:1004C000198218821B821A821D821C82DF91CF91B1
:1004D0001F910F910895CF93DF93EC01888199814B
:1004E000009711F00E94BA21198218821D821C8285
:1004F0001B821A82DF91CF910895CF93DF93EC0195
:100500006115710561F0FB0101900020E9F7319759
:10051000AF01461B570B0E940402811103C0CE019C
:100520000E946B02CE01DF91CF910895CF93DF93AC
:10053000EC01FB0144815581608171810E940402BC
:10054000811103C0CE010E946B02CE01DF91CF91D9
:100550000895EF92FF920F931F93CF93DF93EC01D7
:100560007B018A01BA010E94DD01811104C0CE0124
:100570000E946B0207C01D830C83B701888199819B
:100580000E941E21CE01DF91CF911F910F91FF900C
:10059000EF900895CF93DF93EC01FB018617970747
:1005A00061F0608171816115710529F04481558187
:1005B0000E94A90202C00E946B02CE01DF91CF917E
:1005C0000895FC01808191810C94BA21EF92FF92F1
:1005D0000F931F93CF93DF93CDB7DEB762970FB61C
:1005E000F894DEBF0FBECDBF8C01CB01F8011182A4
:1005F0001082138212821582148250E09E012F5FB6
:100600003F4F7901B9010E947922F7010190002042
:10061000E9F73197AF014E195F09B701C8010E9490
:10062000A90262960FB6F894DEBF0FBECDBFDF9170
:10063000CF911F910F91FF90EF900895FC011182CF
:10064000108213821282158214820C94CA02FC0159
:100650001182108213821282158214826115710533
:1006600051F0FB0101900020E9F73197AF01461BE3
:10067000570B0C94A90208951F920F920FB60F9278
:1006800011242F933F934F935F936F937F938F9397
:100690009F93AF93BF93EF93FF938BEE94E00E94F1
:1006A0001E01FF91EF91BF91AF919F918F917F912B
:1006B0006F915F914F913F912F910F900FBE0F90CF
:1006C0001F9018951F920F920FB60F9211242F931F
:1006D0008F939F93EF93FF93E091FB04F091FC04C1
:1006E0008081E0910105F091020582FD12C09081A8
:1006F000809104058F5F8F7320910505821751F05B
:10070000E0910405F0E0E551FB4F958F80930405DF
:1007100001C08081FF91EF919F918F912F910F9058
:100720000FBE0F901F9018951F93CF93DF93282F24
:1007300030E0F901E650FF4F8491F901E357FF4F94
:10074000D491F901EF55FF4FC491CC23C9F0162F76
:1007500081110E94B201EC2FF0E0EE0FFF1FEA586A
:10076000FF4FA591B4918FB7F894111105C09C91DA
:10077000ED2FE095E92302C0EC91ED2BEC938FBFB8
:10078000DF91CF911F910895CF93DF9390E0FC010B
:10079000E357FF4F2491FC01EF55FF4F84918823CD
:1007A00061F190E0880F991FFC01ED57FF4FC59153
:1007B000D491FC01EA58FF4FA591B491611109C091
:1007C0009FB7F8948881209582238883EC912E230B
:1007D0000BC0623061F49FB7F8943881822F809506
:1007E00083238883EC912E2B2C939FBF06C08FB759
:1007F000F894E8812E2B28838FBFDF91CF91089545
:100800001F93CF93DF93182FEB0161E00E94C40385
:10081000209711F460E004C0CF3FD10539F461E0C6
:10082000812FDF91CF911F910C949403E12FF0E081
:10083000E650FF4FE491E330F9F048F4E130B9F0CD
:10084000E230A1F584B5806284BDC8BD34C0E73014
:10085000E9F0E83019F1E43049F5809180008062D8
:1008600080938000D0938B00C0938A0024C084B50D
:10087000806884BDC7BD1FC0809180008068809360
:100880008000D0938900C093880015C08091B0008B
:1008900080688093B000C093B3000DC08091B00019
:1008A00080628093B000C093B40005C0C038D10509
:1008B0000CF0B5CFAFCFDF91CF911F9108953FB727
:1008C000F8948091330490913404A0913504B09150
:1008D000360426B5A89B05C02F3F19F00196A11D2F
:1008E000B11D3FBFBA2FA92F982F8827820F911DC6
:1008F000A11DB11DBC01CD0142E0660F771F881F0D
:10090000991F4A95D1F708952FB7F89460912F0455
:100910007091300480913104909132042FBF08957A
:1009200060932A0470932B0480932C0490932D04DD
:10093000DC01CB01845D9E4FAF4FBF4F80932604F7
:1009400090932704A0932804B093290482E090E0B8
:1009500090932504809324040E94840460932004CF
:1009600070932104809322049093230408951F928E
:100970000F920FB60F9211242F933F938F939F9353
:10098000AF93BF9380912F0490913004A0913104D4
:10099000B091320430912E0423E0230F2D3720F440
:1009A0000196A11DB11D05C026E8230F0296A11DC9
:1009B000B11D20932E0480932F0490933004A093B4
:1009C0003104B09332048091330490913404A091A7
:1009D0003504B09136040196A11DB11D80933304F6
:1009E00090933404A0933504B0933604BF91AF9133
:1009F0009F918F913F912F910F900FBE0F901F905D
:100A000018951F920F920FB60F9211242F933F93B8
:100A10004F935F936F937F938F939F93EF93FF9386
:100A20004091DD045091DE046091DF047091E00498
:100A3000411551056105710599F080918A03E09196
:100A40008B03F0918C0390818927808314161506FF
:100A500016061706D4F4415051096109710915C0F1
:100A6000809170008D7F8093700090918A03E09157
:100A70008B03F0918C038081282F30E0892F90E048
:100A8000809590958223932380834093DD04509337
:100A9000DE046093DF047093E004FF91EF919F9177
:100AA0008F917F916F915F914F913F912F910F9017
:100AB0000FBE0F901F9018951F920F920FB60F92B6
:100AC00011242F933F938F939F93AF93BF93EF93F3
:100AD000FF938091E1049091E204A091E304B0912E
:100AE000E404892B8A2B8B2B51F180918D03E091AB
:100AF0008E03F0918F039081892780838091E10498
:100B00009091E204A091E304B091E4041816190650
:100B10001A061B064CF58091E1049091E204A09125
:100B2000E304B091E4040197A109B1098093E104C1
:100B30009093E204A093E304B093E40415C0809181
:100B40006F008D7F80936F0090918D03E0918E03F5
:100B5000F0918F038081282F30E0892F90E08095DD
:100B60009095822393238083FF91EF91BF91AF9162
:100B70009F918F913F912F910F900FBE0F901F90DB
:100B800018951F920F920FB60F9211242F933F9337
:100B90008F939F93AF93BF93EF93FF938091E5045F
:100BA0009091E604A091E704B091E804892B8A2B88
:100BB0008B2B51F180919003E0919103F09192037E
:100BC0009081892780838091E5049091E604A0912B
:100BD000E704B091E804181619061A061B064CF52E
:100BE0008091E5049091E604A091E704B091E804B7
:100BF0000197A109B1098093E5049093E604A093BD
:100C0000E704B093E80415C080916E008D7F809357
:100C10006E0090919003E0919103F0919203808196
:100C2000282F30E0892F90E08095909582239323A0
:100C30008083FF91EF91BF91AF919F918F913F91F1
:100C40002F910F900FBE0F901F9018953F924F92CB
:100C50005F926F927F928F929F92AF92BF92CF924C
:100C6000DF92EF92FF920F931F93CF93DF93382E73
:100C7000962E842EF90184E6E816F1042CF082EB1E
:100C8000E81A87E0F80A03C08EE1E80EF11CE09252
:100C9000BD030093BC03E093BB033092B903909271
:100CA000B8038092B703AE2DB0E020E833E341EE05
:100CB00051E00E9406232B013C0122EB37E0FF2488
:100CC00084E6C82ED12CC0E9D1E0C901825B9740EF
:100CD0008E159F05DCF4C90183709927892B99F43F
:100CE000C901B6010E94CF1F892B31F4C901BE0191
:100CF0000E94CF1F892B39F480E8480E81E5581EE9
:100D000081E0681E711C2F5F3F4FDFCF8EE4E81A31
:100D100088EFF80AC70164E670E00E94CF1F6C01FB
:100D2000C70160E971E00E94CF1F5C01C1E0D0E023
:100D3000112783E0E822FF24C017D1072CF5C23029
:100D4000D10589F4E114F10471F4C114D10419F44A
:100D5000A114B10441F480E8480E8BE3581E86E2EA
:100D6000681E711C0FC0DE01AB56BD4FAC91B0E0E8
:100D700020E831E541E050E00E940623460E571E70
:100D8000681E791E2196D8CF292D30E0ACE3B0E063
:100D90000E9448236B017C01C80CD11CE11CF11C92
:100DA000232D30E0A0E1BEE00E944823C60ED71EEE
:100DB000E81EF91EDF01BB27119720E831E541E06D
:100DC00050E00E942A20DC01CB018C0D9D1DAE1D40
:100DD000BF1DBC01CD01640D751D861D971DDF91E2
:100DE000CF911F910F91FF90EF90DF90CF90BF9028
:100DF000AF909F908F907F906F905F904F903F90BB
:100E00000C949004CF92DF92EF92FF920F931F9376
:100E10000E948404C0902004D0902104E090220419
:100E2000F09023048B019C010C191D092E093F0928
:100E300080912A0490912B04A0912C04B0912D0450
:100E4000083E134021053105D0F00196A11DB11DCA
:100E500080932A0490932B04A0932C04B0932D0428
:100E6000B701A60148515C4F6F4F7F4F409320045C
:100E7000509321046093220470932304C9CF4091BE
:100E80002604509127046091280470912904841746
:100E90009507A607B70788F1E0911E04F0911F049B
:100EA000309759F10995611571058105910519F082
:100EB0000E94900422C080912A0490912B04A0915A
:100EC0002C04B0912D04845D9E4FAF4FBF4F809393
:100ED000260490932704A0932804B093290481E06A
:100EE00090E02091240430912504232B11F480E01C
:100EF00090E0909325048093240460912A047091DB
:100F00002B0480912C0490912D041F910F91FF9040
:100F1000EF90DF90CF9008954F925F926F927F9203
:100F20008F929F92AF92BF92CF92DF92EF92FF92F9
:100F30000F931F93CF93DF934B015C0180911A04B1
:100F400090911B04A0911C04B0911D048816990671
:100F5000AA06BB0609F4C2C08CE3C82ED12CE12C32
:100F6000F12CC501B401A70196010E94E31F609313
:100F7000B703CA01B901A70196010E94E31F60935C
:100F8000B803CA01B90128E130E040E050E00E9416
:100F9000E31F69017A016093B903CA01B9016C5F6B
:100FA0007F4F8F4F9F4F27E030E040E050E00E949E
:100FB000E31F6F5F6093BA03412C512C320140E074
:100FC00004E610E0C0E9D1E0242F30E02E54384F81
:100FD000F901E370FF27309789F4C901B8010E9435
:100FE000CF1F892B31F4C901BE010E94CF1F892B6D
:100FF00029F48EE691E0A0E0B0E004C08DE691E037
:10100000A0E0B0E0480E591E6A1E7B1ED301C2014B
:10101000AA27BB27C816D906EA06FB0610F04F5FC1
:10102000D3CF4093BD03309799F4C90164E670E0D3
:101030000E94CF1F892B39F4C90160E971E00E9439
:10104000CF1F892B29F48EE691E0A0E0B0E004C028
:101050008DE691E0A0E0B0E0481A590A6A0A7B0ADE
:10106000C418D508E608F708C90164E670E00E94D4
:10107000CF1FEC01C90160E971E00E94CF1FA6E912
:10108000B2E020E0213039F4309749F4209729F478
:10109000009729F402C04C9103C04DE101C04CE11E
:1010A00050E060E070E0C416D506E606F70640F0B2
:1010B000C41AD50AE60AF70A2F5F11962C3011F7E9
:1010C0002F5F2093BC03C394C092BB0380921A0489
:1010D00090921B04A0921C04B0921D04DF91CF914A
:1010E0001F910F91FF90EF90DF90CF90BF90AF9046
:1010F0009F908F907F906F905F904F9008950E9487
:1011000002070E948C078091BD0390E08E54984F97
:1011100008950E9402070E948C078091BC0390E012
:1011200008950E9402070E948C078091BB0390E003
:1011300008950E9402070E948C078091B70390E0F7
:1011400008950E9402070E948C078091B80390E0E6
:1011500008950E9402070E948C078091B90390E0D5
:101160000895CF92DF92EF92FF920F931F93CF9348
:10117000DF93EC010E9484046B017C012F8530E039
:10118000F901E650FF4F8491F901E357FF4F0491B5
:10119000F901EF55FF4F1491112379F081110E944D
:1011A000B201E12FF0E0EE0FFF1FE051FF4FA591DC
:1011B000B491EC91E02381E009F480E08170898BA7
:1011C0009889911103C091E08927898B89899A892F
:1011D000891721F0CD8ADE8AEF8AF88E4D895E89E3
:1011E0006F89788DC41AD50AE60AF70A4B815C81AB
:1011F0006D817E814C155D056E057F0564F49A81D5
:10120000891749F08A83882331F02B893C892F5F25
:101210003F4F3C8B2B8B9A8191110CC04F8158858D
:1012200069857A854C155D056E057F05ACF42B89C3
:101230003C890EC04B855C856D857E854C155D05B2
:101240006E057F054CF42B893C8931952195310938
:10125000398328831C8A1B8A8A8BDF91CF911F9147
:101260000F91FF90EF90DF90CF9008950F931F9311
:10127000CF93DF931F92CDB7DEB78C01862FF80195
:101280006787408B91E04927418B428B148A138AF0
:10129000118210821282158A168A178A108E44E1F2
:1012A00050E060E070E043835483658376834AEFC7
:1012B00050E060E070E0478350876187728748EEB6
:1012C00053E060E070E0438754876587768760E08D
:1012D00029830E94C403F8018089298181110BC0F0
:1012E000222349F061E087850F90DF91CF911F9114
:1012F0000F910C9494030F90DF91CF911F910F9158
:10130000089585ED8093BC008091BC0084FDFCCFE6
:101310001092B804089540916D04262F30E0240FF8
:10132000311D21323105DCF42091B8042430C9F498
:10133000FC0180E090E0861758F430916D04219113
:10134000DC01A55BBB4FA30FB11D2C930196F3CF1E
:1013500080916D04680F60936D0480E0089581E0D2
:10136000089582E008950895E09194038091930395
:10137000E81730F4F0E0EB56FC4F808190E00895E0
:101380008FEF9FEF089590919403809193039817A6
:1013900050F4E92FF0E0EB56FC4F208130E09F5FE6
:1013A0009093940302C02FEF3FEFC90108958091FD
:1013B000930390E020919403821B91090895CF92AA
:1013C000DF92EF92FF920F931F93CF93DF937C01F5
:1013D000262F972F8A018091B904882391F0C62F78
:1013E000D72F6E01C40ED51ECC15DD0571F06991A5
:1013F000D701ED91FC910190F081E02DC701099595
:10140000F3CF642F822F0E948B09C801DF91CF9107
:101410001F910F91FF90EF90DF90CF900895CF93A1
:10142000DF931F92CDB7DEB769832091B9042223E1
:10143000D1F02091DC04203240F021E030E0FC01CA
:101440003383228380E090E015C08091BA04E82FB6
:10145000F0E0E554FB4F998190838F5F8093BA044D
:101460008093DC0405C061E0CE0101960E948B09E7
:1014700081E090E00F90DF91CF9108951F920F923D
:101480000FB60F9211242F933F934F935F936F9357
:101490007F938F939F93AF93BF93EF93FF9380912D
:1014A000B900887F803609F49CC068F5883209F459
:1014B0005BC090F4803109F454C038F4882309F4F7
:1014C000F6C0883009F44DC0F6C0883109F44CC02C
:1014D000803209F45DC0EFC0803409F468C048F47C
:1014E000803309F455C0883309F0E5C08093B60411
:1014F000D8C0803509F44FC0883509F45DC0883400
:1015000009F0D9C0D6C0883909F4C7C0A8F4883713
:1015100009F467C038F4883609F463C0803709F4E9
:1015200060C0C9C0883809F4B8C0803909F45FC008
:10153000803809F0C0C05BC0803B09F486C038F435
:10154000803A09F466C0883A09F47FC0B4C0803C90
:1015500009F4A7C0883C09F4A4C0883B09F48AC0F8
:10156000AAC08091930410C09091B5048091B404F6
:10157000981770F5E091B50481E08E0F8093B50463
:10158000F0E0EC56FB4F80818093BB0085EC86C079
:101590008093B6048EC0E091B50481E08E0F8093F5
:1015A000B5048091BB00F0E0EC56FB4F8083909136
:1015B000B5048091B4046EC0E091B50481E08E0F53
:1015C0008093B5048091BB00F0E0EC56FB4F808324
:1015D0008091B70481116DC081E08093920484EA08
:1015E00061C083E08093B80410929104CFCF8091C2
:1015F0009104803208F051C0E091910481E08E0F97
:10160000809391048091BB00F0E0EF58FB4F808302
:10161000BDCF85EC8093BC001092B80480919104FA
:10162000803230F4E0919104F0E0EF58FB4F1082EB
:101630006091910470E0E0916F04F091700481E793
:1016400094E009951092910436C084E08093B80428
:1016500010926E0410926D04E0916B04F0916C0492
:10166000099580916D04811105C081E080936D041E
:1016700010924B04E0916E0481E08E0F80936E0413
:10168000F0E0E55BFB4F80818093BB0090916E049E
:1016900080916D04981708F479CF85E88093BC0099
:1016A0000AC085EC8093BC001092B80404C010926C
:1016B000B6040E948109FF91EF91BF91AF919F9174
:1016C0008F917F916F915F914F913F912F910F90EB
:1016D0000FBE0F901F9018950C94F8220C94F022D6
:1016E000CF92DF92EF92FF921F93CF93DF9390916F
:1016F000BF03911103C08FEF9FEF77C09091BE039E
:101700009923C9F3182FC091C703D091C8038091C2
:10171000430481110DC00E94840460933F047093C0
:101720004004809341049093420481E080934304F9
:101730000E948404C0903F04D0904004E090410493
:10174000F0904204DC01CB018C199D09AE09BF0960
:101750008D329140A105B105F8F00E948404609398
:101760003F0470934004809341049093420480911D
:101770003E0491E0982790933E04992329F010921B
:101780003D0410923C0408C08091C7039091C803A7
:1017900090933D0480933C0420913C0430913D049F
:1017A000209530954091C00350E02423352326FF37
:1017B00004C081E08093B60302C01092B60327FFF5
:1017C00004C081E08093B50302C01092B5038091FC
:1017D0003E04882309F48FCF02C0D595C7951A958A
:1017E000E2F7C0FF88CF80E09CE3DF91CF911F91AB
:1017F000FF90EF90DF90CF90089588E090E00E94F6
:101800006E0B682F89E00E94940389E090E00E94AB
:101810006E0B682F86E00E9494038AE090E00E949D
:101820006E0B682F83E00C9494030F931F938091A9
:101830005F0190916001892B09F455C080913B04B0
:101840008823A9F00E948404009137041091380481
:101850002091390430913A04DC01CB01801B910BBB
:10186000A20BB30B893E9340A105B105C8F5809149
:101870003B04811138C00E94A90820915901309180
:101880005A018217930779F50E94A10820915B0104
:1018900030915C018217930731F50E9499082091DD
:1018A0005D0130915E0182179307E9F40E94840480
:1018B00060933704709338048093390490933A040A
:1018C00081E080933B048EE091E00E9414118091AE
:1018D0000201909103019093CB038093CA0303C04C
:1018E00010923B04C4CF1F910F910895CF92DF92C5
:1018F000EF92FF920F931F93CF93DF93CDB7DEB795
:101900002C970FB6F894DEBF0FBECDBF8C0167E5F4
:1019100073E0CE0101960E9427030330110529F4DC
:1019200042E050E060E070E021C00C30110529F485
:1019300044E050E062E070E019C00033110519F492
:1019400046E050E007C0003F110539F44091E3053F
:101950005091E40564E070E009C0003C1105A9F471
:101960004091E3055091E40566E070E0CE010796F2
:101970000E942211BE01695F7F4FCE0101960E9435
:101980003202CE0107960E94E10289819A81009776
:1019900029F00E9452226B017C0103C0C12CD12C82
:1019A0007601CE0101960E94E102C6012C960FB687
:1019B000F894DEBF0FBECDBFDF91CF911F910F9185
:1019C000FF90EF90DF90CF9008950F931F93CF93E8
:1019D000DF93CDB7DEB762970FB6F894DEBF0FBEC8
:1019E000CDBF8C014AE06A3071054CF5CE010D96F1
:1019F0000E94E60265E873E0CE0101960E9427038B
:101A0000BE016F5F7F4FCE0107960E941E03BE018D
:101A1000635F7F4FCE0107960E949602BC01C8010A
:101A20000E941E03CE0107960E94E102CE0101969C
:101A30000E94E102CE010D960E94E10202C00E94C6
:101A4000E602C80162960FB6F894DEBF0FBECDBFA6
:101A5000DF91CF911F910F9108950F931F93CF9313
:101A6000DF93CDB7DEB768970FB6F894DEBF0FBE31
:101A7000CDBF8B01833081F44091E3055091E405A3
:101A800062E070E0CE010D960E942211B801CE01F5
:101A900001960E94E50C5AC08C30F1F54091E305A7
:101AA0005091E40564E070E0CE0143960E9422115B
:101AB000B801CE010D960E94E50C42E050E060E0D6
:101AC00070E0CE0101960E942211BE016F5F7F4F30
:101AD000CE0107960E941E03BE01635F7F4FCE01B9
:101AE00007960E949602BE016D5E7F4F0E9496028D
:101AF000BC018FED95E00E94CA02CE0107960E94BC
:101B0000E102CE0101960E94E102CE010D960E94F3
:101B1000E102CE01439637C0803311F0803F41F49B
:101B2000B801CE010D960E94E50C44E050E008C0DB
:101B3000803C59F5CE010D960E94E50C46E050E040
:101B400060E070E0CE0101960E942211BE016F5F3D
:101B50007F4FCE0107960E941E03BE01635F7F4F39
:101B6000CE0107960E949602BC018FED95E00E947F
:101B7000CA02CE0107960E94E102CE0101960E94A0
:101B8000E102CE010D960E94E10268960FB6F8942C
:101B9000DEBF0FBECDBFDF91CF911F910F91089592
:101BA0000E9484046093C3037093C4038093C503AD
:101BB0009093C6038091C903882309F468C02091DB
:101BC000C1033091C203C901880F991F2E3031051E
:101BD00051F0FC01EB5BFE4F4081518141505109B6
:101BE000518340830AC040916101509162014C5081
:101BF00051095093620140936101DC01AB5BBE4F20
:101C00006D917C911197FC01EC5FFE4F40815181F9
:101C1000641775073CF4FC01EE5DFE4F80819181F5
:101C20008D939C932D30310521F580915F0190912A
:101C30006001019721F480E88093C00302C01092F4
:101C4000C00389E593E00E94A010E091C103F091E8
:101C5000C203EE0FFF1FEB5BFE4F808191810E945C
:101C6000731184E693E00E94A0108091C0030E944B
:101C7000AC11E091C103F091C203EE0FFF1FEB5BCB
:101C8000FE4F608171818091C7030C942D0D0895E2
:101C90000E9484046093C3037093C4038093C503BC
:101CA0009093C6038091C903882309F468C02091EA
:101CB000C1033091C203C901880F991F2E3031052D
:101CC00051F0FC01EB5BFE4F408151814F5F5F4F54
:101CD000518340830AC04091610150916201445F89
:101CE0005F4F5093620140936101DC01AB5BBE4FDB
:101CF0006D917C911197FC01EE5DFE4F4081518109
:101D0000461757073CF4FC01EC5FFE4F8081918140
:101D10008D939C932D30310521F580915F01909139
:101D20006001019721F480E88093C00302C0109203
:101D3000C00380E793E00E94A010E091C103F091FE
:101D4000C203EE0FFF1FEB5BFE4F808191810E946B
:101D5000731184E693E00E94A0108091C0030E945A
:101D6000AC11E091C103F091C203EE0FFF1FEB5BDA
:101D7000FE4F608171818091C7030C942D0D0895F1
:101D80008EBD00000DB407FEFDCF8EB508953F92C5
:101D90004F925F926F927F928F929F92AF92BF927B
:101DA000CF92DF92EF92FF920F931F93CF93DF9327
:101DB00000D000D0CDB7DEB72091EA0427FDAAC13C
:101DC00049835A836B837C838C0161E08091E904B1
:101DD0000E94C4033090EA04832D8D7F4801A12C1A
:101DE000B12C09F0B7C060E072E18AE790E0A5018C
:101DF00094010E94052029013A0169017A0121E03C
:101E0000C21AD108E108F1088FEFC816D104E10425
:101E1000F10409F008F44CC060E472E48FE090E053
:101E2000A50194010E94052069017A0191E0C91A77
:101E3000D108E108F108A2E03A1220C0BFEFCB16AA
:101E4000D104E104F10409F008F462C160E970ED25
:101E500083E090E0A50194010E94052069017A01C8
:101E6000E1E0CE1AD108E108F108FFEFCF16D10466
:101E7000E104F10409F0C0F583E065C02FEFC2165C
:101E8000D104E104F104B1F0A8F068E478EE81E057
:101E900090E0A50194010E94052069017A0181E08A
:101EA000C81AD108E108F108332009F4D9C027C1C4
:101EB00081E001C082E0332091F045C0D301C2012E
:101EC0002AE0B595A795979587952A95D1F76C0146
:101ED0007D01E1E0CE1AD108E108F10885E095B571
:101EE000987F892B85BD66C068E478EE81E090E03C
:101EF000A50194010E94052069017A01B1E0CB1A85
:101F0000D108E108F108EFEFCE16D104E104F104A5
:101F100009F008F4A3C064E274EF80E090E0A5014A
:101F200094010E94052069017A0191E0C91AD10843
:101F3000E108F108AFEFCA16D104E104F10411F091
:101F400008F0B0C085E09091B100987F892B809314
:101F5000B10030C060E072E18AE790E0A501940131
:101F60000E94052069017A01F1E0CF1AD108E10849
:101F7000F108C114D10421E0E206F10488F068E41C
:101F800078EE81E090E0A50194010E9405206901AE
:101F90007A0181E0C81AD108E108F10893E001C094
:101FA00091E0A1E03A1206C080918100887F892BE0
:101FB0008093810089819A81AB81BC81892B8A2B96
:101FC0008B2B81F0D801AA0FBB1F29813A814B814D
:101FD0005C810E94062328EE33E040E050E00E943E
:101FE000E31F03C02FEF3FEFA90191E03916A1F0E5
:101FF000A2E03A1619F131108DC0C7BC2093E50458
:102000003093E6044093E7045093E80480916E0017
:10201000826080936E007EC0D0928900C09288005A
:102020002093E1043093E2044093E3045093E404EA
:1020300080916F00826080936F006CC0C092B3008B
:102040002093DD043093DE044093DF045093E004DA
:10205000809170008260809370005CC084E073CFD8
:102060008FEFC816D104E104F104D1F0C8F062E1A9
:102070007AE780E090E0A50194010E9405206901C3
:102080007A01F1E0CF1AD108E108F1082FEFC2166A
:10209000D104E104F10411F008F010CF84E01FCF67
:1020A00083E01DCF62E17AE780E090E0A501940132
:1020B0000E94052069017A0191E0C91AD108E1085E
:1020C000F108AFEFCA16D104E104F104B1F0A8F0B1
:1020D000D301C2014AE0B595A795979587954A9592
:1020E000D1F76C017D01E1E0CE1AD108E108F108D9
:1020F000332009F4F3CE87E026CF86E0DCCEBFEFB5
:10210000CB16D104E104F10409F060F684E0D3CEEB
:1021100082E019CF0F900F900F900F90DF91CF9129
:102120001F910F91FF90EF90DF90CF90BF90AF90F5
:102130009F908F907F906F905F904F903F90089509
:10214000009769F0FC0101900020E9F73197AF0199
:10215000481B590BBC018BEE94E00C94BB0080E053
:1021600090E008958F929F92AF92BF920F931F932A
:10217000CF93DF93CDB7DEB7A1970FB6F894DEBF4C
:102180000FBECDBF19A2423008F44AE08E010F5DA8
:102190001F4F842E912CA12CB12CA50194010E94DB
:1021A000E31FE62FB901CA0101501109EA3014F406
:1021B000E05D01C0E95CD801EC93232B242B252B97
:1021C00061F7C8010E94A010A1960FB6F894DEBF77
:1021D0000FBECDBFDF91CF911F910F91BF90AF90F8
:1021E0009F908F9008950F931F93CF93DF938C014F
:1021F000C0E0D0E0F801EC0FFD1F6491662371F0A0
:10220000E091EB04F091EC040190F081E02D8BEE75
:1022100094E00995892B11F02196ECCFCE01DF9146
:10222000CF911F910F910895CF93DF930E94F310E8
:10223000EC0187E893E00E94A0108C0F9D1FDF91B6
:10224000CF910895DF92EF92FF920F931F93CF9358
:10225000DF937C01EB018A014617570720F48D2F8D
:10226000EA01062F182F69E873E0C7010E942703CF
:102270008091E3059091E405C817D90758F58017B8
:10228000910708F48C01E091DF05F091E005E00F83
:10229000F11FD08010826091DF057091E0056C0F16
:1022A0007D1F6115710561F0FB0101900020E9F7C8
:1022B0003197AF01461B570BC7010E94A90203C00B
:1022C000C7010E946B02E091DF05F091E005E00F8D
:1022D000F11FD082C701DF91CF911F910F91FF9025
:1022E000EF90DF900895CF92DF92EF92FF92CF931D
:1022F000DF936C01990FEE08FF08F7FE1AC0E0911A
:10230000EB04F091EC040190F081E02D6DE28BEE96
:1023100094E00995EC0166277727CB016C197D09BC
:102320008E099F094AE00E94B2107C01EC0EFD1E4E
:1023300006C04AE0C701B6010E94B2107C0187E8DE
:1023400093E00E94A0108E0D9F1DDF91CF91FF9012
:10235000EF90DF90CF900895CF93DF93682F70E0D8
:1023600080E090E042E00E94B210EC0187E893E048
:102370000E94A0108C0F9D1FDF91CF910895209196
:10238000DC049091DB04213208F04AC08091B8044B
:102390008111FCCF32E03093B80431E03093B704C0
:1023A0003FEF3093B6041092B5042093B404ABEB26
:1023B000B4E044E954E0FA013E2F341B321718F41C
:1023C0003D913193F9CF1092930420919304990F8A
:1023D000922B9093930490919204913061F4109217
:1023E0009204909193049093BB009091BC0093FD54
:1023F000F8CF95EC01C095EE9093BC009091B80495
:102400009230E1F39091B6049F3F79F08091B60449
:10241000803241F08091B604803331F084E005C011
:1024200081E003C082E001C083E01092BA04109200
:10243000DC041092B9040895DF92EF92FF920F939B
:102440001F93CF93DF9300D0CDB7DEB7F82E162FB2
:1024500081E08093B90488E68093DB041092BA048B
:102460001092DC0460E088E895E02A8349830E94AA
:102470000F0A8AE0D82E4981842F6D2D0E94C31F38
:10248000692F30E1839F600D112488E895E00E9458
:102490000F0A812F6D2D0E94C31F692F30E1839F8A
:1024A000600D112488E895E00E940F0A8F2D6D2D94
:1024B0000E94C31F692F30E1839F600D112488E8BB
:1024C00095E00E940F0A61E088E895E00E940F0AFB
:1024D0002A81822F6D2D0E94C31F692F20E1829FC8
:1024E000600D112488E895E00E940F0A802F6D2D61
:1024F0000E94C31F692F30E1839F600D112488E87B
:1025000095E00E940F0A8E2D6D2D0E94C31F692F2A
:1025100020E1829F600D112488E895E00E940F0A57
:1025200060E088E895E00E940F0A0F900F90DF911D
:10253000CF911F910F91FF90EF90DF900C94BF11FE
:10254000CF93DF93CDB7DEB7EF970FB6F894DEBF2A
:102550000FBECDBF789484B5826084BD84B58160A0
:1025600084BD85B5826085BD85B5816085BD80915E
:102570006E00816080936E001092810080918100D6
:1025800082608093810080918100816080938100CE
:10259000809180008160809380008091B100846090
:1025A0008093B1008091B00081608093B0008091F1
:1025B0007A00846080937A0080917A0082608093B0
:1025C0007A0080917A00816080937A0080917A000D
:1025D000806880937A001092C10061E085E00E94DB
:1025E000C40360E085E00E9494031092940310926B
:1025F00093031092BA041092DC041092B80481E0A4
:102600008093B7041092920461E082E10E949403E7
:1026100061E083E10E9494038091B9008E7F8093F2
:10262000B9008091B9008D7F8093B90088E48093D0
:10263000B80085E48093BC00E091FB04F091FC04B9
:1026400082E08083E091F704F091F8041082E09139
:10265000F904F091FA0480E1808310920305E0917F
:10266000FF04F091000586E08083E091FD04F09185
:10267000FE04808180618083E091FD04F091FE047E
:10268000808188608083E091FD04F091FE04808168
:1026900080688083E091FD04F091FE0480818F7D4D
:1026A000808383E398E0909335018093340181EE39
:1026B00097E09093170180931601909358018093AF
:1026C000570180EF90E0909376018093750183EC41
:1026D00092E00E94A01080917501909176010E9475
:1026E000731181E090E00E946E0B8C3019F088E14C
:1026F00090E002C08CE090E09093620180936101D1
:1027000080E090E00E946E0B882321F081E08093AE
:10271000420102C01092420182E090E00E946E0BE2
:102720008F3F29F410925A011092590105C090E090
:1027300090935A018093590183E090E00E946E0BC0
:102740008F3F29F410925C0110925B0105C090E06C
:1027500090935C0180935B0184E090E00E946E0B9B
:102760008F3F29F410925E0110925D0105C090E048
:1027700090935E0180935D0186E090E00E946E0B75
:102780008F3F29F41092600110925F0105C090E024
:102790009093600180935F0187E090E00E946E0B50
:1027A0008F3F19F41092130406C091E0811101C00B
:1027B00090E09093130461E089E00E94C40361E01B
:1027C00086E00E94C40361E083E00E94C40380911C
:1027D000CC03833008F083C092E09093E904E82FA3
:1027E000F0E0E058FF4FE491E093EA048F5F8093BC
:1027F000CC03E13031F1E23009F44AC0E11172C09A
:1028000014BC15BC84B5826084BD85B5816085BD6E
:102810008091E90490E0FC01EF55FF4FE491F0E076
:10282000EE0FFF1FEA58FF4F25913491309392032A
:1028300020939103FC01E357FF4FE491E093900351
:1028400051C01092800010928100809181008860B8
:1028500080938100809181008160809381008091CC
:10286000E90490E0FC01EF55FF4FE491F0E0EE0F3A
:10287000FF1FEA58FF4F2591349130938F03209327
:102880008E03FC01E357FF4FE491E0938D032AC0D0
:102890001092B0001092B1008091B00082608093DD
:1028A000B0008091B10081608093B1008091E90413
:1028B00090E0FC01EF55FF4FE491F0E0EE0FFF1FB9
:1028C000EA58FF4F2591349130938C0320938B036A
:1028D000FC01E357FF4FE491E0938A0303C08FEFBD
:1028E0008093EA048091020190910301FC0101961A
:1028F00020812A33D9F78C018181843621F53396E2
:1029000020E030E04AE0DF018081319690ED980FC1
:102910009A3068F4429FB001439F700D1124082E35
:10292000000C990BC0979B01280F391FECCF3093F7
:10293000E3032093E2032115310511F020934101B7
:102940008D010F5F1F4FD8018C918F3699F412962D
:102950008C91082E000C990B9C0120533109309367
:10296000E3032093E203C397059710F420934001FB
:102970000C5F1F4FF80180818236F9F4329620E017
:1029800030E04AE0819190ED980F9A3068F4429FD0
:10299000B001439F700D1124082E000C990BC097B5
:1029A0009B01280F391FEECF3093E3032093E203FE
:1029B00030930101209300018F012091000130919B
:1029C0000101032E000C440B550B60E67AEE80E00B
:1029D00090E00E940520DA01C90122E0880F991FCA
:1029E000AA1FBB1F2A95D1F78093DE039093DF03C4
:1029F000A093E003B093E10310930301009302015D
:102A000061E08AE00E94C40361E088E00E94C403A0
:102A100060E088E00E9494031FB7F8948091CD0392
:102A2000811127C0EBEAF0E08491E7E9F0E09491AE
:102A3000E82FF0E0EE0FFF1FED57FF4FA591B49187
:102A4000EC91E92321F461E08AE00E94940361E0C3
:102A50008AE00E94C4038CB580618CBD8CB5806413
:102A60008CBD61E08DE00E94C40361E08BE00E94B8
:102A7000C4038091CD038F5F8093CD031FBF8CB5BE
:102A8000837F88608CBD8CB58C7F81608CBD8DB55B
:102A900081608DBD8CB50E94AC118CB50E94AC11CB
:102AA00062E08EE00E94C40362E080E10E94C40301
:102AB00062E08FE00E94C40361E082E00E94C403F0
:102AC00004E110E020E030E00093C9051093CA054E
:102AD0002093CB053093CC054EE150E060E070E0F0
:102AE0004093CD055093CE056093CF057093D005EC
:102AF00080ED97E0A0E0B0E08093D1059093D205FF
:102B0000A093D305B093D4050093B0051093B105FD
:102B10002093B2053093B3054093B4055093B505A7
:102B20006093B6057093B7058093B8059093B90587
:102B3000A093BA05B093BB05009397051093980531
:102B40002093990530939A0540939B0550939C05DB
:102B500060939D0570939E0580939F059093A005BB
:102B6000A093A105B093A2058091130481110E9446
:102B7000FD0B81E08093B90488E68093DB0410921A
:102B8000BA041092DC0460E088E895E00E940F0A25
:102B90000E94BF118091B8048111FCCF81E0809325
:102BA000B8048093B7049FEF9093B6041092B504D5
:102BB00096E09093B4048093930480919304806D85
:102BC0008093930480919204813061F41092920476
:102BD000809193048093BB008091BC0083FDF8CF6B
:102BE00085EC01C085EE8093BC008091B8048130F3
:102BF000E1F38091B504873018F48091B50401C0E9
:102C000087E0A4E9B4E025E933E0F9019E2F921BA7
:102C1000981718F49D919193F9CF10929403809393
:102C2000930388E895E00E94C309982F92959F70BE
:102C30008F70A82EFAE09F9FA00C11244A2C512CD3
:102C40005092D5034092D40388E895E00E94C309CE
:102C5000982F92959F708F702AE0929F800D11247B
:102C60008FAB682E712C7092D3036092D20388E8E8
:102C700095E00E94C309982F969596959695967023
:102C8000292F220F220F920F8F70980F9BAF892E42
:102C9000912C9092D1038092D00388E895E00E9415
:102CA000C309982F92959F708F703AE0939F800D83
:102CB000112490E09093CF038093CE0388E895E0B1
:102CC0000E94C309982F92959F708F70D82E4AE06A
:102CD000949FD00C11242D2C312C3092D7032092AC
:102CE000D60388E895E00E94C309982F92959F70BB
:102CF0008F70C82E5AE0959FC00C11240C2D10E047
:102D00001093D9030093D80388E895E00E94C30983
:102D1000982F92959F708F70B82E6AE0969FB00C96
:102D20001124EB2CF12CF092DB03E092DA039101F9
:102D3000A201B301C4010E94260660E085E00E9462
:102D40009403EB2C0C2D2D2D4A2D6FA98BAD0E94D9
:102D50001C1261E085E00E949403BAE04B2E512CD6
:102D6000612C712CCE0101966C010091CA03109167
:102D7000CB03D8018C91882309F43BC10E948404C1
:102D80008090E8039090E903A090EA03B090EB03F1
:102D9000DC01CB0188199909AA09BB098090E403D9
:102DA0009090E503A090E603B090E703881699069B
:102DB000AA06BB0608F01DC10E9484044B015C01F9
:102DC0006093E8037093E9038093EA039093EB0325
:102DD000C80120E030E06AE07C01FC01108101962E
:102DE00040ED410F4A3068F4629FA001639F500D8F
:102DF0001124212F110F330B20533109240F351FBC
:102E0000EBCF3093E3032093E2036091DE037091F4
:102E1000DF038091E0039091E1032115310529F052
:102E2000032E000C440B550B05C02091410130E0EE
:102E300040E050E00E9405202093E4033093E50336
:102E40004093E6035093E703812F110F990BAA0BD0
:102E5000BB0BFC01E156F109E730F10520F4EC5C15
:102E6000FF4F0C9424201092DD030FC081E00BC0B3
:102E700083E009C085E007C086E005C088E003C0A4
:102E80008AE001C08CE08093DD03D70111968C911C
:102E9000833221F087010F5F1F4F08C08091DD034F
:102EA0008F5F8093DD0387010E5F1F4FF8018081E4
:102EB0008E3231F52091E4033091E5034091E60331
:102EC0005091E7032FAB38AF49AF5AAFCA01B901F0
:102ED00022E030E040E050E00E9405208FA998AD4C
:102EE000A9ADBAAD820F931FA41FB51F8093E40351
:102EF0009093E503A093E603B093E7030F5F1F4FA2
:102F0000D8018C9180538A3028F48093DC030F5FC2
:102F10001F4F04C0809140018093DC038091DC034B
:102F2000F80190819C3211F40F5F1F4F2091DD0357
:102F3000222309F45EC04091E4035091E5036091BF
:102F4000E6037091E7034FAB58AF69AF7AAF90E0FB
:102F500004973CE0389FF001399FF00D1124E20FF7
:102F6000F11DEE0FFF1FE156FE4F808191810E94FF
:102F7000C70E0E948404DC01CB0188199909AA09B3
:102F8000BB092FA938AD49AD5AAD281739074A07F3
:102F90005B0778F50E9484046093E8037093E9036B
:102FA0008093EA039093EB038091EA04813051F01F
:102FB000823071F0811111C080916E008D7F8093FD
:102FC0006E000BC080916F008D7F80936F0005C0F5
:102FD000809170008D7F8093700060E08091E904A3
:102FE0000E94940385EB90E00E94141190E080E031
:102FF00002C0902F812F9093CA038093CB030E942D
:103000008404009116041091170420911804309143
:103010001904DC01CB01801B910BA20BB30B0697AB
:10302000A105B10508F489C080914201811110C049
:1030300060E070E089E00E94000460E070E086E0FB
:103040000E94000460E070E083E00E9400046BC016
:1030500080911304811167C00091EE031091EF037A
:10306000C801880F991F800F911FFC01EE0FFF1FF1
:10307000EF5FFD4F609143017091440120813181E8
:10308000620F731F7093440160934301FC01EE0FC4
:10309000FF1FED5FFD4F20910B0430910C04E08089
:1030A000F180E20EF31EF0920C04E0920B04880F04
:1030B000991FFC01EB5FFD4F8091090490910A0478
:1030C000A080B180A80EB91EB0920A04A092090493
:1030D00089E00E940004B70186E00E940004B50167
:1030E00083E00E9400048091EC039091ED0301962F
:1030F0009093ED038093EC038F3F910551F40F5FA4
:103100001F4F1093EF030093EE031092ED03109204
:10311000EC038091EE039091EF03069724F0109258
:10312000EF031092EE030E948404609316047093E0
:10313000170480931804909319040E945F0400916F
:10314000F0031091F1032091F2033091F303DC01BD
:10315000CB01801B910BA20BB30B8A319144A105CB
:10316000B10508F49DC10E945F046093F003709361
:10317000F1038093F2039093F3038091DF05909124
:10318000E005009719F00E94522203C060E070E051
:10319000CB01A30192010E940520660F771FFB015E
:1031A000EB5DFD4FE080F18087E090E02FAF3CAF1A
:1031B0004EAF5DAF0E94700B8C012FAD3CAD4EAD9C
:1031C0005DADCA01B901A30192010E940520660FFD
:1031D000771FFB01EB5DFD4F8080918086E090E0E2
:1031E0002FAF3CAF4EAF5DAF0E94700B882199218D
:1031F000A0E0B0E0470180229122A12CB12C2AE06E
:10320000880C991CAA1CBB1C2A95D1F7882A992ADC
:10321000AA2ABB2A8091B6032FAD3CAD4EAD5DAD61
:10322000811102C06894B6F88091B503811102C083
:103230006894B7F860E08AE02FAF3CAF4EAF5DAF67
:103240000E9494038B2D0E94C00E8A2D0E94C00EF6
:10325000892D0E94C00E882D0E94C00E2FAD3CAD5E
:103260004EAD5DADCA01B901A30192010E940520D6
:10327000660F771FFB01EB5DFD4F0081118185E03B
:1032800090E02FAF3CAF4EAF5DAF0E94700B7C0162
:103290002FAD3CAD4EAD5DADCA01B901A3019201A8
:1032A0000E940520660F771FFB01EB5DFD4FA0809C
:1032B000B18084E090E02FAF3CAF4EAF5DAF0E9495
:1032C000700BE022F12200E010E0A4E1EE0CFF1C04
:1032D000001F111FAA95D1F78A219B214C01A12C17
:1032E000B12CBAE0880C991CAA1CBB1CBA95D1F76A
:1032F0008E289F28A02AB12A2FAD3CAD4EAD5DADE2
:10330000CA01B901A30192010E940520660F771F2F
:10331000FB01EB5DFD4F0081118183E090E02FAF59
:103320003CAF4EAF5DAF0E94700B80239123A0E0B5
:10333000B0E0882A992AAA2ABB2A8091B6032FAD29
:103340003CAD4EAD5DAD882319F0E894B6F802C0EF
:103350006894B6F88091B503882319F0E894B7F81B
:1033600002C06894B7F88B2D2FAF3CAF4EAF5DAF66
:103370000E94C00E8A2D0E94C00E892D0E94C00E90
:10338000882D0E94C00E2FAD3CAD4EAD5DADCA0183
:10339000B901A30192010E940520660F771FFB016E
:1033A000EB5DFD4F0081118182E090E02FAF3CAFDB
:1033B0004EAF5DAF0E94700B7C012FAD3CAD4EADAA
:1033C0005DADCA01B901A30192010E940520660FFB
:1033D000771FFB01EB5DFD4FA080B18081E090E0A5
:1033E0002FAF3CAF4EAF5DAF0E94700BE022F122D9
:1033F00000E010E024E1EE0CFF1C001F111F2A95D5
:10340000D1F78A219B214C01A12CB12C3AE0880CE8
:10341000991CAA1CBB1C3A95D1F78E289F28A02A7C
:10342000B12A2FAD3CAD4EAD5DADCA01B901A301CE
:1034300092010E940520660F771FFB01EB5DFD4F97
:103440000081118180E090E00E94700B8023912325
:10345000A0E0B0E0882A992AAA2ABB2A8091B60364
:10346000882319F0E894B6F802C06894B6F8809101
:10347000B503882319F0E894B7F802C06894B7F848
:103480008B2D0E94C00E8A2D0E94C00E892D0E9495
:10349000C00E882D0E94C00E61E08AE00E94940355
:1034A00086EC95E00E94B1088DEA95E00E94B10893
:1034B00084E995E00E94B1088091C903811105C09B
:1034C0001092C8031092C70330C00E948404009178
:1034D000C3031091C4032091C5033091C603DC01DE
:1034E000CB01801B910BA20BB30B81369A4EA10529
:1034F000B105D8F01092C903E091C103F091C20365
:10350000EE0FFF1FE858FD4F808191819093C20319
:103510008093C103880F991FFC01ED59FE4F8081F4
:1035200091819093C8038093C7038091C6059091C1
:10353000C705181619060CF039C11092CB0310926A
:10354000CA0344E650E060E070E088EE93E00E9439
:10355000C70E0E9484046093C3037093C4038093D6
:10356000C5039093C6038091C1039091C203019655
:103570008430910529F09093C2038093C10304C065
:103580001092C2031092C10382EE90E00E94F310E9
:103590008091C1039091C2030E9473118BED90E062
:1035A0000E94F310E091C103F091C203EE0FFF1FE0
:1035B000EB5BFE4F808191810E9473112091C103CA
:1035C0003091C203F901EE0FFF1FED59FE4F8081CC
:1035D00091819093C8038093C70321503109F90169
:1035E000EE0FFF1FE65AFD4F4081518141155105F5
:1035F00009F4CBC0CA010197FC01EE0FFF1FE45C88
:10360000FD4F608171816217730709F0BEC04230BF
:10361000510569F528E1E7E8F1E0D60101900D9246
:103620002A95E1F7209157013091580123703327F3
:10363000232B21F42DE130E03C832B832091530197
:1036400030915401E0915501F09156013197EE0F00
:10365000FF1FEC0DFD1D40815181421753073CF4C3
:1036600087E090E09093C2038093C10327C4109237
:10367000C9039093C2038093C103892BB9F40E94BC
:103680007F087C010E9489088C010E9491089C019E
:10369000409151015091520160914F017091500140
:1036A00080914D0190914E010E9426068091C103A8
:1036B0009091C2030197C9F4E0905701F09058012E
:1036C0000091550110915601209053013090540102
:1036D0000E9499084C010E94A1085C010E94A9085F
:1036E0009101A401B5010E9426068091C103909129
:1036F000C2030297C1F46091590182E090E00E94F8
:103700006C0B60915B0183E090E00E946C0B609118
:103710005D0184E090E00E946C0B60915F0186E0A7
:1037200090E00E946C0B8091C1039091C2030397BB
:1037300031F46091610181E090E00E946C0B60E0E7
:1037400085E00E9494030E947F087C010E94890802
:10375000082F0E9491088FAF0E9499088EAF0E9497
:10376000A108182F0E94A908382FC70168EE73E03E
:103770000E94CF1FE82E2FAD4EAD612F832F0E94E8
:103780001C1261E085E00E9494030091C103109136
:10379000C2038091C7039091C8030E94760C000F6A
:1037A000111FF801EB5BFE4F918380838091C6056A
:1037B0009091C70597FF8CC044E650E060E070E050
:1037C00088EE93E00E94C70E8091C90381114DC01D
:1037D0000E9484046093C3037093C4038093C50361
:1037E0009093C6038091C1039091C203892BE9F5A0
:1037F0000E949908BC01C6010E94E50C0E94A10824
:10380000BC01CE0149960E94E50C0E94A908BC01AA
:10381000CE0185960E94E50CBE016B5D7F4FCE0107
:103820004F960E941E03BE01675E7F4FCE014F96EA
:103830000E949602B6010E94960264E873E00E941C
:103840007D02BC018FED95E00E94CA02CE014F9629
:103850000E94E102CE0185960E94E102CE014996C6
:103860000E94E102C6010E94E102E091C103F091D1
:10387000C203EE0FFF1FE858FD4F808191819093A6
:10388000C2038093C1038A30910549F421E030E0FE
:103890003093600120935F0120E82093C0033091B2
:1038A000C90321E023272093C9038C01000F111FB6
:1038B000F801ED59FE4F808191819093C803809368
:1038C000C7030E94760CF801EB5BFE4F9183808367
:1038D0008091AD059091AE05009701F1909315048C
:1038E0008093140418161906CCF41092CB0310928E
:1038F000CA0344E650E060E070E088EE93E00E9486
:10390000C70E0E94480E8091C903811107C0109212
:10391000130460E087E090E00E946C0B8091140437
:1039200090911504019661F58091AF05882341F1CE
:103930001092BF038091C903882329F10E94840457
:1039400000910F0410911004209111043091120481
:10395000DC01CB01801B910BA20BB30B87399105C6
:10396000A105B10580F00E94840460930F04709358
:10397000100480931104909312040E94480E03C017
:1039800081E08093BF038091940590919505009705
:1039900099F190930E0480930D041816190664F59E
:1039A0001092CB031092CA0344E650E060E070E04E
:1039B00088EE93E00E94C70E0E94D00D8091C9034B
:1039C00081111AC081E08093130461E087E090E0E8
:1039D0000E946C0B6091430188E090E00E946C0BA8
:1039E00060910B0489E090E00E946C0B60910904E7
:1039F0008AE090E00E946C0B80910D0490910E047F
:103A0000019661F580919605882341F11092BE03DD
:103A10008091C903882329F10E9484040091050440
:103A2000109106042091070430910804DC01CB01B9
:103A3000801B910BA20BB30B87399105A105B10532
:103A400080F00E94840460930504709306048093C0
:103A50000704909308040E94D00D03C081E0809376
:103A6000BE038091C903811135C08091AD0590914D
:103A7000AE0597FF16C044E650E060E070E088EEC7
:103A800093E00E94C70E81E08093420161E080E0F4
:103A900090E00E946C0B84ED90E00E9414110E9453
:103AA000FD0B809194059091950597FF13C044E616
:103AB00050E060E070E088EE93E00E94C70E109244
:103AC000420160E080E090E00E946C0B8CEC90E0A2
:103AD0000E9414118091C1039091C203813091051D
:103AE00009F455C11CF4892B61F1E8C182309105BC
:103AF00009F496C1039709F0E1C1609161017091E9
:103B000062014AE0C6010E94E60264E873E0CE0169
:103B100049960E942703B601CE0149960E9496025B
:103B200062E873E00E947D02BC018FED95E00E9487
:103B3000CA02CE0149960E94E102C6010E94E1023A
:103B4000B9C10E9484040091F4031091F5032091FF
:103B5000F6033091F703DC01CB01801B910BA20B24
:103B6000B30B0B97A105B10508F4C4C00E948404EF
:103B70006093F4037093F5038093F6039093F70337
:103B80008091610190916201489709F06BC00E9499
:103B900084044B015C010E949908BC01CE01499646
:103BA0000E94E50C0E94A108BC01CE014F960E9424
:103BB000E50C0E94A908BC01CE018B960E94E50C81
:103BC000BE01655D7F4FCE0185960E941E03BE013A
:103BD000615E7F4FCE0185960E949602BE01675EB0
:103BE0007F4F0E9496028C01C501B40128EE33E09C
:103BF00040E050E00E94E31F24E630E040E050E067
:103C00000E94E31FCA01B9012AE0A6010E94A42272
:103C1000F60101900020E9F73197AF014C195D09D9
:103C2000B601C8010E940402811103C0C8010E94AC
:103C30006B0265E873E0C8010E947D02BC01CE0101
:103C4000C1960E941E03CE0185960E94E102CE011C
:103C50008B960E94E102CE014F960E94E102CE01B6
:103C6000499645C00E949908BC01C6010E94E50C16
:103C70000E94A108BC01CE0149960E94E50C0E9459
:103C800002070E948C078091B903882339F0682FBE
:103C900070E08D3028F06C50710902C06CE070E06B
:103CA000CE0185960E94E50CBE016B5D7F4FCE0173
:103CB0004F960E941E03BE01675E7F4FCE014F9656
:103CC0000E949602B6010E949602BC01CE01C196E6
:103CD0000E941E03CE014F960E94E102CE018596FE
:103CE0000E94E102CE0149960E94E102C6010E94B3
:103CF000E10206C06FED75E0CE01C1960E941E0381
:103D0000BE016F5C7F4F8FED95E00E943202CE01C5
:103D1000C1960E94E1028091FD0381110DC00E94B5
:103D200084046093F9037093FA038093FB039093E8
:103D3000FC0381E08093FD030E9484040091F90359
:103D40001091FA032091FB033091FC03DC01CB01BD
:103D5000801B910BA20BB30B893E9340A105B105CB
:103D600008F4AAC00E9484046093F9037093FA03D4
:103D70008093FB039093FC039091F80381E08927E3
:103D80008093F803882309F495C080EC90C00E94CA
:103D90007F087C010E948908BC01CE0149960E94DF
:103DA000E50C0E949108BC01CE0185960E94E50CAD
:103DB000BE016B5D7F4FCE014F960E941E03BE0178
:103DC000675E7F4FCE014F960E9496028C014AE0BB
:103DD000B601C7010E948422F60101900020E9F794
:103DE0003197AF014C195D09B601C8010E94040268
:103DF000811103C0C8010E946B02B8018FED95E0EC
:103E00000E94CA02CE014F960E94E102CE01859621
:103E10000E94E102CE0149960E94E10280E447C07F
:103E200060915D0170915E01C6010E94E50C609198
:103E30005B0170915C01CE0149960E94E50C609196
:103E4000590170915A01CE0185960E94E50CBE0180
:103E50006B5D7F4FCE014F960E941E03BE01675ED1
:103E60007F4FCE014F960E949602B6010E949602A5
:103E700064E873E00E947D02BC018FED95E00E9432
:103E8000CA02CE014F960E94E102CE0185960E94A1
:103E9000E102CE0149960E94E102C6010E94E102C0
:103EA00080915F0190916001019721F480E88093F7
:103EB000C00302C01092C0030E94150C0E94A8010A
:103EC0000C94B5168FED95E00E94E10285EE95E029
:103ED0000C94E102EBEEF4E01382128288EE93E0A0
:103EE000A0E0B0E084839583A683B78327EA32E01D
:103EF0003183208325EC30E03587248724EC30E0C3
:103F00003787268720EC30E0318B208B21EC30E0A6
:103F1000338B228B22EC30E0358B248B26EC30E087
:103F2000378B268B118E128E138E148EE8E8F5E0F7
:103F30001382128284839583A683B78387EB92E0F2
:103F40009183808369E773E085EE95E00E94270303
:103F500060E873E08FED95E00E94270321E040E0E8
:103F60006EE086EC95E00E94360921E040E060E1D9
:103F70008DEA95E00E94360921E040E06FE084E997
:103F800095E00C943609991B79E004C0991F9617A7
:103F900008F0961B881F7A95C9F78095089597FBBE
:103FA000072E16F4009407D077FD09D00E94322026
:103FB00007FC05D03EF4909581959F4F089570952C
:103FC00061957F4F0895A1E21A2EAA1BBB1BFD012C
:103FD0000DC0AA1FBB1FEE1FFF1FA217B307E407E8
:103FE000F50720F0A21BB30BE40BF50B661F771F40
:103FF000881F991F1A9469F7609570958095909520
:104000009B01AC01BD01CF010895052E97FB1EF465
:1040100000940E941C2057FD07D00E94E31F07FC5C
:1040200003D04EF40C941C2050954095309521956A
:104030003F4F4F4F5F4F08959095809570956195D4
:104040007F4F8F4F9F4F0895EE0FFF1F0590F49104
:10405000E02D0994B7FF0C9406230E940623821BCF
:10406000930B0895AA1BBB1B51E107C0AA1FBB1FDE
:10407000A617B70710F0A61BB70B881F991F5A95F4
:10408000A9F780959095BC01CD010895A0E0B0E01E
:10409000ECE4F0E20C941523EC01009721F4CB0141
:1040A0000E942521B8C0FC01E60FF71F9C01225099
:1040B0003109E217F30708F4ACC0D9010D911C9146
:1040C000119706171707B0F00530110508F49FC0C7
:1040D000C80104978617970708F499C00250110980
:1040E000061B170B019311936D937C93CF010E94D4
:1040F000BA218DC05B01A01AB10A4C01800E911E3D
:10410000A091ED05B091EE0540E050E0E12CF12CDE
:10411000109709F44AC0A815B905D1F56D907C90A7
:104120001197630182E0C80ED11CCA14DB0480F130
:10413000A3014A195B096A0182E0C80ED11C1296DC
:10414000BC9012971396AC91B5E0CB16D10440F019
:10415000B282A38351834083D9016D937C930AC0BB
:104160000E5F1F4FC301800F911FF9019183808360
:10417000EB2DFA2FE114F10431F0D7011396FC93E3
:10418000EE93129744C0F093EE05E093ED053FC027
:104190008D919C9111974817590708F4AC017D0146
:1041A00012960D90BC91A02DB3CF8091EB0590910C
:1041B000EC0588159905E1F446175707C8F4809176
:1041C000810190918201009741F48DB79EB7409193
:1041D000850150918601841B950BE817F907C8F4F7
:1041E000F093EC05E093EB05F901718360830FC058
:1041F000CB010E9425217C01009759F0A801BE0146
:104200000E941521CE010E94BA21C70104C0CE012F
:1042100002C080E090E0CDB7DEB7EEE00C94312331
:1042200081E090E0F8940C945723FB01DC0102C07C
:1042300001900D9241505040D8F70895FB01DC01E8
:1042400001900D920020E1F70895CF93DF93823023
:10425000910510F482E090E0E091ED05F091EE051B
:1042600020E030E0C0E0D0E0309711F14081518192
:1042700048175907C0F04817590761F482819381A4
:10428000209719F09B838A832BC09093EE0580932F
:10429000ED0526C02115310519F04217530718F412
:1042A0009A01BE01DF01EF010280F381E02DDCCF36
:1042B0002115310509F1281B390B2430310590F403
:1042C00012968D919C9113976115710521F0FB0158
:1042D0009383828304C09093EE058093ED05FD01E6
:1042E000329644C0FD01E20FF31F81939193225057
:1042F00031092D933C933AC02091EB053091EC05A8
:10430000232B41F420918301309184013093EC05FB
:104310002093EB0520918101309182012115310517
:1043200041F42DB73EB74091850150918601241B81
:10433000350BE091EB05F091EC05E217F307A0F4E3
:104340002E1B3F0B2817390778F0AC014E5F5F4FEB
:104350002417350748F04E0F5F1F5093EC0540932C
:10436000EB058193919302C0E0E0F0E0CF01DF9193
:10437000CF9108950F931F93CF93DF93009709F484
:104380008CC0FC013297138212820091ED051091CE
:10439000EE050115110581F420813181820F931FF3
:1043A0002091EB053091EC052817390779F5F0934A
:1043B000EC05E093EB0571C0D80140E050E0AE178A
:1043C000BF0750F412962D913C911397AD01211522
:1043D000310509F1D901F3CF9D01DA01338322833D
:1043E00060817181860F971F8217930769F4EC0132
:1043F00028813981260F371F2E5F3F4F318320835D
:104400008A819B8193838283452B29F4F093EE0567
:10441000E093ED0542C01396FC93EE931297ED01E5
:10442000499159919E01240F351FE217F30771F44A
:1044300080819181840F951F029611969C938E9393
:104440008281938113969C938E931297E0E0F0E023
:10445000D80112968D919C911397009719F0F8014D
:104460008C01F6CF8D919C9198012E5F3F4F820F6A
:10447000931F2091EB053091EC052817390769F45B
:10448000309729F41092EE051092ED0502C01382C8
:1044900012821093EC050093EB05DF91CF911F91F1
:1044A0000F9108951F93FC0199278827BC01E89478
:1044B00011911032E9F3193010F01E30C8F31B329D
:1044C00051F01D3249F4689406C00E948F22610F9A
:1044D000711D811D911D119110531A30B0F33EF4DE
:1044E00090958095709561957F4F8F4F9F4F1F914D
:1044F00008954532510520F4423010F00C94842286
:10450000FB011082CB010895BB274A3031F4992377
:1045100022F4BDE2909581959F4F0C94C722592FAC
:10452000482F372F262F660F771F881F991F660F7A
:10453000771F881F991F620F731F841F951F660FB7
:10454000771F881F991F0895BB27FA01A62F6217AE
:10455000710581059105330B30FB66F0AA27660FC4
:10456000771F881F991FAA1FA21710F0A21B63951F
:104570003850A9F7A05DAA3308F0A95DA19336F7DA
:10458000B111B1931082CA010C94E022BB27FB0148
:104590005527AA27880F991FAA1FA41710F0A41B3C
:1045A00083955051B9F7A05DAA3308F0A95DA19396
:1045B000009779F7B111B1931192CB010C94E022DD
:1045C000DC01FC01672F71917723E1F7329704C07A
:1045D0007C916D9370836291AE17BF07C8F3089505
:1045E000F999FECF92BD81BDF89A992780B50895BB
:1045F000262FF999FECF1FBA92BD81BD20BD0FB6FF
:10460000F894FA9AF99A0FBE019608950E944823E9
:10461000A59F900DB49F900DA49F800D911D112416
:1046200008952F923F924F925F926F927F928F9256
:104630009F92AF92BF92CF92DF92EF92FF920F9331
:104640001F93CF93DF93CDB7DEB7CA1BDB0B0FB63B
:10465000F894DEBF0FBECDBF09942A8839884888F8
:104660005F846E847D848C849B84AA84B984C8848E
:10467000DF80EE80FD800C811B81AA81B981CE0F85
:10468000D11D0FB6F894DEBF0FBECDBFED0108956A
:10469000A29FB001B39FC001A39F700D811D112483
:1046A000911DB29F700D811D1124911D089510E080
:1046B000CFE8D0E004C0FE010E9424202196C0393A
:0846C000D107C9F7F894FFCF00
:1046C8003F00E0020000000000000C0000000000B5
:1046D80000000100010000000000000000000000D0
:1046E8000C00000000000000000017003B003B0029
:1046F8001F000C00630017003B003B00010018007E
:10470800060401FF00000000000000000000000097
:104718000000000000000000000000000000000091
:10472800001800000000000000000003000C00302A
:104738000003000C00300003000C003000C0000C27
:10474800000000EF0580001F001C001F001E001F56
:10475800001E001F001F001E001F001E001F00007B
:104768000006011501260137014A015D0172018821
:10477800019F01B801D201EE010B022A024B026E21
:10478800029302BA02E40210033F037003A403DC9D
:1047980003170455049704DD0427057505C805208B
:1047A800067D06E0064907B8072D08A9082D09B9AE
:1047B800094D0AEA0A900B400CFA0CC00D910E6FD5
:1047C8000F000000000100FFFF00000000000001D2
:1047D80000000000000000FFFF01000000000000D2
:1047E80000FFFF0000010002000400080010002084
:1047F8000040008000000100020A090806000900C4
:104808000D000E0000000000000000000000000085
:104818000000000000000000000000000000000090
:104828000000010001000100020002000200030074
:104838000300030003000400040007000A000E0040
:104848000000000000000000000000000000000060
:104858000000000000001F1C1F1E1F1E1F1F1E1F20
:104868001E1F00000000003F01BB000801E600FA1F
:10487800008601000000000F0ADF09D709C309B448
:1048880009B309626C696E6B5061747465726E5B12
:104898004461746559656172496E6465785D3D006F
:1048A80050696E6B50616E746865723A643D342C61
:1048B8006F3D352C623D3136303A3864232C3865EB
:1048C8002C32702C3866232C38672C32702C3864C4
:1048D800232C38652C3136702C3866232C38672CFD
:1048E8003136702C3863362C38622C3136702C38BF
:1048F80064232C38652C3136702C38622C326123B5
:104908002C32702C3136612C3136672C3136652CBF
:104918003136642C3265003100646F776E56616CF5
:1049280075653D00646F745061747465726E3D0006
:10493800757056616C75653D00303130323030002D
:0A494800303030303030000D0A002E
:00000001FF
