:100000000C94A8000C94D0000C94D0000C94D00058
:100010000C94D0000C94D0000C94D0000C94C80F19
:100020000C94D0000C94D0000C94D0000C942310AD
:100030000C94D0000C94D0000C9488100C94D00038
:100040000C947E0F0C94D0000C94000E0C94DA0DDE
:100050000C94D0000C94D0000C94D0000C94D000E0
:100060000C94DD020C94D000CF1CD11CC51CC71C05
:10007000C91CCB1CCD1C00000000250028002B0053
:1000800002010000000000240027002A00010204F1
:10009000081020408001020408102001020408100A
:1000A0002004040404040404040202020202020301
:1000B000030303030353746F702054657374005477
:1000C000656D70203D200053746172742054657317
:1000D00074004669726D7761726520766572736926
:1000E0006F6E3A2000496E636F72726563742053BD
:1000F0006F6E6720466F726D617421005247423DFA
:100100006F6666005247423D6F6E0076616C7565A2
:100110003D006D656E75506F736974696F6E3D005B
:1001200057616B652075702C204E656F21000000B3
:100130000000230026002900000000080002010042
:10014000000304070000000000000000EE24E62485
:1001500011241FBECFEFD8E0DEBFCDBF13E0A0E07B
:10016000B1E0E0EDF1E502C005900D92AE3EB107C1
:10017000D9F726E0AEEEB3E001C01D92A839B20770
:10018000E1F710E0C7EAD0E004C02197FE010E9429
:10019000DA27C63AD107C9F70E944D170C94DB281D
:1001A0000C94000085ED8093BC008091BC0084FD20
:1001B000FCCF1092610508954091F204262F30E0A3
:1001C000240F311D21323105DCF4209161052430EA
:1001D000C9F4FC0180E090E0861758F43091F204F5
:1001E0002191DC01A053BB4FA30FB11D2C930196AD
:1001F000F3CF8091F204680F6093F20480E00895D9
:1002000081E0089582E008950895E091F8038091D7
:10021000F703E81730F4F0E0E750FC4F808190E0FE
:1002200008958FEF9FEF08959091F8038091F70361
:10023000981750F4E92FF0E0E750FC4F208130E0B0
:100240009F5F9093F80302C02FEF3FEFC90108951D
:100250008091F70390E02091F803821B91090895A3
:10026000CF92DF92EF92FF920F931F93CF93DF9382
:100270007C01262F972F8A0180916205882391F0B7
:10028000C62FD72F6E01C40ED51ECC15DD0571F01B
:100290006991D701ED91FC910190F081E02DC701AA
:1002A0000995F3CF642F822F0E94DC00C801DF91F3
:1002B000CF911F910F91FF90EF90DF90CF90089515
:1002C000CF93DF931F92CDB7DEB76983209162058C
:1002D0002223D1F020918505203240F021E030E04A
:1002E000FC013383228380E090E015C08091630598
:1002F000E82FF0E0EC59FA4F998190838F5F80935B
:1003000063058093850505C061E0CE0101960E94DA
:10031000DC0081E090E00F90DF91CF9108958EBDD9
:1003200000000DB407FEFDCF8EB50895CF92DF9289
:10033000EF92FF921F93CF93DF9390912704911137
:1003400003C08FEF9FEF77C0909126049923C9F3E4
:10035000182FC0912D04D0912E048091C8048111D2
:100360000DC00E944B0F6093C4047093C50480932A
:10037000C6049093C70481E08093C8040E944B0F89
:10038000C090C404D090C504E090C604F090C704A7
:10039000DC01CB018C199D09AE09BF098D3291405A
:1003A000A105B105F8F00E944B0F6093C40470934F
:1003B000C5048093C6049093C7048091C30491E060
:1003C00098279093C304992329F01092C2041092A5
:1003D000C10408C080912D0490912E049093C20412
:1003E0008093C1042091C1043091C20420953095BE
:1003F0004091280450E02423352326FF04C081E0E7
:100400008093C00402C01092C00427FF04C081E0A2
:100410008093BF0402C01092BF048091C30488235C
:1004200009F48FCF02C0D595C7951A95E2F7C0FFA2
:1004300088CF80E09CE3DF91CF911F91FF90EF90F8
:10044000DF90CF9008958FE194E00C942A0DCF9225
:10045000DF92EF92FF92CF93DF93EC010E944B0F5C
:100460006B017C018F850E94320E21E0892B09F4FB
:1004700020E0298B8889811103C081E08227898B44
:1004800029898A89281721F0CD8ADE8AEF8AF88E99
:100490008D899E89AF89B88DB701A601481B590B7C
:1004A0006A0B7B0BDB01CA01CB80DC80ED80FE8018
:1004B000C416D506E606F70664F43A81231749F018
:1004C0002A83222331F04B895C894F5F5F4F5C8B1D
:1004D0004B8B3A8131110CC0CF80D884E984FA84E7
:1004E000C816D906EA06FB06ACF48B899C890EC0B7
:1004F000CB84DC84ED84FE84C816D906EA06FB06AC
:100500004CF48B899C899195819591099983888375
:100510001C8A1B8A2A8BDF91CF91FF90EF90DF908E
:10052000CF9008950F931F93CF93DF931F92CDB772
:10053000DEB78C01862FF8016787408B91E0492751
:10054000418B428B148A138A118210821282158A7F
:10055000168A178A108E44E150E060E070E0438311
:100560005483658376834AEF50E060E070E0478310
:1005700050876187728748EE53E060E070E0438700
:1005800054876587768760E029830E948B0EF80187
:100590008089298181110BC0222349F061E0878580
:1005A0000F90DF91CF911F910F910C945B0E0F90E4
:1005B000DF91CF911F910F9108951F920F920FB667
:1005C0000F9211242F933F934F935F936F937F93D9
:1005D0008F939F93AF93BF93EF93FF938091B90055
:1005E000887F803609F49CC068F5883209F45BC0C6
:1005F00090F4803109F454C038F4882309F4F6C02B
:10060000883009F44DC0F6C0883109F44CC08032FE
:1006100009F45DC0EFC0803409F468C048F4803349
:1006200009F455C0883309F0E5C080935F05D8C050
:10063000803509F44FC0883509F45DC0883409F06D
:10064000D9C0D6C0883909F4C7C0A8F4883709F4DE
:1006500067C038F4883609F463C0803709F460C095
:10066000C9C0883809F4B8C0803909F45FC080383F
:1006700009F0C0C05BC0803B09F486C038F4803A02
:1006800009F466C0883A09F47FC0B4C0803C09F41C
:10069000A7C0883C09F4A4C0883B09F48AC0AAC05A
:1006A00080913C0510C090915E0580915D05981782
:1006B00070F5E0915E0581E08E0F80935E05F0E0BD
:1006C000E35CFA4F80818093BB0085EC86C0809309
:1006D0005F058EC0E0915E0581E08E0F80935E0520
:1006E0008091BB00F0E0E35CFA4F808390915E055F
:1006F00080915D056EC0E0915E0581E08E0F809374
:100700005E058091BB00F0E0E35CFA4F808380914E
:10071000600581116DC081E080933B0584EA61C072
:1007200083E08093610510921605CFCF8091160566
:10073000803208F051C0E091160581E08E0F809361
:1007400016058091BB00F0E0EA50FB4F8083BDCFDF
:1007500085EC8093BC001092610580911605803273
:1007600030F4E0911605F0E0EA50FB4F1082609102
:10077000160570E0E091F404F091F50486EF94E042
:1007800009951092160536C084E080936105109299
:10079000F3041092F204E091F004F091F104099551
:1007A0008091F204811105C081E08093F2041092DF
:1007B000D004E091F30481E08E0F8093F304F0E025
:1007C000E053FB4F80818093BB009091F3048091B4
:1007D000F204981708F479CF85E88093BC000AC02A
:1007E00085EC8093BC001092610504C010925F05F7
:1007F0000E94D200FF91EF91BF91AF919F918F9195
:100800007F916F915F914F913F912F910F900FBE0C
:100810000F901F9018950C941A270C9412274F9242
:100820005F926F927F928F929F92AF92BF92CF9280
:10083000DF92EF92FF92CF93DF9300D000D0CDB73D
:10084000DEB70E94260FC090BB04D090BC04E0909D
:10085000BD04F090BE04DC01CB018C199D09AE09EA
:10086000BF098A319144A105B10508F4BAC10E94BB
:10087000260F6093BB047093BC048093BD049093D7
:10088000BE0488E896E00E94420CFAE08F2E912C7C
:10089000A12CB12CA50194010E94BB27CB01880F8C
:1008A000991FFC01EA57FD4FE080F18087E090E05E
:1008B00029833A834B835C830E9496013C01298102
:1008C0003A814B815C81CA01B901A50194010E9462
:1008D000BB27660F771FFB01EA57FD4FC080D18011
:1008E00086E090E029833A834B835C830E949601E3
:1008F0008C219D21A0E0B0E0E620F7206701E12CEB
:10090000F12C2AE0CC0CDD1CEE1CFF1C2A95D1F743
:10091000C82AD92AEA2AFB2A8091C00429813A816F
:100920004B815C81811102C06894F6F88091BF040C
:10093000811102C06894F7F860E08AE029833A8365
:100940004B835C830E945B0E8F2D0E948F018E2D46
:100950000E948F018D2D0E948F018C2D0E948F018E
:100960004AE0842E912CA12CB12C29813A814B8113
:100970005C81CA01B901A50194010E94BB27CB018A
:10098000880F991FFC01EA57FD4FE080F18085E058
:1009900090E029833A834B835C830E9496016C012B
:1009A00029813A814B815C81CA01B901A501940179
:1009B0000E94BB27660F771FFB01EA57FD4F60803F
:1009C000718084E090E029833A834B835C830E94AA
:1009D0009601CE20DF20E12CF12CF4E1CC0CDD1CC3
:1009E000EE1CFF1CFA95D1F786219721A0E0B0E01C
:1009F0002AE0880F991FAA1FBB1F2A95D1F7C82A82
:100A0000D92AEA2AFB2A29813A814B815C81CA01D1
:100A1000B901A50194010E94BB27660F771FFB0156
:100A2000EA57FD4FA080B18083E090E029833A83AC
:100A30004B835C830E9496018A219B21A0E0B0E059
:100A4000C82AD92AEA2AFB2A8091C00429813A813E
:100A50004B815C81882319F0E894F6F802C0689411
:100A6000F6F88091BF04882319F0E894F7F802C0E3
:100A70006894F7F88F2D29833A834B835C830E9417
:100A80008F018E2D0E948F018D2D0E948F018C2D44
:100A90000E948F018AE0882E912CA12CB12C2981F3
:100AA0003A814B815C81CA01B901A50194010E9480
:100AB000BB27CB01880F991FFC01EA57FD4FC0806F
:100AC000D18082E090E029833A834B835C830E944B
:100AD00096013C0129813A814B815C81CA01B901AF
:100AE000A50194010E94BB27660F771FFB01EA57FF
:100AF000FD4FE080F18081E090E029833A834B83D1
:100B00005C830E949601C620D7202601612C712C9F
:100B1000F4E1440C551C661C771CFA95D1F78E2124
:100B20009F21A0E0B0E02AE0880F991FAA1FBB1FF9
:100B30002A95D1F773016201C82AD92AEA2AFB2A29
:100B400029813A814B815C81CA01B901A5019401D7
:100B50000E94BB27660F771FFB01EA57FD4FA0805D
:100B6000B18080E090E00E9496018A219B21A0E064
:100B7000B0E0C82AD92AEA2AFB2A8091C004882337
:100B800019F0E894F6F802C06894F6F88091BF0472
:100B9000882319F0E894F7F802C06894F7F88F2DCD
:100BA0000E948F018E2D0E948F018D2D0E948F013A
:100BB0008C2D0E948F0161E08AE00F900F900F90C2
:100BC0000F90DF91CF91FF90EF90DF90CF90BF908B
:100BD000AF909F908F907F906F905F904F900C940C
:100BE0005B0E0F900F900F900F90DF91CF91FF90C1
:100BF000EF90DF90CF90BF90AF909F908F907F90BD
:100C00006F905F904F9008954F925F926F927F9296
:100C10008F929F92AF92BF92CF92DF92EF92FF920C
:100C20000F931F93CF93DF9300D000D000D0CDB7A8
:100C3000DEB77C014B015A0180912504882341F0E5
:100C40008091AA0403EB14E0ABEAB4E0F80148C0D9
:100C500081E08093250483EB682E84E0782E9BEA64
:100C6000492E94E0592E00E010E00F5F1F4F6801FD
:100C700081E0C81AD1089801A601B401CE010196FD
:100C80000E94850DCE0101960E94420CF3016193F2
:100C90003F01CE0101960E942A0D9801A601B501DF
:100CA000CE0101960E94850DCE0101960E94420C54
:100CB000F20161932F01CE0101960E942A0D0830A6
:100CC000110599F6BDCF2C9192130DC090819A30E9
:100CD00009F410823196119694E0EB3BF90731F05C
:100CE00090818A3080F79F5F9083F0CF8F5F84314F
:100CF00019F08093AA0404C01092AA04109225044B
:100D00006CEE73E0C7010E94700DFE0131966F0119
:100D1000F80181918F014AE0B60190E00E94A62679
:100D2000F60101900020E9F73197AF014C195D09F8
:100D3000B601C7010E944D0CF4E00B3B1F0741F7C1
:100D4000C70126960FB6F894DEBF0FBECDBFDF9168
:100D5000CF911F910F91FF90EF90DF90CF90BF90B8
:100D6000AF909F908F907F906F905F904F9008957D
:100D700088E090E00E940D04682F89E00E945B0EDD
:100D800089E090E00E940D04682F86E00E945B0ECF
:100D90008AE090E00E940D04682F83E00C945B0EC3
:100DA0000F931F938091610190916201892B09F447
:100DB00055C08091A9048823A9F00E944B0F00918F
:100DC000A5041091A6042091A7043091A804DC0189
:100DD000CB01801B910BA20BB30B893E9340A10565
:100DE000B105C8F58091A904811138C00E94701323
:100DF00020915B0130915C018217930779F50E9485
:100E0000681320915D0130915E018217930731F5DF
:100E10000E94601320915F01309160018217930757
:100E2000E9F40E944B0F6093A5047093A60480938D
:100E3000A7049093A80481E08093A90480E291E044
:100E40000E94C51580910001909101019093330497
:100E50008093320403C01092A904C4CF1F910F9154
:100E60000895CF93DF93EC01019628812A33D9F7B7
:100E70008981843639F510921E0410921D04239640
:100E80004AE0FE018881219690ED980F20911D0483
:100E900030911E049A3080F4429FB001439F700D40
:100EA0001124082E000C990BC097860F971F909362
:100EB0001E0480931D04E5CF1216130614F420932C
:100EC0003F01EF01219688818F3689F48A81082EAF
:100ED000000C990B9C012053310930931E04209380
:100EE0001D04C397059710F420933E012496888132
:100EF000823629F510921E0410921D04FE013296CE
:100F00004AE0819190ED980F20911D0430911E04CC
:100F10009A3080F4429FB001439F700D1124082E37
:100F2000000C990BC097860F971F90931E04809317
:100F30001D04E7CF3093840120938301EF012091BA
:100F4000830130918401032E000C440B550B60E6A5
:100F50007AEE80E090E00E94BB27DA01C90122E02E
:100F6000880F991FAA1FBB1F2A95D1F780931904D8
:100F700090931A04A0931B04B0931C04CE01DF913C
:100F8000CF910895CF92DF92EF92FF920F931F932C
:100F9000CF93DF93CDB7DEB72C970FB6F894DEBFB3
:100FA0000FBECDBF8C0162E073E0CE0101960E94BE
:100FB000700D0330110529F422E030E040E050E0EC
:100FC00021C00C30110529F424E030E042E050E06B
:100FD00019C00033110519F426E030E007C0003FC6
:100FE000110539F420918C0630918D0644E050E0D3
:100FF00009C0003C1105B9F420918C0630918D0692
:1010000046E050E068E876E0CE0107960E94850D44
:10101000BE01695F7F4FCE0101960E947B0CCE011D
:1010200007960E942A0DCE0101960E94420C6B0188
:101030007C01CE0101960E942A0DC6012C960FB6A6
:10104000F894DEBF0FBECDBFDF91CF911F910F91FE
:10105000FF90EF90DF90CF9008950F931F93CF9361
:10106000DF93CDB7DEB762970FB6F894DEBF0FBE41
:10107000CDBF8C014AE06A3071054CF5CE010D966A
:101080000E942F0D69EF72E0CE0101960E94700D53
:10109000BE016F5F7F4FCE0107960E94670DBE01B4
:1010A000635F7F4FCE0107960E94DF0CBC01C80131
:1010B0000E94670DCE0107960E942A0DCE0101966F
:1010C0000E942A0DCE010D960E942A0D02C00E9498
:1010D0002F0DC80162960FB6F894DEBF0FBECDBFCC
:1010E000DF91CF911F910F9108950F931F93CF938D
:1010F000DF93CDB7DEB768970FB6F894DEBF0FBEAB
:10110000CDBF8B01833091F420918C0630918D06F8
:1011100042E050E068E876E0CE010D960E94850D31
:10112000B801CE0101960E942D0861C08C3009F0F3
:1011300042C020918C0630918D0644E050E068E872
:1011400076E0CE0143960E94850DB801CE010D9642
:101150000E942D0822E030E040E050E068E876E0B0
:10116000CE0101960E94850DBE016F5F7F4FCE01BB
:1011700007960E94670DBE01635F7F4FCE01079601
:101180000E94DF0CBE016D5E7F4F0E94DF0CBC0130
:1011900088E896E00E94130DCE0107960E942A0D62
:1011A000CE0101960E942A0DCE010D960E942A0DB5
:1011B000CE01439639C0803311F0803F41F4B8012D
:1011C000CE010D960E942D0824E030E008C0803C3E
:1011D00069F5CE010D960E942D0826E030E040E032
:1011E00050E068E876E0CE0101960E94850DBE01D0
:1011F0006F5F7F4FCE0107960E94670DBE01635F50
:101200007F4FCE0107960E94DF0CBC0188E896E074
:101210000E94130DCE0107960E942A0DCE01019661
:101220000E942A0DCE010D960E942A0D68960FB6D7
:10123000F894DEBF0FBECDBFDF91CF911F910F910C
:1012400008950E944B0F6093290470932A048093A1
:101250002B0490932C0480912F04882309F468C0F8
:101260002091300430913104C901880F991F2E302C
:10127000310551F0FC01E95BFE4F40815181415045
:101280005109518340830AC0409163015091640128
:101290004C5051095093640140936301DC01A95BF8
:1012A000BE4F6D917C911197FC01EE5FFE4F408126
:1012B0005181641775073CF4FC01E05EFE4F8081AC
:1012C00091818D939C932D30310521F580916101A1
:1012D00090916201019721F480E88093280402C074
:1012E0001092280483EC93E00E945115E0913004A1
:1012F000F0913104EE0FFF1FE95BFE4F8081918179
:101300000E94D3158EEC93E00E9451158091280421
:101310000E940C16E0913004F0913104EE0FFF1F93
:10132000E95BFE4F6081718180912D040C947508FA
:1013300008950E944B0F6093290470932A048093B0
:101340002B0490932C0480912F04882309F468C007
:101350002091300430913104C901880F991F2E303B
:10136000310551F0FC01E95BFE4F408151814F5F37
:101370005F4F518340830AC04091630150916401E3
:10138000445F5F4F5093640140936301DC01A95BAC
:10139000BE4F6D917C911197FC01E05EFE4F408144
:1013A0005181461757073CF4FC01EE5FFE4F8081E8
:1013B00091818D939C932D30310521F580916101B0
:1013C00090916201019721F480E88093280402C083
:1013D000109228048AED93E00E945115E0913004A8
:1013E000F0913104EE0FFF1FE95BFE4F8081918188
:1013F0000E94D3158EEC93E00E9451158091280431
:101400000E940C16E0913004F0913104EE0FFF1FA2
:10141000E95BFE4F6081718180912D040C94750809
:1014200008958F929F92AF92BF92CF92DF92EF92E8
:10143000FF920F931F93CF93DF93CDB7DEB7A5979E
:101440000FB6F894DEBF0FBECDBF8C018091630153
:1014500090916401489709F06DC00E944B0F4B01B9
:101460005C010E946013BC01CE0180960E942D0891
:101470000E946813BC01CE014A960E942D080E946A
:101480007013BC01CE010E960E942D08BE01625F52
:101490007F4FCE0144960E94670DBE01665E7F4F6E
:1014A000CE0144960E94DF0CBE01605E7F4F0E9419
:1014B000DF0C6C01C501B40128EE33E040E050E0E0
:1014C0000E94992724E630E040E050E00E949927EE
:1014D000CA01B9012AE0AE014F5F5F4F7A010E9455
:1014E000C626F70101900020E9F73197AF014E19A8
:1014F0005F09B701C6010E944D0C811103C0C601EE
:101500000E94B40C69EF72E0C6010E94C60CBC01D7
:10151000C8010E94670DCE0144960E942A0DCE019B
:101520000E960E942A0DCE014A960E942A0DCE01E7
:10153000809648C00E946013BC01CE014A960E946A
:101540002D080E946813BC01CE0144960E942D080C
:101550000E94C9110E94531280911905882339F005
:10156000682F70E08D3028F06C50710902C06CE07B
:1015700070E0CE0101960E942D08BE016F5F7F4F83
:10158000CE010E960E94670DBE016C5E7F4FCE01AC
:101590000E960E94DF0CBE01665E7F4F0E94DF0C3C
:1015A000BC01C8010E94670DCE010E960E942A0D53
:1015B000CE0101960E942A0DCE0144960E942A0D6A
:1015C000CE014A960E942A0DC801A5960FB6F8943E
:1015D000DEBF0FBECDBFDF91CF911F910F91FF9066
:1015E000EF90DF90CF90BF90AF909F908F90089535
:1015F0000895CF92DF92EF92FF920F931F93CF93B4
:10160000DF936C017A018B01C0E0D0E0CE15DF05DD
:1016100089F0D8016D918D01D601ED91FC91019079
:10162000F081E02DC6010995892B11F47E0102C0DD
:101630002196ECCFC701DF91CF911F910F91FF90C1
:10164000EF90DF90CF900895FC01918D828D9817D7
:1016500061F0828DDF01A80FB11D5D968C91928D96
:101660009F5F9F73928F90E008958FEF9FEF089593
:10167000FC01918D828D981731F0828DE80FF11D5C
:10168000858D90E008958FEF9FEF0895FC01918D77
:10169000228D892F90E0805C9F4F821B91098F7370
:1016A0009927089584E995E00E94460B21E0892B53
:1016B00009F420E0822F0895FC01848DDF01A80F3A
:1016C000B11DA35ABF4F2C91848D90E001968F736A
:1016D0009927848FA689B7892C93A089B1898C9189
:1016E00080648C93938D848D981306C00288F3894F
:1016F000E02D80818F7D80830895EF92FF920F937C
:101700001F93CF93DF93EC0181E0888F9B8D8C8DAD
:10171000981305C0E889F989808185FD24C0F62EDB
:101720000B8D10E00F5F1F4F0F731127E02E8C8D74
:10173000E8120CC00FB607FCFACFE889F98980815E
:1017400085FFF5CFCE010E945C0BF1CF8B8DFE01A2
:10175000E80FF11DE35AFF4FF0820B8FEA89FB89F6
:101760008081806207C0EE89FF896083E889F989FA
:1017700080818064808381E090E0DF91CF911F9130
:101780000F91FF90EF900895CF93DF93EC01888D38
:101790008823C9F0EA89FB89808185FD05C0A88975
:1017A000B9898C9186FD0FC00FB607FCF5CF8081FB
:1017B00085FFF2CFA889B9898C9185FFEDCFCE0145
:1017C0000E945C0BE7CFDF91CF91089580E090E01D
:1017D000892B29F00E94520B81110C94000008956E
:1017E000833081F028F4813099F08230A1F008959F
:1017F0008730A9F08830B9F08430D1F4809180002E
:101800008F7D03C0809180008F7780938000089542
:1018100084B58F7702C084B58F7D84BD0895809193
:10182000B0008F7703C08091B0008F7D8093B000AF
:1018300008950E94C6280F931F93CF93DF93EC0166
:1018400088819981009729F02A813B8126173707E3
:1018500088F48B016F5F7F4F0E94FC27009761F037
:10186000998388831B830A832C813D81232B11F468
:10187000FC01108281E001C080E0DF91CF911F91D7
:101880000F910895FC0180819181009711F00C94D3
:10189000742660E070E0CB010895EF92FF920F9301
:1018A0001F93CF93DF93FC0124813581611571056E
:1018B00011F480E019C041155105A9F07B01EC013C
:1018C0008A01020F131FB8010E941B0C882389F3A1
:1018D000288139818C819D81B701820F931F0E94DD
:1018E000D4281D830C8381E0DF91CF911F910F914C
:1018F000FF90EF9008950F931F93CF93DF938C0188
:10190000EB01FC01808191810097B1F068817981C0
:101910006115710579F0428153812C813D81421717
:10192000530740F00E94D4288C819D81F801958353
:10193000848313C00E94DC2588819981F8019183FA
:1019400080838A819B81938382838C819D8195830F
:101950008483198218821B821A821D821C82DF9165
:10196000CF911F910F910895CF93DF93EC01888160
:101970009981009711F00E94DC25198218821D823E
:101980001C821B821A82DF91CF910895CF93DF933F
:10199000EC016115710561F0FB0101900020E9F790
:1019A0003197AF01461B570B0E944D0C811103C0AC
:1019B000CE010E94B40CCE01DF91CF910895CF9358
:1019C000DF93EC01FB0144815581608171810E94AC
:1019D0004D0C811103C0CE010E94B40CCE01DF91E9
:1019E000CF910895EF92FF920F931F93CF93DF93C0
:1019F000EC017B018A01BA010E941B0C811104C019
:101A0000CE010E94B40C07C01D830C83B7018881EE
:101A100099810E94D428CE01DF91CF911F910F911F
:101A2000FF90EF900895CF93DF93EC01FB018617B1
:101A3000970761F0608171816115710529F044811A
:101A400055810E94F20C02C00E94B40CCE01DF91BD
:101A5000CF910895FC01808191810C94DC25EF9257
:101A6000FF920F931F93CF93DF93CDB7DEB76297AB
:101A70000FB6F894DEBF0FBECDBF8C01CB01F801CD
:101A800011821082138212821582148250E09E010C
:101A90002F5F3F4F7901B9010E949B26F70101900A
:101AA0000020E9F73197AF014E195F09B701C8016E
:101AB0000E94F20C62960FB6F894DEBF0FBECDBF47
:101AC000DF91CF911F910F91FF90EF900895FC014E
:101AD0001182108213821282158214820C94130DCB
:101AE000FC01118210821382128215821482611508
:101AF000710551F0FB0101900020E9F73197AF012A
:101B0000461B570B0C94F20C0895BF92CF92DF92B4
:101B1000EF92FF920F931F93CF93DF937C016B01A2
:101B2000EA0189012417350720F48D2FE901042FDC
:101B3000182F6CEE73E0C7010E94700DD601149649
:101B40008D919C911597C817D90748F58017910773
:101B500008F48C01D601ED91FC911197E00FF11F73
:101B6000B08010824D915C91BA016C0F7D1F6115A0
:101B7000710561F0FB0101900020E9F73197AF0199
:101B8000461B570BC7010E94F20C03C0C7010E94FD
:101B9000B40CD601ED91FC91E00FF11FB082C701AA
:101BA000DF91CF911F910F91FF90EF90DF90CF9039
:101BB000BF9008951F920F920FB60F9211242F938A
:101BC0003F934F935F936F937F938F939F93AF93C5
:101BD000BF93EF93FF9384E995E00E945C0BFF9124
:101BE000EF91BF91AF919F918F917F916F915F9195
:101BF0004F913F912F910F900FBE0F901F9018950E
:101C00001F920F920FB60F9211242F938F939F93D1
:101C1000EF93FF93E091A405F091A5058081E091F9
:101C2000AA05F091AB0582FD12C090818091AD05AF
:101C30008F5F8F732091AE05821751F0E091AD0553
:101C4000F0E0EC56FA4F958F8093AD0501C080818E
:101C5000FF91EF919F918F912F910F900FBE0F9059
:101C60001F901895CF93DF93282F30E0F901E85C9F
:101C7000FE4F8491F901E357FF4FD491F901EF55DD
:101C8000FF4FC491CC2391F081110E94F00BEC2FF7
:101C9000F0E0EE0FFF1FE25DFE4FA591B491EC91D5
:101CA000ED2381E090E021F480E002C080E090E04C
:101CB000DF91CF9108951F93CF93DF93282F30E0CA
:101CC000F901E85CFE4F8491F901E357FF4FD4918D
:101CD000F901EF55FF4FC491CC23C9F0162F8111A4
:101CE0000E94F00BEC2FF0E0EE0FFF1FEA58FF4FC1
:101CF000A591B4918FB7F894111105C09C91ED2F67
:101D0000E095E92302C0EC91ED2BEC938FBFDF91BE
:101D1000CF911F910895CF93DF9390E0FC01E3579B
:101D2000FF4F2491FC01EF55FF4F8491882361F10F
:101D300090E0880F991FFC01ED57FF4FC591D4919A
:101D4000FC01EA58FF4FA591B491611109C09FB7FA
:101D5000F8948881209582238883EC912E230BC0F0
:101D6000623061F49FB7F8943881822F8095832385
:101D70008883EC912E2B2C939FBF06C08FB7F894CD
:101D8000E8812E2B28838FBFDF91CF9108951F9379
:101D9000CF93DF93182FEB0161E00E948B0E209709
:101DA00011F460E004C0CF3FD10539F461E0812F28
:101DB000DF91CF911F910C945B0EE12FF0E0E85C76
:101DC000FE4FE491E330F9F048F4E130B9F0E2304D
:101DD000A1F584B5806284BDC8BD34C0E730E9F0A8
:101DE000E83019F1E43049F58091800080628093F9
:101DF0008000D0938B00C0938A0024C084B5806893
:101E000084BDC7BD1FC08091800080688093800022
:101E1000D0938900C093880015C08091B00080687D
:101E20008093B000C093B3000DC08091B000806279
:101E30008093B000C093B40005C0C038D1050CF049
:101E4000B5CFAFCFDF91CF911F9108953FB7F894F1
:101E50008091370590913805A0913905B0913A05E8
:101E600026B5A89B05C02F3F19F00196A11DB11DF5
:101E70003FBFBA2FA92F982F8827820F911DA11D30
:101E8000B11DBC01CD0142E0660F771F881F991F6D
:101E90004A95D1F708952FB7F89460913305709162
:101EA000340580913505909136052FBF08956093D4
:101EB0002E0570932F058093300590933105DC013A
:101EC000CB01845D9E4FAF4FBF4F80932A05909307
:101ED0002B05A0932C05B0932D0582E090E0909304
:101EE0002905809328050E944B0F60932405709369
:101EF0002505809326059093270508951F920F923C
:101F00000FB60F9211242F933F938F939F93AF930C
:101F1000BF938091330590913405A0913505B09120
:101F200036053091320523E0230F2D3720F401963A
:101F3000A11DB11D05C026E8230F0296A11DB11DEC
:101F4000209332058093330590933405A093350593
:101F5000B09336058091370590913805A0913905E9
:101F6000B0913A050196A11DB11D8093370590935C
:101F70003805A0933905B0933A05BF91AF919F9171
:101F80008F913F912F910F900FBE0F901F9018953A
:101F90001F920F920FB60F9211242F933F934F93DE
:101FA0005F936F937F938F939F93EF93FF934091F2
:101FB00086055091870560918805709189054115C6
:101FC00051056105710599F08091EE03E091EF03F1
:101FD000F091F00390818927808314161506160668
:101FE0001706D4F4415051096109710915C0809157
:101FF00070008D7F809370009091EE03E091EF036D
:10200000F091F0038081282F30E0892F90E08095B7
:102010009095822393238083409386055093870570
:102020006093880570938905FF91EF919F918F913F
:102030007F916F915F914F913F912F910F900FBEC4
:102040000F901F9018951F920F920FB60F921124A8
:102050002F933F938F939F93AF93BF93EF93FF93F0
:1020600080918A0590918B05A0918C05B0918D058A
:10207000892B8A2B8B2B51F18091F103E091F20394
:10208000F091F30390818927808380918A05909154
:102090008B05A0918C05B0918D05181619061A06AE
:1020A0001B064CF580918A0590918B05A0918C05BB
:1020B000B0918D050197A109B10980938A0590938C
:1020C0008B05A0938C05B0938D0515C080916F0092
:1020D0008D7F80936F009091F103E091F203F09176
:1020E000F3038081282F30E0892F90E08095909530
:1020F000822393238083FF91EF91BF91AF919F91B2
:102100008F913F912F910F900FBE0F901F901895B8
:102110001F920F920FB60F9211242F933F938F931C
:102120009F93AF93BF93EF93FF9380918E05909110
:102130008F05A0919005B0919105892B8A2B8B2B4F
:1021400051F18091F403E091F503F091F603908151
:102150008927808380918E0590918F05A0919005AD
:10216000B0919105181619061A061B064CF58091B8
:102170008E0590918F05A0919005B09191050197E2
:10218000A109B10980938E0590938F05A0939005C6
:10219000B093910515C080916E008D7F80936E0085
:1021A0009091F403E091F503F091F6038081282FDC
:1021B00030E0892F90E0809590958223932380834F
:1021C000FF91EF91BF91AF919F918F913F912F918F
:1021D0000F900FBE0F901F9018953F924F925F92F5
:1021E0006F927F928F929F92AF92BF92CF92DF9227
:1021F000EF92FF920F931F93CF93DF93382E962E7B
:10220000842EF90184E6E816F1042CF082EBE81A3A
:1022100087E0F80A03C08EE1E80EF11CE0921D058C
:1022200000931C05E0931B05309219059092180548
:1022300080921705AE2DB0E020E833E341EE51E087
:102240000E9428272B013C0122EB37E0FF2484E683
:10225000C82ED12CC0E9D1E0C901825B97408E1510
:102260009F05DCF4C90183709927892B99F4C90172
:10227000B6010E948527892B31F4C901BE010E9455
:102280008527892B39F480E8480E81E5581E81E0C6
:10229000681E711C2F5F3F4FDFCF8EE4E81A88EF76
:1022A000F80AC70164E670E00E9485276C01C70147
:1022B00060E971E00E9485275C01C1E0D0E0112750
:1022C00083E0E822FF24C017D1072CF5C230D105E6
:1022D00089F4E114F10471F4C114D10419F4A114C6
:1022E000B10441F480E8480E8BE3581E86E2681E74
:1022F000711C0FC0DE01A756BD4FAC91B0E020E8C5
:1023000031E541E050E00E942827460E571E681E26
:10231000791E2196D8CF292D30E0ACE3B0E00E94A1
:102320006A276B017C01C80CD11CE11CF11C232D18
:1023300030E0A0E1BEE00E946A27C60ED71EE81E6C
:10234000F91EDF01BB27119720E831E541E050E09D
:102350000E94E027DC01CB018C0D9D1DAE1DBF1D31
:10236000BC01CD01640D751D861D971DDF91CF91B8
:102370001F910F91FF90EF90DF90CF90BF90AF90A3
:102380009F908F907F906F905F904F903F900C94B4
:10239000570FCF92DF92EF92FF920F931F930E94FD
:1023A0004B0FC0902405D0902505E0902605F090B5
:1023B00027058B019C010C191D092E093F098091ED
:1023C0002E0590912F05A0913005B0913105083E62
:1023D000134021053105D0F00196A11DB11D809358
:1023E0002E0590932F05A0933005B0933105B701CA
:1023F000A60148515C4F6F4F7F4F40932405509387
:1024000025056093260570932705C9CF40912A05BD
:1024100050912B0560912C0570912D05841795071F
:10242000A607B70788F1E0912205F09123053097C0
:1024300059F10995611571058105910519F00E9401
:10244000570F22C080912E0590912F05A091300545
:10245000B0913105845D9E4FAF4FBF4F80932A05E9
:1024600090932B05A0932C05B0932D0581E090E06F
:102470002091280530912905232B11F480E090E06C
:10248000909329058093280560912E0570912F0562
:1024900080913005909131051F910F91FF90EF9041
:1024A000DF90CF9008954F925F926F927F928F92BC
:1024B0009F92AF92BF92CF92DF92EF92FF920F93D3
:1024C0001F93CF93DF934B015C0180911E05909188
:1024D0001F05A0912005B091210588169906AA062E
:1024E000BB0609F4C2C08CE3C82ED12CE12CF12C20
:1024F000C501B401A70196010E94992760931705B1
:10250000CA01B901A70196010E9499276093180595
:10251000CA01B90128E130E040E050E00E9499276B
:1025200069017A0160931905CA01B9016C5F7F4F97
:102530008F4F9F4F27E030E040E050E00E94992706
:102540006F5F60931A05412C512C320140E004E684
:1025500010E0C0E9D1E0242F30E02E54384FF901CB
:10256000E370FF27309789F4C901B8010E948527DD
:10257000892B31F4C901BE010E948527892B29F4DA
:102580008EE691E0A0E0B0E004C08DE691E0A0E02E
:10259000B0E0480E591E6A1E7B1ED301C201AA2755
:1025A000BB27C816D906EA06FB0610F04F5FD3CF4B
:1025B00040931D05309799F4C90164E670E00E94CC
:1025C0008527892B39F4C90160E971E00E948527CC
:1025D000892B29F48EE691E0A0E0B0E004C08DE6FE
:1025E00091E0A0E0B0E0481A590A6A0A7B0AC418D0
:1025F000D508E608F708C90164E670E00E9485275F
:10260000EC01C90160E971E00E948527AAE9B2E006
:1026100020E0213039F4309749F4209729F40097CD
:1026200029F402C04C9103C04DE101C04CE150E0DF
:1026300060E070E0C416D506E606F70640F0C41A5E
:10264000D50AE60AF70A2F5F11962C3011F72F5F93
:1026500020931C05C394C0921B0580921E05909286
:102660001F05A0922005B0922105DF91CF911F9107
:102670000F91FF90EF90DF90CF90BF90AF909F9021
:102680008F907F906F905F904F9008950E94C91136
:102690000E94531280911D0590E08E54984F08952A
:1026A0000E94C9110E94531280911C0590E0089568
:1026B0000E94C9110E94531280911B0590E0089559
:1026C0000E94C9110E9453128091170590E008954D
:1026D0000E94C9110E9453128091180590E008953C
:1026E0000E94C9110E9453128091190590E008952B
:1026F0003F924F925F926F927F928F929F92AF9292
:10270000BF92CF92DF92EF92FF920F931F93CF93DE
:10271000DF9300D000D0CDB7DEB72091930527FD21
:10272000AAC149835A836B837C838C0161E08091C9
:1027300092050E948B0E30909305832D8D7F48016A
:10274000A12CB12C09F0B7C060E072E18AE790E0FB
:10275000A50194010E94BB2729013A0169017A0170
:1027600021E0C21AD108E108F1088FEFC816D104A0
:10277000E104F10409F008F44CC060E472E48FE075
:1027800090E0A50194010E94BB2769017A0191E0C4
:10279000C91AD108E108F108A2E03A1220C0BFEF3F
:1027A000CB16D104E104F10409F008F462C160E938
:1027B00070ED83E090E0A50194010E94BB276901C0
:1027C0007A01E1E0CE1AD108E108F108FFEFCF1657
:1027D000D104E104F10409F0C0F583E065C02FEFF6
:1027E000C216D104E104F104B1F0A8F068E478EE77
:1027F00081E090E0A50194010E94BB2769017A0164
:1028000081E0C81AD108E108F108332009F4D9C0E1
:1028100027C181E001C082E0332091F045C0D3019F
:10282000C2012AE0B595A795979587952A95D1F786
:102830006C017D01E1E0CE1AD108E108F10885E0E4
:1028400095B5987F892B85BD66C068E478EE81E0F8
:1028500090E0A50194010E94BB2769017A01B1E0D3
:10286000CB1AD108E108F108EFEFCE16D104E1044C
:10287000F10409F008F4A3C064E274EF80E090E092
:10288000A50194010E94BB2769017A0191E0C91A50
:10289000D108E108F108AFEFCA16D104E104F10450
:1028A00011F008F0B0C085E09091B100987F892BBD
:1028B0008093B10030C060E072E18AE790E0A5014A
:1028C00094010E94BB2769017A01F1E0CF1AD10877
:1028D000E108F108C114D10421E0E206F10488F016
:1028E00068E478EE81E090E0A50194010E94BB27A6
:1028F00069017A0181E0C81AD108E108F10893E082
:1029000001C091E0A1E03A1206C080918100887F69
:10291000892B8093810089819A81AB81BC81892B2D
:102920008A2B8B2B81F0D801AA0FBB1F29813A81FA
:102930004B815C810E94282728EE33E040E050E084
:102940000E94992703C02FEF3FEFA90191E03916AC
:10295000A1F0A2E03A1619F131108DC0C7BC209346
:102960008E0530938F05409390055093910580918B
:102970006E00826080936E007EC0D0928900C0920B
:10298000880020938A0530938B0540938C055093E3
:102990008D0580916F00826080936F006CC0C09243
:1029A000B3002093860530938705409388055093A4
:1029B0008905809170008260809370005CC084E023
:1029C00073CF8FEFC816D104E104F104D1F0C8F041
:1029D00062E17AE780E090E0A50194010E94BB27C4
:1029E00069017A01F1E0CF1AD108E108F1082FEF6F
:1029F000C216D104E104F10411F008F010CF84E014
:102A00001FCF83E01DCF62E17AE780E090E0A5016F
:102A100094010E94BB2769017A0191E0C91AD1088B
:102A2000E108F108AFEFCA16D104E104F104B1F0F6
:102A3000A8F0D301C2014AE0B595A795979587956F
:102A40004A95D1F76C017D01E1E0CE1AD108E10889
:102A5000F108332009F4F3CE87E026CF86E0DCCE00
:102A6000BFEFCB16D104E104F10409F060F684E075
:102A7000D3CE82E019CF0F900F900F900F90DF917F
:102A8000CF911F910F91FF90EF90DF90CF90BF906B
:102A9000AF909F908F907F906F905F904F903F90FE
:102AA0000895009769F0FC0101900020E9F7319743
:102AB000AF01481B590BBC0184E995E00C94F90A5D
:102AC00080E090E008958F929F92AF92BF920F9313
:102AD0001F93CF93DF93CDB7DEB7A1970FB6F894CE
:102AE000DEBF0FBECDBF19A2423008F44AE08E010E
:102AF0000F5D1F4F842E912CA12CB12CA5019401A8
:102B00000E949927E62FB901CA0101501109EA3044
:102B100014F4E05D01C0E95CD801EC93232B242B75
:102B2000252B61F7C8010E945115A1960FB6F894A4
:102B3000DEBF0FBECDBFDF91CF911F910F91BF9030
:102B4000AF909F908F9008950F931F93CF93DF9333
:102B50008C01C0E0D0E0F801EC0FFD1F649166230A
:102B600071F0E0919405F09195050190F081E02DD0
:102B700084E995E00995892B11F02196ECCFCE01DF
:102B8000DF91CF911F910F910895CF93DF930E9412
:102B9000A415EC018AEE93E00E9451158C0F9D1F45
:102BA000DF91CF910895CF92DF92EF92FF92CF9372
:102BB000DF936C01990FEE08FF08F7FE1AC0E09151
:102BC0009405F09195050190F081E02D6DE284E986
:102BD00095E00995EC0166277727CB016C197D09F3
:102BE0008E099F094AE00E9463157C01EC0EFD1ED0
:102BF00006C04AE0C701B6010E9463157C018AEE57
:102C000093E00E9451158E0D9F1DDF91CF91FF9093
:102C1000EF90DF90CF900895CF93DF93682F70E00F
:102C200080E090E042E00E946315EC018AEE93E0C0
:102C30000E9451158C0F9D1FDF91CF910895CF9366
:102C4000DF93FC01448155816081718184E995E0C5
:102C50000E94F90AEC018AEE93E00E9451158C0F54
:102C60009D1FDF91CF9108958F929F92AF92BF9257
:102C7000CF92DF92EF92FF920E94260F4B015C01F0
:102C800088EEC82E83E0D82EE12CF12C0E94260F6E
:102C9000DC01CB0188199909AA09BB09883E934038
:102CA000A105B10558F021E0C21AD108E108F108E8
:102CB00088EE880E83E0981EA11CB11CC114D104BB
:102CC000E104F10419F7FF90EF90DF90CF90BF90EF
:102CD000AF909F908F9008952091850590918405E5
:102CE000213208F04AC0809161058111FCCF32E0A9
:102CF0003093610531E0309360053FEF30935F051D
:102D000010925E0520935D05A4E6B5E04DE355E025
:102D1000FA013E2F341B321718F43D913193F9CF4D
:102D200010923C0520913C05990F922B90933C0505
:102D300090913B05913061F410923B0590913C05D8
:102D40009093BB009091BC0093FDF8CF95EC01C02F
:102D500095EE9093BC00909161059230E1F39091D3
:102D60005F059F3F79F080915F05803241F080914F
:102D70005F05803331F084E005C081E003C082E06C
:102D800001C083E0109263051092850510926205E0
:102D90000895DF92EF92FF920F931F93CF93DF93EB
:102DA00000D0CDB7DEB7F82E162F81E080936205F4
:102DB00088E680938405109263051092850560E093
:102DC00081E396E02A8349830E9460018AE0D82E3D
:102DD0004981842F6D2D0E947927692F30E1839FCF
:102DE000600D112481E396E00E946001812F6D2D1A
:102DF0000E947927692F30E1839F600D112481E3C0
:102E000096E00E9460018F2D6D2D0E947927692F19
:102E100030E1839F600D112481E396E00E94600100
:102E200061E081E396E00E9460012A81822F6D2D8E
:102E30000E947927692F20E1829F600D112481E390
:102E400096E00E946001802F6D2D0E947927692FE6
:102E500030E1839F600D112481E396E00E946001C0
:102E60008E2D6D2D0E947927692F20E1829F600DA4
:102E7000112481E396E00E94600160E081E396E026
:102E80000E9460010F900F90DF91CF911F910F91E1
:102E9000FF90EF90DF900C946C16CF93DF93CDB73B
:102EA000DEB7CD56D1090FB6F894DEBF0FBECDBF49
:102EB000789484B5826084BD84B5816084BD85B515
:102EC000826085BD85B5816085BD80916E00816021
:102ED00080936E00109281008091810082608093C7
:102EE00081008091810081608093810080918000C9
:102EF0008160809380008091B10084608093B100F4
:102F00008091B00081608093B00080917A008460ED
:102F100080937A0080917A00826080937A00809119
:102F20007A00816080937A0080917A008068809333
:102F30007A001092C10061E085E00E948B0E60E093
:102F400085E00E945B0E1092F8031092F703109236
:102F50006305109285051092610581E080936005FC
:102F600010923B0561E082E10E945B0E61E083E12B
:102F70000E945B0E8091B9008E7F8093B900809192
:102F8000B9008D7F8093B90088E48093B80085E410
:102F90008093BC00E091A405F091A50582E08083B8
:102FA000E091A005F091A1051082E091A205F091B9
:102FB000A30580E180831092AC05E091A805F09113
:102FC000A90586E08083E091A605F091A7058081A0
:102FD00080618083E091A605F091A70580818860DB
:102FE0008083E091A605F091A705808180688083A9
:102FF000E091A605F091A70580818F7D808383E312
:1030000098E0909333018093320181EE97E09093A2
:1030100015018093140190935A018093590180EF18
:1030200090E0909378018093770187EC92E00E9482
:10303000511580917701909178010E94D31581E01C
:1030400090E00E940D048C3019F088E190E002C0FD
:103050008CE090E0909364018093630180E090E0C5
:103060000E940D04882321F081E08093440102C076
:103070001092440182E090E00E940D048F3F29F4F9
:1030800010925C0110925B0105C090E090935C018E
:1030900080935B0183E090E00E940D048F3F29F450
:1030A00010925E0110925D0105C090E090935E0168
:1030B00080935D0184E090E00E940D048F3F29F42D
:1030C0001092600110925F0105C090E09093600142
:1030D00080935F0186E090E00E940D048F3F29F409
:1030E000109262011092610105C090E0909362011C
:1030F0008093610187E090E00E940D048F3F19F4F6
:1031000010929D0406C091E0811101C090E090935F
:103110009D0461E089E00E948B0E61E086E00E94E0
:103120008B0E61E083E00E948B0E8091340483302B
:1031300008F083C092E090939205E82FF0E0E05809
:10314000FF4FE491E09393058F5F80933404E13067
:1031500031F1E23009F44AC0E11172C014BC15BC6F
:1031600084B5826084BD85B5816085BD80919205FE
:1031700090E0FC01EF55FF4FE491F0E0EE0FFF1FF0
:10318000EA58FF4F259134913093F6032093F503CD
:10319000FC01E357FF4FE491E093F40351C0109218
:1031A000800010928100809181008860809381006E
:1031B000809181008160809381008091920590E0F0
:1031C000FC01EF55FF4FE491F0E0EE0FFF1FEA58CE
:1031D000FF4F259134913093F3032093F203FC01C8
:1031E000E357FF4FE491E093F1032AC01092B0003F
:1031F0001092B1008091B00082608093B000809105
:10320000B10081608093B1008091920590E0FC0153
:10321000EF55FF4FE491F0E0EE0FFF1FEA58FF4F2C
:10322000259134913093F0032093EF03FC01E35791
:10323000FF4FE491E093EE0303C08FEF809393057B
:1032400080910001909101010E943107909301014A
:103250008093000161E08AE00E948B0E61E088E0CB
:103260000E948B0E60E088E00E945B0E1FB7F8940E
:1032700080913504811127C0EBEAF0E08491E7E901
:10328000F0E09491E82FF0E0EE0FFF1FED57FF4FB5
:10329000A591B491EC91E92321F461E08AE00E94C8
:1032A0005B0E61E08AE00E948B0E8CB580618CBD64
:1032B0008CB580648CBD61E08DE00E948B0E61E076
:1032C0008BE00E948B0E809135048F5F80933504D4
:1032D0001FBF8CB5837F88608CBD8CB58C7F81606F
:1032E0008CBD8DB581608DBD8CB50E940C168CB5E2
:1032F0000E940C1662E08EE00E948B0E62E080E17C
:103300000E948B0E62E08FE00E948B0E61E082E0F3
:103310000E948B0E04E110E020E030E00093720682
:103320001093730620937406309375064EE150E0B7
:1033300060E070E0409376065093770660937806DD
:103340007093790680ED97E0A0E0B0E080937A0674
:1033500090937B06A0937C06B0937D06009359065C
:1033600010935A0620935B0630935C0640935D06EB
:1033700050935E0660935F067093600680936106CB
:1033800090936206A0936306B09364060093400690
:10339000109341062093420630934306409344061F
:1033A00050934506609346067093470680934806FF
:1033B00090934906A0934A06B0934B0682ED90E0A5
:1033C0000E94A41525E030E042E050E06EE876E08F
:1033D000CE0101961C010E94850D22E030E041E003
:1033E00050E06EE876E0CE01875B9F4F0E94850D2E
:1033F000BE01675B7F4FCE018D5B9F4F0E94670DC3
:1034000064EE72E0CE018D5B9F4F0E94C60CB1014D
:103410000E94DF0C0E941F16CE018D5B9F4F0E9401
:103420002A0DCE01875B9F4F0E942A0DC1010E9489
:103430002A0D87EC90E00E94C515809100019091C3
:10344000010190933304809332040E9431076FEF9F
:1034500070E089E00E94C70E0E94341660E070E0C0
:1034600089E00E94C70E6FEF70E086E00E94C70EF1
:103470000E94341660E070E086E00E94C70E6FEF95
:1034800070E083E00E94C70E0E94341686EE92E040
:103490000E9451158091940690919506009711F421
:1034A00088E996E0D101A81BB90BCD010E94D31584
:1034B00062EF72E0C1010E94700D6BEF72E0CE010D
:1034C00007960E94700D64E073E0CE010D960E9495
:1034D000700D6DE073E0CE0143960E94700D66E1C1
:1034E00073E0CE0149960E94700D6FE173E0CE014A
:1034F0004F960E94700D68E273E0CE0185960E949F
:10350000700D61E373E0CE018B960E94700D6AE34B
:1035100073E0CE01C1960E94700D63E473E0CE01AA
:10352000C7960E94700D6CEE73E0CE01CD960E949E
:10353000700D6EE876E0CE018D5B9F4F0E94670DA7
:1035400068EF72E0CE018D5B9F4F0E94C60CBC01FC
:10355000CE01CD960E94130DCE018D5B9F4F0E9430
:103560002A0D8FEB90E00E94A41580E090E00E946D
:10357000D3150E944B0F4B015C01B8EE8B0EB3E0EC
:103580009B1EA11CB11C1FEF24EFE22EFF24F3941D
:1035900000E036E0532E4BE3C42E4FE1D42E8FE0F3
:1035A0000E94320E892B09F401E080E10E94320E64
:1035B000892B09F400E09BE0792E662463940E9435
:1035C0004B0FDC01CB0188199909AA09BB099701A6
:1035D0000F2C000C440B550B281739074A075B07C3
:1035E00000F50E944B0F4B015C01011101C01F5FF0
:1035F0001A3021F01B3031F4612C04C088EBE82E26
:103600008BE0F82EB101519E600D711D112488E8E8
:1036100096E00E94130D88E896E00E941F160E9413
:103620000F047A947110CBCFC6010197F1F76110A6
:10363000B6CF85EB90E00E94C5158E010D5B1F4F44
:1036400006501109C8010E942A0D02151305C1F781
:1036500080919D0481110E94B80681E080936205EB
:1036600088E680938405109263051092850560E0DA
:1036700081E396E00E9460010E946C1680916105D2
:103680008111FCCF81E080936105809360059FEFFD
:1036900090935F0510925E0596E090935D05809390
:1036A0003C0580913C05806D80933C0580913B05F5
:1036B000813061F410923B0580913C058093BB0002
:1036C0008091BC0083FDF8CF85EC01C085EE80932E
:1036D000BC00809161058130E1F380915E05873007
:1036E00018F480915E0501C087E0ADE3B5E029EFF5
:1036F00033E0F9019E2F921B981718F49D91919336
:10370000F9CF1092F8038093F70381E396E00E94CB
:103710001401982F92959F708F70A82EEAE09E9FBB
:10372000A00C11244A2C512C50923D0440923C0490
:1037300081E396E00E941401982F92959F708F70FC
:10374000FAE09F9F800D1124A8968FAFA897682E4E
:10375000712C70923B0460923A0481E396E00E94DF
:103760001401982F9695969596959670292F220F6D
:10377000220F920F8F70980FAC969FAFAC97892E47
:10378000912C909239048092380481E396E00E9453
:103790001401982F92959F708F702AE0929F800D50
:1037A000112490E0909337048093360481E396E0EF
:1037B0000E941401982F92959F708F70D82E3AE036
:1037C000939FD00C11242D2D30E030933F04209393
:1037D0003E0481E396E0AE96DFAEAE97AD963FAF86
:1037E000AD970E941401982F92959F708F70C82EEC
:1037F0004AE0949FC00C11240C2D10E0109341045A
:103800000093400481E396E00E941401982F929562
:103810009F708F70B82E5AE0959FB00C1124EB2C3E
:10382000F12CF0924304E0924204AE962FADAE9795
:10383000AD963FADAD97A201B301C4010E94ED105A
:1038400060E085E00E945B0EEB2C0C2D2D2D4A2DA7
:10385000A8966FADA897AC968FADAC970E94C9168D
:1038600061E085E00E945B0EB8EE4B2EB3E05B2E6C
:1038700066246394712CBE016F5F7F4F6B010091D2
:10388000320410913304D8018C91882309F448C183
:103890000E944B0F80904A0490904B04A0904C04DF
:1038A000B0904D04DC01CB0188199909AA09BB0924
:1038B0008090460490904704A0904804B09049043A
:1038C00088169906AA06BB0608F02AC10E944B0F6B
:1038D0004B015C0160934A0470934B0480934C0449
:1038E00090934D0410921E0410921D04C8016AE0CA
:1038F0007C01FC011081019640ED410F20911D04D7
:1039000030911E044A3080F4629FA001639F500DE5
:103910001124E12F110FFF0BF097E40FF51FF09327
:103920001E04E0931D04E4CF6091190470911A0401
:1039300080911B0490911C042115310529F0032E60
:10394000000C440B550B05C020913F0130E040E0D6
:1039500050E00E94BB2720934604309347044093D5
:10396000480450934904812F110F990BAA0BBB0BEC
:10397000FC01E156F109E730F10520F4EC5CFF4F62
:103980000C94DA27109245040FC081E00BC083E04D
:1039900009C085E007C086E005C088E003C08AE072
:1039A00001C08CE080934504D70111968C9183323D
:1039B00021F087010F5F1F4F08C0809145048F5F82
:1039C0008093450487010E5F1F4FF80180818E327E
:1039D00051F520914604309147044091480450919C
:1039E0004904AB962CAF3DAF4EAF5FAFAB97CA016A
:1039F000B90122E030E040E050E00E94BB27AB96E6
:103A00008CAD9DADAEADBFADAB97820F931FA41F24
:103A1000B51F8093460490934704A0934804B09345
:103A200049040F5F1F4FD8018C9180538A3028F4CE
:103A3000809344040F5F1F4F04C080913E01809328
:103A4000440480914404F80190819C3211F40F5F8A
:103A50001F4F20914504222309F462C0409146047F
:103A6000509147046091480470914904AB964CAF63
:103A70005DAF6EAF7FAFAB9790E004973CE0389FAF
:103A8000F001399FF00D1124E20FF11DEE0FFF1F21
:103A9000ED55FE4F808191810E9478130E944B0F5B
:103AA000DC01CB0188199909AA09BB09AB962CAD99
:103AB0003DAD4EAD5FADAB97281739074A075B07A1
:103AC00078F50E944B0F60934A0470934B048093E7
:103AD0004C0490934D0480919305813051F08230D5
:103AE00071F0811111C080916E008D7F80936E0006
:103AF0000BC080916F008D7F80936F0005C0809117
:103B000070008D7F8093700060E0809192050E942C
:103B10005B0E85EE90E00E94C51590E080E002C04B
:103B2000902F812F90933204809333040E944B0F87
:103B30000091A1041091A2042091A3043091A40447
:103B4000DC01CB01801B910BA20BB30B0697A105E7
:103B5000B10508F489C080914401811110C060E072
:103B600070E089E00E94C70E60E070E086E00E948D
:103B7000C70E60E070E083E00E94C70E6BC08091CA
:103B80009D04811167C00091500410915104C80137
:103B9000880F991F800F911FFC01EE0FFF1FEB5F35
:103BA000FD4F609145017091460120813181620F86
:103BB000731F7093460160934501FC01EE0FFF1FD8
:103BC000E95FFD4F2091950430919604E080F180EB
:103BD000E20EF31EF0929604E0929504880F991F6E
:103BE000FC01E75FFD4F8091930490919404A080C5
:103BF000B180A80EB91EB0929404A092930489E0FB
:103C00000E94C70EB70186E00E94C70EB50183E08F
:103C10000E94C70E80914E0490914F04019690939C
:103C20004F0480934E048F3F910551F40F5F1F4F57
:103C3000109351040093500410924F0410924E04BC
:103C40008091500490915104069724F010925104F1
:103C5000109250040E944B0F6093A1047093A20431
:103C60008093A3049093A404009130041091310434
:103C70000115110521F08091A00481118DC1809161
:103C80002F04811189C18091620481110DC00E94AD
:103C90004B0F60935E0470935F0480936004909375
:103CA000610481E0809362048091560481110DC00B
:103CB0000E944B0F609352047093530480935404FA
:103CC0009093550481E0809356040E944B0F80909E
:103CD0005E0490905F04A0906004B0906104DC01E9
:103CE000CB0188199909AA09BB09809040019090DD
:103CF0004101A0904201B090430188169906AA069E
:103D0000BB06B8F50E944B0F60935E0470935F048E
:103D10008093600490936104012B89F470923104C4
:103D20006092300448E853E160E070E04093400165
:103D300050934101609342017093430110C010926F
:103D400031041092300460E67AEE80E090E06093F7
:103D5000400170934101809342019093430180910F
:103D6000A004882321F010923104109230041092A4
:103D7000A0040E944B0F00915E0410915F042091FB
:103D8000600430916104DC01CB01801B910BA20B1C
:103D9000B30B803D9740A105B10508F0FBC00E9420
:103DA0004B0F009152041091530420915404309110
:103DB0005504DC01CB01801B910BA20BB30B8536A4
:103DC0009105A105B10508F4E7C00E944B0F60936F
:103DD000520470935304809354049093550480913B
:103DE000300490913104892B09F069C0CE01855AC5
:103DF0009F4F0E94110A0E944613B2010E9485271C
:103E0000BC01CE01815B9F4F0E942D080E94501380
:103E1000BC01CE01875B9F4F0E942D080E94581362
:103E2000BC01C1010E942D08B101CE018D5B9F4FE5
:103E30000E94670DBE01675B7F4FCE018D5B9F4F78
:103E40000E94DF0CBE01615B7F4F0E94DF0CBC0152
:103E5000CE018B5A9F4F0E94670DAE01455A5F4FAE
:103E6000BE016B5A7F4FCE018F599F4F0E940406AF
:103E7000BE016F597F4F88E896E00E947B0CCE010F
:103E80008F599F4F0E942A0DCE018B5A9F4F0E943F
:103E90002A0DCE018D5B9F4F0E942A0DC1010E9409
:103EA0002A0DCE01875B9F4F0E942A0DCE01815BB8
:103EB0009F4F0E942A0DCE01855A9F4F68C00E94D5
:103EC0004613B2010E948527BC01CE018B5A9F4F39
:103ED0000E942D080E945013BC01CE01815B9F4FB0
:103EE0000E942D080E945813BC01CE018D5B9F4F8C
:103EF0000E942D08BE016D5B7F4FCE01875B9F4FF7
:103F00000E94670DBE01615B7F4FCE01875B9F4FB3
:103F10000E94DF0CBE016B5A7F4F0E94DF0CBC0178
:103F2000CE01855A9F4F0E94670DC1010E94110A60
:103F3000AE01455A5F4FB101CE018F599F4F0E948C
:103F40000406BE016F597F4F88E896E00E947B0C03
:103F5000CE018F599F4F0E942A0DC1010E942A0D48
:103F6000CE01855A9F4F0E942A0DCE01875B9F4F3D
:103F70000E942A0DCE018D5B9F4F0E942A0DCE011B
:103F8000815B9F4F0E942A0DCE018B5A9F4F0E944A
:103F90002A0D02C0109225040E940F048FE696E0BD
:103FA0000E94270286E596E00E9427028DE396E0B4
:103FB0000E94270280912F04811105C010922E04C7
:103FC00010922D0430C00E944B0F009129041091D3
:103FD0002A0420912B0430912C04DC01CB01801B9E
:103FE000910BA20BB30B81369A4EA105B105D8F007
:103FF00010922F04E0913004F0913104EE0FFF1F76
:10400000E859FD4F80819181909331048093300471
:10401000880F991FFC01EB59FE4F8081918190938D
:104020002E0480932D0480916F06909170061816CF
:1040300019060CF04EC181E08093A0041092330465
:104040001092320444E650E060E070E088EE93E0C5
:104050000E9478130E944B0F6093290470932A04E6
:1040600080932B0490932C04809130049091310420
:1040700001968430910529F09093310480933004A7
:1040800004C0109231041092300482E191E00E9449
:10409000A41580913004909131040E94D3158BE0D7
:1040A00091E00E94A415E0913004F0913104EE0FEC
:1040B000FF1FE95BFE4F808191810E94D315209103
:1040C000300430913104F901EE0FFF1FEB59FE4F20
:1040D0008081918190932E0480932D042150310989
:1040E000F901EE0FFF1FE65BFD4F40815181411545
:1040F000510509F4DDC0CA010197FC01EE0FFF1F55
:10410000E45DFD4F608171816217730709F0D0C0D3
:104110004230510569F528E1EBE8F1E0D101019069
:104120000D922A95E1F72091590130915A0123709F
:104130003327232B21F42DE130E03C832B83209186
:10414000550130915601E0915701F0915801319796
:10415000EE0FFF1FE20DF31D4081518142175307FF
:104160003CF487E090E090933104809330042AC4BB
:1041700010922F049093310480933004892BB9F46A
:104180000E9446137C010E9450138C010E94581318
:10419000409153015091540160915101709152012D
:1041A0009C0180914F01909150010E94ED108091EF
:1041B000300490913104019721F5E0905901F0907D
:1041C0005A010091570110915801209155013091E9
:1041D0005601AE962FAFAE97AD963FAFAD970E940A
:1041E00060134C010E9468135C010E947013AE962C
:1041F0002FADAE97AD963FADAD97A401B5010E942E
:10420000ED1080913004909131040297C1F46091D7
:104210005B0182E090E00E940B0460915D0183E00D
:1042200090E00E940B0460915F0184E090E00E94A6
:104230000B046091610186E090E00E940B04809184
:10424000300490913104039731F46091630181E06F
:1042500090E00E940B0460E085E00E945B0E0E94EB
:1042600046137C010E945013082F0E945813AE96EB
:104270008FAFAE970E946013AD968FAFAD970E943F
:104280006813182F0E947013382FC701B2010E94C3
:104290008527E82EAE962FADAE97AD964FADAD9774
:1042A000612F832F0E94C91661E085E00E945B0E9A
:1042B000009130041091310480912D0490912E04CE
:1042C0000E94C207000F111FF801E95BFE4F9183A6
:1042D000808380916F069091700697FF92C044E6AC
:1042E00050E060E070E088EE93E00E9478138091E7
:1042F0002F04811155C00E944B0F609329047093C5
:104300002A0480932B0490932C0480913004909184
:104310003104892B09F044C00E946013BC01C10123
:104320000E942D080E946813BC01CE018D5B9F4F37
:104330000E942D080E947013BC01CE01815B9F4F2B
:104340000E942D08BE01615B7F4FCE01875B9F4FAE
:104350000E94670DBE016D5B7F4FCE01875B9F4F53
:104360000E94DF0CB1010E94DF0C68EF72E00E9436
:10437000C60CBC0188E896E00E94130DCE01875B55
:104380009F4F0E942A0DCE01815B9F4F0E942A0DF4
:10439000CE018D5B9F4F0E942A0DC1010E942A0D04
:1043A000E0913004F0913104EE0FFF1FE859FD4F0A
:1043B0008081918190933104809330048A309105FB
:1043C00039F4709262016092610120E82093280420
:1043D00030912F0421E0232720932F048C01000F1C
:1043E000111FF801EB59FE4F8081918190932E04AB
:1043F00080932D040E94C207F801E95BFE4F918370
:1044000080838091560690915706009719F19093FA
:104410009F0480939E0418161906E4F481E08093AB
:10442000A004109233041092320444E650E060E09D
:1044300070E088EE93E00E9478130E9499098091C1
:104440002F04811107C010929D0460E087E090E086
:104450000E940B0480919E0490919F04019661F547
:1044600080915806882341F11092270480912F04EF
:10447000882329F10E944B0F0091990410919A040E
:1044800020919B0430919C04DC01CB01801B910B9B
:10449000A20BB30B87399105A105B10580F00E94ED
:1044A0004B0F6093990470939A0480939B049093AC
:1044B0009C040E94990903C081E0809327048091A5
:1044C0003D0690913E060097A9F190939804809341
:1044D00097041816190674F511E01093A0041092B1
:1044E00033041092320444E650E060E070E088EE5D
:1044F00093E00E9478130E94210980912F0481117A
:1045000019C010939D0461E087E090E00E940B04C5
:104510006091450188E090E00E940B046091950451
:1045200089E090E00E940B04609193048AE090E09F
:104530000E940B048091970490919804019661F574
:1045400080913F06882341F11092260480912F0428
:10455000882329F10E944B0F00918F041091900441
:104560002091910430919204DC01CB01801B910BCE
:10457000A20BB30B87399105A105B10580F00E940C
:104580004B0F60938F0470939004809391049093E9
:1045900092040E94210903C081E080932604809147
:1045A0002F04811135C0809156069091570697FFD0
:1045B00016C044E650E060E070E088EE93E00E94B0
:1045C000781381E08093440161E080E090E00E94F4
:1045D0000B0484E091E00E94C5150E94B80680910A
:1045E0003D0690913E0697FF13C044E650E060E020
:1045F00070E088EE93E00E9478131092440160E02E
:1046000080E090E00E940B048CEF90E00E94C515C2
:1046100080913004909131048130910509F4A1C05A
:104620001CF4892B79F1CEC18230910509F475C152
:10463000039709F0C7C160916301709164014AE07A
:10464000C6010E942F0D68EF72E0CE018D5B9F4F77
:104650000E94700DB601CE018D5B9F4F0E94DF0C52
:1046600066EF72E00E94C60CBC0188E896E00E94EA
:10467000130DCE018D5B9F4F0E942A0DC6010E9433
:104680002A0D9CC18091250481112FC00E944B0FDF
:1046900000916A0410916B0420916C0430916D04B8
:1046A000DC01CB01801B910BA20BB30B0B97A10577
:1046B000B10570F00E944B0F60936A0470936B0415
:1046C00080936C0490936D04C6010E94110A05C08A
:1046D00068E876E0C6010E94670DB60188E896E0BA
:1046E0000E947B0CC6010E942A0D809173048111E7
:1046F0000DC00E944B0F60936F0470937004809301
:1047000071049093720481E0809373040E944B0FB4
:1047100000916F0410917004209171043091720423
:10472000DC01CB01801B910BA20BB30B893E9340A4
:10473000A105B10508F444C10E944B0F60936F04BA
:1047400070937004809371049093720490916E043E
:1047500081E0892780936E04882309F42FC180ECBF
:104760002AC1809125048111D6C0809187048111CE
:104770000DC00E944B0F6093830470938404809358
:1047800085049093860481E08093870480917B0464
:10479000811146C00E944613B2010E948527BC01C8
:1047A000C6010E942D080E945013BC01CE018D5BF2
:1047B0009F4F0E942D080E945813BC01CE01815BBF
:1047C0009F4F0E942D08BE01615B7F4FCE01875B2A
:1047D0009F4F0E94670DBE016D5B7F4FCE01875BCF
:1047E0009F4F0E94DF0CB6010E94DF0CBC018FE1DD
:1047F00094E00E94670D81E080937B04CE01875B8B
:104800009F4F0E942A0DCE01815B9F4F0E942A0D6F
:10481000CE018D5B9F4F0E942A0DC6010E942A0D7A
:104820000E944B0F00918304109184042091850411
:1048300030918604DC01CB01801B910BA20BB30BE2
:10484000893E9340A105B10508F458C00E944B0F62
:10485000609383047093840480938504909386040A
:104860000E9446137C010E945013BC01CE018D5B57
:104870009F4F0E942D080E945813BC01CE01815BFE
:104880009F4F0E942D08BE01615B7F4FCE01875B69
:104890009F4F0E94670DBE016D5B7F4FCE01875B0E
:1048A0009F4F0E94DF0C8C014AE0B601C7010E94B5
:1048B000A626F60101900020E9F73197AF014C19C7
:1048C0005D09B601C8010E944D0C811103C0C801E9
:1048D0000E94B40CB8018FE194E00E94130DCE0148
:1048E000875B9F4F0E942A0DCE01815B9F4F0E94E4
:1048F0002A0DCE018D5B9F4F0E942A0D6FE174E05F
:10490000C6010E94670DB60188E896E00E947B0C04
:10491000C6010E942A0D80E44EC060915F01709133
:104920006001C6010E942D0860915D0170915E01D9
:10493000CE018D5B9F4F0E942D0860915B017091AD
:104940005C01CE01815B9F4F0E942D08BE01615B1F
:104950007F4FCE01875B9F4F0E94670DBE016D5B4D
:104960007F4FCE01875B9F4F0E94DF0CB6010E94F4
:10497000DF0C68EF72E00E94C60CBC0188E896E08C
:104980000E94130DCE01875B9F4F0E942A0DCE011E
:10499000815B9F4F0E942A0DCE018D5B9F4F0E942D
:1049A0002A0DC6010E942A0D809161019091620139
:1049B000019721F480E88093280402C01092280413
:1049C0000E94D0060E94E60B0C943F1C88E896E0FB
:1049D0000E942A0D8EE896E00C942A0DE4E9F5E099
:1049E0001382128288EE93E0A0E0B0E08483958386
:1049F000A683B7832BEA32E03183208325EC30E0B5
:104A00003587248724EC30E03787268720EC30E098
:104A1000318B208B21EC30E0338B228B22EC30E089
:104A2000358B248B26EC30E0378B268B118E128E43
:104A3000138E148EE1E3F6E0138212828483958351
:104A4000A683B7838BEB92E09183808363EE73E060
:104A50008EE896E00E94700D64EF72E088E896E0C0
:104A60000E94700D21E040E06EE08FE696E00E942B
:104A7000920221E040E060E186E596E00E94920229
:104A800021E040E06FE08DE396E00C949202CF933A
:104A9000DF938230910510F482E090E0E091960679
:104AA000F091970620E030E0C0E0D0E0309711F1BF
:104AB0004081518148175907C0F04817590761F4E0
:104AC00082819381209719F09B838A832BC09093D6
:104AD00097068093960626C02115310519F04217D6
:104AE000530718F49A01BE01DF01EF010280F38140
:104AF000E02DDCCF2115310509F1281B390B2430BD
:104B0000310590F412968D919C9113976115710562
:104B100021F0FB019383828304C0909397068093D6
:104B20009606FD01329644C0FD01E20FF31F81930A
:104B30009193225031092D933C933AC020919406D1
:104B400030919506232B41F4209187013091880103
:104B5000309395062093940620918501309186012B
:104B60002115310541F42DB73EB74091890150918F
:104B70008A01241B350BE0919406F0919506E2170B
:104B8000F307A0F42E1B3F0B2817390778F0AC0170
:104B90004E5F5F4F2417350748F04E0F5F1F50934D
:104BA0009506409394068193919302C0E0E0F0E073
:104BB000CF01DF91CF9108950F931F93CF93DF9390
:104BC000009709F48CC0FC01329713821282009185
:104BD0009606109197060115110581F42081318107
:104BE000820F931F2091940630919506281739075C
:104BF00079F5F0939506E093940671C0D80140E0F2
:104C000050E0AE17BF0750F412962D913C911397C8
:104C1000AD012115310509F1D901F3CF9D01DA016B
:104C20003383228360817181860F971F82179307D8
:104C300069F4EC0128813981260F371F2E5F3F4F21
:104C4000318320838A819B8193838283452B29F43E
:104C5000F0939706E093960642C01396FC93EE936A
:104C60001297ED01499159919E01240F351FE217CA
:104C7000F30771F480819181840F951F029611963C
:104C80009C938E938281938113969C938E9312971B
:104C9000E0E0F0E0D80112968D919C911397009777
:104CA00019F0F8018C01F6CF8D919C9198012E5F3F
:104CB0003F4F820F931F209194063091950628173D
:104CC000390769F4309729F41092970610929606E6
:104CD00002C0138212821093950600939406DF910E
:104CE000CF911F910F9108951F93FC019927882759
:104CF000BC01E89411911032E9F3193010F01E3024
:104D0000C8F31B3251F01D3249F4689406C00E946A
:104D1000B126610F711D811D911D119110531A3023
:104D2000B0F33EF490958095709561957F4F8F4FCD
:104D30009F4F1F9108954532510520F4423010F0E5
:104D40000C94A626FB011082CB010895BB274A30A4
:104D500031F4992322F4BDE2909581959F4F0C94F4
:104D6000E926592F482F372F262F660F771F881FC8
:104D7000991F660F771F881F991F620F731F841F6B
:104D8000951F660F771F881F991F0895BB27FA018B
:104D9000A62F6217710581059105330B30FB66F074
:104DA000AA27660F771F881F991FAA1FA21710F046
:104DB000A21B63953850A9F7A05DAA3308F0A95D3E
:104DC000A19336F7B111B1931082CA010C94022756
:104DD000BB27FB015527AA27880F991FAA1FA417D5
:104DE00010F0A41B83955051B9F7A05DAA3308F0C9
:104DF000A95DA193009779F7B111B1931192CB01FD
:104E00000C940227DC01FC01672F71917723E1F7F5
:104E1000329704C07C916D9370836291AE17BF0787
:104E2000C8F30895F999FECF92BD81BDF89A9927EC
:104E300080B50895262FF999FECF1FBA92BD81BD86
:104E400020BD0FB6F894FA9AF99A0FBE019608950C
:104E50000E946A27A59F900DB49F900DA49F800D7E
:104E6000911D112408952F923F924F925F926F925D
:104E70007F928F929F92AF92BF92CF92DF92EF92EA
:104E8000FF920F931F93CF93DF93CDB7DEB7CA1B6B
:104E9000DB0B0FB6F894DEBF0FBECDBF09942A8896
:104EA000398848885F846E847D848C849B84AA843E
:104EB000B984C884DF80EE80FD800C811B81AA81CB
:104EC000B981CE0FD11D0FB6F894DEBF0FBECDBF96
:104ED000ED010895A29FB001B39FC001A39F700D83
:104EE000811D1124911DB29F700D811D1124911DF2
:104EF0000895991B79E004C0991F961708F0961B36
:104F0000881F7A95C9F78095089597FB072E16F4A8
:104F1000009407D077FD09D00E94E82707FC05D050
:104F20003EF4909581959F4F0895709561957F4FC0
:104F30000895A1E21A2EAA1BBB1BFD010DC0AA1FDA
:104F4000BB1FEE1FFF1FA217B307E407F50720F0F2
:104F5000A21BB30BE40BF50B661F771F881F991F6D
:104F60001A9469F760957095809590959B01AC01B6
:104F7000BD01CF010895052E97FB1EF400940E94F9
:104F8000D22757FD07D00E94992707FC03D04EF483
:104F90000C94D22750954095309521953F4F4F4F17
:104FA0005F4F089590958095709561957F4F8F4FD5
:104FB0009F4F0895EE0FFF1F0590F491E02D099487
:104FC000B7FF0C9428270E942827821B930B089573
:104FD000AA1BBB1B51E107C0AA1FBB1FA617B7071F
:104FE00010F0A61BB70B881F991F5A95A9F780953B
:104FF0009095BC01CD010895A0E0B0E0E2E0F8E2B8
:105000000C943727EC01009721F4CB010E9447252F
:10501000B8C0FC01E60FF71F9C0122503109E217CE
:10502000F30708F4ACC0D9010D911C911197061734
:105030001707B0F00530110508F49FC0C8010497A8
:105040008617970708F499C002501109061B170B21
:10505000019311936D937C93CF010E94DC258DC049
:105060005B01A01AB10A4C01800E911EA091960618
:10507000B091970640E050E0E12CF12C109709F434
:105080004AC0A815B905D1F56D907C9011976301C0
:1050900082E0C80ED11CCA14DB0480F1A3014A19B6
:1050A0005B096A0182E0C80ED11C1296BC9012976F
:1050B0001396AC91B5E0CB16D10440F0B282A38335
:1050C00051834083D9016D937C930AC00E5F1F4FBB
:1050D000C301800F911FF90191838083EB2DFA2F7B
:1050E000E114F10431F0D7011396FC93EE9312977B
:1050F00044C0F0939706E09396063FC08D919C9133
:1051000011974817590708F4AC017D0112960D90CC
:10511000BC91A02DB3CF80919406909195068815EF
:105120009905E1F446175707C8F4809185019091DD
:105130008601009741F48DB79EB740918901509147
:105140008A01841B950BE817F907C8F4F0939506BC
:10515000E0939406F901718360830FC0CB010E9434
:1051600047257C01009759F0A801BE010E94CB2879
:10517000CE010E94DC25C70104C0CE0102C080E040
:1051800090E0CDB7DEB7EEE00C94532781E090E0DD
:10519000F8940C94DB28FB01DC0102C001900D9215
:1051A00041505040D8F70895FB01DC0101900D9269
:1051B0000020E1F7089510E0C7EAD0E004C0FE0146
:1051C0000E94DA272196C83AD107C9F7F894FFCF91
:1051D0004C030000000000000C0000000000000074
:1051E00001000100000000000000000000000C00B1
:1051F000000000000000000017003B003B001F0003
:105200000C00630017003B003B000100180006047F
:1052100060EA000001FF0000000000000000000044
:10522000000000000000000000000000000000007E
:105230000000001800000000000000000003000C47
:1052400000300003000C00300003000C003000C0F0
:10525000000C003F000000980680001F001C001F8B
:10526000001E001F001E001F001F001E001F001E4A
:10527000001F00000006011501260137014A015DEB
:1052800001720188019F01B801D201EE010B022ACF
:10529000024B026E029302BA02E40210033F037053
:1052A00003A403DC03170455049704DD04270575E4
:1052B00005C80520067D06E0064907B8072D08A9A0
:1052C000082D09B9094D0AEA0A900B400CFA0CC0E6
:1052D0000D910E6F0F000000000100FFFF000000A5
:1052E0000000000100000000000000FFFF010000BE
:1052F0000000000000FFFF00000A09080600090086
:105300000D000E0000000000000000000000000082
:10531000000000000000000000000000000000008D
:105320000000010001000100020002000200030071
:105330000300030003000400040007000A000E003D
:10534000000000000000000000000000000000005D
:10535000000000000000010002000400080010002E
:10536000200040008000000100021F1C1F1E1F1EA5
:105370001F1F1E1F1E1F00000000007D0BF90A46A4
:105380000B240B380BC40B00000000600130012817
:1053900001140105010401626C696E6B5061747443
:1053A00065726E5B4461746559656172496E6465CE
:1053B000785D3D002E00467265652072616D203D6E
:1053C0002000303030303030303000313131313148
:1053D0003131310032323232323232320033333311
:1053E00033333333330034343434343434340035E9
:1053F000353535353535350036363636363636368A
:105400000037373737373737370038383838383894
:1054100038380039393939393939390050696E6BC2
:1054200050616E746865723A643D342C6F3D352C62
:10543000623D3136303A3864232C38652C32702C7A
:105440003866232C38672C32702C3864232C38654E
:105450002C3136702C3866232C38672C3136702C62
:105460003863362C38622C3136702C3864232C3853
:10547000652C3136702C38622C3261232C32702C22
:105480003136612C3136672C3136652C3136642C3F
:10549000326500646F776E56616C75653D00646FB0
:1054A000745061747465726E3D00757056616C75F0
:0E54B000653D00303130323130000D0A000011
:00000001FF
