:100000000C94DC000C9404010C9404010C94040185
:100010000C9404010C9404010C9404010C947D0DC7
:100020000C9404010C9404010C9404010C94D80D5C
:100030000C9404010C9404010C943D0E0C940401E6
:100040000C94330D0C9404010C94B50B0C948F0B91
:100050000C9404010C9404010C9404010C9404010C
:100060000C947D020C9404017C1A7E1A721A741A84
:10007000761A781A7A1A08000000BE922449123EB5
:10008000ABAAAA2ABECDCCCC4C3E00000080BEABB1
:10009000AAAAAA3E00000000BF000000803F0000A6
:1000A000000000084178D3BB4387D1133D190E3CB3
:1000B000C3BD4282AD2B3E68EC8276BED98FE1A9EA
:1000C0003E4C80EFFFBE01C4FF7F3F0000000000F8
:1000D00000000000250028002B00020100000000A5
:1000E00000240027002A000102040810204080019B
:1000F000020408102001020408102004040404046F
:100100000404040202020202020303030303035372
:10011000746F702054657374005520696E70757427
:100120003D005374617274205465737400466972A3
:100130006D776172652076657273696F6E3A200023
:100140005761726E696E67212052544320444F4EAE
:10015000275420524553504F4E442100496E636F3F
:10016000727265637420536F6E6720466F726D61A3
:1001700074210076616C75653D006D656E75506F1C
:10018000736974696F6E3D0057616B652075702CE3
:10019000204E656F2100000000002300260029008A
:1001A0000000000800020100000304070000000036
:1001B00000000000B423AC2311241FBECFEFD8E011
:1001C000DEBFCDBF13E0A0E0B1E0E8EAF4E502C095
:1001D00005900D92AA3AB107D9F726E0AAEAB3E052
:1001E00001C01D92AD34B207E1F710E0CBEDD0E0D5
:1001F00004C02197FE010E946E24CA3DD107C9F7B1
:100200000E9459140C94472A0C94000085ED8093A9
:10021000BC008091BC0084FDFCCF109216050895AF
:100220004091A704262F30E0240F311D21323105E3
:10023000DCF4209116052430C9F4FC0180E090E044
:10024000861758F43091A7042191DC01AB57BB4FBE
:10025000A30FB11D2C930196F3CF8091A704680FD3
:100260006093A70480E0089581E0089582E00895F6
:100270000895E091AB038091AA03E81730F4F0E011
:10028000EB59FB4F808190E008958FEF9FEF089529
:100290009091AB038091AA03981750F4E92FF0E0F6
:1002A000EB59FB4F208130E09F5F9093AB0302C07E
:1002B0002FEF3FEFC90108958091AA0390E02091AC
:1002C000AB03821B91090895CF92DF92EF92FF92C8
:1002D0000F931F93CF93DF937C01262F972F8A01D3
:1002E00080911705882391F0C62FD72F6E01C40E79
:1002F000D51ECC15DD0571F06991D701ED91FC910A
:100300000190F081E02DC7010995F3CF642F822F72
:100310000E941001C801DF91CF911F910F91FF90B2
:10032000EF90DF90CF900895CF93DF931F92CDB7DA
:10033000DEB76983209117052223D1F020913A0579
:10034000203240F021E030E0FC013383228380E062
:1003500090E015C080911805E82FF0E0E75EFA4FB5
:10036000998190838F5F8093180580933A0505C02B
:1003700061E0CE0101960E94100181E090E00F90B3
:10038000DF91CF9108958BEB93E00C94DF0ACF922D
:10039000DF92EF92FF92CF93DF93EC010E94000D6A
:1003A0006B017C018F850E94E70B21E0892B09F40A
:1003B00020E0298B8889811103C081E08227898B05
:1003C00029898A89281721F0CD8ADE8AEF8AF88E5A
:1003D0008D899E89AF89B88DB701A601481B590B3D
:1003E0006A0B7B0BDB01CA01CB80DC80ED80FE80D9
:1003F000C416D506E606F70664F43A81231749F0D9
:100400002A83222331F04B895C894F5F5F4F5C8BDD
:100410004B8B3A8131110CC0CF80D884E984FA84A7
:10042000C816D906EA06FB06ACF48B899C890EC077
:10043000CB84DC84ED84FE84C816D906EA06FB066C
:100440004CF48B899C899195819591099983888336
:100450001C8A1B8A2A8BDF91CF91FF90EF90DF904F
:10046000CF9008950F931F93CF93DF931F92CDB733
:10047000DEB78C01862FF8016787408B91E0492712
:10048000418B428B148A138A118210821282158A40
:10049000168A178A108E44E150E060E070E04383D2
:1004A0005483658376834AEF50E060E070E04783D1
:1004B00050876187728748EE53E060E070E04387C1
:1004C00054876587768760E029830E94400CF80195
:1004D0008089298181110BC0222349F061E0878541
:1004E0000F90DF91CF911F910F910C94100C0F90F2
:1004F000DF91CF911F910F9108951F920F920FB628
:100500000F9211242F933F934F935F936F937F9399
:100510008F939F93AF93BF93EF93FF938091B90015
:10052000887F803609F49CC068F5883209F45BC086
:1005300090F4803109F454C038F4882309F4F6C0EB
:10054000883009F44DC0F6C0883109F44CC08032BF
:1005500009F45DC0EFC0803409F468C048F480330A
:1005600009F455C0883309F0E5C080931405D8C05C
:10057000803509F44FC0883509F45DC0883409F02E
:10058000D9C0D6C0883909F4C7C0A8F4883709F49F
:1005900067C038F4883609F463C0803709F460C056
:1005A000C9C0883809F4B8C0803909F45FC0803800
:1005B00009F0C0C05BC0803B09F486C038F4803AC3
:1005C00009F466C0883A09F47FC0B4C0803C09F4DD
:1005D000A7C0883C09F4A4C0883B09F48AC0AAC01B
:1005E0008091F10410C09091130580911205981725
:1005F00070F5E091130581E08E0F80931305F0E014
:10060000EE50FB4F80818093BB0085EC86C08093C9
:1006100014058EC0E091130581E08E0F80931305C1
:100620008091BB00F0E0EE50FB4F8083909113056A
:10063000809112056EC0E091130581E08E0F8093CA
:1006400013058091BB00F0E0EE50FB4F808380915A
:10065000150581116DC081E08093F00484EA61C0CA
:1006600083E0809316051092CB04CFCF8091CB040A
:10067000803208F051C0E091CB0481E08E0F80936E
:10068000CB048091BB00F0E0E555FB4F8083BDCFEC
:1006900085EC8093BC00109216058091CB048032CB
:1006A00030F4E091CB04F0E0E555FB4F108260910F
:1006B000CB0470E0E091A904F091AA048BEA94E0E5
:1006C00009951092CB0436C084E0809316051092F1
:1006D000A8041092A704E091A504F091A60409953E
:1006E0008091A704811105C081E08093A704109236
:1006F0008504E091A80481E08E0F8093A804F0E0C7
:10070000EB57FB4F80818093BB009091A8048091B0
:10071000A704981708F479CF85E88093BC000AC035
:1007200085EC8093BC001092160504C0109214054D
:100730000E940601FF91EF91BF91AF919F918F9120
:100740007F916F915F914F913F912F910F900FBECD
:100750000F901F9018950C94E8290C94E0294F9263
:100760005F926F927F928F929F92AF92BF92CF9241
:10077000DF92EF92FF920F931F93CF93DF9300D0FE
:1007800000D000D0CDB7DEB77C014B015A0180917B
:10079000C103882341F0809158040FE514E0A9E5D6
:1007A000B4E0F80148C081E08093C1038FE5682E72
:1007B00084E0782E99E5492E94E0592E00E010E06F
:1007C0000F5F1F4F680181E0C81AD1089801A60188
:1007D000B401CE0101960E943A0BCE0101960E940F
:1007E0002A0AF30161933F01CE0101960E94DF0ABC
:1007F0009801A601B501CE0101960E943A0BCE01E7
:1008000001960E942A0AF20161932F01CE010196FE
:100810000E94DF0A0630110599F6BDCF2C91921384
:100820000DC090819A3009F410823196119694E0AF
:10083000E536F90731F090818A3080F79F5F908329
:10084000F0CF8F5F843119F08093580404C0109268
:1008500058041092C1036DEB72E0C7010E94250B92
:10086000FE0131966F01F80181918F014AE0B601D6
:1008700090E00E947228F60101900020E9F731977C
:10088000AF014C195D09B601C7010E94350AF4E0B9
:1008900005361F0741F7C70126960FB6F894DEBF4D
:1008A0000FBECDBFDF91CF911F910F91FF90EF90C1
:1008B000DF90CF90BF90AF909F908F907F906F9080
:1008C0005F904F90089588E090E00E94AD03682FFC
:1008D00086E00E94100C89E090E00E94AD03682F32
:1008E00083E00E94100C8AE090E00E94AD03682F24
:1008F00089E00C94100C0F931F9380912601909126
:100900002701892B09F455C0809157048823A9F049
:100910000E94000D0091530410915404209155043D
:1009200030915604DC01CB01801B910BA20BB30B61
:10093000893E9340A105B105C8F580915704811106
:1009400038C00E9425112091200130912101821789
:10095000930779F50E941D11209122013091230106
:100960008217930731F50E941511209124013091CF
:10097000250182179307E9F40E94000D6093530448
:1009800070935404809355049093560481E08093AF
:10099000570488E891E00E943913809100019091FA
:1009A00001019093CC038093CB0303C010925704B2
:1009B000C4CF1F910F910895CF93DF93EC0101965F
:1009C00028812A33D9F78981843639F51092BA0300
:1009D0001092B90323964AE0FE018881219690ED9A
:1009E000980F2091B9033091BA039A3080F4429F56
:1009F000B001439F700D1124082E000C990BC09775
:100A0000860F971F9093BA038093B903E5CF121610
:100A1000130614F420930301EF01219688818F3689
:100A200089F48A81082E000C990B9C01205331090E
:100A30003093BA032093B903C397059710F420931A
:100A4000020124968881823629F51092BA03109209
:100A5000B903FE0132964AE0819190ED980F209102
:100A6000B9033091BA039A3080F4429FB001439F9A
:100A7000700D1124082E000C990BC097860F971F3C
:100A80009093BA038093B903E7CF30932B0120935F
:100A90002A01EF0120912A0130912B01032E000C35
:100AA000440B550B60E67AEE80E090E00E944F2404
:100AB000DA01C90122E0880F991FAA1FBB1F2A95DE
:100AC000D1F78093B5039093B603A093B703B09387
:100AD000B803CE01DF91CF910895CF92DF92EF92CC
:100AE000FF921F93CF93DF93CDB7DEB72C970FB64E
:100AF000F894DEBF0FBECDBF182F66ED72E0CE01B9
:100B000001960E94250B133029F422E030E040E0EA
:100B100050E00FC01C3029F424E030E042E050E007
:100B200008C01033B9F4209141063091420644E0E8
:100B300050E06DE376E0CE0107960E943A0BBE01CD
:100B4000695F7F4FCE0101960E94A60ACE010796EB
:100B50000E94DF0ACE0101960E942A0A6B017C01E5
:100B6000CE0101960E94DF0AC6012C960FB6F894BA
:100B7000DEBF0FBECDBFDF91CF911F91FF90EF90F1
:100B8000DF90CF90089581E08093170588E68093E9
:100B900039051092180510923A0560E086EE95E04E
:100BA0000E9494010E94CB13809116058111FCCF05
:100BB00081E080931605809315059FEF90931405AF
:100BC0001092130596E0909312058093F1048091A2
:100BD000F104806D8093F1048091F004813061F420
:100BE0001092F0048091F1048093BB008091BC00CE
:100BF00083FDF8CF85EC01C085EE8093BC00809129
:100C000016058130E1F380911305873018F4809147
:100C1000130501C087E0A2EFB4E025E634E0F90156
:100C20009E2F921B981718F49D919193F9CF1092D3
:100C3000AB038093AA0386EE95E00E944801982FAB
:100C400092959F708F702AE0929F800D112490E002
:100C50009093D2038093D10386EE95E00E944801E1
:100C6000982F92959F708F702AE0929F800D11248B
:100C700090E09093D0038093CF0386EE95E00E949E
:100C80004801982F9695969596959670292F220F44
:100C9000220F920F8F70890F90E09093CE03809374
:100CA000CD0386EE95E00E944801982F92959F70A3
:100CB0008F702AE0929F800D112490E0909352044F
:100CC0008093510486EE95E00E944801982F9295FA
:100CD0009F708F702AE0929F800D112490E0909376
:100CE000D4038093D30386EE95E00E944801982FA9
:100CF00092959F708F702AE0929F800D112490E052
:100D00009093D6038093D50386EE95E00E94480128
:100D1000982F92959F708F702AE0929F800D1124DA
:100D200090E09093D8038093D70308950F931F9377
:100D3000CF93DF93CDB7DEB72C970FB6F894DEBF15
:100D40000FBECDBF8C014AE06A307105F4F4CE01CC
:100D500007960E94E40A6FEC72E0CE0101960E94B1
:100D6000250BBE01695F7F4FCE0101960E947C0A70
:100D7000BC01C8010E941C0BCE0101960E94DF0A33
:100D8000CE0107960E94DF0A02C00E94E40AC80151
:100D90002C960FB6F894DEBF0FBECDBFDF91CF917A
:100DA0001F910F9108950F931F93CF93DF93CDB7AA
:100DB000DEB768970FB6F894DEBF0FBECDBF8B01CC
:100DC000833091F4209141063091420642E050E098
:100DD0006DE376E0CE010D960E943A0BB801CE018C
:100DE00001960E94960655C08C3009F042C02091B1
:100DF00041063091420644E050E06DE376E0CE01DA
:100E000043960E943A0BB801CE010D960E949606B9
:100E100022E030E040E050E06DE376E0CE01019664
:100E20000E943A0BBE016F5F7F4FCE0107960E9472
:100E30001C0BBE01635F7F4FCE0107960E947C0AA8
:100E4000BE016D5E7F4F0E947C0ABC018DE396E07F
:100E50000E948F0ACE0107960E94DF0ACE010196FA
:100E60000E94DF0ACE010D960E94DF0ACE01439652
:100E70002DC0803369F5CE010D960E94960624E0C0
:100E800030E040E050E06DE376E0CE0101960E9454
:100E90003A0BBE016F5F7F4FCE0107960E941C0B7D
:100EA000BE01635F7F4FCE0107960E947C0ABC01A2
:100EB0008DE396E00E948F0ACE0107960E94DF0A1A
:100EC000CE0101960E94DF0ACE010D960E94DF0A34
:100ED00068960FB6F894DEBF0FBECDBFDF91CF91FD
:100EE0001F910F9108950E94000D6093C3037093AA
:100EF000C4038093C5039093C6038091C8038823DD
:100F000009F44CC02091C9033091CA03C901880F6C
:100F1000991F2E30310551F0FC01E45FFE4F4081F6
:100F2000518141505109518340830AC040912801A9
:100F3000509129014C5051095093290140932801A7
:100F4000DC01A45FBE4F6D917C911197FC01E159CA
:100F5000FD4F40815181641775073CF4FC01EF5A45
:100F6000FD4F408151814D935C932D30310569F4E3
:100F700020912601309127012130310521F420E80C
:100F80002093C20302C01092C203FC01E45FFE4F33
:100F9000608171818091C7030C94D30608950E94EB
:100FA000000D6093C3037093C4038093C5039093B3
:100FB000C6038091C803882309F44CC02091C9035B
:100FC0003091CA03C901880F991F2E30310551F0A5
:100FD000FC01E45FFE4F408151814F5F5F4F5183C1
:100FE00040830AC04091280150912901445F5F4F1E
:100FF0005093290140932801DC01A45FBE4F6D91FD
:101000007C911197FC01EF5AFD4F408151814617A9
:1010100057073CF4FC01E159FD4F408151814D934C
:101020005C932D30310569F4209126013091270120
:101030002130310521F420E82093C20302C0109230
:10104000C203FC01E45FFE4F608171818091C703A0
:101050000C94D30608950F931F93CF93DF93CDB7CE
:10106000DEB768970FB6F894DEBF0FBECDBF8C0118
:101070008091280190912901489791F40E941511BF
:10108000BC01CE0143960E9496060E941D11BC0130
:10109000CE010D960E9496060E942511BC011FC02C
:1010A0000E941511BC01CE0143960E9496060E9433
:1010B0001D11BC01CE010D960E9496060E947E0F66
:1010C0000E9408108091CE04882339F0682F70E0C8
:1010D0008D3028F06C50710902C06CE070E0CE01D8
:1010E00001960E949606BE016F5F7F4FCE01079664
:1010F0000E941C0BBE01635F7F4FCE0107960E94CA
:101100007C0ABE016D5E7F4F0E947C0ABC01C80153
:101110000E941C0BCE0107960E94DF0ACE010196A9
:101120000E94DF0ACE010D960E94DF0ACE0143968F
:101130000E94DF0AC80168960FB6F894DEBF0FBEA2
:10114000CDBFDF91CF911F910F9108958EBD00000B
:101150000DB407FEFDCF8EB508950895CF92DF92AE
:10116000EF92FF920F931F93CF93DF936C017A015D
:101170008B01C0E0D0E0CE15DF0589F0D8016D917C
:101180008D01D601ED91FC910190F081E02DC60119
:101190000995892B11F47E0102C02196ECCFC7017D
:1011A000DF91CF911F910F91FF90EF90DF90CF9043
:1011B0000895FC01918D828D981761F0828DDF0179
:1011C000A80FB11D5D968C91928D9F5F9F73928F3A
:1011D00090E008958FEF9FEF0895FC01918D828D2F
:1011E000981731F0828DE80FF11D858D90E00895FC
:1011F0008FEF9FEF0895FC01918D228D892F90E054
:10120000805C9F4F821B91098F739927089589E411
:1012100095E00E94FB0821E0892B09F420E0822F51
:101220000895FC01848DDF01A80FB11DA35ABF4FA3
:101230002C91848D90E001968F739927848FA689D5
:10124000B7892C93A089B1898C9180648C93938DFC
:10125000848D981306C00288F389E02D80818F7DEC
:1012600080830895EF92FF920F931F93CF93DF93A4
:10127000EC0181E0888F9B8D8C8D981305C0E889E7
:10128000F989808185FD24C0F62E0B8D10E00F5F5B
:101290001F4F0F731127E02E8C8DE8120CC00FB674
:1012A00007FCFACFE889F989808185FFF5CFCE0167
:1012B0000E941109F1CF8B8DFE01E80FF11DE35A59
:1012C000FF4FF0820B8FEA89FB898081806207C023
:1012D000EE89FF896083E889F98980818064808351
:1012E00081E090E0DF91CF911F910F91FF90EF90FF
:1012F0000895CF93DF93EC01888D8823C9F0EA89A4
:10130000FB89808185FD05C0A889B9898C9186FDFE
:101310000FC00FB607FCF5CF808185FFF2CFA889FB
:10132000B9898C9185FFEDCFCE010E941109E7CFDD
:10133000DF91CF91089580E090E0892B29F00E9401
:10134000070981110C9400000895833081F028F47E
:10135000813099F08230A1F008958730A9F088306B
:10136000B9F08430D1F4809180008F7D03C08091EA
:1013700080008F7780938000089584B58F7702C0B6
:1013800084B58F7D84BD08958091B0008F7703C0B0
:101390008091B0008F7D8093B00008950E942B282B
:1013A000CF93DF93EC0188819981009711F00E941F
:1013B000C926198218821D821C821B821A82DF9123
:1013C000CF9108950F931F93CF93DF93EC01888102
:1013D0009981009729F02A813B812617370788F4E5
:1013E0008B016F5F7F4F0E946127009761F09983A7
:1013F00088831B830A832C813D81232B11F4FC01FC
:10140000108281E001C080E0DF91CF911F910F91A8
:101410000895EF92FF920F931F93CF93DF93EC0108
:101420007B018A01BA010E94E209811104C0CE0148
:101430000E94D00907C01D830C83B7018881998160
:101440000E943928CE01DF91CF911F910F91FF901B
:10145000EF900895FC0180819181009711F00C9428
:10146000402860E070E0CB010895EF92FF920F9367
:101470001F93CF93DF93FC012481358161157105A2
:1014800011F480E019C041155105A9F07B01EC0170
:101490008A01020F131FB8010E94E209882389F311
:1014A000288139818C819D81B701820F931F0E9411
:1014B00039281D830C8381E0DF91CF911F910F911B
:1014C000FF90EF900895CF93DF93EC0161157105C4
:1014D00061F0FB0101900020E9F73197AF01461B55
:1014E000570B0E94350A811103C0CE010E94D0091A
:1014F000CE01DF91CF910895CF93DF93EC01FB01F3
:1015000044815581608171810E94350A811103C037
:10151000CE010E94D009CE01DF91CF910895CF93E3
:10152000DF93EC01FB018617970761F06081718101
:101530006115710529F0448155810E94090A02C094
:101540000E94D009CE01DF91CF9108950F931F9390
:10155000CF93DF938C01EB01FC0180819181009797
:10156000B1F0688179816115710579F0428153810B
:101570002C813D814217530740F00E9439288C810D
:101580009D81F8019583848313C00E94C9268881B8
:101590009981F801918380838A819B8193838283DF
:1015A0008C819D8195838483198218821B821A8283
:1015B0001D821C82DF91CF911F910F910895FC0134
:1015C000808191810C94C926EF92FF920F931F9313
:1015D000CF93DF93CDB7DEB762970FB6F894DEBF37
:1015E0000FBECDBF8C01CB01F80111821082138296
:1015F00012821582148250E09E012F5F3F4F7901C5
:10160000B9010E946728F70101900020E9F731979E
:10161000AF014E195F09B701C8010E94090A62961D
:101620000FB6F894DEBF0FBECDBFDF91CF911F91F3
:101630000F91FF90EF900895FC01118210821382A8
:101640001282158214820C948F0AFC01118210827E
:1016500013821282158214826115710551F0FB010B
:1016600001900020E9F73197AF01461B570B0C940E
:10167000090A0895BF92CF92DF92EF92FF920F93E3
:101680001F93CF93DF937C016B01EA01890124173B
:10169000350720F48D2FE901042F182F6DEB72E030
:1016A000C7010E94250BD60114968D919C91159728
:1016B000C817D90748F58017910708F48C01D6019F
:1016C000ED91FC911197E00FF11FB08010824D91C8
:1016D0005C91BA016C0F7D1F6115710561F0FB0112
:1016E00001900020E9F73197AF01461B570BC70166
:1016F0000E94090A03C0C7010E94D009D601ED91DA
:10170000FC91E00FF11FB082C701DF91CF911F91D3
:101710000F91FF90EF90DF90CF90BF9008951F92B0
:101720000F920FB60F9211242F933F934F935F9315
:101730006F937F938F939F93AF93BF93EF93FF9399
:1017400089E495E00E941109FF91EF91BF91AF915B
:101750009F918F917F916F915F914F913F912F91C9
:101760000F900FBE0F901F9018951F920F920FB6FB
:101770000F9211242F938F939F93EF93FF93E091F8
:101780005905F0915A058081E0915F05F09160055F
:1017900082FD12C09081809162058F5F8F732091CE
:1017A0006305821751F0E0916205F0E0E75BFA4FC4
:1017B000958F8093620501C08081FF91EF919F9189
:1017C0008F912F910F900FBE0F901F901895CF9370
:1017D000DF93282F30E0F901E056FE4F8491F901A4
:1017E000E951FF4FD491F901E550FF4FC491CC234B
:1017F00091F081110E94A509EC2FF0E0EE0FFF1F80
:10180000EA56FE4FA591B491EC91ED2381E090E072
:1018100021F480E002C080E090E0DF91CF91089554
:101820001F93CF93DF93282F30E0F901E056FE4F4E
:101830008491F901E951FF4FD491F901E550FF4F2F
:10184000C491CC23C9F0162F81110E94A509EC2F59
:10185000F0E0EE0FFF1FE053FF4FA591B4918FB75B
:10186000F894111105C09C91ED2FE095E92302C079
:10187000EC91ED2BEC938FBFDF91CF911F910895E9
:10188000CF93DF9390E0FC01E951FF4F2491FC01DD
:10189000E550FF4F8491882361F190E0880F991FF4
:1018A000FC01E352FF4FC591D491FC01E053FF4F7F
:1018B000A591B491611109C09FB7F89488812095D2
:1018C00082238883EC912E230BC0623061F49FB792
:1018D000F8943881822F809583238883EC912E2B76
:1018E0002C939FBF06C08FB7F894E8812E2B2883D6
:1018F0008FBFDF91CF9108951F93CF93DF93182F60
:10190000EB0161E00E94400C209711F460E004C0FC
:10191000CF3FD10539F461E0812FDF91CF911F9145
:101920000C94100CE12FF0E0E056FE4FE491E33010
:10193000F9F048F4E130B9F0E230A1F584B5806205
:1019400084BDC8BD34C0E730E9F0E83019F1E430B7
:1019500049F580918000806280938000D0938B0055
:10196000C0938A0024C084B5806884BDC7BD1FC0F1
:1019700080918000806880938000D0938900C0931C
:10198000880015C08091B00080688093B000C0933B
:10199000B3000DC08091B00080628093B000C0930E
:1019A000B40005C0C038D1050CF0B5CFAFCFDF9182
:1019B000CF911F9108953FB7F8948091EC049091D6
:1019C000ED04A091EE04B091EF0426B5A89B05C0EC
:1019D0002F3F19F00196A11DB11D3FBFBA2FA92FAE
:1019E000982F8827820F911DA11DB11DBC01CD012B
:1019F00042E0660F771F881F991F4A95D1F7089517
:101A00002FB7F8946091E8047091E9048091EA049A
:101A10009091EB042FBF08956093E3047093E40466
:101A20008093E5049093E604DC01CB01845D9E4F36
:101A3000AF4FBF4F8093DF049093E004A093E10485
:101A4000B093E20482E090E09093DE048093DD04A2
:101A50000E94000D6093D9047093DA048093DB0434
:101A60009093DC0408951F920F920FB60F921124E9
:101A70002F933F938F939F93AF93BF938091E804ED
:101A80009091E904A091EA04B091EB043091E7044D
:101A900023E0230F2D3720F40196A11DB11D05C0B1
:101AA00026E8230F0296A11DB11D2093E704809321
:101AB000E8049093E904A093EA04B093EB048091C6
:101AC000EC049091ED04A091EE04B091EF04019626
:101AD000A11DB11D8093EC049093ED04A093EE043E
:101AE000B093EF04BF91AF919F918F913F912F9150
:101AF0000F900FBE0F901F9018951F920F920FB668
:101B00000F9211242F933F934F935F936F937F9383
:101B10008F939F93EF93FF9340913B0550913C052A
:101B200060913D0570913E054115510561057105B6
:101B300099F08091AC03E091AD03F091AE039081F8
:101B4000892780831416150616061706D4F441500B
:101B500051096109710915C0809170008D7F8093D2
:101B600070009091AC03E091AD03F091AE038081E1
:101B7000282F30E0892F90E0809590958223932341
:101B8000808340933B0550933C0560933D057093E3
:101B90003E05FF91EF919F918F917F916F915F91A2
:101BA0004F913F912F910F900FBE0F901F9018955E
:101BB0001F920F920FB60F9211242F933F938F9382
:101BC0009F93AF93BF93EF93FF9380913F059091C5
:101BD0004005A0914105B0914205892B8A2B8B2BA2
:101BE00051F18091AF03E091B003F091B103908186
:101BF0008927808380913F0590914005A091410500
:101C0000B0914205181619061A061B064CF580916C
:101C10003F0590914005A0914105B0914205019783
:101C2000A109B10980933F0590934005A093410518
:101C3000B093420515C080916F008D7F80936F0037
:101C40009091AF03E091B003F091B1038081282F10
:101C500030E0892F90E080959095822393238083B4
:101C6000FF91EF91BF91AF919F918F913F912F91F4
:101C70000F900FBE0F901F9018951F920F920FB6E6
:101C80000F9211242F933F938F939F93AF93BF9302
:101C9000EF93FF938091430590914405A0914505F2
:101CA000B0914605892B8A2B8B2B51F18091B20381
:101CB000E091B303F091B4039081892780838091F0
:101CC000430590914405A0914505B091460518162D
:101CD00019061A061B064CF58091430590914405A0
:101CE000A0914505B09146050197A109B1098093DE
:101CF000430590934405A0934505B093460515C050
:101D000080916E008D7F80936E009091B203E09180
:101D1000B303F091B4038081282F30E0892F90E045
:101D200080959095822393238083FF91EF91BF91BB
:101D3000AF919F918F913F912F910F900FBE0F9078
:101D40001F9018953F924F925F926F927F928F9261
:101D50009F92AF92BF92CF92DF92EF92FF920F933A
:101D60001F93CF93DF93382E962E842EF90184E6AD
:101D7000E816F1042CF082EBE81A87E0F80A03C0B9
:101D80008EE1E80EF11CE092D2040093D104E093BE
:101D9000D0043092CE049092CD048092CC04AE2D2B
:101DA000B0E020E833E341EE51E00E94F6292B0138
:101DB0003C0122EB37E0FF2484E6C82ED12CC0E999
:101DC000D1E0C901825B97408E159F05DCF4C90103
:101DD00083709927892B99F4C901B6010E941924AF
:101DE000892B31F4C901BE010E941924892B39F4D1
:101DF00080E8480E81E5581E81E0681E711C2F5F47
:101E00003F4FDFCF8EE4E81A88EFF80AC70164E697
:101E100070E00E9419246C01C70160E971E00E9422
:101E200019245C01C1E0D0E0112783E0E822FF24FF
:101E3000C017D1072CF5C230D10589F4E114F104A3
:101E400071F4C114D10419F4A114B10441F480E86F
:101E5000480E8BE3581E86E2681E711C0FC0DE011F
:101E6000A457BD4FAC91B0E020E831E541E050E02F
:101E70000E94F629460E571E681E791E2196D8CF5D
:101E8000292D30E0ACE3B0E00E94382A6B017C01E0
:101E9000C80CD11CE11CF11C232D30E0A0E1BEE0F8
:101EA0000E94382AC60ED71EE81EF91EDF01BB2786
:101EB000119720E831E541E050E00E947424DC01F4
:101EC000CB018C0D9D1DAE1DBF1DBC01CD01640D50
:101ED000751D861D971DDF91CF911F910F91FF906A
:101EE000EF90DF90CF90BF90AF909F908F907F90BA
:101EF0006F905F904F903F900C940C0DCF92DF92BB
:101F0000EF92FF920F931F930E94000DC090D9048F
:101F1000D090DA04E090DB04F090DC048B019C01AB
:101F20000C191D092E093F098091E3049091E404E6
:101F3000A091E504B091E604083E13402105310567
:101F4000D0F00196A11DB11D8093E3049093E404A9
:101F5000A093E504B093E604B701A60148515C4F95
:101F60006F4F7F4F4093D9045093DA046093DB04A2
:101F70007093DC04C9CF4091DF045091E00460917C
:101F8000E1047091E20484179507A607B70788F16A
:101F9000E091D704F091D804309759F10995611573
:101FA00071058105910519F00E940C0D22C08091E8
:101FB000E3049091E404A091E504B091E604845D0B
:101FC0009E4FAF4FBF4F8093DF049093E004A093E8
:101FD000E104B093E20481E090E02091DD043091CF
:101FE000DE04232B11F480E090E09093DE048093D4
:101FF000DD046091E3047091E4048091E504909124
:10200000E6041F910F91FF90EF90DF90CF9008951D
:102010004F925F926F927F928F929F92AF92BF92F8
:10202000CF92DF92EF92FF920F931F93CF93DF93A4
:102030004B015C018091D3049091D404A091D5040C
:10204000B091D60488169906AA06BB0609F4C2C048
:102050008CE3C82ED12CE12CF12CC501B401A701D1
:1020600096010E942D246093CC04CA01B901A701F6
:1020700096010E942D246093CD04CA01B90128E184
:1020800030E040E050E00E942D2469017A01609325
:10209000CE04CA01B9016C5F7F4F8F4F9F4F27E07D
:1020A00030E040E050E00E942D246F5F6093CF0449
:1020B000412C512C320140E004E610E0C0E9D1E0AF
:1020C000242F30E02E54384FF901E370FF2730976A
:1020D00089F4C901B8010E941924892B31F4C9017E
:1020E000BE010E941924892B29F48EE691E0A0E01C
:1020F000B0E004C08DE691E0A0E0B0E0480E591ECB
:102100006A1E7B1ED301C201AA27BB27C816D906A7
:10211000EA06FB0610F04F5FD3CF4093D20430970E
:1021200099F4C90164E670E00E941924892B39F4FE
:10213000C90160E971E00E941924892B29F48EE617
:1021400091E0A0E0B0E004C08DE691E0A0E0B0E056
:10215000481A590A6A0A7B0AC418D508E608F7081B
:10216000C90164E670E00E941924EC01C90160E92C
:1021700071E00E941924ADE8B2E020E0213039F48A
:10218000309749F4209729F4009729F402C04C9124
:1021900003C04DE101C04CE150E060E070E0C416C6
:1021A000D506E606F70640F0C41AD50AE60AF70A8D
:1021B0002F5F11962C3011F72F5F2093D104C39419
:1021C000C092D0048092D3049092D404A092D504FB
:1021D000B092D604DF91CF911F910F91FF90EF90B5
:1021E000DF90CF90BF90AF909F908F907F906F9037
:1021F0005F904F9008950E947E0F0E94081080917A
:10220000D20490E08E54984F08950E947E0F0E9451
:1022100008108091D10490E008950E947E0F0E94E2
:1022200008108091D00490E008950E947E0F0E94D3
:1022300008108091CC0490E008950E947E0F0E94C7
:1022400008108091CD0490E008950E947E0F0E94B6
:1022500008108091CE0490E008953F924F925F92D3
:102260006F927F928F929F92AF92BF92CF92DF92A6
:10227000EF92FF920F931F93CF93DF9300D000D084
:10228000CDB7DEB72091480527FDAAC149835A83FF
:102290006B837C838C0161E0809147050E94400C38
:1022A00030904805832D8D7F4801A12CB12C09F079
:1022B000B7C060E072E18AE790E0A50194010E9456
:1022C0004F2429013A0169017A0121E0C21AD1089B
:1022D000E108F1088FEFC816D104E104F10409F018
:1022E00008F44CC060E472E48FE090E0A501940132
:1022F0000E944F2469017A0191E0C91AD108E108CE
:10230000F108A2E03A1220C0BFEFCB16D104E104DD
:10231000F10409F008F462C160E970ED83E090E037
:10232000A50194010E944F2469017A01E1E0CE1ACF
:10233000D108E108F108FFEFCF16D104E104F10460
:1023400009F0C0F583E065C02FEFC216D104E104A7
:10235000F104B1F0A8F068E478EE81E090E0A50126
:1023600094010E944F2469017A0181E0C81AD108C2
:10237000E108F108332009F4D9C027C181E001C088
:1023800082E0332091F045C0D301C2012AE0B59527
:10239000A795979587952A95D1F76C017D01E1E086
:1023A000CE1AD108E108F10885E095B5987F892B10
:1023B00085BD66C068E478EE81E090E0A5019401F7
:1023C0000E944F2469017A01B1E0CB1AD108E108DB
:1023D000F108EFEFCE16D104E104F10409F008F49E
:1023E000A3C064E274EF80E090E0A50194010E9434
:1023F0004F2469017A0191E0C91AD108E108F10876
:10240000AFEFCA16D104E104F10411F008F0B0C036
:1024100085E09091B100987F892B8093B10030C006
:1024200060E072E18AE790E0A50194010E944F24E8
:1024300069017A01F1E0CF1AD108E108F108C1146D
:10244000D10421E0E206F10488F068E478EE81E04E
:1024500090E0A50194010E944F2469017A0181E076
:10246000C81AD108E108F10893E001C091E0A1E0A9
:102470003A1206C080918100887F892B8093810069
:1024800089819A81AB81BC81892B8A2B8B2B81F02E
:10249000D801AA0FBB1F29813A814B815C810E9420
:1024A000F62928EE33E040E050E00E942D2403C0DE
:1024B0002FEF3FEFA90191E03916A1F0A2E03A1603
:1024C00019F131108DC0C7BC2093430530934405EA
:1024D000409345055093460580916E00826080933D
:1024E0006E007EC0D0928900C092880020933F0584
:1024F00030934005409341055093420580916F0011
:10250000826080936F006CC0C092B30020933B0543
:1025100030933C0540933D0550933E0580917000FB
:102520008260809370005CC084E073CF8FEFC81628
:10253000D104E104F104D1F0C8F062E17AE780E06F
:1025400090E0A50194010E944F2469017A01F1E015
:10255000CF1AD108E108F1082FEFC216D104E10427
:10256000F10411F008F010CF84E01FCF83E01DCFFD
:1025700062E17AE780E090E0A50194010E944F2497
:1025800069017A0191E0C91AD108E108F108AFEFB9
:10259000CA16D104E104F104B1F0A8F0D301C201DC
:1025A0004AE0B595A795979587954A95D1F76C011F
:1025B0007D01E1E0CE1AD108E108F108332009F4E9
:1025C000F3CE87E026CF86E0DCCEBFEFCB16D1047A
:1025D000E104F10409F060F684E0D3CE82E019CF83
:1025E0000F900F900F900F90DF91CF911F910F914F
:1025F000FF90EF90DF90CF90BF90AF909F908F9023
:102600007F906F905F904F903F900895009769F092
:10261000FC0101900020E9F73197AF01481B590BED
:10262000BC0189E495E00C94AE0880E090E0089548
:102630000F931F93CF93DF938C01C0E0D0E0F8019C
:10264000EC0FFD1F6491662371F0E0914905F09154
:102650004A050190F081E02D89E495E00995892BE8
:1026600011F02196ECCFCE01DF91CF911F910F9108
:102670000895CF93DF930E941813EC018BEB92E047
:102680000E9406138C0F9D1FDF91CF9108958F92AA
:102690009F92AF92BF92CF92DF92EF92FF920E94F1
:1026A000DB0C4B015C0188EEC82E83E0D82EE12CB8
:1026B000F12C0E94DB0CDC01CB0188199909AA09D5
:1026C000BB09883E9340A105B10558F021E0C21A2C
:1026D000D108E108F10888EE880E83E0981EA11C5D
:1026E000B11CC114D104E104F10419F7FF90EF907B
:1026F000DF90CF90BF90AF909F908F900895E09122
:102700004905F0914A050190F081E02D682F89E498
:1027100095E009948F929F92AF92BF920F931F936F
:10272000CF93DF93CDB7DEB7A1970FB6F894DEBF96
:102730000FBECDBF19A2423008F44AE08E010F5DF2
:102740001F4F842E912CA12CB12CA50194010E9425
:102750002D24E62FB901CA0101501109EA3014F401
:10276000E05D01C0E95CD801EC93232B242B252BE1
:1027700061F7C8010E940613A1960FB6F894DEBF58
:102780000FBECDBFDF91CF911F910F91BF90AF9042
:102790009F908F90089520913A05909139052132AC
:1027A00008F04AC0809116058111FCCF32E03093C9
:1027B000160531E0309315053FEF30931405109264
:1027C000130520931205A9E1B5E042EF54E0FA01A8
:1027D0003E2F341B321718F43D913193F9CF1092EC
:1027E000F1042091F104990F922B9093F1049091B0
:1027F000F004913061F41092F0049091F104909300
:10280000BB009091BC0093FDF8CF95EC01C095EE14
:102810009093BC00909116059230E1F390911405CD
:102820009F3F79F080911405803241F0809114052A
:10283000803331F084E005C081E003C082E001C054
:1028400083E01092180510923A051092170508952A
:10285000CF92DF92EF92FF92CF93DF936C01990FAB
:10286000EE08FF08F7FE12C08DE20E947F13EC0114
:1028700066277727CB016C197D098E099F094AE0ED
:102880000E948A137C01EC0EFD1E06C04AE0C701BF
:10289000B6010E948A137C018BEB92E00E94061322
:1028A0008E0D9F1DDF91CF91FF90EF90DF90CF9025
:1028B0000895CF93DF93CDB7DEB7C057D1090FB6D8
:1028C000F894DEBF0FBECDBF789484B5826084BD1E
:1028D00084B5816084BD85B5826085BD85B5816024
:1028E00085BD80916E00816080936E0010928100A2
:1028F000809181008260809381008091810081605D
:10290000809381008091800081608093800080911D
:10291000B10084608093B1008091B00081608093A9
:10292000B00080917A00846080937A0080917A0070
:10293000826080937A0080917A00816080937A002F
:1029400080917A00806880937A001092C10060E0E4
:1029500085E00E94100C60E088E00E94100C10924C
:10296000AB031092AA031092180510923A05109228
:10297000160581E0809315051092F00461E082E174
:102980000E94100C61E083E10E94100C8091B9005C
:102990008E7F8093B9008091B9008D7F8093B900BC
:1029A00088E48093B80085E48093BC00E0915905E9
:1029B000F0915A0582E08083E0915505F09156052B
:1029C0001082E0915705F091580580E180831092C4
:1029D0006105E0915D05F0915E0586E08083E09100
:1029E0005B05F0915C05808180618083E0915B05EF
:1029F000F0915C05808188608083E0915B05F091B7
:102A00005C05808180688083E0915B05F0915C05C6
:102A100080818F7D808381E090E00E94AD038C30C7
:102A200019F088E190E002C08CE090E090932901D9
:102A30008093280180E090E00E94AD03882321F07C
:102A400081E08093090102C01092090182E090E0C8
:102A50000E94AD038F3F29F41092210110922001B2
:102A600005C090E0909321018093200183E090E0E5
:102A70000E94AD038F3F29F410922301109222018E
:102A800005C090E0909323018093220184E090E0C0
:102A90000E94AD038F3F29F410922501109224016A
:102AA00005C090E0909325018093240186E090E09A
:102AB0000E94AD038F3F29F4109227011092260146
:102AC00005C090E0909327018093260187E090E075
:102AD0000E94AD038F3F19F41092480406C091E0A4
:102AE000811101C090E09093480461E086E00E946B
:102AF000400C61E083E00E94400C61E089E00E94AC
:102B0000400C8091D903833008F083C092E0909309
:102B10004705E82FF0E0E652FF4FE491E0934805C7
:102B20008F5F8093D903E13031F1E23009F44AC07C
:102B3000E11172C014BC15BC84B5826084BD85B53A
:102B4000816085BD8091470590E0FC01E550FF4F15
:102B5000E491F0E0EE0FFF1FE053FF4F2591349119
:102B60003093B4032093B303FC01E951FF4FE49188
:102B7000E093B20351C010928000109281008091C6
:102B800081008860809381008091810081608093C2
:102B900081008091470590E0FC01E550FF4FE491F2
:102BA000F0E0EE0FFF1FE053FF4F2591349130937B
:102BB000B1032093B003FC01E951FF4FE491E0938E
:102BC000AF032AC01092B0001092B1008091B00003
:102BD00082608093B0008091B10081608093B100E9
:102BE0008091470590E0FC01E550FF4FE491F0E053
:102BF000EE0FFF1FE053FF4F259134913093AE034A
:102C00002093AD03FC01E951FF4FE491E093AC0345
:102C100003C08FEF809348058091000190910101DE
:102C20000E94DC04909301018093000161E087E041
:102C30000E94400C61E088E00E94400C61E085E069
:102C40000E94400C1FB7F8948091DA03811127C0CD
:102C5000E5E0F1E08491E1EFF0E09491E82FF0E01D
:102C6000EE0FFF1FE352FF4FA591B491EC91E923C2
:102C700021F461E08AE00E94100C61E08AE00E9489
:102C8000400C8CB580618CBD8CB580648CBD61E0DE
:102C90008DE00E94400C61E08BE00E94400C80912E
:102CA000DA038F5F8093DA031FBF8CB58C608CBD15
:102CB0008CB583608CBD8DB58E7F8DBD62E08EE05E
:102CC0000E94400C62E080E10E94400C62E08FE0D4
:102CD0000E94400C61E082E00E94400C04E110E0A0
:102CE00020E030E000932706109328062093290661
:102CF00030932A064EE150E060E070E040932B06EE
:102D000050932C0660932D0670932E0680ED97E06D
:102D1000A0E0B0E080932F0690933006A093310698
:102D2000B093320600930E0610930F062093100600
:102D300030931106409312065093130660931406C5
:102D4000709315068093160690931706A0931806A5
:102D5000B09319060093F5051093F6052093F70537
:102D60003093F8054093F9055093FA056093FB05FD
:102D70007093FC058093FD059093FE05A093FF05DD
:102D8000B093000661E085E00E94100C8DE291E0B6
:102D90000E94181324E030E042E050E063E476E063
:102DA000CE0101961C010E943A0B22E030E041E086
:102DB00050E063E476E0CE01815B9F4F0E943A0BC6
:102DC000BE01615B7F4FCE01875B9F4F0E941C0B52
:102DD00069EB72E0CE01875B9F4F0E94630AB101ED
:102DE0000E947C0ADC0114964D915C9115976D91BF
:102DF0007C9189E495E00E94AE088BEB92E00E9402
:102E00000613CE01875B9F4F0E94DF0ACE01815BD4
:102E10009F4F0E94DF0AC1010E94DF0A82E291E017
:102E20000E94391383E480937C0080917A0080644F
:102E300080937A0080917A0086FDFCCF60917800C3
:102E40008091790070E0782B072E000C880B990B8D
:102E50000E94C32820E030E040EA50E40E9422298A
:102E600023E333E343E950E40E94222920E030E0E9
:102E700040E85AE30E94222923E333E343E35FE37C
:102E80000E9491246B017C0189E191E00E9418135A
:102E9000A7019601C701B6010E94FA25882319F0FF
:102EA0008EEB92E01AC046015701E894B7F82FEF75
:102EB0003FEF4FE75FE7C501B4010E94FA2581119A
:102EC0000FC02FEF3FEF4FE75FE7C501B4010E944E
:102ED000BC2818162CF482EC92E00E94061372C0F3
:102EE0002FEF3FEF4FE75FE4C701B6010E94A52532
:102EF00018161CF486EC92E0F0CF2FEF3FEF4FE76F
:102F00005FECC701B6010E94BC2887FDF3CF20E02B
:102F100030E0A901C701B6010E94BC2887FF07C0A5
:102F20008DE20E947F13C701B601905802C0C7010D
:102F3000B6012AE037ED43EA5BE30E9491242B01BE
:102F40003C010E9476254B015C010E94C1289B0137
:102F5000AC01C301B2010E9490242B013C014AE064
:102F6000C501B4010E948A138EE20E947F1320E003
:102F700030E040E251E4C301B2010E9422292B015A
:102F80003C010E9476254B01A12CB12C4AE0C501E1
:102F9000B4010E948A13C501B4010E94C1289B019B
:102FA000AC01C301B2010E94902420E030E040E275
:102FB00051E40E9422290E94762580E090E04AE0B8
:102FC0000E948A138BEB92E00E940613809100010D
:102FD000909101019093CC038093CB030E94DC0479
:102FE0006FEF70E086E00E947C0C0E94471360E067
:102FF00070E086E00E947C0C6FEF70E083E00E943E
:103000007C0C0E94471360E070E083E00E947C0C1F
:103010006FEF70E089E00E947C0C0E9447136AEC1D
:1030200072E0C1010E94250B61ED72E0CE010796AE
:103030000E94250B68ED72E0CE010D960E94250BD3
:103040006FED72E0CE0143960E94250B66EE72E0B2
:10305000CE0149960E94250B6DEE72E0CE014F968F
:103060000E94250B64EF72E0CE0185960E94250B2D
:103070006BEF72E0CE018B960E94250B62E073E04D
:10308000CE01C1960E94250B69E073E0CE01C79680
:103090000E94250B6DEB72E0CE01CD960E94250BB0
:1030A0006DEB72E0CE018D5B9F4F0E94250B20E0FF
:1030B00030E040E251E4C701B6010E94BC2820E0A4
:1030C00030E048EC52E487FF0FC0C701B6010E9410
:1030D00022290E946F254AE0CE01875B9F4F0E9404
:1030E000E40A6DEC72E00EC0C701B6010E9422290D
:1030F0000E946F254AE0CE01875B9F4F0E94E40A41
:103100006EEC72E0CE01815B9F4F0E94250BBE01E9
:10311000675B7F4FCE01815B9F4F0E947C0ABC01A1
:10312000CE01CD960E948F0ACE01815B9F4F0E94F7
:10313000DF0ACE01875B9F4F0E94DF0A63E476E0DF
:10314000CE018D5B9F4F0E948F0A0E94000D4B01A4
:103150005C01AE961FAEAE9711E000E0E4EFF1E047
:10316000E196FFAFEEAFE1978FE00E94E70B892B6E
:1031700021F4F1E0AE96FFAFAE9780E10E94E70B3D
:10318000892B19F4AE961FAEAE970E94000DDC019C
:10319000CB0188199909AA09BB09E1962EAD3FAD6B
:1031A000E1972901330F66087708481659066A0621
:1031B0007B06D0F40E94000D4B015C01AE963FAD42
:1031C000AE97311101C00F5F0A3019F00C3039F49D
:1031D00010C088EB9BE0E1969FAF8EAFE19791E046
:1031E000AF969FAFAF9708C0A1E0AF96AFAFAF97D4
:1031F00003C0AF961FAEAF9760E088E00E94100C4E
:1032000061E087E00E94100C612F70E080E090E0A8
:103210000E94C1280E94B22528E132E741E35FE322
:103220000E94FD240E946F252B013C010A3029F0E9
:103230000B3039F4812F8E7802C0812F8C7B806413
:1032400002C0812F806C0E94A6086201BFEFCB1ADA
:10325000DB0A9601A2017101E6E0E09FE00CF11C9F
:103260001124B701CE01875B9F4F0E943A0BCE011C
:10327000875B9F4F0E942A0AFB01E652FE4F808126
:103280000E94A608CE01875B9F4F0E94DF0A96012D
:10329000A201B701CE01875B9F4F0E943A0BCE017E
:1032A000875B9F4F0E942A0AFB01E053FE4F8081FB
:1032B0000E94A608CE01875B9F4F0E94DF0A60E054
:1032C00087E00E94100C61E088E00E94100C110F52
:1032D000113208F011E08BE39FE10197F1F7AF960F
:1032E000FFADAF97F11140CF8FE091E00E9439130D
:1032F0008E01075B1F4F06501109C8010E94DF0AAB
:1033000002151305C1F78091480481110E946304DE
:1033100060E085E00E94100C0E94C3050091D1037B
:103320001091D2030E94000D6B017C0181E080931B
:10333000500411278091D1039091D20308171907E7
:10334000A9F40E94C3050E94000DDC01CB018C1979
:103350009D09AE09BF09893B9B40A105B10550F30A
:1033600080E491E00E94391310925004E090D7035A
:10337000F090D8030091D5031091D6032091D30388
:103380003091D4034091D1035091D2036091CF0387
:103390007091D0038091CD039091CE030E94A20E34
:1033A00061E085E00E94100C78EE672E73E0772EC6
:1033B00044244394512C0E94000D20E137E240E068
:1033C00050E00E942D24672B682B692B29F48091F3
:1033D000500481110C9487230091CB031091CC03EE
:1033E000D8018C91882309F432C10E94000DC0904D
:1033F000E103D090E203E090E303F090E403DC010A
:10340000CB018C199D09AE09BF09C090DD03D09096
:10341000DE03E090DF03F090E003C816D906EA0669
:10342000FB0608F014C10E94000D6B017C01609343
:10343000E1037093E2038093E3039093E40310921B
:10344000BA031092B903C8016AE08C01FC01B08094
:10345000019640ED4B0D2091B9033091BA034A30EB
:1034600080F4629FA001639F500D1124EB2DBB0CD3
:10347000FF0BF097E40FF51FF093BA03E093B90345
:10348000E4CF6091B5037091B6038091B70390913A
:10349000B8032115310529F0032E000C440B550B00
:1034A00005C02091030130E040E050E00E944F242D
:1034B0002093DD033093DE034093DF035093E0035A
:1034C0008B2DBB0C990BAA0BBB0BFC01E156F10930
:1034D000E730F10520F4EC5CFF4F0C946E24109261
:1034E000DC030FC081E00BC083E009C085E007C0AA
:1034F00086E005C088E003C08AE001C08CE08093CC
:10350000DC03D80111968C91833219F00F5F1F4FA5
:1035100007C08091DC038F5F8093DC030E5F1F4F39
:10352000F80180818E32F1F48090DD039090DE030B
:10353000A090DF03B090E003C501B40122E030E0C9
:1035400040E050E00E944F24820E931EA41EB51E40
:103550008092DD039092DE03A092DF03B092E0033D
:103560000F5F1F4FD8018C9180538A3028F48093CD
:10357000DB030F5F1F4F04C0809102018093DB03C8
:103580002091DB03F80180818C3211F40F5F1F4F13
:103590004091DC03442309F45AC08090DD039090ED
:1035A000DE03A090DF03B090E00330E02450310947
:1035B0005CE0529FC001539F900D1124FC01E40F69
:1035C000F11DEE0FFF1FE65BFE4FB501A4018081E8
:1035D00091810E942D110E94000DDC01CB018C19FC
:1035E0009D09AE09BF0988169906AA06BB0678F59B
:1035F0000E94000D6093E1037093E2038093E30364
:103600009093E40380914805813051F0823071F04D
:10361000811111C080916E008D7F80936E000BC070
:1036200080916F008D7F80936F0005C08091700046
:103630008D7F8093700060E0809147050E94100CA0
:103640008CE591E00E94391390E080E002C0902F59
:10365000812F9093CB038093CC030E94000D0091A7
:103660004C0410914D0420914E0430914F04DC0124
:10367000CB01801B910BA20BB30B0697A105B105E3
:1036800008F489C080910901811110C060E070E0E8
:1036900086E00E947C0C60E070E083E00E947C0C7D
:1036A00060E070E089E00E947C0C6BC0809148046F
:1036B000811167C00091E7031091E803C801880FEA
:1036C000991F800F911FFC01EE0FFF1FE455FE4F65
:1036D00060910A0170910B0120813181620F731F8B
:1036E00070930B0160930A01FC01EE0FFF1FE2557E
:1036F000FE4F20913F0430914004E080F180E20EC3
:10370000F31EF0924004E0923F04880F991FFC01E1
:10371000E055FE4F80913D0490913E04C080D180E1
:10372000C80ED91ED0923E04C0923D0486E00E948D
:103730007C0CB70183E00E947C0CB60189E00E94FA
:103740007C0C8091E5039091E60301969093E6034B
:103750008093E5038F3F910551F40F5F1F4F109346
:10376000E8030093E7031092E6031092E5038091CB
:10377000E7039091E803069724F01092E803109273
:10378000E7030E94000D60934C0470934D048093F6
:103790004E0490934F040091C9031091CA03011580
:1037A000110521F080914B04811185C18091C803DE
:1037B000811181C18091F90381110DC00E94000D1A
:1037C0006093F5037093F6038093F7039093F803E7
:1037D00081E08093F9038091ED0381110DC00E9477
:1037E000000D6093E9037093EA038093EB039093D9
:1037F000EC0381E08093ED030E94000DC090F5037F
:10380000D090F603E090F703F090F803DC01CB01D1
:103810008C199D09AE09BF09C0900401D090050123
:10382000E0900601F0900701C816D906EA06FB06EB
:1038300078F50E94000D6093F5037093F603809372
:10384000F7039093F803012B49F45092CA03409276
:10385000C90388E893E1A0E0B0E008C01092CA0371
:103860001092C90380E69AEEA0E0B0E080930401D4
:1038700090930501A0930601B093070180914B043A
:10388000882321F01092CA031092C90310924B04AE
:103890000E94000D0091F5031091F6032091F703AB
:1038A0003091F803DC01CB01801B910BA20BB30B11
:1038B000803D9740A105B10508F0FBC00E94000DB6
:1038C0000091E9031091EA032091EB033091EC039E
:1038D000DC01CB01801B910BA20BB30B853691054C
:1038E000A105B10508F4E7C00E94000D6093E9034B
:1038F0007093EA038093EB039093EC038091C903E8
:103900009091CA03892B09F069C0CE018F599F4F4E
:103910000E942B080E94FB10B3010E941924BC01D5
:10392000CE018B5A9F4F0E9496060E940511BC0142
:10393000CE01815B9F4F0E9496060E940D11BC0133
:10394000C1010E949606B101CE01875B9F4F0E9484
:103950001C0BBE01615B7F4FCE01875B9F4F0E94B6
:103960007C0ABE016B5A7F4F0E947C0ABC01CE01CB
:10397000855A9F4F0E941C0BAE014F595F4FBE01ED
:10398000655A7F4FCE0189599F4F0E94AF03BE01F8
:1039900069597F4F8DE396E00E94A60ACE018959AE
:1039A0009F4F0E94DF0ACE01855A9F4F0E94DF0A77
:1039B000CE01875B9F4F0E94DF0AC1010E94DF0A90
:1039C000CE01815B9F4F0E94DF0ACE018B5A9F4F31
:1039D0000E94DF0ACE018F599F4F68C00E94FB10E2
:1039E000B3010E941924BC01CE01855A9F4F0E9449
:1039F00096060E940511BC01CE018B5A9F4F0E9472
:103A000096060E940D11BC01CE01875B9F4F0E945C
:103A10009606BE01675B7F4FCE01815B9F4F0E9480
:103A20001C0BBE016B5A7F4FCE01815B9F4F0E94E2
:103A30007C0ABE01655A7F4F0E947C0ABC01CE0100
:103A40008F599F4F0E941C0BC1010E942B08AE0191
:103A50004F595F4FB101CE0189599F4F0E94AF036B
:103A6000BE0169597F4F8DE396E00E94A60ACE0100
:103A700089599F4F0E94DF0AC1010E94DF0ACE01CF
:103A80008F599F4F0E94DF0ACE01815B9F4F0E949A
:103A9000DF0ACE01875B9F4F0E94DF0ACE018B5A5F
:103AA0009F4F0E94DF0ACE01855A9F4F0E94DF0A76
:103AB00002C01092C1030E94DB0C00910F04109110
:103AC00010042091110430911204DC01CB01801B01
:103AD000910BA20BB30B893B9B40A105B10508F4E8
:103AE000B4C00E94DB0C60930F04709310048093A9
:103AF00011049093120460E088E00E94100C61E0D1
:103B000087E00E94100C10910801612F70E080E0A6
:103B100090E00E94C1280E94B22528E132E741E3EB
:103B20005FE30E94FD240E946F254B015C01009120
:103B3000C203012B80914704882309F447C0809178
:103B40003C04882309F442C08091070481110DC010
:103B50000E94000D60930304709304048093050495
:103B60009093060481E0809307040E94000DC090AA
:103B70000304D0900404E0900504F0900604DC01F6
:103B8000CB018C199D09AE09BF098D329140A10569
:103B9000B105C8F00E94000D609303047093040403
:103BA00080930504909306049091020481E0892794
:103BB00080930204882311F08FEF03C08091C70324
:103BC0008095809301048091010401C08FEF8023D0
:103BD0000E94A60874013FEFE31AF30A9701A401BB
:103BE0006DE376E0C1010E943A0BC1010E942A0AEE
:103BF000FB01E652FE4F80810E94A608C1010E948F
:103C0000DF0A9701A4016DE376E0C1010E943A0B3F
:103C1000C1010E942A0AFB01E053FE4F80810E94ED
:103C2000A608C1010E94DF0A60E087E00E94100C34
:103C300061E088E00E94100C110F113218F410930B
:103C4000080103C081E08093080184E296E00E94AD
:103C5000C7018BE096E00E94C70182EF95E00E94C9
:103C6000C7018091C803811103C01092C7032BC004
:103C70000E94000D0091C3031091C4032091C5035D
:103C80003091C603DC01CB01801B910BA20BB30B5F
:103C900081369A4EA105B105B0F01092C803E091AB
:103CA000C903F091CA03EE0FFF1FED5CFD4F808149
:103CB00091819093CA038093C903FC01EC5DFD4F91
:103CC00080818093C7038091240690912506181661
:103CD00019060CF094C181E080934B041092CC0340
:103CE0001092CB0344E650E060E070E088EE93E091
:103CF0000E942D110E94000D6093C3037093C403B2
:103D00008093C5039093C6038091C9039091CA0321
:103D100001968430910529F09093CA038093C903DA
:103D200004C01092CA031092C9038AE791E00E946E
:103D300018138091C9039091CA030E94281483E745
:103D400091E00E941813E091C903F091CA03EE0FAD
:103D5000FF1FE45FFE4F808191810E942814209113
:103D6000C9033091CA03F901EC5DFD4F8081809356
:103D7000C70321503109F901EE0FFF1FEA5FFD4F24
:103D8000408151814115510509F42AC1CA010197A9
:103D9000FC01EE0FFF1FE851FE4F60817181621739
:103DA000730709F01DC14230510539F528E1E2E3FE
:103DB000F1E0D10101900D922A95E1F720911E01C9
:103DC00030911F0123703327232B21F42DE130E0A4
:103DD0003C832B8320911A0130911B01E0911C013F
:103DE000F0911D013197EE0FFF1FE20DF31D408191
:103DF0005181421753070CF4A8C41092C803909342
:103E0000CA038093C903892BB9F40E94FB107C017B
:103E10000E9405118C010E940D11409118015091D2
:103E2000190160911601709117019C018091140194
:103E3000909115010E94A20E8091C9039091CA032E
:103E40000197E9F4E0901E01F0901F0130E3E31ABE
:103E500038EFF30A00911C0110911D0180901A01A6
:103E600090901B010E9415115C010E941D116C01B4
:103E70000E9425119401A501B6010E94A20E809115
:103E8000C9039091CA030297C1F46091200182E0B6
:103E900090E00E94AB036091220183E090E00E94D9
:103EA000AB036091240184E090E00E94AB03609139
:103EB000260186E090E00E94AB038091C9039091B7
:103EC000CA03039731F46091280181E090E00E94D9
:103ED000AB0360E085E00E94100C0E94FB10B30170
:103EE0000E941924082F0E940511F82E0E940D111E
:103EF000E82E0E941511B82E0E941D11C82E0E9496
:103F00002511D82E81E08093170588E68093390526
:103F10001092180510923A0560E086EE95E00E9436
:103F200094011AE08B2D612F0E940D24692FA0E1CE
:103F30008A9F600D112486EE95E00E9494018C2DDD
:103F4000612F0E940D24692FB0E18B9F600D112419
:103F500086EE95E00E9494018D2D612F0E940D2424
:103F6000692FE0E18E9F600D112486EE95E00E949E
:103F7000940161E086EE95E00E9494018E2D612F00
:103F80000E940D24692FF0E18F9F600D112486EEB1
:103F900095E00E9494018F2D612F0E940D24692FBE
:103FA00020E1829F600D112486EE95E00E9494012D
:103FB000802F612F0E940D24692F30E1839F600DB7
:103FC000112486EE95E00E94940160E086EE95E073
:103FD0000E9494010E94CB1361E085E00E94100CC6
:103FE0000091C9031091CA038091C7030E946D0517
:103FF000000F111FF801E45FFE4F918380838091D1
:1040000024069091250697FF8AC044E650E060E0C0
:1040100070E088EE93E00E942D118091C803811119
:1040200051C00E94000D6093C3037093C40380933A
:10403000C5039093C6038091C9039091CA03892B4D
:1040400009F040C00E941511BC01C1010E949606F2
:104050000E941D11BC01CE01875B9F4F0E949606F6
:104060000E942511BC01CE018B5A9F4F0E949606DB
:10407000BE016B5A7F4FCE01815B9F4F0E941C0B8C
:10408000BE01675B7F4FCE01815B9F4F0E947C0A20
:10409000B1010E947C0ABC018DE396E00E948F0A68
:1040A000CE01815B9F4F0E94DF0ACE018B5A9F4F4A
:1040B0000E94DF0ACE01875B9F4F0E94DF0AC10189
:1040C0000E94DF0AE091C903F091CA03EE0FFF1FBF
:1040D000ED5CFD4F008111811093CA030093C90369
:1040E0000A30110539F4509227014092260180E8E8
:1040F0008093C2039091C80381E089278093C8030D
:10410000F801EC5DFD4F80818093C7030E946D052F
:10411000000F111FF801E45FFE4F918380838091AF
:104120000B0690910C06009719F190934A04809326
:10413000490418161906E4F481E080934B041092A8
:10414000CC031092CB0344E650E060E070E088EED0
:1041500093E00E942D110E94CF078091C803811126
:1041600007C01092480460E087E090E00E94AB0333
:104170008091490490914A04019661F580910D0661
:10418000882341F1109247048091C803882329F1C4
:104190000E94000D009143041091440420914504B5
:1041A00030914604DC01CB01801B910BA20BB30BB9
:1041B00087399105A105B10580F00E94000D60933B
:1041C00043047093440480934504909346040E94F2
:1041D000CF0703C081E0809347048091F20590915E
:1041E000F3050097A9F190934204809341041816B7
:1041F000190674F511E010934B041092CC03109241
:10420000CB0344E650E060E070E088EE93E00E946B
:104210002D110E9473078091C803811119C010935A
:10422000480461E087E090E00E94AB0360910A01DE
:1042300088E090E00E94AB0360913F0489E090E049
:104240000E94AB0360913D048AE090E00E94AB03C2
:104250008091410490914204019661F58091F405AA
:10426000882341F110923C048091C803882329F1EE
:104270000E94000D009138041091390420913A04F5
:1042800030913B04DC01CB01801B910BA20BB30BE3
:1042900087399105A105B10580F00E94000D60935A
:1042A00038047093390480933A0490933B040E943D
:1042B000730703C081E080933C048091C80381119F
:1042C0003DC080910B0690910C0697FF1AC044E602
:1042D00050E060E070E088EE93E00E942D1181E0F4
:1042E0008093090161E080E090E00E94AB0380E1EF
:1042F00093E00E9406138BEB92E00E9406130E944B
:1043000063048091F2059091F30597FF17C044E68E
:1043100050E060E070E088EE93E00E942D11109272
:10432000090160E080E090E00E94AB0387E193E048
:104330000E9406138BEB92E00E9406138091C90342
:104340009091CA038130910509F4ABC01CF4892B0C
:1043500099F1D9C18230910509F480C1039709F020
:10436000D2C160912801709129014AE0CE010196E5
:104370000E94E40A6EEC72E0CE01875B9F4F0E94C0
:10438000250BBE016F5F7F4FCE01875B9F4F0E9461
:104390007C0A6EEC72E00E94630ABC018DE396E039
:1043A0000E948F0ACE01875B9F4F0E94DF0ACE01D9
:1043B00001960E94DF0AA3C18091C103811135C01B
:1043C0000E94000D00911304109114042091150413
:1043D00030911604DC01CB01801B910BA20BB30BB7
:1043E000893E9340A105B10578F00E94000D6093CD
:1043F0001304709314048093150490931604CE0153
:1044000001960E942B0806C06DE376E0CE0101966E
:104410000E941C0BBE016F5F7F4F8DE396E00E94F0
:10442000A60ACE0101960E94DF0A80911C04811128
:104430000DC00E94000D60931804709319048093BE
:104440001A0490931B0481E080931C040E94000DC9
:10445000009118041091190420911A0430911B0442
:10446000DC01CB01801B910BA20BB30B893E934067
:10447000A105B10508F445C10E94000D6093180420
:104480007093190480931A0490931B04909117045D
:1044900081E0892780931704882309F430C180ECD8
:1044A0002BC18091C1038111D7C08091300481114B
:1044B0000DC00E94000D60932C0470932D04809316
:1044C0002E0490932F0481E0809330048091240483
:1044D00081114AC00E94FB10B3010E941924BC0143
:1044E000CE0101960E9496060E940511BC01CE01E4
:1044F000875B9F4F0E9496060E940D11BC01CE0162
:104500008B5A9F4F0E949606BE016B5A7F4FCE0179
:10451000815B9F4F0E941C0BBE01675B7F4FCE01EA
:10452000815B9F4F0E947C0ABE016F5F7F4F0E949C
:104530007C0ABC018BEB93E00E941C0B81E0809312
:104540002404CE01815B9F4F0E94DF0ACE018B5A6B
:104550009F4F0E94DF0ACE01875B9F4F0E94DF0AB8
:10456000CE0101960E94DF0A0E94000D00912C04EA
:1045700010912D0420912E0430912F04DC01CB01E9
:10458000801B910BA20BB30B893E9340A105B10593
:1045900008F451C00E94000D60932C0470932D0408
:1045A00080932E0490932F040E94FB10B3010E946D
:1045B0001924BC01CE0101960E9496060E940511A5
:1045C000BC01CE01875B9F4F0E9496060E940D1191
:1045D000BC01CE018B5A9F4F0E949606BE016B5ABA
:1045E0007F4FCE01815B9F4F0E941C0BBE01675B1A
:1045F0007F4FCE01815B9F4F0E947C0ABE016F5F9F
:104600007F4F0E947C0ABC018BEB93E00E948F0AD3
:10461000CE01815B9F4F0E94DF0ACE018B5A9F4FD4
:104620000E94DF0ACE01875B9F4F0E94DF0ACE0106
:1046300001960E94DF0A6BEB73E0CE0101960E94A7
:104640001C0BBE016F5F7F4F8DE396E00E94A60AB0
:10465000CE0101960E94DF0A80E44EC060912401E1
:1046600070912501CE0101960E949606609122016B
:1046700070912301CE01875B9F4F0E949606609147
:10468000200170912101CE018B5A9F4F0E94960606
:10469000BE016B5A7F4FCE01815B9F4F0E941C0B66
:1046A000BE01675B7F4FCE01815B9F4F0E947C0AFA
:1046B000BE016F5F7F4F0E947C0ABC018DE396E0D4
:1046C0000E948F0ACE01815B9F4F0E94DF0ACE01BC
:1046D0008B5A9F4F0E94DF0ACE01875B9F4F0E943B
:1046E000DF0ACE0101960E94DF0A80912601909197
:1046F0002701019721F480E88093C20302C0109241
:10470000C2030E947B040E949B090C94DB190E9447
:10471000C305E090D703F090D8030091D503109122
:10472000D6032091D3033091D4034091D10350910B
:10473000D2036091CF037091D0038091CD0390910B
:10474000CE030E94A20E0C94EC1987E090E09093A7
:10475000CA038093C903D7CF8DE396E00E94DF0A96
:1047600083E496E00C94DF0AE9E4F5E01382128218
:1047700088EE93E0A0E0B0E084839583A683B783BE
:104780002DE932E03183208325EC30E03587248722
:1047900024EC30E03787268720EC30E0318B208B0B
:1047A00021EC30E0338B228B22EC30E0358B248BF4
:1047B00026EC30E0378B268B118E128E138E148EE2
:1047C000E6EEF5E01382128284839583A683B78395
:1047D0008DEA92E09183808362EA73E083E496E05D
:1047E0000E94250B6AEC72E08DE396E00E94250B97
:1047F00021E040E06EE084E296E00E94320221E097
:1048000040E060E18BE096E00E94320221E040E06F
:104810006FE082EF95E00C943202991B79E004C0BE
:10482000991F961708F0961B881F7A95C9F78095EF
:10483000089597FB072E16F4009407D077FD09D052
:104840000E947C2407FC05D03EF4909581959F4FF3
:104850000895709561957F4F0895A1E21A2EAA1BC5
:10486000BB1BFD010DC0AA1FBB1FEE1FFF1FA21720
:10487000B307E407F50720F0A21BB30BE40BF50B1D
:10488000661F771F881F991F1A9469F760957095A6
:10489000809590959B01AC01BD01CF010895052E37
:1048A00097FB1EF400940E94662457FD07D00E94D7
:1048B0002D2407FC03D04EF40C94662450954095AB
:1048C000309521953F4F4F4F5F4F089590958095BC
:1048D000709561957F4F8F4F9F4F0895EE0FFF1F8B
:1048E0000590F491E02D0994B7FF0C94F6290E94ED
:1048F000F629821B930B0895AA1BBB1B51E107C02D
:10490000AA1FBB1FA617B70710F0A61BB70B881F5F
:10491000991F5A95A9F780959095BC01CD010895EE
:104920005058BB27AA270E94A8240C94A6290E94AD
:10493000982938F00E949F2920F039F49F3F19F4FC
:1049400026F40C9495290EF4E095E7FB0C948F293E
:10495000E92F0E94B72958F3BA1762077307840733
:10496000950720F079F4A6F50C94D9290EF4E0957A
:104970000B2EBA2FA02D0B01B90190010C01CA0119
:10498000A0011124FF27591B99F0593F50F4503EC4
:1049900068F11A16F040A22F232F342F4427585FB6
:1049A000F3CF469537952795A795F0405395C9F7CE
:1049B0007EF41F16BA0B620B730B840BBAF0915086
:1049C000A1F0FF0FBB1F661F771F881FC2F70EC025
:1049D000BA0F621F731F841F48F4879577956795F8
:1049E000B795F7959E3F08F0B0CF9395880F08F0E4
:1049F0009927EE0F9795879508950E9411250C949D
:104A0000A6290E949F2958F00E94982940F029F475
:104A10005F3F29F00C948F2951110C94DA290C94E2
:104A200095290E94B72968F39923B1F3552391F38F
:104A3000951B550BBB27AA2762177307840738F00D
:104A40009F5F5F4F220F331F441FAA1FA9F335D06A
:104A50000E2E3AF0E0E832D091505040E695001C1E
:104A6000CAF72BD0FE2F29D0660F771F881FBB1FD8
:104A7000261737074807AB07B0E809F0BB0B802DB6
:104A8000BF01FF2793585F4F3AF09E3F510578F0E2
:104A90000C948F290C94DA295F3FE4F3983ED4F309
:104AA000869577956795B795F7959F5FC9F7880FB6
:104AB000911D9695879597F90895E1E0660F771F08
:104AC000881FBB1F621773078407BA0720F0621B99
:104AD000730B840BBA0BEE1F88F7E09508950E94C4
:104AE00076256894B1110C94DA2908950E94BF29A3
:104AF00088F09F5798F0B92F9927B751B0F0E1F09F
:104B0000660F771F881F991F1AF0BA95C9F714C04E
:104B1000B13091F00E94D929B1E008950C94D929BF
:104B2000672F782F8827B85F39F0B93FCCF3869587
:104B300077956795B395D9F73EF4909580957095E4
:104B400061957F4F8F4F9F4F08950E94FE2808F474
:104B50008FEF089516F00C94FF250C949529689416
:104B60000C948F290E94BF29A8F39923C1F3AEF3B7
:104B7000DF93CF931F930F93FF92C92FDD278823D5
:104B80002AF02197660F771F881FDAF720E030E0C0
:104B900040E85FEB9FE3883920F0803E38F02196B3
:104BA0008F770E949124E6E7F0E004C00E949124F0
:104BB000E3EAF0E00E940D268B01BE01EC01FB2E22
:104BC0006F5771097595771F880B990B0E94C32841
:104BD00028E132E741E35FE30E943529AF2D9801D8
:104BE000AE01FF900F911F91CF91DF910E94A824F9
:104BF0000C94A6290E94FE28880B990B08959F3FCC
:104C000031F0915020F4879577956795B795880F87
:104C1000911D9695879597F90895DF93CF931F93EC
:104C20000F93FF92EF92DF927B018C01689406C094
:104C3000DA2EEF010E943529FE01E894A591259115
:104C4000359145915591A6F3EF010E94A824FE01EC
:104C50009701A801DA9469F7DF90EF90FF900F9128
:104C60001F91CF91DF910895CF93DF93823091050B
:104C700010F482E090E0E0914B06F0914C0620E0C9
:104C800030E0C0E0D0E0309711F140815181481709
:104C90005907C0F04817590761F482819381209722
:104CA00019F09B838A832BC090934C0680934B060C
:104CB00026C02115310519F04217530718F49A013F
:104CC000BE01DF01EF010280F381E02DDCCF211571
:104CD000310509F1281B390B2430310590F4129667
:104CE0008D919C9113976115710521F0FB019383C0
:104CF000828304C090934C0680934B06FD0132964C
:104D000044C0FD01E20FF31F8193919322503109BA
:104D10002D933C933AC02091490630914A06232BAB
:104D200041F420912E0130912F0130934A062093B7
:104D3000490620912C0130912D012115310541F4B6
:104D40002DB73EB74091300150913101241B350BF6
:104D5000E0914906F0914A06E217F307A0F42E1BF2
:104D60003F0B2817390778F0AC014E5F5F4F2417CF
:104D7000350748F04E0F5F1F50934A06409349068F
:104D80008193919302C0E0E0F0E0CF01DF91CF91F9
:104D900008950F931F93CF93DF93009709F48CC06E
:104DA000FC0132971382128200914B0610914C063F
:104DB0000115110581F420813181820F931F20910B
:104DC000490630914A062817390779F5F0934A06C3
:104DD000E093490671C0D80140E050E0AE17BF072C
:104DE00050F412962D913C911397AD012115310588
:104DF00009F1D901F3CF9D01DA0133832283608168
:104E00007181860F971F8217930769F4EC0128813F
:104E10003981260F371F2E5F3F4F318320838A81D0
:104E20009B8193838283452B29F4F0934C06E09376
:104E30004B0642C01396FC93EE931297ED014991F5
:104E400059919E01240F351FE217F30771F48081F9
:104E50009181840F951F029611969C938E93828167
:104E6000938113969C938E931297E0E0F0E0D80123
:104E700012968D919C911397009719F0F8018C016F
:104E8000F6CF8D919C9198012E5F3F4F820F931F1B
:104E90002091490630914A062817390769F430975E
:104EA00029F410924C0610924B0602C01382128213
:104EB00010934A0600934906DF91CF911F910F91FD
:104EC0000895A0E0B0E0E7E6F7E20C94052AEC01D3
:104ED000009721F4CB010E943426B8C0FC01E60FF4
:104EE000F71F9C0122503109E217F30708F4ACC008
:104EF000D9010D911C91119706171707B0F00530D5
:104F0000110508F49FC0C80104978617970708F495
:104F100099C002501109061B170B019311936D9351
:104F20007C93CF010E94C9268DC05B01A01AB10AF3
:104F30004C01800E911EA0914B06B0914C0640E0B2
:104F400050E0E12CF12C109709F44AC0A815B905DE
:104F5000D1F56D907C901197630182E0C80ED11C51
:104F6000CA14DB0480F1A3014A195B096A0182E0DB
:104F7000C80ED11C1296BC9012971396AC91B5E056
:104F8000CB16D10440F0B282A38351834083D90170
:104F90006D937C930AC00E5F1F4FC301800F911F5A
:104FA000F90191838083EB2DFA2FE114F10431F0A4
:104FB000D7011396FC93EE93129744C0F0934C06DE
:104FC000E0934B063FC08D919C911197481759076C
:104FD00008F4AC017D0112960D90BC91A02DB3CFC9
:104FE0008091490690914A0688159905E1F4461783
:104FF0005707C8F480912C0190912D01009741F43E
:105000008DB79EB74091300150913101841B950BB3
:10501000E817F907C8F4F0934A06E0934906F90146
:10502000718360830FC0CB010E9434267C010097FE
:1050300059F0A801BE010E943028CE010E94C92665
:10504000C70104C0CE0102C080E090E0CDB7DEB75A
:10505000EEE00C94212A81E090E0F8940C94472A29
:10506000FB01DC0102C001900D9241505040D8F785
:105070000895FB01DC0101900D920020E1F70895F5
:105080001F93FC0199278827BC01E89411911032E5
:10509000E9F3193010F01E30C8F31B3251F01D3205
:1050A00049F4689406C00E947D28610F711D811D1E
:1050B000911D119110531A30B0F33EF490958095E4
:1050C000709561957F4F8F4F9F4F1F910895453287
:1050D000510520F4423010F00C947228FB0110822C
:1050E000CB010895BB274A3031F4992322F4BDE265
:1050F000909581959F4F0C949328592F482F372FC7
:10510000262F660F771F881F991F660F771F881F2E
:10511000991F620F731F841F951F660F771F881FCB
:10512000991F0895BB27FB015527AA27880F991FB0
:10513000AA1FA41710F0A41B83955051B9F7A05DC6
:10514000AA3308F0A95DA193009779F7B111B19343
:105150001192CB010C94AC28DC01FC01672F7191FA
:105160007723E1F7329704C07C916D93708362914D
:10517000AE17BF07C8F308950E94FE2808F481E027
:105180000895E89409C097FB3EF49095809570953A
:1051900061957F4F8F4F9F4F9923A9F0F92F96E983
:1051A000BB279395F695879577956795B795F111F8
:1051B000F8CFFAF4BB0F11F460FF1BC06F5F7F4F95
:1051C0008F4F9F4F16C0882311F096E911C07723A7
:1051D00021F09EE8872F762F05C0662371F096E8B0
:1051E000862F70E060E02AF09A95660F771F881F7F
:1051F000DAF7880F9695879597F90895990F000823
:10520000550FAA0BE0E8FEEF16161706E807F90798
:10521000C0F012161306E407F50798F0621B730B33
:10522000840B950B39F40A2661F0232B242B252BB4
:1052300021F408950A2609F4A140A6958FEF811D57
:10524000811D08950E9435290C94A6290E94982951
:1052500038F00E949F2920F0952311F00C948F299B
:105260000C94952911240C94DA290E94B72970F323
:10527000959FC1F3950F50E0551F629FF001729FFB
:10528000BB27F00DB11D639FAA27F00DB11DAA1F0A
:10529000649F6627B00DA11D661F829F2227B00D57
:1052A000A11D621F739FB00DA11D621F839FA00DE2
:1052B000611D221F749F3327A00D611D231F849F32
:1052C000600D211D822F762F6A2F11249F57504089
:1052D0009AF0F1F088234AF0EE0FFF1FBB1F661F04
:1052E000771F881F91505040A9F79E3F510580F0CD
:1052F0000C948F290C94DA295F3FE4F3983ED4F3A1
:10530000869577956795B795F795E7959F5FC1F770
:10531000FE2B880F911D9695879597F9089597F91B
:105320009F6780E870E060E008959FEF80EC08954B
:1053300000240A9416161706180609060895002474
:105340000A9412161306140605060895092E0394EE
:10535000000C11F4882352F0BB0F40F4BF2B11F462
:1053600060FF04C06F5F7F4F8F4F9F4F089557FDC1
:105370009058440F551F59F05F3F71F04795880FC3
:1053800097FB991F61F09F3F79F08795089512165A
:1053900013061406551FF2CF4695F1DF08C0161606
:1053A00017061806991FF1CF8695710561050894B7
:1053B0000895E894BB2766277727CB0197F90895CE
:1053C000F999FECF92BD81BDF89A992780B50895CD
:1053D000262FF999FECF1FBA92BD81BD20BD0FB611
:1053E000F894FA9AF99A0FBE019608950E94382A05
:1053F000A59F900DB49F900DA49F800D911D112429
:1054000008952F923F924F925F926F927F928F9268
:105410009F92AF92BF92CF92DF92EF92FF920F9343
:105420001F93CF93DF93CDB7DEB7CA1BDB0B0FB64D
:10543000F894DEBF0FBECDBF09942A88398848880A
:105440005F846E847D848C849B84AA84B984C884A0
:10545000DF80EE80FD800C811B81AA81B981CE0F97
:10546000D11D0FB6F894DEBF0FBECDBFED0108957C
:10547000A29FB001B39FC001A39F700D811D112495
:10548000911DB29F700D811D1124911D089510E092
:10549000CBEDD0E004C0FE010E946E242196CC3DED
:0854A000D107C9F7F894FFCF12
:1054A8001F03060460EA00000101FF00000000007D
:1054B80000000000000000000000000000000000E4
:1054C800000000000000000018003F0000004D062A
:1054D80080001F001C001F001E001F001E001F0070
:1054E8001F001E001F001E001F00000006011501FE
:1054F800260137014A015D01720188019F01B80147
:10550800D201EE010B022A024B026E029302BA028A
:10551800E40210033F037003A403DC0317045504DB
:105528009704DD0427057505C80520067D06E006F5
:105538004907B8072D08A9082D09B9094D0AEA0A2B
:10554800900B400CFA0CC00D910E6F0F000000007C
:105558000100FFFF00000000000001000000000043
:105568000000FFFF0100000000000000FFFF000036
:10557800FEFDFBF7EFDFBF7FFFFFFFFFFFFFFFFF32
:10558800FFFFFEFD000A0908060009000D000E00D5
:105598000000000000000000000000000000000003
:1055A80000000000000000000000000000000100F2
:1055B80001000100020002000200030003000300D2
:1055C8000300040000000000030C30030C30030C3F
:1055D80030C00C040007000A000E000000000000A4
:1055E80000000000000000000000000000000000B3
:1055F80000000000000000000017003B003B001FF7
:10560800000C00630017003B003B0001001800007D
:1056180000000000000C0000000000000001000174
:1056280000000000000000000000000C001F1C1F0C
:105638001E1F1E1F1F1E1F1E1F000000003209AE66
:1056480008FB08D908ED08790900000000940164F6
:10565800015C014801390138012E000D0A006E6114
:105668006E00696E66006F7666003030303030301C
:10567800003131313131310032323232323200339D
:10568800333333333300343434343434003535353C
:10569800353535003636363636360037373737370C
:1056A8003700383838383838003939393939390015
:1056B8005247423D6F6E005247423D6F6666004456
:1056C8006173426F6F743A643D342C6F3D352C62C0
:1056D8003D3130303A64232E342C3864342C38630E
:1056E800342C3864342C386423342C3867342C61D7
:1056F800232E342C3861342C3867342C3861342C00
:10570800386123342C38642C32662E2C702C662E8B
:10571800342C3865342C3864342C3865342C38668D
:10572800342C3861342C632E2C3862342C38613494
:105738002C3862342C38632C38652C32672E2C3286
:0A57480070003031353530300000BC
:00000001FF
