:100000000C94F8000C9420010C9420010C94200115
:100010000C9420010C9420010C9420010C94C91321
:100020000C9420010C9420010C9420010C942414B5
:100030000C9420010C9420010C9489140C94200140
:100040000C947F130C9420010C94C7110C94A111F3
:100050000C9420010C9420010C9420010C9420019C
:100060000C947A190C9420019B029D029102930238
:10007000950297029902F909520A490B280A920B34
:10008000A00DA00DA00D2F0C570C570C570CA00D58
:10009000A00DA00DA00DA00D920BDD0BBD1BC01B74
:1000A000BB1BBD1BC01BC21BC61BCB1B496E636F9A
:1000B000727265637420536F6E6720466F726D6154
:1000C0007421005247423D6F6666005247423D6FC1
:1000D0006E0076616C75653D006D656E75506F7371
:1000E0006974696F6E3D0073796E630000000000F3
:1000F000250028002B00020100000000002400273A
:10010000002A004661756C747920445333323331D0
:1001100021004453333233315F543D0053746F70C8
:1001200020546573740054656D70203D2000537435
:100130006172742054657374004669726D776172E0
:10014000652076657273696F6E3A20005761726E32
:10015000696E67212052544320444F4E2754205249
:100160004553504F4E44210054656D702E207365E9
:100170006E736F72206E6F7420666F756E642E00E2
:1001800054656D7041646A3D00446567722E206657
:100190006F726D61743D00000000080002010000F4
:1001A000030407000000000000000057616B652099
:1001B00075702C204E656F21000000000023002682
:1001C00000290004040404040404040202020202DC
:1001D000020303030303030102040810204080010B
:1001E000020408102001020408102000FF2BF32B4A
:1001F00011241FBECFEFD8E0DEBFCDBF14E0A0E0DA
:10020000B1E0E6EBF4E602C005900D92AE32B10724
:10021000D9F727E0AEE2B4E001C01D92AE31B207DB
:10022000E1F710E0C7EFD0E004C02197FE010E9483
:100230004D31C63FD107C9F70E9485260C944E3236
:100240000C9400000F931F93CF93DF93CDB7DEB7CD
:1002500062970FB6F894DEBF0FBECDBF8C014AE0A7
:100260006A3071054CF5CE010D960E9457116EE46F
:1002700073E0CE0101960E948C11BE016F5F7F4F2B
:10028000CE0107960E948311BE01635F7F4FCE01AE
:1002900007960E94D810BC01C8010E948311CE01AC
:1002A00007960E945211CE0101960E945211CE0172
:1002B0000D960E94521102C00E945711C801629609
:1002C0000FB6F894DEBF0FBECDBFDF91CF911F9167
:1002D0000F9108950F931F93CF93DF93CDB7DEB7A0
:1002E00068970FB6F894DEBF0FBECDBF8C0180912A
:1002F000510190915201489791F40E946117BC01FD
:10030000CE0143960E9422010E946917BC01CE01D2
:100310000D960E9422010E947117BC011FC00E940D
:100320006117BC01CE0143960E9422010E94691709
:10033000BC01CE010D960E9422010E94CA150E94A6
:1003400054168091C604882339F0682F70E08D30F0
:1003500028F06C50710902C06CE070E0CE0101968B
:100360000E942201BE016F5F7F4FCE0107960E945F
:100370008311BE01635F7F4FCE0107960E94D810A4
:10038000BE016D5E7F4F0E94D810BC01C8010E9463
:100390008311CE0107960E945211CE0101960E9450
:1003A0005211CE010D960E945211CE0143960E9429
:1003B0005211C80168960FB6F894DEBF0FBECDBFCC
:1003C000DF91CF911F910F9108958F929F92AF92DD
:1003D000BF92CF92DF92EF92FF920F931F93CF9332
:1003E000DF93CDB7DEB7EE970FB6F894DEBF0FBE42
:1003F000CDBF0E944C1320E63AEE40E050E00E9450
:100400000C31672B682B692B29F48091A50481118D
:100410000C94AF0C0091990410919A04F80180811A
:10042000882309F432C10E944C13C0903404D09048
:100430003504E0903604F0903704DC01CB018C19D0
:100440009D09AE09BF09C0903004D0903104E090FE
:100450003204F0903304C816D906EA06FB0608F009
:1004600014C10E944C136B017C016093340470939F
:100470003504809336049093370410926E051092E1
:100480006D05A8016AE08A01FA01B0804F5F5F4FF5
:1004900080ED8B0D20916D0530916E058A3080F4D2
:1004A000629FF001639FF00D11248B2DBB0C990B03
:1004B000C0978E0F9F1F90936E0580936D05E3CFBD
:1004C0006091690570916A0580916B0590916C054A
:1004D0002115310529F0032E000C440B550B05C0E6
:1004E00020915D0130E040E050E00E942E312093E9
:1004F00030043093310440933204509333048B2DF5
:10050000BB0C990BAA0BBB0BFC01E156F109E730C0
:10051000F10520F4EC5CFF4F0C944D3110922F0448
:100520000FC081E00BC083E009C085E007C086E012
:1005300005C088E003C08AE001C08CE080932F04EE
:10054000F8018181833219F00F5F1F4F07C080913E
:100550002F048F5F80932F040E5F1F4FF80180815F
:100560008E3201F58090300490903104A0903204D6
:10057000B0903304C501B40122E030E040E050E027
:100580000E942E31D501C401820F931FA41FB51FF5
:100590008093300490933104A0933204B0933304D9
:1005A0000F5F1F4FF801808180538A3028F48093B9
:1005B0002E040F5F1F4F04C080915C0180932E04B6
:1005C00080912E04F80190819C3211F40F5F1F4F2F
:1005D00020912F04222309F458C080903004909079
:1005E0003104A0903204B090330490E004973CE0D2
:1005F000389FF001399FF00D1124E20FF11DEE0F2D
:10060000FF1FE458FE4FB501A401808191810E9433
:10061000DE220E944C13DC01CB018C199D09AE092E
:10062000BF0988169906AA06BB0678F50E944C13E6
:1006300060933404709335048093360490933704A8
:1006400080910506813051F0823071F0811111C026
:1006500080916E008D7F80936E000BC080916F0043
:100660008D7F80936F0005C0809170008D7F809397
:10067000700060E0809104060E9422128CEA90E0F3
:100680000E94EA2490E080E002C0902F812F909396
:10069000990480939A040E944C1300918C04109149
:1006A0008D0420918E0430918F04DC01CB01801BDE
:1006B000910BA20BB30B0697A105B10508F489C0F5
:1006C00080913001811110C060E070E089E00E94EB
:1006D0008E1260E070E086E00E948E1260E070E0B2
:1006E00083E00E948E126BC08091A904811167C0C3
:1006F00000913A0410913B04C801880F991F800FA4
:10070000911FFC01EE0FFF1FE252FE4F60910601A8
:100710007091070120813181620F731F709307016F
:1007200060930601FC01EE0FFF1FE052FE4FC090E8
:100730008104D090820420813181C20ED31ED092D8
:100740008204C0928104880F991FFC01EE51FE4F74
:10075000E0907F04F090800480819181E80EF91E82
:10076000F0928004E0927F0489E00E948E12B6012C
:1007700086E00E948E12B70183E00E948E12809163
:100780003804909139040196909339048093380489
:100790008F3F910551F4C801019690933B048093DB
:1007A0003A04109239041092380480913A049091DE
:1007B0003B04069724F010923B0410923A040E94E6
:1007C0004C1360938C0470938D0480938E049093EB
:1007D0008F0480916F0590917005892B21F0809195
:1007E0008B048111D3C2809171058111CFC2809198
:1007F0004E0481110DC00E944C1360934A04709303
:100800004B0480934C0490934D0481E080934E04FC
:100810008091420481110DC00E944C1360933E04EC
:1008200070933F04809340049093410481E080934F
:1008300042040E944C1300914A0410914B042091F1
:100840004C0430914D04DC01CB01801B910BA20BB9
:10085000B30B009100011091010120910201309130
:100860000301081719072A073B0708F06FC00E9409
:100870004C1360934A0470934B0480934C04909300
:100880004D0480913C0490913D04009799F481E0DF
:1008900090E09093700580936F0588E893E1A0E065
:1008A000B0E08093000190930101A0930201B09306
:1008B00003011EC00197E1F484E090E0909370057D
:1008C00080936F0588E893E1A0E0B0E08093000199
:1008D00090930101A0930201B09303018091A804B9
:1008E000811106C082E090E090933D0480933C0427
:1008F00080913C0490913D048230910581F41092E6
:10090000700510926F0540E65AEE60E070E040938B
:10091000000150930101609302017093030101965D
:10092000833091052CF490933D0480933C0404C0E3
:1009300010923D0410923C0480918B04882321F096
:100940001092700510926F0510928B040E944C1348
:1009500000914A0410914B0420914C0430914D04B5
:10096000DC01CB01801B910BA20BB30B803D9740A8
:10097000A105B10508F008C20E944C1300913E0485
:1009800010913F042091400430914104DC01CB01DF
:10099000801B910BA20BB30B85369105A105B10508
:1009A00008F4F4C10E944C1360933E0470933F041A
:1009B00080934004909341042091A80480916F0596
:1009C00090917005222309F410C1892B89F5CE017D
:1009D00049960E946A0181E02091530130915401AF
:1009E000232B09F480E00E94A61BAB01BC01CE01C1
:1009F00001960E94391CAE01475E5F4FBE016F5FDA
:100A00007F4FCE014F960E941A1FBE01615E7F4F3D
:100A10008AEF96E00E941911CE014F960E94521162
:100A2000CE0101960E945211CE0149960E945211A8
:100A300080916F0590917005019709F062C00E9446
:100A4000471768EE73E00E94F830BC01CE018B9628
:100A50000E9422010E945117BC01CE0185960E947E
:100A600022010E945917BC01CE0149960E94220121
:100A7000BE01675E7F4FCE014F960E948311BE017B
:100A80006B5D7F4FCE014F960E94D810BE01655D11
:100A90007F4F0E94D810BC01CE01C1960E948311E5
:100AA000CE0101960E946A01AE014F5C5F4FBE010C
:100AB0006F5F7F4FCE01C7960E941A1FBE01695C0F
:100AC0007F4F8AEF96E00E941911CE01C7960E94CF
:100AD0005211CE0101960E945211CE01C1960E9480
:100AE0005211CE014F960E945211CE0149960E949A
:100AF0005211CE0185960E945211CE018B960E9412
:100B0000521180916F0590917005049709F03EC1D4
:100B100081E02091530130915401232B09F480E0AE
:100B20000E94A61BAB01BC01CE01C1960E94391CDC
:100B30000E94471768EE73E00E94F830BC01CE01B6
:100B400085960E9422010E945117BC01CE014F964A
:100B50000E9422010E945917BC01CE0101960E94F9
:100B60002201BE016F5F7F4FCE0149960E94831123
:100B7000BE01615E7F4FCE0149960E94D810BE0132
:100B80006B5D7F4F0E94D810BC01CE018B960E94F6
:100B90008311AE014F5C5F4FBE01655D7F4FCE019B
:100BA000C7960E941A1FBE01695C7F4F8AEF96E0CC
:100BB0000E941911CE01C7960E945211CE018B9648
:100BC0000E945211CE0149960E945211CE01019607
:100BD0000E945211CE014F960E945211CE0185966D
:100BE0000E945211CE01C196CCC0892B09F062C07F
:100BF000CE01C1960E946A010E94471768EE73E019
:100C00000E94F830BC01CE0185960E9422010E940C
:100C10005117BC01CE014F960E9422010E94591724
:100C2000BC01CE0101960E942201BE016F5F7F4F81
:100C3000CE0149960E948311BE01615E7F4FCE01B5
:100C400049960E94D810BE016B5D7F4F0E94D8105C
:100C5000BC01CE018B960E948311AE014F5C5F4FA9
:100C6000BE01655D7F4FCE01C7960E941A1FBE016F
:100C7000695C7F4F8AEF96E00E941911CE01C796FA
:100C80000E945211CE018B960E945211CE014996BC
:100C90000E945211CE0101960E945211CE014F9630
:100CA0000E945211CE0185960E945211CE01C1962A
:100CB0000E94521180916F0590917005019709F083
:100CC00065C00E94471768EE73E00E94F830BC01CF
:100CD000CE018B960E9422010E945117BC01CE01C9
:100CE00085960E9422010E945917BC01CE014996A7
:100CF0000E942201BE01675E7F4FCE014F960E9487
:100D00008311BE016B5D7F4FCE014F960E94D810BC
:100D1000BE01655D7F4F0E94D810BC01CE01C19617
:100D20000E948311CE0101960E946A01AE014F5CC0
:100D30005F4FBE016F5F7F4FCE01C7960E941A1FA3
:100D4000BE01695C7F4F8AEF96E00E941911CE01C7
:100D5000C7960E945211CE0101960E945211CE01F7
:100D6000C1960E945211CE014F960E945211CE019F
:100D700049960E945211CE0185960E945211CE01D1
:100D80008B960E94521102C0109276050E94AC1AF6
:100D900081EE96E00E94791788EC96E00E94791720
:100DA0008FEA96E00E94791780917105811105C044
:100DB0001092EA041092E90430C00E944C13009192
:100DC0007205109173052091740530917505DC0151
:100DD000CB01801B910BA20BB30B81369A4EA10560
:100DE000B105D8F010927105E0916F05F091700592
:100DF000EE0FFF1FE25BFD4F8081918190937005A4
:100E000080936F05880F991FFC01E85FFE4F80817A
:100E100091819093EA048093E9048091E106909196
:100E2000E206181619060CF0B8C081E080938B0416
:100E300010929A041092990444E650E060E070E049
:100E400088EE93E00E94DE220E944C1360937205AC
:100E500070937305809374059093750580916F0569
:100E60009091700501968530910529F09093700559
:100E700080936F0504C01092700510926F0589ED84
:100E800090E00E94C92480916F05909170050E94A6
:100E9000392582ED90E00E94C924E0916F05F09120
:100EA0007005EE0FFF1FEF5CFE4F808191810E9465
:100EB000392520916F05309170058901000F111FB0
:100EC000F801E85FFE4F808191819093EA0480935E
:100ED000E904D9011197FD01EE0FFF1FE85DFD4FF9
:100EE000608171816115710509F445C0AB01415004
:100EF0005109FA01EE0FFF1FEE5FFD4F0190F081E7
:100F0000E02DEA17FB07B9F56230710509F049C514
:100F100088E1E4E6F1E0DE01119601900D928A95F8
:100F2000E1F7809147019091480183709927892BBF
:100F300021F48DE190E09C838B83209143013091DB
:100F40004401E0914501F09146013197EE0FFF1FFA
:100F500081E090E08C0F9D1FE80FF91F8081918147
:100F6000821793070CF01DC589E090E090937005FF
:100F700080936F05E5C5A9014151510942305105E2
:100F800060F0285031092230310538F00E94E32109
:100F9000F801EF5CFE4F918380838091E106909190
:100FA000E20697FF13C144E650E060E070E088EE8F
:100FB00093E00E94DE228091710581114DC00E9454
:100FC0004C1360937205709373058093740590932E
:100FD000750580916F0590917005892BE9F50E9448
:100FE0006117BC01CE0185960E9422010E946917FB
:100FF000BC01CE014F960E9422010E947117BC01D4
:10100000CE0101960E942201BE016F5F7F4FCE018B
:1010100049960E948311BE01615E7F4FCE014996C1
:101020000E94D810BE016B5D7F4F0E94D810BC019A
:101030008AEF96E00E940211CE0149960E94521159
:10104000CE0101960E945211CE014F960E9452117C
:10105000CE0185960E94521180916F059091700586
:10106000019709F07AC087E093E00E94B72480E1FD
:1010700093E00E94B7240E945917909344018093F3
:1010800043010E94511790934601809345010E94AD
:10109000471768EE73E00E94F830BC019093480156
:1010A000809347018091410190914201892B89F4FD
:1010B000CE0185960E942201609145017091460102
:1010C000CE014F960E94220160914301709144012C
:1010D00010C0CE0185960E9422016091430170915B
:1010E0004401CE014F960E9422016091450170910A
:1010F0004601CE0101960E942201BE016F5F7F4F23
:10110000CE0149960E948311BE01615E7F4FCE01E0
:1011100049960E94D810BE016B5D7F4F0E94D81087
:10112000BC018AEF96E00E940211CE0149960E940E
:101130005211CE0101960E945211CE014F960E948B
:101140005211CE0185960E94521183E193E00E94D4
:10115000B7248AEF96E00E94A10EE0916F05F0910E
:101160007005EE0FFF1FE25BFD4F20813181309350
:10117000700520936F052C30310549F481E090E033
:101180009093500180934F0180E88093E804909100
:10119000710581E08927809371058901000F111F76
:1011A000F801E85FFE4F808191819093EA0480937B
:1011B000E9042131310551F02830310539F00E9420
:1011C000E321F801EF5CFE4F918380838091C80694
:1011D0009091C906009719F190938A04809389042D
:1011E00018161906E4F481E080938B0410929A0497
:1011F0001092990444E650E060E070E088EE93E0DD
:101200000E94DE220E94CE2080917105811107C0CC
:101210001092A90460E087E090E00E94A81A8091F3
:10122000890490918A04019661F58091CA06882309
:1012300041F11092590180917105882329F10E9492
:101240004C130091850410918604209187043091FD
:101250008804DC01CB01801B910BA20BB30B8739F7
:101260009105A105B10580F00E944C13609385049F
:101270007093860480938704909388040E94CE2004
:1012800003C081E0809359018091AF069091B00630
:101290000097A9F19093840480938304181619068B
:1012A00074F511E010938B0410929A041092990433
:1012B00044E650E060E070E088EE93E00E94DE22B9
:1012C0000E944A2080917105811119C01093A904D0
:1012D00061E087E090E00E94A81A6091060188E032
:1012E00090E00E94A81A6091810489E090E00E9439
:1012F000A81A60917F048AE090E00E94A81A809169
:10130000830490918404019661F58091B10688234D
:1013100041F11092580180917105882329F10E94B2
:101320004C1300917B0410917C0420917D0430913A
:101330007E04DC01CB01801B910BA20BB30B873920
:101340009105A105B10580F00E944C1360937B04C8
:1013500070937C0480937D0490937E040E944A20C5
:1013600003C081E08093580180917105811135C0DF
:101370008091C8069091C90697FF16C044E650E0D8
:1013800060E070E088EE93E00E94DE2281E08093CE
:10139000300161E080E090E00E94A81A8BEC90E0C0
:1013A0000E94EA240E94CE1F8091AF069091B00661
:1013B00097FF13C044E650E060E070E088EE93E0F1
:1013C0000E94DE221092300160E080E090E00E94F6
:1013D000A81A83EC90E00E94EA24E0916F05F09156
:1013E0007005E331F10508F0ABC3E55CFF4F0C94E9
:1013F0004D3180917605811125C00E9461172091A1
:101400000401309105018217930759F00E9461177A
:101410009093050180930401CE0101960E946A0118
:1014200006C06AEF76E0CE0101960E948311BE01EC
:101430006F5F7F4F8AEF96E00E941911CE010196EF
:101440000E9452110E94611780FD29C080EC1CC1CE
:1014500060915101709152014AE0CE0149960E947B
:1014600057116DE473E0CE0101960E948C11BE010C
:10147000675E7F4FCE0101960E94D8106DE473E045
:101480000E94BF10BC018AEF96E00E940211CE01BB
:1014900001960E945211CE0149960E94521110925B
:1014A000E804F4C0809176058111EDC0809171044B
:1014B000811113C00E944C13DC01CB0187519C4F5A
:1014C000AF4FBF4F80936D0490936E04A0936F0451
:1014D000B093700481E08093710480916504811160
:1014E00044C00E94471768EE73E00E94F830BC01C8
:1014F000CE0101960E9422010E945117BC01CE012B
:1015000049960E9422010E945917BC01CE0185967E
:101510000E942201BE016B5D7F4FCE014F960E945B
:101520008311BE01675E7F4FCE014F960E94D81097
:10153000BE016F5F7F4F0E94D810BC018FE594E021
:101540000E94831181E080936504CE014F960E9432
:101550005211CE0185960E945211CE0149960E94E9
:101560005211CE0101960E945211809157048111AF
:1015700007C0809141018093560481E08093570415
:101580000E944C1300916D0410916E0420916F0421
:1015900030917004DC01CB01801B910BA20BB30BCB
:1015A000893E9340A105B10558F48091560490E01E
:1015B00020914101309142018217930709F452C0F2
:1015C0000E944C1360936D0470936E0480936F04BB
:1015D000909370048091410190914201892B09F010
:1015E0009AC20E94471768EE73E00E94F830BC016F
:1015F000CE0101960E9422010E945117BC01CE012A
:1016000049960E9422010E945917BC01CE0185967D
:101610000E942201BE016B5D7F4FCE014F960E945A
:101620008311BE01675E7F4FCE014F960E94D81096
:10163000BE016F5F7F4F0E94D810BC018FE594E020
:101640000E940211CE014F960E945211CE01859642
:101650000E945211CE0149960E945211CE0101966C
:101660000E9452116FE574E0CE0101960E94831131
:10167000BE016F5F7F4F8AEF96E00E941911CE0185
:1016800001960E94521180E48093E8040E94E91FB1
:1016900057C260914D0170914E01CE0185960E9416
:1016A000220160914B0170914C01CE014F960E9436
:1016B00022016091490170914A01CE0101960E9478
:1016C0002201BE016F5F7F4FCE0149960E948311B8
:1016D000BE01615E7F4FCE0149960E94D810BE01C7
:1016E0006B5D7F4F0E94D810BC018AEF96E00E948C
:1016F0000211CE0149960E945211CE0101960E941C
:101700005211CE014F960E945211CE0185960E9431
:10171000521180914F0190915001019709F0BFCE75
:1017200080E8B2CF80917605811133C081E02091AD
:10173000530130915401232B09F480E00E94A61B31
:10174000AB01BC01CE0101960E94391CBE016F5F46
:101750007F4F8AEF96E00E941911CE0101960E94F8
:1017600052118091530190915401892B51F487ECCF
:1017700090E090937A048093790480E48093E80465
:1017800008C08FE890E090937A04809379041092D7
:10179000E80481E02091530130915401232B09F496
:1017A00080E00E94A61B20E030E0A9010E94472EA5
:1017B0009091E80487FF4DC04EC081E02091530115
:1017C00030915401232B09F480E00E94A61BAB0149
:1017D000BC01CE0101960E94391CBE016F5F7F4F94
:1017E0008AEF96E00E941911CE0101960E945211D3
:1017F00020915301309154012115310561F487E0A6
:1018000090E090937A048093790480E88093E804D0
:1018100083E090E00BC083E890E090937A0480939B
:10182000790480EC8093E80480E390E09093EA04EC
:101830008093E90481E0232B09F480E00E94A61B39
:1018400020E030E0A9010E94472E9091E80487FF34
:1018500002C09F7701C090689093E80471C18091A5
:10186000410190914201892B79F468E173E08AEF9C
:1018700096E00E94EB1083E090E090931B01809330
:101880001A018CE090E00EC06FE173E08AEF96E001
:101890000E94EB108CE090E090931B0180931A0162
:1018A00083E090E090931D0180931C0149C18091D9
:1018B0004101909142016091470170914801892B4B
:1018C00089F4CE0185960E942201609145017091B4
:1018D0004601CE014F960E94220160914301709112
:1018E000440110C0CE0185960E94220160914301FF
:1018F00070914401CE014F960E94220160914501F2
:1019000070914601CE0101960E942201BE016F5FD7
:101910007F4FCE0149960E948311BE01615E7F4FC9
:10192000CE0149960E94D810BE016B5D7F4F0E9488
:10193000D810BC018AEF96E00E940211CE014996B0
:101940000E945211CE0101960E945211CE014F9673
:101950000E945211CE0185960E945211F1C00E9440
:101960004E22E090A304F090A4040091A1041091F1
:10197000A20420919F043091A0044091A6045091AC
:10198000A70460919D0470919E0480919B049091A6
:101990009C040E94EE1487EE90E00E94EA240C94CE
:1019A0000A02109271055093700540936F05452B04
:1019B000B9F40E9447177C010E9451178C010E94C4
:1019C00059179C0140913F015091400160913D01A8
:1019D00070913E0180913B0190913C010E94EE1478
:1019E00080916F0590917005019719F5E09047017E
:1019F000F090480190E3E91A98EFF90A0091450147
:101A00001091460180904301909044010E9461171B
:101A10005C010E9469176C010E9471179401A50175
:101A2000B6010E94EE14609141018EE090E00E94A8
:101A3000A81A80916F05909170050297C1F460918A
:101A4000490182E090E00E94A81A60914B0183E076
:101A500090E00E94A81A60914D0184E090E00E94FD
:101A6000A81A60914F0186E090E00E94A81A809128
:101A70006F0590917005039731F46091510181E0F9
:101A800090E00E94A81A80916F05909170050497CC
:101A9000F9F00E9447177C010E945117082F0E94FD
:101AA00059178EAF0E9461178DAF0E946917182FCA
:101AB0000E947117382FC70168EE73E00E94F8305A
:101AC000E82E2EAD4DAD612F832F0E941D0E38C024
:101AD000609153018BE090E00E94A81A609155013B
:101AE0008CE090E06DAF0E946B2F6DAD681721F018
:101AF0008CE090E00E94732F609156018DE090E0A1
:101B00006DAF0E946B2F6DAD681719F28DE090E0FC
:101B10000E94732FBECF0E94471768EE73E00E94A9
:101B2000F830BC01CE0101960E9422010E94591793
:101B3000BC01CE0149960E9422010E94511765CD39
:101B4000EE960FB6F894DEBF0FBECDBFDF91CF91FA
:101B50001F910F91FF90EF90DF90CF90BF90AF90CB
:101B60009F908F9008958EBD00000DB407FEFDCFAD
:101B70008EB508950E9439320F931F93CF93DF9350
:101B8000082FC8E0D0E011E081E0912F902309F404
:101B900080E00E945326110F2197B1F7F894E0914D
:101BA0000707F09108079181809106078095982397
:101BB0009183E0910707F09108079281892382833E
:101BC0007894DF91CF911F910F910895909106071E
:101BD000E0910707F0910807F8948181292F20955B
:101BE0008223818378948DE743E050E0815021F196
:101BF000DA011197F1F730813923C1F3F89482812A
:101C0000822382838181892B81837894ABE7B7E03B
:101C10001197F1F7F894818128232183A3E1B1E0A2
:101C20001197F1F78081982381E009F080E07894A2
:101C3000E3E6F6E03197F1F70895DF92EF92FF9235
:101C40000F931F93CF93DF9300D0CDB7DEB7F82E5D
:101C5000162F81E080938B0588E68093AD05109266
:101C60008C051092AE0560E083EA96E02A834983F2
:101C70000E9472188AE0D82E4981842F6D2D0E940F
:101C8000EC30692F30E1839F600D112483EA96E0E8
:101C90000E947218812F6D2D0E94EC30692F30E167
:101CA000839F600D112483EA96E00E9472188F2DA5
:101CB0006D2D0E94EC30692F30E1839F600D11245F
:101CC00083EA96E00E94721861E083EA96E00E943F
:101CD00072182A81822F6D2D0E94EC30692F20E12D
:101CE000829F600D112483EA96E00E947218802F73
:101CF0006D2D0E94EC30692F30E1839F600D11241F
:101D000083EA96E00E9472188E2D6D2D0E94EC30B1
:101D1000692F20E1829F600D112483EA96E00E94E2
:101D2000721860E083EA96E00E9472180F900F909C
:101D3000DF91CF911F910F91FF90EF90DF900C9466
:101D4000BB25CF93DF93FC01448155816081718174
:101D500086E096E00E94080FEC0180E193E00E948B
:101D6000B7248C0F9D1FDF91CF910895FC018081D6
:101D70009181009711F00C94CB2D60E070E0CB01C5
:101D80000895BF92CF92DF92EF92FF920F931F932D
:101D9000CF93DF937C016B018A01E901241735079A
:101DA00020F4812F8901C42FD82F62E173E0C7018D
:101DB0000E948C11D60114968D919C91159708174D
:101DC0001907D0F48C179D0708F4EC01D601ED91AA
:101DD000FC911197EC0FFD1FB08010824D915C912A
:101DE000BA01600F711FC7010E94EB10D601ED917F
:101DF000FC91EC0FFD1FB082C701DF91CF911F91C5
:101E00000F91FF90EF90DF90CF90BF9008950895CD
:101E1000CF92DF92EF92FF920F931F93CF93DF93B6
:101E20006C017A018B01C0E0D0E0CE15DF0589F0AE
:101E3000D8016D918D01D601ED91FC910190F08159
:101E4000E02DC6010995892B11F47E0102C021966F
:101E5000ECCFC701DF91CF911F910F91FF90EF90D1
:101E6000DF90CF900895FC01538D448D252F30E0F5
:101E7000842F90E0821B930B541710F0CF96089597
:101E800001970895FC01918D828D981761F0828DE4
:101E9000DF01A80FB11D5D968C91928D9F5F9F739E
:101EA000928F90E008958FEF9FEF0895FC01918D40
:101EB000828D981731F0828DE80FF11D858D90E0AD
:101EC00008958FEF9FEF0895FC01918D228D892F4A
:101ED00090E0805C9F4F821B91098F739927089532
:101EE00086E096E00E94640F21E0892B09F420E04F
:101EF000822F0895FC01848DDF01A80FB11DA35A24
:101F0000BF4F2C91848D90E001968F739927848F19
:101F1000A689B7892C93A089B1898C9180648C9310
:101F2000938D848D981306C00288F389E02D8081FB
:101F30008F7D80830895EF92FF920F931F93CF932D
:101F4000DF93EC0181E0888F9B8D8C8D981305C009
:101F5000E889F989808185FD24C0F62E0B8D10E07B
:101F60000F5F1F4F0F731127E02E8C8DE8120CC0EE
:101F70000FB607FCFACFE889F989808185FFF5CF94
:101F8000CE010E947A0FF1CF8B8DFE01E80FF11D7B
:101F9000E35AFF4FF0820B8FEA89FB8980818062D0
:101FA00007C0EE89FF896083E889F98980818064B0
:101FB000808381E090E0DF91CF911F910F91FF909E
:101FC000EF900895CF93DF93EC01888D8823C9F0BB
:101FD000EA89FB89808185FD05C0A889B9898C9132
:101FE00086FD0FC00FB607FCF5CF808185FFF2CFCD
:101FF000A889B9898C9185FFEDCFCE010E947A0F17
:10200000E7CFDF91CF91089580E090E0892B29F010
:102010000E94700F81110C9400000895833081F0AC
:1020200028F4813099F08230A1F008958730A9F02A
:102030008830B9F08430D1F4809180008F7D03C066
:10204000809180008F7780938000089584B58F778A
:1020500002C084B58F7D84BD08958091B0008F77D4
:1020600003C08091B0008F7D8093B0000895CF931E
:10207000DF93EC0188819981009711F00E94332D44
:10208000198218821D821C821B821A82DF91CF91D5
:1020900008950F931F93CF93DF93EC01888199816B
:1020A000009729F02A813B812617370788F48B0196
:1020B0006F5F7F4F0E946F31009761F09983888333
:1020C0001B830A832C813D81232B11F4FC01108298
:1020D00081E001C080E0DF91CF911F910F910895C1
:1020E000EF92FF920F931F93CF93DF93EC017B014D
:1020F0008A01BA010E944910811104C0CE010E94D8
:10210000371007C01D830C83B701888199810E9415
:102110004732CE01DF91CF911F910F91FF90EF9049
:102120000895EF92FF920F931F93CF93DF93FC01DB
:10213000248135816115710511F480E019C04115C4
:102140005105A9F07B01EC018A01020F131FB801B0
:102150000E944910882389F3288139818C819D81CF
:10216000B701820F931F0E9447321D830C8381E0C9
:10217000DF91CF911F910F91FF90EF900895CF9332
:10218000DF93EC016115710561F0FB010190002006
:10219000E9F73197AF01461B570B0E94911081114F
:1021A00003C0CE010E943710CE01DF91CF91089578
:1021B000CF93DF93EC01FB014481558160817181F4
:1021C0000E949110811103C0CE010E943710CE01F0
:1021D000DF91CF910895CF93DF93EC0161157105E5
:1021E00059F0FB0101900020E9F73197AF01461B40
:1021F000570B0E94701002C00E943710CE01DF9171
:10220000CF910895CF93DF93EC01FB0186179707D9
:1022100061F0608171816115710529F044815581FA
:102220000E94701002C00E943710CE01DF91CF9142
:1022300008950F931F93CF93DF938C01EB01FC0163
:10224000808191810097B1F0688179816115710574
:1022500079F0428153812C813D814217530740F030
:102260000E9447328C819D81F8019583848313C03D
:102270000E94332D88819981F801918380838A811E
:102280009B81938382838C819D8195838483198232
:1022900018821B821A821D821C82DF91CF911F91AE
:1022A0000F910895FC01808191810C94332D0F933F
:1022B0001F93CF93DF93CDB7DEB762970FB6F89435
:1022C000DEBF0FBECDBF8C01CB01F80111821082A1
:1022D000138212821582148250E0BE016F5F7F4F1D
:1022E0000E94F22DBE016F5F7F4FC8010E94EB106C
:1022F00062960FB6F894DEBF0FBECDBFDF91CF91CF
:102300001F910F910895FC01118210821382128295
:10231000158214820C940211FC0111821082138226
:102320001282158214826115710551F0FB01019032
:102330000020E9F73197AF01461B570B0C94701042
:1023400008951F920F920FB60F9211242F933F936F
:102350004F935F936F937F938F939F93AF93BF93AD
:10236000EF93FF9386E096E00E947A0FFF91EF9142
:10237000BF91AF919F918F917F916F915F914F919D
:102380003F912F910F900FBE0F901F9018951F92A5
:102390000F920FB60F9211242F938F939F93EF9369
:1023A000FF93E0911606F09117068081E0911C06DC
:1023B000F0911D0682FD12C0908180911F068F5FF3
:1023C0008F7320912006821751F0E0911F06F0E0F4
:1023D000EA5FF94F958F80931F0601C08081FF91BE
:1023E000EF919F918F912F910F900FBE0F901F90A3
:1023F0001895CF93DF93282F30E0F901E956FE4F6F
:102400008491F901E952FE4FD491F901ED53FE4F49
:10241000C491CC2391F081110E940E10EC2FF0E0BA
:10242000EE0FFF1FE754FE4FA591B491EC91ED2301
:1024300081E090E021F480E002C080E090E0DF9154
:10244000CF9108951F93CF93DF93282F30E0F901A8
:10245000E956FE4F8491F901E952FE4FD491F901FA
:10246000ED53FE4FC491CC23C9F0162F81110E9469
:102470000E10EC2FF0E0EE0FFF1FE451FF4FA5917F
:10248000B4918FB7F894111105C09C91ED2FE09590
:10249000E92302C0EC91ED2BEC938FBFDF91CF913C
:1024A0001F910895CF93DF9390E0FC01E952FE4F16
:1024B0002491FC01ED53FE4F8491882361F190E05B
:1024C000880F991FFC01E750FF4FC591D491FC0183
:1024D000E451FF4FA591B491611109C09FB7F894E1
:1024E0008881209582238883EC912E230BC0623053
:1024F00061F49FB7F8943881822F80958323888375
:10250000EC912E2B2C939FBF06C08FB7F894E881D7
:102510002E2B28838FBFDF91CF9108951F93CF93E8
:10252000DF93182FEB0161E00E945212209711F403
:1025300060E004C0CF3FD10539F461E0812FDF9125
:10254000CF911F910C942212E12FF0E0E956FE4F3B
:10255000E491E330F9F048F4E130B9F0E230A1F56C
:1025600084B5806284BDC8BD34C0E730E9F0E8308E
:1025700019F1E43049F580918000806280938000F9
:10258000D0938B00C0938A0024C084B5806884BD3A
:10259000C7BD1FC080918000806880938000D09369
:1025A0008900C093880015C08091B0008068809336
:1025B000B000C093B3000DC08091B00080628093E2
:1025C000B000C093B40005C0C038D1050CF0B5CF41
:1025D000AFCFDF91CF911F9108953FB7F8948091CD
:1025E000E4049091E504A091E604B091E70426B5D7
:1025F000A89B05C02F3F19F00196A11DB11D3FBF3B
:10260000BA2FA92F982F8827820F911DA11DB11DC8
:10261000BC01CD0142E0660F771F881F991F4A95C4
:10262000D1F708958F929F92AF92BF92CF92DF928F
:10263000EF92FF926B017C010E94ED124B015C0155
:10264000C114D104E104F104F1F00E94ED12DC01A7
:10265000CB0188199909AA09BB09883E9340A105B5
:10266000B10570F321E0C21AD108E108F10888EE43
:10267000880E83E0981EA11CB11CC114D104E10492
:10268000F10419F7DDCFFF90EF90DF90CF90BF906E
:10269000AF909F908F9008952FB7F8946091E004C9
:1026A0007091E1048091E2049091E3042FBF0895BA
:1026B0006093DB047093DC048093DD049093DE046C
:1026C000DC01CB01845D9E4FAF4FBF4F8093D70499
:1026D0009093D804A093D904B093DA0482E090E0F8
:1026E0009093D6048093D5040E944C136093D10438
:1026F0007093D2048093D3049093D40408951F92CE
:102700000F920FB60F9211242F933F938F939F93A5
:10271000AF93BF938091E0049091E104A091E20413
:10272000B091E3043091DF0423E0230F2D3720F430
:102730000196A11DB11D05C026E8230F0296A11D1B
:10274000B11D2093DF048093E0049093E104A093F3
:10275000E204B093E3048091E4049091E504A09135
:10276000E604B091E7040196A11DB11D8093E40435
:102770009093E504A093E604B093E704BF91AF9172
:102780009F918F913F912F910F900FBE0F901F90AF
:1027900018951F920F920FB60F9211242F933F930B
:1027A0004F935F936F937F938F939F93EF93FF93D9
:1027B0004091F8055091F9056091FA057091FB057B
:1027C000411551056105710599F080919004E091E2
:1027D0009104F09192049081892780831416150644
:1027E00016061706D4F4415051096109710915C044
:1027F000809170008D7F8093700090919004E091A3
:102800009104F09192048081282F30E0892F90E08C
:10281000809590958223932380834093F80550936D
:10282000F9056093FA057093FB05FF91EF919F9175
:102830008F917F916F915F914F913F912F910F9069
:102840000FBE0F901F9018951F920F920FB60F9208
:1028500011242F933F938F939F93AF93BF93EF9345
:10286000FF938091FC059091FD05A091FE05B0912C
:10287000FF05892B8A2B8B2B51F180919304E091DA
:102880009404F09195049081892780838091FC05C0
:102890009091FD05A091FE05B091FF05181619064F
:1028A0001A061B064CF58091FC059091FD05A09140
:1028B000FE05B091FF050197A109B1098093FC05C0
:1028C0009093FD05A093FE05B093FF0515C0809180
:1028D0006F008D7F80936F0090919304E09194043A
:1028E000F09195048081282F30E0892F90E0809529
:1028F0009095822393238083FF91EF91BF91AF91B5
:102900009F918F913F912F910F900FBE0F901F902D
:1029100018951F920F920FB60F9211242F933F9389
:102920008F939F93AF93BF93EF93FF938091000694
:1029300090910106A0910206B0910306892B8A2B83
:102940008B2B51F180919604E0919704F0919804BB
:102950009081892780838091000690910106A09143
:102960000206B0910306181619061A061B064CF546
:102970008091000690910106A0910206B091030695
:102980000197A109B1098093000690930106A093D5
:102990000206B093030615C080916E008D7F809370
:1029A0006E0090919604E0919704F09198048081D4
:1029B000282F30E0892F90E08095909582239323F3
:1029C0008083FF91EF91BF91AF919F918F913F9144
:1029D0002F910F900FBE0F901F9018953F924F921E
:1029E0005F926F927F928F929F92AF92BF92CF929F
:1029F000DF92EF92FF920F931F93CF93DF93382EC6
:102A0000962E842EF90184E6E816F1042CF082EB70
:102A1000E81A87E0F80A03C08EE1E80EF11CE092A4
:102A2000CA040093C904E093C8043092C60490928B
:102A3000C5048092C404AE2DB0E020E833E341EE3B
:102A400051E00E94812F2B013C0122EB37E0FF2453
:102A500084E6C82ED12CC0E9D1E0C901825B974041
:102A60008E159F05DCF4C90183709927892B99F491
:102A7000C901B6010E94F830892B31F4C901BE01A9
:102A80000E94F830892B39F480E8480E81E5581E01
:102A900081E0681E711C2F5F3F4FDFCF8EE4E81A84
:102AA00088EFF80AC70164E670E00E94F8306C0114
:102AB000C70160E971E00E94F8305C01C1E0D0E03C
:102AC000112783E0E822FF24C017D1072CF5C2307C
:102AD000D10589F4E114F10471F4C114D10419F49D
:102AE000A114B10441F480E8480E8BE3581E86E23D
:102AF000681E711C0FC0DE01AD58BD4FAC91B0E037
:102B000020E831E541E050E00E94812F460E571E3B
:102B1000681E791E2196D8CF292D30E0ACE3B0E0B5
:102B20000E94C32F6B017C01C80CD11CE11CF11C5D
:102B3000232D30E0A0E1BEE00E94C32FC60ED71EB9
:102B4000E81EF91EDF01BB27119720E831E541E0BF
:102B500050E00E945331DC01CB018C0D9D1DAE1D58
:102B6000BF1DBC01CD01640D751D861D971DDF9134
:102B7000CF911F910F91FF90EF90DF90CF90BF907A
:102B8000AF909F908F907F906F905F904F903F900D
:102B90000C945813CF92DF92EF92FF920F931F93F2
:102BA0000E944C13C090D104D090D204E090D30482
:102BB000F090D4048B019C010C191D092E093F09CA
:102BC0008091DB049091DC04A091DD04B091DE04DF
:102BD000083E134021053105D0F00196A11DB11D1D
:102BE0008093DB049093DC04A093DD04B093DE04B7
:102BF000B701A60148515C4F6F4F7F4F4093D104FE
:102C00005093D2046093D3047093D404C9CF4091FD
:102C1000D7045091D8046091D9047091DA048417D4
:102C20009507A607B70788F1E091CF04F091D0048B
:102C3000309759F10995611571058105910519F0D4
:102C40000E94581322C08091DB049091DC04A09173
:102C5000DD04B091DE04845D9E4FAF4FBF4F809383
:102C6000D7049093D804A093D904B093DA0481E0F8
:102C700090E02091D5043091D604232B11F480E00C
:102C800090E09093D6048093D5046091DB0470911A
:102C9000DC048091DD049091DE041F910F91FF9080
:102CA000EF90DF90CF9008954F925F926F927F9256
:102CB0008F929F92AF92BF92CF92DF92EF92FF924C
:102CC0000F931F93CF93DF934B015C018091CB0453
:102CD0009091CC04A091CD04B091CE0488169906B1
:102CE000AA06BB0609F4C2C08CE3C82ED12CE12C85
:102CF000F12CC501B401A70196010E940C3160932B
:102D0000C404CA01B901A70196010E940C31609365
:102D1000C504CA01B90128E130E040E050E00E945A
:102D20000C3169017A016093C604CA01B9016C5F74
:102D30007F4F8F4F9F4F27E030E040E050E00E94F0
:102D40000C316F5F6093C704412C512C320140E07D
:102D500004E610E0C0E9D1E0242F30E02E54384FD3
:102D6000F901E370FF27309789F4C901B8010E9487
:102D7000F830892B31F4C901BE010E94F830892B4B
:102D800029F48EE691E0A0E0B0E004C08DE691E089
:102D9000A0E0B0E0480E591E6A1E7B1ED301C2019E
:102DA000AA27BB27C816D906EA06FB0610F04F5F14
:102DB000D3CF4093CA04309799F4C90164E670E018
:102DC0000E94F830892B39F4C90160E971E00E9452
:102DD000F830892B29F48EE691E0A0E0B0E004C041
:102DE0008DE691E0A0E0B0E0481A590A6A0A7B0A31
:102DF000C418D508E608F708C90164E670E00E9427
:102E0000F830EC01C90160E971E00E94F830A4E7F4
:102E1000B2E020E0213039F4309749F4209729F4CA
:102E2000009729F402C04C9103C04DE101C04CE170
:102E300050E060E070E0C416D506E606F70640F004
:102E4000C41AD50AE60AF70A2F5F11962C3011F73B
:102E50002F5F2093C904C394C092C8048092CB040E
:102E60009092CC04A092CD04B092CE04DF91CF9189
:102E70001F910F91FF90EF90DF90CF90BF90AF9098
:102E80009F908F907F906F905F904F9008950E94D9
:102E9000CA150E9454168091CA0490E08E54984F2F
:102EA00008950E94CA150E9454168091C90490E0AA
:102EB00008950E94CA150E9454168091C80490E09B
:102EC00008950E94CA150E9454168091C40490E08F
:102ED00008950E94CA150E9454168091C50490E07E
:102EE00008950E94CA150E9454168091C60490E06D
:102EF0000895CF92DF92EF92FF92CF93DF93EC0190
:102F00000E944C136B017C018F850E94F91121E016
:102F1000892B09F420E0298B8889811103C081E085
:102F20008227898B29898A89281721F0CD8ADE8A10
:102F3000EF8AF88E8D899E89AF89B88DB701A60179
:102F4000481B590B6A0B7B0BDB01CA01CB80DC8071
:102F5000ED80FE80C416D506E606F70664F43A81D5
:102F6000231749F02A83222331F04B895C894F5F74
:102F70005F4F5C8B4B8B3A8131110CC0CF80D88472
:102F8000E984FA84C816D906EA06FB06ACF48B89F4
:102F90009C890EC0CB84DC84ED84FE84C816D906DF
:102FA000EA06FB064CF48B899C89919581959109E1
:102FB000998388831C8A1B8A2A8BDF91CF91FF908B
:102FC000EF90DF90CF90089585ED8093BC008091C5
:102FD000BC0084FDFCCF1092D505089540914405B6
:102FE000262F30E0240F311D21323105DCF42091F1
:102FF000D5052430C9F4FC0180E090E0861758F430
:10300000309144052191DC01AE5DBA4FA30FB11D93
:103010002C930196F3CF80914405680F609344058B
:1030200080E0089581E0089582E008950895E09198
:10303000D7058091D605E81730F4F0E0E852FA4F52
:10304000808190E008958FEF9FEF08959091D705CC
:103050008091D605981750F4E92FF0E0E852FA4F26
:10306000208130E09F5F9093D70502C02FEF3FEFA4
:10307000C90108958091D60590E02091D705821B63
:1030800091090895CF92DF92EF92FF920F931F93D1
:10309000CF93DF937C01262F972F8A0180918B0598
:1030A000882391F0C62FD72F6E01C40ED51ECC15E4
:1030B000DD0571F06991D701ED91FC910190F081EE
:1030C000E02DC7010995F3CF642F822F0E94EE17E0
:1030D000C801DF91CF911F910F91FF90EF90DF908A
:1030E000CF900895CF93DF931F92CDB7DEB769835A
:1030F00020918B052223D1F02091AE05203240F0A3
:1031000021E030E0FC013383228380E090E015C0B1
:1031100080918C05E82FF0E0E357FA4F9981908376
:103120008F5F80938C058093AE0505C061E0CE0172
:1031300001960E94EE1781E090E00F90DF91CF9111
:103140000895089580E090E00895CF92DF92EF9285
:10315000FF921F93CF93DF9390915901992309F424
:1031600074C090915801992309F46FC0182FC09131
:10317000E904D091EA0480911A0581110DC00E94E2
:103180004C13609316057093170580931805909360
:10319000190581E080931A050E944C13C090160512
:1031A000D0901705E0901805F0901905DC01CB01CF
:1031B0008C199D09AE09BF098D329140A105B10559
:1031C000D8F00E944C1360931605709317058093F6
:1031D0001805909319058091150591E09827909313
:1031E0001505992329F0109214051092130504C0B7
:1031F000D0931405C0931305209113053091140545
:10320000209530954091E80450E02423352326FF93
:1032100004C081E08093120502C01092120527FFBE
:1032200004C081E08093110502C0109211058091C5
:103230001505882351F002C0D595C7951A95E2F778
:10324000C0FF03C080E09CEF02C08FEF9FEFDF91D3
:10325000CF911F91FF90EF90DF90CF9008950F9343
:103260001F93CF93DF931F92CDB7DEB78C01862FCC
:10327000F8016787408B91E04927418B428B148A84
:10328000138A118210821282158A168A178A108E6A
:1032900044E150E060E070E04383548365837683CB
:1032A0004AEF50E060E070E04783508761877287A3
:1032B00048EE53E060E070E0438754876587768787
:1032C00060E029830E945212F801808929818111CE
:1032D0000BC0222349F061E087850F90DF91CF91E9
:1032E0001F910F910C9422120F90DF91CF911F919B
:1032F0000F9108951F920F920FB60F9211242F93E2
:103300003F934F935F936F937F938F939F93AF936D
:10331000BF93EF93FF938091B900887F803609F4C3
:103320009CC068F5883209F45BC090F4803109F4E0
:1033300054C038F4882309F4F6C0883009F44DC02D
:10334000F6C0883109F44CC0803209F45DC0EFC08A
:10335000803409F468C048F4803309F455C08833D8
:1033600009F0E5C08093D305D8C0803509F44FC07B
:10337000883509F45DC0883409F0D9C0D6C08839D1
:1033800009F4C7C0A8F4883709F467C038F4883650
:1033900009F463C0803709F460C0C9C0883809F4F3
:1033A000B8C0803909F45FC0803809F0C0C05BC084
:1033B000803B09F486C038F4803A09F466C0883A44
:1033C00009F47FC0B4C0803C09F4A7C0883C09F46C
:1033D000A4C0883B09F48AC0AAC08091D00510C05F
:1033E0009091D2058091D105981770F5E091D205A2
:1033F00081E08E0F8093D205F0E0E155FA4F808195
:103400008093BB0085EC86C08093D3058EC0E0918D
:10341000D20581E08E0F8093D2058091BB00F0E051
:10342000E155FA4F80839091D2058091D1056EC00D
:10343000E091D20581E08E0F8093D2058091BB0090
:10344000F0E0E155FA4F80838091D40581116DC081
:1034500081E08093CF0584EA61C083E08093D50545
:1034600010926805CFCF80916805803208F051C076
:10347000E091680581E08E0F809368058091BB0024
:10348000F0E0E85BFA4F8083BDCF85EC8093BC0011
:103490001092D50580916805803230F4E09168057E
:1034A000F0E0E85BFA4F10826091680570E0E0910F
:1034B0004605F091470588E495E009951092680566
:1034C00036C084E08093D5051092450510924405DE
:1034D000E0914205F09143050995809144058111E1
:1034E00005C081E08093440510922205E0914505D6
:1034F00081E08E0F80934505F0E0EE5DFA4F80810C
:103500008093BB009091450580914405981708F47D
:1035100079CF85E88093BC000AC085EC8093BC001D
:103520001092D50504C01092D3050E94E417FF91B4
:10353000EF91BF91AF919F918F917F916F915F912B
:103540004F913F912F910F900FBE0F901F901895A4
:103550000C94732F0C946B2F2F923F924F925F928B
:103560006F927F928F929F92AF92BF92CF92DF9293
:10357000EF92FF921F93CF93DF9300D000D000D043
:10358000CDB7DEB70E94ED12C0900D05D0900E05AC
:10359000E0900F05F0901005DC01CB018C199D091E
:1035A000AE09BF0989389341A105B10508F4B6C039
:1035B0000E94ED1260930D0570930E0580930F0528
:1035C0009093100510915701123051F0133071F0A3
:1035D000113089F4812C912C40E1A42EB12C0BC028
:1035E000812C912C60E2A62EB12C05C0812C912C4F
:1035F00050E4A52EB12CE12EF12C81E0E81AF1085F
:10360000EE0CFF1C37012FEF621A720A9301A7011B
:103610006AEF76E0CE0101960E94C10ECE010196BE
:103620000E94B60E660F771FFB01E058FD4F8081A8
:103630009181A0E0B0E0882A992AAA2ABB2ACE016B
:1036400001960E94521197012E5F3F4FA3016AEF2E
:1036500076E0CE0101960E94C10ECE0101960E9435
:10366000B60E660F771FFB01E058FD4F20803180BA
:10367000412C512CCE0101960E945211C7010E948B
:10368000A518092E000CAA0BBB0B88229922AA228E
:10369000BB22C3010E94A5186C01990FEE08FF0818
:1036A000C220D320E420F5203AE0CC0CDD1CEE1C37
:1036B000FF1C3A95D1F7C828D928EA28FB28809121
:1036C0001205882319F06894F0F802C0E894F0F825
:1036D00080911105882319F06894F1F802C0E894EC
:1036E000F1F860E08AE00E9422128F2D0E94B30D53
:1036F0008E2D0E94B30D8D2D0E94B30D8C2D0E9436
:10370000B30D61E08AE00E9422121F5F143019F0AD
:103710001093570103C081E08093570126960FB69E
:10372000F894DEBF0FBECDBFDF91CF911F91FF9008
:10373000EF90DF90CF90BF90AF909F908F907F9051
:103740006F905F904F903F902F900895CF92DF92AF
:10375000EF92FF921F93CF93DF93C0910B05D0910F
:103760000C05C830D10508F067C0182FFE01E25BD8
:10377000FF4F0C944D3184E406C00E94E60D5CC0FE
:103780008CEC01C08EEB0E94BC0D56C00E943D2601
:103790008093090551C00E943D2680930A05682F39
:1037A00070E0762F662780910905682B6F3F8FEFB9
:1037B000780711F460E070E0072E000C880B990B7D
:1037C0000E944E2E20E030E040E85DE30E94AD2EE6
:1037D0006B017C018091550190915601BC01990FBC
:1037E000880B990B0E944E2E20E030E040E251E41D
:1037F0000E943F309B01AC01C701B6010E94D32F4C
:10380000112361F026E636E646EE5FE30E94AD2E18
:1038100020E030E040E052E40E94D32F20E030E08E
:1038200040E251E40E94AD2E6093050570930605B9
:1038300080930705909308052196C830D10529F09B
:10384000D0930C05C0930B0504C010920C05109288
:103850000B05609105057091060580910705909113
:103860000805DF91CF911F91FF90EF90DF90CF90EF
:1038700008958F929F92AF92BF92CF92DF92EF9274
:10388000FF920F931F93CF93DF93CDB7DEB762976D
:103890000FB6F894DEBF0FBECDBF8C016A017B016D
:1038A0008091FD04811113C00E944C13DC01CB01F7
:1038B000845B9B4FAF4FBF4F8093F9049093FA0402
:1038C000A093FB04B093FC0481E08093FD048091FD
:1038D000F104811109C069E473E08BEE94E00E9469
:1038E0008C1181E08093F1040E944C138090F904C4
:1038F0009090FA04A090FB04B090FC04DC01CB0192
:1039000088199909AA09BB09893E9340A105B10507
:1039100008F4CBC10E944C136093F9047093FA042D
:103920008093FB049093FC0420E030E0A901C701E0
:10393000B6010E94E73020E030E040E05FE387FD21
:1039400005C0C701B6010E94D32F04C0C701B6014C
:103950000E94D22F0E94B130809153019091540166
:103960009B0129513C4F49012458334059012A55A4
:10397000310969017B01892B09F0C2C077FF03C0BF
:10398000F194E194F1084AE0B701CE0107960E9454
:1039900057116EE473E0CE0101960E948C11BE01B6
:1039A000695F7F4FCE0101960E94D8106EE473E0EC
:1039B0000E94BF10BC018BEE94E00E940211CE0168
:1039C00001960E945211CE0107960E9452113FECBF
:1039D000831637E0930688F54AE0B701CE010D96CD
:1039E0000E9457116091550170915601CE010196C8
:1039F0000E942201BE016F5F7F4FCE0107960E9499
:103A00008311BE01635F7F4FCE0107960E94D810DD
:103A10006EE473E00E94BF10BC018BEE94E00E9444
:103A20000211CE0107960E945211CE0101960E940A
:103A30005211CE010D960E94521187ECA816B104C6
:103A4000A8F54AE0B701CE010D960E94571160918A
:103A5000550170915601CE0107960E9422016EE435
:103A600073E0CE0101960E948C11BE01695F7F4F09
:103A7000CE0101960E94D810BE01635F7F4F0E9465
:103A8000D8106EE473E00E94BF10BC018BEE94E08E
:103A90000E940211CE0101960E945211CE0107969A
:103AA0000E945211CE010D960E94521123E1C216BE
:103AB000D10408F0FAC04AE0B701CE010D960E9489
:103AC00057116091550170915601CE0107960E94E1
:103AD00022016DE473E0CE0101960E948C11BE01BB
:103AE000695F7F4FCE0101960E94D810BE01635FCF
:103AF0007F4F0E94D8106EE473E00E94BF10C4C0D4
:103B000077FF03C0F194E194F1084AE0B701CE01D8
:103B100007960E9457116EE473E0CE0101960E9451
:103B20008C11BE01695F7F4FCE0101960E94D810B3
:103B30006EE473E00E94BF10BC018BEE94E00E9423
:103B40000211CE0101960E945211CE0107960E94E9
:103B500052113FEC831637E09306A8F560915501AA
:103B600070915601CE010D960E942201C7016AE0B4
:103B700070E00E94F8304AE0CE0107960E9457118B
:103B80006DE473E0CE0101960E948C11BE01695F65
:103B90007F4FCE0101960E94D810BE01635F7F4F18
:103BA0000E94D810BC018BEE94E00E940211CE015D
:103BB00001960E945211CE0107960E945211CE0129
:103BC0000D960E94521187ECA816B104A8F56091D9
:103BD000550170915601CE010D960E942201C70138
:103BE0006AE070E00E94F8304AE0CE0107960E9439
:103BF00057116CE473E0CE0101960E948C11BE0156
:103C0000695F7F4FCE0101960E94D810BE01635FAD
:103C10007F4F0E94D810BC018BEE94E00E940211ED
:103C2000CE0101960E945211CE0107960E945211B8
:103C3000CE010D960E94521123E1C216D104A8F5BF
:103C40006091550170915601CE010D960E9422019E
:103C5000C7016AE070E00E94F8304AE0CE010796A2
:103C60000E9457116BE473E0CE0101960E948C1103
:103C7000BE01695F7F4FCE0101960E94D810BE0140
:103C8000635F7F4F0E94D810BC018BEE94E00E94CE
:103C90000211CE0101960E945211CE0107960E9498
:103CA0005211CE010D960E9452116BEE74E0C801C4
:103CB0000E948311C80162960FB6F894DEBF0FBE52
:103CC000CDBFDF91CF911F910F91FF90EF90DF90CB
:103CD000CF90BF90AF909F908F9008950F931F93B8
:103CE000CF93DF93CDB7DEB768970FB6F894DEBFFA
:103CF0000FBECDBF8B01833091F42091FE06309131
:103D0000FF0642E050E06AEF76E0CE010D960E9499
:103D1000C10EB801CE0101960E94220161C08C3013
:103D200009F042C02091FE063091FF0644E050E0C9
:103D30006AEF76E0CE0143960E94C10EB801CE0133
:103D40000D960E94220122E030E040E050E06AEF50
:103D500076E0CE0101960E94C10EBE016F5F7F4FDB
:103D6000CE0107960E948311BE01635F7F4FCE0193
:103D700007960E94D810BE016D5E7F4F0E94D8103A
:103D8000BC018AEF96E00E940211CE0107960E94C4
:103D90005211CE0101960E945211CE010D960E9441
:103DA0005211CE01439639C0803311F0803F41F467
:103DB000B801CE010D960E94220124E030E008C037
:103DC000803C69F5CE010D960E94220126E030E08C
:103DD00040E050E06AEF76E0CE0101960E94C10E0D
:103DE000BE016F5F7F4FCE0107960E948311BE0117
:103DF000635F7F4FCE0107960E94D810BC018AEF07
:103E000096E00E940211CE0107960E945211CE0147
:103E100001960E945211CE010D960E945211689691
:103E20000FB6F894DEBF0FBECDBFDF91CF911F91CB
:103E30000F9108954F925F926F927F928F929F920F
:103E4000AF92BF92CF92DF92EF92FF920F931F93A8
:103E5000CF93DF9300D000D000D0CDB7DEB77C0188
:103E60004B015A0180917605882341F080917E05AF
:103E700005E815E0AFE7B5E0F80148C081E08093C0
:103E8000760585E8682E85E0782E9FE7492E95E037
:103E9000592E00E010E00F5F1F4F680181E0C81A43
:103EA000D1089801A601B401CE0101960E94C10E6D
:103EB000CE0101960E94B60EF30161933F01CE013F
:103EC00001960E9452119801A601B501CE010196FA
:103ED0000E94C10ECE0101960E94B60EF2016193BE
:103EE0002F01CE0101960E9452110630110599F65C
:103EF000BDCF2C9192130DC090819A3009F410829D
:103F00003196119695E0EB38F90731F090818A30BF
:103F100080F79F5F9083F0CF8F5F843119F080939B
:103F20007E0504C010927E051092760562E173E072
:103F3000C7010E948C11FE0131966F01F801819139
:103F40008F014AE0B60190E00E94FD2DF60101903C
:103F50000020E9F73197AF014C195D09B601C7019F
:103F60000E949110F5E00B381F0741F7C701269614
:103F70000FB6F894DEBF0FBECDBFDF91CF911F917A
:103F80000F91FF90EF90DF90CF90BF90AF909F90F8
:103F90008F907F906F905F904F90089588E090E0B1
:103FA0000E94AA1A682F70E089E00E948E1289E0B0
:103FB00090E00E94AA1A682F70E086E00E948E129C
:103FC0008AE090E00E94AA1A682F70E083E00C94C7
:103FD0008E120F931F9380914F0190915001892B66
:103FE00009F455C080917D058823A9F00E944C13E7
:103FF0000091790510917A0520917B0530917C051F
:10400000DC01CB01801B910BA20BB30B893E9340CB
:10401000A105B105C8F580917D05811138C00E94C8
:1040200071172091490130914A018217930779F560
:104030000E94691720914B0130914C018217930720
:1040400031F50E94611720914D0130914E01821788
:104050009307E9F40E944C136093790570937A05F5
:1040600080937B0590937C0581E080937D058BEAAE
:1040700091E00E94EA2480912E0190912F0190936B
:104080009A048093990403C010927D05C4CF1F91B8
:104090000F9108950E944C136093720570937305FD
:1040A000809374059093750580917105882309F4B8
:1040B00074C020916F0530917005C901880F991F58
:1040C0002031310551F0FC01EF5CFE4F4081518100
:1040D00041505109518340830AC040915101509190
:1040E00052014C5051095093520140935101DC014F
:1040F000AF5CBE4F6D917C911197FC01E654FD4F72
:1041000040815181641775073CF4FC01EC56FD4F6A
:10411000808191818D939C932F30310561F5809141
:104120004F0190915001019721F480E88093E804B9
:1041300002C01092E80486E094E00E94B724E09167
:104140006F05F0917005EE0FFF1FEF5CFE4F808151
:1041500091810E94392581E194E00E94B724609109
:10416000E80470E080E090E042E00E94F82480E102
:1041700093E00E94B72480916F059091700588307C
:10418000910559F0880F991FFC01EF5CFE4F60818B
:1041900071818091E9040C946E1E08950E944C1365
:1041A0006093720570937305809374059093750501
:1041B00080917105882309F474C020916F053091B6
:1041C0007005C901880F991F2031310551F0FC019C
:1041D000EF5CFE4F408151814F5F5F4F51834083C1
:1041E0000AC04091510150915201445F5F4F50937A
:1041F000520140935101DC01AF5CBE4F6D917C9147
:104200001197FC01EC56FD4F40815181461757072D
:104210003CF4FC01E654FD4F808191818D939C9389
:104220002F30310561F580914F0190915001019738
:1042300021F480E88093E80402C01092E8048DE144
:1042400094E00E94B724E0916F05F0917005EE0FA5
:10425000FF1FEF5CFE4F808191810E94392581E133
:1042600094E00E94B7246091E80470E080E090E060
:1042700042E00E94F82480E193E00E94B7248091FC
:104280006F05909170058830910559F0880F991F3E
:10429000FC01EF5CFE4F608171818091E9040C9418
:1042A0006E1E0895CF93DF93EC01019628812A3387
:1042B000D9F78981843639F510926E0510926D0513
:1042C00023964AE0FE018881219690ED980F209177
:1042D0006D0530916E059A3080F4429FB001439F86
:1042E000700D1124082E000C990BC097860F971F94
:1042F00090936E0580936D05E5CF1216130614F4A6
:1043000020935D01EF01219688818F3689F48A819F
:10431000082E000C990B9C012053310930936E0537
:1043200020936D05C397059710F420935C012496A4
:104330008881823629F510926E0510926D05FE0176
:1043400032964AE0819190ED980F20916D05309161
:104350006E059A3080F4429FB001439F700D112486
:10436000082E000C990BC097860F971F90936E052F
:1043700080936D05E7CF30935B0120935A01EF01E5
:1043800020915A0130915B01032E000C440B550B18
:1043900060E67AEE80E090E00E942E31DA01C901F9
:1043A00022E0880F991FAA1FBB1F2A95D1F780937F
:1043B000690590936A05A0936B05B0936C05CE01D7
:1043C000DF91CF910895CF92DF92EF92FF920F93FA
:1043D0001F93CF93DF93CDB7DEB72C970FB6F8942A
:1043E000DEBF0FBECDBF8C0165E573E0CE01019647
:1043F0000E948C110330110529F422E030E040E0E6
:1044000050E021C00C30110529F424E030E042E0F6
:1044100050E019C00033110519F426E030E007C060
:10442000003F110539F42091FE063091FF0644E06B
:1044300050E009C0003C1105B9F42091FE0630910E
:10444000FF0646E050E06AEF76E0CE0107960E9454
:10445000C10EBE01695F7F4FCE0101960E94191106
:10446000CE0107960E945211CE0101960E94B60E0F
:104470006B017C01CE0101960E945211C6012C965F
:104480000FB6F894DEBF0FBECDBFDF91CF911F9165
:104490000F91FF90EF90DF90CF90089581E080938F
:1044A0008B0588E68093AD0510928C051092AE05C1
:1044B00060E083EA96E00E9472180E94BB2587E0C4
:1044C00090E00E94722583EA96E00E942618982FB9
:1044D00092959F708F702AE0929F800D112490E03A
:1044E0009093A7048093A60483EA96E00E9426187E
:1044F000982F92959F708F702AE0929F800D1124C3
:1045000090E090939E0480939D0483EA96E00E943D
:104510002618982F9695969596959670292F220F86
:10452000220F920F8F70890F90E090939C048093DC
:104530009B0483EA96E00E942618982F92959F701C
:104540008F702AE0929F800D112490E0909378055F
:104550008093770583EA96E00E942618982F92951B
:104560009F708F702AE0929F800D112490E09093AD
:10457000A00480939F0483EA96E00E942618982F57
:1045800092959F708F702AE0929F800D112490E089
:104590009093A2048093A10483EA96E00E942618D7
:1045A000982F92959F708F702AE0929F800D112412
:1045B00090E09093A4048093A30408953F924F92B7
:1045C0005F926F927F928F929F92AF92BF92CF92A3
:1045D000DF92EF92FF920F931F93CF93DF9300D060
:1045E00000D0CDB7DEB72091050627FDAAC14983CB
:1045F0005A836B837C838C0161E0809104060E9466
:10460000521230900506832D8D7F4801A12CB12CCC
:1046100009F0B7C060E072E18AE790E0A50194017B
:104620000E942E3129013A0169017A0121E0C21A62
:10463000D108E108F1088FEFC816D104E104F104B4
:1046400009F008F44CC060E472E48FE090E0A5014A
:1046500094010E942E3169017A0191E0C91AD108B2
:10466000E108F108A2E03A1220C0BFEFCB16D10456
:10467000E104F10409F008F462C160E970ED83E03F
:1046800090E0A50194010E942E3169017A01E1E0D8
:10469000CE1AD108E108F108FFEFCF16D104E104EA
:1046A000F10409F0C0F583E065C02FEFC216D10414
:1046B000E104F104B1F0A8F068E478EE81E090E064
:1046C000A50194010E942E3169017A0181E0C81A86
:1046D000D108E108F108332009F4D9C027C181E0ED
:1046E00001C082E0332091F045C0D301C2012AE02D
:1046F000B595A795979587952A95D1F76C017D017A
:10470000E1E0CE1AD108E108F10885E095B5987F7F
:10471000892B85BD66C068E478EE81E090E0A50154
:1047200094010E942E3169017A01B1E0CB1AD108BF
:10473000E108F108EFEFCE16D104E104F10409F02D
:1047400008F4A3C064E274EF80E090E0A501940156
:104750000E942E3169017A0191E0C91AD108E1085D
:10476000F108AFEFCA16D104E104F10411F008F02A
:10477000B0C085E09091B100987F892B8093B10003
:1047800030C060E072E18AE790E0A50194010E94E8
:104790002E3169017A01F1E0CF1AD108E108F10860
:1047A000C114D10421E0E206F10488F068E478EE57
:1047B00081E090E0A50194010E942E3169017A0107
:1047C00081E0C81AD108E108F10893E001C091E046
:1047D000A1E03A1206C080918100887F892B8093E6
:1047E000810089819A81AB81BC81892B8A2B8B2B9B
:1047F00081F0D801AA0FBB1F29813A814B815C81CE
:104800000E94812F28EE33E040E050E00E940C31FE
:1048100003C02FEF3FEFA90191E03916A1F0A2E00C
:104820003A1619F131108DC0C7BC209300063093A1
:104830000106409302065093030680916E00826049
:1048400080936E007EC0D0928900C0928800209331
:10485000FC053093FD054093FE055093FF058091C4
:104860006F00826080936F006CC0C092B300209391
:10487000F8053093F9054093FA055093FB058091B4
:1048800070008260809370005CC084E073CF8FEF13
:10489000C816D104E104F104D1F0C8F062E17AE76E
:1048A00080E090E0A50194010E942E3169017A0117
:1048B000F1E0CF1AD108E108F1082FEFC216D104B8
:1048C000E104F10411F008F010CF84E01FCF83E081
:1048D0001DCF62E17AE780E090E0A50194010E949B
:1048E0002E3169017A0191E0C91AD108E108F10875
:1048F000AFEFCA16D104E104F104B1F0A8F0D3017E
:10490000C2014AE0B595A795979587954A95D1F745
:104910006C017D01E1E0CE1AD108E108F1083320F5
:1049200009F4F3CE87E026CF86E0DCCEBFEFCB16CE
:10493000D104E104F10409F060F684E0D3CE82E012
:1049400019CF0F900F900F900F90DF91CF911F9183
:104950000F91FF90EF90DF90CF90BF90AF909F901E
:104960008F907F906F905F904F903F900895009749
:1049700069F0FC0101900020E9F73197AF01481B75
:10498000590BBC0186E096E00C94080F80E090E0A3
:1049900008950F931F93CF93DF938C01C0E0D0E075
:1049A000F801EC0FFD1F6491662371F0E09106069B
:1049B000F09107060190F081E02D86E096E00995E0
:1049C000892B11F02196ECCFCE01DF91CF911F9171
:1049D0000F910895CF93DF930E94C924EC0180E1E9
:1049E00093E00E94B7248C0F9D1FDF91CF91089513
:1049F0008F929F92AF92BF920F931F93CF93DF93AB
:104A0000CDB7DEB7A1970FB6F894DEBF0FBECDBF0E
:104A100019A2423008F44AE08E010F5D1F4F842E28
:104A2000912CA12CB12CA50194010E940C31E62FF0
:104A3000B901CA0101501109EA3014F4E05D01C066
:104A4000E95CD801EC93232B242B252B61F7C801BB
:104A50000E94B724A1960FB6F894DEBF0FBECDBF5B
:104A6000DF91CF911F910F91BF90AF909F908F904A
:104A70000895CF92DF92EF92FF92CF93DF936C0174
:104A8000990FEE08FF08F7FE1AC0E0910606F091B4
:104A900007060190F081E02D6DE286E096E0099531
:104AA000EC0166277727CB016C197D098E099F09D8
:104AB0004AE00E94F8247C01EC0EFD1E06C04AE08C
:104AC000C701B6010E94F8247C0180E193E00E94B6
:104AD000B7248E0D9F1DDF91CF91FF90EF90DF9057
:104AE000CF9008959091D5059111FCCF813208F0B7
:104AF00080E291E09093D5059093D4052FEF209319
:104B0000D3051092D205280F2093D1059093D0059C
:104B10009091D005906D9093D0059091CF059130F4
:104B200061F41092CF059091D0059093BB009091C5
:104B3000BC0093FDF8CF95EC01C095EE9093BC00BE
:104B40009091D5059130E1F39091D205981710F42A
:104B50008091D205AFEAB5E028ED35E0F9019E2F4E
:104B6000921B981718F49D919193F9CF1092D70545
:104B70008093D60508952091AE059091AD05213220
:104B800008F04AC08091D5058111FCCF32E0309306
:104B9000D50531E03093D4053FEF3093D305109223
:104BA000D2052093D105ADE8B5E04FEA55E0FA0112
:104BB0003E2F341B321718F43D913193F9CF1092E8
:104BC000D0052091D005990F922B9093D00590910C
:104BD000CF05913061F41092CF059091D00590935C
:104BE000BB009091BC0093FDF8CF95EC01C095EE11
:104BF0009093BC009091D5059230E1F39091D3054C
:104C00009F3F79F08091D305803241F08091D305A8
:104C1000803331F084E005C081E003C082E001C050
:104C200083E010928C051092AE0510928B050895CA
:104C300080910607E0910707F0910807F8949181A9
:104C4000982B91832281982F909529232283A7E086
:104C5000B0E01197F1F7218192239183A3E2B0E0B4
:104C60001197F1F790817894EFECF0E03197F1F73C
:104C7000982381E009F480E008950F931F93CF9368
:104C8000DF9308E010E0D1E0C0E00E941826811117
:104C9000CD2BDD0F01501109C1F78C2FDF91CF9182
:104CA0001F910F91089590910607E0910707F091E9
:104CB0000807392F309580FF13C0F8942281832F85
:104CC000822382838181892B8183A3E2B0E01197C3
:104CD000F1F78281982B9283789487ED90E012C04F
:104CE000F8942281832F822382838181892B81837F
:104CF000AFEFB0E01197F1F78281982B928378940F
:104D00008FE090E00197F1F70895CF93DF93CDB74F
:104D1000DEB7C155D1090FB6F894DEBF0FBECDBFC7
:104D2000789484B5826084BD84B5816084BD85B586
:104D3000826085BD85B5816085BD80916E00816092
:104D400080936E0010928100809181008260809338
:104D5000810080918100816080938100809180003A
:104D60008160809380008091B10084608093B10065
:104D70008091B00081608093B00080917A0084605F
:104D800080937A0080917A00826080937A0080918B
:104D90007A00816080937A0080917A0080688093A5
:104DA0007A001092C1001092D7051092D605109289
:104DB0008C051092AE051092D50581E08093D40544
:104DC0001092CF0561E082E10E94221261E083E14E
:104DD0000E9422128091B9008E7F8093B900809149
:104DE000B9008D7F8093B90088E48093B80085E492
:104DF0008093BC00E0911606F091170682E0808354
:104E0000E0911206F09113061082E0911406F091E1
:104E1000150680E1808310921E06E0911A06F0913B
:104E20001B0686E08083E0911806F09119068081C8
:104E300080618083E0911806F09119068081886076
:104E40008083E0911806F091190680818068808344
:104E5000E0911806F091190680818F7D808381E0B2
:104E600090E00E94AA1A8C3019F088E190E002C00C
:104E70008CE090E0909352018093510180E090E0AB
:104E80000E94AA1A882321F081E08093300102C099
:104E90001092300182E090E00E94AA1A8F3F29F41C
:104EA00010924A011092490105C090E090934A0186
:104EB0008093490183E090E00E94AA1A8F3F29F471
:104EC00010924C0110924B0105C090E090934C0160
:104ED00080934B0184E090E00E94AA1A8F3F29F44E
:104EE00010924E0110924D0105C090E090934E013A
:104EF00080934D0186E090E00E94AA1A8F3F29F42A
:104F00001092500110924F0105C090E09093500113
:104F100080934F0187E090E00E94AA1A8F3F19F416
:104F20001092A90406C091E0811101C090E0909315
:104F3000A9048BE090E00E94AA1A8F3F29F41092F6
:104F400054011092530105C090E090935401809356
:104F5000530189E891E00E94C92480915301909106
:104F600054010E9439258CE090E00E946B2F6096DE
:104F70008FAF60978DE090E00E946B2F61968FAFAE
:104F800061978CE090E00E94AA1A8F3F29F410925A
:104F900056011092550108C061968EAD9FAD619784
:104FA000909356018093550180E891E00E94C924B6
:104FB00080915501909156010E9439258EE090E034
:104FC0000E94AA1A8F3F29F090E0909342018093AB
:104FD000410161E089E00E94521261E086E00E9496
:104FE000521261E083E00E9452128091AA04833041
:104FF00008F083C092E090930406E82FF0E0EA50B6
:10500000FF4FE491E09305068F5F8093AA04E1309F
:1050100031F1E23009F44AC0E11172C014BC15BC90
:1050200084B5826084BD85B5816085BD80910406AC
:1050300090E0FC01ED53FE4FE491F0E0EE0FFF1F16
:10504000E451FF4F259134913093980420939704B5
:10505000FC01E952FE4FE491E093960451C0109296
:10506000800010928100809181008860809381008F
:10507000809181008160809381008091040690E09E
:10508000FC01ED53FE4FE491F0E0EE0FFF1FE45101
:10509000FF4F259134913093950420939404FC01A3
:1050A000E952FE4FE491E09393042AC01092B000BD
:1050B0001092B1008091B00082608093B000809126
:1050C000B10081608093B1008091040690E0FC0102
:1050D000ED53FE4FE491F0E0EE0FFF1FE451FF4F60
:1050E000259134913093920420939104FC01E9526C
:1050F000FE4FE491E093900403C08FEF8093050688
:1051000080912E0190912F010E94522190932F01A6
:1051100080932E0161E08AE00E94521261E088E0F3
:105120000E94521260E088E00E9422121FB7F89499
:105130008091AB04811127C0EDECF1E08491E1EEA8
:10514000F1E09491E82FF0E0EE0FFF1FE750FF4FE2
:10515000A591B491EC91E92321F461E08AE00E94E9
:10516000221261E08AE00E9452128CB580618CBDEF
:105170008CB580648CBD61E08DE00E94521261E0CC
:105180008BE00E9452128091AB048F5F8093AB043E
:105190001FBF8CB5837F88608CBD8CB58C7F816090
:1051A0008CBD8DB581608DBD62E08EE00E94521293
:1051B00062E080E10E94521262E08FE00E9452128F
:1051C00061E082E00E94521204E110E020E030E051
:1051D0000093E4061093E5062093E6063093E70675
:1051E0004EE150E060E070E04093E8065093E9063D
:1051F0006093EA067093EB0680ED97E0A0E0B0E0E4
:105200008093EC069093ED06A093EE06B093EF0624
:105210000093CB061093CC062093CD063093CE0698
:105220004093CF065093D0066093D1067093D20678
:105230008093D3069093D406A093D506B093D60658
:105240000093B2061093B3062093B4063093B506CC
:105250004093B6065093B7066093B8067093B906AC
:105260008093BA069093BB06A093BC06B093BD068C
:1052700080911307811104C00E94E60D811113C0B3
:1052800010921107109213071092120788E691E00E
:105290000E94EA241092110710921307109212072D
:1052A000E1E1F7E056C080EF0E94BC0D01E0F12C77
:1052B000E12C11E00E94182662968FAF62970E943F
:1052C000182662969FAD6297913019F48130C1F42F
:1052D00035C02F2D30E098131DC08091110718178D
:1052E00038F4F901EA5FF84F8381802349F402C062
:1052F000181731F090E0193060F41093120709C0CC
:10530000EF2DF0E0EA5FF84F8381802B838391E0FB
:1053100009C0E12EF901EA5FF84F2381802F8095C3
:1053200082238383892F0E9453261F5F000F11F46D
:10533000F39401E027E02F1508F0BCCF113408F4F6
:105340009FCFE0921107E1103BC281E080931307E9
:1053500037C2129287E0E930F807D9F78091A804A4
:10536000882309F451C00E94E60D85E50E94BC0D1A
:105370000CEB14E058E0F52EF00EF80181918F014E
:105380000E94BC0DF012F9CF8EEB0E94BC0D00EB19
:1053900014E049E0F42EF00E0E943D26F8018193BE
:1053A0008F01FE12F9CF6091B10470E0762F66276D
:1053B0008091B004682B072E000C880B990B0E947B
:1053C0004E2E20E030E040E85DE30E94AD2E6B0100
:1053D0007C010E94B1307093AF046093AE0426E666
:1053E00036E646EE5FE3C701B6010E94AD2E20E02F
:1053F00030E040E052E40E94D32F0E94B13070931D
:10540000AD046093AC0404C01092AF041092AE04DB
:1054100089E391E00E94C92425E030E042E050E0B9
:1054200064E177E0CE0101967C010E94C10E22E08A
:1054300030E041E050E064E177E0CE01875B9F4FD0
:105440000E94C10EBE01675B7F4FCE018D5B9F4FF7
:105450000E9483116BE373E0CE018D5B9F4F0E942E
:10546000BF10B7010E94D8100E94A10ECE018D5B23
:105470009F4F0E945211CE01875B9F4F0E94521195
:10548000C7010E94521186E293E00E94B72480E196
:1054900093E00E94B7248EE291E00E94EA2480917A
:1054A0002E0190912F0190939A04809399040E9469
:1054B00052216FEF70E089E00E948E1268EE73E077
:1054C00080E090E00E94121360E070E089E00E94AA
:1054D0008E126FEF70E086E00E948E1268EE73E02D
:1054E00080E090E00E94121360E070E086E00E948D
:1054F0008E126FEF70E083E00E948E1268EE73E010
:1055000080E090E00E9412138DE393E00E94B724A4
:1055100080911A0790911B07009711F48EE197E094
:10552000F701E81BF90BCF010E94392569E473E00C
:10553000C7010E948C1160E573E0CE0107960E94BE
:105540008C1167E573E0CE010D960E948C116EE51B
:1055500073E0CE0143960E948C1165E673E0CE01A4
:1055600049960E948C116CE673E0CE014F960E9422
:105570008C1163E773E0CE0185960E948C116AE777
:1055800073E0CE018B960E948C1161E873E0CE012E
:10559000C1960E948C1168E873E0CE01C7960E9404
:1055A0008C1162E173E0CE01CD960E948C1164E112
:1055B00077E0CE01CD960E94021186E291E00E9432
:1055C000C9248091AE049091AF040E9439250E94B5
:1055D0004C134B015C01F8EE8F0EF3E09F1EA11CF3
:1055E000B11C00E01FEF94EFC92EDD24D39426E018
:1055F000722E8FE00E94F911892B09F401E080E1FD
:105600000E94F911892B09F400E00E944C13DC017F
:10561000CB0188199909AA09BB0996010D2C000C28
:10562000440B550B281739074A075B07E8F40E941B
:105630004C134B015C01011101C01F5F1A3019F0BE
:105640001B3029F414C088EBC82E8BE0D82EB7018C
:10565000719E600D711D11248AEF96E00E94021167
:105660008AEF96E00E94A10E0E94AC1AC2CF81E0A0
:1056700080938B0588E68093AD0510928C0510927F
:10568000AE0561E183EA96E00E9472180E94BB2594
:1056900082E090E00E94722583EA96E00E9426183C
:1056A000182F82E191E00E94C924812F012E000C65
:1056B000990B0E9439251550183340F48CE191E084
:1056C0000E94EA248E010D5B1F4F18C083E091E019
:1056D0000E94EA2405E010E048EE53E060E070E04C
:1056E00088EE93E00E94DE2260ED77E080E090E0BB
:1056F0000E9412130150110979F7E0CF06501109E9
:10570000C8010E9452110E151F05C1F78091A9040E
:1057100081110E94CE1F0E944E220091A60410917A
:10572000A7040E944C136B017C0181E08093A504C7
:1057300011278091A6049091A70408171907A9F4CE
:105740000E944E220E944C13DC01CB018C199D0952
:10575000AE09BF09893B9B40A105B10550F38CE41C
:1057600091E00E94EA241092A5048090A304F09096
:10577000A4049090A1041091A204A0909F043091E1
:10578000A004B090A6045091A704C0909D0470910D
:105790009E04D0909B04E82C092D2A2D4B2D6C2DB6
:1057A0008D2D90919C040E94EE142A2D4B2D6C2D72
:1057B0008D2D0E941D0E0E94E5010E940410FBCF5A
:1057C00080910907882309F45BCDA9E0B7E0ECEBF1
:1057D000F4E08D91819334E0E43CF307D1F781E06C
:1057E0008093A804BBCD8AEF96E00E94521180E01E
:1057F00097E00E94521184E197E00C9452111092AC
:1058000009061092080688EE93E0A0E0B0E08093CD
:105810000A0690930B06A0930C06B0930D0627EE94
:1058200032E0309307062093060625EC30E03093F3
:1058300013062093120624EC30E0309315062093D3
:10584000140620EC30E0309317062093160621EC66
:1058500030E0309319062093180622EC30E03093A4
:105860001B0620931A0626EC30E030931D06209389
:105870001C0610921F06109220061092210610920C
:1058800022061092A6061092A5068093A706909372
:10589000A806A093A906B093AA0689EF92E0909378
:1058A000A4068093A30666E274E084E197E00E9478
:1058B0008C1160E081E10E945212E8EEF1E0E49187
:1058C000E0930607E4EDF1E0E491F0E0EE0FFF1F56
:1058D000E754FE4F859194919093080780930707B2
:1058E000109211071092130710921207E1E1F7E0EE
:1058F000129287E0E930F807D9F762E173E080E0BF
:1059000097E00E948C1169E473E08AEF96E00E94B0
:105910008C1121E040E06EE081EE96E00E942F19AC
:1059200021E040E060E188EC96E00E942F1921E040
:1059300040E06FE08FEA96E00C942F19CF93DF934D
:105940008230910510F482E090E0E0911C07F09124
:105950001D0720E030E0C0E0D0E0309711F1408139
:10596000518148175907C0F04817590761F48281DF
:105970009381209719F09B838A832BC090931D07F6
:1059800080931C0726C02115310519F042175307D3
:1059900018F49A01BE01DF01EF010280F381E02DCE
:1059A000DCCF2115310509F1281B390B24303105D5
:1059B00090F412968D919C9113976115710521F0C9
:1059C000FB019383828304C090931D0780931C077F
:1059D000FD01329644C0FD01E20FF31F81939193C4
:1059E000225031092D933C933AC020911A073091EF
:1059F0001B07232B41F4209160013091610130930A
:105A00001B0720931A0720915E0130915F01211539
:105A1000310541F42DB73EB74091620150916301C9
:105A2000241B350BE0911A07F0911B07E217F307CF
:105A3000A0F42E1B3F0B2817390778F0AC014E5FFE
:105A40005F4F2417350748F04E0F5F1F50931B0719
:105A500040931A078193919302C0E0E0F0E0CF01F8
:105A6000DF91CF9108950F931F93CF93DF9300970A
:105A700009F48CC0FC0132971382128200911C073A
:105A800010911D070115110581F420813181820FCC
:105A9000931F20911A0730911B072817390779F5B2
:105AA000F0931B07E0931A0771C0D80140E050E063
:105AB000AE17BF0750F412962D913C911397AD018C
:105AC0002115310509F1D901F3CF9D01DA013383A5
:105AD000228360817181860F971F8217930769F473
