:020000040000FA
:100000000C94AC000C94D4000C94D4000C94D40048
:100010000C94D4000C94D4000C94D4000C94D418F8
:100020000C94D4000C94D4000C94D4000C94231998
:100030000C94D4000C94D4000C947E190C94D4002D
:100040000C948A180C94D4000C9458180C94321800
:100050000C94D4000C94D4000C94D4000C94D400D0
:100060000C94D9190C94D40057616B652075702CD1
:10007000204E656F2100000000080002010000030F
:100080000407000000000000000000000000250040
:1000900028002B0002010000000000240027002A95
:1000A000004661756C747920525443210054656D8B
:1000B00070203D20004669726D776172652076651B
:1000C0007273696F6E3A20005761726E696E6721B4
:1000D0002052544320444F4E275420524553504FF2
:1000E0004E44210054656D702E2073656E736F72DF
:1000F000206E6F7420666F756E642E00496E636F9C
:10010000727265637420536F6E6720466F726D6103
:100110007421005247423D6F6666005247423D6F70
:100120006E000000000023002600290004040404DF
:100130000404040402020202020203030303030391
:10014000010204081020408001020408102001026E
:1001500004081020311B2C2D11241FBECFEFD8E036
:10016000DEBFCDBF14E0A0E0B1E0E0EAF5E602C0FA
:1001700005900D92AC32B107D9F727E0ACE2B4E0BC
:1001800001C01D92AB31B207E1F710E0CBEAD0E03D
:1001900004C02197FE010E94D431CA3AD107C9F7A1
:1001A0000E94C21B0C94C3320C9400008CBD9DBDF8
:1001B000089580910307E0910407F0910507F894F2
:1001C0009181982B91832281382F3095232322838C
:1001D000A7E0B0E01197F1F7918193239183A3E217
:1001E000B0E01197F1F790817894EFECF0E031975F
:1001F000F1F7982381E009F480E008950F931F93AD
:10020000CF93DF9308E010E0C0E0D1E00E94D90076
:100210008111CD2BDD0F01501109C1F78C2FDF911A
:10022000CF911F910F91089590910307E0910407DA
:10023000F0910507292F209580FF14C0F894828142
:10024000822382838181892B8183A3E2B0E011978D
:10025000F1F78281982B9283789487ED90E0019753
:10026000F1F70895F8948281822382838181892B1A
:100270008183AFEFB0E01197F1F78281982B9283E1
:1002800078948FE090E0EBCF0F931F93CF93DF93A1
:10029000082FC8E0D0E011E081E0902F912309F40D
:1002A00080E00E941401110F2197B1F7F894E091BA
:1002B0000407F091050791818091030780959823A9
:1002C0009183E0910407F09105079281892382834D
:1002D0007894DF91CF911F910F910895809103073A
:1002E000E0910407F0910507F8949181282F20955B
:1002F0009223918378943DE743E050E0315029F117
:10030000DA011197F1F790819823C1F3F894928163
:10031000922392839181982B91837894ABE7B7E0F5
:100320001197F1F7F894918192239183A3E1B1E0C1
:100330001197F1F79081982381E009F080E078949B
:10034000E3E6F6E03197F1F7089580E0089591E053
:100350009093D1058093F3051092D2051092F40585
:100360000895089508950895AF92BF92CF92DF92B5
:10037000EF92FF920F931F93CF93DF936C017B015A
:100380008B01040F151FEB015E01AE18BF08C017EB
:10039000D10759F06991D601ED91FC910190F0815E
:1003A000E02DC6010995892B79F7C501DF91CF9121
:1003B0001F910F91FF90EF90DF90CF90BF90AF9083
:1003C0000895FC01538D448D252F30E0842F90E05B
:1003D000821B930B541710F0CF9608950197089540
:1003E000FC01918D828D981761F0A28DAE0FBF2F09
:1003F000B11D5D968C91928D9F5F9F73928F90E05F
:1004000008958FEF9FEF0895FC01918D828D9817CD
:1004100031F0828DE80FF11D858D90E008958FEF0A
:100420009FEF0895FC01918D228D892F90E0805CD3
:100430009F4F821B91098F739927089583E096E05F
:100440000E94120221E0892B09F420E0822F0895F6
:1004500080E090E0892B29F00E941E0281110C940B
:1004600000000895FC01A48DA80FB92FB11DA35A57
:10047000BF4F2C91848D90E001968F739927848FC4
:10048000A689B7892C93A089B1898C9183708064E7
:100490008C93938D848D981306C00288F389E02D88
:1004A00080818F7D80830895EF92FF920F931F9339
:1004B000CF93DF93EC0181E0888F9B8D8C8D981317
:1004C0001AC0E889F989808185FF15C09FB7F89423
:1004D000EE89FF896083E889F9898081837080646F
:1004E00080839FBF81E090E0DF91CF911F910F91BA
:1004F000FF90EF900895F62E0B8D10E00F5F1F4FC9
:100500000F731127E02E8C8D8E110CC00FB607FCD7
:10051000FACFE889F989808185FFF5CFCE010E9465
:100520003202F1CFEB8DEC0FFD2FF11DE35AFF4F9F
:10053000F0829FB7F8940B8FEA89FB8980818062F3
:10054000CFCF0F931F93CF93DF938C01D0E0C0E008
:10055000F801EC0FFD1F6491662341F083E096E003
:100560000E945402892B11F02196F2CFCE01DF9127
:10057000CF911F910F910895CF93DF93EC01888D58
:100580008823B9F0AA89BB89E889F9898C9185FD0E
:1005900003C0808186FD0DC00FB607FCF7CF8C919C
:1005A00085FFF2CF808185FFEDCFCE010E94320220
:1005B000E9CFDF91CF910895833081F028F4813025
:1005C00099F08230A9F008958730A9F08830C9F0F9
:1005D0008430B1F4809180008F7D03C080918000D1
:1005E0008F7780938000089584B58F7784BD0895B8
:1005F00084B58F7DFBCF8091B0008F778093B00062
:1006000008958091B0008F7DF9CFCF93DF93282F8D
:1006100030E0F901EA58FF4F8491F901E05CFE4FA8
:10062000D491F901E45DFE4FC491CC23A1F0811176
:100630000E94DC02EC2FF0E0EE0FFF1FEE5DFE4F9C
:10064000A591B491EC91ED2381E090E009F480E074
:10065000DF91CF91089580E090E0FACF1F93CF9380
:10066000DF93282F30E0F901EA58FF4F8491F90118
:10067000E05CFE4FD491F901E45DFE4FC491CC23C0
:10068000A9F0162F81110E94DC02EC2FF0E0EE0F92
:10069000FF1FE657FF4FA591B4918FB7F894EC91E7
:1006A000111108C0D095DE23DC938FBFDF91CF916D
:1006B0001F910895DE2BF8CFCF93DF9390E0FC01DC
:1006C000E05CFE4F2491845D9E4FFC018491882361
:1006D000C9F090E0880F991FFC01E956FF4FA591E2
:1006E000B491FC01E657FF4FC591D49161110DC043
:1006F0009FB7F8948C91209582238C93888128232E
:1007000028839FBFDF91CF910895623051F49FB746
:10071000F8943C91822F809583238C93E8812E2B33
:10072000EFCF8FB7F894EC912E2B2C938FBFEACF9D
:100730004F925F926F927F928F929F92AF92BF92F1
:10074000CF92DF92EF92FF920F931F93CF93DF939D
:1007500000D000D01F92CDB7DEB72091020627FD52
:100760002CC149835A836B837C838C0161E0809127
:1007700001060E945C03809102068D834801B12C22
:10078000A12C8D7F09F031C160E072E18AE790E031
:10079000A50198010E94B53129013A017A01690148
:1007A00091E0C91AD108E108F108AFEFCA16D104E7
:1007B000E104F10409F00CF4C7C060E472E48FE0D6
:1007C00090E0A50198010E94B53169017A01B1E07C
:1007D000CB1AD108E108F1088D81823009F06AC096
:1007E00082E09FEFC916D104E104F10409F00CF492
:1007F0005EC160E970ED83E090E0A50198010E9480
:10080000B53169017A01A1E0CA1AD108E108F108FD
:1008100083E0BFEFCB16D104E104F10409F00CF43E
:1008200046C168E478EE81E090E0A50198010E945D
:10083000B53169017A0181E0C81AD108E108F108EF
:1008400084E09FEFC916D104E104F10409F00CF42F
:100850002EC164E274EF80E090E0A50194010E9453
:10086000B53169017A01B1E0CB1AD108E108F1088C
:1008700085E09FEFC916D104E104F10409F008F402
:1008800016C162E17AE780E090E0A50194010E9440
:10089000B53169017A01B1E0CB1AD108E108F1085C
:1008A0008FEFC816D104E104F10411F008F0F0C094
:1008B00086E0FDC08FEFC816D104E104F10409F011
:1008C0000CF491C068E478EE81E090E0A501980115
:1008D0000E94B53169017A0191E0C91AD108E10895
:1008E000F108AD8184E0A111C4CF83E0AFEFCA1657
:1008F000D104E104F10461F15CF162E17AE780E0A6
:1009000090E0A50194010E94B53169017A0181E06E
:10091000C81AD108E108F10884E09FEFC916D10494
:10092000E104F104A9F0A0F0730162019AE0F594EA
:10093000E794D794C7949A95D1F7A1E0CA1AD10841
:10094000E108F10885E004C081E0AD81A111AFC0EC
:1009500095B5987F892B85BD89819A81AB81BC81B2
:100960002FEF3FEFA901892B8A2B8B2B79F0D80130
:10097000AA0FBB1F29813A814B815C810E940830FC
:1009800028EE33E040E050E00E9493319D819130A9
:1009900009F45CC0923009F46BC091110EC0C7BC61
:1009A0002093FD053093FE054093FF05509300060C
:1009B00080916E00826080936E000F900F900F9078
:1009C0000F900F90DF91CF911F910F91FF90EF90BB
:1009D000DF90CF90BF90AF909F908F907F906F905F
:1009E0005F904F90089582E0B0CF60E072E18AE7B7
:1009F00090E0A50198010E94B53169017A01B1E04A
:100A0000CB1AD108E108F10891E0C114D10481E0CA
:100A1000E806F10484F068E478EE81E090E0A50156
:100A200098010E94B53169017A0191E0C91AD10893
:100A3000E108F10893E0AD81A13009F08DCF8091FC
:100A40008100887F892B8093810086CFD092890096
:100A5000C09288002093F9053093FA054093FB0576
:100A60005093FC0580916F00826080936F00A5CF4A
:100A7000C092B3002093F5053093F6054093F70537
:100A80005093F8058091700082608093700095CF3C
:100A9000730162018AE0F594E794D794C7948A952C
:100AA000D1F7B1E0CB1AD108E108F10887E09091C5
:100AB000B100987F892B8093B1004ECF1F93CF93C5
:100AC000DF93182FEB0161E00E945C03209739F45B
:100AD00060E0812FDF91CF911F910C942E03CF3FC7
:100AE000D10511F461E0F5CFE12FF0E0EA58FF4FB6
:100AF000E491E33031F140F4E130B1F0E230E1F083
:100B0000C038D1057CF7E4CFE73029F1E83059F15E
:100B1000E430B1F780918000806280938000D093B0
:100B20008B00C0938A0004C084B5806884BDC7BDB3
:100B3000DF91CF911F91089584B5806284BDC8BDB7
:100B4000F7CF80918000806880938000D0938900E7
:100B5000C0938800EDCF8091B00080688093B00092
:100B6000C093B300E5CF8091B00080628093B00065
:100B7000C093B400DDCF3FB7F8948091D704909133
:100B8000D804A091D904B091DA0426B5A89B05C079
:100B90002F3F19F00196A11DB11D3FBFBA2FA92FFC
:100BA000982F8827BC01CD01620F711D811D911DF9
:100BB00042E0660F771F881F991F4A95D1F7089565
:100BC0008F929F92AF92BF92CF92DF92EF92FF925D
:100BD0004B015C010E94BB056B017C010E94BB05BF
:100BE0006C197D098E099F09683E73408105910546
:100BF000A8F321E0821A9108A108B10888EEC80E76
:100C000083E0D81EE11CF11C81149104A104B104FD
:100C100029F7FF90EF90DF90CF90BF90AF909F901B
:100C20008F9008952FB7F8946091D3047091D404F5
:100C30008091D5049091D6042FBF08956093C70486
:100C40007093C8048093C9049093CA04645D7E4F76
:100C50008F4F9F4F6093C3047093C4048093C50467
:100C60009093C60482E090E09093C2048093C10404
:100C70000E9412066093BD047093BE048093BF046B
:100C80009093C00408952F923F924F925F926F927B
:100C90007F928F929F92AF92BF92CF92DF92EF920C
:100CA000FF920F931F93CF93DF93382E962E842EAF
:100CB000222E84E6E816F1040CF459C092EBE91AEE
:100CC00097E0F90AE092D1040093D0042092CF0477
:100CD0003092CD049092CC048092CB04AE2DB0E043
:100CE00020E833E341EE51E00E9408302B013C0143
:100CF00022EB37E0FF24E4E6F0E0C0E9D1E0C901EF
:100D0000825B97408E159F05B4F19EE4E91A98EF37
:100D1000F90AC70164E670E00E947F316C01C701E7
:100D200060E971E00E947F315C01CDEDD1E0E1E04E
:100D3000F0E0112783E0E822FF24E017F1070CF030
:100D400042C0E230F10591F5E114F10479F5C114E6
:100D5000D10419F4A114B10449F580E8480E8BE3DD
:100D6000581E86E2681E711C31962196E6CF8EE1F0
:100D7000E80EF11CA7CFC90183709927892B99F43C
:100D8000C901BF010E947F31892B31F4C901BE0125
:100D90000E947F31892B39F490E8490E91E5591E64
:100DA00091E0691E711C2F5F3F4FA9CFA881B0E071
:100DB00020E831E541E050E00E940830460E571E21
:100DC000681E791ED1CF292D30E0ACE3B0E00E943F
:100DD0004A306B017C01C80CD11CE11CF11C232D95
:100DE00030E0A0E1BEE00E944A30C60ED71EE81EE9
:100DF000F91E822D8150990BDC0120E831E541E09C
:100E000050E00E94DA316C0D7D1D8E1D9F1D640D1A
:100E1000751D861D971DDF91CF911F910F91FF903A
:100E2000EF90DF90CF90BF90AF909F908F907F908A
:100E30006F905F904F903F902F900C941E06CF9232
:100E4000DF92EF92FF920F931F930E9412068B0185
:100E50009C01C090BD04D090BE04E090BF04F0900F
:100E6000C0046091C7047091C8048091C904909136
:100E7000CA040C191D092E093F09083E134021051B
:100E80003105E0F0DC01CB010196A11DB11D80937D
:100E9000C7049093C804A093C904B093CA04B701CF
:100EA000A60148515C4F6F4F7F4F4093BD04509354
:100EB000BE046093BF047093C004C7CF1F910F910D
:100EC000FF90EF90DF90CF9008954F925F926F92D6
:100ED0007F928F929F92AF92BF92CF92DF92EF92CA
:100EE000FF920F931F93CF93DF934B015C0180918F
:100EF000B9049091BA04A091BB04B091BC048815C8
:100F00009905AA05BB0509F4C6C08CE3C82ED12CEF
:100F1000E12CF12CC501A70196010E949331609349
:100F2000CB04CA01B901A70196010E9493316093D5
:100F3000CC04C501B40120E13EE040E050E00E9455
:100F40009331CA01B90128E130E040E050E00E944D
:100F500093316093CD04C501B40120E831E541E04F
:100F600050E00E94933169017A01CA01B9016C5FB6
:100F70007F4F8F4F9F4F27E030E040E050E00E94CE
:100F800093316F5F6093CE04412C512C320140E0CD
:100F900004E610E0C0E9D1E0242F30E02E54384FB1
:100FA000F901E370FF273097F9F4C901B8010E94F5
:100FB0007F31892B31F4C901BE010E947F31892B19
:100FC00099F48EE691E0A0E0B0E0480E591E6A1E4A
:100FD0007B1ED301C201AA27BB27C816D906EA0681
:100FE000FB0638F04F5FD8CF8DE691E0A0E0B0E08F
:100FF000ECCF4093D104C90164E670E00E947F31D8
:10100000EC01C90160E971E00E947F31309721F461
:101010002097D9F40097C9F04DE651E060E070E008
:10102000441A550A660A770AC418D508E608F7086C
:10103000ADEDB1E020E0213069F43097E9F520977B
:1010400011F40097C9F54DE106C04EE651E060E0AD
:1010500070E0E6CF4C9150E070E060E031E0320F9C
:10106000C416D506E606F70640F0C41AD50AE60A05
:10107000F70A1196232F3C30F1F62F5F2093D0040E
:10108000C394C092CF048092B9049092BA04A09203
:10109000BB04B092BC04DF91CF911F910F91FF90E0
:1010A000EF90DF90CF90BF90AF909F908F907F9008
:1010B0006F905F904F9008954CE1CDCF0E941F0735
:1010C0000E9465078091D10490E08E54984F089556
:1010D0000E941F070E9465078091D00490E0089548
:1010E0000E941F070E9465078091CF0490E0089539
:1010F0000E941F070E9465078091CB0490E008952D
:101100000E941F070E9465078091CC0490E008951B
:101110000E941F070E9465078091CD0490E008950A
:10112000CF92DF92EF92FF92CF93DF93EC010E9478
:1011300012066B017C018F850E9405039C0181E0F2
:101140002115310509F480E0898B8889811105C05A
:1011500091E0232B09F090E0998B29898A8928173F
:1011600021F0CD8ADE8AEF8AF88E8D899E89AF893B
:10117000B88DB701A601481B590B6A0B7B0BDB012D
:10118000CA01CB80DC80ED80FE80C816D906EA0655
:10119000FB0664F43A81231749F02A83222349F09D
:1011A0004B895C894F5F5F4F5C8B4B8B3A81311170
:1011B00017C0CF80D884E984FA84C816D906EA0615
:1011C000FB0634F48B899C89998388831C8A1B8A4B
:1011D0002A8BDF91CF91FF90EF90DF90CF90089511
:1011E000CB84DC84ED84FE84C816D906EA06FB06AF
:1011F0007CF78B899C89919581959109E5CF209108
:101200009604260F3327331F21323105ECF4209149
:10121000CB05FC0190E080E0243069F082E0089585
:10122000A09196042191AC014A585B4FA40FB52FB1
:10123000B11D2C930196861798F380919604680F40
:101240006093960480E0089581E008951092CB05A4
:1012500081E08093CA051092A50561E082E10E94B9
:101260002E0361E083E10E942E03E9EBF0E0808130
:101270008E7F808380818D7F808388E48093B80017
:1012800085E48093BC000895CF93DF9391E0909321
:1012900075048823B9F0C091B800D091BA0080914C
:1012A000BC008A7B8093BC0060E082E10E942E0338
:1012B00060E083E10E942E030E942609D093BA00C9
:1012C000C093B800DF91CF910895CF92DF92EF9253
:1012D000FF920F931F93CF93DF93D091F40581E09A
:1012E000D13208F09CC0C091F3050E94BB056B0190
:1012F0007C018091CB0581116CC082E08093CB058D
:1013000081E08093CA058FEF8093C9051092C805CC
:10131000D093C705A3EDB5E0E7EAF5E080E0D81388
:101320008DC01092A6058091A605CC0FC82BC09346
:10133000A6058091A505813009F084C01092A5050D
:101340000E94BB056B017C018091A6058093BB00C8
:101350008091CD059091CE05A091CF05B091D0059B
:10136000892B8A2B8B2BA1F00E94BB050091CD0508
:101370001091CE052091CF053091D0056C197D09D3
:101380008E099F09061717072807390708F442C076
:101390008091BC0083FDD8CF85EC8093BC000E9477
:1013A000BB056B017C018091CB05823009F44CC0F8
:1013B0008091C9058F3F09F469C08091C9058032C9
:1013C00009F466C08091C905803309F463C084E0E4
:1013D00026C08091CD059091CE05A091CF05B0910A
:1013E000D005892B8A2B8B2B09F483CF0E94BB0558
:1013F0000091CD051091CE052091CF053091D005FB
:101400006C197D098E099F090617170728073907E8
:1014100008F06FCF8091CC050E94440985E01092BE
:10142000D2051092F4051092D105DF91CF911F9152
:101430000F91FF90EF90DF90CF9008959D91919341
:101440008F5F6DCF85EEA9CF8091CD059091CE05B0
:10145000A091CF05B091D005892B8A2B8B2B09F455
:10146000A2CF0E94BB050091CD051091CE05209121
:10147000CF053091D0056C197D098E099F0906179B
:1014800017072807390708F08ECFC4CF80E0C7CFF1
:1014900082E0C5CF83E0C3CF0895E09184058091B9
:1014A0008305E81730F4F0E0EB57FA4F808190E0C5
:1014B00008958FEF9FEF08959091840580918305A3
:1014C0002FEF3FEF981748F4E92FF0E0EB57FA4F72
:1014D000208130E09F5F90938405C9010895809139
:1014E000830590918405891B990B0895CF92DF9213
:1014F000EF92FF920F931F93CF93DF937C01CB0169
:101500008A012091D105222389F0EB016B01C40EE1
:10151000D51ECC15DD0569F06991D701ED91FC91DF
:101520000190F081E02DC7010995F3CF642F0E944F
:10153000FF08C801DF91CF911F910F91FF90EF90AD
:10154000DF90CF900895CF93DF931F92CDB7DEB792
:1015500069832091D1052223F9F02091F4052032EE
:1015600058F021E030E0FC013383228390E080E0FA
:101570000F90DF91CF9108958091D205E82FF0E090
:10158000ED52FA4F998190838F5F8093D2058093BB
:10159000F40581E090E0ECCF61E0CE0101960E947D
:1015A000FF08F7CF682F80EA96E00C94A30ADF9239
:1015B000EF92FF920F931F93CF93DF93182FF62E86
:1015C000D42ED22F80915E010E94A70160E080EAB4
:1015D00096E00E94A30ACAE08D2D6C2F0E94733101
:1015E0008295807F682F690F80EA96E00E94A30AA7
:1015F0008F2D6C2F0E9473318295807F682F690F29
:1016000080EA96E00E94A30A812F6C2F0E9473311A
:101610008295807F682F690F80EA96E00E94A30A76
:1016200061E080EA96E00E94A30A8D2F6C2F0E9451
:1016300073318295807F682F690F80EA96E00E945F
:10164000A30A802F6C2F0E9473318295807F682FB0
:10165000690F80EA96E00E94A30A8E2D6C2F0E94EB
:1016600073318295807F682F690F80EA96E00E942F
:10167000A30A60E080EA96E00E94A30ADF91CF917E
:101680001F910F91FF90EF90DF900C94650990E00F
:1016900080E00895CF92DF92EF92FF920F931F9315
:1016A000CF93DF9390911101992309F478C0909121
:1016B0000E01992309F473C0082FC0916A05D091D7
:1016C0006B0580916D0481110DC00E94120660931C
:1016D000690470936A0480936B0490936C0481E0B6
:1016E00080936D040E941206C0906904D0906A0431
:1016F000E0906B04F0906C046C197D098E099F09D1
:101700006D32714081059105B0F0109168040E941E
:1017100012066093690470936A0480936B0490933B
:101720006C0491E0912790936804992369F11092D9
:101730006704109266042091660430916704209536
:10174000309580916505282326FF23C081E0809392
:10175000650427FF21C081E08093640480916804C0
:101760008823E9F002C0D595C7950A95E2F7C0FF36
:1017700016C080E09CEFDF91CF911F910F91FF90F9
:10178000EF90DF90CF900895D0936704C0936604E4
:10179000D2CF10926504DDCF10926404DFCF8FEFBB
:1017A0009FEFE9CFCF92DF92EF92FF921F93CF93FB
:1017B000DF93C0915E04D0915F04C830D10580F4FE
:1017C000182FFE01EA51F44F0C94D431EE0B090CA2
:1017D0000D0CEE0B090C0F0C110C160C0E946E0177
:1017E0002196C830D10509F46DC0D0935F04C09331
:1017F0005E04609158047091590480915A0490914C
:101800005B04DF91CF911F91FF90EF90DF90CF901D
:1018100008958CEC0E944401E3CF84E4FBCF8EEB6F
:10182000F9CF0E94FE0080935C04DACF0E94FE0094
:1018300080935D0460915C04782F6F3F760711F40C
:1018400070E060E0072E000C880B990B0E94D52EEB
:1018500020E030E040E85DE30E94342F6B017C0122
:101860006091360170913701072E000C880B990B9F
:101870000E94D52E20E030E040E251E40E94C630C4
:10188000A70196010E945A3011110FC020E030E0EC
:1018900040E251E40E94342F60935804709359043D
:1018A00080935A0490935B049BCF26E636E646EE7F
:1018B0005FE30E94342F20E030E040E052E40E94D9
:1018C0005A30E4CF10925F0410925E0492CFCF930F
:1018D000DF93EC012196FC0120812A33C9F4218198
:1018E000243609F5229630E020E06AE0899190EDF7
:1018F000980F9A3078F4629FA001639F500D1124D5
:10190000082E000C990BC0979A01280F391FEECFB3
:10191000CE01DFCF3093080520930705211531054F
:1019200011F02093060188818F3689F48A81082E70
:10193000000C990B9C01205331093093080520932A
:101940000705C397059710F4209305012496888115
:101950008236F1F4229630E020E06AE0899190ED41
:10196000980F9A3068F4629FA001639F500D112474
:10197000082E000C990BC0979A01280F391FEECF43
:10198000309308052093070530930101209300014F
:101990002091000130910101032E000C440B550BE6
:1019A00060E67AEE80E090E00E94B53182E0220F9E
:1019B000331F441F551F8A95D1F720930305309399
:1019C00004054093050550930605CE01DF91CF91A4
:1019D00008958EBD00000DB407FEFDCF8EB50895AD
:1019E0008F929F92AF92BF92CF92DF92EF92FF922F
:1019F0000F931F93CF93DF937C01D62F0E94BB05DB
:101A00004B015C018091CB05811167C0CD2F81E036
:101A10008093CB058093CA059FEF9093C9051092E0
:101A2000C8059D0F9093C7058093A6058091A605D4
:101A3000EE0CFF1C8E298093A6058091A5058130B0
:101A400009F083C01092A5050E94BB056B017C01C3
:101A50008091A6058093BB008091CD059091CE0525
:101A6000A091CF05B091D005892B8A2B8B2BA1F0AB
:101A70000E94BB058090CD059090CE05A090CF052B
:101A8000B090D0056C197D098E099F0986169706BE
:101A9000A806B90608F442C08091BC0083FDD8CFE7
:101AA00085EC8093BC000E94BB056B017C0180919A
:101AB000CB05813009F44BC08091C8058D1710F417
:101AC000C091C805E7EAF5E0A5E8B5E080E08C172D
:101AD00051F191919D938F5FFACF8091CD059091B7
:101AE000CE05A091CF05B091D005892B8A2B8B2BE9
:101AF00009F488CF0E94BB050091CD051091CE0559
:101B00002091CF053091D005681979098A099B0980
:101B1000061717072807390708F074CF8091CC05FE
:101B20000E944409C0E010928405C09383058C2F65
:101B3000DF91CF911F910F91FF90EF90DF90CF90A9
:101B4000BF90AF909F908F90089585EEAACF80911F
:101B5000CD059091CE05A091CF05B091D005892BF0
:101B60008A2B8B2B09F4A3CF0E94BB058090CD0557
:101B70009090CE05A090CF05B090D0056C197D094E
:101B80008E099F0986169706A806B90608F08FCF1A
:101B9000C5CFCF93C0915E018C2F0E94A70160E05A
:101BA00080EA96E00E94A30A0E94650967E070E05F
:101BB0008C2F90E00E94F00C80EA96E00E945C0A74
:101BC000982F92959F70CAE08F709C9F800D112472
:101BD00090E090937B0580937A0580EA96E00E94DE
:101BE0005C0A982F92959F708F709C9F800D112496
:101BF00090E0909379058093780580EA96E00E94C2
:101C00005C0A982F929593708F709C9F800D112481
:101C100090E0909377058093760580EA96E00E94A5
:101C20005C0A80EA96E00E945C0A982F92959F7069
:101C30008F709C9F800D112490E090937D05809380
:101C40007C0580EA96E00E945C0A982F92959F702E
:101C50008F709C9F800D112490E090937F0580935E
:101C60007E0580EA96E00E945C0A982F92959F700C
:101C70008F709C9F800D112490E09093810580933C
:101C80008005CF910895FC0101900020E9F731977C
:101C9000AF01481B590BBC0183E096E00C94B401E2
:101CA000CF93DF930E94A102EC0185E093E00E94B4
:101CB000430E8C0F9D1FDF91CF9108950F931F93BB
:101CC0008091300190913101892B09F44DC08091B0
:101CD00030048823A9F00E94120600912C04109170
:101CE0002D0420912E0430912F04601B710B820B68
:101CF000930B693E734081059105B0F11092300459
:101D00000E94880820912A0130912B0182179307A5
:101D100059F50E94800820912C0130912D018217E5
:101D2000930711F50E94780820912E0130912F0120
:101D300082179307C9F40E94120660932C047093D3
:101D40002D0480932E0490932F0481E0809330041F
:101D500088E690E00E94500E80910301909104016A
:101D600090937505809374051F910F9108958F923C
:101D70009F92AF92BF920F931F93CF93DF93CDB7F4
:101D8000DEB7A1970FB6F894DEBF0FBECDBF19A284
:101D9000423008F44AE08E010F5D1F4F842E912CD3
:101DA000B12CA12CA50194010E949331E62FB90119
:101DB000CA01EA30F4F4E05DD801EE938D01232BE3
:101DC000242B252B79F790E080E0109719F0CD01B6
:101DD0000E94430EA1960FB6F894DEBF0FBECDBF92
:101DE000DF91CF911F910F91BF90AF909F908F90F7
:101DF0000895E95CE1CFCF92DF92EF92FF92CF930B
:101E0000DF936C01990FEE08FF08F7FE1FC06DE22B
:101E100083E096E00E945402EC0166277727CB010D
:101E20006C197D098E099F094AE00E94B70EC80F00
:101E3000D91F85E093E00E94430E8C0F9D1FDF9118
:101E4000CF91FF90EF90DF90CF9008954AE0C701C7
:101E5000B6010E94B70EEC01ECCFCF93DF93FC01EB
:101E6000448155816081718183E096E00E94B401D4
:101E7000EC0185E093E00E94430E8C0F9D1FDF91E3
:101E8000CF9108950C94FA2F0C94F22F88E090E0F3
:101E90000E94440F682F70E089E00E945E0589E08F
:101EA00090E00E94440F682F70E086E00E945E057B
:101EB0008AE090E00E94440F682F70E083E00C9469
:101EC0005E05FC0180819181009711F00C945D2EDC
:101ED00060E070E0CB0108950F931F93CF93DF93E1
:101EE0008C01EB01FC01808191810097E1F0688118
:101EF000798161157105A9F0428153812C813D8161
:101F00004217530770F00E94BC328C819D81F8010A
:101F1000958384831D821C82DF91CF911F910F9145
:101F200008950E94D42D88819981F801918380833E
:101F30008A819B81938382838C819D819583848315
:101F4000198218821B821A82E5CFCF93DF93EC01AE
:101F500088819981009711F00E94D42D19821882EE
:101F60001D821C821B821A82DF91CF910895FC0191
:101F700080819181009711F00C94D42D08950F93D6
:101F80001F93CF93DF93EC0188819981009759F0DB
:101F90002A813B812617370730F081E0DF91CF910E
:101FA0001F910F9108958B016F5F7F4F0E94F63153
:101FB000009759F0998388831B830A832C813D8184
:101FC000232B59F7FC011082E8CF80E0E7CFEF9296
:101FD000FF920F931F93CF93DF936115710541F427
:101FE00080E0DF91CF911F910F91FF90EF900895C6
:101FF00041155105B1F07B01EC010C811D81040FED
:10200000151FB8010E94BF0F882351F32881398121
:102010008C819D81B701820F931F0E94BC321D836A
:102020000C8381E0DECFCF93DF93EC01FB010190C5
:102030000020E9F73197AF01461B570B0E94E70FCD
:10204000811103C0CE010E94A50FCE01DF91CF9177
:102050000895CF93DF93EC01FB01448155816081AA
:1020600071810E94E70F811103C0CE010E94A50F6C
:10207000CE01DF91CF910895EF92FF920F931F93BE
:10208000CF93DF93EC017B018A01BA010E94BF0F5D
:1020900081110BC0CE010E94A50FCE01DF91CF911F
:1020A0001F910F91FF90EF9008951D830C83B7014E
:1020B000888199810E94BC32F0CFFB010190002001
:1020C000E9F73197AF01461B570B0C943C100F9367
:1020D0001F93CF93DF93CDB7DEB762970FB6F89417
:1020E000DEBF0FBECDBF8C01CB01F8011182108283
:1020F00013821282158214824AE0BE016F5F7F4F05
:102100000E94842EBE016F5F7F4FC8010E945D1048
:1021100062960FB6F894DEBF0FBECDBFDF91CF91B0
:102120001F910F910895CF93DF93EC01FB01861768
:10213000970749F0608171816115710541F0448113
:1021400055810E943C10CE01DF91CF9108950E94ED
:10215000A50FF9CFFC011182108213821282158221
:1021600014820C949310FC0111821082138212824B
:1021700015821482FB0101900020E9F73197AF012D
:10218000461B570B0C943C10AF92BF92CF92DF923C
:10219000EF92FF920F931F93CF93DF936C015B013C
:1021A0007A0189012417350720F48F2D7901042F36
:1021B000182F67E073E0C6010E94B310D501149692
:1021C000CD91DC91EC16FD06E0F40C171D0708F428
:1021D000E801D501ED91FC911197EC0FFD1F1081E5
:1021E00010826D917C916E0D7F1DC6016115710588
:1021F000A1F00E945D10F50180819181C80FD91F67
:102200001883C601DF91CF911F910F91FF90EF903E
:10221000DF90CF90BF90AF9008950E94A50FEBCFB5
:102220004F925F926F927F928F929F92AF92BF92E6
:10223000CF92DF92EF92FF921F93CF93DF93CDB7B0
:10224000DEB72A970FB6F894DEBF0FBECDBF0E944F
:10225000BB05C0906004D0906104E0906204F090EF
:1022600063046C197D098E099F09693873418105E2
:10227000910508F4C2C00E94BB056093600470938E
:102280006104809362049093630410910201A12E73
:10229000B12C123009F4C7C0133009F4CAC0113090
:1022A00029F4412C512CF0E16F2E712C81E0A81AF9
:1022B000B108AA0CBB1C75019FEFE91AF90A970136
:1022C000A50167EF76E0CE0101960E94C410CE0111
:1022D00001960E94610F660F771F67537E4FDB01E7
:1022E0008D919C91B0E0A0E0482A592A6A2A7B2A65
:1022F000CE0101960E94B70F95012E5F3F4FA701B7
:1023000067EF76E0CE0101960E94C410CE010196DF
:102310000E94610F660F771F67537E4FFB01C080DD
:10232000D180C601B0E0A0E08F839887A987BA87E3
:10233000CE0101960E94B70FC5010E944A0B092EDB
:10234000000CAA0BBB0B4C015D0184209520A6203C
:10235000B720C7010E944A0B6C01990FEE08FF08D5
:102360008F819885A985BA85C822D922EA22FB22C5
:102370006AE0CC0CDD1CEE1CFF1C6A95D1F7C82866
:10238000D928EA28FB2880916504882309F457C0DE
:102390006894F0F880916404882309F453C0689429
:1023A000F1F860E08AE00E942E034F2C5524662449
:1023B00077244701AA24BB24BB27AF2D9E2D8D2D4A
:1023C0008F839887A987BA878091EA048823E9F1E7
:1023D0008C2D0E94E90C8F810E94E90C882D0E94AF
:1023E000E90C842D0E94E90C61E08AE00E942E0332
:1023F0001F5F1430A9F1109302012A960FB6F894CA
:10240000DEBF0FBECDBFDF91CF911F91FF90EF9048
:10241000DF90CF90BF90AF909F908F907F906F9004
:102420005F904F900895412C512CE0E26E2E712C5C
:102430003DCF412C512C70E4672E712C37CFE8949E
:10244000F0F8A8CFE894F1F8ACCF842D0E94E90C05
:10245000882D0E94E90C8F810E94E90C8C2DC2CF3F
:1024600081E080930201C9CF4F925F926F927F9279
:102470008F929F92AF92BF92CF92DF92EF92FF9294
:102480000F931F93CF93DF9300D000D000D0CDB730
:10249000DEB77C014B015A018091530581113AC08E
:1024A00081E08093530598E3692E94E0792E22E32E
:1024B000422E24E0522E10E000E00F5F1F4F680113
:1024C00081E0C81AD1089801A601B401CE01019695
:1024D0000E94C410CE0101960E94610FD3016D933A
:1024E0003D01CE0101960E94B70F9801A601B501EA
:1024F000CE0101960E94C410CE0101960E94610F88
:10250000F20161932F01CE0101960E94B70F0630B0
:10251000110599F69091310488E3C82E84E0D82EF5
:10252000E2E3F4E08601A801D8018C919A3008F02A
:102530004DC08F5F8C930F5F1F4FDA018C918A30F3
:1025400019F4D80111971C923196B4E00E331B0791
:1025500051F79F5F943109F43FC09093310467E0D5
:1025600073E0C7010E94B310FE0131965F01D601EE
:102570008D916D014AE0B50190E00E94842EF50135
:1025800001900020E9F73197AF014A195B09B501C5
:10259000C7010E94E70F0C151D0549F7C7012696D4
:1025A0000FB6F894DEBF0FBECDBFDF91CF911F9164
:1025B0000F91FF90EF90DF90CF90BF90AF909F90E2
:1025C0008F907F906F905F904F9008952081281793
:1025D00009F4B1CF8F5FAECF109231041092530542
:1025E000BECFCF92DF92EF92FF920F931F93CF93C4
:1025F000DF93CDB7DEB72C970FB6F894DEBF0FBED2
:10260000CDBF8C016EE573E0CE0107960E94B3103A
:1026100022E030E050E040E003301105A9F024E072
:1026200030E042E050E00C30110571F026E030E07F
:102630000033110539F0003F110581F52091FB06AB
:102640003091FC0644E050E067EF76E0CE01019661
:102650000E94C410BE016F5F7F4FCE0107960E949B
:102660006C0FCE0101960E94B70FCE0107960E9413
:10267000610F6B01CE0107960E94B70FC6012C9621
:102680000FB6F894DEBF0FBECDBFDF91CF911F9183
:102690000F91FF90EF90DF90CF900895003C1105CF
:1026A00021F72091FB063091FC0646E050E0CCCFAC
:1026B0000F931F93CF93DF93CDB7DEB762970FB61B
:1026C000F894DEBF0FBECDBF8C016A307105A4F552
:1026D000CE010D960E9467106DE273E0CE01019667
:1026E0000E94B310BE016F5F7F4FCE0107960E941C
:1026F000AA10BE01635F7F4FCE0107960E9429108A
:10270000BC01C8010E94AA10CE0107960E94B70F13
:10271000CE0101960E94B70FCE010D960E94B70F11
:10272000C80162960FB6F894DEBF0FBECDBFDF9131
:10273000CF911F910F9108950E946710F1CF0F93D1
:102740001F93CF93DF93CDB7DEB768970FB6F8949A
:10275000DEBF0FBECDBF8B01833079F52091FB0624
:102760003091FC0642E050E067EF76E0CE010D9636
:102770000E94C410B801CE0101960E945813BE01F8
:102780006F5F7F4FCE0107960E94AA10BE01635F64
:102790007F4FCE0107960E942910BC0187EF96E07B
:1027A0000E949310CE0107960E94B70FCE010196AA
:1027B0000E94B70FCE010D9644C08C3009F04EC078
:1027C0002091FB063091FC0644E050E067EF76E094
:1027D000CE0143960E94C410B801CE010D960E940E
:1027E000581322E030E050E040E067EF76E0CE01A1
:1027F00001960E94C410BE016F5F7F4FCE01079605
:102800000E94AA10BE01635F7F4FCE0107960E940F
:102810002910BE016D5E7F4F0E942910BC0187EF19
:1028200096E00E949310CE0107960E94B70FCE014A
:1028300001960E94B70FCE010D960E94B70FCE01F0
:1028400043960E94B70F68960FB6F894DEBF0FBE8E
:10285000CDBFDF91CF911F910F910895803381F407
:10286000B801CE010D960E94581324E030E050E0EC
:1028700040E067EF76E0CE0101960E94C4107FCF62
:10288000803F71F3803CF9F6CE010D960E945813FB
:1028900026E030E0ECCF0E9412066093660570934C
:1028A0006705809368059093690580916C0588237E
:1028B00009F476C020916E0530916F05C901880F2B
:1028C000991F2031310509F45DC0FC01EE5EFE4F19
:1028D000408151814150510951834083DC01AE5EFA
:1028E000BE4F6D917C911197FC01ED55FE4F4081DB
:1028F0005181641775073CF483589E4FFC01808119
:1029000091818D939C932F30310551F58091300149
:1029100090913101019709F040C080E880936505EE
:1029200088E093E00E94430EE0916E05F0916F0500
:10293000EE0FFF1FEE5EFE4F808191810E94FB0E25
:1029400083E193E00E94430E6091650570E090E0A2
:1029500080E042E00E94B70E85E093E00E94430EC3
:1029600080916E0590916F0588309105C9F0880FB0
:10297000991FFC01EE5EFE4F6081718180916A05B6
:102980000C949F1340913201509133014C505109E6
:102990005093330140933201A1CF10926505C0CF0F
:1029A00008950E94120660936605709367058093F0
:1029B00068059093690580916C05882309F476C0B9
:1029C00020916E0530916F05C901880F991F203144
:1029D000310509F45DC0FC01EE5EFE4F408151817E
:1029E0004F5F5F4F51834083DC01AE5EBE4F6D9100
:1029F0007C911197FC01E358FE4F408151814617AD
:102A000057073CF48D559E4FFC01808191818D9339
:102A10009C932F30310551F5809130019091310117
:102A2000019709F040C080E8809365058FE193E04D
:102A30000E94430EE0916E05F0916F05EE0FFF1FAF
:102A4000EE5EFE4F808191810E94FB0E83E193E058
:102A50000E94430E6091650570E090E080E042E0E6
:102A60000E94B70E85E093E00E94430E80916E05B0
:102A700090916F0588309105C9F0880F991FFC016E
:102A8000EE5EFE4F6081718180916A050C949F1308
:102A90004091320150913301445F5F4F50933301B5
:102AA00040933201A1CF10926505C0CF08950F93D6
:102AB0001F93CF93DF93CDB7DEB768970FB6F89427
:102AC000DEBF0FBECDBF8C018091320190913301EA
:102AD000489709F048C00E947808BC01CE0143968F
:102AE0000E9458130E948008BC01CE010D960E94DE
:102AF00058130E948808BC01CE0101960E94581309
:102B0000BE016F5F7F4FCE0107960E94AA10BE01E3
:102B1000635F7F4FCE0107960E942910BE016D5E54
:102B20007F4F0E942910BC01C8010E94AA10CE014B
:102B300007960E94B70FCE0101960E94B70FCE01F3
:102B40000D960E94B70FCE0143960E94B70FC801A1
:102B500068960FB6F894DEBF0FBECDBFDF91CF9160
:102B60001F910F9108950E947808BC01CE014396F1
:102B70000E9458130E948008BC01CE010D960E944D
:102B800058130E941F070E9465078091CD046CE0D6
:102B900070E0882309F4B0CF682F70E08D3008F41E
:102BA000ABCF6C507109A8CF8F929F92AF92BF921A
:102BB000CF92DF92EF92FF920F931F93CF93DF9309
:102BC000CDB7DEB762970FB6F894DEBF0FBECDBFAC
:102BD0008C016A017B0180915004811111C00E9417
:102BE0001206645B7B4F8F4F9F4F60934C04709332
:102BF0004D0480934E0490934F0481E080935004E1
:102C000080914404811109C068E273E08EE394E08E
:102C10000E94B31081E0809344040E9412068090C9
:102C20004C0490904D04A0904E04B0904F0468194D
:102C300079098A099B09693E73408105910508F469
:102C4000FFC00E94120660934C0470934D04809361
:102C50004E0490934F0420E030E0A901C701B60173
:102C60000E946E3120E030E040E05FE387FD01C16B
:102C7000C701B6010E945A300E9438317B0177FFAC
:102C800004C0EE24FF24E61AF70A5B0139E1A31A17
:102C90003CEFB30A80913401909135019B012D598D
:102CA0003F4F69012A5531094901B701892B09F0C4
:102CB000E5C0CE0107960E9467106DE273E0CE0179
:102CC00001960E94B310BE01695F7F4FCE0101964D
:102CD0000E9429106DE273E00E941310BC018EE384
:102CE00094E00E949310CE0101960E94B70FCE018E
:102CF00007960E94B70F3FECA31637E0B30680F5A6
:102D0000B701CE010D960E94671060913601709157
:102D10003701CE0101960E945813BE016F5F7F4FAD
:102D2000CE0107960E94AA10BE01635F7F4FCE01BD
:102D300007960E9429106DE273E00E941310BC01F7
:102D40008EE394E00E949310CE0107960E94B70F85
:102D5000CE0101960E94B70FCE010D960E94B70FCB
:102D600087ECC816D104A0F5B701CE010D960E94DC
:102D700067106091360170913701CE0107960E946D
:102D800058136DE273E0CE0101960E94B310BE01AC
:102D9000695F7F4FCE0101960E942910BE01635FDB
:102DA0007F4F0E9429106DE273E00E941310BC0156
:102DB0008EE394E00E949310CE0101960E94B70F1B
:102DC000CE0107960E94B70FCE010D960E94B70F55
:102DD00023E182169104A0F5B701CE010D960E9461
:102DE00067106091360170913701CE0107960E94FD
:102DF00058136CE273E0CE0101960E94B310BE013D
:102E0000695F7F4FCE0101960E942910BE01635F6A
:102E10007F4F0E9429106DE273E00E941310BC01E5
:102E20008EE394E00E949310CE0101960E94B70FAA
:102E3000CE0107960E94B70FCE010D960E94B70FE4
:102E40006EE374E0C8010E94AA10C80162960FB632
:102E5000F894DEBF0FBECDBFDF91CF911F910F91D0
:102E6000FF90EF90DF90CF90BF90AF909F908F90AA
:102E70000895C701B6010E945930FECECE010796D3
:102E80000E9467106DE273E0CE0101960E94B310BC
:102E9000BE01695F7F4FCE0101960E9429106DE24D
:102EA00073E00E941310BC018EE394E00E94931023
:102EB000CE0101960E94B70FCE0107960E94B70F70
:102EC0003FECA31637E0B306A0F560913601709190
:102ED0003701CE010D960E945813C7016AE070E0D9
:102EE0000E947F31CE0107960E9467106CE273E06A
:102EF000CE0101960E94B310BE01695F7F4FCE01E3
:102F000001960E942910BE01635F7F4F0E94291025
:102F1000BC018EE394E00E949310CE0101960E94C2
:102F2000B70FCE0107960E94B70FCE010D960E94F3
:102F3000B70F87ECC816D104A0F5609136017091E7
:102F40003701CE010D960E945813C7016AE070E068
:102F50000E947F31CE0107960E9467106BE273E0FA
:102F6000CE0101960E94B310BE01695F7F4FCE0172
:102F700001960E942910BE01635F7F4F0E942910B5
:102F8000BC018EE394E00E949310CE0101960E9452
:102F9000B70FCE0107960E94B70FCE010D960E9483
:102FA000B70F23E18216910408F04ACF60913601F1
:102FB00070913701CE010D960E945813C7016AE047
:102FC00070E00E947F31CE0107960E9467106AE28E
:102FD00073E0CE0101960E94B310BE01695F7F4F7E
:102FE000CE0101960E942910BE01635F7F4F0E94AF
:102FF000291015CF85ED8093BC008091CD0590916F
:10300000CE05A091CF05B091D0050796A11DB11DA9
:1030100023E0B695A795979587952A95D1F72091A6
:10302000BC0024FD03C01092CB0508954091CD054E
:103030005091CE056091CF057091D005452B462B60
:10304000472B69F30097A105B10541F02AE22A95C3
:10305000F1F700C00197A109B109E1CF8091CC053A
:103060000C9444091F920F920FB60F9211242F93C4
:103070003F934F935F936F937F938F939F93AF9300
:10308000BF93EF93FF9383E096E00E943202FF919B
:10309000EF91BF91AF919F918F917F916F915F91D0
:1030A0004F913F912F910F900FBE0F901F90189549
:1030B0001F920F920FB60F9211242F938F939F930D
:1030C000EF93FF93E0911306F09114068081E09155
:1030D0001906F0911A0682FD1BC0908180911C0692
:1030E0008F5F8F7320911D06821741F0E0911C06BF
:1030F000F0E0ED5FF94F958F80931C06FF91EF9103
:103100009F918F912F910F900FBE0F901F90189548
:103110008081F4CF1F920F920FB60F9211242F933C
:103120003F938F939F93AF93BF938091D3049091DC
:10313000D404A091D504B091D6043091D20423E0F8
:10314000230F2D3758F50196A11DB11D2093D204F0
:103150008093D3049093D404A093D504B093D60461
:103160008091D7049091D804A091D904B091DA0449
:103170000196A11DB11D8093D7049093D804A0930C
:10318000D904B093DA04BF91AF919F918F913F9191
:103190002F910F900FBE0F901F90189526E8230FC8
:1031A0000296A11DB11DD2CF1F920F920FB60F92A2
:1031B00011242F933F938F939F93AF93BF93EF93DC
:1031C000FF938091F5059091F605A091F705B091D8
:1031D000F8050097A105B10531F13091DF04E091C8
:1031E000E004F091E10420812327208318161906BA
:1031F0001A061B061CF40197A109B1098093F50575
:103200009093F605A093F705B093F805FF91EF9121
:10321000BF91AF919F918F913F912F910F900FBED2
:103220000F901F901895209170002D7F20937000B3
:103230002091DF04E091E004F091E10430812095D9
:1032400023232083DBCF1F920F920FB60F921124FE
:103250008F939F93AF93BF93EF93FF938091F90563
:103260009091FA05A091FB05B091FC05892B8A2B62
:103270008B2BA1F19091E204E091E304F091E4043E
:103280008081892780838091F9059091FA05A0912A
:10329000FB05B091FC05181619061A061B069CF4CE
:1032A0008091F9059091FA05A091FB05B091FC057C
:1032B0000197A109B1098093F9059093FA05A093AC
:1032C000FB05B093FC05FF91EF91BF91AF919F91EA
:1032D0008F910F900FBE0F901F90189580916F00E7
:1032E0008D7F80936F008091E204E091E304F09180
:1032F000E4049081809589238083E5CF1F920F920B
:103300000FB60F9211248F939F93AF93BF93EF93B8
:10331000FF938091FD059091FE05A091FF05B0916E
:103320000006892B8A2B8B2BA1F19091E504E0916B
:10333000E604F091E7048081892780838091FD0570
:103340009091FE05A091FF05B09100061816190690
:103350001A061B069CF48091FD059091FE05A09134
:10336000FF05B09100060197A109B1098093FD0501
:103370009093FE05A093FF05B0930006FF91EF9197
:10338000BF91AF919F918F910F900FBE0F901F90A3
:10339000189580916E008D7F80936E008091E5047A
:1033A000E091E604F091E704908180958923808381
:1033B000E5CF1F920F920FB60F9211242F933F93D8
:1033C0004F935F936F937F938F939F93AF93BF932D
:1033D000EF93FF938091B900887F803609F44AC04B
:1033E000F0F5883209F4A7C018F5803109F49BC0C4
:1033F000B8F4882309F4F9C0883009F494C0FF9127
:10340000EF91BF91AF919F918F917F916F915F915C
:103410004F913F912F910F900FBE0F901F901895D5
:10342000883109F488C0803251F78093C90514C0EF
:10343000803409F49DC040F48033B9F38833F9F641
:103440008093C90585ECB0C0803509F485C0883506
:1034500009F496C0883499F60E94FA17D0CF8839BB
:1034600009F48CC038F5883729F050F4883611F00B
:10347000803729F683E08093CB051092B80457C0BB
:10348000883809F47BC0803919F0803809F0B7CF4B
:103490008091B804803208F071C0E091B80481E0F6
:1034A0008E0F8093B8048091BB00F0E0E856FB4F8C
:1034B00080833DC0803B39F0E0F4803A09F479C064
:1034C000883A09F09CCF84E08093CB051092970452
:1034D00010929604E091DD04F091DE04099580914C
:1034E000960481110FC081E08093960410927604B7
:1034F00009C0803C09F4A6CF883C09F4A3CF883BDF
:1035000009F07DCFE091970481E08E0F80939704BE
:10351000F0E0EA58FB4F80818093BB0090919704C4
:103520008091960429C08091A6058093BB0085EC0C
:103530008093BC0064CF9091C8058091C70598170F
:1035400058F5E091C80581E08E0F8093C805F0E042
:10355000E955FA4F8081E9CFE091C80581E08E0FEF
:103560008093C8058091BB00F0E0E955FA4F808355
:103570009091C8058091C7059817C8F285E8D8CF03
:10358000E091C80581E08E0F8093C8058091BB0053
:10359000F0E0E955FA4F80838091CA0581115CCF34
:1035A00081E08093A50584EA8093BC001092CB054E
:1035B00026CF85EC8093BC001092CB058091B80497
:1035C000803230F4E091B804F0E0E856FB4F10820E
:1035D0006091B80470E0E091DB04F091DC0488E9CC
:1035E00094E009951092B8040ACF1092C90534CF1F
:1035F000CF93DF93EC01862F6F87188A91E0998B28
:103600009A8B1C8A1B8A198218821A821D8A1E8A2A
:103610001F8A188E44E150E060E070E04B835C83C9
:103620006D837E834AEF50E060E070E04F835887FF
:1036300069877A8748EE53E060E070E04B875C87EB
:103640006D877E8760E00E945C038889811106C0D7
:1036500061E08F85DF91CF910C942E03DF91CF91A4
:103660000895E3E0F6E01382128288EE93E0A0E092
:10367000B0E084839583A683B78325EE32E031835F
:10368000208325EC30E03587248724EC30E0378731
:10369000268720EC30E0318B208B21EC30E0338B1F
:1036A000228B22EC30E0358B248B26EC30E0378BFC
:1036B000268B118E128E138E148EE0EAF6E01382A2
:1036C000128284839583A683B78387EF92E09183E8
:1036D00080836FE273E081E197E00E94B31060E0C5
:1036E00081E10E945C03E1E5F1E0E491A3E0B7E051
:1036F000EC93EDE3F1E0E491F0E0EE0FFF1FEE5DFF
:10370000FE4F8591949112969C938E9311971B96E0
:103710001C921B971D961C921D971C961C921C9721
:103720001A961C921A9719961C92199718961C9221
:10373000189717961C92179716961C92169715961F
:103740001C92159714961C92149713961C9267E07E
:1037500073E08DEF96E00E94B31068E273E087EFAC
:1037600096E00E94B3106EE08EED96E00E94F81A8B
:1037700060E185EC96E00E94F81A6FE08CEA96E032
:103780000C94F81ACF93DF93CDB7DEB7C656D109A4
:103790000FB6F894DEBF0FBECDBF789484B58260BB
:1037A00084BD84B5816084BD85B5826085BD85B5E5
:1037B000816085BD80916E00816080936E00109263
:1037C00081008091810082608093810080918100DE
:1037D000816080938100809180008160809380006F
:1037E0008091B10084608093B1008091B0008160CD
:1037F0008093B00080917A00846080937A008091F9
:103800007A00826080937A0080917A008160809350
:103810007A0080917A00806880937A001092C100CB
:1038200010928405109283051092D2051092F4052F
:103830000E94260981EB91E09093DE048093DD04E1
:1038400082EB91E09093DC048093DB04E09113061B
:10385000F091140682E08083E0910F06F09110064B
:103860001082E0911106F091120680E1808310929F
:103870001B06E0911706F091180686E08083E09120
:103880001506F0911606808180618083E09115060F
:10389000F0911606808188608083E0911506F09192
:1038A0001606808180688083E0911506F0911606E7
:1038B00080818F7D808381E090E00E94440F8C3076
:1038C00009F404C488E190E09093330180933201BD
:1038D00090E080E00E94440F882309F4FAC381E05D
:1038E00080930D0182E090E00E94440F8F3F09F029
:1038F000F3C310922B0110922A0183E090E00E9402
:10390000440F8F3F09F0EEC310922D0110922C014D
:1039100084E090E00E94440F8F3F09F0E9C31092C9
:103920002F0110922E0186E090E00E94440F8F3FFD
:1039300009F0E4C3109231011092300187E090E069
:103940000E94440F8F3F09F0DFC3109262058BE0A5
:1039500090E00E94440F8F3F09F0DDC310923501C3
:10396000109234018CE090E00E94F22F60968FAFAD
:1039700060978DE090E00E94F22F61968FAF619783
:103980008CE090E00E94440F8F3F09F0CAC3109270
:103990003701109236018EE090E00E94440F8F3F75
:1039A00029F090E0909323018093220161E089E067
:1039B0000E945C0361E086E00E945C0361E083E0BA
:1039C0000E945C038091E804833008F022C492E0F6
:1039D00090930106E82FF0E0EC56FF4FE491E0935E
:1039E00002068F5F8093E804E13009F4C4C308F451
:1039F000A1C3E23009F4E6C3809103019091040170
:103A00000E94670C909304018093030161E08AE0B7
:103A10000E945C0361E088E00E945C0360E088E053
:103A20000E942E0362E088E00E945C0388E00E940E
:103A3000050321E0892B09F020E02093EA041FB759
:103A4000F8948091E904811127C0E6E3F1E08491C4
:103A5000EAE4F1E09491E82FF0E0EE0FFF1FE95661
:103A6000FF4FA591B491EC91E92321F461E08AE044
:103A70000E942E0361E08AE00E945C038CB58061A5
:103A80008CBD8CB580648CBD61E08DE00E945C03D0
:103A900061E08BE00E945C038091E9048F5F80937A
:103AA000E9041FBF8091EA04882309F4B6C389E7BB
:103AB00091E00E94D60062E08EE00E945C0362E02A
:103AC00080E10E945C0362E08FE00E945C0361E0A1
:103AD00082E00E945C0304E110E020E030E000930B
:103AE000E1061093E2062093E3063093E4064EE1EC
:103AF00050E060E070E04093E5065093E606609386
:103B0000E7067093E80680ED97E0A0E0B0E08093D0
:103B1000E9069093EA06A093EB06B093EC060093B7
:103B2000C8061093C9062093CA063093CB0640936B
:103B3000CC065093CD066093CE067093CF0680934B
:103B4000D0069093D106A093D206B093D3060093EB
:103B5000AF061093B0062093B1063093B20640939F
:103B6000B3065093B4066093B5067093B60680937F
:103B7000B7069093B806A093B906B093BA06E09042
:103B80001007E11004C00E946E01811148C3109219
:103B90000E071092100710920F0784EE90E00E941B
:103BA000500E10920E071092100710920F071092ED
:103BB0000D0710920C0710920B0710920A07109233
:103BC00009071092080710920707109206078091C4
:103BD0001505882309F485C30E946E0185E50E94BE
:103BE000440109EF14E0D8018D918D010E94440138
:103BF000B5E001301B07B9F78EEB0E9444010DEED2
:103C000014E0F6EFEF2EF4E0FF2E0E94FE00F80124
:103C100081938F01EE16FF06C1F76091ED0470915C
:103C2000EE04072E000C880B990B0E94D52E20E085
:103C300030E040E85DE30E94342F0E9438317093F9
:103C4000EC046093EB0485EB90E00E94A10225E078
:103C500030E042E050E061E177E0CE0101963C01C6
:103C60000E94C41022E030E041E050E061E177E0E2
:103C7000CE01875B9F4F0E94C410BE01675B7F4FE0
:103C8000CE018D5B9F4F0E94AA106BE473E0CE01C2
:103C90008D5B9F4F0E941310B3010E9429100E9458
:103CA0002D0FCE018D5B9F4F0E94B70FCE01875B1A
:103CB0009F4F0E94B70FC3010E94B70F86E393E0A6
:103CC0000E94430E85E093E00E94430E8091030121
:103CD0009091040190937505809374050E94670C80
:103CE0006FEF70E089E00E945E0568EE73E080E0AF
:103CF00090E00E94E00570E060E089E00E945E05CF
:103D00006FEF70E086E00E945E0568EE73E080E091
:103D100090E00E94E00570E060E086E00E945E05B1
:103D20006FEF70E083E00E945E0568EE73E080E074
:103D300090E00E94E0058DE493E00E94430E8091A4
:103D4000170790911807009711F48BE197E0D301C2
:103D5000A81BB90BCD010E94FB0E68E273E0C30102
:103D60000E94B31069E573E0CE0107960E94B3107C
:103D700060E673E0CE010D960E94B31067E673E033
:103D8000CE0143960E94B3106EE673E0CE014996D1
:103D90000E94B31065E773E0CE014F960E94B31006
:103DA0006CE773E0CE0185960E94B31063E873E080
:103DB000CE018B960E94B3106AE873E0CE01C196E3
:103DC0000E94B31061E973E0CE01C7960E94B31060
:103DD00067E073E0CE01CD960E94B31061E177E019
:103DE000CE01CD960E9493108DEA90E00E94A10230
:103DF0008091EB049091EC040E94FB0E0E9412064D
:103E00006B017C01B8EECB0EB3E0DB1EE11CF11CB4
:103E100000E01FEF74EFA72EBB24B394E6E09E2EC4
:103E20008FE00E940503892B09F401E080E10E94E4
:103E30000503892B09F400E00E9412066C197D0924
:103E40008E099F0995010B2C000C440B550B26176E
:103E500037074807590708F05AC20E9412066B013B
:103E60007C01011101C01F5F1A3009F43FC21B30F1
:103E700009F040C210915E01812F0E94A70181E1EB
:103E800090E00E94D20A0E94650962E070E0812FF2
:103E900090E00E94F00C80EA96E00E945C0A855057
:103EA00000E0883320F082E580935E0101E010910C
:103EB0005E01812F0E94A70188E290E00E94D20A51
:103EC0000E94650961E070E0812F90E00E94F00C93
:103ED00080EA96E00E945C0A181619060CF41AC2D1
:103EE000013009F017C281EA90E00E94500E05E00F
:103EF00010E048EE53E060E070E088EE93E00E944E
:103F0000980360ED77E080E090E00E94E0050150CA
:103F1000110979F78E010D5B1F4F06501109C80179
:103F20000E94B70F60167106C1F78091620581117A
:103F30000E94460F0E94C90D00917A0510917B05E1
:103F40000E9412066B017C0181E08093820511279B
:103F500080917A0590917B050817190799F40E94C2
:103F6000C90D0E9412066C197D098E099F09693BD3
:103F70007B408105910560F388EC90E00E94500E33
:103F80001092820580908005F090810590907E05CA
:103F900010917F05A0907C0530917D05B0907A0549
:103FA00050917B05C090780570917905D090760589
:103FB000E82C092D2A2D4B2D6C2D8D2D90917705F8
:103FC0000E9443062A2D4B2D6C2D8D2D0E94D70A61
:103FD00048EE442E43E0542E54E0252E312C0E940E
:103FE000120620E63AEE40E050E00E949331672B43
:103FF000682B692B01F5809182058823E1F00E94EE
:10400000C90DE0908005F090810500917E0510912A
:104010007F0520917C0530917D0540917A05509176
:104020007B05609178057091790580917605909176
:1040300077050E9443060091740510917505D8011B
:104040008C91882309F47EC20E941206C0900D054F
:10405000D0900E05E0900F05F09010056C197D09C9
:104060008E099F09C0900905D0900A05E0900B05C4
:10407000F0900C05C616D706E806F90608F062C2ED
:104080000E9412064B015C0180920D0590920E0574
:10409000A0920F05B0921005680130E020E04AE0E0
:1040A000F801F1908F0180ED8F0D8A3008F081C109
:1040B000429FC001439F900D11242F2DFF0C330B05
:1040C00020533109280F391F6F01EACF8CE090E0AF
:1040D000FBCB10920D0106CC90E090932B018093C6
:1040E0002A010BCC90E090932D0180932C0110CCF1
:1040F00090E090932F0180932E0115CC90E0909347
:104100003101809330011ACC91E0811101C090E01F
:10411000909362051CCC90E090933501809334011C
:1041200021CC61968EAD9FAD6197909337018093BE
:10413000360131CC14BC15BC84B5826084BD85B514
:10414000816085BD8091010690E0FC01E45DFE4F39
:10415000E491F0E0EE0FFF1FE657FF4F25913491F9
:104160003093E7042093E604FC01E05CFE4FE49109
:10417000E093E50441CC1092800010928100809180
:1041800081008860809381008091810081608093AC
:1041900081008091010690E0FC01E45DFE4FE49116
:1041A000F0E0EE0FFF1FE657FF4F2591349130935B
:1041B000E4042093E304FC01E05CFE4FE491E0930F
:1041C000E2041ACC1092B0001092B1008091B000BD
:1041D00082608093B0008091B10081608093B100D3
:1041E0008091010690E0FC01E45DFE4FE491F0E077
:1041F000EE0FFF1FE657FF4F259134913093E104F6
:104200002093E004FC01E05CFE4FE491E093DF04C6
:10421000F3CB8FEF80930206EFCB89E549CC80EF9B
:104220000E944401D12CFF24F39401E00E94D900A4
:10423000182F0E94D9001130F9F48130E1F50134D2
:1042400008F4A5CCE0920E07E11003C081E0809352
:10425000100780910607882309F499CCA6E0B7E0FF
:10426000E9EFF4E08D91819335E0E130F307D1F788
:1042700081E080931505ABCCED2DF0E0181311C053
:1042800080910E070817A8F4DF01AD5FB84F1396B1
:104290008C918F2181F410E0093010F400930F0706
:1042A000E02EED5FF84F83819F2D909589238383C6
:1042B0000AC08013F0CFED2DF0E0ED5FF84F838161
:1042C0008F29838311E0812F0E9414010F5FFF0C5F
:1042D00019F4D394FF24F39427E02D1508F0A6CF0A
:1042E000AECF1092EC041092EB04ADCC68EBA62E8E
:1042F0006BE0B62EB301199D600D711D112487EF7F
:1043000096E00E94931087EF96E00E942D0F0E9486
:10431000101186CD812F0E94A7018FE090E00E94AE
:10432000D20A88E090E00E94D20A0E946509812F9B
:104330000E94A70187E390E00E94D20A8CE190E0FE
:104340000E94D20A0E946509812F0E94A70187E27C
:1043500090E00E94D20A90E080E00E94D20A0E947F
:104360006509812F0E94A70187E290E00E94D20A8E
:1043700081E190E00E94D20A0E946509812F0E948B
:10438000A7018FE090E00E94D20A90E080E00E94B6
:10439000D20A0E946509812F0E94A7018EE090E059
:1043A0000E94D20A90E080E00E94D20A0E94650931
:1043B000B1CD3093080520930705609103057091F6
:1043C000040580910505909106052115310501F13F
:1043D000032E000C440B550B0E94B53120930905A8
:1043E00030930A0540930B0550930C05EFE9EF0D50
:1043F000E730A0F40E2E000CFF0BEF5FFD4D0C9488
:10440000D43191259325852589258B258D258F25CB
:104410002091060130E050E040E0DECF109202052E
:10442000D60111968C91833241F4809102058F5F01
:104430008093020586010E5F1F4FF80180818E3246
:10444000F1F4C0900905D0900A05E0900B05F090BA
:104450000C05C701B60122E030E040E050E00E94C8
:10446000B531C20ED31EE41EF51EC0920905D092CE
:104470000A05E0920B05F0920C050F5F1F4FD80163
:104480008C9180538A3008F050C3809301050F5FF0
:104490001F4FF80180818C3211F40F5F1F4FE091A4
:1044A0000205EE2309F44EC0C0900905D0900A051C
:1044B000E0900B05F0900C05809101058450990B5C
:1044C0004CE0489F9001499F300D1124E20FF32FDB
:1044D000F11DEE0FFF1FE751FE4FB701A6018081CE
:1044E00091810E9498030E941206681979098A092D
:1044F0009B09C616D706E806F90620F50E941206A3
:1045000060930D0570930E0580930F059093100531
:1045100080910206813009F40DC3823009F410C382
:10452000811105C080916E008D7F80936E0060E0E8
:10453000809101060E942E038CEF90E00E94500EA5
:1045400010E000E010937505009374050E941206B8
:1045500000917005109171052091720530917305DD
:10456000601B710B820B930B663071058105910501
:10457000E8F080910D018111E9C270E060E089E00E
:104580000E945E0570E060E086E00E945E0570E0DB
:1045900060E083E00E945E050E9412066093700551
:1045A00070937105809372059093730580916E05E9
:1045B00090916F05892B21F080916D058111F7C1D4
:1045C00080916C058111F3C18091280581110DC086
:1045D0000E9412066093240570932505809326059A
:1045E0009093270581E08093280580911C05811117
:1045F0000DC00E94120660931805709319058093F0
:104600001A0590931B0581E080931C050E941206F9
:10461000009124051091250520912605309127054C
:10462000601B710B820B930B009107011091080125
:104630002091090130910A01061717072807390749
:1046400008F04DC00E941206609324057093250562
:104650008093260590932705809116059091170564
:10466000009709F0E0C281E090E090936F0580939D
:104670006E0528E833E140E050E0209307013093D5
:1046800008014093090150930A0180911605909109
:1046900017058230910581F410926F0510926E0516
:1046A00020E63AEE40E050E0209307013093080105
:1046B0004093090150930A010196833091050CF053
:1046C000D0C2909317058093160580916D058823BD
:1046D00021F010926F0510926E0510926D050E94E8
:1046E0001206009124051091250520912605309190
:1046F0002705601B710B820B930B603D7740810592
:10470000910508F094C30E941206009118051091BB
:10471000190520911A0530911B05601B710B820B46
:10472000930B653671058105910508F440C10E941F
:104730001206609318057093190580931A059093DB
:104740001B0580916E0590916F0520911505222320
:1047500009F48CC2892BA9F5CE018D5B9F4F0E9475
:10476000571581E02091340130913501232B09F454
:1047700080E00E94D20BAB01BC01CE0101960E94E9
:10478000D415AE014D5B5F4FBE016F5F7F4FCE0111
:10479000875B9F4F0E943412BE01675B7F4F87EF9C
:1047A00096E00E946C0FCE01875B9F4F0E94B70F6F
:1047B000CE0101960E94B70FCE018D5B9F4F0E94E4
:1047C000B70F80916E0590916F05019709F06EC04B
:1047D0000E945E08B2010E947F31BC01CE018B5A5B
:1047E0009F4F0E9458130E946808BC01CE01815B54
:1047F0009F4F0E9458130E947008BC01CE018D5B30
:104800009F4F0E945813BE016D5B7F4FCE01875BA7
:104810009F4F0E94AA10BE01615B7F4FCE01875B54
:104820009F4F0E942910BE016B5A7F4F0E94291092
:10483000BC01CE01855A9F4F0E94AA10CE0101965D
:104840000E945715AE01455A5F4FBE016F5F7F4F03
:10485000CE018F599F4F0E943412BE016F597F4F76
:1048600087EF96E00E946C0FCE018F599F4F0E94F8
:10487000B70FCE0101960E94B70FCE01855A9F4F08
:104880000E94B70FCE01875B9F4F0E94B70FCE01EA
:104890008D5B9F4F0E94B70FCE01815B9F4F0E949F
:1048A000B70FCE018B5A9F4F0E94B70F80916E05B4
:1048B00090916F05049709F07AC081E0209134014E
:1048C00030913501232B09F480E00E94D20BAB011B
:1048D000BC01CE01855A9F4F0E94D4150E945E08EC
:1048E000B2010E947F31BC01CE01815B9F4F0E94CB
:1048F00058130E946808BC01CE01875B9F4F0E943D
:1049000058130E947008BC01CE0101960E945813F2
:10491000BE016F5F7F4FCE018D5B9F4F0E94AA103B
:10492000BE01675B7F4FCE018D5B9F4F0E942910B8
:10493000BE01615B7F4F0E942910BC01CE018B5AE2
:104940009F4F0E94AA10AE01455A5F4FBE016B5A9D
:104950007F4FCE018F599F4F0E943412BE016F5975
:104960007F4F87EF96E00E946C0FCE018F599F4FCB
:104970000E94B70FCE018B5A9F4F0E94B70FCE01F6
:104980008D5B9F4F0E94B70FCE0101960E94B70F1B
:10499000CE01875B9F4F0E94B70FCE01815B9F4F77
:1049A0000E94B70FCE01855A9F4F0E94B70F0E94F9
:1049B00010118EED96E00E94900885EC96E00E9422
:1049C00090088CEA96E00E94900880916C05811115
:1049D00031C210926B0510926A058091DE069091AB
:1049E000DF06181619060CF022C381E080936D05CE
:1049F000109275051092740544E650E060E070E096
:104A000088EE93E00E9498030E9412066093660568
:104A100070936705809368059093690580916E0592
:104A200090916F0501968530910509F433C29093FA
:104A30006F0580936E0520916E0530916F05890199
:104A4000000F111FF801E85CFE4F80819181909367
:104A50006B0580936A05D9011197FD01EE0FFF1FC9
:104A6000EB56FD4F608171816115710509F4CDC26E
:104A7000AB0141505109FA01EE0FFF1FE159FD4F03
:104A80000190F081E02DAE17BF0709F0BEC2623081
:104A9000710509F004C288E1E5E6F1E0D301019077
:104AA0000D928A95E1F780912801909129018370F8
:104AB0009927892B21F48DE190E09C838B83E091F1
:104AC0002601F09127013197EE0FFF1FE60DF71D2C
:104AD00020912401309125018081918182179307D3
:104AE0000CF0DDC189E090E090936F0580936E0536
:104AF00080E090E0892B09F472CA0E941E0288238C
:104B000009F466CA0E94000063CA81E0809302052E
:104B100087CC83E0FBCF85E0F9CF86E0F7CF88E054
:104B2000F5CF8AE0F3CF8CE0F1CF8091050180933F
:104B30000105AFCC80916F008D7F80936F00F7CC23
:104B4000809170008D7F80937000F1CC8091620520
:104B5000811122CD0091130510911405C801880F11
:104B6000991F800F911FFC01EE0FFF1FE55BFD4FAA
:104B70002081318160910F0170911001620F731FCC
:104B80007093100160930F01FC01EE0FFF1FE35BB8
:104B9000FD4FC080D18020915A0530915B05C20E37
:104BA000D31ED0925B05C0925A05880F991FFC0155
:104BB000E15BFD4FE080F1808091580590915905AF
:104BC000E80EF91EF0925905E092580589E00E941E
:104BD0005E05B60186E00E945E05B70183E00E9493
:104BE0005E05809111059091120501969093120532
:104BF000809311058F3F910551F40F5F1F4F109364
:104C0000140500931305109212051092110580915E
:104C100013059091140506970CF4BECC1092140560
:104C200010921305B9CC019709F02FCD30926F0582
:104C300020926E0588E893E1A0E0B0E08093070140
:104C400090930801A0930901B0930A018091150582
:104C50008111FEC682E090E09093170580931605BF
:104C600014CD10921705109216052FCD892B09F03F
:104C70006AC0CE01855A9F4F0E9457150E945E0858
:104C8000B2010E947F31BC01CE01815B9F4F0E9427
:104C900058130E946808BC01CE01875B9F4F0E9499
:104CA00058130E947008BC01C3010E945813B3013D
:104CB000CE018D5B9F4F0E94AA10BE01675B7F4FA4
:104CC000CE018D5B9F4F0E942910BE01615B7F4F1B
:104CD0000E942910BC01CE018B5A9F4F0E94AA103E
:104CE000AE01455A5F4FBE016B5A7F4FCE018F59BF
:104CF0009F4F0E943412BE016F597F4F87EF96E09D
:104D00000E946C0FCE018F599F4F0E94B70FCE01AA
:104D10008B5A9F4F0E94B70FCE018D5B9F4F0E9411
:104D2000B70FC3010E94B70FCE01875B9F4F0E9450
:104D3000B70FCE01815B9F4F0E94B70FCE01855AFE
:104D40009F4F0E94B70F80916E0590916F0501975C
:104D500009F02DCE0E945E08B2010E947F31BC0195
:104D6000CE018B5A9F4F0E9458130E946808BC01C5
:104D7000CE01815B9F4F0E9458130E947008BC01B6
:104D8000CE018D5B9F4F0E945813BE016D5B7F4F1C
:104D9000CE01875B9F4F0E94AA10BE01615B7F4FCF
:104DA000CE01875B9F4F0E942910BE016B5A7F4F37
:104DB0000E942910BC01CE01855A9F4F0E94AA1063
:104DC000CE0101960E945715AE01455A5F4FBE01B4
:104DD0006F5F7F4FCE018F599F4F0E943412BE01EB
:104DE0006F597F4F87EF96E00E946C0FCE018F596D
:104DF0009F4F0E94B70FCE0101960E94B70FCE01C0
:104E0000855A9F4F0E94B70FCE01875B9F4F0E942C
:104E1000B70FCE018D5B9F4F0E94B70FCE01815B14
:104E20009F4F0E94B70FCE018B5A9F4FBECD10925D
:104E30005305BDCD0E9412060091660510916705CD
:104E40002091680530916905601B710B820B930BF3
:104E500061367A4E8105910508F4BFCD10926C053C
:104E6000E0916E05F0916F05EE0FFF1FE554FD4FC9
:104E70008081918190936F0580936E05880F991FB3
:104E8000FC01E85CFE4F8081918190936B058093DB
:104E90006A05A3CD10926F0510926E05CCCD1092CD
:104EA0006C0550936F0540936E05452BB9F40E9435
:104EB0005E087C010E9468088C010E947008409185
:104EC00020015091210160911E0170911F019C01F0
:104ED00080911C0190911D010E94430680916E05F6
:104EE00090916F05019719F5E0902801F090290144
:104EF00050E3E51A58EFF50A0091260110912701B9
:104F000080902401909025010E9478085C010E9405
:104F100080086C010E9488089401A501B6010E94D6
:104F20004306609122018EE090E00E94420F809142
:104F30006E0590916F050297C1F460912A0182E09D
:104F400090E00E94420F60912C0183E090E00E946B
:104F5000420F60912E0184E090E00E94420F609128
:104F6000300186E090E00E94420F80916E059091A2
:104F70006F05039731F46091320181E090E00E9467
:104F8000420F80916E0590916F05049701F5609135
:104F900034018BE090E00E94420F109136018CE0CA
:104FA00090E00E94F22F811729F0612F8CE090E0B1
:104FB0000E94FA2F109137018DE090E00E94F22FAD
:104FC000181729F0612F8DE090E00E94FA2F0E94BF
:104FD0005E087C010E946808082F0E947008C82E95
:104FE0000E947808D82E0E948008182F0E948808F6
:104FF000382FC701B2010E947F31E82E2C2D4D2D94
:10500000612F832F0E94D70A73CDA9014151510905
:105010004230510560F0285031092230310538F016
:105020000E94F112F801EE5EFE4F91838083809121
:10503000DE069091DF0697FF09C144E650E060E08C
:1050400070E088EE93E00E94980380916C058111D6
:1050500051C000916E0510916F050E941206609379
:105060006605709367058093680590936905012B29
:1050700009F040C00E947808BC01C3010E94581387
:105080000E948008BC01CE018D5B9F4F0E94581387
:105090000E948808BC01CE01815B9F4F0E9458137B
:1050A000BE01615B7F4FCE01875B9F4F0E94AA10BC
:1050B000BE016D5B7F4FCE01875B9F4F0E94291021
:1050C000B3010E942910BC0187EF96E00E94931063
:1050D000CE01875B9F4F0E94B70FCE01815B9F4F30
:1050E0000E94B70FCE018D5B9F4F0E94B70FC30187
:1050F0000E94B70F80916E0590916F05019709F09E
:105100006CC088E993E00E94430E85E093E00E9422
:10511000430E0E94700890932501809324010E9401
:10512000680890932701809326010E945E08B201CF
:105130000E947F31BC0190932901809328018091C6
:10514000220190912301892B09F09FC1C3010E9484
:1051500058136091260170912701CE018D5B9F4FFE
:105160000E9458136091240170912501CE01815B4A
:105170009F4F0E945813BE01615B7F4FCE01875B3A
:105180009F4F0E94AA10BE016D5B7F4FCE01875BCF
:105190009F4F0E942910B3010E942910BC0187EF84
:1051A00096E00E949310CE01875B9F4F0E94B70F3D
:1051B000CE01815B9F4F0E94B70FCE018D5B9F4F49
:1051C0000E94B70FC3010E94B70F81EA93E00E94CB
:1051D000430E87EF96E00E942D0FE0916E05F0914F
:1051E0006F05EE0FFF1FE554FD4F20813181309395
:1051F0006F0520936E052C30310549F481E090E075
:10520000909331018093300180E88093650580910F
:105210006C0591E0892780936C058901000F111FAF
:10522000F801E85CFE4F8081918190936B0580933B
:105230006A052131310551F02830310539F00E94DD
:10524000F112F801EE5EFE4F918380838091C506D6
:105250009091C606009719F19093640580936305B9
:1052600018161906E4F481E080936D051092750517
:105270001092740544E650E060E070E088EE93E040
:105280000E9498030E94D11480916C05811107C07F
:105290001092620560E087E090E00E94420F8091EA
:1052A000630590916405019609F000C18091C706DD
:1052B000882309F4FBC01092110180916C058823AA
:1052C000F9F00E94120600915E0510915F05209191
:1052D000600530916105601B710B820B930B673980
:1052E00071058105910560F00E94120660935E05CC
:1052F00070935F0580936005909361050E94D114BF
:105300008091AC069091AD060097A9F190935D0550
:1053100080935C051816190674F511E010936D055D
:10532000109275051092740544E650E060E070E05C
:1053300088EE93E00E9498030E944B1480916C05C4
:10534000811119C01093620561E087E090E00E942E
:10535000420F60910F0188E090E00E94420F60913F
:105360005A0589E090E00E94420F609158058AE05A
:1053700090E00E94420F80915C0590915D0501963E
:1053800009F098C08091AE06882309F493C08091FB
:105390006C0510920E01882321F10E9412060091E3
:1053A0005405109155052091560530915705601B05
:1053B000710B820B930B673971058105910508F418
:1053C00045C00E9412066093540570935505809362
:1053D0005605909357050E944B1480916C058111DE
:1053E00035C08091C5069091C60697FF16C044E669
:1053F00050E060E070E088EE93E00E94980381E066
:1054000080930D0161E090E080E00E94420F8BE10B
:1054100091E00E94500E0E94460F8091AC06909140
:10542000AD0697FF13C044E650E060E070E088EE00
:1054300093E00E94980310920D0160E090E080E0FC
:105440000E94420F83E191E00E94500EE0916E05B0
:10545000F0916F05E331F10508F04ACBEE5CF54DB4
:105460000C94D4315E2A8F2A9E2BED2B1B2C782591
:10547000782578259F2CC72CC72CC72C7825782514
:105480007825782578251B2C5B2CC3010E945813A6
:105490006091240170912501CE018D5B9F4F0E9488
:1054A0005813609126017091270160CE81E08093AE
:1054B000110126CF81E080930E018FCF809153059B
:1054C00081111EC00E94780820910B0130910C01BF
:1054D00082179307E9F00E94780890930C0180935B
:1054E0000B01CE0101960E945715BE016F5F7F4FE1
:1054F00087EF96E00E946C0FCE0101960E94B70FD5
:105500000E94780880FD92C180EC8093650590C16F
:1055100067EF76E0CE0101960E94AA10E6CF809157
:1055200053058111F4C080914B05811111C00E9477
:10553000120667517C4F8F4F9F4F609347057093C2
:1055400048058093490590934A0581E080934B0577
:1055500080913F0581114AC00E945E08B2010E94FD
:105560007F31BC01CE0101960E9458130E94680849
:10557000BC01CE018D5B9F4F0E9458130E947008A2
:10558000BC01CE01815B9F4F0E945813BE01615B3D
:105590007F4FCE01875B9F4F0E94AA10BE016D5BBB
:1055A0007F4FCE01875B9F4F0E942910BE016F5F26
:1055B0007F4F0E942910BC0189E395E00E94AA1048
:1055C00081E080933F05CE01875B9F4F0E94B70F1C
:1055D000CE01815B9F4F0E94B70FCE018D5B9F4F25
:1055E0000E94B70FCE0101960E94B70F809131053E
:1055F000811107C0809122018093300581E0809362
:1056000031050E941206009147051091480520912E
:10561000490530914A05601B710B820B930B693E63
:1056200073408105910550F420913005809122014D
:10563000909123012817190609F458C00E941206F8
:1056400060934705709348058093490590934A05F8
:105650008091220190912301892B09F05AC00E9468
:105660005E08B2010E947F31BC01CE0101960E940A
:1056700058130E946808BC01CE018D5B9F4F0E94A9
:1056800058130E947008BC01CE01815B9F4F0E949D
:105690005813BE01615B7F4FCE01875B9F4F0E9415
:1056A000AA10BE016D5B7F4FCE01875B9F4F0E94AA
:1056B0002910BE016F5F7F4F0E942910BC0189E352
:1056C00095E00E949310CE01875B9F4F0E94B70F19
:1056D000CE01815B9F4F0E94B70FCE018D5B9F4F24
:1056E0000E94B70FCE0101960E94B70F69E375E0E3
:1056F000CE0101960E94AA10BE016F5F7F4F87EF17
:1057000096E00E946C0FCE0101960E94B70F80E4D4
:10571000FCCE0E945E08B2010E947F31BC01CE0126
:1057200001960E9458130E947008BC01CE018D5B47
:105730009F4F0E9458130E946808A5CF60912E01C8
:1057400070912F01CE0101960E94581360912C0197
:1057500070912D01CE018D5B9F4F0E945813609177
:105760002A0170912B01CE01815B9F4F0E9458133B
:10577000BE01615B7F4FCE01875B9F4F0E94AA10E5
:10578000BE016D5B7F4FCE01875B9F4F0E9429104A
:10579000BE016F5F7F4F0E942910BC0187EF96E02A
:1057A0000E949310CE01875B9F4F0E94B70FCE01DE
:1057B000815B9F4F0E94B70FCE018D5B9F4F0E9470
:1057C000B70FCE0101960E94B70F809130019091E2
:1057D0003101019759F580E898CE609132017091BE
:1057E0003301CE0101960E9467106CE273E0CE0196
:1057F0008D5B9F4F0E94B310BE016F5F7F4FCE0144
:105800008D5B9F4F0E9429106CE273E00E94131081
:10581000BC0187EF96E00E949310CE018D5B9F4FF5
:105820000E94B70FCE0101960E94B70F1092650536
:105830000E945E0E5DC980915305811124C081E0F4
:105840002091340130913501232B09F480E00E942E
:10585000D20BAB01BC01CE0101960E94D415BE0152
:105860006F5F7F4F87EF96E00E946C0FCE0101962D
:105870000E94B70F8091340190913501892BC1F4BA
:1058800080E48093650581E02091340130913501F9
:10589000232B09F480E00E94D20B1091650520E0D3
:1058A00030E0A9010E94CE2E87FF3FC010683EC0A5
:1058B00010926505E8CF81E02091340130913501E7
:1058C000232B09F480E00E94D20BAB01BC01CE0176
:1058D00001960E94D415BE016F5F7F4F87EF96E05F
:1058E0000E946C0FCE0101960E94B70F20913401E7
:1058F0003091350121153105E1F480E8809365058B
:1059000083E090E090936B0580936A0581E0232B00
:1059100009F480E00E94D20B1091650520E030E090
:10592000A9010E94CE2E87FFC1CF1F771093650576
:10593000DFC880EC8093650580E390E0E3CF809141
:10594000220190912301892B99F466EA73E087EF95
:1059500096E00E945D1083E090E090934B0180936D
:105960004A018CE090E090934D0180934C01C0C8B7
:105970006DEA73E087EF96E00E945D108CE090E0A6
:1059800090934B0180934A0183E090E0ECCF6091CB
:105990002801709129018091220190912301892B86
:1059A00009F044C0CE0101960E945813609126016F
:1059B00070912701CE018D5B9F4F0E94581360911B
:1059C000240170912501CE01815B9F4F0E945813E5
:1059D000BE01615B7F4FCE01875B9F4F0E94AA1083
:1059E000BE016D5B7F4FCE01875B9F4F0E942910E8
:1059F000BE016F5F7F4F0E942910BC0187EF96E0C8
:105A00000E949310CE01875B9F4F0E94B70FCE017B
:105A1000815B9F4F0E94B70FCE018D5B9F4F0E940D
:105A2000B70FCE0101960E94B70F62C8CE01019652
:105A30000E9458136091240170912501CE018D5B65
:105A40009F4F0E9458136091260170912701BBCF90
:105A500081E090E00C945C2387EF96E00E94B70F02
:105A60008DEF96E00E94B70F81E197E00C94B70F9D
:105A70000F931F93CF93DF938230910510F482E050
:105A800090E0E0911907F0911A0730E020E0B0E0D3
:105A9000A0E0309799F42115310509F44AC0281B7C
:105AA000390B24303105D8F58A819B816115710548
:105AB00089F1FB0193838283FE0111C040815181F2
:105AC0000281138148175907E0F04817590799F4E4
:105AD000109761F012960C93129713961C933296BE
