:100000000C94AF000C94D7000C94D7000C94D7003C
:100010000C94D7000C94D7000C94D7000C94DA0EF3
:100020000C94D7000C94D7000C94D7000C94350F87
:100030000C94D7000C94D7000C949A0F0C94D70012
:100040000C94900E0C94D7000C94D80C0C94B20C19
:100050000C94D7000C94D7000C94D7000C94D700C4
:100060000C9460190C94D70008230A23FE22002365
:10007000022304230623402AB32A982BE92B1A2CA7
:10008000A22C5B2DB62DB62DB62DB62DB62DB62DC8
:10009000B62DB62DB62DB62DB62D1A2C532CA22C5E
:1000A000A22C5B2DF500F800F300F500F800FA0033
:1000B000FE00030100000000250028002B000201C3
:1000C0000000000000240027002A004661756C74BF
:1000D00079204453333233312100445333323331A6
:1000E0005F543D004669726D776172653A20004940
:1000F0006E636F727265637420536F6E6720466F14
:10010000726D6174210057616B652075702C204EF3
:10011000656F2100000000080002010000030407D1
:100120000000000000000000000000002300260086
:10013000290004040404040404040202020202026A
:10014000030303030303010204081020408001029B
:10015000040810200102040810200D2EBD2E1124C9
:100160001FBECFEFD8E0DEBFCDBF14E0A0E0B1E00E
:10017000E4E7F9E602C005900D92AA33B107D9F77A
:1001800027E0AAE3B4E001C01D92AF34B207E1F763
:1001900010E0CEEAD0E004C02197FE010E94A53312
:1001A000CD3AD107C9F70E94F11C0C94AD340C94E0
:1001B0000000CF92DF92EF92FF921F93CF93DF93D5
:1001C00090914304992309F485C0C0913205D091E0
:1001D0003305C830D10508F067C0182FFE01EE5A6C
:1001E000FF4F0C94A53384E406C00E94B1135CC099
:1001F0008CEC01C08EEB0E941A1456C00E94691448
:100200008093300551C00E94691480933105682F96
:1002100070E0762F662780913005682B6F3F8FEF57
:10022000780711F460E070E0072E000C880B990B42
:100230000E94A63020E030E040E85DE30E940531F6
:100240006B017C018091B9019091BA01BC01990FB9
:10025000880B990B0E94A63020E030E040E251E488
:100260000E9497329B01AC01C701B6010E942B325C
:10027000112361F026E636E646EE5FE30E94053183
:1002800020E030E040E052E40E942B3220E030E0F9
:1002900040E251E40E94053160932C0570932D05D6
:1002A00080932E0590932F052196C830D10529F013
:1002B000D0933305C093320504C0109233051092D9
:1002C000320560912C0570912D0580912E0590913D
:1002D0002F0503C060E070E0CB01DF91CF911F914B
:1002E000FF90EF90DF90CF9008954F925F926F92C2
:1002F0007F928F929F92AF92BF92CF92DF92EF92B6
:10030000FF920F931F93CF93DF9300D000D000D0C4
:10031000CDB7DEB77C014B015A0180914C04882394
:1003200041F0809101050AE015E0A2E0B5E0F80196
:100330004CC081E080934C0410924B0410924A040C
:100340008AE0682E85E0782E92E0492E95E0592EBD
:1003500000E010E00F5F1F4F680181E0C81AD1086C
:100360009801A601B401CE0101960E946C0CCE0149
:1003700001960E948F0AF30161933F01CE0101961D
:100380000E94F00B9801A601B501CE0101960E94D2
:100390006C0CCE0101960E948F0AF20161932F012D
:1003A000CE0101960E94F00B0830110599F6B9CFE5
:1003B0002C9192130DC090819A3009F410823196DD
:1003C000119695E0E231F90731F090818A3080F79B
:1003D0009F5F9083F0CF8F5F843119F08093010588
:1003E00004C01092010510924C0462E473E0C7014E
:1003F0000E94570CF80161918F01C7010E94C80A41
:10040000F5E002311F07B1F7C70126960FB6F89441
:10041000DEBF0FBECDBFDF91CF911F910F91FF9037
:10042000EF90DF90CF90BF90AF909F908F907F9094
:100430006F905F904F9008950F931F938091B30139
:100440009091B401892B09F455C08091000588234F
:10045000A9F00E945D0E0091FC041091FD04209112
:10046000FE043091FF04DC01CB01801B910BA20B39
:10047000B30B893E9340A105B105C8F580910005F5
:10048000811138C00E948F112091AD013091AE01D1
:100490008217930779F50E9487112091AF0130915F
:1004A000B0018217930731F50E947F112091B101AD
:1004B0003091B20182179307E9F40E945D0E6093B8
:1004C000FC047093FD048093FE049093FF0481E08C
:1004D0008093000586E091E00E94A31380910001C3
:1004E0009091010190935A048093590403C0109293
:1004F0000005C4CF1F910F910895CF93DF93EC01B6
:10050000019628812A33D9F78981843639F51092EA
:1005100049041092480423964AE0FE0188812196FE
:1005200090ED980F20914804309149049A3080F45E
:10053000429FB001439F700D1124082E000C990BAF
:10054000C097860F971F9093490480934804E5CF86
:100550001216130614F420935F01EF01219688818F
:100560008F3689F48A81082E000C990B9C01205348
:1005700031093093490420934804C397059710F438
:1005800020935E0124968881823629F510924904D1
:1005900010924804FE0132964AE0819190ED980F46
:1005A00020914804309149049A3080F4429FB00170
:1005B000439F700D1124082E000C990BC097860FD5
:1005C000971F9093490480934804E7CF309392019A
:1005D00020939101EF012091910130919201032E1E
:1005E000000C440B550B60E67AEE80E090E00E9430
:1005F0008633DA01C90122E0880F991FAA1FBB1FA9
:100600002A95D1F78093440490934504A09346041F
:10061000B0934704CE01DF91CF910895CF92DF923E
:10062000EF92FF920F931F93CF93DF93CDB7DEB777
:100630002C970FB6F894DEBF0FBECDBF8C0162E7DA
:1006400073E0CE0101960E94570C0330110529F486
:1006500022E030E040E050E021C00C30110529F4E8
:1006600024E030E042E050E019C00033110519F4F5
:1006700026E030E007C0003F110539F42091CB0699
:100680003091CC0644E050E009C0003C1105B9F4BB
:100690002091CB063091CC0646E050E067EC76E046
:1006A000CE0107960E946C0CBE01695F7F4FCE01A0
:1006B00001960E94F30ACE0107960E94F00BCE012C
:1006C00001960E948F0A6B017C01CE0101960E9467
:1006D000F00BC6012C960FB6F894DEBF0FBECDBF4F
:1006E000DF91CF911F910F91FF90EF90DF90CF900E
:1006F000089581E08093540588E6809376051092F2
:1007000055051092770560E08CE696E00E94B916D8
:100710000E944A1587E090E00E9401158CE696E061
:100720000E946D16982F92959F708F702AE0929F6D
:10073000800D112490E09093600480935F048CE618
:1007400096E00E946D16982F92959F708F702AE008
:10075000929F800D112490E090935E0480935D043D
:100760008CE696E00E946D16982F96959695969534
:100770009670292F220F220F920F8F70890F90E011
:1007800090935C0480935B048CE696E00E946D1667
:10079000982F92959F708F702AE0929F800D112460
:1007A00090E09093FB048093FA048CE696E00E941C
:1007B0006D16982F92959F708F702AE0929F800DF2
:1007C000112490E090936204809361048CE696E09B
:1007D0000E946D16982F92959F708F702AE0929FBD
:1007E000800D112490E090936404809363048CE660
:1007F00096E00E946D16982F92959F708F702AE058
:10080000929F800D112490E090936604809365047C
:1008100008950F931F93CF93DF93CDB7DEB7629701
:100820000FB6F894DEBF0FBECDBF8C0177FF03C0BB
:100830007195619571094AE06A3071054CF5CE01F8
:100840000D960E94220C69E673E0CE0101960E948B
:10085000570CBE016F5F7F4FCE0107960E944E0C72
:10086000BE01635F7F4FCE0107960E948E0BBC01D5
:10087000C8010E944E0CCE0107960E94F00BCE01DB
:1008800001960E94F00BCE010D960E94F00B03C062
:10089000C8010E94220CC80162960FB6F894DEBF10
:1008A0000FBECDBFDF91CF911F910F9108958F9211
:1008B0009F92AF92BF92CF92DF92EF92FF920F93EF
:1008C0001F93CF93DF93CDB7DEB762970FB6F8943F
:1008D000DEBF0FBECDBF8C016A017B018091240574
:1008E000811113C00E945D0EDC01CB01845B9B4F24
:1008F000AF4FBF4F8093200590932105A093220511
:10090000B093230581E0809324058091180581111F
:1009100009C062E673E082E195E00E94570C81E035
:100920008093180580914304882309F4FAC10E943A
:100930005D0E8090200590902105A0902205B0903A
:100940002305DC01CB0188199909AA09BB09893E55
:100950009340A105B10508F4E4C10E945D0E6093C7
:10096000200570932105809322059093230520E0B4
:1009700030E0A901C701B6010E943F3320E030E01A
:1009800040E05FE387FD05C0C701B6010E942B323E
:1009900004C0C701B6010E942A320E940933809127
:1009A000B7019091B8019B0129513C4F490124584E
:1009B000334059012A55310969017B01892B09F01E
:1009C000C2C077FF03C0F194E194F1084AE0B70197
:1009D000CE0107960E94220C69E673E0CE010196D3
:1009E0000E94570CBE01695F7F4FCE0101960E94A5
:1009F0008E0B69E673E00E94750BBC0182E195E005
:100A00000E94D90BCE0101960E94F00BCE010796F1
:100A10000E94F00B3FEC831637E0930688F54AE01E
:100A2000B701CE010D960E94220C6091B901709120
:100A3000BA01CE0101960E940904BE016F5F7F4F8B
:100A4000CE0107960E944E0CBE01635F7F4FCE0120
:100A500007960E948E0B69E673E00E94750BBC013D
:100A600082E195E00E94D90BCE0107960E94F00B1F
:100A7000CE0101960E94F00BCE010D960E94F00B64
:100A800087ECA816B104A8F54AE0B701CE010D968F
:100A90000E94220C6091B9017091BA01CE010796B3
:100AA0000E94090469E673E0CE0101960E94570C8A
:100AB000BE01695F7F4FCE0101960E948E0BBE0181
:100AC000635F7F4F0E948E0B69E673E00E94750B97
:100AD000BC0182E195E00E94D90BCE0101960E94F3
:100AE000F00BCE0107960E94F00BCE010D960E94EE
:100AF000F00B23E1C216D10408F0FAC04AE0B701B6
:100B0000CE010D960E94220C6091B9017091BA013C
:100B1000CE0107960E94090468E673E0CE010196B3
:100B20000E94570CBE01695F7F4FCE0101960E9463
:100B30008E0BBE01635F7F4F0E948E0B69E673E0F0
:100B40000E94750BC4C077FF03C0F194E194F108D3
:100B50004AE0B701CE0107960E94220C69E673E0D5
:100B6000CE0101960E94570CBE01695F7F4FCE01F6
:100B700001960E948E0B69E673E00E94750BBC0122
:100B800082E195E00E94D90BCE0101960E94F00B04
:100B9000CE0107960E94F00B3FEC831637E09306D8
:100BA000A8F56091B9017091BA01CE010D960E942D
:100BB0000904C7016AE070E00E9450334AE0CE01A8
:100BC00007960E94220C68E673E0CE0101960E940F
:100BD000570CBE01695F7F4FCE0101960E948E0BBC
:100BE000BE01635F7F4F0E948E0BBC0182E195E0E6
:100BF0000E94D90BCE0101960E94F00BCE01079600
:100C00000E94F00BCE010D960E94F00B87ECA81607
:100C1000B104A8F56091B9017091BA01CE010D96A9
:100C20000E940904C7016AE070E00E9450334AE064
:100C3000CE0107960E94220C67E673E0CE01019672
:100C40000E94570CBE01695F7F4FCE0101960E9442
:100C50008E0BBE01635F7F4F0E948E0BBC0182E151
:100C600095E00E94D90BCE0101960E94F00BCE01B7
:100C700007960E94F00BCE010D960E94F00B23E127
:100C8000C216D104A8F56091B9017091BA01CE01E4
:100C90000D960E940904C7016AE070E00E9450337B
:100CA0004AE0CE0107960E94220C66E673E0CE0170
:100CB00001960E94570CBE01695F7F4FCE010196DD
:100CC0000E948E0BBE01635F7F4F0E948E0BBC01A2
:100CD00082E195E00E94D90BCE0101960E94F00BB3
:100CE000CE0107960E94F00BCE010D960E94F00BEC
:100CF00062E473E0CE0101960E94570C62E175E058
:100D0000CE0101960E948E0B68E673E00E94750B7F
:100D1000BC0182E195E00E94D90BCE0101960E94B0
:100D2000F00B62E175E0C8010E944E0CC8016296AA
:100D30000FB6F894DEBF0FBECDBFDF91CF911F91EC
:100D40000F91FF90EF90DF90CF90BF90AF909F906A
:100D50008F9008950F931F93CF93DF93CDB7DEB796
:100D600068970FB6F894DEBF0FBECDBF8B0177FF3B
:100D700003C0119501951109833091F42091CB06A0
:100D80003091CC0642E050E067EC76E0CE010D9663
:100D90000E946C0CB801CE0101960E94090476C035
:100DA0008C30A1F42091CB063091CC0644E050E089
:100DB00067EC76E0CE0143960E946C0CB801CE0140
:100DC0000D960E94090422E030E016C0803309F03D
:100DD00042C02091CB063091CC0646E050E067EC53
:100DE00076E0CE0143960E946C0CB801CE010D96C0
:100DF0000E94090424E030E040E050E067EC76E037
:100E0000CE0101960E946C0CBE016F5F7F4FCE0138
:100E100007960E944E0CBE01635F7F4FCE0107967E
:100E20000E948E0BBE016D5E7F4F0E948E0BBC0137
:100E300087EC96E00E94D90BCE0107960E94F00B3A
:100E4000CE0101960E94F00BCE010D960E94F00B90
:100E5000CE01439638C0803F41F4B801CE010D96D3
:100E60000E94090424E030E009C0803C71F5B8011B
:100E7000CE010D960E94090426E030E040E050E0EB
:100E800067EC76E0CE0101960E946C0CBE016F5FAC
:100E90007F4FCE0107960E944E0CBE01635F7F4FCD
:100EA000CE0107960E948E0BBC0187EC96E00E9453
:100EB000D90BCE0107960E94F00BCE0101960E943D
:100EC000F00BCE010D960E94F00B68960FB6F894C9
:100ED000DEBF0FBECDBFDF91CF911F910F9108955F
:100EE0000E945D0E609350047093510480935204ED
:100EF0009093530480915604882309F44CC02091A8
:100F0000570430915804C901880F991F21313105C8
:100F100051F0FC01ED56FE4F408151814150510985
:100F2000518340830AC04091B5015091B6014C50A5
:100F300051095093B6014093B501DC01AD56BE4F47
:100F40006D917C911197FC01EE5FFE4F40815181C4
:100F5000641775073CF4FC01E05DFE4F4081518150
:100F60004D935C932031310569F42091B3013091A8
:100F7000B4012130310521F420E820934F0402C050
:100F800010924F04FC01ED56FE4F608171818091FB
:100F900054040C94AA0608950E945D0E60935004B8
:100FA000709351048093520490935304809156049B
:100FB000882309F44CC02091570430915804C9018A
:100FC000880F991F2131310551F0FC01ED56FE4F7C
:100FD000408151814F5F5F4F518340830AC04091F0
:100FE000B5015091B601445F5F4F5093B6014093F5
:100FF000B501DC01AD56BE4F6D917C911197FC019E
:10100000E05DFE4F40815181461757073CF4FC01DB
:10101000EE5FFE4F408151814D935C93203131054D
:1010200069F42091B3013091B4012130310521F4EC
:1010300020E820934F0402C010924F04FC01ED56AB
:10104000FE4F60817181809154040C94AA0608952A
:101050008F929F92AF92BF92DF92EF92FF920F9387
:101060001F93CF93DF93CDB7DEB7A6970FB6F89453
:10107000DEBF0FBECDBF8C018AE0EFEEF2E0DE01F5
:10108000119601900D928A95E1F78091F804909164
:10109000F90401968A3091052CF49093F904809319
:1010A000F80404C01092F9041092F8048091B5017C
:1010B0009091B6012091F8043091F904E1E0F0E05C
:1010C000EC0FFD1FE20FF31FD080489709F03FC0DF
:1010D0000E945D0E4B015C010E947F11BC01CE019C
:1010E0004D960E9409040E948711BC01CE014796CB
:1010F0000E9409040E948F11BC01CE010B960E9430
:101100000904BE01655F7F4FCE0141960E944E0CDF
:10111000BE01695E7F4FCE0141960E948E0BBE01DB
:10112000635E7F4F0E948E0B7C01C501B40128EEE7
:1011300033E040E050E00E94643324E630E040E0D9
:1011400050E00E946433BA01A901C70156C00E9451
:101150005D0E28EE33E040E050E00E94643324E668
:1011600030E040E050E00E9464332BA33CA34DA349
:101170005EA30E947F11BC01CE014D960E9409041E
:101180000E948711BC01CE0147960E9409040E946B
:10119000DB100E94B717809136052BA13CA14DA111
:1011A0005EA1882339F0682F70E08D3028F06C50F4
:1011B000710902C06CE070E0CE010B962BA33CA33A
:1011C0004DA35EA30E940904BE01655F7F4FCE015F
:1011D00041960E944E0CBE01695E7F4FCE01419642
:1011E0000E948E0BBE01635E7F4F0E948E0B2BA16F
:1011F0003CA14DA15EA1BA01A9010E943E0B7C0158
:101200006D2D0E94C80A811103C0C7010E942C0BDA
:10121000B701C8010E944E0CCE0141960E94F00B0E
:10122000CE010B960E94F00BCE0147960E94F00B68
:10123000CE014D960E94F00BC801A6960FB6F89409
:10124000DEBF0FBECDBFDF91CF911F910F91FF90F9
:10125000EF90DF90BF90AF909F908F9008958EBDDC
:1012600000000DB407FEFDCF8EB508950895CF920E
:10127000DF92EF92FF920F931F93CF93DF936C0156
:101280007A018B01C0E0D0E0CE15DF0589F0D801EE
:101290006D918D01D601ED91FC910190F081E02DD1
:1012A000C6010995892B11F47E0102C02196ECCF6D
:1012B000C701DF91CF911F910F91FF90EF90DF90C9
:1012C000CF900895FC01538D448D252F30E0842F5D
:1012D00090E0821B930B541710F0CF96089501975E
:1012E0000895FC01918D828D981761F0828DDF0148
:1012F000A80FB11D5D968C91928D9F5F9F73928F09
:1013000090E008958FEF9FEF0895FC01918D828DFD
:10131000981731F0828DE80FF11D858D90E00895CA
:101320008FEF9FEF0895FC01918D228D892F90E022
:10133000805C9F4F821B91098F73992708958FECD2
:1013400095E00E94930921E0892B09F420E0822F87
:101350000895FC01848DDF01A80FB11DA35ABF4F72
:101360002C91848D90E001968F739927848FA689A4
:10137000B7892C93A089B1898C9180648C93938DCB
:10138000848D981306C00288F389E02D80818F7DBB
:1013900080830895EF92FF920F931F93CF93DF9373
:1013A000EC0181E0888F9B8D8C8D981305C0E889B6
:1013B000F989808185FD24C0F62E0B8D10E00F5F2A
:1013C0001F4F0F731127E02E8C8DE8120CC00FB643
:1013D00007FCFACFE889F989808185FFF5CFCE0136
:1013E0000E94A909F1CF8B8DFE01E80FF11DE35A90
:1013F000FF4FF0820B8FEA89FB898081806207C0F2
:10140000EE89FF896083E889F9898081806480831F
:1014100081E090E0DF91CF911F910F91FF90EF90CD
:101420000895CF93DF93EC01888D8823C9F0EA8972
:10143000FB89808185FD05C0A889B9898C9186FDCD
:101440000FC00FB607FCF5CF808185FFF2CFA889CA
:10145000B9898C9185FFEDCFCE010E94A909E7CF14
:10146000DF91CF91089580E090E0892B29F00E94D0
:101470009F0981110C9400000895833081F028F4B5
:10148000813099F08230A1F008958730A9F088303A
:10149000B9F08430D1F4809180008F7D03C08091B9
:1014A00080008F7780938000089584B58F7702C085
:1014B00084B58F7D84BD08958091B0008F7703C07F
:1014C0008091B0008F7D8093B00008950E94983481
:1014D0000F931F93CF93DF93EC018881998100973D
:1014E00029F02A813B812617370788F48B016F5F2B
:1014F0007F4F0E94CE33009761F0998388831B83CE
:101500000A832C813D81232B11F4FC01108281E0A0
:1015100001C080E0DF91CF911F910F910895FC01F0
:1015200080819181009711F00C94F62F60E070E0BB
:10153000CB010895EF92FF920F931F93CF93DF9308
:10154000FC01248135816115710511F480E019C019
:1015500041155105A9F07B01EC018A01020F131F0F
:10156000B8010E94680A882389F3288139818C8117
:101570009D81B701820F931F0E94A6341D830C83A7
:1015800081E0DF91CF911F910F91FF90EF9008952F
:10159000EF92FF920F931F93CF93DF9300D000D071
:1015A000CDB7DEB77C01862F4AE08E010F5F1F4F5B
:1015B000B80190E00E942830F80101900020E9F77E
:1015C0003197AF01401B510BB801C7010E949A0A25
:1015D0000F900F900F900F90DF91CF911F910F916F
:1015E000FF90EF9008950F931F93CF93DF938C019B
:1015F000EB01FC01808191810097B1F068817981D4
:101600006115710579F0428153812C813D8142172A
:10161000530740F00E94A6348C819D81F801958388
:10162000848313C00E945E2F88819981F801918381
:1016300080838A819B81938382838C819D81958322
:101640008483198218821B821A821D821C82DF9178
:10165000CF911F910F910895CF93DF93EC01888173
:101660009981009711F00E945E2F198218821D82C5
:101670001C821B821A82DF91CF910895EF92FF9214
:101680000F931F93CF93DF93CDB7DEB72D970FB690
:10169000F894DEBF0FBECDBF7C01CB01BA012AE0BA
:1016A0008E010F5F1F4FA8010E945330F801019077
:1016B0000020E9F73197AF01401B510BB801C7017A
:1016C0000E949A0A811103C0C7010E942C0BC70116
:1016D0002D960FB6F894DEBF0FBECDBFDF91CF9130
:1016E0001F910F91FF90EF900895CF93DF93EC013E
:1016F0006115710561F0FB0101900020E9F7319758
:10170000AF01461B570B0E949A0A811103C0CE01FC
:101710000E942C0BCE01DF91CF910895CF93DF93E0
:10172000EC01FB0144815581608171810E949A0A1C
:10173000811103C0CE010E942C0BCE01DF91CF910D
:101740000895EF92FF920F931F93CF93DF93EC01D5
:101750007B018A01BA010E94680A811104C0CE018E
:101760000E942C0B07C01D830C83B70188819981CF
:101770000E94A634CE01DF91CF911F910F91FF906F
:10178000EF900895CF93DF93EC016115710559F047
:10179000FB0101900020E9F73197AF01461B570B81
:1017A0000E94A10B02C00E942C0BCE01DF91CF91B1
:1017B0000895CF93DF93EC01FB018617970761F043
:1017C000608171816115710529F0448155810E9404
:1017D000A10B02C00E942C0BCE01DF91CF91089586
:1017E000FC01808191810C945E2F0F931F93CF9306
:1017F000DF93CDB7DEB7A1970FB6F894DEBF0FBE6B
:10180000CDBF8C01CB01BA01F80111821082138285
:1018100012821582148230E0AE014F5F5F4F0E944A
:101820004830BE016F5F7F4FC8010E94C20BA19676
:101830000FB6F894DEBF0FBECDBFDF91CF911F91E1
:101840000F9108950F931F93CF93DF93CDB7DEB71A
:1018500062970FB6F894DEBF0FBECDBF8C01CB01EF
:10186000F80111821082138212821582148250E0D4
:10187000BE016F5F7F4F0E941D30BE016F5F7F4FC3
:10188000C8010E94C20B62960FB6F894DEBF0FBE6D
:10189000CDBFDF91CF911F910F910895FC0111826F
:1018A000108213821282158214820C94D90BFC01CF
:1018B00011821082138212821582148261157105C1
:1018C00051F0FB0101900020E9F73197AF01461B71
:1018D000570B0C94A10B0895BF92CF92DF92EF9219
:1018E000FF920F931F93CF93DF937C016B018A01CB
:1018F000E9012417350720F4812F8901C42FD82F3F
:1019000062E473E0C7010E94570CD60114968D91D2
:101910009C91159708171907D0F48C179D0708F4A8
:10192000EC01D601ED91FC911197EC0FFD1FB080F9
:1019300010824D915C91BA01600F711FC7010E9426
:10194000C20BD601ED91FC91EC0FFD1FB082C701D7
:10195000DF91CF911F910F91FF90EF90DF90CF908B
:10196000BF9008951F920F920FB60F9211242F93DC
:101970003F934F935F936F937F938F939F93AF9317
:10198000BF93EF93FF938FEC95E00E94A909FF911D
:10199000EF91BF91AF919F918F917F916F915F91E7
:1019A0004F913F912F910F900FBE0F901F90189560
:1019B0001F920F920FB60F9211242F938F939F9324
:1019C000EF93FF93E091DF05F091E0058081E091D6
:1019D000E505F091E60582FD12C090818091E80551
:1019E0008F5F8F732091E905821751F0E091E80530
:1019F000F0E0E153FA4F958F8093E80501C08081B4
:101A0000FF91EF919F918F912F910F900FBE0F90AB
:101A10001F901895CF93DF93282F30E0F901EC5EEB
:101A2000FE4F8491F901EA5BFE4FD491F901EE5C1F
:101A3000FE4FC491CC2391F081110E943D0AEC2FFE
:101A4000F0E0EE0FFF1FE85DFE4FA591B491EC9121
:101A5000ED2381E090E021F480E002C080E090E09E
:101A6000DF91CF9108951F93CF93DF93282F30E01C
:101A7000F901EC5EFE4F8491F901EA5BFE4FD491CF
:101A8000F901EE5CFE4FC491CC23C9F0162F8111F1
:101A90000E943D0AEC2FF0E0EE0FFF1FEC54FF4FC9
:101AA000A591B4918FB7F894111105C09C91ED2FB9
:101AB000E095E92302C0EC91ED2BEC938FBFDF9111
:101AC000CF911F910895CF93DF9390E0FC01EA5BE3
:101AD000FE4F2491FC01EE5CFE4F8491882361F15E
:101AE00090E0880F991FFC01EF53FF4FC591D491EF
:101AF000FC01EC54FF4FA591B491611109C09FB74F
:101B0000F8948881209582238883EC912E230BC042
:101B1000623061F49FB7F8943881822F80958323D7
:101B20008883EC912E2B2C939FBF06C08FB7F8941F
:101B3000E8812E2B28838FBFDF91CF9108951F93CB
:101B4000CF93DF93182FEB0161E00E94630D209784
:101B500011F460E004C0CF3FD10539F461E0812F7A
:101B6000DF91CF911F910C94330DE12FF0E0EC5EEB
:101B7000FE4FE491E330F9F048F4E130B9F0E2309F
:101B8000A1F584B5806284BDC8BD34C0E730E9F0FA
:101B9000E83019F1E43049F580918000806280934B
:101BA0008000D0938B00C0938A0024C084B58068E5
:101BB00084BDC7BD1FC08091800080688093800075
:101BC000D0938900C093880015C08091B0008068D0
:101BD0008093B000C093B3000DC08091B0008062CC
:101BE0008093B000C093B40005C0C038D1050CF09C
:101BF000B5CFAFCFDF91CF911F9108953FB7F89444
:101C00008091500590915105A0915205B0915305D6
:101C100026B5A89B05C02F3F19F00196A11DB11D47
:101C20003FBFBA2FA92F982F8827820F911DA11D82
:101C3000B11DBC01CD0142E0660F771F881F991FBF
:101C40004A95D1F708958F929F92AF92BF92CF920B
:101C5000DF92EF92FF926B017C010E94FE0D4B011F
:101C60005C01C114D104E104F104F1F00E94FE0D05
:101C7000DC01CB0188199909AA09BB09883E934068
:101C8000A105B10570F321E0C21AD108E108F108FD
:101C900088EE880E83E0981EA11CB11CC114D104EB
:101CA000E104F10419F7DDCFFF90EF90DF90CF90C2
:101CB000BF90AF909F908F9008952FB7F894609148
:101CC0004C0570914D0580914E0590914F052FBFA9
:101CD0000895609347057093480580934905909354
:101CE0004A05DC01CB01845D9E4FAF4FBF4F80930F
:101CF000430590934405A0934505B093460582E0C3
:101D000090E090934205809341050E945D0E6093A0
:101D10003D0570933E0580933F05909340050895DF
:101D20001F920F920FB60F9211242F933F938F9310
:101D30009F93AF93BF9380914C0590914D05A091D7
:101D40004E05B0914F0530914B0523E0230F2D3701
:101D500020F40196A11DB11D05C026E8230F0296AF
:101D6000A11DB11D20934B0580934C0590934D050B
:101D7000A0934E05B0934F05809150059091510569
:101D8000A0915205B09153050196A11DB11D8093FC
:101D9000500590935105A0935205B0935305BF9100
:101DA000AF919F918F913F912F910F900FBE0F9008
:101DB0001F9018951F920F920FB60F9211242F9318
:101DC0003F934F935F936F937F938F939F93EF9383
:101DD000FF934091C1055091C2056091C305709178
:101DE000C405411551056105710599F080913A04CA
:101DF000E0913B04F0913C04908189278083141684
:101E0000150616061706D4F44150510961097109E7
:101E100015C0809170008D7F8093700090913A047E
:101E2000E0913B04F0913C048081282F30E0892F21
:101E300090E0809590958223932380834093C10501
:101E40005093C2056093C3057093C405FF91EF9151
:101E50009F918F917F916F915F914F913F912F91C2
:101E60000F900FBE0F901F9018951F920F920FB6F4
:101E70000F9211242F933F938F939F93AF93BF9310
:101E8000EF93FF938091C5059091C605A091C7057A
:101E9000B091C805892B8A2B8B2B51F180913D0481
:101EA000E0913E04F0913F049081892780838091E6
:101EB000C5059091C605A091C705B091C805181633
:101EC00019061A061B064CF58091C5059091C605AA
:101ED000A091C705B091C8050197A109B1098093E8
:101EE000C5059093C605A093C705B093C80515C056
:101EF00080916F008D7F80936F0090913D04E09101
:101F00003E04F0913F048081282F30E0892F90E03B
:101F100080959095822393238083FF91EF91BF91C9
:101F2000AF919F918F913F912F910F900FBE0F9086
:101F30001F9018951F920F920FB60F9211242F9396
:101F40003F938F939F93AF93BF93EF93FF938091B2
:101F5000C9059091CA05A091CB05B091CC05892BFC
:101F60008A2B8B2B51F180914004E0914104F09138
:101F700042049081892780838091C9059091CA0588
:101F8000A091CB05B091CC05181619061A061B06B0
:101F90004CF58091C9059091CA05A091CB05B091EF
:101FA000CC050197A109B1098093C9059093CA0591
:101FB000A093CB05B093CC0515C080916E008D7FAA
:101FC00080936E0090914004E0914104F0914204AE
:101FD0008081282F30E0892F90E080959095822392
:101FE00093238083FF91EF91BF91AF919F918F9148
:101FF0003F912F910F900FBE0F901F9018953F9219
:102000004F925F926F927F928F929F92AF92BF9208
:10201000CF92DF92EF92FF920F931F93CF93DF93B4
:10202000382E962E842EF90184E6E816F1042CF061
:1020300082EBE81A87E0F80A03C08EE1E80EF11C93
:10204000E0923A0500933905E09338053092360561
:102050009092350580923405AE2DB0E020E833E350
:1020600041EE51E00E94D9312B013C0122EB37E0D7
:10207000FF2484E6C82ED12CC0E9D1E0C901825BDF
:1020800097408E159F05DCF4C90183709927892B31
:1020900099F4C901B6010E945033892B31F4C9016A
:1020A000BE010E945033892B39F480E8480E81E547
:1020B000581E81E0681E711C2F5F3F4FDFCF8EE4FA
:1020C000E81A88EFF80AC70164E670E00E9450330E
:1020D0006C01C70160E971E00E9450335C01C1E00E
:1020E000D0E0112783E0E822FF24C017D1072CF5A8
:1020F000C230D10589F4E114F10471F4C114D104A2
:1021000019F4A114B10441F480E8480E8BE3581E81
:1021100086E2681E711C0FC0DE01A850BD4FAC9155
:10212000B0E020E831E541E050E00E94D931460EB0
:10213000571E681E791E2196D8CF292D30E0ACE3BA
:10214000B0E00E941B326B017C01C80CD11CE11C69
:10215000F11C232D30E0A0E1BEE00E941B32C60E30
:10216000D71EE81EF91EDF01BB27119720E831E5D5
:1021700041E050E00E94B233DC01CB018C0D9D1D8B
:10218000AE1DBF1DBC01CD01640D751D861D971DC3
:10219000DF91CF911F910F91FF90EF90DF90CF9043
:1021A000BF90AF909F908F907F906F905F904F9077
:1021B0003F900C94690ECF92DF92EF92FF920F93B3
:1021C0001F930E945D0EC0903D05D0903E05E090AB
:1021D0003F05F09040058B019C010C191D092E094B
:1021E0003F098091470590914805A0914905B0911C
:1021F0004A05083E134021053105D0F00196A11D86
:10220000B11D8093470590934805A0934905B0936D
:102210004A05B701A60148515C4F6F4F7F4F40936D
:102220003D0550933E0560933F0570934005C9CF2F
:1022300040914305509144056091450570914605D4
:1022400084179507A607B70788F1E0913B05F09141
:102250003C05309759F10995611571058105910586
:1022600019F00E94690E22C080914705909148059F
:10227000A0914905B0914A05845D9E4FAF4FBF4F75
:102280008093430590934405A0934505B09346057C
:1022900081E090E02091410530914205232B11F41B
:1022A00080E090E09093420580934105609147055E
:1022B000709148058091490590914A051F910F91B1
:1022C000FF90EF90DF90CF9008950E94DB100E9466
:1022D000B71780913A0590E08E54984F08950E9468
:1022E000DB100E94B7178091390590E008950E9495
:1022F000DB100E94B7178091380590E008950E9486
:10230000DB100E94B7178091340590E008950E9479
:10231000DB100E94B7178091350590E008950E9468
:10232000DB100E94B7178091360590E008953F9228
:102330004F925F926F927F928F929F92AF92BF92D5
:10234000CF92DF92EF92FF920F931F93CF93DF9381
:1023500000D000D0CDB7DEB72091CE0527FDAAC1B1
:1023600049835A836B837C838C0161E08091CD0526
:102370000E94630D3090CE05832D8D7F4801A12CE6
:10238000B12C09F0B7C060E072E18AE790E0A501E6
:1023900094010E94863329013A0169017A0121E002
:1023A000C21AD108E108F1088FEFC816D104E10480
:1023B000F10409F008F44CC060E472E48FE090E0AE
:1023C000A50194010E94863369017A0191E0C91A3E
:1023D000D108E108F108A2E03A1220C0BFEFCB1605
:1023E000D104E104F10409F008F462C160E970ED80
:1023F00083E090E0A50194010E94863369017A018F
:10240000E1E0CE1AD108E108F108FFEFCF16D104C0
:10241000E104F10409F0C0F583E065C02FEFC216B6
:10242000D104E104F104B1F0A8F068E478EE81E0B1
:1024300090E0A50194010E94863369017A0181E050
:10244000C81AD108E108F108332009F4D9C027C11E
:1024500081E001C082E0332091F045C0D301C20188
:102460002AE0B595A795979587952A95D1F76C01A0
:102470007D01E1E0CE1AD108E108F10885E095B5CB
:10248000987F892B85BD66C068E478EE81E090E096
:10249000A50194010E94863369017A01B1E0CB1A4B
:1024A000D108E108F108EFEFCE16D104E104F10400
:1024B00009F008F4A3C064E274EF80E090E0A501A5
:1024C00094010E94863369017A0191E0C91AD1080A
:1024D000E108F108AFEFCA16D104E104F10411F0EC
:1024E00008F0B0C085E09091B100987F892B80936F
:1024F000B10030C060E072E18AE790E0A50194018C
:102500000E94863369017A01F1E0CF1AD108E1080F
:10251000F108C114D10421E0E206F10488F068E476
:1025200078EE81E090E0A50194010E948633690174
:102530007A0181E0C81AD108E108F10893E001C0EE
:1025400091E0A1E03A1206C080918100887F892B3A
:102550008093810089819A81AB81BC81892B8A2BF0
:102560008B2B81F0D801AA0FBB1F29813A814B81A7
:102570005C810E94D93128EE33E040E050E00E94B7
:10258000643303C02FEF3FEFA90191E03916A1F0AA
:10259000A2E03A1619F131108DC0C7BC2093C905CD
:1025A0003093CA054093CB055093CC0580916E00C3
:1025B000826080936E007EC0D0928900C0928800B5
:1025C0002093C5053093C6054093C7055093C805B1
:1025D00080916F00826080936F006CC0C092B300E6
:1025E0002093C1053093C2054093C3055093C405A1
:1025F000809170008260809370005CC084E073CF33
:102600008FEFC816D104E104F104D1F0C8F062E103
:102610007AE780E090E0A50194010E948633690189
:102620007A01F1E0CF1AD108E108F1082FEFC216C4
:10263000D104E104F10411F008F010CF84E01FCFC1
:1026400083E01DCF62E17AE780E090E0A50194018C
:102650000E94863369017A0191E0C91AD108E10824
:10266000F108AFEFCA16D104E104F104B1F0A8F00B
:10267000D301C2014AE0B595A795979587954A95EC
:10268000D1F76C017D01E1E0CE1AD108E108F10833
:10269000332009F4F3CE87E026CF86E0DCCEBFEF0F
:1026A000CB16D104E104F10409F060F684E0D3CE46
:1026B00082E019CF0F900F900F900F90DF91CF9184
:1026C0001F910F91FF90EF90DF90CF90BF90AF9050
:1026D0009F908F907F906F905F904F903F90089564
:1026E000009769F0FC0101900020E9F73197AF01F4
:1026F000481B590BBC018FEC95E00C94370980E026
:1027000090E008950F931F93CF93DF938C01C0E067
:10271000D0E0F801EC0FFD1F6491662371F0E091A9
:10272000CF05F091D0050190F081E02D8FEC95E080
:102730000995892B11F02196ECCFCE01DF91CF9135
:102740001F910F910895CF93DF930E948213EC01A4
:1027500080E493E00E9470138C0F9D1FDF91CF9156
:1027600008959091D306E091D406F091D506F8949F
:102770008181292F20958223818378948DE743E0FE
:1027800050E0815021F1DA011197F1F730813923BE
:10279000C1F3F8948281822382838181892B818392
:1027A0007894ABE7B7E01197F1F7F894818128238B
:1027B0002183A3E1B1E01197F1F78081982381E0B3
:1027C00009F080E07894E3E6F6E03197F1F70895B8
:1027D0009091D306E091D406F091D506392F30952B
:1027E00080FF13C0F8942281832F8223828381810A
:1027F000892B8183A3E2B0E01197F1F78281982BB6
:102800009283789487ED90E012C0F8942281832F10
:10281000822382838181892B8183AFEFB0E011977E
:10282000F1F78281982B928378948FE090E0019762
:10283000F1F708950F931F93CF93DF93082FC8E00C
:10284000D0E011E081E0912F902309F480E00E9414
:10285000E813110F2197B1F7F894E091D406F091A5
:10286000D50691818091D306809598239183E0913C
:10287000D406F091D5069281892382837894DF91E2
:10288000CF911F910F9108958091D306E091D406C6
:10289000F091D506F8949181982B91832281982FFD
:1028A000909529232283A7E0B0E01197F1F72181C9
:1028B00092239183A3E2B0E01197F1F7908178948D
:1028C000EFECF0E03197F1F7982381E009F480E034
:1028D00008950F931F93CF93DF9308E010E0D1E0AA
:1028E000C0E00E9444148111CD2BDD0F015011096D
:1028F000C1F78C2FDF91CF911F910F9108958F9287
:102900009F92AF92BF92CF92DF92EF92FF920F937E
:102910001F93CF93DF93CDB7DEB7A1970FB6F8948F
:10292000DEBF0FBECDBF6C01990FEE08FF08F7FEAA
:1029300031C0E091CF05F091D0050190F081E02DFC
:102940006DE28FEC95E009958C0122273327A901D0
:102950002C193D094E095F0919A2CE0181967C010F
:102960009AE0892E912CA12CB12CCA01B901A501A4
:1029700094010E946433605DF70162937F01211529
:1029800031054105510589F7CF010E947013080FE9
:10299000191F1EC0A701960119A28E010F5D1F4FBE
:1029A0008AE0C82ED12CE12CF12CCA01B901A70173
:1029B00096010E946433605DF80162938F012115D6
:1029C00031054105510589F7CF010E9470138C0133
:1029D00080E493E00E947013800F911FA1960FB6C0
:1029E000F894DEBF0FBECDBFDF91CF911F910F9145
:1029F000FF90EF90DF90CF90BF90AF909F908F901F
:102A0000089590919E059111FCCF813208F080E2EB
:102A100091E090939E0590939D052FEF20939C0548
:102A200010929B05280F20939A05909399059091F9
:102A30009905906D9093990590919805913061F466
:102A400010929805909199059093BB009091BC00CD
:102A500093FDF8CF95EC01C095EE9093BC0090915A
:102A60009E059130E1F390919B05981710F48091A9
:102A70009B05A8E7B5E021EA35E0F9019E2F921BFE
:102A8000981718F49D919193F9CF1092A005809317
:102A90009F0508952091770590917605213208F0E1
:102AA0004AC080919E058111FCCF32E030939E0593
:102AB00031E030939D053FEF30939C0510929B05CC
:102AC00020939A05A6E5B5E048E755E0FA013E2FC8
:102AD000341B321718F43D913193F9CF10929905B8
:102AE00020919905990F922B9093990590919805B3
:102AF000913061F410929805909199059093BB00E4
:102B00009091BC0093FDF8CF95EC01C095EE9093A9
:102B1000BC0090919E059230E1F390919C059F3FFF
:102B200079F080919C05803241F080919C05803342
:102B300031F084E005C081E003C082E001C083E0A1
:102B40001092550510927705109254050895DF9262
:102B5000EF92FF920F931F93CF93DF9300D0CDB7E7
:102B6000DEB7F82E162F81E08093540588E6809317
:102B70007605109255051092770560E08CE696E098
:102B80002A8349830E94B9168AE0D82E4981842F6E
:102B90006D2D0E944433692F30E1839F600D112415
:102BA0008CE696E00E94B916812F6D2D0E94443369
:102BB000692F30E1839F600D11248CE696E00E941E
:102BC000B9168F2D6D2D0E944433692F30E1839FFC
:102BD000600D11248CE696E00E94B91661E08CE647
:102BE00096E00E94B9162A81822F6D2D0E944433EF
:102BF000692F20E1829F600D11248CE696E00E94EF
:102C0000B916802F6D2D0E944433692F30E1839FC8
:102C1000600D11248CE696E00E94B9168E2D6D2D64
:102C20000E944433692F20E1829F600D11248CE6BD
:102C300096E00E94B91660E08CE696E00E94B91614
:102C40000F900F90DF91CF911F910F91FF90EF9018
:102C5000DF900C944A1585ED8093BC008091BC00F8
:102C600084FDFCCF10929E05089540912207262FE7
:102C700030E0240F311D21323105DCF420919E0516
:102C80002430C9F4FC0180E090E0861758F43091BC
:102C900022072191DC01A050B94FA30FB11D2C9345
:102CA0000196F3CF80912207680F6093220780E09E
:102CB000089581E0089582E008950895E091A005C7
:102CC00080919F05E81730F4F0E0EF55FA4F8081CE
:102CD00090E008958FEF9FEF08959091A005809167
:102CE0009F05981750F4E92FF0E0EF55FA4F208137
:102CF00030E09F5F9093A00502C02FEF3FEFC90126
:102D0000089580919F0590E02091A005821B910974
:102D10000895CF92DF92EF92FF920F931F93CF937C
:102D2000DF937C01262F972F8A01809154058823F9
:102D300091F0C62FD72F6E01C40ED51ECC15DD0520
:102D400071F06991D701ED91FC910190F081E02D36
:102D5000C7010995F3CF642F822F0E943516C80151
:102D6000DF91CF911F910F91FF90EF90DF90CF9067
:102D70000895CF93DF931F92CDB7DEB7698320917B
:102D800054052223D1F020917705203240F021E034
:102D900030E0FC013383228380E090E015C0809115
:102DA0005505E82FF0E0EA5AFA4F998190838F5F3A
:102DB000809355058093770505C061E0CE010196AB
:102DC0000E94351681E090E00F90DF91CF91089539
:102DD000089580E090E008954091FE065091FF062E
:102DE0002091FC063091FD064217530719F080E050
:102DF0009CE302C08FEF9FEF4F5F5F4F4330510561
:102E000029F05093FF064093FE0608951092FF06A6
:102E10001092FE062F5F3F4F2330310529F030938B
:102E2000FD062093FC0608951092FD061092FC0604
:102E3000089520914A0430914B0402C0359527959E
:102E40008A95E2F720FF03C080E09CE308958FEFAE
:102E50009FEF0895CF92DF92EF92FF921F93CF934F
:102E6000DF9390914E04911103C08FEF9FEF77C0D5
:102E700090914D049923C9F3182FC0915404D09117
:102E800055048091F40681110DC00E945D0E60937F
:102E9000F0067093F1068093F2069093F30681E0BA
:102EA0008093F4060E945D0EC090F006D090F1066B
:102EB000E090F206F090F306DC01CB018C199D093D
:102EC000AE09BF098D329140A105B105F8F00E940D
:102ED0005D0E6093F0067093F1068093F206909376
:102EE000F3068091EF0691E098279093EF069923DF
:102EF00029F01092EE061092ED0608C0809154045D
:102F0000909155049093EE068093ED062091ED0686
:102F10003091EE062095309540914F0450E02423E7
:102F2000352326FF04C081E08093EC0602C0109296
:102F3000EC0627FF04C081E08093EB0602C01092EC
:102F4000EB068091EF06882309F48FCF02C0D59558
:102F5000C7951A95E2F7C0FF88CF80E09CE3DF9128
:102F6000CF911F91FF90EF90DF90CF9008954F92F7
:102F70005F926F927F928F929F92AF92BF92CF9209
:102F8000DF92EF92FF920F931F93CF93DF934B014A
:102F90005C018091470790914807A0914907B09143
:102FA0004A0788169906AA06BB0609F4C2C08CE334
:102FB000C82ED12CE12CF12CC501B401A70196013A
:102FC0000E94643360933405CA01B901A7019601D8
:102FD0000E94643360933505CA01B90128E130E0ED
:102FE00040E050E00E94643369017A016093360545
:102FF000CA01B9016C5F7F4F8F4F9F4F27E030E0D0
:1030000040E050E00E9464336F5F60933705412CCD
:10301000512C320140E004E610E0C0E9D1E0242F59
:1030200030E02E54384FF901E370FF27309789F4D0
:10303000C901B8010E945033892B31F4C901BE0186
:103040000E945033892B29F48EE691E0A0E0B0E095
:1030500004C08DE691E0A0E0B0E0480E591E6A1E63
:103060007B1ED301C201AA27BB27C816D906EA06D0
:10307000FB0610F04F5FD3CF40933A05309799F499
:10308000C90164E670E00E945033892B39F4C9010C
:1030900060E971E00E945033892B29F48EE691E0BB
:1030A000A0E0B0E004C08DE691E0A0E0B0E0481AF6
:1030B000590A6A0A7B0AC418D508E608F708C90144
:1030C00064E670E00E945033EC01C90160E971E0F0
:1030D0000E945033A9EFB2E020E0213039F430975C
:1030E00049F4209729F4009729F402C04C9103C0B9
:1030F0004DE101C04CE150E060E070E0C416D5063F
:10310000E606F70640F0C41AD50AE60AF70A2F5F6A
:1031100011962C3011F72F5F20933905C394C0927C
:1031200038058092470790924807A0924907B092CD
:103130004A07DF91CF911F910F91FF90EF90DF90A1
:10314000CF90BF90AF909F908F907F906F905F9047
:103150004F900895CF92DF92EF92FF92CF93DF933B
:10316000EC010E945D0E6B017C018F850E940A0DAF
:1031700021E0892B09F420E0298B8889811103C083
:1031800081E08227898B29898A89281721F0CD8AB5
:10319000DE8AEF8AF88E8D899E89AF89B88DB70156
:1031A000A601481B590B6A0B7B0BDB01CA01CB80C4
:1031B000DC80ED80FE80C416D506E606F70664F4D2
:1031C0003A81231749F02A83222331F04B895C8905
:1031D0004F5F5F4F5C8B4B8B3A8131110CC0CF80BE
:1031E000D884E984FA84C816D906EA06FB06ACF44A
:1031F0008B899C890EC0CB84DC84ED84FE84C81648
:10320000D906EA06FB064CF48B899C899195819539
:103210009109998388831C8A1B8A2A8BDF91CF911D
:10322000FF90EF90DF90CF9008950F931F93CF936F
:10323000DF931F92CDB7DEB78C01862FF801678729
:10324000408B91E04927418B428B148A138A11826B
:1032500010821282158A168A178A108E44E150E075
:1032600060E070E043835483658376834AEF50E0E7
:1032700060E070E0478350876187728748EE53E0D3
:1032800060E070E0438754876587768760E0298334
:103290000E94630DF8018089298181110BC02223CE
:1032A00049F061E087850F90DF91CF911F910F91D9
:1032B0000C94330D0F90DF91CF911F910F910895D2
:1032C0001F920F920FB60F9211242F933F934F939B
:1032D0005F936F937F938F939F93AF93BF93EF937E
:1032E000FF938091B900887F803609F49CC068F50F
:1032F000883209F45BC090F4803109F454C038F48A
:10330000882309F4F6C0883009F44DC0F6C088312E
:1033100009F44CC0803209F45DC0EFC0803409F478
:1033200068C048F4803309F455C0883309F0E5C01B
:1033300080939C05D8C0803509F44FC0883509F4C6
:103340005DC0883409F0D9C0D6C0883909F4C7C037
:10335000A8F4883709F467C038F4883609F463C0E4
:10336000803709F460C0C9C0883809F4B8C0803912
:1033700009F45FC0803809F0C0C05BC0803B09F42D
:1033800086C038F4803A09F466C0883A09F47FC0F0
:10339000B4C0803C09F4A7C0883C09F4A4C0883BB1
:1033A00009F48AC0AAC08091990510C090919B052C
:1033B00080919A05981770F5E0919B0581E08E0F3A
:1033C00080939B05F0E0E858FA4F80818093BB0022
:1033D00085EC86C080939C058EC0E0919B0581E0C2
:1033E0008E0F80939B058091BB00F0E0E858FA4F68
:1033F000808390919B0580919A056EC0E0919B051A
:1034000081E08E0F80939B058091BB00F0E0E8582F
:10341000FA4F808380919D0581116DC081E080937A
:10342000980584EA61C083E080939E051092460768
:10343000CFCF80914607803208F051C0E091460717
:1034400081E08E0F809346078091BB00F0E0EA5D3B
:10345000F84F8083BDCF85EC8093BC0010929E0511
:1034600080914607803230F4E0914607F0E0EA5D53
:10347000F84F10826091460770E0E0912407F091C8
:10348000250786E297E009951092460736C084E04A
:1034900080939E051092230710922207E091200747
:1034A000F0912107099580912207811105C081E0E3
:1034B0008093220710920007E091230781E08E0F8E
:1034C00080932307F0E0E050F94F80818093BB00A8
:1034D0009091230780912207981708F479CF85E807
:1034E0008093BC000AC085EC8093BC0010929E05BE
:1034F00004C010929C050E942B16FF91EF91BF9182
:10350000AF919F918F917F916F915F914F913F917B
:103510002F910F900FBE0F901F9018950C94CB31E8
:103520000C94C3312F923F924F925F926F927F9291
:103530008F929F92AF92BF92CF92DF92EF92FF92C3
:103540000F931F93CF93DF9300D000D0CDB7DEB79A
:103550000E94FE0D0091E7061091E8062091E90611
:103560003091EA06DC01CB01801B910BA20BB30B5F
:10357000803D9740A105B10508F41CC20E94FE0DD4
:103580006093E7067093E8068093E9069093EA0655
:1035900087EC96E00E948F0A2AE0822E912CA12CC3
:1035A000B12CA50194010E948633660F771FFB01A1
:1035B000E65DFC4F6080718087E090E029833A836C
:1035C0004B835C830E942A176C0180E090E00E948C
:1035D0001917C822D9220E94EC167C0129813A8150
:1035E0004B815C81CA01B901A50194010E94863317
:1035F000660F771FFB01E65DFC4F0081118186E0BD
:1036000090E029833A834B835C830E942A175C01F4
:1036100081E090E00E941917A822B9220E94EC16BE
:103620008A219B2108231923C801A0E0B0E0CE2005
:10363000DF20C620D720E12CF12C1AE0CC0CDD1CB9
:10364000EE1CFF1C1A95D1F7C82AD92AEA2AFB2AB0
:103650008091EC0629813A814B815C81811102C005
:103660006894F6F88091EB06811102C06894F7F82F
:1036700060E08AE029833A834B835C830E94330DA8
:103680008F2D0E942F098E2D0E942F098D2D0E94B3
:103690002F098C2D0E942F098AE0C82ED12CE12CF5
:1036A000F12C29813A814B815C81CA01B901A701C2
:1036B00096010E948633660F771FFB01E65DFC4F83
:1036C0008080918085E090E029833A834B835C83FE
:1036D0000E942A175C0182E090E00E9419178A215B
:1036E0009B218C01082119210E94EC164C01298193
:1036F0003A814B815C81CA01B901A70196010E9400
:103700008633660F771FFB01E65DFC4F608071809A
:1037100084E090E029833A834B835C830E942A17DC
:103720005C0183E090E00E9419178A219B216822A6
:1037300079220E94EC1680229122A12CB12C140136
:103740002501F4E1220C331C441C551CFA95D1F7D9
:1037500086219721A0E0B0E01AE0880F991FAA1FE8
:10376000BB1F1A95D1F732012101482A592A6A2A2A
:103770007B2A29813A814B815C81CA01B901A70169
:1037800096010E948633660F771FFB01E65DFC4FB2
:10379000E080F18083E090E029833A834B835C836F
:1037A0000E942A178C0184E090E00E941917802360
:1037B0009123E822F9220E94EC168E219F21A0E09D
:1037C000B0E0482A592A6A2A7B2A8091EC0629818E
:1037D0003A814B815C81882319F0E89476F802C025
:1037E000689476F88091EB06882319F0E89477F8CE
:1037F00002C0689477F8872D29833A834B835C83D2
:103800000E942F09862D0E942F09852D0E942F09C5
:10381000842D0E942F098AE0C82ED12CE12CF12C96
:1038200029813A814B815C81CA01B901A7019601C6
:103830000E948633660F771FFB01E65DFC4F808098
:10384000918082E090E029833A834B835C830E94DD
:103850002A175C0185E090E00E9419178A219B21BC
:103860008C01082119210E94EC164C0129813A8112
:103870004B815C81CA01B901A70196010E94863380
:10388000660F771FFB01E65DFC4F6080718081E071
:1038900090E029833A834B835C830E942A175C0162
:1038A00086E090E00E9419178A219B2168227922E4
:1038B0000E94EC1680229122A12CB12C140125012A
:1038C000F4E1220C331C441C551CFA95D1F78621D7
:1038D0009721A0E0B0E01AE0880F991FAA1FBB1F34
:1038E0001A95D1F732012101482A592A6A2A7B2ADE
:1038F00029813A814B815C81CA01B901A7019601F6
:103900000E948633660F771FFB01E65DFC4F008146
:10391000118180E090E00E942A176C0187E090E01E
:103920000E9419178C219D216C01C022D1220E9476
:10393000EC168C219D216C01E12CF12CC428D5289A
:10394000E628F7288091EC06882319F0E894F6F829
:1039500002C06894F6F88091EB06882319F0E89489
:10396000F7F802C06894F7F88F2D0E942F098E2D6A
:103970000E942F098D2D0E942F098C2D0E942F0946
:1039800061E08AE00F900F900F900F90DF91CF9140
:103990001F910F91FF90EF90DF90CF90BF90AF906D
:1039A0009F908F907F906F905F904F903F902F905F
:1039B0000C94330D0F900F900F900F90DF91CF91DB
:1039C0001F910F91FF90EF90DF90CF90BF90AF903D
:1039D0009F908F907F906F905F904F903F902F902F
:1039E0000895CF93DF93CDB7DEB7C856D1090FB690
:1039F000F894DEBF0FBECDBF789484B5826084BDDD
:103A000084B5816084BD85B5826085BD85B58160E2
:103A100085BD80916E00816080936E001092810060
:103A2000809181008260809381008091810081601B
:103A300080938100809180008160809380008091DC
:103A4000B10084608093B1008091B0008160809368
:103A5000B00080917A00846080937A0080917A002F
:103A6000826080937A0080917A00816080937A00EE
:103A700080917A00806880937A001092C10061E0A2
:103A800085E00E94630D60E085E00E94330D109296
:103A9000A00510929F05109255051092770510927F
:103AA0009E0581E080939D051092980561E082E17A
:103AB0000E94330D61E083E10E94330D8091B900D3
:103AC0008E7F8093B9008091B9008D7F8093B9007B
:103AD00088E48093B80085E48093BC00E091DF0522
:103AE000F091E00582E08083E091DB05F091DC0558
:103AF0001082E091DD05F091DE0580E18083109277
:103B0000E705E091E305F091E40586E08083E0912C
:103B1000E105F091E205808180618083E091E1051B
:103B2000F091E205808188608083E091E105F09169
:103B3000E205808180688083E091E105F091E205F3
:103B400080818F7D808383E398E090934901809307
:103B5000480181EE97E090931B0180931A019093A6
:103B6000AC018093AB0180EF90E090937C01809357
:103B70007B0181E090E00E94901A8C3019F088E17E
:103B800090E002C08CE090E09093B6018093B50184
:103B900080E090E00E94901A882321F081E08093D9
:103BA000600102C01092600182E090E00E94901AD1
:103BB0008F3F29F41092AE011092AD0105C090E044
:103BC0009093AE018093AD0183E090E00E94901A43
:103BD0008F3F29F41092B0011092AF0105C090E020
:103BE0009093B0018093AF0184E090E00E94901A1E
:103BF0008F3F29F41092B2011092B10105C090E0FC
:103C00009093B2018093B10186E090E00E94901AF7
:103C10008F3F29F41092B4011092B30105C090E0D7
:103C20009093B4018093B30187E090E00E94901AD2
:103C30008F3F19F41092EF0406C091E0811101C08A
:103C400090E09093EF048BE090E00E94901A8F3FF9
:103C500029F41092B8011092B70105C090E090933A
:103C6000B8018093B7018CE090E00E94C331609668
:103C70008FAF60978DE090E00E94C33161968FAF67
:103C8000619761968EAD9FAD61978F3F910529F445
:103C90001092BA011092B90104C09093BA018093B6
:103CA000B9018EE090E00E94901A8F3F29F090E0D9
:103CB0009093BC018093BB018FE090E00E94901A2A
:103CC0008F3F29F090E09093BE018093BD0180E189
:103CD00090E00E94901A8F3F29F090E09093C001ED
:103CE0008093BF0161E089E00E94630D61E086E09E
:103CF0000E94630D61E083E00E94630D8091670480
:103D0000833008F083C092E09093CD05E82FF0E077
:103D1000E254FF4FE491E093CE058F5F80936704F8
:103D2000E13031F1E23009F44AC0E11172C014BC53
:103D300015BC84B5826084BD85B5816085BD8091E8
:103D4000CD0590E0FC01EE5CFE4FE491F0E0EE0F5B
:103D5000FF1FEC54FF4F2591349130934204209380
:103D60004104FC01EA5BFE4FE491E093400451C042
:103D70001092800010928100809181008860809371
:103D80008100809181008160809381008091CD05C8
:103D900090E0FC01EE5CFE4FE491F0E0EE0FFF1FBF
:103DA000EC54FF4F2591349130933F0420933E040F
:103DB000FC01EA5BFE4FE491E0933D042AC01092BF
:103DC000B0001092B1008091B00082608093B0008A
:103DD0008091B10081608093B1008091CD0590E029
:103DE000FC01EE5CFE4FE491F0E0EE0FFF1FEC549F
:103DF000FF4F2591349130933C0420933B04FC0108
:103E0000EA5BFE4FE491E0933A0403C08FEF8093A6
:103E1000CE0580910001909101010E947D02909356
:103E200001018093000161E08AE00E94630D61E07E
:103E300088E00E94630D60E088E00E94330D1FB7A8
:103E4000F89480916804811127C0ECE3F1E084913B
:103E5000E0E5F1E09491E82FF0E0EE0FFF1FEF5363
:103E6000FF4FA591B491EC91E92321F461E08AE040
:103E70000E94330D61E08AE00E94630D8CB5806181
:103E80008CBD8CB580648CBD61E08DE00E94630DBB
:103E900061E08BE00E94630D809168048F5F8093E6
:103EA00068041FBF8CB5837F88608CBD8CB58C7F08
:103EB00081608CBD8DB581608DBD62E08EE00E9419
:103EC000630D62E080E10E94630D62E08FE00E947A
:103ED000630D61E082E00E94630D04E110E020E0E8
:103EE00030E00093B1061093B2062093B3063093EE
:103EF000B4064EE150E060E070E04093B5065093A8
:103F0000B6066093B7067093B80680ED97E0A0E020
:103F1000B0E08093B9069093BA06A093BB06B09325
:103F2000BC06009398061093990620939A06309346
:103F30009B0640939C0650939D0660939E0670934B
:103F40009F068093A0069093A106A093A206B0932B
:103F5000A30600937F06109380062093810630937A
:103F6000820640938306509384066093850670937F
:103F700086068093870690938806A0938906B0935F
:103F80008A068091E00681110C94BA2D0E94B1132B
:103F9000882311F40C94BA2D80EF0E941A1401E0CA
:103FA000F12CE12C11E00E944414A8968FAFA89741
:103FB0000E944414A8969FADA897913019F48130BF
:103FC000C1F435C02F2D30E098131DC08091DE065E
:103FD000181738F4F901ED52F94F8381802349F421
:103FE00002C0181731F090E0193060F41093DF062A
:103FF00009C0EF2DF0E0ED52F94F8381802B8383D0
:1040000091E009C0E12EF901ED52F94F2381802F93
:10401000809582238383892F0E94E8131F5F000FFE
:1040200011F4F39401E027E02F1508F0BCCF113410
:1040300010F40C94BA2DE092DE06E11003C081E08A
:104040008093E0068091D606882311F40C94BA2D53
:10405000A6EDB6E0E9E7F4E08D91819334E0E13834
:10406000F307D1F781E080934304809143048823D0
:1040700009F451C00E94B11385E50E941A1409E7A2
:1040800014E098E0F92EF00EF80181918F010E9462
:104090001A14F012F9CF8EEB0E941A140DE614E0F8
:1040A00089E0F82EF00E0E946914F80181938F01C7
:1040B000FE12F9CF60916E0470E0762F6627809132
:1040C0006D04682B072E000C880B990B0E94A630FC
:1040D00020E030E040E85DE30E9405316B017C01A7
:1040E0000E94093370936C0460936B0426E636E6F5
:1040F00046EE5FE3C701B6010E94053120E030E0E3
:1041000040E052E40E942B320E94093370936A040B
:104110006093690404C010926C0410926B0484EEE6
:1041200090E00E94821325E030E042E050E061EE32
:1041300076E0CE0101966C010E946C0C22E030E02A
:1041400041E050E061EE76E0CE01875B9F4F0E9438
:104150006C0CBE01675B7F4FCE018D5B9F4F0E9451
:104160004E0C6EE373E0CE018D5B9F4F0E94750B8A
:10417000B6010E948E0BFC014481558160817181E2
:104180008FEC95E00E94370980E493E00E94701361
:10419000CE018D5B9F4F0E94F00BCE01875B9F4F3E
:1041A0000E94F00BC6010E94F00B83E493E00E9492
:1041B000701380E493E00E94701380914B079091FC
:1041C0004C07009711F48FE497E09601281B390BF8
:1041D000C9010E947F148091000190910101909388
:1041E0005A04809359040E947D026FEF70E089E0C9
:1041F0000E949F0D68EE73E080E090E00E94230E25
:1042000060E070E089E00E949F0D6FEF70E086E053
:104210000E949F0D68EE73E080E090E00E94230E04
:1042200060E070E086E00E949F0D6FEF70E083E039
:104230000E949F0D68EE73E080E090E00E94230EE4
:1042400062E673E0C6010E94570C6BE673E0CE0194
:1042500007960E94570C64E773E0CE010D960E940A
:10426000570C6DE773E0CE0143960E94570C66E849
:1042700073E0CE0149960E94570C6FE873E0CE01BF
:104280004F960E94570C68E973E0CE0185960E9414
:10429000570C61EA73E0CE018B960E94570C6AEAD4
:1042A00073E0CE01C1960E94570C63EB73E0CE0120
:1042B000C7960E94570C62E473E0CE01CD960E942F
:1042C000570C61EE76E0CE018D5B9F4F0E944E0C45
:1042D00068E673E0CE018D5B9F4F0E94750BBC01B9
:1042E000CE01CD960E94D90BCE018D5B9F4F0E94CF
:1042F000F00B0E945D0E4B015C0138EE830E33E043
:10430000931EA11CB11C00E01FEFF4EFEF2EFF2461
:10431000F394A6E07A2E8FE00E940A0D892B09F40F
:1043200001E080E10E940A0D892B09F400E00E945F
:104330005D0EDC01CB0188199909AA09BB09970117
:104340000F2C000C440B550B281739074A075B0745
:10435000C8F40E945D0E4B015C01011101C01F5F9A
:104360001A3019F01B3029F410C0E8EBEE2EEBE008
:10437000FE2EB601719E600D711D112487EC96E032
:104380000E94D90B0E94921AC6CF81E080935405F7
:1043900088E680937605109255051092770561E1C5
:1043A0008CE696E00E94B9160E944A1582E090E0E1
:1043B0000E9401158CE696E00E946D16182F8AED7A
:1043C00090E00E948213812F012E000C990B0E9415
:1043D0007F141550183320F48E010D5B1F4F18C049
:1043E0008BEC90E00E94A31305E010E048EE53E050
:1043F00060E070E088EE93E00E94971160ED77E056
:1044000080E090E00E94230E0150110979F7E4CF7B
:1044100006501109C8010E94F00B0C151D05C1F7CB
:104420000E94790300915F04109160040E945D0E68
:104430004B015C0181E08093F704112780915F04B8
:10444000909160040817190789F40E9479030E946B
:104450005D0EDC01CB0188199909AA09BB09893BCA
:104460009B40A105B10550F31092F70460906504DC
:10447000F09066047090630410916404809061046D
:104480003091620490905F0450916004A0905D04AC
:1044900070915E04B0905B04E62C072D282D492D09
:1044A0006A2D8B2D90915C040E94FF0F60E085E0E7
:1044B0000E94330D282D492D6A2D8B2D0E94A715A2
:1044C00061E085E00E94330DCE0101961C010E943F
:1044D0005D0E20E63AEE40E050E00E946433672B28
:1044E000682B692B29F48091F70481110C94C92D54
:1044F0000091590410915A04F8018081882309F42D
:1045000031C10E945D0E8090870490908804A09035
:104510008904B0908A04DC01CB0188199909AA09A1
:10452000BB098090830490908404A0908504B0908F
:10453000860488169906AA06BB0608F013C10E94D5
:104540005D0E4B015C016093870470938804809337
:10455000890490938A041092490410924804C80177
:104560006AE08C01FC01F080019640ED4F0D209136
:104570004804309149044A3080F4629FA001639F4F
:10458000500D1124EF2DFF0CFF0BF097E40FF51FDA
:10459000F0934904E0934804E4CF6091440470919F
:1045A000450480914604909147042115310529F076
:1045B000032E000C440B550B05C020915F0130E029
:1045C00040E050E00E9486332093830430938404BB
:1045D00040938504509386048F2DFF0C990BAA0BF2
:1045E000BB0BFC01E156F109E730F10520F4EC5C6E
:1045F000FF4F0C94A533109282040FC081E00BC0D2
:1046000083E009C085E007C086E005C088E003C0FC
:104610008AE001C08CE080938204F80181818332BA
:1046200019F00F5F1F4F07C0809182048F5F809346
:1046300082040E5F1F4FF80180818E32F1F44090AA
:104640008304509084046090850470908604C301B4
:10465000B20122E030E040E050E00E948633420E9A
:10466000531E641E751E409283045092840460920F
:104670008504709286040F5F1F4FF801808180537C
:104680008A3028F4809381040F5F1F4F04C080910B
:104690005E018093810420918104F80180818C3235
:1046A00011F40F5F1F4F40918204442309F45AC054
:1046B0004090830450908404609085047090860438
:1046C00030E0245031095CE0529FC001539F900DAF
:1046D0001124FC01E40FF11DEE0FFF1FE152FE4F0C
:1046E000B301A201808191810E9497110E945D0E09
:1046F000DC01CB0188199909AA09BB09481659069A
:104700006A067B0678F50E945D0E609387047093BD
:1047100088048093890490938A048091CE05813027
:1047200051F0823071F0811111C080916E008D7F47
:1047300080936E000BC080916F008D7F80936F001F
:1047400005C0809170008D7F8093700060E0809143
:10475000CD050E94330D8FEE90E00E94A31390E0F0
:1047600080E002C0902F812F9093590480935A04C7
:104770000E945D0E0091F3041091F4042091F50461
:104780003091F604DC01CB01801B910BA20BB30B23
:104790000697A105B10508F4DAC08091600188236D
:1047A00031F08091BF019091C001009781F460E0E9
:1047B00070E089E00E949F0D60E070E086E00E945A
:1047C0009F0D60E070E083E00E949F0DB6C02091D5
:1047D000E004211143C09C012F5F3F4F40916101D4
:1047E00050916201249FC001259F900D349F900D30
:1047F000112464E670E00E94503389E00E949F0D0E
:104800002091BF013091C0012F5F3F4F4091E704DD
:104810005091E804249FC001259F900D349F900D76
:10482000112464E670E00E94503386E00E949F0DE0
:104830002091BF013091C0012F5F3F4F4091E504AF
:104840005091E604249FC001259F900D349F900D48
:10485000112464E670E00E9450330CC060E070E008
:1048600089E00E949F0D60E070E086E00E949F0D4D
:1048700060E070E083E00E949F0D8091EF04811161
:104880005CC020918D0430918E04C901880F991F5E
:10489000820F931FFC01EE0FFF1FEF5BFD4F609136
:1048A00061017091620140815181460F571F509301
:1048B000620140936101FC01EE0FFF1FED5BFD4FB4
:1048C0006091E7047091E80440815181460F571FC1
:1048D0005093E8044093E704880F991FFC01EB5BB9
:1048E000FD4F4091E5045091E60480819181840F51
:1048F000951F9093E6048093E50480918B0490913A
:104900008C04019690938C0480938B048F3F9105C7
:1049100051F42F5F3F4F30938E0420938D041092FB
:104920008C0410928B0480918D0490918E040697D4
:1049300024F010928E0410928D040E945D0E6093FC
:10494000F3047093F4048093F5049093F60480913B
:10495000570490915804892B21F08091F204811121
:1049600024C280915604811120C28091BB01909194
:10497000BC01892B09F419C28091A10481110DC0D9
:104980000E945D0E60939D0470939E0480939F042B
:104990009093A00481E08093A104809195048111FB
:1049A0000DC00E945D0E60939104709392048093F9
:1049B00093049093940481E0809395040E945D0E8B
:1049C00000919D0410919E0420919F043091A004B9
:1049D000DC01CB01801B910BA20BB30B009178067D
:1049E0001091790620917A0630917B0608171907F5
:1049F0002A073B0708F077C00E945D0E60939D0474
:104A000070939E0480939F049093A00440918F0420
:104A10005091900441155105A1F481E090E09093EC
:104A20005804809357042091BD013091BE0168EE77
:104A300073E0269FC001279F900D369F900D112493
:104A400016C04130510501F584E090E09093580480
:104A5000809357042091BD013091BE01E8EEF3E050
:104A60002E9FC0012F9F900D3E9F900D1124092E67
:104A7000000CAA0BBB0B8093780690937906A09349
:104A80007A06B0937B0617C042305105A1F410920C
:104A9000580410925704A091BB01B091BC0120E6CC
:104AA0003AEE0E94AB336093780670937906809358
:104AB0007A0690937B06CA010196833091052CF407
:104AC0009093900480938F0404C0109290041092ED
:104AD0008F048091F204882321F0109258041092E0
:104AE00057041092F2040E945D0E00919D041091F3
:104AF0009E0420919F043091A004DC01CB01801B17
:104B0000910BA20BB30B803D9740A105B10508F0B6
:104B10004AC10E945D0E009191041091920420916F
:104B2000930430919404DC01CB01801B910BA20B08
:104B3000B30B85369105A105B10508F436C10E9475
:104B40005D0E60939104709392048093930490930C
:104B500094048091570490915804892B91F5CE01CB
:104B60008D5B9F4F0E94280881E02091B701309112
:104B7000B801232B09F480E00E94D900AB01BC01ED
:104B800020E0C6010E945704AE014D5B5F4FB601A5
:104B9000CE01875B9F4F0E947501BE01675B7F4F0F
:104BA00087EC96E00E94F30ACE01875B9F4F0E943C
:104BB000F00BC6010E94F00BCE018D5B9F4F0E944F
:104BC000F00B8091570490915804019709F06BC045
:104BD0000E94651168EE73E00E945033BC01CE0163
:104BE0008B5A9F4F0E9409040E946F11BC01CE0195
:104BF000815B9F4F0E9409040E947711BC01CE0186
:104C00008D5B9F4F0E940904BE016D5B7F4FCE01FB
:104C1000875B9F4F0E944E0CBE01615B7F4FCE01B0
:104C2000875B9F4F0E948E0BBE016B5A7F4F0E9485
:104C30008E0BBC01CE01855A9F4F0E944E0CC601BF
:104C40000E942808AE01455A5F4FB601CE018F5928
:104C50009F4F0E947501BE016F597F4F87EC96E010
:104C60000E94F30ACE018F599F4F0E94F00BC6019C
:104C70000E94F00BCE01855A9F4F0E94F00BCE018F
:104C8000875B9F4F0E94F00BCE018D5B9F4F0E9470
:104C9000F00BCE01815B9F4F0E94F00BCE018B5A2F
:104CA0009F4F0E94F00B80915704909158040497F5
:104CB00009F07BC081E02091B7013091B801232B2E
:104CC00009F480E00E94D900AB01BC0120E0CE01D4
:104CD000855A9F4F0E9457040E94651168EE73E049
:104CE0000E945033BC01CE01815B9F4F0E9409049A
:104CF0000E946F11BC01CE01875B9F4F0E94090487
:104D00000E947711BC01C6010E940904B601CE01C0
:104D10008D5B9F4F0E944E0CBE01675B7F4FCE01A3
:104D20008D5B9F4F0E948E0BBE01615B7F4F0E9487
:104D30008E0BBC01CE018B5A9F4F0E944E0CAE01D0
:104D4000455A5F4FBE016B5A7F4FCE018F599F4F1F
:104D50000E947501BE016F597F4F87EC96E00E945B
:104D6000F30ACE018F599F4F0E94F00BCE018B5A50
:104D70009F4F0E94F00BCE018D5B9F4F0E94F00B66
:104D8000C6010E94F00BCE01875B9F4F0E94F00B83
:104D9000CE01815B9F4F0E94F00BCE01855A9F4F41
:104DA0000E94F00B02C010924C040E94921A8EEAEC
:104DB00096E00E94AA1885E996E00E94AA188CE75E
:104DC00096E00E94AA1880915604811105C01092A5
:104DD00055041092540430C00E945D0E009150049E
:104DE000109151042091520430915304DC01CB0105
:104DF000801B910BA20BB30B81369A4EA105B10516
:104E0000D8F010925604E0915704F0915804EE0F38
:104E1000FF1FEF53FD4F8081918190935804809341
:104E20005704880F991FFC01ED59FE4F8081918135
:104E300090935504809354048091AE069091AF06F0
:104E4000181619060CF05EC181E08093F2041092EE
:104E50005A041092590444E650E060E070E088EE95
:104E600093E00E9497110E945D0E6093500470932E
:104E7000510480935204909353048091570490916D
:104E8000580401968730910529F090935804809337
:104E9000570404C0109258041092570420915704EC
:104EA00030915804F901EE0FFF1FED59FE4F80813C
:104EB0009181909355048093540421503109F90154
:104EC000EE0FFF1FED56FD4F4081518141155105F9
:104ED00009F404C1CA010197FC01EE0FFF1FEB5951
:104EE000FD4F608171816217730709F0F7C042308E
:104EF000510569F528E1E7ECF1E0D60101900D924A
:104F00002A95E1F72091AB013091AC012370332752
:104F1000232B21F42DE130E03C832B832091A7014A
:104F20003091A801E091A901F091AA013197EE0F0B
:104F3000FF1FEC0DFD1D40815181421753073CF4CA
:104F40008AE090E090935804809357040FC6109223
:104F500056049093580480935704892BB9F40E9407
:104F600065117C010E946F118C010E9477114091A4
:104F7000A5015091A6016091A3017091A4019C012B
:104F80008091A1019091A2010E94FF0F809157048E
:104F9000909158040197C9F4E090AB01F090AC01F6
:104FA0000091A9011091AA016090A7017090A80139
:104FB0000E947F114C010E9487115C010E948F1199
:104FC0009301A401B5010E94FF0F809157049091B5
:104FD00058040297C1F46091AD0182E090E00E9414
:104FE0008E1A6091AF0183E090E00E948E1A60916A
:104FF000B10184E090E00E948E1A6091B30186E0D6
:1050000090E00E948E1A8091570490915804039763
:1050100031F46091B50181E090E00E948E1A809198
:10502000570490915804049731F46091B7018BE0D4
:1050300090E00E948E1A8091570490915804049732
:1050400009F4C5C58091570490915804059761F4FF
:105050006091BB018EE090E00E948E1A6091BD01CC
:105060008FE090E00E948E1A80915704909158042E
:10507000069731F46091BF0180E190E00E948E1AA2
:1050800060E085E00E94330D0E9465117C010E9462
:105090006F11082F0E947711A9968FAFA9970E94D0
:1050A0007F11A8968FAFA8970E948711182F0E9492
:1050B0008F11382FC70168EE73E00E945033E82E3D
:1050C000A9962FADA997A8964FADA897612F832FCA
:1050D0000E94A71561E085E00E94330D00915704FE
:1050E000109158040331110569F080915404909196
:1050F00055040E940E03000F111FF801ED56FE4FDC
:10510000918380838091AE069091AF0697FF97C000
:1051100044E650E060E070E088EE93E00E94971172
:1051200080915604811155C00E945D0E6093500419
:1051300070935104809352049093530480915704C8
:1051400090915804892B09F044C00E947F11BC0142
:10515000C6010E9409040E948711BC01CE018D5B2B
:105160009F4F0E9409040E948F11BC01CE01815BF8
:105170009F4F0E940904BE01615B7F4FCE01875B98
:105180009F4F0E944E0CBE016D5B7F4FCE01875B2F
:105190009F4F0E948E0BB6010E948E0B68E673E053
:1051A0000E94750BBC0187EC96E00E94D90BCE01E2
:1051B000875B9F4F0E94F00BCE01815B9F4F0E9447
:1051C000F00BCE018D5B9F4F0E94F00BC6010E9439
:1051D000F00BE0915704F0915804EE0FFF1FEF53CE
:1051E000FD4F2081318130935804209357042D3096
:1051F000310549F481E090E09093B4018093B301CC
:1052000080E880934F049091560481E08927809331
:1052100056048901000F111FF801ED59FE4F8081DE
:10522000918190935504809354042231310539F0D3
:105230000E940E03F801ED56FE4F9183808380910A
:10524000950690919606009719F19093F10480933A
:10525000F00418161906E4F481E08093F204109229
:105260005A041092590444E650E060E070E088EE81
:1052700093E00E9497110E94CC07809156048111FF
:1052800007C01092EF0460E087E090E00E948E1A61
:105290008091F0049091F104019661F58091970658
:1052A000882341F110924E0480915604882329F1FD
:1052B0000E945D0E0091EB041091EC042091ED042E
:1052C0003091EE04DC01CB01801B910BA20BB30BE0
:1052D00087399105A105B10580F00E945D0E6093AC
:1052E000EB047093EC048093ED049093EE040E9421
:1052F000CC0703C081E080934E0480917C0690919E
:105300007D060097A9F19093EA048093E9041816AA
:10531000190674F511E01093F20410925A041092D9
:10532000590444E650E060E070E088EE93E00E94AB
:1053300097110E94700780915604811119C0109333
:10534000EF0461E087E090E00E948E1A60916101B5
:1053500088E090E00E948E1A6091E70489E090E076
:105360000E948E1A6091E5048AE090E00E948E1AF5
:105370008091E9049091EA04019661F580917E069E
:10538000882341F110924D0480915604882329F11D
:105390000E945D0E0091E1041091E2042091E3046B
:1053A0003091E404DC01CB01801B910BA20BB30B09
:1053B00087399105A105B10580F00E945D0E6093CB
:1053C000E1047093E2048093E3049093E4040E9468
:1053D000700703C081E080934D04809156048111D1
:1053E00043C0809195069091960697FF28C044E6A9
:1053F00050E060E070E088EE93E00E94971181E059
:105400008093600161E080E090E00E948E1A88E065
:1054100090E00E94901A682F89E00E94330D89E085
:1054200090E00E94901A682F86E00E94330D8AE077
:1054300090E00E94901A682F83E00E94330D8091C3
:105440007C0690917D0697FF0FC044E650E060E037
:1054500070E088EE93E00E9497111092600160E086
:1054600080E090E00E948E1AE0915704F091580479
:10547000E731F10508F07AC3E55CFF4F0C94A533E2
:105480001092E00480914C0481112FC00E945D0EA7
:105490000091A9041091AA042091AB043091AC04AE
:1054A000DC01CB01801B910BA20BB30BC397A105B1
:1054B000B10570F00E945D0E6093A9047093AA0478
:1054C0008093AB049093AC04C6010E94280805C0E9
:1054D00067EC76E0C6010E944E0CB60187EC96E0C0
:1054E0000E94F30AC6010E94F00B8091B204811160
:1054F0000DC00E945D0E6093AE047093AF04809364
:10550000B0049093B10481E08093B2040E945D0ED8
:105510000091AE041091AF042091B0043091B10419
:10552000DC01CB01801B910BA20BB30B893E934096
:10553000A105B10508F4F5C00E945D0E6093AE04AC
:105540007093AF048093B0049093B1049091AD0434
:1055500081E089278093AD04882311F080ECDFC0BF
:1055600010924F04DEC080914C048111D7C080910D
:10557000CC0481110DC00E945D0E6093C80470932D
:10558000C9048093CA049093CB0481E08093CC0437
:105590008091C004811147C00E94651168EE73E0DC
:1055A0000E945033BC01C1010E9409040E946F1186
:1055B000BC01CE018D5B9F4F0E9409040E947711B0
:1055C000BC01CE01815B9F4F0E940904BE01615B5B
:1055D0007F4FCE01875B9F4F0E944E0CBE016D5BDB
:1055E0007F4FCE01875B9F4F0E948E0BB1010E94BF
:1055F0008E0BBC018AEB94E00E944E0C81E08093FC
:10560000C004CE01875B9F4F0E94F00BCE01815BEF
:105610009F4F0E94F00BCE018D5B9F4F0E94F00BBD
:10562000C1010E94F00B0E945D0E0091C804109110
:10563000C9042091CA043091CB04DC01CB01801B4A
:10564000910BA20BB30B893E9340A105B10508F461
:1056500058C00E945D0E6093C8047093C904809383
:10566000CA049093CB040E9465117C010E946F11C3
:10567000BC01CE018D5B9F4F0E9409040E947711EF
:10568000BC01CE01815B9F4F0E940904BE01615B9A
:105690007F4FCE01875B9F4F0E944E0CBE016D5B1A
:1056A0007F4FCE01875B9F4F0E948E0B8C014AE09B
:1056B000B101C7010E942830F10101900020E9F7F3
:1056C0003197AF0142195309B101C8010E949A0AEA
:1056D000811103C0C8010E942C0BB8018AEB94E031
:1056E0000E94D90BCE01875B9F4F0E94F00BCE0129
:1056F000815B9F4F0E94F00BCE018D5B9F4F0E94FC
:10570000F00B6AEB74E0C1010E944E0CB10187EC12
:1057100096E00E94F30AC1010E94F00B80E880939A
:105720004F040E941C0210924B0410924A041EC2A5
:105730006091B1017091B201C6010E9409046091AB
:10574000AF017091B001CE018D5B9F4F0E940904A3
:105750006091AD017091AE01CE01815B9F4F0E94BF
:105760000904BE01615B7F4FCE01875B9F4F0E94A2
:105770004E0CBE016D5B7F4FCE01875B9F4F0E9439
:105780008E0BB6010E948E0B68E673E00E94750BCB
:10579000BC0187EC96E00E94D90BCE01875B9F4F3E
:1057A0000E94F00BCE01815B9F4F0E94F00BCE0157
:1057B0008D5B9F4F0E94F00BC6010E94F00B809101
:1057C000B3019091B401019781F580E880934F0473
:1057D0002EC06091B5017091B6014AE0C6010E94E9
:1057E000220C68E673E0CE018D5B9F4F0E94570C40
:1057F000B601CE018D5B9F4F0E948E0B66E673E073
:105800000E94750BBC0187EC96E00E94D90BCE017B
:105810008D5B9F4F0E94F00BC6010E94F00B8FEC36
:1058200090E090934B0480934A0410924F040E949E
:105830001C029CC180914C0481112FC081E02091F9
:10584000B7013091B801232B09F480E00E94D90000
:10585000AB01BC0120E0C6010E945704B60187ECF1
:1058600096E00E94F30AC6010E94F00B8091B701F6
:105870009091B801892B41F487EC90E090934B0410
:1058800080934A0480E807C08FE890E090934B042F
:1058900080934A0480EC80934F0481E02091B7010B
:1058A0003091B8013BC081E02091B7013091B8013F
:1058B000232B09F480E00E94D900AB01BC0121E058
:1058C000C6010E945704B60187EC96E00E94F30AD5
:1058D000C6010E94F00B2091B7013091B80121154B
:1058E000310561F487E090E090934B0480934A0483
:1058F00080E880934F0483E090E00BC083E890E061
:1059000090934B0480934A0480EC80934F0480E38F
:1059100090E0909355048093540481E0232B09F484
:1059200080E00E94D90020E030E0A9010E949F3071
:1059300090914F0487FF02C09F7701C090689093B9
:105940004F0414C110924B0410924A040E945D0E41
:10595000645D7E4F8F4F9F4F28EE33E040E050E074
:105960000E94643324E630E040E050E00E9464335B
:10597000BA01A9012AE0C6010E94F50B0E945D0E42
:1059800068537F4F8F4F9F4F28EE33E040E050E049
:105990000E94643324E630E040E050E00E9464332B
:1059A000BA01A9012AE0CE018D5B9F4F0E94F50B41
:1059B0000E945D0E6C597F4F8F4F9F4F28EE33E052
:1059C00040E050E00E94643324E630E040E050E0E4
:1059D0000E946433BA01A9012AE0CE01875B9F4F80
:1059E0000E94F50B0E945D0E28EE33E040E050E08F
:1059F0000E94643324E630E040E050E00E946433CB
:105A0000BA01A9012AE0CE01815B9F4F0E94F50BEC
:105A10006091BD017091BE01CE018B5A9F4F0E94D3
:105A200009046091BB017091BC01CE018F599F4F59
:105A30000E940904BE016F597F4FCE01855A9F4FC6
:105A40000E944E0CBE016B5A7F4FCE01855A9F4F6C
:105A50000E948E0BBE01615B7F4F0E948E0BBE01C8
:105A6000675B7F4F0E948E0BBE016D5B7F4F0E9474
:105A70008E0BB6010E948E0BBC0187EC96E00E9453
:105A8000D90BCE01855A9F4F0E94F00BCE018F5942
:105A90009F4F0E94F00BCE018B5A9F4F0E94F00B3C
:105AA000CE01815B9F4F0E94F00BCE01875B9F4F21
:105AB0000E94F00B53C08091D80481110DC00E9448
:105AC0005D0E6093D4047093D5048093D6049093B4
:105AD000D70481E08093D8040E945D0E0091D40425
